{
	"src/Derivatives/EquityToken.sol": {
		"EquityToken": {
			"abi": [
				{
					"inputs": [
						{
							"internalType": "contract ERC20",
							"name": "_token",
							"type": "address"
						},
						{
							"internalType": "string",
							"name": "_name",
							"type": "string"
						},
						{
							"internalType": "string",
							"name": "_symbol",
							"type": "string"
						}
					],
					"stateMutability": "nonpayable",
					"type": "constructor"
				},
				{
					"anonymous": false,
					"inputs": [
						{
							"indexed": true,
							"internalType": "address",
							"name": "owner",
							"type": "address"
						},
						{
							"indexed": true,
							"internalType": "address",
							"name": "spender",
							"type": "address"
						},
						{
							"indexed": false,
							"internalType": "uint256",
							"name": "amount",
							"type": "uint256"
						}
					],
					"name": "Approval",
					"type": "event"
				},
				{
					"anonymous": false,
					"inputs": [
						{
							"indexed": true,
							"internalType": "address",
							"name": "caller",
							"type": "address"
						},
						{
							"indexed": true,
							"internalType": "address",
							"name": "owner",
							"type": "address"
						},
						{
							"indexed": false,
							"internalType": "uint256",
							"name": "assets",
							"type": "uint256"
						},
						{
							"indexed": false,
							"internalType": "uint256",
							"name": "shares",
							"type": "uint256"
						}
					],
					"name": "Deposit",
					"type": "event"
				},
				{
					"anonymous": false,
					"inputs": [
						{
							"indexed": true,
							"internalType": "address",
							"name": "from",
							"type": "address"
						},
						{
							"indexed": true,
							"internalType": "address",
							"name": "to",
							"type": "address"
						},
						{
							"indexed": false,
							"internalType": "uint256",
							"name": "amount",
							"type": "uint256"
						}
					],
					"name": "Transfer",
					"type": "event"
				},
				{
					"anonymous": false,
					"inputs": [
						{
							"indexed": true,
							"internalType": "address",
							"name": "caller",
							"type": "address"
						},
						{
							"indexed": true,
							"internalType": "address",
							"name": "receiver",
							"type": "address"
						},
						{
							"indexed": true,
							"internalType": "address",
							"name": "owner",
							"type": "address"
						},
						{
							"indexed": false,
							"internalType": "uint256",
							"name": "assets",
							"type": "uint256"
						},
						{
							"indexed": false,
							"internalType": "uint256",
							"name": "shares",
							"type": "uint256"
						}
					],
					"name": "Withdraw",
					"type": "event"
				},
				{
					"inputs": [],
					"name": "DOMAIN_SEPARATOR",
					"outputs": [
						{
							"internalType": "bytes32",
							"name": "",
							"type": "bytes32"
						}
					],
					"stateMutability": "view",
					"type": "function"
				},
				{
					"inputs": [
						{
							"internalType": "address",
							"name": "",
							"type": "address"
						},
						{
							"internalType": "address",
							"name": "",
							"type": "address"
						}
					],
					"name": "allowance",
					"outputs": [
						{
							"internalType": "uint256",
							"name": "",
							"type": "uint256"
						}
					],
					"stateMutability": "view",
					"type": "function"
				},
				{
					"inputs": [
						{
							"internalType": "address",
							"name": "spender",
							"type": "address"
						},
						{
							"internalType": "uint256",
							"name": "amount",
							"type": "uint256"
						}
					],
					"name": "approve",
					"outputs": [
						{
							"internalType": "bool",
							"name": "",
							"type": "bool"
						}
					],
					"stateMutability": "nonpayable",
					"type": "function"
				},
				{
					"inputs": [],
					"name": "asset",
					"outputs": [
						{
							"internalType": "contract ERC20",
							"name": "",
							"type": "address"
						}
					],
					"stateMutability": "view",
					"type": "function"
				},
				{
					"inputs": [
						{
							"internalType": "address",
							"name": "",
							"type": "address"
						}
					],
					"name": "balanceOf",
					"outputs": [
						{
							"internalType": "uint256",
							"name": "",
							"type": "uint256"
						}
					],
					"stateMutability": "view",
					"type": "function"
				},
				{
					"inputs": [
						{
							"internalType": "uint256",
							"name": "shares",
							"type": "uint256"
						}
					],
					"name": "convertToAssets",
					"outputs": [
						{
							"internalType": "uint256",
							"name": "assets",
							"type": "uint256"
						}
					],
					"stateMutability": "view",
					"type": "function"
				},
				{
					"inputs": [
						{
							"internalType": "uint256",
							"name": "assets",
							"type": "uint256"
						}
					],
					"name": "convertToShares",
					"outputs": [
						{
							"internalType": "uint256",
							"name": "shares",
							"type": "uint256"
						}
					],
					"stateMutability": "view",
					"type": "function"
				},
				{
					"inputs": [],
					"name": "decimals",
					"outputs": [
						{
							"internalType": "uint8",
							"name": "",
							"type": "uint8"
						}
					],
					"stateMutability": "view",
					"type": "function"
				},
				{
					"inputs": [
						{
							"internalType": "uint256",
							"name": "assets",
							"type": "uint256"
						},
						{
							"internalType": "address",
							"name": "receiver",
							"type": "address"
						}
					],
					"name": "deposit",
					"outputs": [
						{
							"internalType": "uint256",
							"name": "shares",
							"type": "uint256"
						}
					],
					"stateMutability": "nonpayable",
					"type": "function"
				},
				{
					"inputs": [
						{
							"internalType": "address",
							"name": "user",
							"type": "address"
						}
					],
					"name": "maxDeposit",
					"outputs": [
						{
							"internalType": "uint256",
							"name": "maxAssets",
							"type": "uint256"
						}
					],
					"stateMutability": "view",
					"type": "function"
				},
				{
					"inputs": [
						{
							"internalType": "address",
							"name": "user",
							"type": "address"
						}
					],
					"name": "maxMint",
					"outputs": [
						{
							"internalType": "uint256",
							"name": "maxShares",
							"type": "uint256"
						}
					],
					"stateMutability": "view",
					"type": "function"
				},
				{
					"inputs": [
						{
							"internalType": "address",
							"name": "owner",
							"type": "address"
						}
					],
					"name": "maxRedeem",
					"outputs": [
						{
							"internalType": "uint256",
							"name": "maxShares",
							"type": "uint256"
						}
					],
					"stateMutability": "view",
					"type": "function"
				},
				{
					"inputs": [
						{
							"internalType": "address",
							"name": "owner",
							"type": "address"
						}
					],
					"name": "maxWithdraw",
					"outputs": [
						{
							"internalType": "uint256",
							"name": "maxAssets",
							"type": "uint256"
						}
					],
					"stateMutability": "view",
					"type": "function"
				},
				{
					"inputs": [
						{
							"internalType": "uint256",
							"name": "shares",
							"type": "uint256"
						},
						{
							"internalType": "address",
							"name": "receiver",
							"type": "address"
						}
					],
					"name": "mint",
					"outputs": [
						{
							"internalType": "uint256",
							"name": "assets",
							"type": "uint256"
						}
					],
					"stateMutability": "nonpayable",
					"type": "function"
				},
				{
					"inputs": [],
					"name": "name",
					"outputs": [
						{
							"internalType": "string",
							"name": "",
							"type": "string"
						}
					],
					"stateMutability": "view",
					"type": "function"
				},
				{
					"inputs": [
						{
							"internalType": "address",
							"name": "",
							"type": "address"
						}
					],
					"name": "nonces",
					"outputs": [
						{
							"internalType": "uint256",
							"name": "",
							"type": "uint256"
						}
					],
					"stateMutability": "view",
					"type": "function"
				},
				{
					"inputs": [
						{
							"internalType": "address",
							"name": "owner",
							"type": "address"
						},
						{
							"internalType": "address",
							"name": "spender",
							"type": "address"
						},
						{
							"internalType": "uint256",
							"name": "value",
							"type": "uint256"
						},
						{
							"internalType": "uint256",
							"name": "deadline",
							"type": "uint256"
						},
						{
							"internalType": "uint8",
							"name": "v",
							"type": "uint8"
						},
						{
							"internalType": "bytes32",
							"name": "r",
							"type": "bytes32"
						},
						{
							"internalType": "bytes32",
							"name": "s",
							"type": "bytes32"
						}
					],
					"name": "permit",
					"outputs": [],
					"stateMutability": "nonpayable",
					"type": "function"
				},
				{
					"inputs": [
						{
							"internalType": "uint256",
							"name": "assets",
							"type": "uint256"
						}
					],
					"name": "previewDeposit",
					"outputs": [
						{
							"internalType": "uint256",
							"name": "shares",
							"type": "uint256"
						}
					],
					"stateMutability": "view",
					"type": "function"
				},
				{
					"inputs": [
						{
							"internalType": "uint256",
							"name": "shares",
							"type": "uint256"
						}
					],
					"name": "previewMint",
					"outputs": [
						{
							"internalType": "uint256",
							"name": "assets",
							"type": "uint256"
						}
					],
					"stateMutability": "view",
					"type": "function"
				},
				{
					"inputs": [
						{
							"internalType": "uint256",
							"name": "shares",
							"type": "uint256"
						}
					],
					"name": "previewRedeem",
					"outputs": [
						{
							"internalType": "uint256",
							"name": "assets",
							"type": "uint256"
						}
					],
					"stateMutability": "view",
					"type": "function"
				},
				{
					"inputs": [
						{
							"internalType": "uint256",
							"name": "assets",
							"type": "uint256"
						}
					],
					"name": "previewWithdraw",
					"outputs": [
						{
							"internalType": "uint256",
							"name": "shares",
							"type": "uint256"
						}
					],
					"stateMutability": "view",
					"type": "function"
				},
				{
					"inputs": [
						{
							"internalType": "uint256",
							"name": "shares",
							"type": "uint256"
						},
						{
							"internalType": "address",
							"name": "receiver",
							"type": "address"
						},
						{
							"internalType": "address",
							"name": "owner",
							"type": "address"
						}
					],
					"name": "redeem",
					"outputs": [
						{
							"internalType": "uint256",
							"name": "assets",
							"type": "uint256"
						}
					],
					"stateMutability": "nonpayable",
					"type": "function"
				},
				{
					"inputs": [],
					"name": "symbol",
					"outputs": [
						{
							"internalType": "string",
							"name": "",
							"type": "string"
						}
					],
					"stateMutability": "view",
					"type": "function"
				},
				{
					"inputs": [],
					"name": "token",
					"outputs": [
						{
							"internalType": "contract ERC20",
							"name": "",
							"type": "address"
						}
					],
					"stateMutability": "view",
					"type": "function"
				},
				{
					"inputs": [],
					"name": "totalAssets",
					"outputs": [
						{
							"internalType": "uint256",
							"name": "totalManagedAssets",
							"type": "uint256"
						}
					],
					"stateMutability": "view",
					"type": "function"
				},
				{
					"inputs": [],
					"name": "totalSupply",
					"outputs": [
						{
							"internalType": "uint256",
							"name": "",
							"type": "uint256"
						}
					],
					"stateMutability": "view",
					"type": "function"
				},
				{
					"inputs": [
						{
							"internalType": "address",
							"name": "to",
							"type": "address"
						},
						{
							"internalType": "uint256",
							"name": "amount",
							"type": "uint256"
						}
					],
					"name": "transfer",
					"outputs": [
						{
							"internalType": "bool",
							"name": "",
							"type": "bool"
						}
					],
					"stateMutability": "nonpayable",
					"type": "function"
				},
				{
					"inputs": [
						{
							"internalType": "address",
							"name": "from",
							"type": "address"
						},
						{
							"internalType": "address",
							"name": "to",
							"type": "address"
						},
						{
							"internalType": "uint256",
							"name": "amount",
							"type": "uint256"
						}
					],
					"name": "transferFrom",
					"outputs": [
						{
							"internalType": "bool",
							"name": "",
							"type": "bool"
						}
					],
					"stateMutability": "nonpayable",
					"type": "function"
				},
				{
					"inputs": [
						{
							"internalType": "uint256",
							"name": "assets",
							"type": "uint256"
						},
						{
							"internalType": "address",
							"name": "receiver",
							"type": "address"
						},
						{
							"internalType": "address",
							"name": "owner",
							"type": "address"
						}
					],
					"name": "withdraw",
					"outputs": [
						{
							"internalType": "uint256",
							"name": "shares",
							"type": "uint256"
						}
					],
					"stateMutability": "nonpayable",
					"type": "function"
				}
			],
			"devdoc": {
				"kind": "dev",
				"methods": {},
				"version": 1
			},
			"evm": {
				"assembly": "    /* \"src/Derivatives/EquityToken.sol\":315:5807  contract EquityToken is ERC4626 {... */\n  mstore(0x40, 0x0100)\n    /* \"src/Derivatives/EquityToken.sol\":473:611  constructor(... */\n  callvalue\n  dup1\n  iszero\n  tag_1\n  jumpi\n  0x00\n  dup1\n  revert\ntag_1:\n  pop\n  mload(0x40)\n  sub(codesize, bytecodeSize)\n  dup1\n  bytecodeSize\n  dup4\n  codecopy\n  dup2\n  dup2\n  add\n  0x40\n  mstore\n  dup2\n  add\n  swap1\n  tag_2\n  swap2\n  swap1\n  tag_3\n  jump\t// in\ntag_2:\n    /* \"src/Derivatives/EquityToken.sol\":585:591  _token */\n  dup3\n    /* \"src/Derivatives/EquityToken.sol\":593:598  _name */\n  dup3\n    /* \"src/Derivatives/EquityToken.sol\":600:607  _symbol */\n  dup3\n    /* \"solmate/src/mixins/ERC4626.sol\":1290:1295  _name */\n  dup2\n    /* \"solmate/src/mixins/ERC4626.sol\":1297:1304  _symbol */\n  dup2\n    /* \"solmate/src/mixins/ERC4626.sol\":1306:1312  _asset */\n  dup5\n    /* \"solmate/src/mixins/ERC4626.sol\":1306:1321  _asset.decimals */\n  0xffffffffffffffffffffffffffffffffffffffff\n  and\n  0x313ce567\n    /* \"solmate/src/mixins/ERC4626.sol\":1306:1323  _asset.decimals() */\n  mload(0x40)\n  dup2\n  0xffffffff\n  and\n  0xe0\n  shl\n  dup2\n  mstore\n  0x04\n  add\n  0x20\n  mload(0x40)\n  dup1\n  dup4\n  sub\n  dup2\n  dup7\n  gas\n  staticcall\n  iszero\n  dup1\n  iszero\n  tag_7\n  jumpi\n  returndatasize\n  0x00\n  dup1\n  returndatacopy\n  revert(0x00, returndatasize)\ntag_7:\n  pop\n  pop\n  pop\n  pop\n  mload(0x40)\n  returndatasize\n  not(0x1f)\n  0x1f\n  dup3\n  add\n  and\n  dup3\n  add\n  dup1\n  0x40\n  mstore\n  pop\n  dup2\n  add\n  swap1\n  tag_8\n  swap2\n  swap1\n  tag_9\n  jump\t// in\ntag_8:\n    /* \"solmate/src/tokens/ERC20.sol\":2101:2106  _name */\n  dup3\n    /* \"solmate/src/tokens/ERC20.sol\":2094:2098  name */\n  0x00\n    /* \"solmate/src/tokens/ERC20.sol\":2094:2106  name = _name */\n  swap1\n  dup2\n  tag_12\n  swap2\n  swap1\n  tag_13\n  jump\t// in\ntag_12:\n  pop\n    /* \"solmate/src/tokens/ERC20.sol\":2125:2132  _symbol */\n  dup2\n    /* \"solmate/src/tokens/ERC20.sol\":2116:2122  symbol */\n  0x01\n    /* \"solmate/src/tokens/ERC20.sol\":2116:2132  symbol = _symbol */\n  swap1\n  dup2\n  tag_14\n  swap2\n  swap1\n  tag_13\n  jump\t// in\ntag_14:\n  pop\n    /* \"solmate/src/tokens/ERC20.sol\":2153:2162  _decimals */\n  dup1\n    /* \"solmate/src/tokens/ERC20.sol\":2142:2162  decimals = _decimals */\n  0xff\n  and\n  0x80\n  dup2\n  0xff\n  and\n  dup2\n  mstore\n  pop\n  pop\n    /* \"solmate/src/tokens/ERC20.sol\":2192:2205  block.chainid */\n  chainid\n    /* \"solmate/src/tokens/ERC20.sol\":2173:2205  INITIAL_CHAIN_ID = block.chainid */\n  0xa0\n  dup2\n  dup2\n  mstore\n  pop\n  pop\n    /* \"solmate/src/tokens/ERC20.sol\":2242:2266  computeDomainSeparator() */\n  tag_15\n    /* \"solmate/src/tokens/ERC20.sol\":2242:2264  computeDomainSeparator */\n  shl(0x20, tag_16)\n    /* \"solmate/src/tokens/ERC20.sol\":2242:2266  computeDomainSeparator() */\n  0x20\n  shr\n  jump\t// in\ntag_15:\n    /* \"solmate/src/tokens/ERC20.sol\":2215:2266  INITIAL_DOMAIN_SEPARATOR = computeDomainSeparator() */\n  0xc0\n  dup2\n  dup2\n  mstore\n  pop\n  pop\n    /* \"solmate/src/tokens/ERC20.sol\":1981:2273  constructor(... */\n  pop\n  pop\n  pop\n    /* \"solmate/src/mixins/ERC4626.sol\":1343:1349  _asset */\n  dup3\n    /* \"solmate/src/mixins/ERC4626.sol\":1335:1349  asset = _asset */\n  0xffffffffffffffffffffffffffffffffffffffff\n  and\n  0xe0\n  dup2\n  0xffffffffffffffffffffffffffffffffffffffff\n  and\n  dup2\n  mstore\n  pop\n  pop\n    /* \"solmate/src/mixins/ERC4626.sol\":1184:1356  constructor(... */\n  pop\n  pop\n  pop\n    /* \"src/Derivatives/EquityToken.sol\":473:611  constructor(... */\n  pop\n  pop\n  pop\n    /* \"src/Derivatives/EquityToken.sol\":315:5807  contract EquityToken is ERC4626 {... */\n  jump(tag_19)\n    /* \"solmate/src/tokens/ERC20.sol\":5510:5956  function computeDomainSeparator() internal view virtual returns (bytes32) {... */\ntag_16:\n    /* \"solmate/src/tokens/ERC20.sol\":5575:5582  bytes32 */\n  0x00\n    /* \"solmate/src/tokens/ERC20.sol\":5672:5767  keccak256(\"EIP712Domain(string name,string version,uint256 chainId,address verifyingContract)\") */\n  0x8b73c3c69bb8fe3d512ecc4cf759cc79239f7b179b0ffacaa9a75d522b39400f\n    /* \"solmate/src/tokens/ERC20.sol\":5805:5809  name */\n  0x00\n    /* \"solmate/src/tokens/ERC20.sol\":5789:5811  keccak256(bytes(name)) */\n  mload(0x40)\n  tag_21\n  swap2\n  swap1\n  tag_22\n  jump\t// in\ntag_21:\n  mload(0x40)\n  dup1\n  swap2\n  sub\n  swap1\n  keccak256\n    /* \"solmate/src/tokens/ERC20.sol\":5833:5847  keccak256(\"1\") */\n  0xc89efdaa54c0f20c7adf612882df0950f5a951637e0307cdcb4c672f298b8bc6\n    /* \"solmate/src/tokens/ERC20.sol\":5869:5882  block.chainid */\n  chainid\n    /* \"solmate/src/tokens/ERC20.sol\":5912:5916  this */\n  address\n    /* \"solmate/src/tokens/ERC20.sol\":5640:5935  abi.encode(... */\n  add(0x20, mload(0x40))\n  tag_23\n  swap6\n  swap5\n  swap4\n  swap3\n  swap2\n  swap1\n  tag_24\n  jump\t// in\ntag_23:\n  mload(0x40)\n  0x20\n  dup2\n  dup4\n  sub\n  sub\n  dup2\n  mstore\n  swap1\n  0x40\n  mstore\n    /* \"solmate/src/tokens/ERC20.sol\":5613:5949  keccak256(... */\n  dup1\n  mload\n  swap1\n  0x20\n  add\n  keccak256\n    /* \"solmate/src/tokens/ERC20.sol\":5594:5949  return... */\n  swap1\n  pop\n    /* \"solmate/src/tokens/ERC20.sol\":5510:5956  function computeDomainSeparator() internal view virtual returns (bytes32) {... */\n  swap1\n  jump\t// out\n    /* \"#utility.yul\":7:82   */\ntag_25:\n    /* \"#utility.yul\":40:46   */\n  0x00\n    /* \"#utility.yul\":73:75   */\n  0x40\n    /* \"#utility.yul\":67:76   */\n  mload\n    /* \"#utility.yul\":57:76   */\n  swap1\n  pop\n    /* \"#utility.yul\":7:82   */\n  swap1\n  jump\t// out\n    /* \"#utility.yul\":88:205   */\ntag_26:\n    /* \"#utility.yul\":197:198   */\n  0x00\n    /* \"#utility.yul\":194:195   */\n  dup1\n    /* \"#utility.yul\":187:199   */\n  revert\n    /* \"#utility.yul\":211:328   */\ntag_27:\n    /* \"#utility.yul\":320:321   */\n  0x00\n    /* \"#utility.yul\":317:318   */\n  dup1\n    /* \"#utility.yul\":310:322   */\n  revert\n    /* \"#utility.yul\":334:460   */\ntag_28:\n    /* \"#utility.yul\":371:378   */\n  0x00\n    /* \"#utility.yul\":411:453   */\n  0xffffffffffffffffffffffffffffffffffffffff\n    /* \"#utility.yul\":404:409   */\n  dup3\n    /* \"#utility.yul\":400:454   */\n  and\n    /* \"#utility.yul\":389:454   */\n  swap1\n  pop\n    /* \"#utility.yul\":334:460   */\n  swap2\n  swap1\n  pop\n  jump\t// out\n    /* \"#utility.yul\":466:562   */\ntag_29:\n    /* \"#utility.yul\":503:510   */\n  0x00\n    /* \"#utility.yul\":532:556   */\n  tag_78\n    /* \"#utility.yul\":550:555   */\n  dup3\n    /* \"#utility.yul\":532:556   */\n  tag_28\n  jump\t// in\ntag_78:\n    /* \"#utility.yul\":521:556   */\n  swap1\n  pop\n    /* \"#utility.yul\":466:562   */\n  swap2\n  swap1\n  pop\n  jump\t// out\n    /* \"#utility.yul\":568:677   */\ntag_30:\n    /* \"#utility.yul\":618:625   */\n  0x00\n    /* \"#utility.yul\":647:671   */\n  tag_80\n    /* \"#utility.yul\":665:670   */\n  dup3\n    /* \"#utility.yul\":647:671   */\n  tag_29\n  jump\t// in\ntag_80:\n    /* \"#utility.yul\":636:671   */\n  swap1\n  pop\n    /* \"#utility.yul\":568:677   */\n  swap2\n  swap1\n  pop\n  jump\t// out\n    /* \"#utility.yul\":683:831   */\ntag_31:\n    /* \"#utility.yul\":769:806   */\n  tag_82\n    /* \"#utility.yul\":800:805   */\n  dup2\n    /* \"#utility.yul\":769:806   */\n  tag_30\n  jump\t// in\ntag_82:\n    /* \"#utility.yul\":762:767   */\n  dup2\n    /* \"#utility.yul\":759:807   */\n  eq\n    /* \"#utility.yul\":749:825   */\n  tag_83\n  jumpi\n    /* \"#utility.yul\":821:822   */\n  0x00\n    /* \"#utility.yul\":818:819   */\n  dup1\n    /* \"#utility.yul\":811:823   */\n  revert\n    /* \"#utility.yul\":749:825   */\ntag_83:\n    /* \"#utility.yul\":683:831   */\n  pop\n  jump\t// out\n    /* \"#utility.yul\":837:1006   */\ntag_32:\n    /* \"#utility.yul\":907:912   */\n  0x00\n    /* \"#utility.yul\":938:944   */\n  dup2\n    /* \"#utility.yul\":932:945   */\n  mload\n    /* \"#utility.yul\":923:945   */\n  swap1\n  pop\n    /* \"#utility.yul\":954:1000   */\n  tag_85\n    /* \"#utility.yul\":994:999   */\n  dup2\n    /* \"#utility.yul\":954:1000   */\n  tag_31\n  jump\t// in\ntag_85:\n    /* \"#utility.yul\":837:1006   */\n  swap3\n  swap2\n  pop\n  pop\n  jump\t// out\n    /* \"#utility.yul\":1012:1129   */\ntag_33:\n    /* \"#utility.yul\":1121:1122   */\n  0x00\n    /* \"#utility.yul\":1118:1119   */\n  dup1\n    /* \"#utility.yul\":1111:1123   */\n  revert\n    /* \"#utility.yul\":1135:1252   */\ntag_34:\n    /* \"#utility.yul\":1244:1245   */\n  0x00\n    /* \"#utility.yul\":1241:1242   */\n  dup1\n    /* \"#utility.yul\":1234:1246   */\n  revert\n    /* \"#utility.yul\":1258:1360   */\ntag_35:\n    /* \"#utility.yul\":1299:1305   */\n  0x00\n    /* \"#utility.yul\":1350:1352   */\n  0x1f\n    /* \"#utility.yul\":1346:1353   */\n  not\n    /* \"#utility.yul\":1341:1343   */\n  0x1f\n    /* \"#utility.yul\":1334:1339   */\n  dup4\n    /* \"#utility.yul\":1330:1344   */\n  add\n    /* \"#utility.yul\":1326:1354   */\n  and\n    /* \"#utility.yul\":1316:1354   */\n  swap1\n  pop\n    /* \"#utility.yul\":1258:1360   */\n  swap2\n  swap1\n  pop\n  jump\t// out\n    /* \"#utility.yul\":1366:1546   */\ntag_36:\n    /* \"#utility.yul\":1414:1491   */\n  0x4e487b7100000000000000000000000000000000000000000000000000000000\n    /* \"#utility.yul\":1411:1412   */\n  0x00\n    /* \"#utility.yul\":1404:1492   */\n  mstore\n    /* \"#utility.yul\":1511:1515   */\n  0x41\n    /* \"#utility.yul\":1508:1509   */\n  0x04\n    /* \"#utility.yul\":1501:1516   */\n  mstore\n    /* \"#utility.yul\":1535:1539   */\n  0x24\n    /* \"#utility.yul\":1532:1533   */\n  0x00\n    /* \"#utility.yul\":1525:1540   */\n  revert\n    /* \"#utility.yul\":1552:1833   */\ntag_37:\n    /* \"#utility.yul\":1635:1662   */\n  tag_91\n    /* \"#utility.yul\":1657:1661   */\n  dup3\n    /* \"#utility.yul\":1635:1662   */\n  tag_35\n  jump\t// in\ntag_91:\n    /* \"#utility.yul\":1627:1633   */\n  dup2\n    /* \"#utility.yul\":1623:1663   */\n  add\n    /* \"#utility.yul\":1765:1771   */\n  dup2\n    /* \"#utility.yul\":1753:1763   */\n  dup2\n    /* \"#utility.yul\":1750:1772   */\n  lt\n    /* \"#utility.yul\":1729:1747   */\n  0xffffffffffffffff\n    /* \"#utility.yul\":1717:1727   */\n  dup3\n    /* \"#utility.yul\":1714:1748   */\n  gt\n    /* \"#utility.yul\":1711:1773   */\n  or\n    /* \"#utility.yul\":1708:1796   */\n  iszero\n  tag_92\n  jumpi\n    /* \"#utility.yul\":1776:1794   */\n  tag_93\n  tag_36\n  jump\t// in\ntag_93:\n    /* \"#utility.yul\":1708:1796   */\ntag_92:\n    /* \"#utility.yul\":1816:1826   */\n  dup1\n    /* \"#utility.yul\":1812:1814   */\n  0x40\n    /* \"#utility.yul\":1805:1827   */\n  mstore\n    /* \"#utility.yul\":1595:1833   */\n  pop\n    /* \"#utility.yul\":1552:1833   */\n  pop\n  pop\n  jump\t// out\n    /* \"#utility.yul\":1839:1968   */\ntag_38:\n    /* \"#utility.yul\":1873:1879   */\n  0x00\n    /* \"#utility.yul\":1900:1920   */\n  tag_95\n  tag_25\n  jump\t// in\ntag_95:\n    /* \"#utility.yul\":1890:1920   */\n  swap1\n  pop\n    /* \"#utility.yul\":1929:1962   */\n  tag_96\n    /* \"#utility.yul\":1957:1961   */\n  dup3\n    /* \"#utility.yul\":1949:1955   */\n  dup3\n    /* \"#utility.yul\":1929:1962   */\n  tag_37\n  jump\t// in\ntag_96:\n    /* \"#utility.yul\":1839:1968   */\n  swap2\n  swap1\n  pop\n  jump\t// out\n    /* \"#utility.yul\":1974:2282   */\ntag_39:\n    /* \"#utility.yul\":2036:2040   */\n  0x00\n    /* \"#utility.yul\":2126:2144   */\n  0xffffffffffffffff\n    /* \"#utility.yul\":2118:2124   */\n  dup3\n    /* \"#utility.yul\":2115:2145   */\n  gt\n    /* \"#utility.yul\":2112:2168   */\n  iszero\n  tag_98\n  jumpi\n    /* \"#utility.yul\":2148:2166   */\n  tag_99\n  tag_36\n  jump\t// in\ntag_99:\n    /* \"#utility.yul\":2112:2168   */\ntag_98:\n    /* \"#utility.yul\":2186:2215   */\n  tag_100\n    /* \"#utility.yul\":2208:2214   */\n  dup3\n    /* \"#utility.yul\":2186:2215   */\n  tag_35\n  jump\t// in\ntag_100:\n    /* \"#utility.yul\":2178:2215   */\n  swap1\n  pop\n    /* \"#utility.yul\":2270:2274   */\n  0x20\n    /* \"#utility.yul\":2264:2268   */\n  dup2\n    /* \"#utility.yul\":2260:2275   */\n  add\n    /* \"#utility.yul\":2252:2275   */\n  swap1\n  pop\n    /* \"#utility.yul\":1974:2282   */\n  swap2\n  swap1\n  pop\n  jump\t// out\n    /* \"#utility.yul\":2288:2534   */\ntag_40:\n    /* \"#utility.yul\":2369:2370   */\n  0x00\n    /* \"#utility.yul\":2379:2492   */\ntag_102:\n    /* \"#utility.yul\":2393:2399   */\n  dup4\n    /* \"#utility.yul\":2390:2391   */\n  dup2\n    /* \"#utility.yul\":2387:2400   */\n  lt\n    /* \"#utility.yul\":2379:2492   */\n  iszero\n  tag_104\n  jumpi\n    /* \"#utility.yul\":2478:2479   */\n  dup1\n    /* \"#utility.yul\":2473:2476   */\n  dup3\n    /* \"#utility.yul\":2469:2480   */\n  add\n    /* \"#utility.yul\":2463:2481   */\n  mload\n    /* \"#utility.yul\":2459:2460   */\n  dup2\n    /* \"#utility.yul\":2454:2457   */\n  dup5\n    /* \"#utility.yul\":2450:2461   */\n  add\n    /* \"#utility.yul\":2443:2482   */\n  mstore\n    /* \"#utility.yul\":2415:2417   */\n  0x20\n    /* \"#utility.yul\":2412:2413   */\n  dup2\n    /* \"#utility.yul\":2408:2418   */\n  add\n    /* \"#utility.yul\":2403:2418   */\n  swap1\n  pop\n    /* \"#utility.yul\":2379:2492   */\n  jump(tag_102)\ntag_104:\n    /* \"#utility.yul\":2526:2527   */\n  0x00\n    /* \"#utility.yul\":2517:2523   */\n  dup5\n    /* \"#utility.yul\":2512:2515   */\n  dup5\n    /* \"#utility.yul\":2508:2524   */\n  add\n    /* \"#utility.yul\":2501:2528   */\n  mstore\n    /* \"#utility.yul\":2350:2534   */\n  pop\n    /* \"#utility.yul\":2288:2534   */\n  pop\n  pop\n  pop\n  jump\t// out\n    /* \"#utility.yul\":2540:2974   */\ntag_41:\n    /* \"#utility.yul\":2629:2634   */\n  0x00\n    /* \"#utility.yul\":2654:2720   */\n  tag_106\n    /* \"#utility.yul\":2670:2719   */\n  tag_107\n    /* \"#utility.yul\":2712:2718   */\n  dup5\n    /* \"#utility.yul\":2670:2719   */\n  tag_39\n  jump\t// in\ntag_107:\n    /* \"#utility.yul\":2654:2720   */\n  tag_38\n  jump\t// in\ntag_106:\n    /* \"#utility.yul\":2645:2720   */\n  swap1\n  pop\n    /* \"#utility.yul\":2743:2749   */\n  dup3\n    /* \"#utility.yul\":2736:2741   */\n  dup2\n    /* \"#utility.yul\":2729:2750   */\n  mstore\n    /* \"#utility.yul\":2781:2785   */\n  0x20\n    /* \"#utility.yul\":2774:2779   */\n  dup2\n    /* \"#utility.yul\":2770:2786   */\n  add\n    /* \"#utility.yul\":2819:2822   */\n  dup5\n    /* \"#utility.yul\":2810:2816   */\n  dup5\n    /* \"#utility.yul\":2805:2808   */\n  dup5\n    /* \"#utility.yul\":2801:2817   */\n  add\n    /* \"#utility.yul\":2798:2823   */\n  gt\n    /* \"#utility.yul\":2795:2907   */\n  iszero\n  tag_108\n  jumpi\n    /* \"#utility.yul\":2826:2905   */\n  tag_109\n  tag_34\n  jump\t// in\ntag_109:\n    /* \"#utility.yul\":2795:2907   */\ntag_108:\n    /* \"#utility.yul\":2916:2968   */\n  tag_110\n    /* \"#utility.yul\":2961:2967   */\n  dup5\n    /* \"#utility.yul\":2956:2959   */\n  dup3\n    /* \"#utility.yul\":2951:2954   */\n  dup6\n    /* \"#utility.yul\":2916:2968   */\n  tag_40\n  jump\t// in\ntag_110:\n    /* \"#utility.yul\":2635:2974   */\n  pop\n    /* \"#utility.yul\":2540:2974   */\n  swap4\n  swap3\n  pop\n  pop\n  pop\n  jump\t// out\n    /* \"#utility.yul\":2994:3349   */\ntag_42:\n    /* \"#utility.yul\":3061:3066   */\n  0x00\n    /* \"#utility.yul\":3110:3113   */\n  dup3\n    /* \"#utility.yul\":3103:3107   */\n  0x1f\n    /* \"#utility.yul\":3095:3101   */\n  dup4\n    /* \"#utility.yul\":3091:3108   */\n  add\n    /* \"#utility.yul\":3087:3114   */\n  slt\n    /* \"#utility.yul\":3077:3199   */\n  tag_112\n  jumpi\n    /* \"#utility.yul\":3118:3197   */\n  tag_113\n  tag_33\n  jump\t// in\ntag_113:\n    /* \"#utility.yul\":3077:3199   */\ntag_112:\n    /* \"#utility.yul\":3228:3234   */\n  dup2\n    /* \"#utility.yul\":3222:3235   */\n  mload\n    /* \"#utility.yul\":3253:3343   */\n  tag_114\n    /* \"#utility.yul\":3339:3342   */\n  dup5\n    /* \"#utility.yul\":3331:3337   */\n  dup3\n    /* \"#utility.yul\":3324:3328   */\n  0x20\n    /* \"#utility.yul\":3316:3322   */\n  dup7\n    /* \"#utility.yul\":3312:3329   */\n  add\n    /* \"#utility.yul\":3253:3343   */\n  tag_41\n  jump\t// in\ntag_114:\n    /* \"#utility.yul\":3244:3343   */\n  swap2\n  pop\n    /* \"#utility.yul\":3067:3349   */\n  pop\n    /* \"#utility.yul\":2994:3349   */\n  swap3\n  swap2\n  pop\n  pop\n  jump\t// out\n    /* \"#utility.yul\":3355:4390   */\ntag_3:\n    /* \"#utility.yul\":3476:3482   */\n  0x00\n    /* \"#utility.yul\":3484:3490   */\n  dup1\n    /* \"#utility.yul\":3492:3498   */\n  0x00\n    /* \"#utility.yul\":3541:3543   */\n  0x60\n    /* \"#utility.yul\":3529:3538   */\n  dup5\n    /* \"#utility.yul\":3520:3527   */\n  dup7\n    /* \"#utility.yul\":3516:3539   */\n  sub\n    /* \"#utility.yul\":3512:3544   */\n  slt\n    /* \"#utility.yul\":3509:3628   */\n  iszero\n  tag_116\n  jumpi\n    /* \"#utility.yul\":3547:3626   */\n  tag_117\n  tag_26\n  jump\t// in\ntag_117:\n    /* \"#utility.yul\":3509:3628   */\ntag_116:\n    /* \"#utility.yul\":3667:3668   */\n  0x00\n    /* \"#utility.yul\":3692:3769   */\n  tag_118\n    /* \"#utility.yul\":3761:3768   */\n  dup7\n    /* \"#utility.yul\":3752:3758   */\n  dup3\n    /* \"#utility.yul\":3741:3750   */\n  dup8\n    /* \"#utility.yul\":3737:3759   */\n  add\n    /* \"#utility.yul\":3692:3769   */\n  tag_32\n  jump\t// in\ntag_118:\n    /* \"#utility.yul\":3682:3769   */\n  swap4\n  pop\n    /* \"#utility.yul\":3638:3779   */\n  pop\n    /* \"#utility.yul\":3839:3841   */\n  0x20\n    /* \"#utility.yul\":3828:3837   */\n  dup5\n    /* \"#utility.yul\":3824:3842   */\n  add\n    /* \"#utility.yul\":3818:3843   */\n  mload\n    /* \"#utility.yul\":3870:3888   */\n  0xffffffffffffffff\n    /* \"#utility.yul\":3862:3868   */\n  dup2\n    /* \"#utility.yul\":3859:3889   */\n  gt\n    /* \"#utility.yul\":3856:3973   */\n  iszero\n  tag_119\n  jumpi\n    /* \"#utility.yul\":3892:3971   */\n  tag_120\n  tag_27\n  jump\t// in\ntag_120:\n    /* \"#utility.yul\":3856:3973   */\ntag_119:\n    /* \"#utility.yul\":3997:4071   */\n  tag_121\n    /* \"#utility.yul\":4063:4070   */\n  dup7\n    /* \"#utility.yul\":4054:4060   */\n  dup3\n    /* \"#utility.yul\":4043:4052   */\n  dup8\n    /* \"#utility.yul\":4039:4061   */\n  add\n    /* \"#utility.yul\":3997:4071   */\n  tag_42\n  jump\t// in\ntag_121:\n    /* \"#utility.yul\":3987:4071   */\n  swap3\n  pop\n    /* \"#utility.yul\":3789:4081   */\n  pop\n    /* \"#utility.yul\":4141:4143   */\n  0x40\n    /* \"#utility.yul\":4130:4139   */\n  dup5\n    /* \"#utility.yul\":4126:4144   */\n  add\n    /* \"#utility.yul\":4120:4145   */\n  mload\n    /* \"#utility.yul\":4172:4190   */\n  0xffffffffffffffff\n    /* \"#utility.yul\":4164:4170   */\n  dup2\n    /* \"#utility.yul\":4161:4191   */\n  gt\n    /* \"#utility.yul\":4158:4275   */\n  iszero\n  tag_122\n  jumpi\n    /* \"#utility.yul\":4194:4273   */\n  tag_123\n  tag_27\n  jump\t// in\ntag_123:\n    /* \"#utility.yul\":4158:4275   */\ntag_122:\n    /* \"#utility.yul\":4299:4373   */\n  tag_124\n    /* \"#utility.yul\":4365:4372   */\n  dup7\n    /* \"#utility.yul\":4356:4362   */\n  dup3\n    /* \"#utility.yul\":4345:4354   */\n  dup8\n    /* \"#utility.yul\":4341:4363   */\n  add\n    /* \"#utility.yul\":4299:4373   */\n  tag_42\n  jump\t// in\ntag_124:\n    /* \"#utility.yul\":4289:4373   */\n  swap2\n  pop\n    /* \"#utility.yul\":4091:4383   */\n  pop\n    /* \"#utility.yul\":3355:4390   */\n  swap3\n  pop\n  swap3\n  pop\n  swap3\n  jump\t// out\n    /* \"#utility.yul\":4396:4482   */\ntag_43:\n    /* \"#utility.yul\":4431:4438   */\n  0x00\n    /* \"#utility.yul\":4471:4475   */\n  0xff\n    /* \"#utility.yul\":4464:4469   */\n  dup3\n    /* \"#utility.yul\":4460:4476   */\n  and\n    /* \"#utility.yul\":4449:4476   */\n  swap1\n  pop\n    /* \"#utility.yul\":4396:4482   */\n  swap2\n  swap1\n  pop\n  jump\t// out\n    /* \"#utility.yul\":4488:4606   */\ntag_44:\n    /* \"#utility.yul\":4559:4581   */\n  tag_127\n    /* \"#utility.yul\":4575:4580   */\n  dup2\n    /* \"#utility.yul\":4559:4581   */\n  tag_43\n  jump\t// in\ntag_127:\n    /* \"#utility.yul\":4552:4557   */\n  dup2\n    /* \"#utility.yul\":4549:4582   */\n  eq\n    /* \"#utility.yul\":4539:4600   */\n  tag_128\n  jumpi\n    /* \"#utility.yul\":4596:4597   */\n  0x00\n    /* \"#utility.yul\":4593:4594   */\n  dup1\n    /* \"#utility.yul\":4586:4598   */\n  revert\n    /* \"#utility.yul\":4539:4600   */\ntag_128:\n    /* \"#utility.yul\":4488:4606   */\n  pop\n  jump\t// out\n    /* \"#utility.yul\":4612:4751   */\ntag_45:\n    /* \"#utility.yul\":4667:4672   */\n  0x00\n    /* \"#utility.yul\":4698:4704   */\n  dup2\n    /* \"#utility.yul\":4692:4705   */\n  mload\n    /* \"#utility.yul\":4683:4705   */\n  swap1\n  pop\n    /* \"#utility.yul\":4714:4745   */\n  tag_130\n    /* \"#utility.yul\":4739:4744   */\n  dup2\n    /* \"#utility.yul\":4714:4745   */\n  tag_44\n  jump\t// in\ntag_130:\n    /* \"#utility.yul\":4612:4751   */\n  swap3\n  swap2\n  pop\n  pop\n  jump\t// out\n    /* \"#utility.yul\":4757:5104   */\ntag_9:\n    /* \"#utility.yul\":4825:4831   */\n  0x00\n    /* \"#utility.yul\":4874:4876   */\n  0x20\n    /* \"#utility.yul\":4862:4871   */\n  dup3\n    /* \"#utility.yul\":4853:4860   */\n  dup5\n    /* \"#utility.yul\":4849:4872   */\n  sub\n    /* \"#utility.yul\":4845:4877   */\n  slt\n    /* \"#utility.yul\":4842:4961   */\n  iszero\n  tag_132\n  jumpi\n    /* \"#utility.yul\":4880:4959   */\n  tag_133\n  tag_26\n  jump\t// in\ntag_133:\n    /* \"#utility.yul\":4842:4961   */\ntag_132:\n    /* \"#utility.yul\":5000:5001   */\n  0x00\n    /* \"#utility.yul\":5025:5087   */\n  tag_134\n    /* \"#utility.yul\":5079:5086   */\n  dup5\n    /* \"#utility.yul\":5070:5076   */\n  dup3\n    /* \"#utility.yul\":5059:5068   */\n  dup6\n    /* \"#utility.yul\":5055:5077   */\n  add\n    /* \"#utility.yul\":5025:5087   */\n  tag_45\n  jump\t// in\ntag_134:\n    /* \"#utility.yul\":5015:5087   */\n  swap2\n  pop\n    /* \"#utility.yul\":4971:5097   */\n  pop\n    /* \"#utility.yul\":4757:5104   */\n  swap3\n  swap2\n  pop\n  pop\n  jump\t// out\n    /* \"#utility.yul\":5110:5209   */\ntag_46:\n    /* \"#utility.yul\":5162:5168   */\n  0x00\n    /* \"#utility.yul\":5196:5201   */\n  dup2\n    /* \"#utility.yul\":5190:5202   */\n  mload\n    /* \"#utility.yul\":5180:5202   */\n  swap1\n  pop\n    /* \"#utility.yul\":5110:5209   */\n  swap2\n  swap1\n  pop\n  jump\t// out\n    /* \"#utility.yul\":5215:5395   */\ntag_47:\n    /* \"#utility.yul\":5263:5340   */\n  0x4e487b7100000000000000000000000000000000000000000000000000000000\n    /* \"#utility.yul\":5260:5261   */\n  0x00\n    /* \"#utility.yul\":5253:5341   */\n  mstore\n    /* \"#utility.yul\":5360:5364   */\n  0x22\n    /* \"#utility.yul\":5357:5358   */\n  0x04\n    /* \"#utility.yul\":5350:5365   */\n  mstore\n    /* \"#utility.yul\":5384:5388   */\n  0x24\n    /* \"#utility.yul\":5381:5382   */\n  0x00\n    /* \"#utility.yul\":5374:5389   */\n  revert\n    /* \"#utility.yul\":5401:5721   */\ntag_48:\n    /* \"#utility.yul\":5445:5451   */\n  0x00\n    /* \"#utility.yul\":5482:5483   */\n  0x02\n    /* \"#utility.yul\":5476:5480   */\n  dup3\n    /* \"#utility.yul\":5472:5484   */\n  div\n    /* \"#utility.yul\":5462:5484   */\n  swap1\n  pop\n    /* \"#utility.yul\":5529:5530   */\n  0x01\n    /* \"#utility.yul\":5523:5527   */\n  dup3\n    /* \"#utility.yul\":5519:5531   */\n  and\n    /* \"#utility.yul\":5550:5568   */\n  dup1\n    /* \"#utility.yul\":5540:5621   */\n  tag_138\n  jumpi\n    /* \"#utility.yul\":5606:5610   */\n  0x7f\n    /* \"#utility.yul\":5598:5604   */\n  dup3\n    /* \"#utility.yul\":5594:5611   */\n  and\n    /* \"#utility.yul\":5584:5611   */\n  swap2\n  pop\n    /* \"#utility.yul\":5540:5621   */\ntag_138:\n    /* \"#utility.yul\":5668:5670   */\n  0x20\n    /* \"#utility.yul\":5660:5666   */\n  dup3\n    /* \"#utility.yul\":5657:5671   */\n  lt\n    /* \"#utility.yul\":5637:5655   */\n  dup2\n    /* \"#utility.yul\":5634:5672   */\n  sub\n    /* \"#utility.yul\":5631:5715   */\n  tag_139\n  jumpi\n    /* \"#utility.yul\":5687:5705   */\n  tag_140\n  tag_47\n  jump\t// in\ntag_140:\n    /* \"#utility.yul\":5631:5715   */\ntag_139:\n    /* \"#utility.yul\":5452:5721   */\n  pop\n    /* \"#utility.yul\":5401:5721   */\n  swap2\n  swap1\n  pop\n  jump\t// out\n    /* \"#utility.yul\":5727:5868   */\ntag_49:\n    /* \"#utility.yul\":5776:5780   */\n  0x00\n    /* \"#utility.yul\":5799:5802   */\n  dup2\n    /* \"#utility.yul\":5791:5802   */\n  swap1\n  pop\n    /* \"#utility.yul\":5822:5825   */\n  dup2\n    /* \"#utility.yul\":5819:5820   */\n  0x00\n    /* \"#utility.yul\":5812:5826   */\n  mstore\n    /* \"#utility.yul\":5856:5860   */\n  0x20\n    /* \"#utility.yul\":5853:5854   */\n  0x00\n    /* \"#utility.yul\":5843:5861   */\n  keccak256\n    /* \"#utility.yul\":5835:5861   */\n  swap1\n  pop\n    /* \"#utility.yul\":5727:5868   */\n  swap2\n  swap1\n  pop\n  jump\t// out\n    /* \"#utility.yul\":5874:5967   */\ntag_50:\n    /* \"#utility.yul\":5911:5917   */\n  0x00\n    /* \"#utility.yul\":5958:5960   */\n  0x20\n    /* \"#utility.yul\":5953:5955   */\n  0x1f\n    /* \"#utility.yul\":5946:5951   */\n  dup4\n    /* \"#utility.yul\":5942:5956   */\n  add\n    /* \"#utility.yul\":5938:5961   */\n  div\n    /* \"#utility.yul\":5928:5961   */\n  swap1\n  pop\n    /* \"#utility.yul\":5874:5967   */\n  swap2\n  swap1\n  pop\n  jump\t// out\n    /* \"#utility.yul\":5973:6080   */\ntag_51:\n    /* \"#utility.yul\":6017:6025   */\n  0x00\n    /* \"#utility.yul\":6067:6072   */\n  dup3\n    /* \"#utility.yul\":6061:6065   */\n  dup3\n    /* \"#utility.yul\":6057:6073   */\n  shl\n    /* \"#utility.yul\":6036:6073   */\n  swap1\n  pop\n    /* \"#utility.yul\":5973:6080   */\n  swap3\n  swap2\n  pop\n  pop\n  jump\t// out\n    /* \"#utility.yul\":6086:6479   */\ntag_52:\n    /* \"#utility.yul\":6155:6161   */\n  0x00\n    /* \"#utility.yul\":6205:6206   */\n  0x08\n    /* \"#utility.yul\":6193:6203   */\n  dup4\n    /* \"#utility.yul\":6189:6207   */\n  mul\n    /* \"#utility.yul\":6228:6325   */\n  tag_145\n    /* \"#utility.yul\":6258:6324   */\n  0xffffffffffffffffffffffffffffffffffffffffffffffffffffffffffffffff\n    /* \"#utility.yul\":6247:6256   */\n  dup3\n    /* \"#utility.yul\":6228:6325   */\n  tag_51\n  jump\t// in\ntag_145:\n    /* \"#utility.yul\":6346:6385   */\n  tag_146\n    /* \"#utility.yul\":6376:6384   */\n  dup7\n    /* \"#utility.yul\":6365:6374   */\n  dup4\n    /* \"#utility.yul\":6346:6385   */\n  tag_51\n  jump\t// in\ntag_146:\n    /* \"#utility.yul\":6334:6385   */\n  swap6\n  pop\n    /* \"#utility.yul\":6418:6422   */\n  dup1\n    /* \"#utility.yul\":6414:6423   */\n  not\n    /* \"#utility.yul\":6407:6412   */\n  dup5\n    /* \"#utility.yul\":6403:6424   */\n  and\n    /* \"#utility.yul\":6394:6424   */\n  swap4\n  pop\n    /* \"#utility.yul\":6467:6471   */\n  dup1\n    /* \"#utility.yul\":6457:6465   */\n  dup7\n    /* \"#utility.yul\":6453:6472   */\n  and\n    /* \"#utility.yul\":6446:6451   */\n  dup5\n    /* \"#utility.yul\":6443:6473   */\n  or\n    /* \"#utility.yul\":6433:6473   */\n  swap3\n  pop\n    /* \"#utility.yul\":6162:6479   */\n  pop\n  pop\n    /* \"#utility.yul\":6086:6479   */\n  swap4\n  swap3\n  pop\n  pop\n  pop\n  jump\t// out\n    /* \"#utility.yul\":6485:6562   */\ntag_53:\n    /* \"#utility.yul\":6522:6529   */\n  0x00\n    /* \"#utility.yul\":6551:6556   */\n  dup2\n    /* \"#utility.yul\":6540:6556   */\n  swap1\n  pop\n    /* \"#utility.yul\":6485:6562   */\n  swap2\n  swap1\n  pop\n  jump\t// out\n    /* \"#utility.yul\":6568:6628   */\ntag_54:\n    /* \"#utility.yul\":6596:6599   */\n  0x00\n    /* \"#utility.yul\":6617:6622   */\n  dup2\n    /* \"#utility.yul\":6610:6622   */\n  swap1\n  pop\n    /* \"#utility.yul\":6568:6628   */\n  swap2\n  swap1\n  pop\n  jump\t// out\n    /* \"#utility.yul\":6634:6776   */\ntag_55:\n    /* \"#utility.yul\":6684:6693   */\n  0x00\n    /* \"#utility.yul\":6717:6770   */\n  tag_150\n    /* \"#utility.yul\":6735:6769   */\n  tag_151\n    /* \"#utility.yul\":6744:6768   */\n  tag_152\n    /* \"#utility.yul\":6762:6767   */\n  dup5\n    /* \"#utility.yul\":6744:6768   */\n  tag_53\n  jump\t// in\ntag_152:\n    /* \"#utility.yul\":6735:6769   */\n  tag_54\n  jump\t// in\ntag_151:\n    /* \"#utility.yul\":6717:6770   */\n  tag_53\n  jump\t// in\ntag_150:\n    /* \"#utility.yul\":6704:6770   */\n  swap1\n  pop\n    /* \"#utility.yul\":6634:6776   */\n  swap2\n  swap1\n  pop\n  jump\t// out\n    /* \"#utility.yul\":6782:6857   */\ntag_56:\n    /* \"#utility.yul\":6825:6828   */\n  0x00\n    /* \"#utility.yul\":6846:6851   */\n  dup2\n    /* \"#utility.yul\":6839:6851   */\n  swap1\n  pop\n    /* \"#utility.yul\":6782:6857   */\n  swap2\n  swap1\n  pop\n  jump\t// out\n    /* \"#utility.yul\":6863:7132   */\ntag_57:\n    /* \"#utility.yul\":6973:7012   */\n  tag_155\n    /* \"#utility.yul\":7004:7011   */\n  dup4\n    /* \"#utility.yul\":6973:7012   */\n  tag_55\n  jump\t// in\ntag_155:\n    /* \"#utility.yul\":7034:7125   */\n  tag_156\n    /* \"#utility.yul\":7083:7124   */\n  tag_157\n    /* \"#utility.yul\":7107:7123   */\n  dup3\n    /* \"#utility.yul\":7083:7124   */\n  tag_56\n  jump\t// in\ntag_157:\n    /* \"#utility.yul\":7075:7081   */\n  dup5\n    /* \"#utility.yul\":7068:7072   */\n  dup5\n    /* \"#utility.yul\":7062:7073   */\n  sload\n    /* \"#utility.yul\":7034:7125   */\n  tag_52\n  jump\t// in\ntag_156:\n    /* \"#utility.yul\":7028:7032   */\n  dup3\n    /* \"#utility.yul\":7021:7126   */\n  sstore\n    /* \"#utility.yul\":6939:7132   */\n  pop\n    /* \"#utility.yul\":6863:7132   */\n  pop\n  pop\n  pop\n  jump\t// out\n    /* \"#utility.yul\":7138:7211   */\ntag_58:\n    /* \"#utility.yul\":7183:7186   */\n  0x00\n    /* \"#utility.yul\":7138:7211   */\n  swap1\n  jump\t// out\n    /* \"#utility.yul\":7217:7406   */\ntag_59:\n    /* \"#utility.yul\":7294:7326   */\n  tag_160\n  tag_58\n  jump\t// in\ntag_160:\n    /* \"#utility.yul\":7335:7400   */\n  tag_161\n    /* \"#utility.yul\":7393:7399   */\n  dup2\n    /* \"#utility.yul\":7385:7391   */\n  dup5\n    /* \"#utility.yul\":7379:7383   */\n  dup5\n    /* \"#utility.yul\":7335:7400   */\n  tag_57\n  jump\t// in\ntag_161:\n    /* \"#utility.yul\":7270:7406   */\n  pop\n    /* \"#utility.yul\":7217:7406   */\n  pop\n  pop\n  jump\t// out\n    /* \"#utility.yul\":7412:7598   */\ntag_60:\n    /* \"#utility.yul\":7472:7592   */\ntag_163:\n    /* \"#utility.yul\":7489:7492   */\n  dup2\n    /* \"#utility.yul\":7482:7487   */\n  dup2\n    /* \"#utility.yul\":7479:7493   */\n  lt\n    /* \"#utility.yul\":7472:7592   */\n  iszero\n  tag_165\n  jumpi\n    /* \"#utility.yul\":7543:7582   */\n  tag_166\n    /* \"#utility.yul\":7580:7581   */\n  0x00\n    /* \"#utility.yul\":7573:7578   */\n  dup3\n    /* \"#utility.yul\":7543:7582   */\n  tag_59\n  jump\t// in\ntag_166:\n    /* \"#utility.yul\":7516:7517   */\n  0x01\n    /* \"#utility.yul\":7509:7514   */\n  dup2\n    /* \"#utility.yul\":7505:7518   */\n  add\n    /* \"#utility.yul\":7496:7518   */\n  swap1\n  pop\n    /* \"#utility.yul\":7472:7592   */\n  jump(tag_163)\ntag_165:\n    /* \"#utility.yul\":7412:7598   */\n  pop\n  pop\n  jump\t// out\n    /* \"#utility.yul\":7604:8147   */\ntag_61:\n    /* \"#utility.yul\":7705:7707   */\n  0x1f\n    /* \"#utility.yul\":7700:7703   */\n  dup3\n    /* \"#utility.yul\":7697:7708   */\n  gt\n    /* \"#utility.yul\":7694:8140   */\n  iszero\n  tag_168\n  jumpi\n    /* \"#utility.yul\":7739:7777   */\n  tag_169\n    /* \"#utility.yul\":7771:7776   */\n  dup2\n    /* \"#utility.yul\":7739:7777   */\n  tag_49\n  jump\t// in\ntag_169:\n    /* \"#utility.yul\":7823:7852   */\n  tag_170\n    /* \"#utility.yul\":7841:7851   */\n  dup5\n    /* \"#utility.yul\":7823:7852   */\n  tag_50\n  jump\t// in\ntag_170:\n    /* \"#utility.yul\":7813:7821   */\n  dup2\n    /* \"#utility.yul\":7809:7853   */\n  add\n    /* \"#utility.yul\":8006:8008   */\n  0x20\n    /* \"#utility.yul\":7994:8004   */\n  dup6\n    /* \"#utility.yul\":7991:8009   */\n  lt\n    /* \"#utility.yul\":7988:8037   */\n  iszero\n  tag_171\n  jumpi\n    /* \"#utility.yul\":8027:8035   */\n  dup2\n    /* \"#utility.yul\":8012:8035   */\n  swap1\n  pop\n    /* \"#utility.yul\":7988:8037   */\ntag_171:\n    /* \"#utility.yul\":8050:8130   */\n  tag_172\n    /* \"#utility.yul\":8106:8128   */\n  tag_173\n    /* \"#utility.yul\":8124:8127   */\n  dup6\n    /* \"#utility.yul\":8106:8128   */\n  tag_50\n  jump\t// in\ntag_173:\n    /* \"#utility.yul\":8096:8104   */\n  dup4\n    /* \"#utility.yul\":8092:8129   */\n  add\n    /* \"#utility.yul\":8079:8090   */\n  dup3\n    /* \"#utility.yul\":8050:8130   */\n  tag_60\n  jump\t// in\ntag_172:\n    /* \"#utility.yul\":7709:8140   */\n  pop\n  pop\n    /* \"#utility.yul\":7694:8140   */\ntag_168:\n    /* \"#utility.yul\":7604:8147   */\n  pop\n  pop\n  pop\n  jump\t// out\n    /* \"#utility.yul\":8153:8270   */\ntag_62:\n    /* \"#utility.yul\":8207:8215   */\n  0x00\n    /* \"#utility.yul\":8257:8262   */\n  dup3\n    /* \"#utility.yul\":8251:8255   */\n  dup3\n    /* \"#utility.yul\":8247:8263   */\n  shr\n    /* \"#utility.yul\":8226:8263   */\n  swap1\n  pop\n    /* \"#utility.yul\":8153:8270   */\n  swap3\n  swap2\n  pop\n  pop\n  jump\t// out\n    /* \"#utility.yul\":8276:8445   */\ntag_63:\n    /* \"#utility.yul\":8320:8326   */\n  0x00\n    /* \"#utility.yul\":8353:8404   */\n  tag_176\n    /* \"#utility.yul\":8401:8402   */\n  0x00\n    /* \"#utility.yul\":8397:8403   */\n  not\n    /* \"#utility.yul\":8389:8394   */\n  dup5\n    /* \"#utility.yul\":8386:8387   */\n  0x08\n    /* \"#utility.yul\":8382:8395   */\n  mul\n    /* \"#utility.yul\":8353:8404   */\n  tag_62\n  jump\t// in\ntag_176:\n    /* \"#utility.yul\":8349:8405   */\n  not\n    /* \"#utility.yul\":8434:8438   */\n  dup1\n    /* \"#utility.yul\":8428:8432   */\n  dup4\n    /* \"#utility.yul\":8424:8439   */\n  and\n    /* \"#utility.yul\":8414:8439   */\n  swap2\n  pop\n    /* \"#utility.yul\":8327:8445   */\n  pop\n    /* \"#utility.yul\":8276:8445   */\n  swap3\n  swap2\n  pop\n  pop\n  jump\t// out\n    /* \"#utility.yul\":8450:8745   */\ntag_64:\n    /* \"#utility.yul\":8526:8530   */\n  0x00\n    /* \"#utility.yul\":8672:8701   */\n  tag_178\n    /* \"#utility.yul\":8697:8700   */\n  dup4\n    /* \"#utility.yul\":8691:8695   */\n  dup4\n    /* \"#utility.yul\":8672:8701   */\n  tag_63\n  jump\t// in\ntag_178:\n    /* \"#utility.yul\":8664:8701   */\n  swap2\n  pop\n    /* \"#utility.yul\":8734:8737   */\n  dup3\n    /* \"#utility.yul\":8731:8732   */\n  0x02\n    /* \"#utility.yul\":8727:8738   */\n  mul\n    /* \"#utility.yul\":8721:8725   */\n  dup3\n    /* \"#utility.yul\":8718:8739   */\n  or\n    /* \"#utility.yul\":8710:8739   */\n  swap1\n  pop\n    /* \"#utility.yul\":8450:8745   */\n  swap3\n  swap2\n  pop\n  pop\n  jump\t// out\n    /* \"#utility.yul\":8750:10145   */\ntag_13:\n    /* \"#utility.yul\":8867:8904   */\n  tag_180\n    /* \"#utility.yul\":8900:8903   */\n  dup3\n    /* \"#utility.yul\":8867:8904   */\n  tag_46\n  jump\t// in\ntag_180:\n    /* \"#utility.yul\":8969:8987   */\n  0xffffffffffffffff\n    /* \"#utility.yul\":8961:8967   */\n  dup2\n    /* \"#utility.yul\":8958:8988   */\n  gt\n    /* \"#utility.yul\":8955:9011   */\n  iszero\n  tag_181\n  jumpi\n    /* \"#utility.yul\":8991:9009   */\n  tag_182\n  tag_36\n  jump\t// in\ntag_182:\n    /* \"#utility.yul\":8955:9011   */\ntag_181:\n    /* \"#utility.yul\":9035:9073   */\n  tag_183\n    /* \"#utility.yul\":9067:9071   */\n  dup3\n    /* \"#utility.yul\":9061:9072   */\n  sload\n    /* \"#utility.yul\":9035:9073   */\n  tag_48\n  jump\t// in\ntag_183:\n    /* \"#utility.yul\":9120:9187   */\n  tag_184\n    /* \"#utility.yul\":9180:9186   */\n  dup3\n    /* \"#utility.yul\":9172:9178   */\n  dup3\n    /* \"#utility.yul\":9166:9170   */\n  dup6\n    /* \"#utility.yul\":9120:9187   */\n  tag_61\n  jump\t// in\ntag_184:\n    /* \"#utility.yul\":9214:9215   */\n  0x00\n    /* \"#utility.yul\":9238:9242   */\n  0x20\n    /* \"#utility.yul\":9225:9242   */\n  swap1\n  pop\n    /* \"#utility.yul\":9270:9272   */\n  0x1f\n    /* \"#utility.yul\":9262:9268   */\n  dup4\n    /* \"#utility.yul\":9259:9273   */\n  gt\n    /* \"#utility.yul\":9287:9288   */\n  0x01\n    /* \"#utility.yul\":9282:9900   */\n  dup2\n  eq\n  tag_186\n  jumpi\n    /* \"#utility.yul\":9944:9945   */\n  0x00\n    /* \"#utility.yul\":9961:9967   */\n  dup5\n    /* \"#utility.yul\":9958:10035   */\n  iszero\n  tag_187\n  jumpi\n    /* \"#utility.yul\":10010:10019   */\n  dup3\n    /* \"#utility.yul\":10005:10008   */\n  dup8\n    /* \"#utility.yul\":10001:10020   */\n  add\n    /* \"#utility.yul\":9995:10021   */\n  mload\n    /* \"#utility.yul\":9986:10021   */\n  swap1\n  pop\n    /* \"#utility.yul\":9958:10035   */\ntag_187:\n    /* \"#utility.yul\":10061:10128   */\n  tag_188\n    /* \"#utility.yul\":10121:10127   */\n  dup6\n    /* \"#utility.yul\":10114:10119   */\n  dup3\n    /* \"#utility.yul\":10061:10128   */\n  tag_64\n  jump\t// in\ntag_188:\n    /* \"#utility.yul\":10055:10059   */\n  dup7\n    /* \"#utility.yul\":10048:10129   */\n  sstore\n    /* \"#utility.yul\":9917:10139   */\n  pop\n    /* \"#utility.yul\":9252:10139   */\n  jump(tag_185)\n    /* \"#utility.yul\":9282:9900   */\ntag_186:\n    /* \"#utility.yul\":9334:9338   */\n  0x1f\n    /* \"#utility.yul\":9330:9339   */\n  not\n    /* \"#utility.yul\":9322:9328   */\n  dup5\n    /* \"#utility.yul\":9318:9340   */\n  and\n    /* \"#utility.yul\":9368:9405   */\n  tag_189\n    /* \"#utility.yul\":9400:9404   */\n  dup7\n    /* \"#utility.yul\":9368:9405   */\n  tag_49\n  jump\t// in\ntag_189:\n    /* \"#utility.yul\":9427:9428   */\n  0x00\n    /* \"#utility.yul\":9441:9649   */\ntag_190:\n    /* \"#utility.yul\":9455:9462   */\n  dup3\n    /* \"#utility.yul\":9452:9453   */\n  dup2\n    /* \"#utility.yul\":9449:9463   */\n  lt\n    /* \"#utility.yul\":9441:9649   */\n  iszero\n  tag_192\n  jumpi\n    /* \"#utility.yul\":9534:9543   */\n  dup5\n    /* \"#utility.yul\":9529:9532   */\n  dup10\n    /* \"#utility.yul\":9525:9544   */\n  add\n    /* \"#utility.yul\":9519:9545   */\n  mload\n    /* \"#utility.yul\":9511:9517   */\n  dup3\n    /* \"#utility.yul\":9504:9546   */\n  sstore\n    /* \"#utility.yul\":9585:9586   */\n  0x01\n    /* \"#utility.yul\":9577:9583   */\n  dup3\n    /* \"#utility.yul\":9573:9587   */\n  add\n    /* \"#utility.yul\":9563:9587   */\n  swap2\n  pop\n    /* \"#utility.yul\":9632:9634   */\n  0x20\n    /* \"#utility.yul\":9621:9630   */\n  dup6\n    /* \"#utility.yul\":9617:9635   */\n  add\n    /* \"#utility.yul\":9604:9635   */\n  swap5\n  pop\n    /* \"#utility.yul\":9478:9482   */\n  0x20\n    /* \"#utility.yul\":9475:9476   */\n  dup2\n    /* \"#utility.yul\":9471:9483   */\n  add\n    /* \"#utility.yul\":9466:9483   */\n  swap1\n  pop\n    /* \"#utility.yul\":9441:9649   */\n  jump(tag_190)\ntag_192:\n    /* \"#utility.yul\":9677:9683   */\n  dup7\n    /* \"#utility.yul\":9668:9675   */\n  dup4\n    /* \"#utility.yul\":9665:9684   */\n  lt\n    /* \"#utility.yul\":9662:9841   */\n  iszero\n  tag_193\n  jumpi\n    /* \"#utility.yul\":9735:9744   */\n  dup5\n    /* \"#utility.yul\":9730:9733   */\n  dup10\n    /* \"#utility.yul\":9726:9745   */\n  add\n    /* \"#utility.yul\":9720:9746   */\n  mload\n    /* \"#utility.yul\":9778:9826   */\n  tag_194\n    /* \"#utility.yul\":9820:9824   */\n  0x1f\n    /* \"#utility.yul\":9812:9818   */\n  dup10\n    /* \"#utility.yul\":9808:9825   */\n  and\n    /* \"#utility.yul\":9797:9806   */\n  dup3\n    /* \"#utility.yul\":9778:9826   */\n  tag_63\n  jump\t// in\ntag_194:\n    /* \"#utility.yul\":9770:9776   */\n  dup4\n    /* \"#utility.yul\":9763:9827   */\n  sstore\n    /* \"#utility.yul\":9685:9841   */\n  pop\n    /* \"#utility.yul\":9662:9841   */\ntag_193:\n    /* \"#utility.yul\":9887:9888   */\n  0x01\n    /* \"#utility.yul\":9883:9884   */\n  0x02\n    /* \"#utility.yul\":9875:9881   */\n  dup9\n    /* \"#utility.yul\":9871:9885   */\n  mul\n    /* \"#utility.yul\":9867:9889   */\n  add\n    /* \"#utility.yul\":9861:9865   */\n  dup9\n    /* \"#utility.yul\":9854:9890   */\n  sstore\n    /* \"#utility.yul\":9289:9900   */\n  pop\n  pop\n  pop\n    /* \"#utility.yul\":9252:10139   */\ntag_185:\n  pop\n    /* \"#utility.yul\":8842:10145   */\n  pop\n  pop\n  pop\n    /* \"#utility.yul\":8750:10145   */\n  pop\n  pop\n  jump\t// out\n    /* \"#utility.yul\":10151:10298   */\ntag_65:\n    /* \"#utility.yul\":10252:10263   */\n  0x00\n    /* \"#utility.yul\":10289:10292   */\n  dup2\n    /* \"#utility.yul\":10274:10292   */\n  swap1\n  pop\n    /* \"#utility.yul\":10151:10298   */\n  swap3\n  swap2\n  pop\n  pop\n  jump\t// out\n    /* \"#utility.yul\":10304:10448   */\ntag_66:\n    /* \"#utility.yul\":10356:10360   */\n  0x00\n    /* \"#utility.yul\":10379:10382   */\n  dup2\n    /* \"#utility.yul\":10371:10382   */\n  swap1\n  pop\n    /* \"#utility.yul\":10402:10405   */\n  dup2\n    /* \"#utility.yul\":10399:10400   */\n  0x00\n    /* \"#utility.yul\":10392:10406   */\n  mstore\n    /* \"#utility.yul\":10436:10440   */\n  0x20\n    /* \"#utility.yul\":10433:10434   */\n  0x00\n    /* \"#utility.yul\":10423:10441   */\n  keccak256\n    /* \"#utility.yul\":10415:10441   */\n  swap1\n  pop\n    /* \"#utility.yul\":10304:10448   */\n  swap2\n  swap1\n  pop\n  jump\t// out\n    /* \"#utility.yul\":10476:11354   */\ntag_67:\n    /* \"#utility.yul\":10581:10584   */\n  0x00\n    /* \"#utility.yul\":10618:10623   */\n  dup2\n    /* \"#utility.yul\":10612:10624   */\n  sload\n    /* \"#utility.yul\":10647:10683   */\n  tag_198\n    /* \"#utility.yul\":10673:10682   */\n  dup2\n    /* \"#utility.yul\":10647:10683   */\n  tag_48\n  jump\t// in\ntag_198:\n    /* \"#utility.yul\":10699:10787   */\n  tag_199\n    /* \"#utility.yul\":10780:10786   */\n  dup2\n    /* \"#utility.yul\":10775:10778   */\n  dup7\n    /* \"#utility.yul\":10699:10787   */\n  tag_65\n  jump\t// in\ntag_199:\n    /* \"#utility.yul\":10692:10787   */\n  swap5\n  pop\n    /* \"#utility.yul\":10818:10819   */\n  0x01\n    /* \"#utility.yul\":10807:10816   */\n  dup3\n    /* \"#utility.yul\":10803:10820   */\n  and\n    /* \"#utility.yul\":10834:10835   */\n  0x00\n    /* \"#utility.yul\":10829:10995   */\n  dup2\n  eq\n  tag_201\n  jumpi\n    /* \"#utility.yul\":11009:11010   */\n  0x01\n    /* \"#utility.yul\":11004:11348   */\n  dup2\n  eq\n  tag_202\n  jumpi\n    /* \"#utility.yul\":10796:11348   */\n  jump(tag_200)\n    /* \"#utility.yul\":10829:10995   */\ntag_201:\n    /* \"#utility.yul\":10913:10917   */\n  0xff\n    /* \"#utility.yul\":10909:10918   */\n  not\n    /* \"#utility.yul\":10898:10907   */\n  dup4\n    /* \"#utility.yul\":10894:10919   */\n  and\n    /* \"#utility.yul\":10889:10892   */\n  dup7\n    /* \"#utility.yul\":10882:10920   */\n  mstore\n    /* \"#utility.yul\":10975:10981   */\n  dup2\n    /* \"#utility.yul\":10968:10982   */\n  iszero\n    /* \"#utility.yul\":10961:10983   */\n  iszero\n    /* \"#utility.yul\":10953:10959   */\n  dup3\n    /* \"#utility.yul\":10949:10984   */\n  mul\n    /* \"#utility.yul\":10944:10947   */\n  dup7\n    /* \"#utility.yul\":10940:10985   */\n  add\n    /* \"#utility.yul\":10933:10985   */\n  swap4\n  pop\n    /* \"#utility.yul\":10829:10995   */\n  jump(tag_200)\n    /* \"#utility.yul\":11004:11348   */\ntag_202:\n    /* \"#utility.yul\":11071:11112   */\n  tag_203\n    /* \"#utility.yul\":11106:11111   */\n  dup6\n    /* \"#utility.yul\":11071:11112   */\n  tag_66\n  jump\t// in\ntag_203:\n    /* \"#utility.yul\":11134:11135   */\n  0x00\n    /* \"#utility.yul\":11148:11302   */\ntag_204:\n    /* \"#utility.yul\":11162:11168   */\n  dup4\n    /* \"#utility.yul\":11159:11160   */\n  dup2\n    /* \"#utility.yul\":11156:11169   */\n  lt\n    /* \"#utility.yul\":11148:11302   */\n  iszero\n  tag_206\n  jumpi\n    /* \"#utility.yul\":11236:11243   */\n  dup2\n    /* \"#utility.yul\":11230:11244   */\n  sload\n    /* \"#utility.yul\":11226:11227   */\n  dup2\n    /* \"#utility.yul\":11221:11224   */\n  dup10\n    /* \"#utility.yul\":11217:11228   */\n  add\n    /* \"#utility.yul\":11210:11245   */\n  mstore\n    /* \"#utility.yul\":11286:11287   */\n  0x01\n    /* \"#utility.yul\":11277:11284   */\n  dup3\n    /* \"#utility.yul\":11273:11288   */\n  add\n    /* \"#utility.yul\":11262:11288   */\n  swap2\n  pop\n    /* \"#utility.yul\":11184:11188   */\n  0x20\n    /* \"#utility.yul\":11181:11182   */\n  dup2\n    /* \"#utility.yul\":11177:11189   */\n  add\n    /* \"#utility.yul\":11172:11189   */\n  swap1\n  pop\n    /* \"#utility.yul\":11148:11302   */\n  jump(tag_204)\ntag_206:\n    /* \"#utility.yul\":11331:11337   */\n  dup4\n    /* \"#utility.yul\":11326:11329   */\n  dup9\n    /* \"#utility.yul\":11322:11338   */\n  add\n    /* \"#utility.yul\":11315:11338   */\n  swap6\n  pop\n    /* \"#utility.yul\":11011:11348   */\n  pop\n  pop\n    /* \"#utility.yul\":10796:11348   */\ntag_200:\n  pop\n    /* \"#utility.yul\":10585:11354   */\n  pop\n  pop\n    /* \"#utility.yul\":10476:11354   */\n  swap3\n  swap2\n  pop\n  pop\n  jump\t// out\n    /* \"#utility.yul\":11360:11633   */\ntag_22:\n    /* \"#utility.yul\":11491:11494   */\n  0x00\n    /* \"#utility.yul\":11513:11607   */\n  tag_208\n    /* \"#utility.yul\":11603:11606   */\n  dup3\n    /* \"#utility.yul\":11594:11600   */\n  dup5\n    /* \"#utility.yul\":11513:11607   */\n  tag_67\n  jump\t// in\ntag_208:\n    /* \"#utility.yul\":11506:11607   */\n  swap2\n  pop\n    /* \"#utility.yul\":11624:11627   */\n  dup2\n    /* \"#utility.yul\":11617:11627   */\n  swap1\n  pop\n    /* \"#utility.yul\":11360:11633   */\n  swap3\n  swap2\n  pop\n  pop\n  jump\t// out\n    /* \"#utility.yul\":11639:11716   */\ntag_68:\n    /* \"#utility.yul\":11676:11683   */\n  0x00\n    /* \"#utility.yul\":11705:11710   */\n  dup2\n    /* \"#utility.yul\":11694:11710   */\n  swap1\n  pop\n    /* \"#utility.yul\":11639:11716   */\n  swap2\n  swap1\n  pop\n  jump\t// out\n    /* \"#utility.yul\":11722:11840   */\ntag_69:\n    /* \"#utility.yul\":11809:11833   */\n  tag_211\n    /* \"#utility.yul\":11827:11832   */\n  dup2\n    /* \"#utility.yul\":11809:11833   */\n  tag_68\n  jump\t// in\ntag_211:\n    /* \"#utility.yul\":11804:11807   */\n  dup3\n    /* \"#utility.yul\":11797:11834   */\n  mstore\n    /* \"#utility.yul\":11722:11840   */\n  pop\n  pop\n  jump\t// out\n    /* \"#utility.yul\":11846:11964   */\ntag_70:\n    /* \"#utility.yul\":11933:11957   */\n  tag_213\n    /* \"#utility.yul\":11951:11956   */\n  dup2\n    /* \"#utility.yul\":11933:11957   */\n  tag_53\n  jump\t// in\ntag_213:\n    /* \"#utility.yul\":11928:11931   */\n  dup3\n    /* \"#utility.yul\":11921:11958   */\n  mstore\n    /* \"#utility.yul\":11846:11964   */\n  pop\n  pop\n  jump\t// out\n    /* \"#utility.yul\":11970:12088   */\ntag_71:\n    /* \"#utility.yul\":12057:12081   */\n  tag_215\n    /* \"#utility.yul\":12075:12080   */\n  dup2\n    /* \"#utility.yul\":12057:12081   */\n  tag_29\n  jump\t// in\ntag_215:\n    /* \"#utility.yul\":12052:12055   */\n  dup3\n    /* \"#utility.yul\":12045:12082   */\n  mstore\n    /* \"#utility.yul\":11970:12088   */\n  pop\n  pop\n  jump\t// out\n    /* \"#utility.yul\":12094:12758   */\ntag_24:\n    /* \"#utility.yul\":12299:12303   */\n  0x00\n    /* \"#utility.yul\":12337:12340   */\n  0xa0\n    /* \"#utility.yul\":12326:12335   */\n  dup3\n    /* \"#utility.yul\":12322:12341   */\n  add\n    /* \"#utility.yul\":12314:12341   */\n  swap1\n  pop\n    /* \"#utility.yul\":12351:12422   */\n  tag_217\n    /* \"#utility.yul\":12419:12420   */\n  0x00\n    /* \"#utility.yul\":12408:12417   */\n  dup4\n    /* \"#utility.yul\":12404:12421   */\n  add\n    /* \"#utility.yul\":12395:12401   */\n  dup9\n    /* \"#utility.yul\":12351:12422   */\n  tag_69\n  jump\t// in\ntag_217:\n    /* \"#utility.yul\":12432:12504   */\n  tag_218\n    /* \"#utility.yul\":12500:12502   */\n  0x20\n    /* \"#utility.yul\":12489:12498   */\n  dup4\n    /* \"#utility.yul\":12485:12503   */\n  add\n    /* \"#utility.yul\":12476:12482   */\n  dup8\n    /* \"#utility.yul\":12432:12504   */\n  tag_69\n  jump\t// in\ntag_218:\n    /* \"#utility.yul\":12514:12586   */\n  tag_219\n    /* \"#utility.yul\":12582:12584   */\n  0x40\n    /* \"#utility.yul\":12571:12580   */\n  dup4\n    /* \"#utility.yul\":12567:12585   */\n  add\n    /* \"#utility.yul\":12558:12564   */\n  dup7\n    /* \"#utility.yul\":12514:12586   */\n  tag_69\n  jump\t// in\ntag_219:\n    /* \"#utility.yul\":12596:12668   */\n  tag_220\n    /* \"#utility.yul\":12664:12666   */\n  0x60\n    /* \"#utility.yul\":12653:12662   */\n  dup4\n    /* \"#utility.yul\":12649:12667   */\n  add\n    /* \"#utility.yul\":12640:12646   */\n  dup6\n    /* \"#utility.yul\":12596:12668   */\n  tag_70\n  jump\t// in\ntag_220:\n    /* \"#utility.yul\":12678:12751   */\n  tag_221\n    /* \"#utility.yul\":12746:12749   */\n  0x80\n    /* \"#utility.yul\":12735:12744   */\n  dup4\n    /* \"#utility.yul\":12731:12750   */\n  add\n    /* \"#utility.yul\":12722:12728   */\n  dup5\n    /* \"#utility.yul\":12678:12751   */\n  tag_71\n  jump\t// in\ntag_221:\n    /* \"#utility.yul\":12094:12758   */\n  swap7\n  swap6\n  pop\n  pop\n  pop\n  pop\n  pop\n  pop\n  jump\t// out\n    /* \"src/Derivatives/EquityToken.sol\":315:5807  contract EquityToken is ERC4626 {... */\ntag_19:\n  mload(0x80)\n  mload(0xa0)\n  mload(0xc0)\n  mload(0xe0)\n  codecopy(0x00, dataOffset(sub_0), dataSize(sub_0))\n  0x00\n  assignImmutable(\"0xccb1f717aa77602faf03a594761a36956b1c4cf44c6b336d1db57da799b331b8\")\n  0x00\n  assignImmutable(\"0x95dbfae59aa7d7d19adafd03f33b4c518efbf6a02348e639237101758163c21d\")\n  0x00\n  assignImmutable(\"0x70d51cd1373c3547db09959deae795a3b26b0e92b69bc03e792eef55a00cf3e5\")\n  0x00\n  assignImmutable(\"0x2594dabed871cb83b92f0316c3cfb3f11c31e831a3dfe02ed619a85d0029a787\")\n  return(0x00, dataSize(sub_0))\nstop\n\nsub_0: assembly {\n        /* \"src/Derivatives/EquityToken.sol\":315:5807  contract EquityToken is ERC4626 {... */\n      mstore(0x40, 0x80)\n      callvalue\n      dup1\n      iszero\n      tag_1\n      jumpi\n      0x00\n      dup1\n      revert\n    tag_1:\n      pop\n      jumpi(tag_2, lt(calldatasize, 0x04))\n      shr(0xe0, calldataload(0x00))\n      dup1\n      0x7ecebe00\n      gt\n      tag_32\n      jumpi\n      dup1\n      0xc63d75b6\n      gt\n      tag_33\n      jumpi\n      dup1\n      0xd905777e\n      gt\n      tag_34\n      jumpi\n      dup1\n      0xd905777e\n      eq\n      tag_28\n      jumpi\n      dup1\n      0xdd62ed3e\n      eq\n      tag_29\n      jumpi\n      dup1\n      0xef8b30f7\n      eq\n      tag_30\n      jumpi\n      dup1\n      0xfc0c546a\n      eq\n      tag_31\n      jumpi\n      jump(tag_2)\n    tag_34:\n      dup1\n      0xc63d75b6\n      eq\n      tag_24\n      jumpi\n      dup1\n      0xc6e6f592\n      eq\n      tag_25\n      jumpi\n      dup1\n      0xce96cb77\n      eq\n      tag_26\n      jumpi\n      dup1\n      0xd505accf\n      eq\n      tag_27\n      jumpi\n      jump(tag_2)\n    tag_33:\n      dup1\n      0xa9059cbb\n      gt\n      tag_35\n      jumpi\n      dup1\n      0xa9059cbb\n      eq\n      tag_20\n      jumpi\n      dup1\n      0xb3d7f6b9\n      eq\n      tag_21\n      jumpi\n      dup1\n      0xb460af94\n      eq\n      tag_22\n      jumpi\n      dup1\n      0xba087652\n      eq\n      tag_23\n      jumpi\n      jump(tag_2)\n    tag_35:\n      dup1\n      0x7ecebe00\n      eq\n      tag_17\n      jumpi\n      dup1\n      0x94bf804d\n      eq\n      tag_18\n      jumpi\n      dup1\n      0x95d89b41\n      eq\n      tag_19\n      jumpi\n      jump(tag_2)\n    tag_32:\n      dup1\n      0x313ce567\n      gt\n      tag_36\n      jumpi\n      dup1\n      0x402d267d\n      gt\n      tag_37\n      jumpi\n      dup1\n      0x402d267d\n      eq\n      tag_13\n      jumpi\n      dup1\n      0x4cdad506\n      eq\n      tag_14\n      jumpi\n      dup1\n      0x6e553f65\n      eq\n      tag_15\n      jumpi\n      dup1\n      0x70a08231\n      eq\n      tag_16\n      jumpi\n      jump(tag_2)\n    tag_37:\n      dup1\n      0x313ce567\n      eq\n      tag_10\n      jumpi\n      dup1\n      0x3644e515\n      eq\n      tag_11\n      jumpi\n      dup1\n      0x38d52e0f\n      eq\n      tag_12\n      jumpi\n      jump(tag_2)\n    tag_36:\n      dup1\n      0x095ea7b3\n      gt\n      tag_38\n      jumpi\n      dup1\n      0x095ea7b3\n      eq\n      tag_6\n      jumpi\n      dup1\n      0x0a28a477\n      eq\n      tag_7\n      jumpi\n      dup1\n      0x18160ddd\n      eq\n      tag_8\n      jumpi\n      dup1\n      0x23b872dd\n      eq\n      tag_9\n      jumpi\n      jump(tag_2)\n    tag_38:\n      dup1\n      0x01e1d114\n      eq\n      tag_3\n      jumpi\n      dup1\n      0x06fdde03\n      eq\n      tag_4\n      jumpi\n      dup1\n      0x07a2d13a\n      eq\n      tag_5\n      jumpi\n    tag_2:\n      0x00\n      dup1\n      revert\n        /* \"src/Derivatives/EquityToken.sol\":1174:1282  function totalAssets() public view override returns (uint256 totalManagedAssets) {... */\n    tag_3:\n      tag_39\n      tag_40\n      jump\t// in\n    tag_39:\n      mload(0x40)\n      tag_41\n      swap2\n      swap1\n      tag_42\n      jump\t// in\n    tag_41:\n      mload(0x40)\n      dup1\n      swap2\n      sub\n      swap1\n      return\n        /* \"solmate/src/tokens/ERC20.sol\":1031:1049  string public name */\n    tag_4:\n      tag_43\n      tag_44\n      jump\t// in\n    tag_43:\n      mload(0x40)\n      tag_45\n      swap2\n      swap1\n      tag_46\n      jump\t// in\n    tag_45:\n      mload(0x40)\n      dup1\n      swap2\n      sub\n      swap1\n      return\n        /* \"src/Derivatives/EquityToken.sol\":3055:3250  function convertToAssets(uint256 shares) public view override returns (uint256 assets) {... */\n    tag_5:\n      tag_47\n      0x04\n      dup1\n      calldatasize\n      sub\n      dup2\n      add\n      swap1\n      tag_48\n      swap2\n      swap1\n      tag_49\n      jump\t// in\n    tag_48:\n      tag_50\n      jump\t// in\n    tag_47:\n      mload(0x40)\n      tag_51\n      swap2\n      swap1\n      tag_42\n      jump\t// in\n    tag_51:\n      mload(0x40)\n      dup1\n      swap2\n      sub\n      swap1\n      return\n        /* \"solmate/src/tokens/ERC20.sol\":2461:2672  function approve(address spender, uint256 amount) public virtual returns (bool) {... */\n    tag_6:\n      tag_52\n      0x04\n      dup1\n      calldatasize\n      sub\n      dup2\n      add\n      swap1\n      tag_53\n      swap2\n      swap1\n      tag_54\n      jump\t// in\n    tag_53:\n      tag_55\n      jump\t// in\n    tag_52:\n      mload(0x40)\n      tag_56\n      swap2\n      swap1\n      tag_57\n      jump\t// in\n    tag_56:\n      mload(0x40)\n      dup1\n      swap2\n      sub\n      swap1\n      return\n        /* \"src/Derivatives/EquityToken.sol\":4452:4663  function previewWithdraw(uint256 assets) public view override returns (uint256 shares) {... */\n    tag_7:\n      tag_58\n      0x04\n      dup1\n      calldatasize\n      sub\n      dup2\n      add\n      swap1\n      tag_59\n      swap2\n      swap1\n      tag_49\n      jump\t// in\n    tag_59:\n      tag_60\n      jump\t// in\n    tag_58:\n      mload(0x40)\n      tag_61\n      swap2\n      swap1\n      tag_42\n      jump\t// in\n    tag_61:\n      mload(0x40)\n      dup1\n      swap2\n      sub\n      swap1\n      return\n        /* \"solmate/src/tokens/ERC20.sol\":1304:1330  uint256 public totalSupply */\n    tag_8:\n      tag_62\n      tag_63\n      jump\t// in\n    tag_62:\n      mload(0x40)\n      tag_64\n      swap2\n      swap1\n      tag_42\n      jump\t// in\n    tag_64:\n      mload(0x40)\n      dup1\n      swap2\n      sub\n      swap1\n      return\n        /* \"solmate/src/tokens/ERC20.sol\":3057:3649  function transferFrom(... */\n    tag_9:\n      tag_65\n      0x04\n      dup1\n      calldatasize\n      sub\n      dup2\n      add\n      swap1\n      tag_66\n      swap2\n      swap1\n      tag_67\n      jump\t// in\n    tag_66:\n      tag_68\n      jump\t// in\n    tag_65:\n      mload(0x40)\n      tag_69\n      swap2\n      swap1\n      tag_57\n      jump\t// in\n    tag_69:\n      mload(0x40)\n      dup1\n      swap2\n      sub\n      swap1\n      return\n        /* \"solmate/src/tokens/ERC20.sol\":1083:1114  uint8 public immutable decimals */\n    tag_10:\n      tag_70\n      tag_71\n      jump\t// in\n    tag_70:\n      mload(0x40)\n      tag_72\n      swap2\n      swap1\n      tag_73\n      jump\t// in\n    tag_72:\n      mload(0x40)\n      dup1\n      swap2\n      sub\n      swap1\n      return\n        /* \"solmate/src/tokens/ERC20.sol\":5327:5504  function DOMAIN_SEPARATOR() public view virtual returns (bytes32) {... */\n    tag_11:\n      tag_74\n      tag_75\n      jump\t// in\n    tag_74:\n      mload(0x40)\n      tag_76\n      swap2\n      swap1\n      tag_77\n      jump\t// in\n    tag_76:\n      mload(0x40)\n      dup1\n      swap2\n      sub\n      swap1\n      return\n        /* \"solmate/src/mixins/ERC4626.sol\":1149:1177  ERC20 public immutable asset */\n    tag_12:\n      tag_78\n      tag_79\n      jump\t// in\n    tag_78:\n      mload(0x40)\n      tag_80\n      swap2\n      swap1\n      tag_81\n      jump\t// in\n    tag_80:\n      mload(0x40)\n      dup1\n      swap2\n      sub\n      swap1\n      return\n        /* \"src/Derivatives/EquityToken.sol\":3258:3382  function maxDeposit(address user) public view override returns (uint256 maxAssets) {... */\n    tag_13:\n      tag_82\n      0x04\n      dup1\n      calldatasize\n      sub\n      dup2\n      add\n      swap1\n      tag_83\n      swap2\n      swap1\n      tag_84\n      jump\t// in\n    tag_83:\n      tag_85\n      jump\t// in\n    tag_82:\n      mload(0x40)\n      tag_86\n      swap2\n      swap1\n      tag_42\n      jump\t// in\n    tag_86:\n      mload(0x40)\n      dup1\n      swap2\n      sub\n      swap1\n      return\n        /* \"src/Derivatives/EquityToken.sol\":5151:5285  function previewRedeem(uint256 shares) public view override returns (uint256 assets) {... */\n    tag_14:\n      tag_87\n      0x04\n      dup1\n      calldatasize\n      sub\n      dup2\n      add\n      swap1\n      tag_88\n      swap2\n      swap1\n      tag_49\n      jump\t// in\n    tag_88:\n      tag_89\n      jump\t// in\n    tag_87:\n      mload(0x40)\n      tag_90\n      swap2\n      swap1\n      tag_42\n      jump\t// in\n    tag_90:\n      mload(0x40)\n      dup1\n      swap2\n      sub\n      swap1\n      return\n        /* \"solmate/src/mixins/ERC4626.sol\":1550:2066  function deposit(uint256 assets, address receiver) public virtual returns (uint256 shares) {... */\n    tag_15:\n      tag_91\n      0x04\n      dup1\n      calldatasize\n      sub\n      dup2\n      add\n      swap1\n      tag_92\n      swap2\n      swap1\n      tag_93\n      jump\t// in\n    tag_92:\n      tag_94\n      jump\t// in\n    tag_91:\n      mload(0x40)\n      tag_95\n      swap2\n      swap1\n      tag_42\n      jump\t// in\n    tag_95:\n      mload(0x40)\n      dup1\n      swap2\n      sub\n      swap1\n      return\n        /* \"solmate/src/tokens/ERC20.sol\":1337:1381  mapping(address => uint256) public balanceOf */\n    tag_16:\n      tag_96\n      0x04\n      dup1\n      calldatasize\n      sub\n      dup2\n      add\n      swap1\n      tag_97\n      swap2\n      swap1\n      tag_84\n      jump\t// in\n    tag_97:\n      tag_98\n      jump\t// in\n    tag_96:\n      mload(0x40)\n      tag_99\n      swap2\n      swap1\n      tag_42\n      jump\t// in\n    tag_99:\n      mload(0x40)\n      dup1\n      swap2\n      sub\n      swap1\n      return\n        /* \"solmate/src/tokens/ERC20.sol\":1751:1792  mapping(address => uint256) public nonces */\n    tag_17:\n      tag_100\n      0x04\n      dup1\n      calldatasize\n      sub\n      dup2\n      add\n      swap1\n      tag_101\n      swap2\n      swap1\n      tag_84\n      jump\t// in\n    tag_101:\n      tag_102\n      jump\t// in\n    tag_100:\n      mload(0x40)\n      tag_103\n      swap2\n      swap1\n      tag_42\n      jump\t// in\n    tag_103:\n      mload(0x40)\n      dup1\n      swap2\n      sub\n      swap1\n      return\n        /* \"src/Derivatives/EquityToken.sol\":4039:4292  function mint(uint256 shares, address receiver) public override returns (uint256 assets) {... */\n    tag_18:\n      tag_104\n      0x04\n      dup1\n      calldatasize\n      sub\n      dup2\n      add\n      swap1\n      tag_105\n      swap2\n      swap1\n      tag_93\n      jump\t// in\n    tag_105:\n      tag_106\n      jump\t// in\n    tag_104:\n      mload(0x40)\n      tag_107\n      swap2\n      swap1\n      tag_42\n      jump\t// in\n    tag_107:\n      mload(0x40)\n      dup1\n      swap2\n      sub\n      swap1\n      return\n        /* \"solmate/src/tokens/ERC20.sol\":1056:1076  string public symbol */\n    tag_19:\n      tag_108\n      tag_109\n      jump\t// in\n    tag_108:\n      mload(0x40)\n      tag_110\n      swap2\n      swap1\n      tag_46\n      jump\t// in\n    tag_110:\n      mload(0x40)\n      dup1\n      swap2\n      sub\n      swap1\n      return\n        /* \"solmate/src/tokens/ERC20.sol\":2678:3051  function transfer(address to, uint256 amount) public virtual returns (bool) {... */\n    tag_20:\n      tag_111\n      0x04\n      dup1\n      calldatasize\n      sub\n      dup2\n      add\n      swap1\n      tag_112\n      swap2\n      swap1\n      tag_54\n      jump\t// in\n    tag_112:\n      tag_113\n      jump\t// in\n    tag_111:\n      mload(0x40)\n      tag_114\n      swap2\n      swap1\n      tag_57\n      jump\t// in\n    tag_114:\n      mload(0x40)\n      dup1\n      swap2\n      sub\n      swap1\n      return\n        /* \"src/Derivatives/EquityToken.sol\":3819:4031  function previewMint(uint256 shares) public view override returns (uint256 assets) {... */\n    tag_21:\n      tag_115\n      0x04\n      dup1\n      calldatasize\n      sub\n      dup2\n      add\n      swap1\n      tag_116\n      swap2\n      swap1\n      tag_49\n      jump\t// in\n    tag_116:\n      tag_117\n      jump\t// in\n    tag_115:\n      mload(0x40)\n      tag_118\n      swap2\n      swap1\n      tag_42\n      jump\t// in\n    tag_118:\n      mload(0x40)\n      dup1\n      swap2\n      sub\n      swap1\n      return\n        /* \"src/Derivatives/EquityToken.sol\":4671:5010  function withdraw(... */\n    tag_22:\n      tag_119\n      0x04\n      dup1\n      calldatasize\n      sub\n      dup2\n      add\n      swap1\n      tag_120\n      swap2\n      swap1\n      tag_121\n      jump\t// in\n    tag_120:\n      tag_122\n      jump\t// in\n    tag_119:\n      mload(0x40)\n      tag_123\n      swap2\n      swap1\n      tag_42\n      jump\t// in\n    tag_123:\n      mload(0x40)\n      dup1\n      swap2\n      sub\n      swap1\n      return\n        /* \"src/Derivatives/EquityToken.sol\":5384:5590  function redeem(... */\n    tag_23:\n      tag_124\n      0x04\n      dup1\n      calldatasize\n      sub\n      dup2\n      add\n      swap1\n      tag_125\n      swap2\n      swap1\n      tag_121\n      jump\t// in\n    tag_125:\n      tag_126\n      jump\t// in\n    tag_124:\n      mload(0x40)\n      tag_127\n      swap2\n      swap1\n      tag_42\n      jump\t// in\n    tag_127:\n      mload(0x40)\n      dup1\n      swap2\n      sub\n      swap1\n      return\n        /* \"src/Derivatives/EquityToken.sol\":3673:3811  function maxMint(address user) public view override returns (uint256 maxShares) {... */\n    tag_24:\n      tag_128\n      0x04\n      dup1\n      calldatasize\n      sub\n      dup2\n      add\n      swap1\n      tag_129\n      swap2\n      swap1\n      tag_84\n      jump\t// in\n    tag_129:\n      tag_130\n      jump\t// in\n    tag_128:\n      mload(0x40)\n      tag_131\n      swap2\n      swap1\n      tag_42\n      jump\t// in\n    tag_131:\n      mload(0x40)\n      dup1\n      swap2\n      sub\n      swap1\n      return\n        /* \"src/Derivatives/EquityToken.sol\":2071:2266  function convertToShares(uint256 assets) public view override returns (uint256 shares) {... */\n    tag_25:\n      tag_132\n      0x04\n      dup1\n      calldatasize\n      sub\n      dup2\n      add\n      swap1\n      tag_133\n      swap2\n      swap1\n      tag_49\n      jump\t// in\n    tag_133:\n      tag_134\n      jump\t// in\n    tag_132:\n      mload(0x40)\n      tag_135\n      swap2\n      swap1\n      tag_42\n      jump\t// in\n    tag_135:\n      mload(0x40)\n      dup1\n      swap2\n      sub\n      swap1\n      return\n        /* \"src/Derivatives/EquityToken.sol\":4300:4444  function maxWithdraw(address owner) public view override returns (uint256 maxAssets) {... */\n    tag_26:\n      tag_136\n      0x04\n      dup1\n      calldatasize\n      sub\n      dup2\n      add\n      swap1\n      tag_137\n      swap2\n      swap1\n      tag_84\n      jump\t// in\n    tag_137:\n      tag_138\n      jump\t// in\n    tag_136:\n      mload(0x40)\n      tag_139\n      swap2\n      swap1\n      tag_42\n      jump\t// in\n    tag_139:\n      mload(0x40)\n      dup1\n      swap2\n      sub\n      swap1\n      return\n        /* \"solmate/src/tokens/ERC20.sol\":3838:5321  function permit(... */\n    tag_27:\n      tag_140\n      0x04\n      dup1\n      calldatasize\n      sub\n      dup2\n      add\n      swap1\n      tag_141\n      swap2\n      swap1\n      tag_142\n      jump\t// in\n    tag_141:\n      tag_143\n      jump\t// in\n    tag_140:\n      stop\n        /* \"src/Derivatives/EquityToken.sol\":5018:5143  function maxRedeem(address owner) public view override returns (uint256 maxShares) {... */\n    tag_28:\n      tag_144\n      0x04\n      dup1\n      calldatasize\n      sub\n      dup2\n      add\n      swap1\n      tag_145\n      swap2\n      swap1\n      tag_84\n      jump\t// in\n    tag_145:\n      tag_146\n      jump\t// in\n    tag_144:\n      mload(0x40)\n      tag_147\n      swap2\n      swap1\n      tag_42\n      jump\t// in\n    tag_147:\n      mload(0x40)\n      dup1\n      swap2\n      sub\n      swap1\n      return\n        /* \"solmate/src/tokens/ERC20.sol\":1388:1452  mapping(address => mapping(address => uint256)) public allowance */\n    tag_29:\n      tag_148\n      0x04\n      dup1\n      calldatasize\n      sub\n      dup2\n      add\n      swap1\n      tag_149\n      swap2\n      swap1\n      tag_150\n      jump\t// in\n    tag_149:\n      tag_151\n      jump\t// in\n    tag_148:\n      mload(0x40)\n      tag_152\n      swap2\n      swap1\n      tag_42\n      jump\t// in\n    tag_152:\n      mload(0x40)\n      dup1\n      swap2\n      sub\n      swap1\n      return\n        /* \"src/Derivatives/EquityToken.sol\":3390:3525  function previewDeposit(uint256 assets) public view override returns (uint256 shares) {... */\n    tag_30:\n      tag_153\n      0x04\n      dup1\n      calldatasize\n      sub\n      dup2\n      add\n      swap1\n      tag_154\n      swap2\n      swap1\n      tag_49\n      jump\t// in\n    tag_154:\n      tag_155\n      jump\t// in\n    tag_153:\n      mload(0x40)\n      tag_156\n      swap2\n      swap1\n      tag_42\n      jump\t// in\n    tag_156:\n      mload(0x40)\n      dup1\n      swap2\n      sub\n      swap1\n      return\n        /* \"src/Derivatives/EquityToken.sol\":394:412  ERC20 public token */\n    tag_31:\n      tag_157\n      tag_158\n      jump\t// in\n    tag_157:\n      mload(0x40)\n      tag_159\n      swap2\n      swap1\n      tag_81\n      jump\t// in\n    tag_159:\n      mload(0x40)\n      dup1\n      swap2\n      sub\n      swap1\n      return\n        /* \"src/Derivatives/EquityToken.sol\":1174:1282  function totalAssets() public view override returns (uint256 totalManagedAssets) {... */\n    tag_40:\n        /* \"src/Derivatives/EquityToken.sol\":1227:1253  uint256 totalManagedAssets */\n      0x00\n        /* \"src/Derivatives/EquityToken.sol\":1174:1282  function totalAssets() public view override returns (uint256 totalManagedAssets) {... */\n      swap1\n      jump\t// out\n        /* \"solmate/src/tokens/ERC20.sol\":1031:1049  string public name */\n    tag_44:\n      0x00\n      dup1\n      sload\n      tag_161\n      swap1\n      tag_162\n      jump\t// in\n    tag_161:\n      dup1\n      0x1f\n      add\n      0x20\n      dup1\n      swap2\n      div\n      mul\n      0x20\n      add\n      mload(0x40)\n      swap1\n      dup2\n      add\n      0x40\n      mstore\n      dup1\n      swap3\n      swap2\n      swap1\n      dup2\n      dup2\n      mstore\n      0x20\n      add\n      dup3\n      dup1\n      sload\n      tag_163\n      swap1\n      tag_162\n      jump\t// in\n    tag_163:\n      dup1\n      iszero\n      tag_164\n      jumpi\n      dup1\n      0x1f\n      lt\n      tag_165\n      jumpi\n      0x0100\n      dup1\n      dup4\n      sload\n      div\n      mul\n      dup4\n      mstore\n      swap2\n      0x20\n      add\n      swap2\n      jump(tag_164)\n    tag_165:\n      dup3\n      add\n      swap2\n      swap1\n      0x00\n      mstore\n      keccak256(0x00, 0x20)\n      swap1\n    tag_166:\n      dup2\n      sload\n      dup2\n      mstore\n      swap1\n      0x01\n      add\n      swap1\n      0x20\n      add\n      dup1\n      dup4\n      gt\n      tag_166\n      jumpi\n      dup3\n      swap1\n      sub\n      0x1f\n      and\n      dup3\n      add\n      swap2\n    tag_164:\n      pop\n      pop\n      pop\n      pop\n      pop\n      dup2\n      jump\t// out\n        /* \"src/Derivatives/EquityToken.sol\":3055:3250  function convertToAssets(uint256 shares) public view override returns (uint256 assets) {... */\n    tag_50:\n        /* \"src/Derivatives/EquityToken.sol\":3126:3140  uint256 assets */\n      0x00\n        /* \"src/Derivatives/EquityToken.sol\":3172:3173  0 */\n      dup1\n        /* \"src/Derivatives/EquityToken.sol\":3157:3168  totalSupply */\n      sload(0x02)\n        /* \"src/Derivatives/EquityToken.sol\":3157:3173  totalSupply == 0 */\n      sub\n        /* \"src/Derivatives/EquityToken.sol\":3153:3188  if (totalSupply == 0) return shares */\n      tag_168\n      jumpi\n        /* \"src/Derivatives/EquityToken.sol\":3182:3188  shares */\n      dup2\n        /* \"src/Derivatives/EquityToken.sol\":3175:3188  return shares */\n      swap1\n      pop\n      jump(tag_167)\n        /* \"src/Derivatives/EquityToken.sol\":3153:3188  if (totalSupply == 0) return shares */\n    tag_168:\n        /* \"src/Derivatives/EquityToken.sol\":3231:3242  totalSupply */\n      sload(0x02)\n        /* \"src/Derivatives/EquityToken.sol\":3216:3227  totalSupply */\n      sload(0x02)\n        /* \"src/Derivatives/EquityToken.sol\":3207:3213  shares */\n      dup4\n        /* \"src/Derivatives/EquityToken.sol\":3207:3227  shares * totalSupply */\n      tag_169\n      swap2\n      swap1\n      tag_170\n      jump\t// in\n    tag_169:\n        /* \"src/Derivatives/EquityToken.sol\":3206:3242  (shares * totalSupply) / totalSupply */\n      tag_171\n      swap2\n      swap1\n      tag_172\n      jump\t// in\n    tag_171:\n        /* \"src/Derivatives/EquityToken.sol\":3199:3242  return (shares * totalSupply) / totalSupply */\n      swap1\n      pop\n        /* \"src/Derivatives/EquityToken.sol\":3055:3250  function convertToAssets(uint256 shares) public view override returns (uint256 assets) {... */\n    tag_167:\n      swap2\n      swap1\n      pop\n      jump\t// out\n        /* \"solmate/src/tokens/ERC20.sol\":2461:2672  function approve(address spender, uint256 amount) public virtual returns (bool) {... */\n    tag_55:\n        /* \"solmate/src/tokens/ERC20.sol\":2535:2539  bool */\n      0x00\n        /* \"solmate/src/tokens/ERC20.sol\":2584:2590  amount */\n      dup2\n        /* \"solmate/src/tokens/ERC20.sol\":2551:2560  allowance */\n      0x04\n        /* \"solmate/src/tokens/ERC20.sol\":2551:2572  allowance[msg.sender] */\n      0x00\n        /* \"solmate/src/tokens/ERC20.sol\":2561:2571  msg.sender */\n      caller\n        /* \"solmate/src/tokens/ERC20.sol\":2551:2572  allowance[msg.sender] */\n      0xffffffffffffffffffffffffffffffffffffffff\n      and\n      0xffffffffffffffffffffffffffffffffffffffff\n      and\n      dup2\n      mstore\n      0x20\n      add\n      swap1\n      dup2\n      mstore\n      0x20\n      add\n      0x00\n      keccak256\n        /* \"solmate/src/tokens/ERC20.sol\":2551:2581  allowance[msg.sender][spender] */\n      0x00\n        /* \"solmate/src/tokens/ERC20.sol\":2573:2580  spender */\n      dup6\n        /* \"solmate/src/tokens/ERC20.sol\":2551:2581  allowance[msg.sender][spender] */\n      0xffffffffffffffffffffffffffffffffffffffff\n      and\n      0xffffffffffffffffffffffffffffffffffffffff\n      and\n      dup2\n      mstore\n      0x20\n      add\n      swap1\n      dup2\n      mstore\n      0x20\n      add\n      0x00\n      keccak256\n        /* \"solmate/src/tokens/ERC20.sol\":2551:2590  allowance[msg.sender][spender] = amount */\n      dup2\n      swap1\n      sstore\n      pop\n        /* \"solmate/src/tokens/ERC20.sol\":2627:2634  spender */\n      dup3\n        /* \"solmate/src/tokens/ERC20.sol\":2606:2643  Approval(msg.sender, spender, amount) */\n      0xffffffffffffffffffffffffffffffffffffffff\n      and\n        /* \"solmate/src/tokens/ERC20.sol\":2615:2625  msg.sender */\n      caller\n        /* \"solmate/src/tokens/ERC20.sol\":2606:2643  Approval(msg.sender, spender, amount) */\n      0xffffffffffffffffffffffffffffffffffffffff\n      and\n      0x8c5be1e5ebec7d5bd14f71427d1e84f3dd0314c0f7b2291e5b200ac8c7c3b925\n        /* \"solmate/src/tokens/ERC20.sol\":2636:2642  amount */\n      dup5\n        /* \"solmate/src/tokens/ERC20.sol\":2606:2643  Approval(msg.sender, spender, amount) */\n      mload(0x40)\n      tag_174\n      swap2\n      swap1\n      tag_42\n      jump\t// in\n    tag_174:\n      mload(0x40)\n      dup1\n      swap2\n      sub\n      swap1\n      log3\n        /* \"solmate/src/tokens/ERC20.sol\":2661:2665  true */\n      0x01\n        /* \"solmate/src/tokens/ERC20.sol\":2654:2665  return true */\n      swap1\n      pop\n        /* \"solmate/src/tokens/ERC20.sol\":2461:2672  function approve(address spender, uint256 amount) public virtual returns (bool) {... */\n      swap3\n      swap2\n      pop\n      pop\n      jump\t// out\n        /* \"src/Derivatives/EquityToken.sol\":4452:4663  function previewWithdraw(uint256 assets) public view override returns (uint256 shares) {... */\n    tag_60:\n        /* \"src/Derivatives/EquityToken.sol\":4523:4537  uint256 shares */\n      0x00\n        /* \"src/Derivatives/EquityToken.sol\":4569:4570  0 */\n      dup1\n        /* \"src/Derivatives/EquityToken.sol\":4554:4565  totalSupply */\n      sload(0x02)\n        /* \"src/Derivatives/EquityToken.sol\":4554:4570  totalSupply == 0 */\n      sub\n        /* \"src/Derivatives/EquityToken.sol\":4550:4580  if (totalSupply == 0) return 0 */\n      tag_176\n      jumpi\n        /* \"src/Derivatives/EquityToken.sol\":4579:4580  0 */\n      0x00\n        /* \"src/Derivatives/EquityToken.sol\":4572:4580  return 0 */\n      swap1\n      pop\n      jump(tag_175)\n        /* \"src/Derivatives/EquityToken.sol\":4550:4580  if (totalSupply == 0) return 0 */\n    tag_176:\n        /* \"src/Derivatives/EquityToken.sol\":4600:4655  roundUpDiv(assets * totalSupply, balanceOf[msg.sender]) */\n      tag_177\n        /* \"src/Derivatives/EquityToken.sol\":4620:4631  totalSupply */\n      sload(0x02)\n        /* \"src/Derivatives/EquityToken.sol\":4611:4617  assets */\n      dup4\n        /* \"src/Derivatives/EquityToken.sol\":4611:4631  assets * totalSupply */\n      tag_178\n      swap2\n      swap1\n      tag_170\n      jump\t// in\n    tag_178:\n        /* \"src/Derivatives/EquityToken.sol\":4633:4642  balanceOf */\n      0x03\n        /* \"src/Derivatives/EquityToken.sol\":4633:4654  balanceOf[msg.sender] */\n      0x00\n        /* \"src/Derivatives/EquityToken.sol\":4643:4653  msg.sender */\n      caller\n        /* \"src/Derivatives/EquityToken.sol\":4633:4654  balanceOf[msg.sender] */\n      0xffffffffffffffffffffffffffffffffffffffff\n      and\n      0xffffffffffffffffffffffffffffffffffffffff\n      and\n      dup2\n      mstore\n      0x20\n      add\n      swap1\n      dup2\n      mstore\n      0x20\n      add\n      0x00\n      keccak256\n      sload\n        /* \"src/Derivatives/EquityToken.sol\":4600:4610  roundUpDiv */\n      tag_179\n        /* \"src/Derivatives/EquityToken.sol\":4600:4655  roundUpDiv(assets * totalSupply, balanceOf[msg.sender]) */\n      jump\t// in\n    tag_177:\n        /* \"src/Derivatives/EquityToken.sol\":4591:4655  shares = roundUpDiv(assets * totalSupply, balanceOf[msg.sender]) */\n      swap1\n      pop\n        /* \"src/Derivatives/EquityToken.sol\":4452:4663  function previewWithdraw(uint256 assets) public view override returns (uint256 shares) {... */\n    tag_175:\n      swap2\n      swap1\n      pop\n      jump\t// out\n        /* \"solmate/src/tokens/ERC20.sol\":1304:1330  uint256 public totalSupply */\n    tag_63:\n      sload(0x02)\n      dup2\n      jump\t// out\n        /* \"solmate/src/tokens/ERC20.sol\":3057:3649  function transferFrom(... */\n    tag_68:\n        /* \"solmate/src/tokens/ERC20.sol\":3175:3179  bool */\n      0x00\n        /* \"solmate/src/tokens/ERC20.sol\":3191:3206  uint256 allowed */\n      dup1\n        /* \"solmate/src/tokens/ERC20.sol\":3209:3218  allowance */\n      0x04\n        /* \"solmate/src/tokens/ERC20.sol\":3209:3224  allowance[from] */\n      0x00\n        /* \"solmate/src/tokens/ERC20.sol\":3219:3223  from */\n      dup7\n        /* \"solmate/src/tokens/ERC20.sol\":3209:3224  allowance[from] */\n      0xffffffffffffffffffffffffffffffffffffffff\n      and\n      0xffffffffffffffffffffffffffffffffffffffff\n      and\n      dup2\n      mstore\n      0x20\n      add\n      swap1\n      dup2\n      mstore\n      0x20\n      add\n      0x00\n      keccak256\n        /* \"solmate/src/tokens/ERC20.sol\":3209:3236  allowance[from][msg.sender] */\n      0x00\n        /* \"solmate/src/tokens/ERC20.sol\":3225:3235  msg.sender */\n      caller\n        /* \"solmate/src/tokens/ERC20.sol\":3209:3236  allowance[from][msg.sender] */\n      0xffffffffffffffffffffffffffffffffffffffff\n      and\n      0xffffffffffffffffffffffffffffffffffffffff\n      and\n      dup2\n      mstore\n      0x20\n      add\n      swap1\n      dup2\n      mstore\n      0x20\n      add\n      0x00\n      keccak256\n      sload\n        /* \"solmate/src/tokens/ERC20.sol\":3191:3236  uint256 allowed = allowance[from][msg.sender] */\n      swap1\n      pop\n        /* \"solmate/src/tokens/ERC20.sol\":3298:3315  type(uint256).max */\n      0xffffffffffffffffffffffffffffffffffffffffffffffffffffffffffffffff\n        /* \"solmate/src/tokens/ERC20.sol\":3287:3294  allowed */\n      dup2\n        /* \"solmate/src/tokens/ERC20.sol\":3287:3315  allowed != type(uint256).max */\n      eq\n        /* \"solmate/src/tokens/ERC20.sol\":3283:3363  if (allowed != type(uint256).max) allowance[from][msg.sender] = allowed - amount */\n      tag_181\n      jumpi\n        /* \"solmate/src/tokens/ERC20.sol\":3357:3363  amount */\n      dup3\n        /* \"solmate/src/tokens/ERC20.sol\":3347:3354  allowed */\n      dup2\n        /* \"solmate/src/tokens/ERC20.sol\":3347:3363  allowed - amount */\n      tag_182\n      swap2\n      swap1\n      tag_183\n      jump\t// in\n    tag_182:\n        /* \"solmate/src/tokens/ERC20.sol\":3317:3326  allowance */\n      0x04\n        /* \"solmate/src/tokens/ERC20.sol\":3317:3332  allowance[from] */\n      0x00\n        /* \"solmate/src/tokens/ERC20.sol\":3327:3331  from */\n      dup8\n        /* \"solmate/src/tokens/ERC20.sol\":3317:3332  allowance[from] */\n      0xffffffffffffffffffffffffffffffffffffffff\n      and\n      0xffffffffffffffffffffffffffffffffffffffff\n      and\n      dup2\n      mstore\n      0x20\n      add\n      swap1\n      dup2\n      mstore\n      0x20\n      add\n      0x00\n      keccak256\n        /* \"solmate/src/tokens/ERC20.sol\":3317:3344  allowance[from][msg.sender] */\n      0x00\n        /* \"solmate/src/tokens/ERC20.sol\":3333:3343  msg.sender */\n      caller\n        /* \"solmate/src/tokens/ERC20.sol\":3317:3344  allowance[from][msg.sender] */\n      0xffffffffffffffffffffffffffffffffffffffff\n      and\n      0xffffffffffffffffffffffffffffffffffffffff\n      and\n      dup2\n      mstore\n      0x20\n      add\n      swap1\n      dup2\n      mstore\n      0x20\n      add\n      0x00\n      keccak256\n        /* \"solmate/src/tokens/ERC20.sol\":3317:3363  allowance[from][msg.sender] = allowed - amount */\n      dup2\n      swap1\n      sstore\n      pop\n        /* \"solmate/src/tokens/ERC20.sol\":3283:3363  if (allowed != type(uint256).max) allowance[from][msg.sender] = allowed - amount */\n    tag_181:\n        /* \"solmate/src/tokens/ERC20.sol\":3393:3399  amount */\n      dup3\n        /* \"solmate/src/tokens/ERC20.sol\":3374:3383  balanceOf */\n      0x03\n        /* \"solmate/src/tokens/ERC20.sol\":3374:3389  balanceOf[from] */\n      0x00\n        /* \"solmate/src/tokens/ERC20.sol\":3384:3388  from */\n      dup8\n        /* \"solmate/src/tokens/ERC20.sol\":3374:3389  balanceOf[from] */\n      0xffffffffffffffffffffffffffffffffffffffff\n      and\n      0xffffffffffffffffffffffffffffffffffffffff\n      and\n      dup2\n      mstore\n      0x20\n      add\n      swap1\n      dup2\n      mstore\n      0x20\n      add\n      0x00\n      keccak256\n      0x00\n        /* \"solmate/src/tokens/ERC20.sol\":3374:3399  balanceOf[from] -= amount */\n      dup3\n      dup3\n      sload\n      tag_184\n      swap2\n      swap1\n      tag_183\n      jump\t// in\n    tag_184:\n      swap3\n      pop\n      pop\n      dup2\n      swap1\n      sstore\n      pop\n        /* \"solmate/src/tokens/ERC20.sol\":3562:3568  amount */\n      dup3\n        /* \"solmate/src/tokens/ERC20.sol\":3545:3554  balanceOf */\n      0x03\n        /* \"solmate/src/tokens/ERC20.sol\":3545:3558  balanceOf[to] */\n      0x00\n        /* \"solmate/src/tokens/ERC20.sol\":3555:3557  to */\n      dup7\n        /* \"solmate/src/tokens/ERC20.sol\":3545:3558  balanceOf[to] */\n      0xffffffffffffffffffffffffffffffffffffffff\n      and\n      0xffffffffffffffffffffffffffffffffffffffff\n      and\n      dup2\n      mstore\n      0x20\n      add\n      swap1\n      dup2\n      mstore\n      0x20\n      add\n      0x00\n      keccak256\n      0x00\n        /* \"solmate/src/tokens/ERC20.sol\":3545:3568  balanceOf[to] += amount */\n      dup3\n      dup3\n      sload\n      add\n      swap3\n      pop\n      pop\n      dup2\n      swap1\n      sstore\n      pop\n        /* \"solmate/src/tokens/ERC20.sol\":3609:3611  to */\n      dup4\n        /* \"solmate/src/tokens/ERC20.sol\":3594:3620  Transfer(from, to, amount) */\n      0xffffffffffffffffffffffffffffffffffffffff\n      and\n        /* \"solmate/src/tokens/ERC20.sol\":3603:3607  from */\n      dup6\n        /* \"solmate/src/tokens/ERC20.sol\":3594:3620  Transfer(from, to, amount) */\n      0xffffffffffffffffffffffffffffffffffffffff\n      and\n      0xddf252ad1be2c89b69c2b068fc378daa952ba7f163c4a11628f55a4df523b3ef\n        /* \"solmate/src/tokens/ERC20.sol\":3613:3619  amount */\n      dup6\n        /* \"solmate/src/tokens/ERC20.sol\":3594:3620  Transfer(from, to, amount) */\n      mload(0x40)\n      tag_185\n      swap2\n      swap1\n      tag_42\n      jump\t// in\n    tag_185:\n      mload(0x40)\n      dup1\n      swap2\n      sub\n      swap1\n      log3\n        /* \"solmate/src/tokens/ERC20.sol\":3638:3642  true */\n      0x01\n        /* \"solmate/src/tokens/ERC20.sol\":3631:3642  return true */\n      swap2\n      pop\n      pop\n        /* \"solmate/src/tokens/ERC20.sol\":3057:3649  function transferFrom(... */\n      swap4\n      swap3\n      pop\n      pop\n      pop\n      jump\t// out\n        /* \"solmate/src/tokens/ERC20.sol\":1083:1114  uint8 public immutable decimals */\n    tag_71:\n      immutable(\"0x2594dabed871cb83b92f0316c3cfb3f11c31e831a3dfe02ed619a85d0029a787\")\n      dup2\n      jump\t// out\n        /* \"solmate/src/tokens/ERC20.sol\":5327:5504  function DOMAIN_SEPARATOR() public view virtual returns (bytes32) {... */\n    tag_75:\n        /* \"solmate/src/tokens/ERC20.sol\":5384:5391  bytes32 */\n      0x00\n        /* \"solmate/src/tokens/ERC20.sol\":5427:5443  INITIAL_CHAIN_ID */\n      immutable(\"0x70d51cd1373c3547db09959deae795a3b26b0e92b69bc03e792eef55a00cf3e5\")\n        /* \"solmate/src/tokens/ERC20.sol\":5410:5423  block.chainid */\n      chainid\n        /* \"solmate/src/tokens/ERC20.sol\":5410:5443  block.chainid == INITIAL_CHAIN_ID */\n      eq\n        /* \"solmate/src/tokens/ERC20.sol\":5410:5497  block.chainid == INITIAL_CHAIN_ID ? INITIAL_DOMAIN_SEPARATOR : computeDomainSeparator() */\n      tag_187\n      jumpi\n        /* \"solmate/src/tokens/ERC20.sol\":5473:5497  computeDomainSeparator() */\n      tag_188\n        /* \"solmate/src/tokens/ERC20.sol\":5473:5495  computeDomainSeparator */\n      tag_189\n        /* \"solmate/src/tokens/ERC20.sol\":5473:5497  computeDomainSeparator() */\n      jump\t// in\n    tag_188:\n        /* \"solmate/src/tokens/ERC20.sol\":5410:5497  block.chainid == INITIAL_CHAIN_ID ? INITIAL_DOMAIN_SEPARATOR : computeDomainSeparator() */\n      jump(tag_190)\n    tag_187:\n        /* \"solmate/src/tokens/ERC20.sol\":5446:5470  INITIAL_DOMAIN_SEPARATOR */\n      immutable(\"0x95dbfae59aa7d7d19adafd03f33b4c518efbf6a02348e639237101758163c21d\")\n        /* \"solmate/src/tokens/ERC20.sol\":5410:5497  block.chainid == INITIAL_CHAIN_ID ? INITIAL_DOMAIN_SEPARATOR : computeDomainSeparator() */\n    tag_190:\n        /* \"solmate/src/tokens/ERC20.sol\":5403:5497  return block.chainid == INITIAL_CHAIN_ID ? INITIAL_DOMAIN_SEPARATOR : computeDomainSeparator() */\n      swap1\n      pop\n        /* \"solmate/src/tokens/ERC20.sol\":5327:5504  function DOMAIN_SEPARATOR() public view virtual returns (bytes32) {... */\n      swap1\n      jump\t// out\n        /* \"solmate/src/mixins/ERC4626.sol\":1149:1177  ERC20 public immutable asset */\n    tag_79:\n      immutable(\"0xccb1f717aa77602faf03a594761a36956b1c4cf44c6b336d1db57da799b331b8\")\n      dup2\n      jump\t// out\n        /* \"src/Derivatives/EquityToken.sol\":3258:3382  function maxDeposit(address user) public view override returns (uint256 maxAssets) {... */\n    tag_85:\n        /* \"src/Derivatives/EquityToken.sol\":3322:3339  uint256 maxAssets */\n      0x00\n        /* \"src/Derivatives/EquityToken.sol\":3359:3368  balanceOf */\n      0x03\n        /* \"src/Derivatives/EquityToken.sol\":3359:3374  balanceOf[user] */\n      0x00\n        /* \"src/Derivatives/EquityToken.sol\":3369:3373  user */\n      dup4\n        /* \"src/Derivatives/EquityToken.sol\":3359:3374  balanceOf[user] */\n      0xffffffffffffffffffffffffffffffffffffffff\n      and\n      0xffffffffffffffffffffffffffffffffffffffff\n      and\n      dup2\n      mstore\n      0x20\n      add\n      swap1\n      dup2\n      mstore\n      0x20\n      add\n      0x00\n      keccak256\n      sload\n        /* \"src/Derivatives/EquityToken.sol\":3352:3374  return balanceOf[user] */\n      swap1\n      pop\n        /* \"src/Derivatives/EquityToken.sol\":3258:3382  function maxDeposit(address user) public view override returns (uint256 maxAssets) {... */\n      swap2\n      swap1\n      pop\n      jump\t// out\n        /* \"src/Derivatives/EquityToken.sol\":5151:5285  function previewRedeem(uint256 shares) public view override returns (uint256 assets) {... */\n    tag_89:\n        /* \"src/Derivatives/EquityToken.sol\":5220:5234  uint256 assets */\n      0x00\n        /* \"src/Derivatives/EquityToken.sol\":5254:5277  convertToAssets(shares) */\n      tag_193\n        /* \"src/Derivatives/EquityToken.sol\":5270:5276  shares */\n      dup3\n        /* \"src/Derivatives/EquityToken.sol\":5254:5269  convertToAssets */\n      tag_50\n        /* \"src/Derivatives/EquityToken.sol\":5254:5277  convertToAssets(shares) */\n      jump\t// in\n    tag_193:\n        /* \"src/Derivatives/EquityToken.sol\":5247:5277  return convertToAssets(shares) */\n      swap1\n      pop\n        /* \"src/Derivatives/EquityToken.sol\":5151:5285  function previewRedeem(uint256 shares) public view override returns (uint256 assets) {... */\n      swap2\n      swap1\n      pop\n      jump\t// out\n        /* \"solmate/src/mixins/ERC4626.sol\":1550:2066  function deposit(uint256 assets, address receiver) public virtual returns (uint256 shares) {... */\n    tag_94:\n        /* \"solmate/src/mixins/ERC4626.sol\":1625:1639  uint256 shares */\n      0x00\n        /* \"solmate/src/mixins/ERC4626.sol\":1771:1772  0 */\n      dup1\n        /* \"solmate/src/mixins/ERC4626.sol\":1744:1766  previewDeposit(assets) */\n      tag_195\n        /* \"solmate/src/mixins/ERC4626.sol\":1759:1765  assets */\n      dup5\n        /* \"solmate/src/mixins/ERC4626.sol\":1744:1758  previewDeposit */\n      tag_155\n        /* \"solmate/src/mixins/ERC4626.sol\":1744:1766  previewDeposit(assets) */\n      jump\t// in\n    tag_195:\n        /* \"solmate/src/mixins/ERC4626.sol\":1735:1766  shares = previewDeposit(assets) */\n      swap2\n      pop\n      dup2\n        /* \"solmate/src/mixins/ERC4626.sol\":1734:1772  (shares = previewDeposit(assets)) != 0 */\n      sub\n        /* \"solmate/src/mixins/ERC4626.sol\":1726:1788  require((shares = previewDeposit(assets)) != 0, \"ZERO_SHARES\") */\n      tag_196\n      jumpi\n      mload(0x40)\n      0x08c379a000000000000000000000000000000000000000000000000000000000\n      dup2\n      mstore\n      0x04\n      add\n      tag_197\n      swap1\n      tag_198\n      jump\t// in\n    tag_197:\n      mload(0x40)\n      dup1\n      swap2\n      sub\n      swap1\n      revert\n    tag_196:\n        /* \"solmate/src/mixins/ERC4626.sol\":1868:1925  asset.safeTransferFrom(msg.sender, address(this), assets) */\n      tag_199\n        /* \"solmate/src/mixins/ERC4626.sol\":1891:1901  msg.sender */\n      caller\n        /* \"solmate/src/mixins/ERC4626.sol\":1911:1915  this */\n      address\n        /* \"solmate/src/mixins/ERC4626.sol\":1918:1924  assets */\n      dup6\n        /* \"solmate/src/mixins/ERC4626.sol\":1868:1873  asset */\n      immutable(\"0xccb1f717aa77602faf03a594761a36956b1c4cf44c6b336d1db57da799b331b8\")\n        /* \"solmate/src/mixins/ERC4626.sol\":1868:1890  asset.safeTransferFrom */\n      0xffffffffffffffffffffffffffffffffffffffff\n      and\n      tag_200\n      swap1\n        /* \"solmate/src/mixins/ERC4626.sol\":1868:1925  asset.safeTransferFrom(msg.sender, address(this), assets) */\n      swap4\n      swap3\n      swap2\n      swap1\n      0xffffffff\n      and\n      jump\t// in\n    tag_199:\n        /* \"solmate/src/mixins/ERC4626.sol\":1936:1959  _mint(receiver, shares) */\n      tag_201\n        /* \"solmate/src/mixins/ERC4626.sol\":1942:1950  receiver */\n      dup3\n        /* \"solmate/src/mixins/ERC4626.sol\":1952:1958  shares */\n      dup3\n        /* \"solmate/src/mixins/ERC4626.sol\":1936:1941  _mint */\n      tag_202\n        /* \"solmate/src/mixins/ERC4626.sol\":1936:1959  _mint(receiver, shares) */\n      jump\t// in\n    tag_201:\n        /* \"solmate/src/mixins/ERC4626.sol\":1995:2003  receiver */\n      dup2\n        /* \"solmate/src/mixins/ERC4626.sol\":1975:2020  Deposit(msg.sender, receiver, assets, shares) */\n      0xffffffffffffffffffffffffffffffffffffffff\n      and\n        /* \"solmate/src/mixins/ERC4626.sol\":1983:1993  msg.sender */\n      caller\n        /* \"solmate/src/mixins/ERC4626.sol\":1975:2020  Deposit(msg.sender, receiver, assets, shares) */\n      0xffffffffffffffffffffffffffffffffffffffff\n      and\n      0xdcbc1c05240f31ff3ad067ef1ee35ce4997762752e3a095284754544f4c709d7\n        /* \"solmate/src/mixins/ERC4626.sol\":2005:2011  assets */\n      dup6\n        /* \"solmate/src/mixins/ERC4626.sol\":2013:2019  shares */\n      dup5\n        /* \"solmate/src/mixins/ERC4626.sol\":1975:2020  Deposit(msg.sender, receiver, assets, shares) */\n      mload(0x40)\n      tag_203\n      swap3\n      swap2\n      swap1\n      tag_204\n      jump\t// in\n    tag_203:\n      mload(0x40)\n      dup1\n      swap2\n      sub\n      swap1\n      log3\n        /* \"solmate/src/mixins/ERC4626.sol\":2031:2059  afterDeposit(assets, shares) */\n      tag_205\n        /* \"solmate/src/mixins/ERC4626.sol\":2044:2050  assets */\n      dup4\n        /* \"solmate/src/mixins/ERC4626.sol\":2052:2058  shares */\n      dup3\n        /* \"solmate/src/mixins/ERC4626.sol\":2031:2043  afterDeposit */\n      tag_206\n        /* \"solmate/src/mixins/ERC4626.sol\":2031:2059  afterDeposit(assets, shares) */\n      jump\t// in\n    tag_205:\n        /* \"solmate/src/mixins/ERC4626.sol\":1550:2066  function deposit(uint256 assets, address receiver) public virtual returns (uint256 shares) {... */\n      swap3\n      swap2\n      pop\n      pop\n      jump\t// out\n        /* \"solmate/src/tokens/ERC20.sol\":1337:1381  mapping(address => uint256) public balanceOf */\n    tag_98:\n      mstore(0x20, 0x03)\n      dup1\n      0x00\n      mstore\n      keccak256(0x00, 0x40)\n      0x00\n      swap2\n      pop\n      swap1\n      pop\n      sload\n      dup2\n      jump\t// out\n        /* \"solmate/src/tokens/ERC20.sol\":1751:1792  mapping(address => uint256) public nonces */\n    tag_102:\n      mstore(0x20, 0x05)\n      dup1\n      0x00\n      mstore\n      keccak256(0x00, 0x40)\n      0x00\n      swap2\n      pop\n      swap1\n      pop\n      sload\n      dup2\n      jump\t// out\n        /* \"src/Derivatives/EquityToken.sol\":4039:4292  function mint(uint256 shares, address receiver) public override returns (uint256 assets) {... */\n    tag_106:\n        /* \"src/Derivatives/EquityToken.sol\":4112:4126  uint256 assets */\n      0x00\n        /* \"src/Derivatives/EquityToken.sol\":4148:4167  previewMint(shares) */\n      tag_208\n        /* \"src/Derivatives/EquityToken.sol\":4160:4166  shares */\n      dup4\n        /* \"src/Derivatives/EquityToken.sol\":4148:4159  previewMint */\n      tag_117\n        /* \"src/Derivatives/EquityToken.sol\":4148:4167  previewMint(shares) */\n      jump\t// in\n    tag_208:\n        /* \"src/Derivatives/EquityToken.sol\":4139:4167  assets = previewMint(shares) */\n      swap1\n      pop\n        /* \"src/Derivatives/EquityToken.sol\":4259:4284  deposit(assets, receiver) */\n      tag_209\n        /* \"src/Derivatives/EquityToken.sol\":4267:4273  assets */\n      dup2\n        /* \"src/Derivatives/EquityToken.sol\":4275:4283  receiver */\n      dup4\n        /* \"src/Derivatives/EquityToken.sol\":4259:4266  deposit */\n      tag_94\n        /* \"src/Derivatives/EquityToken.sol\":4259:4284  deposit(assets, receiver) */\n      jump\t// in\n    tag_209:\n      pop\n        /* \"src/Derivatives/EquityToken.sol\":4039:4292  function mint(uint256 shares, address receiver) public override returns (uint256 assets) {... */\n      swap3\n      swap2\n      pop\n      pop\n      jump\t// out\n        /* \"solmate/src/tokens/ERC20.sol\":1056:1076  string public symbol */\n    tag_109:\n      0x01\n      dup1\n      sload\n      tag_210\n      swap1\n      tag_162\n      jump\t// in\n    tag_210:\n      dup1\n      0x1f\n      add\n      0x20\n      dup1\n      swap2\n      div\n      mul\n      0x20\n      add\n      mload(0x40)\n      swap1\n      dup2\n      add\n      0x40\n      mstore\n      dup1\n      swap3\n      swap2\n      swap1\n      dup2\n      dup2\n      mstore\n      0x20\n      add\n      dup3\n      dup1\n      sload\n      tag_211\n      swap1\n      tag_162\n      jump\t// in\n    tag_211:\n      dup1\n      iszero\n      tag_212\n      jumpi\n      dup1\n      0x1f\n      lt\n      tag_213\n      jumpi\n      0x0100\n      dup1\n      dup4\n      sload\n      div\n      mul\n      dup4\n      mstore\n      swap2\n      0x20\n      add\n      swap2\n      jump(tag_212)\n    tag_213:\n      dup3\n      add\n      swap2\n      swap1\n      0x00\n      mstore\n      keccak256(0x00, 0x20)\n      swap1\n    tag_214:\n      dup2\n      sload\n      dup2\n      mstore\n      swap1\n      0x01\n      add\n      swap1\n      0x20\n      add\n      dup1\n      dup4\n      gt\n      tag_214\n      jumpi\n      dup3\n      swap1\n      sub\n      0x1f\n      and\n      dup3\n      add\n      swap2\n    tag_212:\n      pop\n      pop\n      pop\n      pop\n      pop\n      dup2\n      jump\t// out\n        /* \"solmate/src/tokens/ERC20.sol\":2678:3051  function transfer(address to, uint256 amount) public virtual returns (bool) {... */\n    tag_113:\n        /* \"solmate/src/tokens/ERC20.sol\":2748:2752  bool */\n      0x00\n        /* \"solmate/src/tokens/ERC20.sol\":2789:2795  amount */\n      dup2\n        /* \"solmate/src/tokens/ERC20.sol\":2764:2773  balanceOf */\n      0x03\n        /* \"solmate/src/tokens/ERC20.sol\":2764:2785  balanceOf[msg.sender] */\n      0x00\n        /* \"solmate/src/tokens/ERC20.sol\":2774:2784  msg.sender */\n      caller\n        /* \"solmate/src/tokens/ERC20.sol\":2764:2785  balanceOf[msg.sender] */\n      0xffffffffffffffffffffffffffffffffffffffff\n      and\n      0xffffffffffffffffffffffffffffffffffffffff\n      and\n      dup2\n      mstore\n      0x20\n      add\n      swap1\n      dup2\n      mstore\n      0x20\n      add\n      0x00\n      keccak256\n      0x00\n        /* \"solmate/src/tokens/ERC20.sol\":2764:2795  balanceOf[msg.sender] -= amount */\n      dup3\n      dup3\n      sload\n      tag_216\n      swap2\n      swap1\n      tag_183\n      jump\t// in\n    tag_216:\n      swap3\n      pop\n      pop\n      dup2\n      swap1\n      sstore\n      pop\n        /* \"solmate/src/tokens/ERC20.sol\":2958:2964  amount */\n      dup2\n        /* \"solmate/src/tokens/ERC20.sol\":2941:2950  balanceOf */\n      0x03\n        /* \"solmate/src/tokens/ERC20.sol\":2941:2954  balanceOf[to] */\n      0x00\n        /* \"solmate/src/tokens/ERC20.sol\":2951:2953  to */\n      dup6\n        /* \"solmate/src/tokens/ERC20.sol\":2941:2954  balanceOf[to] */\n      0xffffffffffffffffffffffffffffffffffffffff\n      and\n      0xffffffffffffffffffffffffffffffffffffffff\n      and\n      dup2\n      mstore\n      0x20\n      add\n      swap1\n      dup2\n      mstore\n      0x20\n      add\n      0x00\n      keccak256\n      0x00\n        /* \"solmate/src/tokens/ERC20.sol\":2941:2964  balanceOf[to] += amount */\n      dup3\n      dup3\n      sload\n      add\n      swap3\n      pop\n      pop\n      dup2\n      swap1\n      sstore\n      pop\n        /* \"solmate/src/tokens/ERC20.sol\":3011:3013  to */\n      dup3\n        /* \"solmate/src/tokens/ERC20.sol\":2990:3022  Transfer(msg.sender, to, amount) */\n      0xffffffffffffffffffffffffffffffffffffffff\n      and\n        /* \"solmate/src/tokens/ERC20.sol\":2999:3009  msg.sender */\n      caller\n        /* \"solmate/src/tokens/ERC20.sol\":2990:3022  Transfer(msg.sender, to, amount) */\n      0xffffffffffffffffffffffffffffffffffffffff\n      and\n      0xddf252ad1be2c89b69c2b068fc378daa952ba7f163c4a11628f55a4df523b3ef\n        /* \"solmate/src/tokens/ERC20.sol\":3015:3021  amount */\n      dup5\n        /* \"solmate/src/tokens/ERC20.sol\":2990:3022  Transfer(msg.sender, to, amount) */\n      mload(0x40)\n      tag_217\n      swap2\n      swap1\n      tag_42\n      jump\t// in\n    tag_217:\n      mload(0x40)\n      dup1\n      swap2\n      sub\n      swap1\n      log3\n        /* \"solmate/src/tokens/ERC20.sol\":3040:3044  true */\n      0x01\n        /* \"solmate/src/tokens/ERC20.sol\":3033:3044  return true */\n      swap1\n      pop\n        /* \"solmate/src/tokens/ERC20.sol\":2678:3051  function transfer(address to, uint256 amount) public virtual returns (bool) {... */\n      swap3\n      swap2\n      pop\n      pop\n      jump\t// out\n        /* \"src/Derivatives/EquityToken.sol\":3819:4031  function previewMint(uint256 shares) public view override returns (uint256 assets) {... */\n    tag_117:\n        /* \"src/Derivatives/EquityToken.sol\":3886:3900  uint256 assets */\n      0x00\n        /* \"src/Derivatives/EquityToken.sol\":3932:3933  0 */\n      dup1\n        /* \"src/Derivatives/EquityToken.sol\":3917:3928  totalSupply */\n      sload(0x02)\n        /* \"src/Derivatives/EquityToken.sol\":3917:3933  totalSupply == 0 */\n      sub\n        /* \"src/Derivatives/EquityToken.sol\":3913:3948  if (totalSupply == 0) return shares */\n      tag_219\n      jumpi\n        /* \"src/Derivatives/EquityToken.sol\":3942:3948  shares */\n      dup2\n        /* \"src/Derivatives/EquityToken.sol\":3935:3948  return shares */\n      swap1\n      pop\n      jump(tag_218)\n        /* \"src/Derivatives/EquityToken.sol\":3913:3948  if (totalSupply == 0) return shares */\n    tag_219:\n        /* \"src/Derivatives/EquityToken.sol\":3968:4023  roundUpDiv(shares * balanceOf[msg.sender], totalSupply) */\n      tag_220\n        /* \"src/Derivatives/EquityToken.sol\":3988:3997  balanceOf */\n      0x03\n        /* \"src/Derivatives/EquityToken.sol\":3988:4009  balanceOf[msg.sender] */\n      0x00\n        /* \"src/Derivatives/EquityToken.sol\":3998:4008  msg.sender */\n      caller\n        /* \"src/Derivatives/EquityToken.sol\":3988:4009  balanceOf[msg.sender] */\n      0xffffffffffffffffffffffffffffffffffffffff\n      and\n      0xffffffffffffffffffffffffffffffffffffffff\n      and\n      dup2\n      mstore\n      0x20\n      add\n      swap1\n      dup2\n      mstore\n      0x20\n      add\n      0x00\n      keccak256\n      sload\n        /* \"src/Derivatives/EquityToken.sol\":3979:3985  shares */\n      dup4\n        /* \"src/Derivatives/EquityToken.sol\":3979:4009  shares * balanceOf[msg.sender] */\n      tag_221\n      swap2\n      swap1\n      tag_170\n      jump\t// in\n    tag_221:\n        /* \"src/Derivatives/EquityToken.sol\":4011:4022  totalSupply */\n      sload(0x02)\n        /* \"src/Derivatives/EquityToken.sol\":3968:3978  roundUpDiv */\n      tag_179\n        /* \"src/Derivatives/EquityToken.sol\":3968:4023  roundUpDiv(shares * balanceOf[msg.sender], totalSupply) */\n      jump\t// in\n    tag_220:\n        /* \"src/Derivatives/EquityToken.sol\":3959:4023  assets = roundUpDiv(shares * balanceOf[msg.sender], totalSupply) */\n      swap1\n      pop\n        /* \"src/Derivatives/EquityToken.sol\":3819:4031  function previewMint(uint256 shares) public view override returns (uint256 assets) {... */\n    tag_218:\n      swap2\n      swap1\n      pop\n      jump\t// out\n        /* \"src/Derivatives/EquityToken.sol\":4671:5010  function withdraw(... */\n    tag_122:\n        /* \"src/Derivatives/EquityToken.sol\":4797:4811  uint256 shares */\n      0x00\n        /* \"src/Derivatives/EquityToken.sol\":4833:4856  previewWithdraw(assets) */\n      tag_223\n        /* \"src/Derivatives/EquityToken.sol\":4849:4855  assets */\n      dup5\n        /* \"src/Derivatives/EquityToken.sol\":4833:4848  previewWithdraw */\n      tag_60\n        /* \"src/Derivatives/EquityToken.sol\":4833:4856  previewWithdraw(assets) */\n      jump\t// in\n    tag_223:\n        /* \"src/Derivatives/EquityToken.sol\":4824:4856  shares = previewWithdraw(assets) */\n      swap1\n      pop\n        /* \"src/Derivatives/EquityToken.sol\":4671:5010  function withdraw(... */\n      swap4\n      swap3\n      pop\n      pop\n      pop\n      jump\t// out\n        /* \"src/Derivatives/EquityToken.sol\":5384:5590  function redeem(... */\n    tag_126:\n        /* \"src/Derivatives/EquityToken.sol\":5508:5522  uint256 assets */\n      0x00\n        /* \"src/Derivatives/EquityToken.sol\":5384:5590  function redeem(... */\n      swap4\n      swap3\n      pop\n      pop\n      pop\n      jump\t// out\n        /* \"src/Derivatives/EquityToken.sol\":3673:3811  function maxMint(address user) public view override returns (uint256 maxShares) {... */\n    tag_130:\n        /* \"src/Derivatives/EquityToken.sol\":3734:3751  uint256 maxShares */\n      0x00\n        /* \"src/Derivatives/EquityToken.sol\":3771:3803  convertToShares(balanceOf[user]) */\n      tag_228\n        /* \"src/Derivatives/EquityToken.sol\":3787:3796  balanceOf */\n      0x03\n        /* \"src/Derivatives/EquityToken.sol\":3787:3802  balanceOf[user] */\n      0x00\n        /* \"src/Derivatives/EquityToken.sol\":3797:3801  user */\n      dup5\n        /* \"src/Derivatives/EquityToken.sol\":3787:3802  balanceOf[user] */\n      0xffffffffffffffffffffffffffffffffffffffff\n      and\n      0xffffffffffffffffffffffffffffffffffffffff\n      and\n      dup2\n      mstore\n      0x20\n      add\n      swap1\n      dup2\n      mstore\n      0x20\n      add\n      0x00\n      keccak256\n      sload\n        /* \"src/Derivatives/EquityToken.sol\":3771:3786  convertToShares */\n      tag_134\n        /* \"src/Derivatives/EquityToken.sol\":3771:3803  convertToShares(balanceOf[user]) */\n      jump\t// in\n    tag_228:\n        /* \"src/Derivatives/EquityToken.sol\":3764:3803  return convertToShares(balanceOf[user]) */\n      swap1\n      pop\n        /* \"src/Derivatives/EquityToken.sol\":3673:3811  function maxMint(address user) public view override returns (uint256 maxShares) {... */\n      swap2\n      swap1\n      pop\n      jump\t// out\n        /* \"src/Derivatives/EquityToken.sol\":2071:2266  function convertToShares(uint256 assets) public view override returns (uint256 shares) {... */\n    tag_134:\n        /* \"src/Derivatives/EquityToken.sol\":2142:2156  uint256 shares */\n      0x00\n        /* \"src/Derivatives/EquityToken.sol\":2188:2189  0 */\n      dup1\n        /* \"src/Derivatives/EquityToken.sol\":2173:2184  totalSupply */\n      sload(0x02)\n        /* \"src/Derivatives/EquityToken.sol\":2173:2189  totalSupply == 0 */\n      sub\n        /* \"src/Derivatives/EquityToken.sol\":2169:2204  if (totalSupply == 0) return assets */\n      tag_230\n      jumpi\n        /* \"src/Derivatives/EquityToken.sol\":2198:2204  assets */\n      dup2\n        /* \"src/Derivatives/EquityToken.sol\":2191:2204  return assets */\n      swap1\n      pop\n      jump(tag_229)\n        /* \"src/Derivatives/EquityToken.sol\":2169:2204  if (totalSupply == 0) return assets */\n    tag_230:\n        /* \"src/Derivatives/EquityToken.sol\":2247:2258  totalSupply */\n      sload(0x02)\n        /* \"src/Derivatives/EquityToken.sol\":2232:2243  totalSupply */\n      sload(0x02)\n        /* \"src/Derivatives/EquityToken.sol\":2223:2229  assets */\n      dup4\n        /* \"src/Derivatives/EquityToken.sol\":2223:2243  assets * totalSupply */\n      tag_231\n      swap2\n      swap1\n      tag_170\n      jump\t// in\n    tag_231:\n        /* \"src/Derivatives/EquityToken.sol\":2222:2258  (assets * totalSupply) / totalSupply */\n      tag_232\n      swap2\n      swap1\n      tag_172\n      jump\t// in\n    tag_232:\n        /* \"src/Derivatives/EquityToken.sol\":2215:2258  return (assets * totalSupply) / totalSupply */\n      swap1\n      pop\n        /* \"src/Derivatives/EquityToken.sol\":2071:2266  function convertToShares(uint256 assets) public view override returns (uint256 shares) {... */\n    tag_229:\n      swap2\n      swap1\n      pop\n      jump\t// out\n        /* \"src/Derivatives/EquityToken.sol\":4300:4444  function maxWithdraw(address owner) public view override returns (uint256 maxAssets) {... */\n    tag_138:\n        /* \"src/Derivatives/EquityToken.sol\":4366:4383  uint256 maxAssets */\n      0x00\n        /* \"src/Derivatives/EquityToken.sol\":4403:4436  convertToAssets(balanceOf[owner]) */\n      tag_234\n        /* \"src/Derivatives/EquityToken.sol\":4419:4428  balanceOf */\n      0x03\n        /* \"src/Derivatives/EquityToken.sol\":4419:4435  balanceOf[owner] */\n      0x00\n        /* \"src/Derivatives/EquityToken.sol\":4429:4434  owner */\n      dup5\n        /* \"src/Derivatives/EquityToken.sol\":4419:4435  balanceOf[owner] */\n      0xffffffffffffffffffffffffffffffffffffffff\n      and\n      0xffffffffffffffffffffffffffffffffffffffff\n      and\n      dup2\n      mstore\n      0x20\n      add\n      swap1\n      dup2\n      mstore\n      0x20\n      add\n      0x00\n      keccak256\n      sload\n        /* \"src/Derivatives/EquityToken.sol\":4403:4418  convertToAssets */\n      tag_50\n        /* \"src/Derivatives/EquityToken.sol\":4403:4436  convertToAssets(balanceOf[owner]) */\n      jump\t// in\n    tag_234:\n        /* \"src/Derivatives/EquityToken.sol\":4396:4436  return convertToAssets(balanceOf[owner]) */\n      swap1\n      pop\n        /* \"src/Derivatives/EquityToken.sol\":4300:4444  function maxWithdraw(address owner) public view override returns (uint256 maxAssets) {... */\n      swap2\n      swap1\n      pop\n      jump\t// out\n        /* \"solmate/src/tokens/ERC20.sol\":3838:5321  function permit(... */\n    tag_143:\n        /* \"solmate/src/tokens/ERC20.sol\":4057:4072  block.timestamp */\n      timestamp\n        /* \"solmate/src/tokens/ERC20.sol\":4045:4053  deadline */\n      dup5\n        /* \"solmate/src/tokens/ERC20.sol\":4045:4072  deadline >= block.timestamp */\n      lt\n      iszero\n        /* \"solmate/src/tokens/ERC20.sol\":4037:4100  require(deadline >= block.timestamp, \"PERMIT_DEADLINE_EXPIRED\") */\n      tag_236\n      jumpi\n      mload(0x40)\n      0x08c379a000000000000000000000000000000000000000000000000000000000\n      dup2\n      mstore\n      0x04\n      add\n      tag_237\n      swap1\n      tag_238\n      jump\t// in\n    tag_237:\n      mload(0x40)\n      dup1\n      swap2\n      sub\n      swap1\n      revert\n    tag_236:\n        /* \"solmate/src/tokens/ERC20.sol\":4265:4289  address recoveredAddress */\n      0x00\n        /* \"solmate/src/tokens/ERC20.sol\":4292:5097  ecrecover(... */\n      0x01\n        /* \"solmate/src/tokens/ERC20.sol\":4428:4446  DOMAIN_SEPARATOR() */\n      tag_239\n        /* \"solmate/src/tokens/ERC20.sol\":4428:4444  DOMAIN_SEPARATOR */\n      tag_75\n        /* \"solmate/src/tokens/ERC20.sol\":4428:4446  DOMAIN_SEPARATOR() */\n      jump\t// in\n    tag_239:\n        /* \"solmate/src/tokens/ERC20.sol\":4555:4720  keccak256(... */\n      0x6e71edae12b1b97f4d1f60370fef10105fa2faae0126114a169c64845d6126c9\n        /* \"solmate/src/tokens/ERC20.sol\":4754:4759  owner */\n      dup11\n        /* \"solmate/src/tokens/ERC20.sol\":4793:4800  spender */\n      dup11\n        /* \"solmate/src/tokens/ERC20.sol\":4834:4839  value */\n      dup11\n        /* \"solmate/src/tokens/ERC20.sol\":4873:4879  nonces */\n      0x05\n        /* \"solmate/src/tokens/ERC20.sol\":4873:4886  nonces[owner] */\n      0x00\n        /* \"solmate/src/tokens/ERC20.sol\":4880:4885  owner */\n      dup16\n        /* \"solmate/src/tokens/ERC20.sol\":4873:4886  nonces[owner] */\n      0xffffffffffffffffffffffffffffffffffffffff\n      and\n      0xffffffffffffffffffffffffffffffffffffffff\n      and\n      dup2\n      mstore\n      0x20\n      add\n      swap1\n      dup2\n      mstore\n      0x20\n      add\n      0x00\n      keccak256\n      0x00\n        /* \"solmate/src/tokens/ERC20.sol\":4873:4888  nonces[owner]++ */\n      dup2\n      sload\n      dup1\n      swap3\n      swap2\n      swap1\n      0x01\n      add\n      swap2\n      swap1\n      pop\n      sstore\n        /* \"solmate/src/tokens/ERC20.sol\":4922:4930  deadline */\n      dup12\n        /* \"solmate/src/tokens/ERC20.sol\":4511:4960  abi.encode(... */\n      add(0x20, mload(0x40))\n      tag_240\n      swap7\n      swap6\n      swap5\n      swap4\n      swap3\n      swap2\n      swap1\n      tag_241\n      jump\t// in\n    tag_240:\n      mload(0x40)\n      0x20\n      dup2\n      dup4\n      sub\n      sub\n      dup2\n      mstore\n      swap1\n      0x40\n      mstore\n        /* \"solmate/src/tokens/ERC20.sol\":4472:4986  keccak256(... */\n      dup1\n      mload\n      swap1\n      0x20\n      add\n      keccak256\n        /* \"solmate/src/tokens/ERC20.sol\":4350:5008  abi.encodePacked(... */\n      add(0x20, mload(0x40))\n      tag_242\n      swap3\n      swap2\n      swap1\n      tag_243\n      jump\t// in\n    tag_242:\n      mload(0x40)\n      0x20\n      dup2\n      dup4\n      sub\n      sub\n      dup2\n      mstore\n      swap1\n      0x40\n      mstore\n        /* \"solmate/src/tokens/ERC20.sol\":4319:5026  keccak256(... */\n      dup1\n      mload\n      swap1\n      0x20\n      add\n      keccak256\n        /* \"solmate/src/tokens/ERC20.sol\":5044:5045  v */\n      dup6\n        /* \"solmate/src/tokens/ERC20.sol\":5063:5064  r */\n      dup6\n        /* \"solmate/src/tokens/ERC20.sol\":5082:5083  s */\n      dup6\n        /* \"solmate/src/tokens/ERC20.sol\":4292:5097  ecrecover(... */\n      mload(0x40)\n      0x00\n      dup2\n      mstore\n      0x20\n      add\n      0x40\n      mstore\n      mload(0x40)\n      tag_244\n      swap5\n      swap4\n      swap3\n      swap2\n      swap1\n      tag_245\n      jump\t// in\n    tag_244:\n      0x20\n      mload(0x40)\n      0x20\n      dup2\n      sub\n      swap1\n      dup1\n      dup5\n      sub\n      swap1\n      dup6\n      gas\n      staticcall\n      iszero\n      dup1\n      iszero\n      tag_247\n      jumpi\n      returndatasize\n      0x00\n      dup1\n      returndatacopy\n      revert(0x00, returndatasize)\n    tag_247:\n      pop\n      pop\n      pop\n      mload(sub(mload(0x40), 0x20))\n        /* \"solmate/src/tokens/ERC20.sol\":4265:5097  address recoveredAddress = ecrecover(... */\n      swap1\n      pop\n        /* \"solmate/src/tokens/ERC20.sol\":5148:5149  0 */\n      0x00\n        /* \"solmate/src/tokens/ERC20.sol\":5120:5150  recoveredAddress != address(0) */\n      0xffffffffffffffffffffffffffffffffffffffff\n      and\n        /* \"solmate/src/tokens/ERC20.sol\":5120:5136  recoveredAddress */\n      dup2\n        /* \"solmate/src/tokens/ERC20.sol\":5120:5150  recoveredAddress != address(0) */\n      0xffffffffffffffffffffffffffffffffffffffff\n      and\n      eq\n      iszero\n        /* \"solmate/src/tokens/ERC20.sol\":5120:5179  recoveredAddress != address(0) && recoveredAddress == owner */\n      dup1\n      iszero\n      tag_248\n      jumpi\n      pop\n        /* \"solmate/src/tokens/ERC20.sol\":5174:5179  owner */\n      dup8\n        /* \"solmate/src/tokens/ERC20.sol\":5154:5179  recoveredAddress == owner */\n      0xffffffffffffffffffffffffffffffffffffffff\n      and\n        /* \"solmate/src/tokens/ERC20.sol\":5154:5170  recoveredAddress */\n      dup2\n        /* \"solmate/src/tokens/ERC20.sol\":5154:5179  recoveredAddress == owner */\n      0xffffffffffffffffffffffffffffffffffffffff\n      and\n      eq\n        /* \"solmate/src/tokens/ERC20.sol\":5120:5179  recoveredAddress != address(0) && recoveredAddress == owner */\n    tag_248:\n        /* \"solmate/src/tokens/ERC20.sol\":5112:5198  require(recoveredAddress != address(0) && recoveredAddress == owner, \"INVALID_SIGNER\") */\n      tag_249\n      jumpi\n      mload(0x40)\n      0x08c379a000000000000000000000000000000000000000000000000000000000\n      dup2\n      mstore\n      0x04\n      add\n      tag_250\n      swap1\n      tag_251\n      jump\t// in\n    tag_250:\n      mload(0x40)\n      dup1\n      swap2\n      sub\n      swap1\n      revert\n    tag_249:\n        /* \"solmate/src/tokens/ERC20.sol\":5252:5257  value */\n      dup6\n        /* \"solmate/src/tokens/ERC20.sol\":5213:5222  allowance */\n      0x04\n        /* \"solmate/src/tokens/ERC20.sol\":5213:5240  allowance[recoveredAddress] */\n      0x00\n        /* \"solmate/src/tokens/ERC20.sol\":5223:5239  recoveredAddress */\n      dup4\n        /* \"solmate/src/tokens/ERC20.sol\":5213:5240  allowance[recoveredAddress] */\n      0xffffffffffffffffffffffffffffffffffffffff\n      and\n      0xffffffffffffffffffffffffffffffffffffffff\n      and\n      dup2\n      mstore\n      0x20\n      add\n      swap1\n      dup2\n      mstore\n      0x20\n      add\n      0x00\n      keccak256\n        /* \"solmate/src/tokens/ERC20.sol\":5213:5249  allowance[recoveredAddress][spender] */\n      0x00\n        /* \"solmate/src/tokens/ERC20.sol\":5241:5248  spender */\n      dup10\n        /* \"solmate/src/tokens/ERC20.sol\":5213:5249  allowance[recoveredAddress][spender] */\n      0xffffffffffffffffffffffffffffffffffffffff\n      and\n      0xffffffffffffffffffffffffffffffffffffffff\n      and\n      dup2\n      mstore\n      0x20\n      add\n      swap1\n      dup2\n      mstore\n      0x20\n      add\n      0x00\n      keccak256\n        /* \"solmate/src/tokens/ERC20.sol\":5213:5257  allowance[recoveredAddress][spender] = value */\n      dup2\n      swap1\n      sstore\n      pop\n        /* \"solmate/src/tokens/ERC20.sol\":4241:5268  unchecked {... */\n      pop\n        /* \"solmate/src/tokens/ERC20.sol\":5299:5306  spender */\n      dup6\n        /* \"solmate/src/tokens/ERC20.sol\":5283:5314  Approval(owner, spender, value) */\n      0xffffffffffffffffffffffffffffffffffffffff\n      and\n        /* \"solmate/src/tokens/ERC20.sol\":5292:5297  owner */\n      dup8\n        /* \"solmate/src/tokens/ERC20.sol\":5283:5314  Approval(owner, spender, value) */\n      0xffffffffffffffffffffffffffffffffffffffff\n      and\n      0x8c5be1e5ebec7d5bd14f71427d1e84f3dd0314c0f7b2291e5b200ac8c7c3b925\n        /* \"solmate/src/tokens/ERC20.sol\":5308:5313  value */\n      dup8\n        /* \"solmate/src/tokens/ERC20.sol\":5283:5314  Approval(owner, spender, value) */\n      mload(0x40)\n      tag_252\n      swap2\n      swap1\n      tag_42\n      jump\t// in\n    tag_252:\n      mload(0x40)\n      dup1\n      swap2\n      sub\n      swap1\n      log3\n        /* \"solmate/src/tokens/ERC20.sol\":3838:5321  function permit(... */\n      pop\n      pop\n      pop\n      pop\n      pop\n      pop\n      pop\n      jump\t// out\n        /* \"src/Derivatives/EquityToken.sol\":5018:5143  function maxRedeem(address owner) public view override returns (uint256 maxShares) {... */\n    tag_146:\n        /* \"src/Derivatives/EquityToken.sol\":5082:5099  uint256 maxShares */\n      0x00\n        /* \"src/Derivatives/EquityToken.sol\":5119:5128  balanceOf */\n      0x03\n        /* \"src/Derivatives/EquityToken.sol\":5119:5135  balanceOf[owner] */\n      0x00\n        /* \"src/Derivatives/EquityToken.sol\":5129:5134  owner */\n      dup4\n        /* \"src/Derivatives/EquityToken.sol\":5119:5135  balanceOf[owner] */\n      0xffffffffffffffffffffffffffffffffffffffff\n      and\n      0xffffffffffffffffffffffffffffffffffffffff\n      and\n      dup2\n      mstore\n      0x20\n      add\n      swap1\n      dup2\n      mstore\n      0x20\n      add\n      0x00\n      keccak256\n      sload\n        /* \"src/Derivatives/EquityToken.sol\":5112:5135  return balanceOf[owner] */\n      swap1\n      pop\n        /* \"src/Derivatives/EquityToken.sol\":5018:5143  function maxRedeem(address owner) public view override returns (uint256 maxShares) {... */\n      swap2\n      swap1\n      pop\n      jump\t// out\n        /* \"solmate/src/tokens/ERC20.sol\":1388:1452  mapping(address => mapping(address => uint256)) public allowance */\n    tag_151:\n      mstore(0x20, 0x04)\n      dup2\n      0x00\n      mstore\n      mstore(0x20, keccak256(0x00, 0x40))\n      dup1\n      0x00\n      mstore\n      keccak256(0x00, 0x40)\n      0x00\n      swap2\n      pop\n      swap2\n      pop\n      pop\n      sload\n      dup2\n      jump\t// out\n        /* \"src/Derivatives/EquityToken.sol\":3390:3525  function previewDeposit(uint256 assets) public view override returns (uint256 shares) {... */\n    tag_155:\n        /* \"src/Derivatives/EquityToken.sol\":3460:3474  uint256 shares */\n      0x00\n        /* \"src/Derivatives/EquityToken.sol\":3494:3517  convertToShares(assets) */\n      tag_255\n        /* \"src/Derivatives/EquityToken.sol\":3510:3516  assets */\n      dup3\n        /* \"src/Derivatives/EquityToken.sol\":3494:3509  convertToShares */\n      tag_134\n        /* \"src/Derivatives/EquityToken.sol\":3494:3517  convertToShares(assets) */\n      jump\t// in\n    tag_255:\n        /* \"src/Derivatives/EquityToken.sol\":3487:3517  return convertToShares(assets) */\n      swap1\n      pop\n        /* \"src/Derivatives/EquityToken.sol\":3390:3525  function previewDeposit(uint256 assets) public view override returns (uint256 shares) {... */\n      swap2\n      swap1\n      pop\n      jump\t// out\n        /* \"src/Derivatives/EquityToken.sol\":394:412  ERC20 public token */\n    tag_158:\n      0x06\n      0x00\n      swap1\n      sload\n      swap1\n      0x0100\n      exp\n      swap1\n      div\n      0xffffffffffffffffffffffffffffffffffffffff\n      and\n      dup2\n      jump\t// out\n        /* \"src/Derivatives/EquityToken.sol\":5600:5804  function roundUpDiv(uint256 x, uint256 y) internal pure returns (uint256) {... */\n    tag_179:\n        /* \"src/Derivatives/EquityToken.sol\":5665:5672  uint256 */\n      0x00\n        /* \"src/Derivatives/EquityToken.sol\":5698:5699  0 */\n      dup1\n        /* \"src/Derivatives/EquityToken.sol\":5693:5694  y */\n      dup3\n        /* \"src/Derivatives/EquityToken.sol\":5693:5699  y != 0 */\n      sub\n        /* \"src/Derivatives/EquityToken.sol\":5685:5717  require(y != 0, \"Division by 0\") */\n      tag_257\n      jumpi\n      mload(0x40)\n      0x08c379a000000000000000000000000000000000000000000000000000000000\n      dup2\n      mstore\n      0x04\n      add\n      tag_258\n      swap1\n      tag_259\n      jump\t// in\n    tag_258:\n      mload(0x40)\n      dup1\n      swap2\n      sub\n      swap1\n      revert\n    tag_257:\n        /* \"src/Derivatives/EquityToken.sol\":5730:5739  uint256 q */\n      0x00\n        /* \"src/Derivatives/EquityToken.sol\":5746:5747  y */\n      dup3\n        /* \"src/Derivatives/EquityToken.sol\":5742:5743  x */\n      dup5\n        /* \"src/Derivatives/EquityToken.sol\":5742:5747  x / y */\n      tag_260\n      swap2\n      swap1\n      tag_172\n      jump\t// in\n    tag_260:\n        /* \"src/Derivatives/EquityToken.sol\":5730:5747  uint256 q = x / y */\n      swap1\n      pop\n        /* \"src/Derivatives/EquityToken.sol\":5771:5772  0 */\n      0x00\n        /* \"src/Derivatives/EquityToken.sol\":5766:5767  y */\n      dup4\n        /* \"src/Derivatives/EquityToken.sol\":5762:5763  x */\n      dup6\n        /* \"src/Derivatives/EquityToken.sol\":5762:5767  x % y */\n      tag_261\n      swap2\n      swap1\n      tag_262\n      jump\t// in\n    tag_261:\n        /* \"src/Derivatives/EquityToken.sol\":5762:5772  x % y != 0 */\n      eq\n        /* \"src/Derivatives/EquityToken.sol\":5758:5777  if (x % y != 0) q++ */\n      tag_263\n      jumpi\n        /* \"src/Derivatives/EquityToken.sol\":5774:5777  q++ */\n      dup1\n      dup1\n      tag_264\n      swap1\n      tag_265\n      jump\t// in\n    tag_264:\n      swap2\n      pop\n      pop\n        /* \"src/Derivatives/EquityToken.sol\":5758:5777  if (x % y != 0) q++ */\n    tag_263:\n        /* \"src/Derivatives/EquityToken.sol\":5795:5796  q */\n      dup1\n        /* \"src/Derivatives/EquityToken.sol\":5788:5796  return q */\n      swap2\n      pop\n      pop\n        /* \"src/Derivatives/EquityToken.sol\":5600:5804  function roundUpDiv(uint256 x, uint256 y) internal pure returns (uint256) {... */\n      swap3\n      swap2\n      pop\n      pop\n      jump\t// out\n        /* \"solmate/src/tokens/ERC20.sol\":5510:5956  function computeDomainSeparator() internal view virtual returns (bytes32) {... */\n    tag_189:\n        /* \"solmate/src/tokens/ERC20.sol\":5575:5582  bytes32 */\n      0x00\n        /* \"solmate/src/tokens/ERC20.sol\":5672:5767  keccak256(\"EIP712Domain(string name,string version,uint256 chainId,address verifyingContract)\") */\n      0x8b73c3c69bb8fe3d512ecc4cf759cc79239f7b179b0ffacaa9a75d522b39400f\n        /* \"solmate/src/tokens/ERC20.sol\":5805:5809  name */\n      0x00\n        /* \"solmate/src/tokens/ERC20.sol\":5789:5811  keccak256(bytes(name)) */\n      mload(0x40)\n      tag_267\n      swap2\n      swap1\n      tag_268\n      jump\t// in\n    tag_267:\n      mload(0x40)\n      dup1\n      swap2\n      sub\n      swap1\n      keccak256\n        /* \"solmate/src/tokens/ERC20.sol\":5833:5847  keccak256(\"1\") */\n      0xc89efdaa54c0f20c7adf612882df0950f5a951637e0307cdcb4c672f298b8bc6\n        /* \"solmate/src/tokens/ERC20.sol\":5869:5882  block.chainid */\n      chainid\n        /* \"solmate/src/tokens/ERC20.sol\":5912:5916  this */\n      address\n        /* \"solmate/src/tokens/ERC20.sol\":5640:5935  abi.encode(... */\n      add(0x20, mload(0x40))\n      tag_269\n      swap6\n      swap5\n      swap4\n      swap3\n      swap2\n      swap1\n      tag_270\n      jump\t// in\n    tag_269:\n      mload(0x40)\n      0x20\n      dup2\n      dup4\n      sub\n      sub\n      dup2\n      mstore\n      swap1\n      0x40\n      mstore\n        /* \"solmate/src/tokens/ERC20.sol\":5613:5949  keccak256(... */\n      dup1\n      mload\n      swap1\n      0x20\n      add\n      keccak256\n        /* \"solmate/src/tokens/ERC20.sol\":5594:5949  return... */\n      swap1\n      pop\n        /* \"solmate/src/tokens/ERC20.sol\":5510:5956  function computeDomainSeparator() internal view virtual returns (bytes32) {... */\n      swap1\n      jump\t// out\n        /* \"solmate/src/utils/SafeTransferLib.sol\":1328:2944  function safeTransferFrom(... */\n    tag_200:\n        /* \"solmate/src/utils/SafeTransferLib.sol\":1466:1478  bool success */\n      0x00\n        /* \"solmate/src/utils/SafeTransferLib.sol\":1636:1640  0x40 */\n      0x40\n        /* \"solmate/src/utils/SafeTransferLib.sol\":1630:1641  mload(0x40) */\n      mload\n        /* \"solmate/src/utils/SafeTransferLib.sol\":1778:1844  0x23b872dd00000000000000000000000000000000000000000000000000000000 */\n      0x23b872dd00000000000000000000000000000000000000000000000000000000\n        /* \"solmate/src/utils/SafeTransferLib.sol\":1759:1776  freeMemoryPointer */\n      dup2\n        /* \"solmate/src/utils/SafeTransferLib.sol\":1752:1845  mstore(freeMemoryPointer, 0x23b872dd00000000000000000000000000000000000000000000000000000000) */\n      mstore\n        /* \"solmate/src/utils/SafeTransferLib.sol\":1892:1896  from */\n      dup5\n        /* \"solmate/src/utils/SafeTransferLib.sol\":1888:1889  4 */\n      0x04\n        /* \"solmate/src/utils/SafeTransferLib.sol\":1869:1886  freeMemoryPointer */\n      dup3\n        /* \"solmate/src/utils/SafeTransferLib.sol\":1865:1890  add(freeMemoryPointer, 4) */\n      add\n        /* \"solmate/src/utils/SafeTransferLib.sol\":1858:1897  mstore(add(freeMemoryPointer, 4), from) */\n      mstore\n        /* \"solmate/src/utils/SafeTransferLib.sol\":1976:1978  to */\n      dup4\n        /* \"solmate/src/utils/SafeTransferLib.sol\":1971:1973  36 */\n      0x24\n        /* \"solmate/src/utils/SafeTransferLib.sol\":1952:1969  freeMemoryPointer */\n      dup3\n        /* \"solmate/src/utils/SafeTransferLib.sol\":1948:1974  add(freeMemoryPointer, 36) */\n      add\n        /* \"solmate/src/utils/SafeTransferLib.sol\":1941:1979  mstore(add(freeMemoryPointer, 36), to) */\n      mstore\n        /* \"solmate/src/utils/SafeTransferLib.sol\":2056:2062  amount */\n      dup3\n        /* \"solmate/src/utils/SafeTransferLib.sol\":2051:2053  68 */\n      0x44\n        /* \"solmate/src/utils/SafeTransferLib.sol\":2032:2049  freeMemoryPointer */\n      dup3\n        /* \"solmate/src/utils/SafeTransferLib.sol\":2028:2054  add(freeMemoryPointer, 68) */\n      add\n        /* \"solmate/src/utils/SafeTransferLib.sol\":2021:2063  mstore(add(freeMemoryPointer, 68), amount) */\n      mstore\n        /* \"solmate/src/utils/SafeTransferLib.sol\":2860:2862  32 */\n      0x20\n        /* \"solmate/src/utils/SafeTransferLib.sol\":2857:2858  0 */\n      0x00\n        /* \"solmate/src/utils/SafeTransferLib.sol\":2852:2855  100 */\n      0x64\n        /* \"solmate/src/utils/SafeTransferLib.sol\":2833:2850  freeMemoryPointer */\n      dup4\n        /* \"solmate/src/utils/SafeTransferLib.sol\":2830:2831  0 */\n      0x00\n        /* \"solmate/src/utils/SafeTransferLib.sol\":2823:2828  token */\n      dup11\n        /* \"solmate/src/utils/SafeTransferLib.sol\":2816:2821  gas() */\n      gas\n        /* \"solmate/src/utils/SafeTransferLib.sol\":2811:2863  call(gas(), token, 0, freeMemoryPointer, 100, 0, 32) */\n      call\n        /* \"solmate/src/utils/SafeTransferLib.sol\":2379:2395  returndatasize() */\n      returndatasize\n        /* \"solmate/src/utils/SafeTransferLib.sol\":2372:2396  iszero(returndatasize()) */\n      iszero\n        /* \"solmate/src/utils/SafeTransferLib.sol\":2366:2368  31 */\n      0x1f\n        /* \"solmate/src/utils/SafeTransferLib.sol\":2348:2364  returndatasize() */\n      returndatasize\n        /* \"solmate/src/utils/SafeTransferLib.sol\":2345:2369  gt(returndatasize(), 31) */\n      gt\n        /* \"solmate/src/utils/SafeTransferLib.sol\":2341:2342  1 */\n      0x01\n        /* \"solmate/src/utils/SafeTransferLib.sol\":2337:2338  0 */\n      0x00\n        /* \"solmate/src/utils/SafeTransferLib.sol\":2331:2339  mload(0) */\n      mload\n        /* \"solmate/src/utils/SafeTransferLib.sol\":2328:2343  eq(mload(0), 1) */\n      eq\n        /* \"solmate/src/utils/SafeTransferLib.sol\":2324:2370  and(eq(mload(0), 1), gt(returndatasize(), 31)) */\n      and\n        /* \"solmate/src/utils/SafeTransferLib.sol\":2321:2397  or(and(eq(mload(0), 1), gt(returndatasize(), 31)), iszero(returndatasize())) */\n      or\n        /* \"solmate/src/utils/SafeTransferLib.sol\":2121:2877  and(... */\n      and\n        /* \"solmate/src/utils/SafeTransferLib.sol\":2110:2877  success := and(... */\n      swap2\n      pop\n        /* \"solmate/src/utils/SafeTransferLib.sol\":1541:2887  {... */\n      pop\n        /* \"solmate/src/utils/SafeTransferLib.sol\":2905:2912  success */\n      dup1\n        /* \"solmate/src/utils/SafeTransferLib.sol\":2897:2937  require(success, \"TRANSFER_FROM_FAILED\") */\n      tag_272\n      jumpi\n      mload(0x40)\n      0x08c379a000000000000000000000000000000000000000000000000000000000\n      dup2\n      mstore\n      0x04\n      add\n      tag_273\n      swap1\n      tag_274\n      jump\t// in\n    tag_273:\n      mload(0x40)\n      dup1\n      swap2\n      sub\n      swap1\n      revert\n    tag_272:\n        /* \"solmate/src/utils/SafeTransferLib.sol\":1456:2944  {... */\n      pop\n        /* \"solmate/src/utils/SafeTransferLib.sol\":1328:2944  function safeTransferFrom(... */\n      pop\n      pop\n      pop\n      pop\n      jump\t// out\n        /* \"solmate/src/tokens/ERC20.sol\":6150:6475  function _mint(address to, uint256 amount) internal virtual {... */\n    tag_202:\n        /* \"solmate/src/tokens/ERC20.sol\":6235:6241  amount */\n      dup1\n        /* \"solmate/src/tokens/ERC20.sol\":6220:6231  totalSupply */\n      0x02\n      0x00\n        /* \"solmate/src/tokens/ERC20.sol\":6220:6241  totalSupply += amount */\n      dup3\n      dup3\n      sload\n      tag_276\n      swap2\n      swap1\n      tag_277\n      jump\t// in\n    tag_276:\n      swap3\n      pop\n      pop\n      dup2\n      swap1\n      sstore\n      pop\n        /* \"solmate/src/tokens/ERC20.sol\":6404:6410  amount */\n      dup1\n        /* \"solmate/src/tokens/ERC20.sol\":6387:6396  balanceOf */\n      0x03\n        /* \"solmate/src/tokens/ERC20.sol\":6387:6400  balanceOf[to] */\n      0x00\n        /* \"solmate/src/tokens/ERC20.sol\":6397:6399  to */\n      dup5\n        /* \"solmate/src/tokens/ERC20.sol\":6387:6400  balanceOf[to] */\n      0xffffffffffffffffffffffffffffffffffffffff\n      and\n      0xffffffffffffffffffffffffffffffffffffffff\n      and\n      dup2\n      mstore\n      0x20\n      add\n      swap1\n      dup2\n      mstore\n      0x20\n      add\n      0x00\n      keccak256\n      0x00\n        /* \"solmate/src/tokens/ERC20.sol\":6387:6410  balanceOf[to] += amount */\n      dup3\n      dup3\n      sload\n      add\n      swap3\n      pop\n      pop\n      dup2\n      swap1\n      sstore\n      pop\n        /* \"solmate/src/tokens/ERC20.sol\":6457:6459  to */\n      dup2\n        /* \"solmate/src/tokens/ERC20.sol\":6436:6468  Transfer(address(0), to, amount) */\n      0xffffffffffffffffffffffffffffffffffffffff\n      and\n        /* \"solmate/src/tokens/ERC20.sol\":6453:6454  0 */\n      0x00\n        /* \"solmate/src/tokens/ERC20.sol\":6436:6468  Transfer(address(0), to, amount) */\n      0xffffffffffffffffffffffffffffffffffffffff\n      and\n      0xddf252ad1be2c89b69c2b068fc378daa952ba7f163c4a11628f55a4df523b3ef\n        /* \"solmate/src/tokens/ERC20.sol\":6461:6467  amount */\n      dup4\n        /* \"solmate/src/tokens/ERC20.sol\":6436:6468  Transfer(address(0), to, amount) */\n      mload(0x40)\n      tag_278\n      swap2\n      swap1\n      tag_42\n      jump\t// in\n    tag_278:\n      mload(0x40)\n      dup1\n      swap2\n      sub\n      swap1\n      log3\n        /* \"solmate/src/tokens/ERC20.sol\":6150:6475  function _mint(address to, uint256 amount) internal virtual {... */\n      pop\n      pop\n      jump\t// out\n        /* \"solmate/src/mixins/ERC4626.sol\":6443:6516  function afterDeposit(uint256 assets, uint256 shares) internal virtual {} */\n    tag_206:\n      pop\n      pop\n      jump\t// out\n        /* \"#utility.yul\":7:84   */\n    tag_280:\n        /* \"#utility.yul\":44:51   */\n      0x00\n        /* \"#utility.yul\":73:78   */\n      dup2\n        /* \"#utility.yul\":62:78   */\n      swap1\n      pop\n        /* \"#utility.yul\":7:84   */\n      swap2\n      swap1\n      pop\n      jump\t// out\n        /* \"#utility.yul\":90:208   */\n    tag_281:\n        /* \"#utility.yul\":177:201   */\n      tag_336\n        /* \"#utility.yul\":195:200   */\n      dup2\n        /* \"#utility.yul\":177:201   */\n      tag_280\n      jump\t// in\n    tag_336:\n        /* \"#utility.yul\":172:175   */\n      dup3\n        /* \"#utility.yul\":165:202   */\n      mstore\n        /* \"#utility.yul\":90:208   */\n      pop\n      pop\n      jump\t// out\n        /* \"#utility.yul\":214:436   */\n    tag_42:\n        /* \"#utility.yul\":307:311   */\n      0x00\n        /* \"#utility.yul\":345:347   */\n      0x20\n        /* \"#utility.yul\":334:343   */\n      dup3\n        /* \"#utility.yul\":330:348   */\n      add\n        /* \"#utility.yul\":322:348   */\n      swap1\n      pop\n        /* \"#utility.yul\":358:429   */\n      tag_338\n        /* \"#utility.yul\":426:427   */\n      0x00\n        /* \"#utility.yul\":415:424   */\n      dup4\n        /* \"#utility.yul\":411:428   */\n      add\n        /* \"#utility.yul\":402:408   */\n      dup5\n        /* \"#utility.yul\":358:429   */\n      tag_281\n      jump\t// in\n    tag_338:\n        /* \"#utility.yul\":214:436   */\n      swap3\n      swap2\n      pop\n      pop\n      jump\t// out\n        /* \"#utility.yul\":442:541   */\n    tag_282:\n        /* \"#utility.yul\":494:500   */\n      0x00\n        /* \"#utility.yul\":528:533   */\n      dup2\n        /* \"#utility.yul\":522:534   */\n      mload\n        /* \"#utility.yul\":512:534   */\n      swap1\n      pop\n        /* \"#utility.yul\":442:541   */\n      swap2\n      swap1\n      pop\n      jump\t// out\n        /* \"#utility.yul\":547:716   */\n    tag_283:\n        /* \"#utility.yul\":631:642   */\n      0x00\n        /* \"#utility.yul\":665:671   */\n      dup3\n        /* \"#utility.yul\":660:663   */\n      dup3\n        /* \"#utility.yul\":653:672   */\n      mstore\n        /* \"#utility.yul\":705:709   */\n      0x20\n        /* \"#utility.yul\":700:703   */\n      dup3\n        /* \"#utility.yul\":696:710   */\n      add\n        /* \"#utility.yul\":681:710   */\n      swap1\n      pop\n        /* \"#utility.yul\":547:716   */\n      swap3\n      swap2\n      pop\n      pop\n      jump\t// out\n        /* \"#utility.yul\":722:968   */\n    tag_284:\n        /* \"#utility.yul\":803:804   */\n      0x00\n        /* \"#utility.yul\":813:926   */\n    tag_342:\n        /* \"#utility.yul\":827:833   */\n      dup4\n        /* \"#utility.yul\":824:825   */\n      dup2\n        /* \"#utility.yul\":821:834   */\n      lt\n        /* \"#utility.yul\":813:926   */\n      iszero\n      tag_344\n      jumpi\n        /* \"#utility.yul\":912:913   */\n      dup1\n        /* \"#utility.yul\":907:910   */\n      dup3\n        /* \"#utility.yul\":903:914   */\n      add\n        /* \"#utility.yul\":897:915   */\n      mload\n        /* \"#utility.yul\":893:894   */\n      dup2\n        /* \"#utility.yul\":888:891   */\n      dup5\n        /* \"#utility.yul\":884:895   */\n      add\n        /* \"#utility.yul\":877:916   */\n      mstore\n        /* \"#utility.yul\":849:851   */\n      0x20\n        /* \"#utility.yul\":846:847   */\n      dup2\n        /* \"#utility.yul\":842:852   */\n      add\n        /* \"#utility.yul\":837:852   */\n      swap1\n      pop\n        /* \"#utility.yul\":813:926   */\n      jump(tag_342)\n    tag_344:\n        /* \"#utility.yul\":960:961   */\n      0x00\n        /* \"#utility.yul\":951:957   */\n      dup5\n        /* \"#utility.yul\":946:949   */\n      dup5\n        /* \"#utility.yul\":942:958   */\n      add\n        /* \"#utility.yul\":935:962   */\n      mstore\n        /* \"#utility.yul\":784:968   */\n      pop\n        /* \"#utility.yul\":722:968   */\n      pop\n      pop\n      pop\n      jump\t// out\n        /* \"#utility.yul\":974:1076   */\n    tag_285:\n        /* \"#utility.yul\":1015:1021   */\n      0x00\n        /* \"#utility.yul\":1066:1068   */\n      0x1f\n        /* \"#utility.yul\":1062:1069   */\n      not\n        /* \"#utility.yul\":1057:1059   */\n      0x1f\n        /* \"#utility.yul\":1050:1055   */\n      dup4\n        /* \"#utility.yul\":1046:1060   */\n      add\n        /* \"#utility.yul\":1042:1070   */\n      and\n        /* \"#utility.yul\":1032:1070   */\n      swap1\n      pop\n        /* \"#utility.yul\":974:1076   */\n      swap2\n      swap1\n      pop\n      jump\t// out\n        /* \"#utility.yul\":1082:1459   */\n    tag_286:\n        /* \"#utility.yul\":1170:1173   */\n      0x00\n        /* \"#utility.yul\":1198:1237   */\n      tag_347\n        /* \"#utility.yul\":1231:1236   */\n      dup3\n        /* \"#utility.yul\":1198:1237   */\n      tag_282\n      jump\t// in\n    tag_347:\n        /* \"#utility.yul\":1253:1324   */\n      tag_348\n        /* \"#utility.yul\":1317:1323   */\n      dup2\n        /* \"#utility.yul\":1312:1315   */\n      dup6\n        /* \"#utility.yul\":1253:1324   */\n      tag_283\n      jump\t// in\n    tag_348:\n        /* \"#utility.yul\":1246:1324   */\n      swap4\n      pop\n        /* \"#utility.yul\":1333:1398   */\n      tag_349\n        /* \"#utility.yul\":1391:1397   */\n      dup2\n        /* \"#utility.yul\":1386:1389   */\n      dup6\n        /* \"#utility.yul\":1379:1383   */\n      0x20\n        /* \"#utility.yul\":1372:1377   */\n      dup7\n        /* \"#utility.yul\":1368:1384   */\n      add\n        /* \"#utility.yul\":1333:1398   */\n      tag_284\n      jump\t// in\n    tag_349:\n        /* \"#utility.yul\":1423:1452   */\n      tag_350\n        /* \"#utility.yul\":1445:1451   */\n      dup2\n        /* \"#utility.yul\":1423:1452   */\n      tag_285\n      jump\t// in\n    tag_350:\n        /* \"#utility.yul\":1418:1421   */\n      dup5\n        /* \"#utility.yul\":1414:1453   */\n      add\n        /* \"#utility.yul\":1407:1453   */\n      swap2\n      pop\n        /* \"#utility.yul\":1174:1459   */\n      pop\n        /* \"#utility.yul\":1082:1459   */\n      swap3\n      swap2\n      pop\n      pop\n      jump\t// out\n        /* \"#utility.yul\":1465:1778   */\n    tag_46:\n        /* \"#utility.yul\":1578:1582   */\n      0x00\n        /* \"#utility.yul\":1616:1618   */\n      0x20\n        /* \"#utility.yul\":1605:1614   */\n      dup3\n        /* \"#utility.yul\":1601:1619   */\n      add\n        /* \"#utility.yul\":1593:1619   */\n      swap1\n      pop\n        /* \"#utility.yul\":1665:1674   */\n      dup2\n        /* \"#utility.yul\":1659:1663   */\n      dup2\n        /* \"#utility.yul\":1655:1675   */\n      sub\n        /* \"#utility.yul\":1651:1652   */\n      0x00\n        /* \"#utility.yul\":1640:1649   */\n      dup4\n        /* \"#utility.yul\":1636:1653   */\n      add\n        /* \"#utility.yul\":1629:1676   */\n      mstore\n        /* \"#utility.yul\":1693:1771   */\n      tag_352\n        /* \"#utility.yul\":1766:1770   */\n      dup2\n        /* \"#utility.yul\":1757:1763   */\n      dup5\n        /* \"#utility.yul\":1693:1771   */\n      tag_286\n      jump\t// in\n    tag_352:\n        /* \"#utility.yul\":1685:1771   */\n      swap1\n      pop\n        /* \"#utility.yul\":1465:1778   */\n      swap3\n      swap2\n      pop\n      pop\n      jump\t// out\n        /* \"#utility.yul\":1865:1982   */\n    tag_288:\n        /* \"#utility.yul\":1974:1975   */\n      0x00\n        /* \"#utility.yul\":1971:1972   */\n      dup1\n        /* \"#utility.yul\":1964:1976   */\n      revert\n        /* \"#utility.yul\":2111:2233   */\n    tag_290:\n        /* \"#utility.yul\":2184:2208   */\n      tag_357\n        /* \"#utility.yul\":2202:2207   */\n      dup2\n        /* \"#utility.yul\":2184:2208   */\n      tag_280\n      jump\t// in\n    tag_357:\n        /* \"#utility.yul\":2177:2182   */\n      dup2\n        /* \"#utility.yul\":2174:2209   */\n      eq\n        /* \"#utility.yul\":2164:2227   */\n      tag_358\n      jumpi\n        /* \"#utility.yul\":2223:2224   */\n      0x00\n        /* \"#utility.yul\":2220:2221   */\n      dup1\n        /* \"#utility.yul\":2213:2225   */\n      revert\n        /* \"#utility.yul\":2164:2227   */\n    tag_358:\n        /* \"#utility.yul\":2111:2233   */\n      pop\n      jump\t// out\n        /* \"#utility.yul\":2239:2378   */\n    tag_291:\n        /* \"#utility.yul\":2285:2290   */\n      0x00\n        /* \"#utility.yul\":2323:2329   */\n      dup2\n        /* \"#utility.yul\":2310:2330   */\n      calldataload\n        /* \"#utility.yul\":2301:2330   */\n      swap1\n      pop\n        /* \"#utility.yul\":2339:2372   */\n      tag_360\n        /* \"#utility.yul\":2366:2371   */\n      dup2\n        /* \"#utility.yul\":2339:2372   */\n      tag_290\n      jump\t// in\n    tag_360:\n        /* \"#utility.yul\":2239:2378   */\n      swap3\n      swap2\n      pop\n      pop\n      jump\t// out\n        /* \"#utility.yul\":2384:2713   */\n    tag_49:\n        /* \"#utility.yul\":2443:2449   */\n      0x00\n        /* \"#utility.yul\":2492:2494   */\n      0x20\n        /* \"#utility.yul\":2480:2489   */\n      dup3\n        /* \"#utility.yul\":2471:2478   */\n      dup5\n        /* \"#utility.yul\":2467:2490   */\n      sub\n        /* \"#utility.yul\":2463:2495   */\n      slt\n        /* \"#utility.yul\":2460:2579   */\n      iszero\n      tag_362\n      jumpi\n        /* \"#utility.yul\":2498:2577   */\n      tag_363\n      tag_288\n      jump\t// in\n    tag_363:\n        /* \"#utility.yul\":2460:2579   */\n    tag_362:\n        /* \"#utility.yul\":2618:2619   */\n      0x00\n        /* \"#utility.yul\":2643:2696   */\n      tag_364\n        /* \"#utility.yul\":2688:2695   */\n      dup5\n        /* \"#utility.yul\":2679:2685   */\n      dup3\n        /* \"#utility.yul\":2668:2677   */\n      dup6\n        /* \"#utility.yul\":2664:2686   */\n      add\n        /* \"#utility.yul\":2643:2696   */\n      tag_291\n      jump\t// in\n    tag_364:\n        /* \"#utility.yul\":2633:2696   */\n      swap2\n      pop\n        /* \"#utility.yul\":2589:2706   */\n      pop\n        /* \"#utility.yul\":2384:2713   */\n      swap3\n      swap2\n      pop\n      pop\n      jump\t// out\n        /* \"#utility.yul\":2719:2845   */\n    tag_292:\n        /* \"#utility.yul\":2756:2763   */\n      0x00\n        /* \"#utility.yul\":2796:2838   */\n      0xffffffffffffffffffffffffffffffffffffffff\n        /* \"#utility.yul\":2789:2794   */\n      dup3\n        /* \"#utility.yul\":2785:2839   */\n      and\n        /* \"#utility.yul\":2774:2839   */\n      swap1\n      pop\n        /* \"#utility.yul\":2719:2845   */\n      swap2\n      swap1\n      pop\n      jump\t// out\n        /* \"#utility.yul\":2851:2947   */\n    tag_293:\n        /* \"#utility.yul\":2888:2895   */\n      0x00\n        /* \"#utility.yul\":2917:2941   */\n      tag_367\n        /* \"#utility.yul\":2935:2940   */\n      dup3\n        /* \"#utility.yul\":2917:2941   */\n      tag_292\n      jump\t// in\n    tag_367:\n        /* \"#utility.yul\":2906:2941   */\n      swap1\n      pop\n        /* \"#utility.yul\":2851:2947   */\n      swap2\n      swap1\n      pop\n      jump\t// out\n        /* \"#utility.yul\":2953:3075   */\n    tag_294:\n        /* \"#utility.yul\":3026:3050   */\n      tag_369\n        /* \"#utility.yul\":3044:3049   */\n      dup2\n        /* \"#utility.yul\":3026:3050   */\n      tag_293\n      jump\t// in\n    tag_369:\n        /* \"#utility.yul\":3019:3024   */\n      dup2\n        /* \"#utility.yul\":3016:3051   */\n      eq\n        /* \"#utility.yul\":3006:3069   */\n      tag_370\n      jumpi\n        /* \"#utility.yul\":3065:3066   */\n      0x00\n        /* \"#utility.yul\":3062:3063   */\n      dup1\n        /* \"#utility.yul\":3055:3067   */\n      revert\n        /* \"#utility.yul\":3006:3069   */\n    tag_370:\n        /* \"#utility.yul\":2953:3075   */\n      pop\n      jump\t// out\n        /* \"#utility.yul\":3081:3220   */\n    tag_295:\n        /* \"#utility.yul\":3127:3132   */\n      0x00\n        /* \"#utility.yul\":3165:3171   */\n      dup2\n        /* \"#utility.yul\":3152:3172   */\n      calldataload\n        /* \"#utility.yul\":3143:3172   */\n      swap1\n      pop\n        /* \"#utility.yul\":3181:3214   */\n      tag_372\n        /* \"#utility.yul\":3208:3213   */\n      dup2\n        /* \"#utility.yul\":3181:3214   */\n      tag_294\n      jump\t// in\n    tag_372:\n        /* \"#utility.yul\":3081:3220   */\n      swap3\n      swap2\n      pop\n      pop\n      jump\t// out\n        /* \"#utility.yul\":3226:3700   */\n    tag_54:\n        /* \"#utility.yul\":3294:3300   */\n      0x00\n        /* \"#utility.yul\":3302:3308   */\n      dup1\n        /* \"#utility.yul\":3351:3353   */\n      0x40\n        /* \"#utility.yul\":3339:3348   */\n      dup4\n        /* \"#utility.yul\":3330:3337   */\n      dup6\n        /* \"#utility.yul\":3326:3349   */\n      sub\n        /* \"#utility.yul\":3322:3354   */\n      slt\n        /* \"#utility.yul\":3319:3438   */\n      iszero\n      tag_374\n      jumpi\n        /* \"#utility.yul\":3357:3436   */\n      tag_375\n      tag_288\n      jump\t// in\n    tag_375:\n        /* \"#utility.yul\":3319:3438   */\n    tag_374:\n        /* \"#utility.yul\":3477:3478   */\n      0x00\n        /* \"#utility.yul\":3502:3555   */\n      tag_376\n        /* \"#utility.yul\":3547:3554   */\n      dup6\n        /* \"#utility.yul\":3538:3544   */\n      dup3\n        /* \"#utility.yul\":3527:3536   */\n      dup7\n        /* \"#utility.yul\":3523:3545   */\n      add\n        /* \"#utility.yul\":3502:3555   */\n      tag_295\n      jump\t// in\n    tag_376:\n        /* \"#utility.yul\":3492:3555   */\n      swap3\n      pop\n        /* \"#utility.yul\":3448:3565   */\n      pop\n        /* \"#utility.yul\":3604:3606   */\n      0x20\n        /* \"#utility.yul\":3630:3683   */\n      tag_377\n        /* \"#utility.yul\":3675:3682   */\n      dup6\n        /* \"#utility.yul\":3666:3672   */\n      dup3\n        /* \"#utility.yul\":3655:3664   */\n      dup7\n        /* \"#utility.yul\":3651:3673   */\n      add\n        /* \"#utility.yul\":3630:3683   */\n      tag_291\n      jump\t// in\n    tag_377:\n        /* \"#utility.yul\":3620:3683   */\n      swap2\n      pop\n        /* \"#utility.yul\":3575:3693   */\n      pop\n        /* \"#utility.yul\":3226:3700   */\n      swap3\n      pop\n      swap3\n      swap1\n      pop\n      jump\t// out\n        /* \"#utility.yul\":3706:3796   */\n    tag_296:\n        /* \"#utility.yul\":3740:3747   */\n      0x00\n        /* \"#utility.yul\":3783:3788   */\n      dup2\n        /* \"#utility.yul\":3776:3789   */\n      iszero\n        /* \"#utility.yul\":3769:3790   */\n      iszero\n        /* \"#utility.yul\":3758:3790   */\n      swap1\n      pop\n        /* \"#utility.yul\":3706:3796   */\n      swap2\n      swap1\n      pop\n      jump\t// out\n        /* \"#utility.yul\":3802:3911   */\n    tag_297:\n        /* \"#utility.yul\":3883:3904   */\n      tag_380\n        /* \"#utility.yul\":3898:3903   */\n      dup2\n        /* \"#utility.yul\":3883:3904   */\n      tag_296\n      jump\t// in\n    tag_380:\n        /* \"#utility.yul\":3878:3881   */\n      dup3\n        /* \"#utility.yul\":3871:3905   */\n      mstore\n        /* \"#utility.yul\":3802:3911   */\n      pop\n      pop\n      jump\t// out\n        /* \"#utility.yul\":3917:4127   */\n    tag_57:\n        /* \"#utility.yul\":4004:4008   */\n      0x00\n        /* \"#utility.yul\":4042:4044   */\n      0x20\n        /* \"#utility.yul\":4031:4040   */\n      dup3\n        /* \"#utility.yul\":4027:4045   */\n      add\n        /* \"#utility.yul\":4019:4045   */\n      swap1\n      pop\n        /* \"#utility.yul\":4055:4120   */\n      tag_382\n        /* \"#utility.yul\":4117:4118   */\n      0x00\n        /* \"#utility.yul\":4106:4115   */\n      dup4\n        /* \"#utility.yul\":4102:4119   */\n      add\n        /* \"#utility.yul\":4093:4099   */\n      dup5\n        /* \"#utility.yul\":4055:4120   */\n      tag_297\n      jump\t// in\n    tag_382:\n        /* \"#utility.yul\":3917:4127   */\n      swap3\n      swap2\n      pop\n      pop\n      jump\t// out\n        /* \"#utility.yul\":4133:4752   */\n    tag_67:\n        /* \"#utility.yul\":4210:4216   */\n      0x00\n        /* \"#utility.yul\":4218:4224   */\n      dup1\n        /* \"#utility.yul\":4226:4232   */\n      0x00\n        /* \"#utility.yul\":4275:4277   */\n      0x60\n        /* \"#utility.yul\":4263:4272   */\n      dup5\n        /* \"#utility.yul\":4254:4261   */\n      dup7\n        /* \"#utility.yul\":4250:4273   */\n      sub\n        /* \"#utility.yul\":4246:4278   */\n      slt\n        /* \"#utility.yul\":4243:4362   */\n      iszero\n      tag_384\n      jumpi\n        /* \"#utility.yul\":4281:4360   */\n      tag_385\n      tag_288\n      jump\t// in\n    tag_385:\n        /* \"#utility.yul\":4243:4362   */\n    tag_384:\n        /* \"#utility.yul\":4401:4402   */\n      0x00\n        /* \"#utility.yul\":4426:4479   */\n      tag_386\n        /* \"#utility.yul\":4471:4478   */\n      dup7\n        /* \"#utility.yul\":4462:4468   */\n      dup3\n        /* \"#utility.yul\":4451:4460   */\n      dup8\n        /* \"#utility.yul\":4447:4469   */\n      add\n        /* \"#utility.yul\":4426:4479   */\n      tag_295\n      jump\t// in\n    tag_386:\n        /* \"#utility.yul\":4416:4479   */\n      swap4\n      pop\n        /* \"#utility.yul\":4372:4489   */\n      pop\n        /* \"#utility.yul\":4528:4530   */\n      0x20\n        /* \"#utility.yul\":4554:4607   */\n      tag_387\n        /* \"#utility.yul\":4599:4606   */\n      dup7\n        /* \"#utility.yul\":4590:4596   */\n      dup3\n        /* \"#utility.yul\":4579:4588   */\n      dup8\n        /* \"#utility.yul\":4575:4597   */\n      add\n        /* \"#utility.yul\":4554:4607   */\n      tag_295\n      jump\t// in\n    tag_387:\n        /* \"#utility.yul\":4544:4607   */\n      swap3\n      pop\n        /* \"#utility.yul\":4499:4617   */\n      pop\n        /* \"#utility.yul\":4656:4658   */\n      0x40\n        /* \"#utility.yul\":4682:4735   */\n      tag_388\n        /* \"#utility.yul\":4727:4734   */\n      dup7\n        /* \"#utility.yul\":4718:4724   */\n      dup3\n        /* \"#utility.yul\":4707:4716   */\n      dup8\n        /* \"#utility.yul\":4703:4725   */\n      add\n        /* \"#utility.yul\":4682:4735   */\n      tag_291\n      jump\t// in\n    tag_388:\n        /* \"#utility.yul\":4672:4735   */\n      swap2\n      pop\n        /* \"#utility.yul\":4627:4745   */\n      pop\n        /* \"#utility.yul\":4133:4752   */\n      swap3\n      pop\n      swap3\n      pop\n      swap3\n      jump\t// out\n        /* \"#utility.yul\":4758:4844   */\n    tag_298:\n        /* \"#utility.yul\":4793:4800   */\n      0x00\n        /* \"#utility.yul\":4833:4837   */\n      0xff\n        /* \"#utility.yul\":4826:4831   */\n      dup3\n        /* \"#utility.yul\":4822:4838   */\n      and\n        /* \"#utility.yul\":4811:4838   */\n      swap1\n      pop\n        /* \"#utility.yul\":4758:4844   */\n      swap2\n      swap1\n      pop\n      jump\t// out\n        /* \"#utility.yul\":4850:4962   */\n    tag_299:\n        /* \"#utility.yul\":4933:4955   */\n      tag_391\n        /* \"#utility.yul\":4949:4954   */\n      dup2\n        /* \"#utility.yul\":4933:4955   */\n      tag_298\n      jump\t// in\n    tag_391:\n        /* \"#utility.yul\":4928:4931   */\n      dup3\n        /* \"#utility.yul\":4921:4956   */\n      mstore\n        /* \"#utility.yul\":4850:4962   */\n      pop\n      pop\n      jump\t// out\n        /* \"#utility.yul\":4968:5182   */\n    tag_73:\n        /* \"#utility.yul\":5057:5061   */\n      0x00\n        /* \"#utility.yul\":5095:5097   */\n      0x20\n        /* \"#utility.yul\":5084:5093   */\n      dup3\n        /* \"#utility.yul\":5080:5098   */\n      add\n        /* \"#utility.yul\":5072:5098   */\n      swap1\n      pop\n        /* \"#utility.yul\":5108:5175   */\n      tag_393\n        /* \"#utility.yul\":5172:5173   */\n      0x00\n        /* \"#utility.yul\":5161:5170   */\n      dup4\n        /* \"#utility.yul\":5157:5174   */\n      add\n        /* \"#utility.yul\":5148:5154   */\n      dup5\n        /* \"#utility.yul\":5108:5175   */\n      tag_299\n      jump\t// in\n    tag_393:\n        /* \"#utility.yul\":4968:5182   */\n      swap3\n      swap2\n      pop\n      pop\n      jump\t// out\n        /* \"#utility.yul\":5188:5265   */\n    tag_300:\n        /* \"#utility.yul\":5225:5232   */\n      0x00\n        /* \"#utility.yul\":5254:5259   */\n      dup2\n        /* \"#utility.yul\":5243:5259   */\n      swap1\n      pop\n        /* \"#utility.yul\":5188:5265   */\n      swap2\n      swap1\n      pop\n      jump\t// out\n        /* \"#utility.yul\":5271:5389   */\n    tag_301:\n        /* \"#utility.yul\":5358:5382   */\n      tag_396\n        /* \"#utility.yul\":5376:5381   */\n      dup2\n        /* \"#utility.yul\":5358:5382   */\n      tag_300\n      jump\t// in\n    tag_396:\n        /* \"#utility.yul\":5353:5356   */\n      dup3\n        /* \"#utility.yul\":5346:5383   */\n      mstore\n        /* \"#utility.yul\":5271:5389   */\n      pop\n      pop\n      jump\t// out\n        /* \"#utility.yul\":5395:5617   */\n    tag_77:\n        /* \"#utility.yul\":5488:5492   */\n      0x00\n        /* \"#utility.yul\":5526:5528   */\n      0x20\n        /* \"#utility.yul\":5515:5524   */\n      dup3\n        /* \"#utility.yul\":5511:5529   */\n      add\n        /* \"#utility.yul\":5503:5529   */\n      swap1\n      pop\n        /* \"#utility.yul\":5539:5610   */\n      tag_398\n        /* \"#utility.yul\":5607:5608   */\n      0x00\n        /* \"#utility.yul\":5596:5605   */\n      dup4\n        /* \"#utility.yul\":5592:5609   */\n      add\n        /* \"#utility.yul\":5583:5589   */\n      dup5\n        /* \"#utility.yul\":5539:5610   */\n      tag_301\n      jump\t// in\n    tag_398:\n        /* \"#utility.yul\":5395:5617   */\n      swap3\n      swap2\n      pop\n      pop\n      jump\t// out\n        /* \"#utility.yul\":5623:5683   */\n    tag_302:\n        /* \"#utility.yul\":5651:5654   */\n      0x00\n        /* \"#utility.yul\":5672:5677   */\n      dup2\n        /* \"#utility.yul\":5665:5677   */\n      swap1\n      pop\n        /* \"#utility.yul\":5623:5683   */\n      swap2\n      swap1\n      pop\n      jump\t// out\n        /* \"#utility.yul\":5689:5831   */\n    tag_303:\n        /* \"#utility.yul\":5739:5748   */\n      0x00\n        /* \"#utility.yul\":5772:5825   */\n      tag_401\n        /* \"#utility.yul\":5790:5824   */\n      tag_402\n        /* \"#utility.yul\":5799:5823   */\n      tag_403\n        /* \"#utility.yul\":5817:5822   */\n      dup5\n        /* \"#utility.yul\":5799:5823   */\n      tag_292\n      jump\t// in\n    tag_403:\n        /* \"#utility.yul\":5790:5824   */\n      tag_302\n      jump\t// in\n    tag_402:\n        /* \"#utility.yul\":5772:5825   */\n      tag_292\n      jump\t// in\n    tag_401:\n        /* \"#utility.yul\":5759:5825   */\n      swap1\n      pop\n        /* \"#utility.yul\":5689:5831   */\n      swap2\n      swap1\n      pop\n      jump\t// out\n        /* \"#utility.yul\":5837:5963   */\n    tag_304:\n        /* \"#utility.yul\":5887:5896   */\n      0x00\n        /* \"#utility.yul\":5920:5957   */\n      tag_405\n        /* \"#utility.yul\":5951:5956   */\n      dup3\n        /* \"#utility.yul\":5920:5957   */\n      tag_303\n      jump\t// in\n    tag_405:\n        /* \"#utility.yul\":5907:5957   */\n      swap1\n      pop\n        /* \"#utility.yul\":5837:5963   */\n      swap2\n      swap1\n      pop\n      jump\t// out\n        /* \"#utility.yul\":5969:6108   */\n    tag_305:\n        /* \"#utility.yul\":6032:6041   */\n      0x00\n        /* \"#utility.yul\":6065:6102   */\n      tag_407\n        /* \"#utility.yul\":6096:6101   */\n      dup3\n        /* \"#utility.yul\":6065:6102   */\n      tag_304\n      jump\t// in\n    tag_407:\n        /* \"#utility.yul\":6052:6102   */\n      swap1\n      pop\n        /* \"#utility.yul\":5969:6108   */\n      swap2\n      swap1\n      pop\n      jump\t// out\n        /* \"#utility.yul\":6114:6271   */\n    tag_306:\n        /* \"#utility.yul\":6214:6264   */\n      tag_409\n        /* \"#utility.yul\":6258:6263   */\n      dup2\n        /* \"#utility.yul\":6214:6264   */\n      tag_305\n      jump\t// in\n    tag_409:\n        /* \"#utility.yul\":6209:6212   */\n      dup3\n        /* \"#utility.yul\":6202:6265   */\n      mstore\n        /* \"#utility.yul\":6114:6271   */\n      pop\n      pop\n      jump\t// out\n        /* \"#utility.yul\":6277:6525   */\n    tag_81:\n        /* \"#utility.yul\":6383:6387   */\n      0x00\n        /* \"#utility.yul\":6421:6423   */\n      0x20\n        /* \"#utility.yul\":6410:6419   */\n      dup3\n        /* \"#utility.yul\":6406:6424   */\n      add\n        /* \"#utility.yul\":6398:6424   */\n      swap1\n      pop\n        /* \"#utility.yul\":6434:6518   */\n      tag_411\n        /* \"#utility.yul\":6515:6516   */\n      0x00\n        /* \"#utility.yul\":6504:6513   */\n      dup4\n        /* \"#utility.yul\":6500:6517   */\n      add\n        /* \"#utility.yul\":6491:6497   */\n      dup5\n        /* \"#utility.yul\":6434:6518   */\n      tag_306\n      jump\t// in\n    tag_411:\n        /* \"#utility.yul\":6277:6525   */\n      swap3\n      swap2\n      pop\n      pop\n      jump\t// out\n        /* \"#utility.yul\":6531:6860   */\n    tag_84:\n        /* \"#utility.yul\":6590:6596   */\n      0x00\n        /* \"#utility.yul\":6639:6641   */\n      0x20\n        /* \"#utility.yul\":6627:6636   */\n      dup3\n        /* \"#utility.yul\":6618:6625   */\n      dup5\n        /* \"#utility.yul\":6614:6637   */\n      sub\n        /* \"#utility.yul\":6610:6642   */\n      slt\n        /* \"#utility.yul\":6607:6726   */\n      iszero\n      tag_413\n      jumpi\n        /* \"#utility.yul\":6645:6724   */\n      tag_414\n      tag_288\n      jump\t// in\n    tag_414:\n        /* \"#utility.yul\":6607:6726   */\n    tag_413:\n        /* \"#utility.yul\":6765:6766   */\n      0x00\n        /* \"#utility.yul\":6790:6843   */\n      tag_415\n        /* \"#utility.yul\":6835:6842   */\n      dup5\n        /* \"#utility.yul\":6826:6832   */\n      dup3\n        /* \"#utility.yul\":6815:6824   */\n      dup6\n        /* \"#utility.yul\":6811:6833   */\n      add\n        /* \"#utility.yul\":6790:6843   */\n      tag_295\n      jump\t// in\n    tag_415:\n        /* \"#utility.yul\":6780:6843   */\n      swap2\n      pop\n        /* \"#utility.yul\":6736:6853   */\n      pop\n        /* \"#utility.yul\":6531:6860   */\n      swap3\n      swap2\n      pop\n      pop\n      jump\t// out\n        /* \"#utility.yul\":6866:7340   */\n    tag_93:\n        /* \"#utility.yul\":6934:6940   */\n      0x00\n        /* \"#utility.yul\":6942:6948   */\n      dup1\n        /* \"#utility.yul\":6991:6993   */\n      0x40\n        /* \"#utility.yul\":6979:6988   */\n      dup4\n        /* \"#utility.yul\":6970:6977   */\n      dup6\n        /* \"#utility.yul\":6966:6989   */\n      sub\n        /* \"#utility.yul\":6962:6994   */\n      slt\n        /* \"#utility.yul\":6959:7078   */\n      iszero\n      tag_417\n      jumpi\n        /* \"#utility.yul\":6997:7076   */\n      tag_418\n      tag_288\n      jump\t// in\n    tag_418:\n        /* \"#utility.yul\":6959:7078   */\n    tag_417:\n        /* \"#utility.yul\":7117:7118   */\n      0x00\n        /* \"#utility.yul\":7142:7195   */\n      tag_419\n        /* \"#utility.yul\":7187:7194   */\n      dup6\n        /* \"#utility.yul\":7178:7184   */\n      dup3\n        /* \"#utility.yul\":7167:7176   */\n      dup7\n        /* \"#utility.yul\":7163:7185   */\n      add\n        /* \"#utility.yul\":7142:7195   */\n      tag_291\n      jump\t// in\n    tag_419:\n        /* \"#utility.yul\":7132:7195   */\n      swap3\n      pop\n        /* \"#utility.yul\":7088:7205   */\n      pop\n        /* \"#utility.yul\":7244:7246   */\n      0x20\n        /* \"#utility.yul\":7270:7323   */\n      tag_420\n        /* \"#utility.yul\":7315:7322   */\n      dup6\n        /* \"#utility.yul\":7306:7312   */\n      dup3\n        /* \"#utility.yul\":7295:7304   */\n      dup7\n        /* \"#utility.yul\":7291:7313   */\n      add\n        /* \"#utility.yul\":7270:7323   */\n      tag_295\n      jump\t// in\n    tag_420:\n        /* \"#utility.yul\":7260:7323   */\n      swap2\n      pop\n        /* \"#utility.yul\":7215:7333   */\n      pop\n        /* \"#utility.yul\":6866:7340   */\n      swap3\n      pop\n      swap3\n      swap1\n      pop\n      jump\t// out\n        /* \"#utility.yul\":7346:7965   */\n    tag_121:\n        /* \"#utility.yul\":7423:7429   */\n      0x00\n        /* \"#utility.yul\":7431:7437   */\n      dup1\n        /* \"#utility.yul\":7439:7445   */\n      0x00\n        /* \"#utility.yul\":7488:7490   */\n      0x60\n        /* \"#utility.yul\":7476:7485   */\n      dup5\n        /* \"#utility.yul\":7467:7474   */\n      dup7\n        /* \"#utility.yul\":7463:7486   */\n      sub\n        /* \"#utility.yul\":7459:7491   */\n      slt\n        /* \"#utility.yul\":7456:7575   */\n      iszero\n      tag_422\n      jumpi\n        /* \"#utility.yul\":7494:7573   */\n      tag_423\n      tag_288\n      jump\t// in\n    tag_423:\n        /* \"#utility.yul\":7456:7575   */\n    tag_422:\n        /* \"#utility.yul\":7614:7615   */\n      0x00\n        /* \"#utility.yul\":7639:7692   */\n      tag_424\n        /* \"#utility.yul\":7684:7691   */\n      dup7\n        /* \"#utility.yul\":7675:7681   */\n      dup3\n        /* \"#utility.yul\":7664:7673   */\n      dup8\n        /* \"#utility.yul\":7660:7682   */\n      add\n        /* \"#utility.yul\":7639:7692   */\n      tag_291\n      jump\t// in\n    tag_424:\n        /* \"#utility.yul\":7629:7692   */\n      swap4\n      pop\n        /* \"#utility.yul\":7585:7702   */\n      pop\n        /* \"#utility.yul\":7741:7743   */\n      0x20\n        /* \"#utility.yul\":7767:7820   */\n      tag_425\n        /* \"#utility.yul\":7812:7819   */\n      dup7\n        /* \"#utility.yul\":7803:7809   */\n      dup3\n        /* \"#utility.yul\":7792:7801   */\n      dup8\n        /* \"#utility.yul\":7788:7810   */\n      add\n        /* \"#utility.yul\":7767:7820   */\n      tag_295\n      jump\t// in\n    tag_425:\n        /* \"#utility.yul\":7757:7820   */\n      swap3\n      pop\n        /* \"#utility.yul\":7712:7830   */\n      pop\n        /* \"#utility.yul\":7869:7871   */\n      0x40\n        /* \"#utility.yul\":7895:7948   */\n      tag_426\n        /* \"#utility.yul\":7940:7947   */\n      dup7\n        /* \"#utility.yul\":7931:7937   */\n      dup3\n        /* \"#utility.yul\":7920:7929   */\n      dup8\n        /* \"#utility.yul\":7916:7938   */\n      add\n        /* \"#utility.yul\":7895:7948   */\n      tag_295\n      jump\t// in\n    tag_426:\n        /* \"#utility.yul\":7885:7948   */\n      swap2\n      pop\n        /* \"#utility.yul\":7840:7958   */\n      pop\n        /* \"#utility.yul\":7346:7965   */\n      swap3\n      pop\n      swap3\n      pop\n      swap3\n      jump\t// out\n        /* \"#utility.yul\":7971:8089   */\n    tag_307:\n        /* \"#utility.yul\":8042:8064   */\n      tag_428\n        /* \"#utility.yul\":8058:8063   */\n      dup2\n        /* \"#utility.yul\":8042:8064   */\n      tag_298\n      jump\t// in\n    tag_428:\n        /* \"#utility.yul\":8035:8040   */\n      dup2\n        /* \"#utility.yul\":8032:8065   */\n      eq\n        /* \"#utility.yul\":8022:8083   */\n      tag_429\n      jumpi\n        /* \"#utility.yul\":8079:8080   */\n      0x00\n        /* \"#utility.yul\":8076:8077   */\n      dup1\n        /* \"#utility.yul\":8069:8081   */\n      revert\n        /* \"#utility.yul\":8022:8083   */\n    tag_429:\n        /* \"#utility.yul\":7971:8089   */\n      pop\n      jump\t// out\n        /* \"#utility.yul\":8095:8230   */\n    tag_308:\n        /* \"#utility.yul\":8139:8144   */\n      0x00\n        /* \"#utility.yul\":8177:8183   */\n      dup2\n        /* \"#utility.yul\":8164:8184   */\n      calldataload\n        /* \"#utility.yul\":8155:8184   */\n      swap1\n      pop\n        /* \"#utility.yul\":8193:8224   */\n      tag_431\n        /* \"#utility.yul\":8218:8223   */\n      dup2\n        /* \"#utility.yul\":8193:8224   */\n      tag_307\n      jump\t// in\n    tag_431:\n        /* \"#utility.yul\":8095:8230   */\n      swap3\n      swap2\n      pop\n      pop\n      jump\t// out\n        /* \"#utility.yul\":8236:8358   */\n    tag_309:\n        /* \"#utility.yul\":8309:8333   */\n      tag_433\n        /* \"#utility.yul\":8327:8332   */\n      dup2\n        /* \"#utility.yul\":8309:8333   */\n      tag_300\n      jump\t// in\n    tag_433:\n        /* \"#utility.yul\":8302:8307   */\n      dup2\n        /* \"#utility.yul\":8299:8334   */\n      eq\n        /* \"#utility.yul\":8289:8352   */\n      tag_434\n      jumpi\n        /* \"#utility.yul\":8348:8349   */\n      0x00\n        /* \"#utility.yul\":8345:8346   */\n      dup1\n        /* \"#utility.yul\":8338:8350   */\n      revert\n        /* \"#utility.yul\":8289:8352   */\n    tag_434:\n        /* \"#utility.yul\":8236:8358   */\n      pop\n      jump\t// out\n        /* \"#utility.yul\":8364:8503   */\n    tag_310:\n        /* \"#utility.yul\":8410:8415   */\n      0x00\n        /* \"#utility.yul\":8448:8454   */\n      dup2\n        /* \"#utility.yul\":8435:8455   */\n      calldataload\n        /* \"#utility.yul\":8426:8455   */\n      swap1\n      pop\n        /* \"#utility.yul\":8464:8497   */\n      tag_436\n        /* \"#utility.yul\":8491:8496   */\n      dup2\n        /* \"#utility.yul\":8464:8497   */\n      tag_309\n      jump\t// in\n    tag_436:\n        /* \"#utility.yul\":8364:8503   */\n      swap3\n      swap2\n      pop\n      pop\n      jump\t// out\n        /* \"#utility.yul\":8509:9708   */\n    tag_142:\n        /* \"#utility.yul\":8620:8626   */\n      0x00\n        /* \"#utility.yul\":8628:8634   */\n      dup1\n        /* \"#utility.yul\":8636:8642   */\n      0x00\n        /* \"#utility.yul\":8644:8650   */\n      dup1\n        /* \"#utility.yul\":8652:8658   */\n      0x00\n        /* \"#utility.yul\":8660:8666   */\n      dup1\n        /* \"#utility.yul\":8668:8674   */\n      0x00\n        /* \"#utility.yul\":8717:8720   */\n      0xe0\n        /* \"#utility.yul\":8705:8714   */\n      dup9\n        /* \"#utility.yul\":8696:8703   */\n      dup11\n        /* \"#utility.yul\":8692:8715   */\n      sub\n        /* \"#utility.yul\":8688:8721   */\n      slt\n        /* \"#utility.yul\":8685:8805   */\n      iszero\n      tag_438\n      jumpi\n        /* \"#utility.yul\":8724:8803   */\n      tag_439\n      tag_288\n      jump\t// in\n    tag_439:\n        /* \"#utility.yul\":8685:8805   */\n    tag_438:\n        /* \"#utility.yul\":8844:8845   */\n      0x00\n        /* \"#utility.yul\":8869:8922   */\n      tag_440\n        /* \"#utility.yul\":8914:8921   */\n      dup11\n        /* \"#utility.yul\":8905:8911   */\n      dup3\n        /* \"#utility.yul\":8894:8903   */\n      dup12\n        /* \"#utility.yul\":8890:8912   */\n      add\n        /* \"#utility.yul\":8869:8922   */\n      tag_295\n      jump\t// in\n    tag_440:\n        /* \"#utility.yul\":8859:8922   */\n      swap8\n      pop\n        /* \"#utility.yul\":8815:8932   */\n      pop\n        /* \"#utility.yul\":8971:8973   */\n      0x20\n        /* \"#utility.yul\":8997:9050   */\n      tag_441\n        /* \"#utility.yul\":9042:9049   */\n      dup11\n        /* \"#utility.yul\":9033:9039   */\n      dup3\n        /* \"#utility.yul\":9022:9031   */\n      dup12\n        /* \"#utility.yul\":9018:9040   */\n      add\n        /* \"#utility.yul\":8997:9050   */\n      tag_295\n      jump\t// in\n    tag_441:\n        /* \"#utility.yul\":8987:9050   */\n      swap7\n      pop\n        /* \"#utility.yul\":8942:9060   */\n      pop\n        /* \"#utility.yul\":9099:9101   */\n      0x40\n        /* \"#utility.yul\":9125:9178   */\n      tag_442\n        /* \"#utility.yul\":9170:9177   */\n      dup11\n        /* \"#utility.yul\":9161:9167   */\n      dup3\n        /* \"#utility.yul\":9150:9159   */\n      dup12\n        /* \"#utility.yul\":9146:9168   */\n      add\n        /* \"#utility.yul\":9125:9178   */\n      tag_291\n      jump\t// in\n    tag_442:\n        /* \"#utility.yul\":9115:9178   */\n      swap6\n      pop\n        /* \"#utility.yul\":9070:9188   */\n      pop\n        /* \"#utility.yul\":9227:9229   */\n      0x60\n        /* \"#utility.yul\":9253:9306   */\n      tag_443\n        /* \"#utility.yul\":9298:9305   */\n      dup11\n        /* \"#utility.yul\":9289:9295   */\n      dup3\n        /* \"#utility.yul\":9278:9287   */\n      dup12\n        /* \"#utility.yul\":9274:9296   */\n      add\n        /* \"#utility.yul\":9253:9306   */\n      tag_291\n      jump\t// in\n    tag_443:\n        /* \"#utility.yul\":9243:9306   */\n      swap5\n      pop\n        /* \"#utility.yul\":9198:9316   */\n      pop\n        /* \"#utility.yul\":9355:9358   */\n      0x80\n        /* \"#utility.yul\":9382:9433   */\n      tag_444\n        /* \"#utility.yul\":9425:9432   */\n      dup11\n        /* \"#utility.yul\":9416:9422   */\n      dup3\n        /* \"#utility.yul\":9405:9414   */\n      dup12\n        /* \"#utility.yul\":9401:9423   */\n      add\n        /* \"#utility.yul\":9382:9433   */\n      tag_308\n      jump\t// in\n    tag_444:\n        /* \"#utility.yul\":9372:9433   */\n      swap4\n      pop\n        /* \"#utility.yul\":9326:9443   */\n      pop\n        /* \"#utility.yul\":9482:9485   */\n      0xa0\n        /* \"#utility.yul\":9509:9562   */\n      tag_445\n        /* \"#utility.yul\":9554:9561   */\n      dup11\n        /* \"#utility.yul\":9545:9551   */\n      dup3\n        /* \"#utility.yul\":9534:9543   */\n      dup12\n        /* \"#utility.yul\":9530:9552   */\n      add\n        /* \"#utility.yul\":9509:9562   */\n      tag_310\n      jump\t// in\n    tag_445:\n        /* \"#utility.yul\":9499:9562   */\n      swap3\n      pop\n        /* \"#utility.yul\":9453:9572   */\n      pop\n        /* \"#utility.yul\":9611:9614   */\n      0xc0\n        /* \"#utility.yul\":9638:9691   */\n      tag_446\n        /* \"#utility.yul\":9683:9690   */\n      dup11\n        /* \"#utility.yul\":9674:9680   */\n      dup3\n        /* \"#utility.yul\":9663:9672   */\n      dup12\n        /* \"#utility.yul\":9659:9681   */\n      add\n        /* \"#utility.yul\":9638:9691   */\n      tag_310\n      jump\t// in\n    tag_446:\n        /* \"#utility.yul\":9628:9691   */\n      swap2\n      pop\n        /* \"#utility.yul\":9582:9701   */\n      pop\n        /* \"#utility.yul\":8509:9708   */\n      swap3\n      swap6\n      swap9\n      swap2\n      swap5\n      swap8\n      pop\n      swap3\n      swap6\n      pop\n      jump\t// out\n        /* \"#utility.yul\":9714:10188   */\n    tag_150:\n        /* \"#utility.yul\":9782:9788   */\n      0x00\n        /* \"#utility.yul\":9790:9796   */\n      dup1\n        /* \"#utility.yul\":9839:9841   */\n      0x40\n        /* \"#utility.yul\":9827:9836   */\n      dup4\n        /* \"#utility.yul\":9818:9825   */\n      dup6\n        /* \"#utility.yul\":9814:9837   */\n      sub\n        /* \"#utility.yul\":9810:9842   */\n      slt\n        /* \"#utility.yul\":9807:9926   */\n      iszero\n      tag_448\n      jumpi\n        /* \"#utility.yul\":9845:9924   */\n      tag_449\n      tag_288\n      jump\t// in\n    tag_449:\n        /* \"#utility.yul\":9807:9926   */\n    tag_448:\n        /* \"#utility.yul\":9965:9966   */\n      0x00\n        /* \"#utility.yul\":9990:10043   */\n      tag_450\n        /* \"#utility.yul\":10035:10042   */\n      dup6\n        /* \"#utility.yul\":10026:10032   */\n      dup3\n        /* \"#utility.yul\":10015:10024   */\n      dup7\n        /* \"#utility.yul\":10011:10033   */\n      add\n        /* \"#utility.yul\":9990:10043   */\n      tag_295\n      jump\t// in\n    tag_450:\n        /* \"#utility.yul\":9980:10043   */\n      swap3\n      pop\n        /* \"#utility.yul\":9936:10053   */\n      pop\n        /* \"#utility.yul\":10092:10094   */\n      0x20\n        /* \"#utility.yul\":10118:10171   */\n      tag_451\n        /* \"#utility.yul\":10163:10170   */\n      dup6\n        /* \"#utility.yul\":10154:10160   */\n      dup3\n        /* \"#utility.yul\":10143:10152   */\n      dup7\n        /* \"#utility.yul\":10139:10161   */\n      add\n        /* \"#utility.yul\":10118:10171   */\n      tag_295\n      jump\t// in\n    tag_451:\n        /* \"#utility.yul\":10108:10171   */\n      swap2\n      pop\n        /* \"#utility.yul\":10063:10181   */\n      pop\n        /* \"#utility.yul\":9714:10188   */\n      swap3\n      pop\n      swap3\n      swap1\n      pop\n      jump\t// out\n        /* \"#utility.yul\":10194:10374   */\n    tag_311:\n        /* \"#utility.yul\":10242:10319   */\n      0x4e487b7100000000000000000000000000000000000000000000000000000000\n        /* \"#utility.yul\":10239:10240   */\n      0x00\n        /* \"#utility.yul\":10232:10320   */\n      mstore\n        /* \"#utility.yul\":10339:10343   */\n      0x22\n        /* \"#utility.yul\":10336:10337   */\n      0x04\n        /* \"#utility.yul\":10329:10344   */\n      mstore\n        /* \"#utility.yul\":10363:10367   */\n      0x24\n        /* \"#utility.yul\":10360:10361   */\n      0x00\n        /* \"#utility.yul\":10353:10368   */\n      revert\n        /* \"#utility.yul\":10380:10700   */\n    tag_162:\n        /* \"#utility.yul\":10424:10430   */\n      0x00\n        /* \"#utility.yul\":10461:10462   */\n      0x02\n        /* \"#utility.yul\":10455:10459   */\n      dup3\n        /* \"#utility.yul\":10451:10463   */\n      div\n        /* \"#utility.yul\":10441:10463   */\n      swap1\n      pop\n        /* \"#utility.yul\":10508:10509   */\n      0x01\n        /* \"#utility.yul\":10502:10506   */\n      dup3\n        /* \"#utility.yul\":10498:10510   */\n      and\n        /* \"#utility.yul\":10529:10547   */\n      dup1\n        /* \"#utility.yul\":10519:10600   */\n      tag_454\n      jumpi\n        /* \"#utility.yul\":10585:10589   */\n      0x7f\n        /* \"#utility.yul\":10577:10583   */\n      dup3\n        /* \"#utility.yul\":10573:10590   */\n      and\n        /* \"#utility.yul\":10563:10590   */\n      swap2\n      pop\n        /* \"#utility.yul\":10519:10600   */\n    tag_454:\n        /* \"#utility.yul\":10647:10649   */\n      0x20\n        /* \"#utility.yul\":10639:10645   */\n      dup3\n        /* \"#utility.yul\":10636:10650   */\n      lt\n        /* \"#utility.yul\":10616:10634   */\n      dup2\n        /* \"#utility.yul\":10613:10651   */\n      sub\n        /* \"#utility.yul\":10610:10694   */\n      tag_455\n      jumpi\n        /* \"#utility.yul\":10666:10684   */\n      tag_456\n      tag_311\n      jump\t// in\n    tag_456:\n        /* \"#utility.yul\":10610:10694   */\n    tag_455:\n        /* \"#utility.yul\":10431:10700   */\n      pop\n        /* \"#utility.yul\":10380:10700   */\n      swap2\n      swap1\n      pop\n      jump\t// out\n        /* \"#utility.yul\":10706:10886   */\n    tag_312:\n        /* \"#utility.yul\":10754:10831   */\n      0x4e487b7100000000000000000000000000000000000000000000000000000000\n        /* \"#utility.yul\":10751:10752   */\n      0x00\n        /* \"#utility.yul\":10744:10832   */\n      mstore\n        /* \"#utility.yul\":10851:10855   */\n      0x11\n        /* \"#utility.yul\":10848:10849   */\n      0x04\n        /* \"#utility.yul\":10841:10856   */\n      mstore\n        /* \"#utility.yul\":10875:10879   */\n      0x24\n        /* \"#utility.yul\":10872:10873   */\n      0x00\n        /* \"#utility.yul\":10865:10880   */\n      revert\n        /* \"#utility.yul\":10892:11302   */\n    tag_170:\n        /* \"#utility.yul\":10932:10939   */\n      0x00\n        /* \"#utility.yul\":10955:10975   */\n      tag_459\n        /* \"#utility.yul\":10973:10974   */\n      dup3\n        /* \"#utility.yul\":10955:10975   */\n      tag_280\n      jump\t// in\n    tag_459:\n        /* \"#utility.yul\":10950:10975   */\n      swap2\n      pop\n        /* \"#utility.yul\":10989:11009   */\n      tag_460\n        /* \"#utility.yul\":11007:11008   */\n      dup4\n        /* \"#utility.yul\":10989:11009   */\n      tag_280\n      jump\t// in\n    tag_460:\n        /* \"#utility.yul\":10984:11009   */\n      swap3\n      pop\n        /* \"#utility.yul\":11044:11045   */\n      dup3\n        /* \"#utility.yul\":11041:11042   */\n      dup3\n        /* \"#utility.yul\":11037:11046   */\n      mul\n        /* \"#utility.yul\":11066:11096   */\n      tag_461\n        /* \"#utility.yul\":11084:11095   */\n      dup2\n        /* \"#utility.yul\":11066:11096   */\n      tag_280\n      jump\t// in\n    tag_461:\n        /* \"#utility.yul\":11055:11096   */\n      swap2\n      pop\n        /* \"#utility.yul\":11245:11246   */\n      dup3\n        /* \"#utility.yul\":11236:11243   */\n      dup3\n        /* \"#utility.yul\":11232:11247   */\n      div\n        /* \"#utility.yul\":11229:11230   */\n      dup5\n        /* \"#utility.yul\":11226:11248   */\n      eq\n        /* \"#utility.yul\":11206:11207   */\n      dup4\n        /* \"#utility.yul\":11199:11208   */\n      iszero\n        /* \"#utility.yul\":11179:11262   */\n      or\n        /* \"#utility.yul\":11156:11295   */\n      tag_462\n      jumpi\n        /* \"#utility.yul\":11275:11293   */\n      tag_463\n      tag_312\n      jump\t// in\n    tag_463:\n        /* \"#utility.yul\":11156:11295   */\n    tag_462:\n        /* \"#utility.yul\":10940:11302   */\n      pop\n        /* \"#utility.yul\":10892:11302   */\n      swap3\n      swap2\n      pop\n      pop\n      jump\t// out\n        /* \"#utility.yul\":11308:11488   */\n    tag_313:\n        /* \"#utility.yul\":11356:11433   */\n      0x4e487b7100000000000000000000000000000000000000000000000000000000\n        /* \"#utility.yul\":11353:11354   */\n      0x00\n        /* \"#utility.yul\":11346:11434   */\n      mstore\n        /* \"#utility.yul\":11453:11457   */\n      0x12\n        /* \"#utility.yul\":11450:11451   */\n      0x04\n        /* \"#utility.yul\":11443:11458   */\n      mstore\n        /* \"#utility.yul\":11477:11481   */\n      0x24\n        /* \"#utility.yul\":11474:11475   */\n      0x00\n        /* \"#utility.yul\":11467:11482   */\n      revert\n        /* \"#utility.yul\":11494:11679   */\n    tag_172:\n        /* \"#utility.yul\":11534:11535   */\n      0x00\n        /* \"#utility.yul\":11551:11571   */\n      tag_466\n        /* \"#utility.yul\":11569:11570   */\n      dup3\n        /* \"#utility.yul\":11551:11571   */\n      tag_280\n      jump\t// in\n    tag_466:\n        /* \"#utility.yul\":11546:11571   */\n      swap2\n      pop\n        /* \"#utility.yul\":11585:11605   */\n      tag_467\n        /* \"#utility.yul\":11603:11604   */\n      dup4\n        /* \"#utility.yul\":11585:11605   */\n      tag_280\n      jump\t// in\n    tag_467:\n        /* \"#utility.yul\":11580:11605   */\n      swap3\n      pop\n        /* \"#utility.yul\":11624:11625   */\n      dup3\n        /* \"#utility.yul\":11614:11649   */\n      tag_468\n      jumpi\n        /* \"#utility.yul\":11629:11647   */\n      tag_469\n      tag_313\n      jump\t// in\n    tag_469:\n        /* \"#utility.yul\":11614:11649   */\n    tag_468:\n        /* \"#utility.yul\":11671:11672   */\n      dup3\n        /* \"#utility.yul\":11668:11669   */\n      dup3\n        /* \"#utility.yul\":11664:11673   */\n      div\n        /* \"#utility.yul\":11659:11673   */\n      swap1\n      pop\n        /* \"#utility.yul\":11494:11679   */\n      swap3\n      swap2\n      pop\n      pop\n      jump\t// out\n        /* \"#utility.yul\":11685:11879   */\n    tag_183:\n        /* \"#utility.yul\":11725:11729   */\n      0x00\n        /* \"#utility.yul\":11745:11765   */\n      tag_471\n        /* \"#utility.yul\":11763:11764   */\n      dup3\n        /* \"#utility.yul\":11745:11765   */\n      tag_280\n      jump\t// in\n    tag_471:\n        /* \"#utility.yul\":11740:11765   */\n      swap2\n      pop\n        /* \"#utility.yul\":11779:11799   */\n      tag_472\n        /* \"#utility.yul\":11797:11798   */\n      dup4\n        /* \"#utility.yul\":11779:11799   */\n      tag_280\n      jump\t// in\n    tag_472:\n        /* \"#utility.yul\":11774:11799   */\n      swap3\n      pop\n        /* \"#utility.yul\":11823:11824   */\n      dup3\n        /* \"#utility.yul\":11820:11821   */\n      dup3\n        /* \"#utility.yul\":11816:11825   */\n      sub\n        /* \"#utility.yul\":11808:11825   */\n      swap1\n      pop\n        /* \"#utility.yul\":11847:11848   */\n      dup2\n        /* \"#utility.yul\":11841:11845   */\n      dup2\n        /* \"#utility.yul\":11838:11849   */\n      gt\n        /* \"#utility.yul\":11835:11872   */\n      iszero\n      tag_473\n      jumpi\n        /* \"#utility.yul\":11852:11870   */\n      tag_474\n      tag_312\n      jump\t// in\n    tag_474:\n        /* \"#utility.yul\":11835:11872   */\n    tag_473:\n        /* \"#utility.yul\":11685:11879   */\n      swap3\n      swap2\n      pop\n      pop\n      jump\t// out\n        /* \"#utility.yul\":11885:12046   */\n    tag_314:\n        /* \"#utility.yul\":12025:12038   */\n      0x5a45524f5f534841524553000000000000000000000000000000000000000000\n        /* \"#utility.yul\":12021:12022   */\n      0x00\n        /* \"#utility.yul\":12013:12019   */\n      dup3\n        /* \"#utility.yul\":12009:12023   */\n      add\n        /* \"#utility.yul\":12002:12039   */\n      mstore\n        /* \"#utility.yul\":11885:12046   */\n      pop\n      jump\t// out\n        /* \"#utility.yul\":12052:12418   */\n    tag_315:\n        /* \"#utility.yul\":12194:12197   */\n      0x00\n        /* \"#utility.yul\":12215:12282   */\n      tag_477\n        /* \"#utility.yul\":12279:12281   */\n      0x0b\n        /* \"#utility.yul\":12274:12277   */\n      dup4\n        /* \"#utility.yul\":12215:12282   */\n      tag_283\n      jump\t// in\n    tag_477:\n        /* \"#utility.yul\":12208:12282   */\n      swap2\n      pop\n        /* \"#utility.yul\":12291:12384   */\n      tag_478\n        /* \"#utility.yul\":12380:12383   */\n      dup3\n        /* \"#utility.yul\":12291:12384   */\n      tag_314\n      jump\t// in\n    tag_478:\n        /* \"#utility.yul\":12409:12411   */\n      0x20\n        /* \"#utility.yul\":12404:12407   */\n      dup3\n        /* \"#utility.yul\":12400:12412   */\n      add\n        /* \"#utility.yul\":12393:12412   */\n      swap1\n      pop\n        /* \"#utility.yul\":12052:12418   */\n      swap2\n      swap1\n      pop\n      jump\t// out\n        /* \"#utility.yul\":12424:12843   */\n    tag_198:\n        /* \"#utility.yul\":12590:12594   */\n      0x00\n        /* \"#utility.yul\":12628:12630   */\n      0x20\n        /* \"#utility.yul\":12617:12626   */\n      dup3\n        /* \"#utility.yul\":12613:12631   */\n      add\n        /* \"#utility.yul\":12605:12631   */\n      swap1\n      pop\n        /* \"#utility.yul\":12677:12686   */\n      dup2\n        /* \"#utility.yul\":12671:12675   */\n      dup2\n        /* \"#utility.yul\":12667:12687   */\n      sub\n        /* \"#utility.yul\":12663:12664   */\n      0x00\n        /* \"#utility.yul\":12652:12661   */\n      dup4\n        /* \"#utility.yul\":12648:12665   */\n      add\n        /* \"#utility.yul\":12641:12688   */\n      mstore\n        /* \"#utility.yul\":12705:12836   */\n      tag_480\n        /* \"#utility.yul\":12831:12835   */\n      dup2\n        /* \"#utility.yul\":12705:12836   */\n      tag_315\n      jump\t// in\n    tag_480:\n        /* \"#utility.yul\":12697:12836   */\n      swap1\n      pop\n        /* \"#utility.yul\":12424:12843   */\n      swap2\n      swap1\n      pop\n      jump\t// out\n        /* \"#utility.yul\":12849:13181   */\n    tag_204:\n        /* \"#utility.yul\":12970:12974   */\n      0x00\n        /* \"#utility.yul\":13008:13010   */\n      0x40\n        /* \"#utility.yul\":12997:13006   */\n      dup3\n        /* \"#utility.yul\":12993:13011   */\n      add\n        /* \"#utility.yul\":12985:13011   */\n      swap1\n      pop\n        /* \"#utility.yul\":13021:13092   */\n      tag_482\n        /* \"#utility.yul\":13089:13090   */\n      0x00\n        /* \"#utility.yul\":13078:13087   */\n      dup4\n        /* \"#utility.yul\":13074:13091   */\n      add\n        /* \"#utility.yul\":13065:13071   */\n      dup6\n        /* \"#utility.yul\":13021:13092   */\n      tag_281\n      jump\t// in\n    tag_482:\n        /* \"#utility.yul\":13102:13174   */\n      tag_483\n        /* \"#utility.yul\":13170:13172   */\n      0x20\n        /* \"#utility.yul\":13159:13168   */\n      dup4\n        /* \"#utility.yul\":13155:13173   */\n      add\n        /* \"#utility.yul\":13146:13152   */\n      dup5\n        /* \"#utility.yul\":13102:13174   */\n      tag_281\n      jump\t// in\n    tag_483:\n        /* \"#utility.yul\":12849:13181   */\n      swap4\n      swap3\n      pop\n      pop\n      pop\n      jump\t// out\n        /* \"#utility.yul\":13187:13360   */\n    tag_316:\n        /* \"#utility.yul\":13327:13352   */\n      0x5045524d49545f444541444c494e455f45585049524544000000000000000000\n        /* \"#utility.yul\":13323:13324   */\n      0x00\n        /* \"#utility.yul\":13315:13321   */\n      dup3\n        /* \"#utility.yul\":13311:13325   */\n      add\n        /* \"#utility.yul\":13304:13353   */\n      mstore\n        /* \"#utility.yul\":13187:13360   */\n      pop\n      jump\t// out\n        /* \"#utility.yul\":13366:13732   */\n    tag_317:\n        /* \"#utility.yul\":13508:13511   */\n      0x00\n        /* \"#utility.yul\":13529:13596   */\n      tag_486\n        /* \"#utility.yul\":13593:13595   */\n      0x17\n        /* \"#utility.yul\":13588:13591   */\n      dup4\n        /* \"#utility.yul\":13529:13596   */\n      tag_283\n      jump\t// in\n    tag_486:\n        /* \"#utility.yul\":13522:13596   */\n      swap2\n      pop\n        /* \"#utility.yul\":13605:13698   */\n      tag_487\n        /* \"#utility.yul\":13694:13697   */\n      dup3\n        /* \"#utility.yul\":13605:13698   */\n      tag_316\n      jump\t// in\n    tag_487:\n        /* \"#utility.yul\":13723:13725   */\n      0x20\n        /* \"#utility.yul\":13718:13721   */\n      dup3\n        /* \"#utility.yul\":13714:13726   */\n      add\n        /* \"#utility.yul\":13707:13726   */\n      swap1\n      pop\n        /* \"#utility.yul\":13366:13732   */\n      swap2\n      swap1\n      pop\n      jump\t// out\n        /* \"#utility.yul\":13738:14157   */\n    tag_238:\n        /* \"#utility.yul\":13904:13908   */\n      0x00\n        /* \"#utility.yul\":13942:13944   */\n      0x20\n        /* \"#utility.yul\":13931:13940   */\n      dup3\n        /* \"#utility.yul\":13927:13945   */\n      add\n        /* \"#utility.yul\":13919:13945   */\n      swap1\n      pop\n        /* \"#utility.yul\":13991:14000   */\n      dup2\n        /* \"#utility.yul\":13985:13989   */\n      dup2\n        /* \"#utility.yul\":13981:14001   */\n      sub\n        /* \"#utility.yul\":13977:13978   */\n      0x00\n        /* \"#utility.yul\":13966:13975   */\n      dup4\n        /* \"#utility.yul\":13962:13979   */\n      add\n        /* \"#utility.yul\":13955:14002   */\n      mstore\n        /* \"#utility.yul\":14019:14150   */\n      tag_489\n        /* \"#utility.yul\":14145:14149   */\n      dup2\n        /* \"#utility.yul\":14019:14150   */\n      tag_317\n      jump\t// in\n    tag_489:\n        /* \"#utility.yul\":14011:14150   */\n      swap1\n      pop\n        /* \"#utility.yul\":13738:14157   */\n      swap2\n      swap1\n      pop\n      jump\t// out\n        /* \"#utility.yul\":14163:14281   */\n    tag_318:\n        /* \"#utility.yul\":14250:14274   */\n      tag_491\n        /* \"#utility.yul\":14268:14273   */\n      dup2\n        /* \"#utility.yul\":14250:14274   */\n      tag_293\n      jump\t// in\n    tag_491:\n        /* \"#utility.yul\":14245:14248   */\n      dup3\n        /* \"#utility.yul\":14238:14275   */\n      mstore\n        /* \"#utility.yul\":14163:14281   */\n      pop\n      pop\n      jump\t// out\n        /* \"#utility.yul\":14287:15062   */\n    tag_241:\n        /* \"#utility.yul\":14520:14524   */\n      0x00\n        /* \"#utility.yul\":14558:14561   */\n      0xc0\n        /* \"#utility.yul\":14547:14556   */\n      dup3\n        /* \"#utility.yul\":14543:14562   */\n      add\n        /* \"#utility.yul\":14535:14562   */\n      swap1\n      pop\n        /* \"#utility.yul\":14572:14643   */\n      tag_493\n        /* \"#utility.yul\":14640:14641   */\n      0x00\n        /* \"#utility.yul\":14629:14638   */\n      dup4\n        /* \"#utility.yul\":14625:14642   */\n      add\n        /* \"#utility.yul\":14616:14622   */\n      dup10\n        /* \"#utility.yul\":14572:14643   */\n      tag_301\n      jump\t// in\n    tag_493:\n        /* \"#utility.yul\":14653:14725   */\n      tag_494\n        /* \"#utility.yul\":14721:14723   */\n      0x20\n        /* \"#utility.yul\":14710:14719   */\n      dup4\n        /* \"#utility.yul\":14706:14724   */\n      add\n        /* \"#utility.yul\":14697:14703   */\n      dup9\n        /* \"#utility.yul\":14653:14725   */\n      tag_318\n      jump\t// in\n    tag_494:\n        /* \"#utility.yul\":14735:14807   */\n      tag_495\n        /* \"#utility.yul\":14803:14805   */\n      0x40\n        /* \"#utility.yul\":14792:14801   */\n      dup4\n        /* \"#utility.yul\":14788:14806   */\n      add\n        /* \"#utility.yul\":14779:14785   */\n      dup8\n        /* \"#utility.yul\":14735:14807   */\n      tag_318\n      jump\t// in\n    tag_495:\n        /* \"#utility.yul\":14817:14889   */\n      tag_496\n        /* \"#utility.yul\":14885:14887   */\n      0x60\n        /* \"#utility.yul\":14874:14883   */\n      dup4\n        /* \"#utility.yul\":14870:14888   */\n      add\n        /* \"#utility.yul\":14861:14867   */\n      dup7\n        /* \"#utility.yul\":14817:14889   */\n      tag_281\n      jump\t// in\n    tag_496:\n        /* \"#utility.yul\":14899:14972   */\n      tag_497\n        /* \"#utility.yul\":14967:14970   */\n      0x80\n        /* \"#utility.yul\":14956:14965   */\n      dup4\n        /* \"#utility.yul\":14952:14971   */\n      add\n        /* \"#utility.yul\":14943:14949   */\n      dup6\n        /* \"#utility.yul\":14899:14972   */\n      tag_281\n      jump\t// in\n    tag_497:\n        /* \"#utility.yul\":14982:15055   */\n      tag_498\n        /* \"#utility.yul\":15050:15053   */\n      0xa0\n        /* \"#utility.yul\":15039:15048   */\n      dup4\n        /* \"#utility.yul\":15035:15054   */\n      add\n        /* \"#utility.yul\":15026:15032   */\n      dup5\n        /* \"#utility.yul\":14982:15055   */\n      tag_281\n      jump\t// in\n    tag_498:\n        /* \"#utility.yul\":14287:15062   */\n      swap8\n      swap7\n      pop\n      pop\n      pop\n      pop\n      pop\n      pop\n      pop\n      jump\t// out\n        /* \"#utility.yul\":15068:15216   */\n    tag_319:\n        /* \"#utility.yul\":15170:15181   */\n      0x00\n        /* \"#utility.yul\":15207:15210   */\n      dup2\n        /* \"#utility.yul\":15192:15210   */\n      swap1\n      pop\n        /* \"#utility.yul\":15068:15216   */\n      swap3\n      swap2\n      pop\n      pop\n      jump\t// out\n        /* \"#utility.yul\":15222:15436   */\n    tag_320:\n        /* \"#utility.yul\":15362:15428   */\n      0x1901000000000000000000000000000000000000000000000000000000000000\n        /* \"#utility.yul\":15358:15359   */\n      0x00\n        /* \"#utility.yul\":15350:15356   */\n      dup3\n        /* \"#utility.yul\":15346:15360   */\n      add\n        /* \"#utility.yul\":15339:15429   */\n      mstore\n        /* \"#utility.yul\":15222:15436   */\n      pop\n      jump\t// out\n        /* \"#utility.yul\":15442:15842   */\n    tag_321:\n        /* \"#utility.yul\":15602:15605   */\n      0x00\n        /* \"#utility.yul\":15623:15707   */\n      tag_502\n        /* \"#utility.yul\":15705:15706   */\n      0x02\n        /* \"#utility.yul\":15700:15703   */\n      dup4\n        /* \"#utility.yul\":15623:15707   */\n      tag_319\n      jump\t// in\n    tag_502:\n        /* \"#utility.yul\":15616:15707   */\n      swap2\n      pop\n        /* \"#utility.yul\":15716:15809   */\n      tag_503\n        /* \"#utility.yul\":15805:15808   */\n      dup3\n        /* \"#utility.yul\":15716:15809   */\n      tag_320\n      jump\t// in\n    tag_503:\n        /* \"#utility.yul\":15834:15835   */\n      0x02\n        /* \"#utility.yul\":15829:15832   */\n      dup3\n        /* \"#utility.yul\":15825:15836   */\n      add\n        /* \"#utility.yul\":15818:15836   */\n      swap1\n      pop\n        /* \"#utility.yul\":15442:15842   */\n      swap2\n      swap1\n      pop\n      jump\t// out\n        /* \"#utility.yul\":15848:15927   */\n    tag_322:\n        /* \"#utility.yul\":15887:15894   */\n      0x00\n        /* \"#utility.yul\":15916:15921   */\n      dup2\n        /* \"#utility.yul\":15905:15921   */\n      swap1\n      pop\n        /* \"#utility.yul\":15848:15927   */\n      swap2\n      swap1\n      pop\n      jump\t// out\n        /* \"#utility.yul\":15933:16090   */\n    tag_323:\n        /* \"#utility.yul\":16038:16083   */\n      tag_506\n        /* \"#utility.yul\":16058:16082   */\n      tag_507\n        /* \"#utility.yul\":16076:16081   */\n      dup3\n        /* \"#utility.yul\":16058:16082   */\n      tag_300\n      jump\t// in\n    tag_507:\n        /* \"#utility.yul\":16038:16083   */\n      tag_322\n      jump\t// in\n    tag_506:\n        /* \"#utility.yul\":16033:16036   */\n      dup3\n        /* \"#utility.yul\":16026:16084   */\n      mstore\n        /* \"#utility.yul\":15933:16090   */\n      pop\n      pop\n      jump\t// out\n        /* \"#utility.yul\":16096:16759   */\n    tag_243:\n        /* \"#utility.yul\":16337:16340   */\n      0x00\n        /* \"#utility.yul\":16359:16507   */\n      tag_509\n        /* \"#utility.yul\":16503:16506   */\n      dup3\n        /* \"#utility.yul\":16359:16507   */\n      tag_321\n      jump\t// in\n    tag_509:\n        /* \"#utility.yul\":16352:16507   */\n      swap2\n      pop\n        /* \"#utility.yul\":16517:16592   */\n      tag_510\n        /* \"#utility.yul\":16588:16591   */\n      dup3\n        /* \"#utility.yul\":16579:16585   */\n      dup6\n        /* \"#utility.yul\":16517:16592   */\n      tag_323\n      jump\t// in\n    tag_510:\n        /* \"#utility.yul\":16617:16619   */\n      0x20\n        /* \"#utility.yul\":16612:16615   */\n      dup3\n        /* \"#utility.yul\":16608:16620   */\n      add\n        /* \"#utility.yul\":16601:16620   */\n      swap2\n      pop\n        /* \"#utility.yul\":16630:16705   */\n      tag_511\n        /* \"#utility.yul\":16701:16704   */\n      dup3\n        /* \"#utility.yul\":16692:16698   */\n      dup5\n        /* \"#utility.yul\":16630:16705   */\n      tag_323\n      jump\t// in\n    tag_511:\n        /* \"#utility.yul\":16730:16732   */\n      0x20\n        /* \"#utility.yul\":16725:16728   */\n      dup3\n        /* \"#utility.yul\":16721:16733   */\n      add\n        /* \"#utility.yul\":16714:16733   */\n      swap2\n      pop\n        /* \"#utility.yul\":16750:16753   */\n      dup2\n        /* \"#utility.yul\":16743:16753   */\n      swap1\n      pop\n        /* \"#utility.yul\":16096:16759   */\n      swap4\n      swap3\n      pop\n      pop\n      pop\n      jump\t// out\n        /* \"#utility.yul\":16765:17310   */\n    tag_245:\n        /* \"#utility.yul\":16938:16942   */\n      0x00\n        /* \"#utility.yul\":16976:16979   */\n      0x80\n        /* \"#utility.yul\":16965:16974   */\n      dup3\n        /* \"#utility.yul\":16961:16980   */\n      add\n        /* \"#utility.yul\":16953:16980   */\n      swap1\n      pop\n        /* \"#utility.yul\":16990:17061   */\n      tag_513\n        /* \"#utility.yul\":17058:17059   */\n      0x00\n        /* \"#utility.yul\":17047:17056   */\n      dup4\n        /* \"#utility.yul\":17043:17060   */\n      add\n        /* \"#utility.yul\":17034:17040   */\n      dup8\n        /* \"#utility.yul\":16990:17061   */\n      tag_301\n      jump\t// in\n    tag_513:\n        /* \"#utility.yul\":17071:17139   */\n      tag_514\n        /* \"#utility.yul\":17135:17137   */\n      0x20\n        /* \"#utility.yul\":17124:17133   */\n      dup4\n        /* \"#utility.yul\":17120:17138   */\n      add\n        /* \"#utility.yul\":17111:17117   */\n      dup7\n        /* \"#utility.yul\":17071:17139   */\n      tag_299\n      jump\t// in\n    tag_514:\n        /* \"#utility.yul\":17149:17221   */\n      tag_515\n        /* \"#utility.yul\":17217:17219   */\n      0x40\n        /* \"#utility.yul\":17206:17215   */\n      dup4\n        /* \"#utility.yul\":17202:17220   */\n      add\n        /* \"#utility.yul\":17193:17199   */\n      dup6\n        /* \"#utility.yul\":17149:17221   */\n      tag_301\n      jump\t// in\n    tag_515:\n        /* \"#utility.yul\":17231:17303   */\n      tag_516\n        /* \"#utility.yul\":17299:17301   */\n      0x60\n        /* \"#utility.yul\":17288:17297   */\n      dup4\n        /* \"#utility.yul\":17284:17302   */\n      add\n        /* \"#utility.yul\":17275:17281   */\n      dup5\n        /* \"#utility.yul\":17231:17303   */\n      tag_301\n      jump\t// in\n    tag_516:\n        /* \"#utility.yul\":16765:17310   */\n      swap6\n      swap5\n      pop\n      pop\n      pop\n      pop\n      pop\n      jump\t// out\n        /* \"#utility.yul\":17316:17480   */\n    tag_324:\n        /* \"#utility.yul\":17456:17472   */\n      0x494e56414c49445f5349474e4552000000000000000000000000000000000000\n        /* \"#utility.yul\":17452:17453   */\n      0x00\n        /* \"#utility.yul\":17444:17450   */\n      dup3\n        /* \"#utility.yul\":17440:17454   */\n      add\n        /* \"#utility.yul\":17433:17473   */\n      mstore\n        /* \"#utility.yul\":17316:17480   */\n      pop\n      jump\t// out\n        /* \"#utility.yul\":17486:17852   */\n    tag_325:\n        /* \"#utility.yul\":17628:17631   */\n      0x00\n        /* \"#utility.yul\":17649:17716   */\n      tag_519\n        /* \"#utility.yul\":17713:17715   */\n      0x0e\n        /* \"#utility.yul\":17708:17711   */\n      dup4\n        /* \"#utility.yul\":17649:17716   */\n      tag_283\n      jump\t// in\n    tag_519:\n        /* \"#utility.yul\":17642:17716   */\n      swap2\n      pop\n        /* \"#utility.yul\":17725:17818   */\n      tag_520\n        /* \"#utility.yul\":17814:17817   */\n      dup3\n        /* \"#utility.yul\":17725:17818   */\n      tag_324\n      jump\t// in\n    tag_520:\n        /* \"#utility.yul\":17843:17845   */\n      0x20\n        /* \"#utility.yul\":17838:17841   */\n      dup3\n        /* \"#utility.yul\":17834:17846   */\n      add\n        /* \"#utility.yul\":17827:17846   */\n      swap1\n      pop\n        /* \"#utility.yul\":17486:17852   */\n      swap2\n      swap1\n      pop\n      jump\t// out\n        /* \"#utility.yul\":17858:18277   */\n    tag_251:\n        /* \"#utility.yul\":18024:18028   */\n      0x00\n        /* \"#utility.yul\":18062:18064   */\n      0x20\n        /* \"#utility.yul\":18051:18060   */\n      dup3\n        /* \"#utility.yul\":18047:18065   */\n      add\n        /* \"#utility.yul\":18039:18065   */\n      swap1\n      pop\n        /* \"#utility.yul\":18111:18120   */\n      dup2\n        /* \"#utility.yul\":18105:18109   */\n      dup2\n        /* \"#utility.yul\":18101:18121   */\n      sub\n        /* \"#utility.yul\":18097:18098   */\n      0x00\n        /* \"#utility.yul\":18086:18095   */\n      dup4\n        /* \"#utility.yul\":18082:18099   */\n      add\n        /* \"#utility.yul\":18075:18122   */\n      mstore\n        /* \"#utility.yul\":18139:18270   */\n      tag_522\n        /* \"#utility.yul\":18265:18269   */\n      dup2\n        /* \"#utility.yul\":18139:18270   */\n      tag_325\n      jump\t// in\n    tag_522:\n        /* \"#utility.yul\":18131:18270   */\n      swap1\n      pop\n        /* \"#utility.yul\":17858:18277   */\n      swap2\n      swap1\n      pop\n      jump\t// out\n        /* \"#utility.yul\":18283:18446   */\n    tag_326:\n        /* \"#utility.yul\":18423:18438   */\n      0x4469766973696f6e206279203000000000000000000000000000000000000000\n        /* \"#utility.yul\":18419:18420   */\n      0x00\n        /* \"#utility.yul\":18411:18417   */\n      dup3\n        /* \"#utility.yul\":18407:18421   */\n      add\n        /* \"#utility.yul\":18400:18439   */\n      mstore\n        /* \"#utility.yul\":18283:18446   */\n      pop\n      jump\t// out\n        /* \"#utility.yul\":18452:18818   */\n    tag_327:\n        /* \"#utility.yul\":18594:18597   */\n      0x00\n        /* \"#utility.yul\":18615:18682   */\n      tag_525\n        /* \"#utility.yul\":18679:18681   */\n      0x0d\n        /* \"#utility.yul\":18674:18677   */\n      dup4\n        /* \"#utility.yul\":18615:18682   */\n      tag_283\n      jump\t// in\n    tag_525:\n        /* \"#utility.yul\":18608:18682   */\n      swap2\n      pop\n        /* \"#utility.yul\":18691:18784   */\n      tag_526\n        /* \"#utility.yul\":18780:18783   */\n      dup3\n        /* \"#utility.yul\":18691:18784   */\n      tag_326\n      jump\t// in\n    tag_526:\n        /* \"#utility.yul\":18809:18811   */\n      0x20\n        /* \"#utility.yul\":18804:18807   */\n      dup3\n        /* \"#utility.yul\":18800:18812   */\n      add\n        /* \"#utility.yul\":18793:18812   */\n      swap1\n      pop\n        /* \"#utility.yul\":18452:18818   */\n      swap2\n      swap1\n      pop\n      jump\t// out\n        /* \"#utility.yul\":18824:19243   */\n    tag_259:\n        /* \"#utility.yul\":18990:18994   */\n      0x00\n        /* \"#utility.yul\":19028:19030   */\n      0x20\n        /* \"#utility.yul\":19017:19026   */\n      dup3\n        /* \"#utility.yul\":19013:19031   */\n      add\n        /* \"#utility.yul\":19005:19031   */\n      swap1\n      pop\n        /* \"#utility.yul\":19077:19086   */\n      dup2\n        /* \"#utility.yul\":19071:19075   */\n      dup2\n        /* \"#utility.yul\":19067:19087   */\n      sub\n        /* \"#utility.yul\":19063:19064   */\n      0x00\n        /* \"#utility.yul\":19052:19061   */\n      dup4\n        /* \"#utility.yul\":19048:19065   */\n      add\n        /* \"#utility.yul\":19041:19088   */\n      mstore\n        /* \"#utility.yul\":19105:19236   */\n      tag_528\n        /* \"#utility.yul\":19231:19235   */\n      dup2\n        /* \"#utility.yul\":19105:19236   */\n      tag_327\n      jump\t// in\n    tag_528:\n        /* \"#utility.yul\":19097:19236   */\n      swap1\n      pop\n        /* \"#utility.yul\":18824:19243   */\n      swap2\n      swap1\n      pop\n      jump\t// out\n        /* \"#utility.yul\":19249:19425   */\n    tag_262:\n        /* \"#utility.yul\":19281:19282   */\n      0x00\n        /* \"#utility.yul\":19298:19318   */\n      tag_530\n        /* \"#utility.yul\":19316:19317   */\n      dup3\n        /* \"#utility.yul\":19298:19318   */\n      tag_280\n      jump\t// in\n    tag_530:\n        /* \"#utility.yul\":19293:19318   */\n      swap2\n      pop\n        /* \"#utility.yul\":19332:19352   */\n      tag_531\n        /* \"#utility.yul\":19350:19351   */\n      dup4\n        /* \"#utility.yul\":19332:19352   */\n      tag_280\n      jump\t// in\n    tag_531:\n        /* \"#utility.yul\":19327:19352   */\n      swap3\n      pop\n        /* \"#utility.yul\":19371:19372   */\n      dup3\n        /* \"#utility.yul\":19361:19396   */\n      tag_532\n      jumpi\n        /* \"#utility.yul\":19376:19394   */\n      tag_533\n      tag_313\n      jump\t// in\n    tag_533:\n        /* \"#utility.yul\":19361:19396   */\n    tag_532:\n        /* \"#utility.yul\":19417:19418   */\n      dup3\n        /* \"#utility.yul\":19414:19415   */\n      dup3\n        /* \"#utility.yul\":19410:19419   */\n      mod\n        /* \"#utility.yul\":19405:19419   */\n      swap1\n      pop\n        /* \"#utility.yul\":19249:19425   */\n      swap3\n      swap2\n      pop\n      pop\n      jump\t// out\n        /* \"#utility.yul\":19431:19664   */\n    tag_265:\n        /* \"#utility.yul\":19470:19473   */\n      0x00\n        /* \"#utility.yul\":19493:19517   */\n      tag_535\n        /* \"#utility.yul\":19511:19516   */\n      dup3\n        /* \"#utility.yul\":19493:19517   */\n      tag_280\n      jump\t// in\n    tag_535:\n        /* \"#utility.yul\":19484:19517   */\n      swap2\n      pop\n        /* \"#utility.yul\":19539:19605   */\n      0xffffffffffffffffffffffffffffffffffffffffffffffffffffffffffffffff\n        /* \"#utility.yul\":19532:19537   */\n      dup3\n        /* \"#utility.yul\":19529:19606   */\n      sub\n        /* \"#utility.yul\":19526:19629   */\n      tag_536\n      jumpi\n        /* \"#utility.yul\":19609:19627   */\n      tag_537\n      tag_312\n      jump\t// in\n    tag_537:\n        /* \"#utility.yul\":19526:19629   */\n    tag_536:\n        /* \"#utility.yul\":19656:19657   */\n      0x01\n        /* \"#utility.yul\":19649:19654   */\n      dup3\n        /* \"#utility.yul\":19645:19658   */\n      add\n        /* \"#utility.yul\":19638:19658   */\n      swap1\n      pop\n        /* \"#utility.yul\":19431:19664   */\n      swap2\n      swap1\n      pop\n      jump\t// out\n        /* \"#utility.yul\":19670:19817   */\n    tag_328:\n        /* \"#utility.yul\":19771:19782   */\n      0x00\n        /* \"#utility.yul\":19808:19811   */\n      dup2\n        /* \"#utility.yul\":19793:19811   */\n      swap1\n      pop\n        /* \"#utility.yul\":19670:19817   */\n      swap3\n      swap2\n      pop\n      pop\n      jump\t// out\n        /* \"#utility.yul\":19823:19967   */\n    tag_329:\n        /* \"#utility.yul\":19875:19879   */\n      0x00\n        /* \"#utility.yul\":19898:19901   */\n      dup2\n        /* \"#utility.yul\":19890:19901   */\n      swap1\n      pop\n        /* \"#utility.yul\":19921:19924   */\n      dup2\n        /* \"#utility.yul\":19918:19919   */\n      0x00\n        /* \"#utility.yul\":19911:19925   */\n      mstore\n        /* \"#utility.yul\":19955:19959   */\n      0x20\n        /* \"#utility.yul\":19952:19953   */\n      0x00\n        /* \"#utility.yul\":19942:19960   */\n      keccak256\n        /* \"#utility.yul\":19934:19960   */\n      swap1\n      pop\n        /* \"#utility.yul\":19823:19967   */\n      swap2\n      swap1\n      pop\n      jump\t// out\n        /* \"#utility.yul\":19995:20873   */\n    tag_330:\n        /* \"#utility.yul\":20100:20103   */\n      0x00\n        /* \"#utility.yul\":20137:20142   */\n      dup2\n        /* \"#utility.yul\":20131:20143   */\n      sload\n        /* \"#utility.yul\":20166:20202   */\n      tag_541\n        /* \"#utility.yul\":20192:20201   */\n      dup2\n        /* \"#utility.yul\":20166:20202   */\n      tag_162\n      jump\t// in\n    tag_541:\n        /* \"#utility.yul\":20218:20306   */\n      tag_542\n        /* \"#utility.yul\":20299:20305   */\n      dup2\n        /* \"#utility.yul\":20294:20297   */\n      dup7\n        /* \"#utility.yul\":20218:20306   */\n      tag_328\n      jump\t// in\n    tag_542:\n        /* \"#utility.yul\":20211:20306   */\n      swap5\n      pop\n        /* \"#utility.yul\":20337:20338   */\n      0x01\n        /* \"#utility.yul\":20326:20335   */\n      dup3\n        /* \"#utility.yul\":20322:20339   */\n      and\n        /* \"#utility.yul\":20353:20354   */\n      0x00\n        /* \"#utility.yul\":20348:20514   */\n      dup2\n      eq\n      tag_544\n      jumpi\n        /* \"#utility.yul\":20528:20529   */\n      0x01\n        /* \"#utility.yul\":20523:20867   */\n      dup2\n      eq\n      tag_545\n      jumpi\n        /* \"#utility.yul\":20315:20867   */\n      jump(tag_543)\n        /* \"#utility.yul\":20348:20514   */\n    tag_544:\n        /* \"#utility.yul\":20432:20436   */\n      0xff\n        /* \"#utility.yul\":20428:20437   */\n      not\n        /* \"#utility.yul\":20417:20426   */\n      dup4\n        /* \"#utility.yul\":20413:20438   */\n      and\n        /* \"#utility.yul\":20408:20411   */\n      dup7\n        /* \"#utility.yul\":20401:20439   */\n      mstore\n        /* \"#utility.yul\":20494:20500   */\n      dup2\n        /* \"#utility.yul\":20487:20501   */\n      iszero\n        /* \"#utility.yul\":20480:20502   */\n      iszero\n        /* \"#utility.yul\":20472:20478   */\n      dup3\n        /* \"#utility.yul\":20468:20503   */\n      mul\n        /* \"#utility.yul\":20463:20466   */\n      dup7\n        /* \"#utility.yul\":20459:20504   */\n      add\n        /* \"#utility.yul\":20452:20504   */\n      swap4\n      pop\n        /* \"#utility.yul\":20348:20514   */\n      jump(tag_543)\n        /* \"#utility.yul\":20523:20867   */\n    tag_545:\n        /* \"#utility.yul\":20590:20631   */\n      tag_546\n        /* \"#utility.yul\":20625:20630   */\n      dup6\n        /* \"#utility.yul\":20590:20631   */\n      tag_329\n      jump\t// in\n    tag_546:\n        /* \"#utility.yul\":20653:20654   */\n      0x00\n        /* \"#utility.yul\":20667:20821   */\n    tag_547:\n        /* \"#utility.yul\":20681:20687   */\n      dup4\n        /* \"#utility.yul\":20678:20679   */\n      dup2\n        /* \"#utility.yul\":20675:20688   */\n      lt\n        /* \"#utility.yul\":20667:20821   */\n      iszero\n      tag_549\n      jumpi\n        /* \"#utility.yul\":20755:20762   */\n      dup2\n        /* \"#utility.yul\":20749:20763   */\n      sload\n        /* \"#utility.yul\":20745:20746   */\n      dup2\n        /* \"#utility.yul\":20740:20743   */\n      dup10\n        /* \"#utility.yul\":20736:20747   */\n      add\n        /* \"#utility.yul\":20729:20764   */\n      mstore\n        /* \"#utility.yul\":20805:20806   */\n      0x01\n        /* \"#utility.yul\":20796:20803   */\n      dup3\n        /* \"#utility.yul\":20792:20807   */\n      add\n        /* \"#utility.yul\":20781:20807   */\n      swap2\n      pop\n        /* \"#utility.yul\":20703:20707   */\n      0x20\n        /* \"#utility.yul\":20700:20701   */\n      dup2\n        /* \"#utility.yul\":20696:20708   */\n      add\n        /* \"#utility.yul\":20691:20708   */\n      swap1\n      pop\n        /* \"#utility.yul\":20667:20821   */\n      jump(tag_547)\n    tag_549:\n        /* \"#utility.yul\":20850:20856   */\n      dup4\n        /* \"#utility.yul\":20845:20848   */\n      dup9\n        /* \"#utility.yul\":20841:20857   */\n      add\n        /* \"#utility.yul\":20834:20857   */\n      swap6\n      pop\n        /* \"#utility.yul\":20530:20867   */\n      pop\n      pop\n        /* \"#utility.yul\":20315:20867   */\n    tag_543:\n      pop\n        /* \"#utility.yul\":20104:20873   */\n      pop\n      pop\n        /* \"#utility.yul\":19995:20873   */\n      swap3\n      swap2\n      pop\n      pop\n      jump\t// out\n        /* \"#utility.yul\":20879:21152   */\n    tag_268:\n        /* \"#utility.yul\":21010:21013   */\n      0x00\n        /* \"#utility.yul\":21032:21126   */\n      tag_551\n        /* \"#utility.yul\":21122:21125   */\n      dup3\n        /* \"#utility.yul\":21113:21119   */\n      dup5\n        /* \"#utility.yul\":21032:21126   */\n      tag_330\n      jump\t// in\n    tag_551:\n        /* \"#utility.yul\":21025:21126   */\n      swap2\n      pop\n        /* \"#utility.yul\":21143:21146   */\n      dup2\n        /* \"#utility.yul\":21136:21146   */\n      swap1\n      pop\n        /* \"#utility.yul\":20879:21152   */\n      swap3\n      swap2\n      pop\n      pop\n      jump\t// out\n        /* \"#utility.yul\":21158:21822   */\n    tag_270:\n        /* \"#utility.yul\":21363:21367   */\n      0x00\n        /* \"#utility.yul\":21401:21404   */\n      0xa0\n        /* \"#utility.yul\":21390:21399   */\n      dup3\n        /* \"#utility.yul\":21386:21405   */\n      add\n        /* \"#utility.yul\":21378:21405   */\n      swap1\n      pop\n        /* \"#utility.yul\":21415:21486   */\n      tag_553\n        /* \"#utility.yul\":21483:21484   */\n      0x00\n        /* \"#utility.yul\":21472:21481   */\n      dup4\n        /* \"#utility.yul\":21468:21485   */\n      add\n        /* \"#utility.yul\":21459:21465   */\n      dup9\n        /* \"#utility.yul\":21415:21486   */\n      tag_301\n      jump\t// in\n    tag_553:\n        /* \"#utility.yul\":21496:21568   */\n      tag_554\n        /* \"#utility.yul\":21564:21566   */\n      0x20\n        /* \"#utility.yul\":21553:21562   */\n      dup4\n        /* \"#utility.yul\":21549:21567   */\n      add\n        /* \"#utility.yul\":21540:21546   */\n      dup8\n        /* \"#utility.yul\":21496:21568   */\n      tag_301\n      jump\t// in\n    tag_554:\n        /* \"#utility.yul\":21578:21650   */\n      tag_555\n        /* \"#utility.yul\":21646:21648   */\n      0x40\n        /* \"#utility.yul\":21635:21644   */\n      dup4\n        /* \"#utility.yul\":21631:21649   */\n      add\n        /* \"#utility.yul\":21622:21628   */\n      dup7\n        /* \"#utility.yul\":21578:21650   */\n      tag_301\n      jump\t// in\n    tag_555:\n        /* \"#utility.yul\":21660:21732   */\n      tag_556\n        /* \"#utility.yul\":21728:21730   */\n      0x60\n        /* \"#utility.yul\":21717:21726   */\n      dup4\n        /* \"#utility.yul\":21713:21731   */\n      add\n        /* \"#utility.yul\":21704:21710   */\n      dup6\n        /* \"#utility.yul\":21660:21732   */\n      tag_281\n      jump\t// in\n    tag_556:\n        /* \"#utility.yul\":21742:21815   */\n      tag_557\n        /* \"#utility.yul\":21810:21813   */\n      0x80\n        /* \"#utility.yul\":21799:21808   */\n      dup4\n        /* \"#utility.yul\":21795:21814   */\n      add\n        /* \"#utility.yul\":21786:21792   */\n      dup5\n        /* \"#utility.yul\":21742:21815   */\n      tag_318\n      jump\t// in\n    tag_557:\n        /* \"#utility.yul\":21158:21822   */\n      swap7\n      swap6\n      pop\n      pop\n      pop\n      pop\n      pop\n      pop\n      jump\t// out\n        /* \"#utility.yul\":21828:21998   */\n    tag_331:\n        /* \"#utility.yul\":21968:21990   */\n      0x5452414e534645525f46524f4d5f4641494c4544000000000000000000000000\n        /* \"#utility.yul\":21964:21965   */\n      0x00\n        /* \"#utility.yul\":21956:21962   */\n      dup3\n        /* \"#utility.yul\":21952:21966   */\n      add\n        /* \"#utility.yul\":21945:21991   */\n      mstore\n        /* \"#utility.yul\":21828:21998   */\n      pop\n      jump\t// out\n        /* \"#utility.yul\":22004:22370   */\n    tag_332:\n        /* \"#utility.yul\":22146:22149   */\n      0x00\n        /* \"#utility.yul\":22167:22234   */\n      tag_560\n        /* \"#utility.yul\":22231:22233   */\n      0x14\n        /* \"#utility.yul\":22226:22229   */\n      dup4\n        /* \"#utility.yul\":22167:22234   */\n      tag_283\n      jump\t// in\n    tag_560:\n        /* \"#utility.yul\":22160:22234   */\n      swap2\n      pop\n        /* \"#utility.yul\":22243:22336   */\n      tag_561\n        /* \"#utility.yul\":22332:22335   */\n      dup3\n        /* \"#utility.yul\":22243:22336   */\n      tag_331\n      jump\t// in\n    tag_561:\n        /* \"#utility.yul\":22361:22363   */\n      0x20\n        /* \"#utility.yul\":22356:22359   */\n      dup3\n        /* \"#utility.yul\":22352:22364   */\n      add\n        /* \"#utility.yul\":22345:22364   */\n      swap1\n      pop\n        /* \"#utility.yul\":22004:22370   */\n      swap2\n      swap1\n      pop\n      jump\t// out\n        /* \"#utility.yul\":22376:22795   */\n    tag_274:\n        /* \"#utility.yul\":22542:22546   */\n      0x00\n        /* \"#utility.yul\":22580:22582   */\n      0x20\n        /* \"#utility.yul\":22569:22578   */\n      dup3\n        /* \"#utility.yul\":22565:22583   */\n      add\n        /* \"#utility.yul\":22557:22583   */\n      swap1\n      pop\n        /* \"#utility.yul\":22629:22638   */\n      dup2\n        /* \"#utility.yul\":22623:22627   */\n      dup2\n        /* \"#utility.yul\":22619:22639   */\n      sub\n        /* \"#utility.yul\":22615:22616   */\n      0x00\n        /* \"#utility.yul\":22604:22613   */\n      dup4\n        /* \"#utility.yul\":22600:22617   */\n      add\n        /* \"#utility.yul\":22593:22640   */\n      mstore\n        /* \"#utility.yul\":22657:22788   */\n      tag_563\n        /* \"#utility.yul\":22783:22787   */\n      dup2\n        /* \"#utility.yul\":22657:22788   */\n      tag_332\n      jump\t// in\n    tag_563:\n        /* \"#utility.yul\":22649:22788   */\n      swap1\n      pop\n        /* \"#utility.yul\":22376:22795   */\n      swap2\n      swap1\n      pop\n      jump\t// out\n        /* \"#utility.yul\":22801:22992   */\n    tag_277:\n        /* \"#utility.yul\":22841:22844   */\n      0x00\n        /* \"#utility.yul\":22860:22880   */\n      tag_565\n        /* \"#utility.yul\":22878:22879   */\n      dup3\n        /* \"#utility.yul\":22860:22880   */\n      tag_280\n      jump\t// in\n    tag_565:\n        /* \"#utility.yul\":22855:22880   */\n      swap2\n      pop\n        /* \"#utility.yul\":22894:22914   */\n      tag_566\n        /* \"#utility.yul\":22912:22913   */\n      dup4\n        /* \"#utility.yul\":22894:22914   */\n      tag_280\n      jump\t// in\n    tag_566:\n        /* \"#utility.yul\":22889:22914   */\n      swap3\n      pop\n        /* \"#utility.yul\":22937:22938   */\n      dup3\n        /* \"#utility.yul\":22934:22935   */\n      dup3\n        /* \"#utility.yul\":22930:22939   */\n      add\n        /* \"#utility.yul\":22923:22939   */\n      swap1\n      pop\n        /* \"#utility.yul\":22958:22961   */\n      dup1\n        /* \"#utility.yul\":22955:22956   */\n      dup3\n        /* \"#utility.yul\":22952:22962   */\n      gt\n        /* \"#utility.yul\":22949:22985   */\n      iszero\n      tag_567\n      jumpi\n        /* \"#utility.yul\":22965:22983   */\n      tag_568\n      tag_312\n      jump\t// in\n    tag_568:\n        /* \"#utility.yul\":22949:22985   */\n    tag_567:\n        /* \"#utility.yul\":22801:22992   */\n      swap3\n      swap2\n      pop\n      pop\n      jump\t// out\n\n    auxdata: 0xa264697066735822122026356f62d42bbf40e2df60f0309add4a25cb7a159661afd59ba656ca489f81d264736f6c63430008110033\n}\n",
				"bytecode": {
					"linkReferences": {},
					"object": "6101006040523480156200001257600080fd5b5060405162002cb438038062002cb48339818101604052810190620000389190620003df565b82828281818473ffffffffffffffffffffffffffffffffffffffff1663313ce5676040518163ffffffff1660e01b8152600401602060405180830381865afa15801562000089573d6000803e3d6000fd5b505050506040513d601f19601f82011682018060405250810190620000af9190620004b7565b8260009081620000c0919062000734565b508160019081620000d2919062000734565b508060ff1660808160ff16815250504660a08181525050620000f96200014360201b60201c565b60c081815250505050508273ffffffffffffffffffffffffffffffffffffffff1660e08173ffffffffffffffffffffffffffffffffffffffff16815250505050505050506200097d565b60007f8b73c3c69bb8fe3d512ecc4cf759cc79239f7b179b0ffacaa9a75d522b39400f6000604051620001779190620008ca565b60405180910390207fc89efdaa54c0f20c7adf612882df0950f5a951637e0307cdcb4c672f298b8bc64630604051602001620001b895949392919062000920565b60405160208183030381529060405280519060200120905090565b6000604051905090565b600080fd5b600080fd5b600073ffffffffffffffffffffffffffffffffffffffff82169050919050565b60006200021482620001e7565b9050919050565b6000620002288262000207565b9050919050565b6200023a816200021b565b81146200024657600080fd5b50565b6000815190506200025a816200022f565b92915050565b600080fd5b600080fd5b6000601f19601f8301169050919050565b7f4e487b7100000000000000000000000000000000000000000000000000000000600052604160045260246000fd5b620002b5826200026a565b810181811067ffffffffffffffff82111715620002d757620002d66200027b565b5b80604052505050565b6000620002ec620001d3565b9050620002fa8282620002aa565b919050565b600067ffffffffffffffff8211156200031d576200031c6200027b565b5b62000328826200026a565b9050602081019050919050565b60005b838110156200035557808201518184015260208101905062000338565b60008484015250505050565b6000620003786200037284620002ff565b620002e0565b90508281526020810184848401111562000397576200039662000265565b5b620003a484828562000335565b509392505050565b600082601f830112620003c457620003c362000260565b5b8151620003d684826020860162000361565b91505092915050565b600080600060608486031215620003fb57620003fa620001dd565b5b60006200040b8682870162000249565b935050602084015167ffffffffffffffff8111156200042f576200042e620001e2565b5b6200043d86828701620003ac565b925050604084015167ffffffffffffffff811115620004615762000460620001e2565b5b6200046f86828701620003ac565b9150509250925092565b600060ff82169050919050565b620004918162000479565b81146200049d57600080fd5b50565b600081519050620004b18162000486565b92915050565b600060208284031215620004d057620004cf620001dd565b5b6000620004e084828501620004a0565b91505092915050565b600081519050919050565b7f4e487b7100000000000000000000000000000000000000000000000000000000600052602260045260246000fd5b600060028204905060018216806200053c57607f821691505b602082108103620005525762000551620004f4565b5b50919050565b60008190508160005260206000209050919050565b60006020601f8301049050919050565b600082821b905092915050565b600060088302620005bc7fffffffffffffffffffffffffffffffffffffffffffffffffffffffffffffffff826200057d565b620005c886836200057d565b95508019841693508086168417925050509392505050565b6000819050919050565b6000819050919050565b6000620006156200060f6200060984620005e0565b620005ea565b620005e0565b9050919050565b6000819050919050565b6200063183620005f4565b6200064962000640826200061c565b8484546200058a565b825550505050565b600090565b6200066062000651565b6200066d81848462000626565b505050565b5b8181101562000695576200068960008262000656565b60018101905062000673565b5050565b601f821115620006e457620006ae8162000558565b620006b9846200056d565b81016020851015620006c9578190505b620006e1620006d8856200056d565b83018262000672565b50505b505050565b600082821c905092915050565b60006200070960001984600802620006e9565b1980831691505092915050565b6000620007248383620006f6565b9150826002028217905092915050565b6200073f82620004e9565b67ffffffffffffffff8111156200075b576200075a6200027b565b5b62000767825462000523565b6200077482828562000699565b600060209050601f831160018114620007ac576000841562000797578287015190505b620007a3858262000716565b86555062000813565b601f198416620007bc8662000558565b60005b82811015620007e657848901518255600182019150602085019450602081019050620007bf565b8683101562000806578489015162000802601f891682620006f6565b8355505b6001600288020188555050505b505050505050565b600081905092915050565b60008190508160005260206000209050919050565b600081546200084a8162000523565b6200085681866200081b565b945060018216600081146200087457600181146200088a57620008c1565b60ff1983168652811515820286019350620008c1565b620008958562000826565b60005b83811015620008b95781548189015260018201915060208101905062000898565b838801955050505b50505092915050565b6000620008d882846200083b565b915081905092915050565b6000819050919050565b620008f881620008e3565b82525050565b6200090981620005e0565b82525050565b6200091a8162000207565b82525050565b600060a082019050620009376000830188620008ed565b620009466020830187620008ed565b620009556040830186620008ed565b620009646060830185620008fe565b6200097360808301846200090f565b9695505050505050565b60805160a05160c05160e0516122f6620009be60003960008181610ba00152610c7401526000610b7901526000610b4501526000610b1f01526122f66000f3fe608060405234801561001057600080fd5b50600436106101cf5760003560e01c80637ecebe0011610104578063c63d75b6116100a2578063d905777e11610071578063d905777e146105f2578063dd62ed3e14610622578063ef8b30f714610652578063fc0c546a14610682576101cf565b8063c63d75b614610546578063c6e6f59214610576578063ce96cb77146105a6578063d505accf146105d6576101cf565b8063a9059cbb116100de578063a9059cbb14610486578063b3d7f6b9146104b6578063b460af94146104e6578063ba08765214610516576101cf565b80637ecebe001461040857806394bf804d1461043857806395d89b4114610468576101cf565b8063313ce56711610171578063402d267d1161014b578063402d267d146103485780634cdad506146103785780636e553f65146103a857806370a08231146103d8576101cf565b8063313ce567146102ee5780633644e5151461030c57806338d52e0f1461032a576101cf565b8063095ea7b3116101ad578063095ea7b3146102405780630a28a4771461027057806318160ddd146102a057806323b872dd146102be576101cf565b806301e1d114146101d457806306fdde03146101f257806307a2d13a14610210575b600080fd5b6101dc6106a0565b6040516101e991906116c7565b60405180910390f35b6101fa6106a5565b6040516102079190611772565b60405180910390f35b61022a600480360381019061022591906117c5565b610733565b60405161023791906116c7565b60405180910390f35b61025a60048036038101906102559190611850565b610769565b60405161026791906118ab565b60405180910390f35b61028a600480360381019061028591906117c5565b61085b565b60405161029791906116c7565b60405180910390f35b6102a86108cd565b6040516102b591906116c7565b60405180910390f35b6102d860048036038101906102d391906118c6565b6108d3565b6040516102e591906118ab565b60405180910390f35b6102f6610b1d565b6040516103039190611935565b60405180910390f35b610314610b41565b6040516103219190611969565b60405180910390f35b610332610b9e565b60405161033f91906119e3565b60405180910390f35b610362600480360381019061035d91906119fe565b610bc2565b60405161036f91906116c7565b60405180910390f35b610392600480360381019061038d91906117c5565b610c0b565b60405161039f91906116c7565b60405180910390f35b6103c260048036038101906103bd9190611a2b565b610c1d565b6040516103cf91906116c7565b60405180910390f35b6103f260048036038101906103ed91906119fe565b610d3a565b6040516103ff91906116c7565b60405180910390f35b610422600480360381019061041d91906119fe565b610d52565b60405161042f91906116c7565b60405180910390f35b610452600480360381019061044d9190611a2b565b610d6a565b60405161045f91906116c7565b60405180910390f35b610470610d88565b60405161047d9190611772565b60405180910390f35b6104a0600480360381019061049b9190611850565b610e16565b6040516104ad91906118ab565b60405180910390f35b6104d060048036038101906104cb91906117c5565b610f2a565b6040516104dd91906116c7565b60405180910390f35b61050060048036038101906104fb9190611a6b565b610f9b565b60405161050d91906116c7565b60405180910390f35b610530600480360381019061052b9190611a6b565b610faf565b60405161053d91906116c7565b60405180910390f35b610560600480360381019061055b91906119fe565b610fb8565b60405161056d91906116c7565b60405180910390f35b610590600480360381019061058b91906117c5565b611009565b60405161059d91906116c7565b60405180910390f35b6105c060048036038101906105bb91906119fe565b61103f565b6040516105cd91906116c7565b60405180910390f35b6105f060048036038101906105eb9190611b16565b611090565b005b61060c600480360381019061060791906119fe565b611389565b60405161061991906116c7565b60405180910390f35b61063c60048036038101906106379190611bb8565b6113d2565b60405161064991906116c7565b60405180910390f35b61066c600480360381019061066791906117c5565b6113f7565b60405161067991906116c7565b60405180910390f35b61068a611409565b60405161069791906119e3565b60405180910390f35b600090565b600080546106b290611c27565b80601f01602080910402602001604051908101604052809291908181526020018280546106de90611c27565b801561072b5780601f106107005761010080835404028352916020019161072b565b820191906000526020600020905b81548152906001019060200180831161070e57829003601f168201915b505050505081565b6000806002540361074657819050610764565b600254600254836107579190611c87565b6107619190611cf8565b90505b919050565b600081600460003373ffffffffffffffffffffffffffffffffffffffff1673ffffffffffffffffffffffffffffffffffffffff16815260200190815260200160002060008573ffffffffffffffffffffffffffffffffffffffff1673ffffffffffffffffffffffffffffffffffffffff168152602001908152602001600020819055508273ffffffffffffffffffffffffffffffffffffffff163373ffffffffffffffffffffffffffffffffffffffff167f8c5be1e5ebec7d5bd14f71427d1e84f3dd0314c0f7b2291e5b200ac8c7c3b9258460405161084991906116c7565b60405180910390a36001905092915050565b6000806002540361086f57600090506108c8565b6108c5600254836108809190611c87565b600360003373ffffffffffffffffffffffffffffffffffffffff1673ffffffffffffffffffffffffffffffffffffffff1681526020019081526020016000205461142f565b90505b919050565b60025481565b600080600460008673ffffffffffffffffffffffffffffffffffffffff1673ffffffffffffffffffffffffffffffffffffffff16815260200190815260200160002060003373ffffffffffffffffffffffffffffffffffffffff1673ffffffffffffffffffffffffffffffffffffffff1681526020019081526020016000205490507fffffffffffffffffffffffffffffffffffffffffffffffffffffffffffffffff8114610a095782816109889190611d29565b600460008773ffffffffffffffffffffffffffffffffffffffff1673ffffffffffffffffffffffffffffffffffffffff16815260200190815260200160002060003373ffffffffffffffffffffffffffffffffffffffff1673ffffffffffffffffffffffffffffffffffffffff168152602001908152602001600020819055505b82600360008773ffffffffffffffffffffffffffffffffffffffff1673ffffffffffffffffffffffffffffffffffffffff1681526020019081526020016000206000828254610a589190611d29565b9250508190555082600360008673ffffffffffffffffffffffffffffffffffffffff1673ffffffffffffffffffffffffffffffffffffffff168152602001908152602001600020600082825401925050819055508373ffffffffffffffffffffffffffffffffffffffff168573ffffffffffffffffffffffffffffffffffffffff167fddf252ad1be2c89b69c2b068fc378daa952ba7f163c4a11628f55a4df523b3ef85604051610b0991906116c7565b60405180910390a360019150509392505050565b7f000000000000000000000000000000000000000000000000000000000000000081565b60007f00000000000000000000000000000000000000000000000000000000000000004614610b7757610b726114af565b610b99565b7f00000000000000000000000000000000000000000000000000000000000000005b905090565b7f000000000000000000000000000000000000000000000000000000000000000081565b6000600360008373ffffffffffffffffffffffffffffffffffffffff1673ffffffffffffffffffffffffffffffffffffffff168152602001908152602001600020549050919050565b6000610c1682610733565b9050919050565b600080610c29846113f7565b91508103610c6c576040517f08c379a0000000000000000000000000000000000000000000000000000000008152600401610c6390611da9565b60405180910390fd5b610cb93330857f000000000000000000000000000000000000000000000000000000000000000073ffffffffffffffffffffffffffffffffffffffff1661153b909392919063ffffffff16565b610cc382826115da565b8173ffffffffffffffffffffffffffffffffffffffff163373ffffffffffffffffffffffffffffffffffffffff167fdcbc1c05240f31ff3ad067ef1ee35ce4997762752e3a095284754544f4c709d78584604051610d22929190611dc9565b60405180910390a3610d3483826116aa565b92915050565b60036020528060005260406000206000915090505481565b60056020528060005260406000206000915090505481565b6000610d7583610f2a565b9050610d818183610c1d565b5092915050565b60018054610d9590611c27565b80601f0160208091040260200160405190810160405280929190818152602001828054610dc190611c27565b8015610e0e5780601f10610de357610100808354040283529160200191610e0e565b820191906000526020600020905b815481529060010190602001808311610df157829003601f168201915b505050505081565b600081600360003373ffffffffffffffffffffffffffffffffffffffff1673ffffffffffffffffffffffffffffffffffffffff1681526020019081526020016000206000828254610e679190611d29565b9250508190555081600360008573ffffffffffffffffffffffffffffffffffffffff1673ffffffffffffffffffffffffffffffffffffffff168152602001908152602001600020600082825401925050819055508273ffffffffffffffffffffffffffffffffffffffff163373ffffffffffffffffffffffffffffffffffffffff167fddf252ad1be2c89b69c2b068fc378daa952ba7f163c4a11628f55a4df523b3ef84604051610f1891906116c7565b60405180910390a36001905092915050565b60008060025403610f3d57819050610f96565b610f93600360003373ffffffffffffffffffffffffffffffffffffffff1673ffffffffffffffffffffffffffffffffffffffff1681526020019081526020016000205483610f8b9190611c87565b60025461142f565b90505b919050565b6000610fa68461085b565b90509392505050565b60009392505050565b6000611002600360008473ffffffffffffffffffffffffffffffffffffffff1673ffffffffffffffffffffffffffffffffffffffff16815260200190815260200160002054611009565b9050919050565b6000806002540361101c5781905061103a565b6002546002548361102d9190611c87565b6110379190611cf8565b90505b919050565b6000611089600360008473ffffffffffffffffffffffffffffffffffffffff1673ffffffffffffffffffffffffffffffffffffffff16815260200190815260200160002054610733565b9050919050565b428410156110d3576040517f08c379a00000000000000000000000000000000000000000000000000000000081526004016110ca90611e3e565b60405180910390fd5b600060016110df610b41565b7f6e71edae12b1b97f4d1f60370fef10105fa2faae0126114a169c64845d6126c98a8a8a600560008f73ffffffffffffffffffffffffffffffffffffffff1673ffffffffffffffffffffffffffffffffffffffff1681526020019081526020016000206000815480929190600101919050558b60405160200161116796959493929190611e6d565b6040516020818303038152906040528051906020012060405160200161118e929190611f46565b60405160208183030381529060405280519060200120858585604051600081526020016040526040516111c49493929190611f7d565b6020604051602081039080840390855afa1580156111e6573d6000803e3d6000fd5b505050602060405103519050600073ffffffffffffffffffffffffffffffffffffffff168173ffffffffffffffffffffffffffffffffffffffff161415801561125a57508773ffffffffffffffffffffffffffffffffffffffff168173ffffffffffffffffffffffffffffffffffffffff16145b611299576040517f08c379a00000000000000000000000000000000000000000000000000000000081526004016112909061200e565b60405180910390fd5b85600460008373ffffffffffffffffffffffffffffffffffffffff1673ffffffffffffffffffffffffffffffffffffffff16815260200190815260200160002060008973ffffffffffffffffffffffffffffffffffffffff1673ffffffffffffffffffffffffffffffffffffffff16815260200190815260200160002081905550508573ffffffffffffffffffffffffffffffffffffffff168773ffffffffffffffffffffffffffffffffffffffff167f8c5be1e5ebec7d5bd14f71427d1e84f3dd0314c0f7b2291e5b200ac8c7c3b9258760405161137891906116c7565b60405180910390a350505050505050565b6000600360008373ffffffffffffffffffffffffffffffffffffffff1673ffffffffffffffffffffffffffffffffffffffff168152602001908152602001600020549050919050565b6004602052816000526040600020602052806000526040600020600091509150505481565b600061140282611009565b9050919050565b600660009054906101000a900473ffffffffffffffffffffffffffffffffffffffff1681565b6000808203611473576040517f08c379a000000000000000000000000000000000000000000000000000000000815260040161146a9061207a565b60405180910390fd5b600082846114819190611cf8565b905060008385611491919061209a565b146114a55780806114a1906120cb565b9150505b8091505092915050565b60007f8b73c3c69bb8fe3d512ecc4cf759cc79239f7b179b0ffacaa9a75d522b39400f60006040516114e191906121b6565b60405180910390207fc89efdaa54c0f20c7adf612882df0950f5a951637e0307cdcb4c672f298b8bc646306040516020016115209594939291906121cd565b60405160208183030381529060405280519060200120905090565b60006040517f23b872dd0000000000000000000000000000000000000000000000000000000081528460048201528360248201528260448201526020600060648360008a5af13d15601f3d11600160005114161716915050806115d3576040517f08c379a00000000000000000000000000000000000000000000000000000000081526004016115ca9061226c565b60405180910390fd5b5050505050565b80600260008282546115ec919061228c565b9250508190555080600360008473ffffffffffffffffffffffffffffffffffffffff1673ffffffffffffffffffffffffffffffffffffffff168152602001908152602001600020600082825401925050819055508173ffffffffffffffffffffffffffffffffffffffff16600073ffffffffffffffffffffffffffffffffffffffff167fddf252ad1be2c89b69c2b068fc378daa952ba7f163c4a11628f55a4df523b3ef8360405161169e91906116c7565b60405180910390a35050565b5050565b6000819050919050565b6116c1816116ae565b82525050565b60006020820190506116dc60008301846116b8565b92915050565b600081519050919050565b600082825260208201905092915050565b60005b8381101561171c578082015181840152602081019050611701565b60008484015250505050565b6000601f19601f8301169050919050565b6000611744826116e2565b61174e81856116ed565b935061175e8185602086016116fe565b61176781611728565b840191505092915050565b6000602082019050818103600083015261178c8184611739565b905092915050565b600080fd5b6117a2816116ae565b81146117ad57600080fd5b50565b6000813590506117bf81611799565b92915050565b6000602082840312156117db576117da611794565b5b60006117e9848285016117b0565b91505092915050565b600073ffffffffffffffffffffffffffffffffffffffff82169050919050565b600061181d826117f2565b9050919050565b61182d81611812565b811461183857600080fd5b50565b60008135905061184a81611824565b92915050565b6000806040838503121561186757611866611794565b5b60006118758582860161183b565b9250506020611886858286016117b0565b9150509250929050565b60008115159050919050565b6118a581611890565b82525050565b60006020820190506118c0600083018461189c565b92915050565b6000806000606084860312156118df576118de611794565b5b60006118ed8682870161183b565b93505060206118fe8682870161183b565b925050604061190f868287016117b0565b9150509250925092565b600060ff82169050919050565b61192f81611919565b82525050565b600060208201905061194a6000830184611926565b92915050565b6000819050919050565b61196381611950565b82525050565b600060208201905061197e600083018461195a565b92915050565b6000819050919050565b60006119a96119a461199f846117f2565b611984565b6117f2565b9050919050565b60006119bb8261198e565b9050919050565b60006119cd826119b0565b9050919050565b6119dd816119c2565b82525050565b60006020820190506119f860008301846119d4565b92915050565b600060208284031215611a1457611a13611794565b5b6000611a228482850161183b565b91505092915050565b60008060408385031215611a4257611a41611794565b5b6000611a50858286016117b0565b9250506020611a618582860161183b565b9150509250929050565b600080600060608486031215611a8457611a83611794565b5b6000611a92868287016117b0565b9350506020611aa38682870161183b565b9250506040611ab48682870161183b565b9150509250925092565b611ac781611919565b8114611ad257600080fd5b50565b600081359050611ae481611abe565b92915050565b611af381611950565b8114611afe57600080fd5b50565b600081359050611b1081611aea565b92915050565b600080600080600080600060e0888a031215611b3557611b34611794565b5b6000611b438a828b0161183b565b9750506020611b548a828b0161183b565b9650506040611b658a828b016117b0565b9550506060611b768a828b016117b0565b9450506080611b878a828b01611ad5565b93505060a0611b988a828b01611b01565b92505060c0611ba98a828b01611b01565b91505092959891949750929550565b60008060408385031215611bcf57611bce611794565b5b6000611bdd8582860161183b565b9250506020611bee8582860161183b565b9150509250929050565b7f4e487b7100000000000000000000000000000000000000000000000000000000600052602260045260246000fd5b60006002820490506001821680611c3f57607f821691505b602082108103611c5257611c51611bf8565b5b50919050565b7f4e487b7100000000000000000000000000000000000000000000000000000000600052601160045260246000fd5b6000611c92826116ae565b9150611c9d836116ae565b9250828202611cab816116ae565b91508282048414831517611cc257611cc1611c58565b5b5092915050565b7f4e487b7100000000000000000000000000000000000000000000000000000000600052601260045260246000fd5b6000611d03826116ae565b9150611d0e836116ae565b925082611d1e57611d1d611cc9565b5b828204905092915050565b6000611d34826116ae565b9150611d3f836116ae565b9250828203905081811115611d5757611d56611c58565b5b92915050565b7f5a45524f5f534841524553000000000000000000000000000000000000000000600082015250565b6000611d93600b836116ed565b9150611d9e82611d5d565b602082019050919050565b60006020820190508181036000830152611dc281611d86565b9050919050565b6000604082019050611dde60008301856116b8565b611deb60208301846116b8565b9392505050565b7f5045524d49545f444541444c494e455f45585049524544000000000000000000600082015250565b6000611e286017836116ed565b9150611e3382611df2565b602082019050919050565b60006020820190508181036000830152611e5781611e1b565b9050919050565b611e6781611812565b82525050565b600060c082019050611e82600083018961195a565b611e8f6020830188611e5e565b611e9c6040830187611e5e565b611ea960608301866116b8565b611eb660808301856116b8565b611ec360a08301846116b8565b979650505050505050565b600081905092915050565b7f1901000000000000000000000000000000000000000000000000000000000000600082015250565b6000611f0f600283611ece565b9150611f1a82611ed9565b600282019050919050565b6000819050919050565b611f40611f3b82611950565b611f25565b82525050565b6000611f5182611f02565b9150611f5d8285611f2f565b602082019150611f6d8284611f2f565b6020820191508190509392505050565b6000608082019050611f92600083018761195a565b611f9f6020830186611926565b611fac604083018561195a565b611fb9606083018461195a565b95945050505050565b7f494e56414c49445f5349474e4552000000000000000000000000000000000000600082015250565b6000611ff8600e836116ed565b915061200382611fc2565b602082019050919050565b6000602082019050818103600083015261202781611feb565b9050919050565b7f4469766973696f6e206279203000000000000000000000000000000000000000600082015250565b6000612064600d836116ed565b915061206f8261202e565b602082019050919050565b6000602082019050818103600083015261209381612057565b9050919050565b60006120a5826116ae565b91506120b0836116ae565b9250826120c0576120bf611cc9565b5b828206905092915050565b60006120d6826116ae565b91507fffffffffffffffffffffffffffffffffffffffffffffffffffffffffffffffff820361210857612107611c58565b5b600182019050919050565b600081905092915050565b60008190508160005260206000209050919050565b6000815461214081611c27565b61214a8186612113565b94506001821660008114612165576001811461217a576121ad565b60ff19831686528115158202860193506121ad565b6121838561211e565b60005b838110156121a557815481890152600182019150602081019050612186565b838801955050505b50505092915050565b60006121c28284612133565b915081905092915050565b600060a0820190506121e2600083018861195a565b6121ef602083018761195a565b6121fc604083018661195a565b61220960608301856116b8565b6122166080830184611e5e565b9695505050505050565b7f5452414e534645525f46524f4d5f4641494c4544000000000000000000000000600082015250565b60006122566014836116ed565b915061226182612220565b602082019050919050565b6000602082019050818103600083015261228581612249565b9050919050565b6000612297826116ae565b91506122a2836116ae565b92508282019050808211156122ba576122b9611c58565b5b9291505056fea264697066735822122026356f62d42bbf40e2df60f0309add4a25cb7a159661afd59ba656ca489f81d264736f6c63430008110033",
					"opcodes": "PUSH2 0x100 PUSH1 0x40 MSTORE CALLVALUE DUP1 ISZERO PUSH3 0x12 JUMPI PUSH1 0x0 DUP1 REVERT JUMPDEST POP PUSH1 0x40 MLOAD PUSH3 0x2CB4 CODESIZE SUB DUP1 PUSH3 0x2CB4 DUP4 CODECOPY DUP2 DUP2 ADD PUSH1 0x40 MSTORE DUP2 ADD SWAP1 PUSH3 0x38 SWAP2 SWAP1 PUSH3 0x3DF JUMP JUMPDEST DUP3 DUP3 DUP3 DUP2 DUP2 DUP5 PUSH20 0xFFFFFFFFFFFFFFFFFFFFFFFFFFFFFFFFFFFFFFFF AND PUSH4 0x313CE567 PUSH1 0x40 MLOAD DUP2 PUSH4 0xFFFFFFFF AND PUSH1 0xE0 SHL DUP2 MSTORE PUSH1 0x4 ADD PUSH1 0x20 PUSH1 0x40 MLOAD DUP1 DUP4 SUB DUP2 DUP7 GAS STATICCALL ISZERO DUP1 ISZERO PUSH3 0x89 JUMPI RETURNDATASIZE PUSH1 0x0 DUP1 RETURNDATACOPY RETURNDATASIZE PUSH1 0x0 REVERT JUMPDEST POP POP POP POP PUSH1 0x40 MLOAD RETURNDATASIZE PUSH1 0x1F NOT PUSH1 0x1F DUP3 ADD AND DUP3 ADD DUP1 PUSH1 0x40 MSTORE POP DUP2 ADD SWAP1 PUSH3 0xAF SWAP2 SWAP1 PUSH3 0x4B7 JUMP JUMPDEST DUP3 PUSH1 0x0 SWAP1 DUP2 PUSH3 0xC0 SWAP2 SWAP1 PUSH3 0x734 JUMP JUMPDEST POP DUP2 PUSH1 0x1 SWAP1 DUP2 PUSH3 0xD2 SWAP2 SWAP1 PUSH3 0x734 JUMP JUMPDEST POP DUP1 PUSH1 0xFF AND PUSH1 0x80 DUP2 PUSH1 0xFF AND DUP2 MSTORE POP POP CHAINID PUSH1 0xA0 DUP2 DUP2 MSTORE POP POP PUSH3 0xF9 PUSH3 0x143 PUSH1 0x20 SHL PUSH1 0x20 SHR JUMP JUMPDEST PUSH1 0xC0 DUP2 DUP2 MSTORE POP POP POP POP POP DUP3 PUSH20 0xFFFFFFFFFFFFFFFFFFFFFFFFFFFFFFFFFFFFFFFF AND PUSH1 0xE0 DUP2 PUSH20 0xFFFFFFFFFFFFFFFFFFFFFFFFFFFFFFFFFFFFFFFF AND DUP2 MSTORE POP POP POP POP POP POP POP POP PUSH3 0x97D JUMP JUMPDEST PUSH1 0x0 PUSH32 0x8B73C3C69BB8FE3D512ECC4CF759CC79239F7B179B0FFACAA9A75D522B39400F PUSH1 0x0 PUSH1 0x40 MLOAD PUSH3 0x177 SWAP2 SWAP1 PUSH3 0x8CA JUMP JUMPDEST PUSH1 0x40 MLOAD DUP1 SWAP2 SUB SWAP1 KECCAK256 PUSH32 0xC89EFDAA54C0F20C7ADF612882DF0950F5A951637E0307CDCB4C672F298B8BC6 CHAINID ADDRESS PUSH1 0x40 MLOAD PUSH1 0x20 ADD PUSH3 0x1B8 SWAP6 SWAP5 SWAP4 SWAP3 SWAP2 SWAP1 PUSH3 0x920 JUMP JUMPDEST PUSH1 0x40 MLOAD PUSH1 0x20 DUP2 DUP4 SUB SUB DUP2 MSTORE SWAP1 PUSH1 0x40 MSTORE DUP1 MLOAD SWAP1 PUSH1 0x20 ADD KECCAK256 SWAP1 POP SWAP1 JUMP JUMPDEST PUSH1 0x0 PUSH1 0x40 MLOAD SWAP1 POP SWAP1 JUMP JUMPDEST PUSH1 0x0 DUP1 REVERT JUMPDEST PUSH1 0x0 DUP1 REVERT JUMPDEST PUSH1 0x0 PUSH20 0xFFFFFFFFFFFFFFFFFFFFFFFFFFFFFFFFFFFFFFFF DUP3 AND SWAP1 POP SWAP2 SWAP1 POP JUMP JUMPDEST PUSH1 0x0 PUSH3 0x214 DUP3 PUSH3 0x1E7 JUMP JUMPDEST SWAP1 POP SWAP2 SWAP1 POP JUMP JUMPDEST PUSH1 0x0 PUSH3 0x228 DUP3 PUSH3 0x207 JUMP JUMPDEST SWAP1 POP SWAP2 SWAP1 POP JUMP JUMPDEST PUSH3 0x23A DUP2 PUSH3 0x21B JUMP JUMPDEST DUP2 EQ PUSH3 0x246 JUMPI PUSH1 0x0 DUP1 REVERT JUMPDEST POP JUMP JUMPDEST PUSH1 0x0 DUP2 MLOAD SWAP1 POP PUSH3 0x25A DUP2 PUSH3 0x22F JUMP JUMPDEST SWAP3 SWAP2 POP POP JUMP JUMPDEST PUSH1 0x0 DUP1 REVERT JUMPDEST PUSH1 0x0 DUP1 REVERT JUMPDEST PUSH1 0x0 PUSH1 0x1F NOT PUSH1 0x1F DUP4 ADD AND SWAP1 POP SWAP2 SWAP1 POP JUMP JUMPDEST PUSH32 0x4E487B7100000000000000000000000000000000000000000000000000000000 PUSH1 0x0 MSTORE PUSH1 0x41 PUSH1 0x4 MSTORE PUSH1 0x24 PUSH1 0x0 REVERT JUMPDEST PUSH3 0x2B5 DUP3 PUSH3 0x26A JUMP JUMPDEST DUP2 ADD DUP2 DUP2 LT PUSH8 0xFFFFFFFFFFFFFFFF DUP3 GT OR ISZERO PUSH3 0x2D7 JUMPI PUSH3 0x2D6 PUSH3 0x27B JUMP JUMPDEST JUMPDEST DUP1 PUSH1 0x40 MSTORE POP POP POP JUMP JUMPDEST PUSH1 0x0 PUSH3 0x2EC PUSH3 0x1D3 JUMP JUMPDEST SWAP1 POP PUSH3 0x2FA DUP3 DUP3 PUSH3 0x2AA JUMP JUMPDEST SWAP2 SWAP1 POP JUMP JUMPDEST PUSH1 0x0 PUSH8 0xFFFFFFFFFFFFFFFF DUP3 GT ISZERO PUSH3 0x31D JUMPI PUSH3 0x31C PUSH3 0x27B JUMP JUMPDEST JUMPDEST PUSH3 0x328 DUP3 PUSH3 0x26A JUMP JUMPDEST SWAP1 POP PUSH1 0x20 DUP2 ADD SWAP1 POP SWAP2 SWAP1 POP JUMP JUMPDEST PUSH1 0x0 JUMPDEST DUP4 DUP2 LT ISZERO PUSH3 0x355 JUMPI DUP1 DUP3 ADD MLOAD DUP2 DUP5 ADD MSTORE PUSH1 0x20 DUP2 ADD SWAP1 POP PUSH3 0x338 JUMP JUMPDEST PUSH1 0x0 DUP5 DUP5 ADD MSTORE POP POP POP POP JUMP JUMPDEST PUSH1 0x0 PUSH3 0x378 PUSH3 0x372 DUP5 PUSH3 0x2FF JUMP JUMPDEST PUSH3 0x2E0 JUMP JUMPDEST SWAP1 POP DUP3 DUP2 MSTORE PUSH1 0x20 DUP2 ADD DUP5 DUP5 DUP5 ADD GT ISZERO PUSH3 0x397 JUMPI PUSH3 0x396 PUSH3 0x265 JUMP JUMPDEST JUMPDEST PUSH3 0x3A4 DUP5 DUP3 DUP6 PUSH3 0x335 JUMP JUMPDEST POP SWAP4 SWAP3 POP POP POP JUMP JUMPDEST PUSH1 0x0 DUP3 PUSH1 0x1F DUP4 ADD SLT PUSH3 0x3C4 JUMPI PUSH3 0x3C3 PUSH3 0x260 JUMP JUMPDEST JUMPDEST DUP2 MLOAD PUSH3 0x3D6 DUP5 DUP3 PUSH1 0x20 DUP7 ADD PUSH3 0x361 JUMP JUMPDEST SWAP2 POP POP SWAP3 SWAP2 POP POP JUMP JUMPDEST PUSH1 0x0 DUP1 PUSH1 0x0 PUSH1 0x60 DUP5 DUP7 SUB SLT ISZERO PUSH3 0x3FB JUMPI PUSH3 0x3FA PUSH3 0x1DD JUMP JUMPDEST JUMPDEST PUSH1 0x0 PUSH3 0x40B DUP7 DUP3 DUP8 ADD PUSH3 0x249 JUMP JUMPDEST SWAP4 POP POP PUSH1 0x20 DUP5 ADD MLOAD PUSH8 0xFFFFFFFFFFFFFFFF DUP2 GT ISZERO PUSH3 0x42F JUMPI PUSH3 0x42E PUSH3 0x1E2 JUMP JUMPDEST JUMPDEST PUSH3 0x43D DUP7 DUP3 DUP8 ADD PUSH3 0x3AC JUMP JUMPDEST SWAP3 POP POP PUSH1 0x40 DUP5 ADD MLOAD PUSH8 0xFFFFFFFFFFFFFFFF DUP2 GT ISZERO PUSH3 0x461 JUMPI PUSH3 0x460 PUSH3 0x1E2 JUMP JUMPDEST JUMPDEST PUSH3 0x46F DUP7 DUP3 DUP8 ADD PUSH3 0x3AC JUMP JUMPDEST SWAP2 POP POP SWAP3 POP SWAP3 POP SWAP3 JUMP JUMPDEST PUSH1 0x0 PUSH1 0xFF DUP3 AND SWAP1 POP SWAP2 SWAP1 POP JUMP JUMPDEST PUSH3 0x491 DUP2 PUSH3 0x479 JUMP JUMPDEST DUP2 EQ PUSH3 0x49D JUMPI PUSH1 0x0 DUP1 REVERT JUMPDEST POP JUMP JUMPDEST PUSH1 0x0 DUP2 MLOAD SWAP1 POP PUSH3 0x4B1 DUP2 PUSH3 0x486 JUMP JUMPDEST SWAP3 SWAP2 POP POP JUMP JUMPDEST PUSH1 0x0 PUSH1 0x20 DUP3 DUP5 SUB SLT ISZERO PUSH3 0x4D0 JUMPI PUSH3 0x4CF PUSH3 0x1DD JUMP JUMPDEST JUMPDEST PUSH1 0x0 PUSH3 0x4E0 DUP5 DUP3 DUP6 ADD PUSH3 0x4A0 JUMP JUMPDEST SWAP2 POP POP SWAP3 SWAP2 POP POP JUMP JUMPDEST PUSH1 0x0 DUP2 MLOAD SWAP1 POP SWAP2 SWAP1 POP JUMP JUMPDEST PUSH32 0x4E487B7100000000000000000000000000000000000000000000000000000000 PUSH1 0x0 MSTORE PUSH1 0x22 PUSH1 0x4 MSTORE PUSH1 0x24 PUSH1 0x0 REVERT JUMPDEST PUSH1 0x0 PUSH1 0x2 DUP3 DIV SWAP1 POP PUSH1 0x1 DUP3 AND DUP1 PUSH3 0x53C JUMPI PUSH1 0x7F DUP3 AND SWAP2 POP JUMPDEST PUSH1 0x20 DUP3 LT DUP2 SUB PUSH3 0x552 JUMPI PUSH3 0x551 PUSH3 0x4F4 JUMP JUMPDEST JUMPDEST POP SWAP2 SWAP1 POP JUMP JUMPDEST PUSH1 0x0 DUP2 SWAP1 POP DUP2 PUSH1 0x0 MSTORE PUSH1 0x20 PUSH1 0x0 KECCAK256 SWAP1 POP SWAP2 SWAP1 POP JUMP JUMPDEST PUSH1 0x0 PUSH1 0x20 PUSH1 0x1F DUP4 ADD DIV SWAP1 POP SWAP2 SWAP1 POP JUMP JUMPDEST PUSH1 0x0 DUP3 DUP3 SHL SWAP1 POP SWAP3 SWAP2 POP POP JUMP JUMPDEST PUSH1 0x0 PUSH1 0x8 DUP4 MUL PUSH3 0x5BC PUSH32 0xFFFFFFFFFFFFFFFFFFFFFFFFFFFFFFFFFFFFFFFFFFFFFFFFFFFFFFFFFFFFFFFF DUP3 PUSH3 0x57D JUMP JUMPDEST PUSH3 0x5C8 DUP7 DUP4 PUSH3 0x57D JUMP JUMPDEST SWAP6 POP DUP1 NOT DUP5 AND SWAP4 POP DUP1 DUP7 AND DUP5 OR SWAP3 POP POP POP SWAP4 SWAP3 POP POP POP JUMP JUMPDEST PUSH1 0x0 DUP2 SWAP1 POP SWAP2 SWAP1 POP JUMP JUMPDEST PUSH1 0x0 DUP2 SWAP1 POP SWAP2 SWAP1 POP JUMP JUMPDEST PUSH1 0x0 PUSH3 0x615 PUSH3 0x60F PUSH3 0x609 DUP5 PUSH3 0x5E0 JUMP JUMPDEST PUSH3 0x5EA JUMP JUMPDEST PUSH3 0x5E0 JUMP JUMPDEST SWAP1 POP SWAP2 SWAP1 POP JUMP JUMPDEST PUSH1 0x0 DUP2 SWAP1 POP SWAP2 SWAP1 POP JUMP JUMPDEST PUSH3 0x631 DUP4 PUSH3 0x5F4 JUMP JUMPDEST PUSH3 0x649 PUSH3 0x640 DUP3 PUSH3 0x61C JUMP JUMPDEST DUP5 DUP5 SLOAD PUSH3 0x58A JUMP JUMPDEST DUP3 SSTORE POP POP POP POP JUMP JUMPDEST PUSH1 0x0 SWAP1 JUMP JUMPDEST PUSH3 0x660 PUSH3 0x651 JUMP JUMPDEST PUSH3 0x66D DUP2 DUP5 DUP5 PUSH3 0x626 JUMP JUMPDEST POP POP POP JUMP JUMPDEST JUMPDEST DUP2 DUP2 LT ISZERO PUSH3 0x695 JUMPI PUSH3 0x689 PUSH1 0x0 DUP3 PUSH3 0x656 JUMP JUMPDEST PUSH1 0x1 DUP2 ADD SWAP1 POP PUSH3 0x673 JUMP JUMPDEST POP POP JUMP JUMPDEST PUSH1 0x1F DUP3 GT ISZERO PUSH3 0x6E4 JUMPI PUSH3 0x6AE DUP2 PUSH3 0x558 JUMP JUMPDEST PUSH3 0x6B9 DUP5 PUSH3 0x56D JUMP JUMPDEST DUP2 ADD PUSH1 0x20 DUP6 LT ISZERO PUSH3 0x6C9 JUMPI DUP2 SWAP1 POP JUMPDEST PUSH3 0x6E1 PUSH3 0x6D8 DUP6 PUSH3 0x56D JUMP JUMPDEST DUP4 ADD DUP3 PUSH3 0x672 JUMP JUMPDEST POP POP JUMPDEST POP POP POP JUMP JUMPDEST PUSH1 0x0 DUP3 DUP3 SHR SWAP1 POP SWAP3 SWAP2 POP POP JUMP JUMPDEST PUSH1 0x0 PUSH3 0x709 PUSH1 0x0 NOT DUP5 PUSH1 0x8 MUL PUSH3 0x6E9 JUMP JUMPDEST NOT DUP1 DUP4 AND SWAP2 POP POP SWAP3 SWAP2 POP POP JUMP JUMPDEST PUSH1 0x0 PUSH3 0x724 DUP4 DUP4 PUSH3 0x6F6 JUMP JUMPDEST SWAP2 POP DUP3 PUSH1 0x2 MUL DUP3 OR SWAP1 POP SWAP3 SWAP2 POP POP JUMP JUMPDEST PUSH3 0x73F DUP3 PUSH3 0x4E9 JUMP JUMPDEST PUSH8 0xFFFFFFFFFFFFFFFF DUP2 GT ISZERO PUSH3 0x75B JUMPI PUSH3 0x75A PUSH3 0x27B JUMP JUMPDEST JUMPDEST PUSH3 0x767 DUP3 SLOAD PUSH3 0x523 JUMP JUMPDEST PUSH3 0x774 DUP3 DUP3 DUP6 PUSH3 0x699 JUMP JUMPDEST PUSH1 0x0 PUSH1 0x20 SWAP1 POP PUSH1 0x1F DUP4 GT PUSH1 0x1 DUP2 EQ PUSH3 0x7AC JUMPI PUSH1 0x0 DUP5 ISZERO PUSH3 0x797 JUMPI DUP3 DUP8 ADD MLOAD SWAP1 POP JUMPDEST PUSH3 0x7A3 DUP6 DUP3 PUSH3 0x716 JUMP JUMPDEST DUP7 SSTORE POP PUSH3 0x813 JUMP JUMPDEST PUSH1 0x1F NOT DUP5 AND PUSH3 0x7BC DUP7 PUSH3 0x558 JUMP JUMPDEST PUSH1 0x0 JUMPDEST DUP3 DUP2 LT ISZERO PUSH3 0x7E6 JUMPI DUP5 DUP10 ADD MLOAD DUP3 SSTORE PUSH1 0x1 DUP3 ADD SWAP2 POP PUSH1 0x20 DUP6 ADD SWAP5 POP PUSH1 0x20 DUP2 ADD SWAP1 POP PUSH3 0x7BF JUMP JUMPDEST DUP7 DUP4 LT ISZERO PUSH3 0x806 JUMPI DUP5 DUP10 ADD MLOAD PUSH3 0x802 PUSH1 0x1F DUP10 AND DUP3 PUSH3 0x6F6 JUMP JUMPDEST DUP4 SSTORE POP JUMPDEST PUSH1 0x1 PUSH1 0x2 DUP9 MUL ADD DUP9 SSTORE POP POP POP JUMPDEST POP POP POP POP POP POP JUMP JUMPDEST PUSH1 0x0 DUP2 SWAP1 POP SWAP3 SWAP2 POP POP JUMP JUMPDEST PUSH1 0x0 DUP2 SWAP1 POP DUP2 PUSH1 0x0 MSTORE PUSH1 0x20 PUSH1 0x0 KECCAK256 SWAP1 POP SWAP2 SWAP1 POP JUMP JUMPDEST PUSH1 0x0 DUP2 SLOAD PUSH3 0x84A DUP2 PUSH3 0x523 JUMP JUMPDEST PUSH3 0x856 DUP2 DUP7 PUSH3 0x81B JUMP JUMPDEST SWAP5 POP PUSH1 0x1 DUP3 AND PUSH1 0x0 DUP2 EQ PUSH3 0x874 JUMPI PUSH1 0x1 DUP2 EQ PUSH3 0x88A JUMPI PUSH3 0x8C1 JUMP JUMPDEST PUSH1 0xFF NOT DUP4 AND DUP7 MSTORE DUP2 ISZERO ISZERO DUP3 MUL DUP7 ADD SWAP4 POP PUSH3 0x8C1 JUMP JUMPDEST PUSH3 0x895 DUP6 PUSH3 0x826 JUMP JUMPDEST PUSH1 0x0 JUMPDEST DUP4 DUP2 LT ISZERO PUSH3 0x8B9 JUMPI DUP2 SLOAD DUP2 DUP10 ADD MSTORE PUSH1 0x1 DUP3 ADD SWAP2 POP PUSH1 0x20 DUP2 ADD SWAP1 POP PUSH3 0x898 JUMP JUMPDEST DUP4 DUP9 ADD SWAP6 POP POP POP JUMPDEST POP POP POP SWAP3 SWAP2 POP POP JUMP JUMPDEST PUSH1 0x0 PUSH3 0x8D8 DUP3 DUP5 PUSH3 0x83B JUMP JUMPDEST SWAP2 POP DUP2 SWAP1 POP SWAP3 SWAP2 POP POP JUMP JUMPDEST PUSH1 0x0 DUP2 SWAP1 POP SWAP2 SWAP1 POP JUMP JUMPDEST PUSH3 0x8F8 DUP2 PUSH3 0x8E3 JUMP JUMPDEST DUP3 MSTORE POP POP JUMP JUMPDEST PUSH3 0x909 DUP2 PUSH3 0x5E0 JUMP JUMPDEST DUP3 MSTORE POP POP JUMP JUMPDEST PUSH3 0x91A DUP2 PUSH3 0x207 JUMP JUMPDEST DUP3 MSTORE POP POP JUMP JUMPDEST PUSH1 0x0 PUSH1 0xA0 DUP3 ADD SWAP1 POP PUSH3 0x937 PUSH1 0x0 DUP4 ADD DUP9 PUSH3 0x8ED JUMP JUMPDEST PUSH3 0x946 PUSH1 0x20 DUP4 ADD DUP8 PUSH3 0x8ED JUMP JUMPDEST PUSH3 0x955 PUSH1 0x40 DUP4 ADD DUP7 PUSH3 0x8ED JUMP JUMPDEST PUSH3 0x964 PUSH1 0x60 DUP4 ADD DUP6 PUSH3 0x8FE JUMP JUMPDEST PUSH3 0x973 PUSH1 0x80 DUP4 ADD DUP5 PUSH3 0x90F JUMP JUMPDEST SWAP7 SWAP6 POP POP POP POP POP POP JUMP JUMPDEST PUSH1 0x80 MLOAD PUSH1 0xA0 MLOAD PUSH1 0xC0 MLOAD PUSH1 0xE0 MLOAD PUSH2 0x22F6 PUSH3 0x9BE PUSH1 0x0 CODECOPY PUSH1 0x0 DUP2 DUP2 PUSH2 0xBA0 ADD MSTORE PUSH2 0xC74 ADD MSTORE PUSH1 0x0 PUSH2 0xB79 ADD MSTORE PUSH1 0x0 PUSH2 0xB45 ADD MSTORE PUSH1 0x0 PUSH2 0xB1F ADD MSTORE PUSH2 0x22F6 PUSH1 0x0 RETURN INVALID PUSH1 0x80 PUSH1 0x40 MSTORE CALLVALUE DUP1 ISZERO PUSH2 0x10 JUMPI PUSH1 0x0 DUP1 REVERT JUMPDEST POP PUSH1 0x4 CALLDATASIZE LT PUSH2 0x1CF JUMPI PUSH1 0x0 CALLDATALOAD PUSH1 0xE0 SHR DUP1 PUSH4 0x7ECEBE00 GT PUSH2 0x104 JUMPI DUP1 PUSH4 0xC63D75B6 GT PUSH2 0xA2 JUMPI DUP1 PUSH4 0xD905777E GT PUSH2 0x71 JUMPI DUP1 PUSH4 0xD905777E EQ PUSH2 0x5F2 JUMPI DUP1 PUSH4 0xDD62ED3E EQ PUSH2 0x622 JUMPI DUP1 PUSH4 0xEF8B30F7 EQ PUSH2 0x652 JUMPI DUP1 PUSH4 0xFC0C546A EQ PUSH2 0x682 JUMPI PUSH2 0x1CF JUMP JUMPDEST DUP1 PUSH4 0xC63D75B6 EQ PUSH2 0x546 JUMPI DUP1 PUSH4 0xC6E6F592 EQ PUSH2 0x576 JUMPI DUP1 PUSH4 0xCE96CB77 EQ PUSH2 0x5A6 JUMPI DUP1 PUSH4 0xD505ACCF EQ PUSH2 0x5D6 JUMPI PUSH2 0x1CF JUMP JUMPDEST DUP1 PUSH4 0xA9059CBB GT PUSH2 0xDE JUMPI DUP1 PUSH4 0xA9059CBB EQ PUSH2 0x486 JUMPI DUP1 PUSH4 0xB3D7F6B9 EQ PUSH2 0x4B6 JUMPI DUP1 PUSH4 0xB460AF94 EQ PUSH2 0x4E6 JUMPI DUP1 PUSH4 0xBA087652 EQ PUSH2 0x516 JUMPI PUSH2 0x1CF JUMP JUMPDEST DUP1 PUSH4 0x7ECEBE00 EQ PUSH2 0x408 JUMPI DUP1 PUSH4 0x94BF804D EQ PUSH2 0x438 JUMPI DUP1 PUSH4 0x95D89B41 EQ PUSH2 0x468 JUMPI PUSH2 0x1CF JUMP JUMPDEST DUP1 PUSH4 0x313CE567 GT PUSH2 0x171 JUMPI DUP1 PUSH4 0x402D267D GT PUSH2 0x14B JUMPI DUP1 PUSH4 0x402D267D EQ PUSH2 0x348 JUMPI DUP1 PUSH4 0x4CDAD506 EQ PUSH2 0x378 JUMPI DUP1 PUSH4 0x6E553F65 EQ PUSH2 0x3A8 JUMPI DUP1 PUSH4 0x70A08231 EQ PUSH2 0x3D8 JUMPI PUSH2 0x1CF JUMP JUMPDEST DUP1 PUSH4 0x313CE567 EQ PUSH2 0x2EE JUMPI DUP1 PUSH4 0x3644E515 EQ PUSH2 0x30C JUMPI DUP1 PUSH4 0x38D52E0F EQ PUSH2 0x32A JUMPI PUSH2 0x1CF JUMP JUMPDEST DUP1 PUSH4 0x95EA7B3 GT PUSH2 0x1AD JUMPI DUP1 PUSH4 0x95EA7B3 EQ PUSH2 0x240 JUMPI DUP1 PUSH4 0xA28A477 EQ PUSH2 0x270 JUMPI DUP1 PUSH4 0x18160DDD EQ PUSH2 0x2A0 JUMPI DUP1 PUSH4 0x23B872DD EQ PUSH2 0x2BE JUMPI PUSH2 0x1CF JUMP JUMPDEST DUP1 PUSH4 0x1E1D114 EQ PUSH2 0x1D4 JUMPI DUP1 PUSH4 0x6FDDE03 EQ PUSH2 0x1F2 JUMPI DUP1 PUSH4 0x7A2D13A EQ PUSH2 0x210 JUMPI JUMPDEST PUSH1 0x0 DUP1 REVERT JUMPDEST PUSH2 0x1DC PUSH2 0x6A0 JUMP JUMPDEST PUSH1 0x40 MLOAD PUSH2 0x1E9 SWAP2 SWAP1 PUSH2 0x16C7 JUMP JUMPDEST PUSH1 0x40 MLOAD DUP1 SWAP2 SUB SWAP1 RETURN JUMPDEST PUSH2 0x1FA PUSH2 0x6A5 JUMP JUMPDEST PUSH1 0x40 MLOAD PUSH2 0x207 SWAP2 SWAP1 PUSH2 0x1772 JUMP JUMPDEST PUSH1 0x40 MLOAD DUP1 SWAP2 SUB SWAP1 RETURN JUMPDEST PUSH2 0x22A PUSH1 0x4 DUP1 CALLDATASIZE SUB DUP2 ADD SWAP1 PUSH2 0x225 SWAP2 SWAP1 PUSH2 0x17C5 JUMP JUMPDEST PUSH2 0x733 JUMP JUMPDEST PUSH1 0x40 MLOAD PUSH2 0x237 SWAP2 SWAP1 PUSH2 0x16C7 JUMP JUMPDEST PUSH1 0x40 MLOAD DUP1 SWAP2 SUB SWAP1 RETURN JUMPDEST PUSH2 0x25A PUSH1 0x4 DUP1 CALLDATASIZE SUB DUP2 ADD SWAP1 PUSH2 0x255 SWAP2 SWAP1 PUSH2 0x1850 JUMP JUMPDEST PUSH2 0x769 JUMP JUMPDEST PUSH1 0x40 MLOAD PUSH2 0x267 SWAP2 SWAP1 PUSH2 0x18AB JUMP JUMPDEST PUSH1 0x40 MLOAD DUP1 SWAP2 SUB SWAP1 RETURN JUMPDEST PUSH2 0x28A PUSH1 0x4 DUP1 CALLDATASIZE SUB DUP2 ADD SWAP1 PUSH2 0x285 SWAP2 SWAP1 PUSH2 0x17C5 JUMP JUMPDEST PUSH2 0x85B JUMP JUMPDEST PUSH1 0x40 MLOAD PUSH2 0x297 SWAP2 SWAP1 PUSH2 0x16C7 JUMP JUMPDEST PUSH1 0x40 MLOAD DUP1 SWAP2 SUB SWAP1 RETURN JUMPDEST PUSH2 0x2A8 PUSH2 0x8CD JUMP JUMPDEST PUSH1 0x40 MLOAD PUSH2 0x2B5 SWAP2 SWAP1 PUSH2 0x16C7 JUMP JUMPDEST PUSH1 0x40 MLOAD DUP1 SWAP2 SUB SWAP1 RETURN JUMPDEST PUSH2 0x2D8 PUSH1 0x4 DUP1 CALLDATASIZE SUB DUP2 ADD SWAP1 PUSH2 0x2D3 SWAP2 SWAP1 PUSH2 0x18C6 JUMP JUMPDEST PUSH2 0x8D3 JUMP JUMPDEST PUSH1 0x40 MLOAD PUSH2 0x2E5 SWAP2 SWAP1 PUSH2 0x18AB JUMP JUMPDEST PUSH1 0x40 MLOAD DUP1 SWAP2 SUB SWAP1 RETURN JUMPDEST PUSH2 0x2F6 PUSH2 0xB1D JUMP JUMPDEST PUSH1 0x40 MLOAD PUSH2 0x303 SWAP2 SWAP1 PUSH2 0x1935 JUMP JUMPDEST PUSH1 0x40 MLOAD DUP1 SWAP2 SUB SWAP1 RETURN JUMPDEST PUSH2 0x314 PUSH2 0xB41 JUMP JUMPDEST PUSH1 0x40 MLOAD PUSH2 0x321 SWAP2 SWAP1 PUSH2 0x1969 JUMP JUMPDEST PUSH1 0x40 MLOAD DUP1 SWAP2 SUB SWAP1 RETURN JUMPDEST PUSH2 0x332 PUSH2 0xB9E JUMP JUMPDEST PUSH1 0x40 MLOAD PUSH2 0x33F SWAP2 SWAP1 PUSH2 0x19E3 JUMP JUMPDEST PUSH1 0x40 MLOAD DUP1 SWAP2 SUB SWAP1 RETURN JUMPDEST PUSH2 0x362 PUSH1 0x4 DUP1 CALLDATASIZE SUB DUP2 ADD SWAP1 PUSH2 0x35D SWAP2 SWAP1 PUSH2 0x19FE JUMP JUMPDEST PUSH2 0xBC2 JUMP JUMPDEST PUSH1 0x40 MLOAD PUSH2 0x36F SWAP2 SWAP1 PUSH2 0x16C7 JUMP JUMPDEST PUSH1 0x40 MLOAD DUP1 SWAP2 SUB SWAP1 RETURN JUMPDEST PUSH2 0x392 PUSH1 0x4 DUP1 CALLDATASIZE SUB DUP2 ADD SWAP1 PUSH2 0x38D SWAP2 SWAP1 PUSH2 0x17C5 JUMP JUMPDEST PUSH2 0xC0B JUMP JUMPDEST PUSH1 0x40 MLOAD PUSH2 0x39F SWAP2 SWAP1 PUSH2 0x16C7 JUMP JUMPDEST PUSH1 0x40 MLOAD DUP1 SWAP2 SUB SWAP1 RETURN JUMPDEST PUSH2 0x3C2 PUSH1 0x4 DUP1 CALLDATASIZE SUB DUP2 ADD SWAP1 PUSH2 0x3BD SWAP2 SWAP1 PUSH2 0x1A2B JUMP JUMPDEST PUSH2 0xC1D JUMP JUMPDEST PUSH1 0x40 MLOAD PUSH2 0x3CF SWAP2 SWAP1 PUSH2 0x16C7 JUMP JUMPDEST PUSH1 0x40 MLOAD DUP1 SWAP2 SUB SWAP1 RETURN JUMPDEST PUSH2 0x3F2 PUSH1 0x4 DUP1 CALLDATASIZE SUB DUP2 ADD SWAP1 PUSH2 0x3ED SWAP2 SWAP1 PUSH2 0x19FE JUMP JUMPDEST PUSH2 0xD3A JUMP JUMPDEST PUSH1 0x40 MLOAD PUSH2 0x3FF SWAP2 SWAP1 PUSH2 0x16C7 JUMP JUMPDEST PUSH1 0x40 MLOAD DUP1 SWAP2 SUB SWAP1 RETURN JUMPDEST PUSH2 0x422 PUSH1 0x4 DUP1 CALLDATASIZE SUB DUP2 ADD SWAP1 PUSH2 0x41D SWAP2 SWAP1 PUSH2 0x19FE JUMP JUMPDEST PUSH2 0xD52 JUMP JUMPDEST PUSH1 0x40 MLOAD PUSH2 0x42F SWAP2 SWAP1 PUSH2 0x16C7 JUMP JUMPDEST PUSH1 0x40 MLOAD DUP1 SWAP2 SUB SWAP1 RETURN JUMPDEST PUSH2 0x452 PUSH1 0x4 DUP1 CALLDATASIZE SUB DUP2 ADD SWAP1 PUSH2 0x44D SWAP2 SWAP1 PUSH2 0x1A2B JUMP JUMPDEST PUSH2 0xD6A JUMP JUMPDEST PUSH1 0x40 MLOAD PUSH2 0x45F SWAP2 SWAP1 PUSH2 0x16C7 JUMP JUMPDEST PUSH1 0x40 MLOAD DUP1 SWAP2 SUB SWAP1 RETURN JUMPDEST PUSH2 0x470 PUSH2 0xD88 JUMP JUMPDEST PUSH1 0x40 MLOAD PUSH2 0x47D SWAP2 SWAP1 PUSH2 0x1772 JUMP JUMPDEST PUSH1 0x40 MLOAD DUP1 SWAP2 SUB SWAP1 RETURN JUMPDEST PUSH2 0x4A0 PUSH1 0x4 DUP1 CALLDATASIZE SUB DUP2 ADD SWAP1 PUSH2 0x49B SWAP2 SWAP1 PUSH2 0x1850 JUMP JUMPDEST PUSH2 0xE16 JUMP JUMPDEST PUSH1 0x40 MLOAD PUSH2 0x4AD SWAP2 SWAP1 PUSH2 0x18AB JUMP JUMPDEST PUSH1 0x40 MLOAD DUP1 SWAP2 SUB SWAP1 RETURN JUMPDEST PUSH2 0x4D0 PUSH1 0x4 DUP1 CALLDATASIZE SUB DUP2 ADD SWAP1 PUSH2 0x4CB SWAP2 SWAP1 PUSH2 0x17C5 JUMP JUMPDEST PUSH2 0xF2A JUMP JUMPDEST PUSH1 0x40 MLOAD PUSH2 0x4DD SWAP2 SWAP1 PUSH2 0x16C7 JUMP JUMPDEST PUSH1 0x40 MLOAD DUP1 SWAP2 SUB SWAP1 RETURN JUMPDEST PUSH2 0x500 PUSH1 0x4 DUP1 CALLDATASIZE SUB DUP2 ADD SWAP1 PUSH2 0x4FB SWAP2 SWAP1 PUSH2 0x1A6B JUMP JUMPDEST PUSH2 0xF9B JUMP JUMPDEST PUSH1 0x40 MLOAD PUSH2 0x50D SWAP2 SWAP1 PUSH2 0x16C7 JUMP JUMPDEST PUSH1 0x40 MLOAD DUP1 SWAP2 SUB SWAP1 RETURN JUMPDEST PUSH2 0x530 PUSH1 0x4 DUP1 CALLDATASIZE SUB DUP2 ADD SWAP1 PUSH2 0x52B SWAP2 SWAP1 PUSH2 0x1A6B JUMP JUMPDEST PUSH2 0xFAF JUMP JUMPDEST PUSH1 0x40 MLOAD PUSH2 0x53D SWAP2 SWAP1 PUSH2 0x16C7 JUMP JUMPDEST PUSH1 0x40 MLOAD DUP1 SWAP2 SUB SWAP1 RETURN JUMPDEST PUSH2 0x560 PUSH1 0x4 DUP1 CALLDATASIZE SUB DUP2 ADD SWAP1 PUSH2 0x55B SWAP2 SWAP1 PUSH2 0x19FE JUMP JUMPDEST PUSH2 0xFB8 JUMP JUMPDEST PUSH1 0x40 MLOAD PUSH2 0x56D SWAP2 SWAP1 PUSH2 0x16C7 JUMP JUMPDEST PUSH1 0x40 MLOAD DUP1 SWAP2 SUB SWAP1 RETURN JUMPDEST PUSH2 0x590 PUSH1 0x4 DUP1 CALLDATASIZE SUB DUP2 ADD SWAP1 PUSH2 0x58B SWAP2 SWAP1 PUSH2 0x17C5 JUMP JUMPDEST PUSH2 0x1009 JUMP JUMPDEST PUSH1 0x40 MLOAD PUSH2 0x59D SWAP2 SWAP1 PUSH2 0x16C7 JUMP JUMPDEST PUSH1 0x40 MLOAD DUP1 SWAP2 SUB SWAP1 RETURN JUMPDEST PUSH2 0x5C0 PUSH1 0x4 DUP1 CALLDATASIZE SUB DUP2 ADD SWAP1 PUSH2 0x5BB SWAP2 SWAP1 PUSH2 0x19FE JUMP JUMPDEST PUSH2 0x103F JUMP JUMPDEST PUSH1 0x40 MLOAD PUSH2 0x5CD SWAP2 SWAP1 PUSH2 0x16C7 JUMP JUMPDEST PUSH1 0x40 MLOAD DUP1 SWAP2 SUB SWAP1 RETURN JUMPDEST PUSH2 0x5F0 PUSH1 0x4 DUP1 CALLDATASIZE SUB DUP2 ADD SWAP1 PUSH2 0x5EB SWAP2 SWAP1 PUSH2 0x1B16 JUMP JUMPDEST PUSH2 0x1090 JUMP JUMPDEST STOP JUMPDEST PUSH2 0x60C PUSH1 0x4 DUP1 CALLDATASIZE SUB DUP2 ADD SWAP1 PUSH2 0x607 SWAP2 SWAP1 PUSH2 0x19FE JUMP JUMPDEST PUSH2 0x1389 JUMP JUMPDEST PUSH1 0x40 MLOAD PUSH2 0x619 SWAP2 SWAP1 PUSH2 0x16C7 JUMP JUMPDEST PUSH1 0x40 MLOAD DUP1 SWAP2 SUB SWAP1 RETURN JUMPDEST PUSH2 0x63C PUSH1 0x4 DUP1 CALLDATASIZE SUB DUP2 ADD SWAP1 PUSH2 0x637 SWAP2 SWAP1 PUSH2 0x1BB8 JUMP JUMPDEST PUSH2 0x13D2 JUMP JUMPDEST PUSH1 0x40 MLOAD PUSH2 0x649 SWAP2 SWAP1 PUSH2 0x16C7 JUMP JUMPDEST PUSH1 0x40 MLOAD DUP1 SWAP2 SUB SWAP1 RETURN JUMPDEST PUSH2 0x66C PUSH1 0x4 DUP1 CALLDATASIZE SUB DUP2 ADD SWAP1 PUSH2 0x667 SWAP2 SWAP1 PUSH2 0x17C5 JUMP JUMPDEST PUSH2 0x13F7 JUMP JUMPDEST PUSH1 0x40 MLOAD PUSH2 0x679 SWAP2 SWAP1 PUSH2 0x16C7 JUMP JUMPDEST PUSH1 0x40 MLOAD DUP1 SWAP2 SUB SWAP1 RETURN JUMPDEST PUSH2 0x68A PUSH2 0x1409 JUMP JUMPDEST PUSH1 0x40 MLOAD PUSH2 0x697 SWAP2 SWAP1 PUSH2 0x19E3 JUMP JUMPDEST PUSH1 0x40 MLOAD DUP1 SWAP2 SUB SWAP1 RETURN JUMPDEST PUSH1 0x0 SWAP1 JUMP JUMPDEST PUSH1 0x0 DUP1 SLOAD PUSH2 0x6B2 SWAP1 PUSH2 0x1C27 JUMP JUMPDEST DUP1 PUSH1 0x1F ADD PUSH1 0x20 DUP1 SWAP2 DIV MUL PUSH1 0x20 ADD PUSH1 0x40 MLOAD SWAP1 DUP2 ADD PUSH1 0x40 MSTORE DUP1 SWAP3 SWAP2 SWAP1 DUP2 DUP2 MSTORE PUSH1 0x20 ADD DUP3 DUP1 SLOAD PUSH2 0x6DE SWAP1 PUSH2 0x1C27 JUMP JUMPDEST DUP1 ISZERO PUSH2 0x72B JUMPI DUP1 PUSH1 0x1F LT PUSH2 0x700 JUMPI PUSH2 0x100 DUP1 DUP4 SLOAD DIV MUL DUP4 MSTORE SWAP2 PUSH1 0x20 ADD SWAP2 PUSH2 0x72B JUMP JUMPDEST DUP3 ADD SWAP2 SWAP1 PUSH1 0x0 MSTORE PUSH1 0x20 PUSH1 0x0 KECCAK256 SWAP1 JUMPDEST DUP2 SLOAD DUP2 MSTORE SWAP1 PUSH1 0x1 ADD SWAP1 PUSH1 0x20 ADD DUP1 DUP4 GT PUSH2 0x70E JUMPI DUP3 SWAP1 SUB PUSH1 0x1F AND DUP3 ADD SWAP2 JUMPDEST POP POP POP POP POP DUP2 JUMP JUMPDEST PUSH1 0x0 DUP1 PUSH1 0x2 SLOAD SUB PUSH2 0x746 JUMPI DUP2 SWAP1 POP PUSH2 0x764 JUMP JUMPDEST PUSH1 0x2 SLOAD PUSH1 0x2 SLOAD DUP4 PUSH2 0x757 SWAP2 SWAP1 PUSH2 0x1C87 JUMP JUMPDEST PUSH2 0x761 SWAP2 SWAP1 PUSH2 0x1CF8 JUMP JUMPDEST SWAP1 POP JUMPDEST SWAP2 SWAP1 POP JUMP JUMPDEST PUSH1 0x0 DUP2 PUSH1 0x4 PUSH1 0x0 CALLER PUSH20 0xFFFFFFFFFFFFFFFFFFFFFFFFFFFFFFFFFFFFFFFF AND PUSH20 0xFFFFFFFFFFFFFFFFFFFFFFFFFFFFFFFFFFFFFFFF AND DUP2 MSTORE PUSH1 0x20 ADD SWAP1 DUP2 MSTORE PUSH1 0x20 ADD PUSH1 0x0 KECCAK256 PUSH1 0x0 DUP6 PUSH20 0xFFFFFFFFFFFFFFFFFFFFFFFFFFFFFFFFFFFFFFFF AND PUSH20 0xFFFFFFFFFFFFFFFFFFFFFFFFFFFFFFFFFFFFFFFF AND DUP2 MSTORE PUSH1 0x20 ADD SWAP1 DUP2 MSTORE PUSH1 0x20 ADD PUSH1 0x0 KECCAK256 DUP2 SWAP1 SSTORE POP DUP3 PUSH20 0xFFFFFFFFFFFFFFFFFFFFFFFFFFFFFFFFFFFFFFFF AND CALLER PUSH20 0xFFFFFFFFFFFFFFFFFFFFFFFFFFFFFFFFFFFFFFFF AND PUSH32 0x8C5BE1E5EBEC7D5BD14F71427D1E84F3DD0314C0F7B2291E5B200AC8C7C3B925 DUP5 PUSH1 0x40 MLOAD PUSH2 0x849 SWAP2 SWAP1 PUSH2 0x16C7 JUMP JUMPDEST PUSH1 0x40 MLOAD DUP1 SWAP2 SUB SWAP1 LOG3 PUSH1 0x1 SWAP1 POP SWAP3 SWAP2 POP POP JUMP JUMPDEST PUSH1 0x0 DUP1 PUSH1 0x2 SLOAD SUB PUSH2 0x86F JUMPI PUSH1 0x0 SWAP1 POP PUSH2 0x8C8 JUMP JUMPDEST PUSH2 0x8C5 PUSH1 0x2 SLOAD DUP4 PUSH2 0x880 SWAP2 SWAP1 PUSH2 0x1C87 JUMP JUMPDEST PUSH1 0x3 PUSH1 0x0 CALLER PUSH20 0xFFFFFFFFFFFFFFFFFFFFFFFFFFFFFFFFFFFFFFFF AND PUSH20 0xFFFFFFFFFFFFFFFFFFFFFFFFFFFFFFFFFFFFFFFF AND DUP2 MSTORE PUSH1 0x20 ADD SWAP1 DUP2 MSTORE PUSH1 0x20 ADD PUSH1 0x0 KECCAK256 SLOAD PUSH2 0x142F JUMP JUMPDEST SWAP1 POP JUMPDEST SWAP2 SWAP1 POP JUMP JUMPDEST PUSH1 0x2 SLOAD DUP2 JUMP JUMPDEST PUSH1 0x0 DUP1 PUSH1 0x4 PUSH1 0x0 DUP7 PUSH20 0xFFFFFFFFFFFFFFFFFFFFFFFFFFFFFFFFFFFFFFFF AND PUSH20 0xFFFFFFFFFFFFFFFFFFFFFFFFFFFFFFFFFFFFFFFF AND DUP2 MSTORE PUSH1 0x20 ADD SWAP1 DUP2 MSTORE PUSH1 0x20 ADD PUSH1 0x0 KECCAK256 PUSH1 0x0 CALLER PUSH20 0xFFFFFFFFFFFFFFFFFFFFFFFFFFFFFFFFFFFFFFFF AND PUSH20 0xFFFFFFFFFFFFFFFFFFFFFFFFFFFFFFFFFFFFFFFF AND DUP2 MSTORE PUSH1 0x20 ADD SWAP1 DUP2 MSTORE PUSH1 0x20 ADD PUSH1 0x0 KECCAK256 SLOAD SWAP1 POP PUSH32 0xFFFFFFFFFFFFFFFFFFFFFFFFFFFFFFFFFFFFFFFFFFFFFFFFFFFFFFFFFFFFFFFF DUP2 EQ PUSH2 0xA09 JUMPI DUP3 DUP2 PUSH2 0x988 SWAP2 SWAP1 PUSH2 0x1D29 JUMP JUMPDEST PUSH1 0x4 PUSH1 0x0 DUP8 PUSH20 0xFFFFFFFFFFFFFFFFFFFFFFFFFFFFFFFFFFFFFFFF AND PUSH20 0xFFFFFFFFFFFFFFFFFFFFFFFFFFFFFFFFFFFFFFFF AND DUP2 MSTORE PUSH1 0x20 ADD SWAP1 DUP2 MSTORE PUSH1 0x20 ADD PUSH1 0x0 KECCAK256 PUSH1 0x0 CALLER PUSH20 0xFFFFFFFFFFFFFFFFFFFFFFFFFFFFFFFFFFFFFFFF AND PUSH20 0xFFFFFFFFFFFFFFFFFFFFFFFFFFFFFFFFFFFFFFFF AND DUP2 MSTORE PUSH1 0x20 ADD SWAP1 DUP2 MSTORE PUSH1 0x20 ADD PUSH1 0x0 KECCAK256 DUP2 SWAP1 SSTORE POP JUMPDEST DUP3 PUSH1 0x3 PUSH1 0x0 DUP8 PUSH20 0xFFFFFFFFFFFFFFFFFFFFFFFFFFFFFFFFFFFFFFFF AND PUSH20 0xFFFFFFFFFFFFFFFFFFFFFFFFFFFFFFFFFFFFFFFF AND DUP2 MSTORE PUSH1 0x20 ADD SWAP1 DUP2 MSTORE PUSH1 0x20 ADD PUSH1 0x0 KECCAK256 PUSH1 0x0 DUP3 DUP3 SLOAD PUSH2 0xA58 SWAP2 SWAP1 PUSH2 0x1D29 JUMP JUMPDEST SWAP3 POP POP DUP2 SWAP1 SSTORE POP DUP3 PUSH1 0x3 PUSH1 0x0 DUP7 PUSH20 0xFFFFFFFFFFFFFFFFFFFFFFFFFFFFFFFFFFFFFFFF AND PUSH20 0xFFFFFFFFFFFFFFFFFFFFFFFFFFFFFFFFFFFFFFFF AND DUP2 MSTORE PUSH1 0x20 ADD SWAP1 DUP2 MSTORE PUSH1 0x20 ADD PUSH1 0x0 KECCAK256 PUSH1 0x0 DUP3 DUP3 SLOAD ADD SWAP3 POP POP DUP2 SWAP1 SSTORE POP DUP4 PUSH20 0xFFFFFFFFFFFFFFFFFFFFFFFFFFFFFFFFFFFFFFFF AND DUP6 PUSH20 0xFFFFFFFFFFFFFFFFFFFFFFFFFFFFFFFFFFFFFFFF AND PUSH32 0xDDF252AD1BE2C89B69C2B068FC378DAA952BA7F163C4A11628F55A4DF523B3EF DUP6 PUSH1 0x40 MLOAD PUSH2 0xB09 SWAP2 SWAP1 PUSH2 0x16C7 JUMP JUMPDEST PUSH1 0x40 MLOAD DUP1 SWAP2 SUB SWAP1 LOG3 PUSH1 0x1 SWAP2 POP POP SWAP4 SWAP3 POP POP POP JUMP JUMPDEST PUSH32 0x0 DUP2 JUMP JUMPDEST PUSH1 0x0 PUSH32 0x0 CHAINID EQ PUSH2 0xB77 JUMPI PUSH2 0xB72 PUSH2 0x14AF JUMP JUMPDEST PUSH2 0xB99 JUMP JUMPDEST PUSH32 0x0 JUMPDEST SWAP1 POP SWAP1 JUMP JUMPDEST PUSH32 0x0 DUP2 JUMP JUMPDEST PUSH1 0x0 PUSH1 0x3 PUSH1 0x0 DUP4 PUSH20 0xFFFFFFFFFFFFFFFFFFFFFFFFFFFFFFFFFFFFFFFF AND PUSH20 0xFFFFFFFFFFFFFFFFFFFFFFFFFFFFFFFFFFFFFFFF AND DUP2 MSTORE PUSH1 0x20 ADD SWAP1 DUP2 MSTORE PUSH1 0x20 ADD PUSH1 0x0 KECCAK256 SLOAD SWAP1 POP SWAP2 SWAP1 POP JUMP JUMPDEST PUSH1 0x0 PUSH2 0xC16 DUP3 PUSH2 0x733 JUMP JUMPDEST SWAP1 POP SWAP2 SWAP1 POP JUMP JUMPDEST PUSH1 0x0 DUP1 PUSH2 0xC29 DUP5 PUSH2 0x13F7 JUMP JUMPDEST SWAP2 POP DUP2 SUB PUSH2 0xC6C JUMPI PUSH1 0x40 MLOAD PUSH32 0x8C379A000000000000000000000000000000000000000000000000000000000 DUP2 MSTORE PUSH1 0x4 ADD PUSH2 0xC63 SWAP1 PUSH2 0x1DA9 JUMP JUMPDEST PUSH1 0x40 MLOAD DUP1 SWAP2 SUB SWAP1 REVERT JUMPDEST PUSH2 0xCB9 CALLER ADDRESS DUP6 PUSH32 0x0 PUSH20 0xFFFFFFFFFFFFFFFFFFFFFFFFFFFFFFFFFFFFFFFF AND PUSH2 0x153B SWAP1 SWAP4 SWAP3 SWAP2 SWAP1 PUSH4 0xFFFFFFFF AND JUMP JUMPDEST PUSH2 0xCC3 DUP3 DUP3 PUSH2 0x15DA JUMP JUMPDEST DUP2 PUSH20 0xFFFFFFFFFFFFFFFFFFFFFFFFFFFFFFFFFFFFFFFF AND CALLER PUSH20 0xFFFFFFFFFFFFFFFFFFFFFFFFFFFFFFFFFFFFFFFF AND PUSH32 0xDCBC1C05240F31FF3AD067EF1EE35CE4997762752E3A095284754544F4C709D7 DUP6 DUP5 PUSH1 0x40 MLOAD PUSH2 0xD22 SWAP3 SWAP2 SWAP1 PUSH2 0x1DC9 JUMP JUMPDEST PUSH1 0x40 MLOAD DUP1 SWAP2 SUB SWAP1 LOG3 PUSH2 0xD34 DUP4 DUP3 PUSH2 0x16AA JUMP JUMPDEST SWAP3 SWAP2 POP POP JUMP JUMPDEST PUSH1 0x3 PUSH1 0x20 MSTORE DUP1 PUSH1 0x0 MSTORE PUSH1 0x40 PUSH1 0x0 KECCAK256 PUSH1 0x0 SWAP2 POP SWAP1 POP SLOAD DUP2 JUMP JUMPDEST PUSH1 0x5 PUSH1 0x20 MSTORE DUP1 PUSH1 0x0 MSTORE PUSH1 0x40 PUSH1 0x0 KECCAK256 PUSH1 0x0 SWAP2 POP SWAP1 POP SLOAD DUP2 JUMP JUMPDEST PUSH1 0x0 PUSH2 0xD75 DUP4 PUSH2 0xF2A JUMP JUMPDEST SWAP1 POP PUSH2 0xD81 DUP2 DUP4 PUSH2 0xC1D JUMP JUMPDEST POP SWAP3 SWAP2 POP POP JUMP JUMPDEST PUSH1 0x1 DUP1 SLOAD PUSH2 0xD95 SWAP1 PUSH2 0x1C27 JUMP JUMPDEST DUP1 PUSH1 0x1F ADD PUSH1 0x20 DUP1 SWAP2 DIV MUL PUSH1 0x20 ADD PUSH1 0x40 MLOAD SWAP1 DUP2 ADD PUSH1 0x40 MSTORE DUP1 SWAP3 SWAP2 SWAP1 DUP2 DUP2 MSTORE PUSH1 0x20 ADD DUP3 DUP1 SLOAD PUSH2 0xDC1 SWAP1 PUSH2 0x1C27 JUMP JUMPDEST DUP1 ISZERO PUSH2 0xE0E JUMPI DUP1 PUSH1 0x1F LT PUSH2 0xDE3 JUMPI PUSH2 0x100 DUP1 DUP4 SLOAD DIV MUL DUP4 MSTORE SWAP2 PUSH1 0x20 ADD SWAP2 PUSH2 0xE0E JUMP JUMPDEST DUP3 ADD SWAP2 SWAP1 PUSH1 0x0 MSTORE PUSH1 0x20 PUSH1 0x0 KECCAK256 SWAP1 JUMPDEST DUP2 SLOAD DUP2 MSTORE SWAP1 PUSH1 0x1 ADD SWAP1 PUSH1 0x20 ADD DUP1 DUP4 GT PUSH2 0xDF1 JUMPI DUP3 SWAP1 SUB PUSH1 0x1F AND DUP3 ADD SWAP2 JUMPDEST POP POP POP POP POP DUP2 JUMP JUMPDEST PUSH1 0x0 DUP2 PUSH1 0x3 PUSH1 0x0 CALLER PUSH20 0xFFFFFFFFFFFFFFFFFFFFFFFFFFFFFFFFFFFFFFFF AND PUSH20 0xFFFFFFFFFFFFFFFFFFFFFFFFFFFFFFFFFFFFFFFF AND DUP2 MSTORE PUSH1 0x20 ADD SWAP1 DUP2 MSTORE PUSH1 0x20 ADD PUSH1 0x0 KECCAK256 PUSH1 0x0 DUP3 DUP3 SLOAD PUSH2 0xE67 SWAP2 SWAP1 PUSH2 0x1D29 JUMP JUMPDEST SWAP3 POP POP DUP2 SWAP1 SSTORE POP DUP2 PUSH1 0x3 PUSH1 0x0 DUP6 PUSH20 0xFFFFFFFFFFFFFFFFFFFFFFFFFFFFFFFFFFFFFFFF AND PUSH20 0xFFFFFFFFFFFFFFFFFFFFFFFFFFFFFFFFFFFFFFFF AND DUP2 MSTORE PUSH1 0x20 ADD SWAP1 DUP2 MSTORE PUSH1 0x20 ADD PUSH1 0x0 KECCAK256 PUSH1 0x0 DUP3 DUP3 SLOAD ADD SWAP3 POP POP DUP2 SWAP1 SSTORE POP DUP3 PUSH20 0xFFFFFFFFFFFFFFFFFFFFFFFFFFFFFFFFFFFFFFFF AND CALLER PUSH20 0xFFFFFFFFFFFFFFFFFFFFFFFFFFFFFFFFFFFFFFFF AND PUSH32 0xDDF252AD1BE2C89B69C2B068FC378DAA952BA7F163C4A11628F55A4DF523B3EF DUP5 PUSH1 0x40 MLOAD PUSH2 0xF18 SWAP2 SWAP1 PUSH2 0x16C7 JUMP JUMPDEST PUSH1 0x40 MLOAD DUP1 SWAP2 SUB SWAP1 LOG3 PUSH1 0x1 SWAP1 POP SWAP3 SWAP2 POP POP JUMP JUMPDEST PUSH1 0x0 DUP1 PUSH1 0x2 SLOAD SUB PUSH2 0xF3D JUMPI DUP2 SWAP1 POP PUSH2 0xF96 JUMP JUMPDEST PUSH2 0xF93 PUSH1 0x3 PUSH1 0x0 CALLER PUSH20 0xFFFFFFFFFFFFFFFFFFFFFFFFFFFFFFFFFFFFFFFF AND PUSH20 0xFFFFFFFFFFFFFFFFFFFFFFFFFFFFFFFFFFFFFFFF AND DUP2 MSTORE PUSH1 0x20 ADD SWAP1 DUP2 MSTORE PUSH1 0x20 ADD PUSH1 0x0 KECCAK256 SLOAD DUP4 PUSH2 0xF8B SWAP2 SWAP1 PUSH2 0x1C87 JUMP JUMPDEST PUSH1 0x2 SLOAD PUSH2 0x142F JUMP JUMPDEST SWAP1 POP JUMPDEST SWAP2 SWAP1 POP JUMP JUMPDEST PUSH1 0x0 PUSH2 0xFA6 DUP5 PUSH2 0x85B JUMP JUMPDEST SWAP1 POP SWAP4 SWAP3 POP POP POP JUMP JUMPDEST PUSH1 0x0 SWAP4 SWAP3 POP POP POP JUMP JUMPDEST PUSH1 0x0 PUSH2 0x1002 PUSH1 0x3 PUSH1 0x0 DUP5 PUSH20 0xFFFFFFFFFFFFFFFFFFFFFFFFFFFFFFFFFFFFFFFF AND PUSH20 0xFFFFFFFFFFFFFFFFFFFFFFFFFFFFFFFFFFFFFFFF AND DUP2 MSTORE PUSH1 0x20 ADD SWAP1 DUP2 MSTORE PUSH1 0x20 ADD PUSH1 0x0 KECCAK256 SLOAD PUSH2 0x1009 JUMP JUMPDEST SWAP1 POP SWAP2 SWAP1 POP JUMP JUMPDEST PUSH1 0x0 DUP1 PUSH1 0x2 SLOAD SUB PUSH2 0x101C JUMPI DUP2 SWAP1 POP PUSH2 0x103A JUMP JUMPDEST PUSH1 0x2 SLOAD PUSH1 0x2 SLOAD DUP4 PUSH2 0x102D SWAP2 SWAP1 PUSH2 0x1C87 JUMP JUMPDEST PUSH2 0x1037 SWAP2 SWAP1 PUSH2 0x1CF8 JUMP JUMPDEST SWAP1 POP JUMPDEST SWAP2 SWAP1 POP JUMP JUMPDEST PUSH1 0x0 PUSH2 0x1089 PUSH1 0x3 PUSH1 0x0 DUP5 PUSH20 0xFFFFFFFFFFFFFFFFFFFFFFFFFFFFFFFFFFFFFFFF AND PUSH20 0xFFFFFFFFFFFFFFFFFFFFFFFFFFFFFFFFFFFFFFFF AND DUP2 MSTORE PUSH1 0x20 ADD SWAP1 DUP2 MSTORE PUSH1 0x20 ADD PUSH1 0x0 KECCAK256 SLOAD PUSH2 0x733 JUMP JUMPDEST SWAP1 POP SWAP2 SWAP1 POP JUMP JUMPDEST TIMESTAMP DUP5 LT ISZERO PUSH2 0x10D3 JUMPI PUSH1 0x40 MLOAD PUSH32 0x8C379A000000000000000000000000000000000000000000000000000000000 DUP2 MSTORE PUSH1 0x4 ADD PUSH2 0x10CA SWAP1 PUSH2 0x1E3E JUMP JUMPDEST PUSH1 0x40 MLOAD DUP1 SWAP2 SUB SWAP1 REVERT JUMPDEST PUSH1 0x0 PUSH1 0x1 PUSH2 0x10DF PUSH2 0xB41 JUMP JUMPDEST PUSH32 0x6E71EDAE12B1B97F4D1F60370FEF10105FA2FAAE0126114A169C64845D6126C9 DUP11 DUP11 DUP11 PUSH1 0x5 PUSH1 0x0 DUP16 PUSH20 0xFFFFFFFFFFFFFFFFFFFFFFFFFFFFFFFFFFFFFFFF AND PUSH20 0xFFFFFFFFFFFFFFFFFFFFFFFFFFFFFFFFFFFFFFFF AND DUP2 MSTORE PUSH1 0x20 ADD SWAP1 DUP2 MSTORE PUSH1 0x20 ADD PUSH1 0x0 KECCAK256 PUSH1 0x0 DUP2 SLOAD DUP1 SWAP3 SWAP2 SWAP1 PUSH1 0x1 ADD SWAP2 SWAP1 POP SSTORE DUP12 PUSH1 0x40 MLOAD PUSH1 0x20 ADD PUSH2 0x1167 SWAP7 SWAP6 SWAP5 SWAP4 SWAP3 SWAP2 SWAP1 PUSH2 0x1E6D JUMP JUMPDEST PUSH1 0x40 MLOAD PUSH1 0x20 DUP2 DUP4 SUB SUB DUP2 MSTORE SWAP1 PUSH1 0x40 MSTORE DUP1 MLOAD SWAP1 PUSH1 0x20 ADD KECCAK256 PUSH1 0x40 MLOAD PUSH1 0x20 ADD PUSH2 0x118E SWAP3 SWAP2 SWAP1 PUSH2 0x1F46 JUMP JUMPDEST PUSH1 0x40 MLOAD PUSH1 0x20 DUP2 DUP4 SUB SUB DUP2 MSTORE SWAP1 PUSH1 0x40 MSTORE DUP1 MLOAD SWAP1 PUSH1 0x20 ADD KECCAK256 DUP6 DUP6 DUP6 PUSH1 0x40 MLOAD PUSH1 0x0 DUP2 MSTORE PUSH1 0x20 ADD PUSH1 0x40 MSTORE PUSH1 0x40 MLOAD PUSH2 0x11C4 SWAP5 SWAP4 SWAP3 SWAP2 SWAP1 PUSH2 0x1F7D JUMP JUMPDEST PUSH1 0x20 PUSH1 0x40 MLOAD PUSH1 0x20 DUP2 SUB SWAP1 DUP1 DUP5 SUB SWAP1 DUP6 GAS STATICCALL ISZERO DUP1 ISZERO PUSH2 0x11E6 JUMPI RETURNDATASIZE PUSH1 0x0 DUP1 RETURNDATACOPY RETURNDATASIZE PUSH1 0x0 REVERT JUMPDEST POP POP POP PUSH1 0x20 PUSH1 0x40 MLOAD SUB MLOAD SWAP1 POP PUSH1 0x0 PUSH20 0xFFFFFFFFFFFFFFFFFFFFFFFFFFFFFFFFFFFFFFFF AND DUP2 PUSH20 0xFFFFFFFFFFFFFFFFFFFFFFFFFFFFFFFFFFFFFFFF AND EQ ISZERO DUP1 ISZERO PUSH2 0x125A JUMPI POP DUP8 PUSH20 0xFFFFFFFFFFFFFFFFFFFFFFFFFFFFFFFFFFFFFFFF AND DUP2 PUSH20 0xFFFFFFFFFFFFFFFFFFFFFFFFFFFFFFFFFFFFFFFF AND EQ JUMPDEST PUSH2 0x1299 JUMPI PUSH1 0x40 MLOAD PUSH32 0x8C379A000000000000000000000000000000000000000000000000000000000 DUP2 MSTORE PUSH1 0x4 ADD PUSH2 0x1290 SWAP1 PUSH2 0x200E JUMP JUMPDEST PUSH1 0x40 MLOAD DUP1 SWAP2 SUB SWAP1 REVERT JUMPDEST DUP6 PUSH1 0x4 PUSH1 0x0 DUP4 PUSH20 0xFFFFFFFFFFFFFFFFFFFFFFFFFFFFFFFFFFFFFFFF AND PUSH20 0xFFFFFFFFFFFFFFFFFFFFFFFFFFFFFFFFFFFFFFFF AND DUP2 MSTORE PUSH1 0x20 ADD SWAP1 DUP2 MSTORE PUSH1 0x20 ADD PUSH1 0x0 KECCAK256 PUSH1 0x0 DUP10 PUSH20 0xFFFFFFFFFFFFFFFFFFFFFFFFFFFFFFFFFFFFFFFF AND PUSH20 0xFFFFFFFFFFFFFFFFFFFFFFFFFFFFFFFFFFFFFFFF AND DUP2 MSTORE PUSH1 0x20 ADD SWAP1 DUP2 MSTORE PUSH1 0x20 ADD PUSH1 0x0 KECCAK256 DUP2 SWAP1 SSTORE POP POP DUP6 PUSH20 0xFFFFFFFFFFFFFFFFFFFFFFFFFFFFFFFFFFFFFFFF AND DUP8 PUSH20 0xFFFFFFFFFFFFFFFFFFFFFFFFFFFFFFFFFFFFFFFF AND PUSH32 0x8C5BE1E5EBEC7D5BD14F71427D1E84F3DD0314C0F7B2291E5B200AC8C7C3B925 DUP8 PUSH1 0x40 MLOAD PUSH2 0x1378 SWAP2 SWAP1 PUSH2 0x16C7 JUMP JUMPDEST PUSH1 0x40 MLOAD DUP1 SWAP2 SUB SWAP1 LOG3 POP POP POP POP POP POP POP JUMP JUMPDEST PUSH1 0x0 PUSH1 0x3 PUSH1 0x0 DUP4 PUSH20 0xFFFFFFFFFFFFFFFFFFFFFFFFFFFFFFFFFFFFFFFF AND PUSH20 0xFFFFFFFFFFFFFFFFFFFFFFFFFFFFFFFFFFFFFFFF AND DUP2 MSTORE PUSH1 0x20 ADD SWAP1 DUP2 MSTORE PUSH1 0x20 ADD PUSH1 0x0 KECCAK256 SLOAD SWAP1 POP SWAP2 SWAP1 POP JUMP JUMPDEST PUSH1 0x4 PUSH1 0x20 MSTORE DUP2 PUSH1 0x0 MSTORE PUSH1 0x40 PUSH1 0x0 KECCAK256 PUSH1 0x20 MSTORE DUP1 PUSH1 0x0 MSTORE PUSH1 0x40 PUSH1 0x0 KECCAK256 PUSH1 0x0 SWAP2 POP SWAP2 POP POP SLOAD DUP2 JUMP JUMPDEST PUSH1 0x0 PUSH2 0x1402 DUP3 PUSH2 0x1009 JUMP JUMPDEST SWAP1 POP SWAP2 SWAP1 POP JUMP JUMPDEST PUSH1 0x6 PUSH1 0x0 SWAP1 SLOAD SWAP1 PUSH2 0x100 EXP SWAP1 DIV PUSH20 0xFFFFFFFFFFFFFFFFFFFFFFFFFFFFFFFFFFFFFFFF AND DUP2 JUMP JUMPDEST PUSH1 0x0 DUP1 DUP3 SUB PUSH2 0x1473 JUMPI PUSH1 0x40 MLOAD PUSH32 0x8C379A000000000000000000000000000000000000000000000000000000000 DUP2 MSTORE PUSH1 0x4 ADD PUSH2 0x146A SWAP1 PUSH2 0x207A JUMP JUMPDEST PUSH1 0x40 MLOAD DUP1 SWAP2 SUB SWAP1 REVERT JUMPDEST PUSH1 0x0 DUP3 DUP5 PUSH2 0x1481 SWAP2 SWAP1 PUSH2 0x1CF8 JUMP JUMPDEST SWAP1 POP PUSH1 0x0 DUP4 DUP6 PUSH2 0x1491 SWAP2 SWAP1 PUSH2 0x209A JUMP JUMPDEST EQ PUSH2 0x14A5 JUMPI DUP1 DUP1 PUSH2 0x14A1 SWAP1 PUSH2 0x20CB JUMP JUMPDEST SWAP2 POP POP JUMPDEST DUP1 SWAP2 POP POP SWAP3 SWAP2 POP POP JUMP JUMPDEST PUSH1 0x0 PUSH32 0x8B73C3C69BB8FE3D512ECC4CF759CC79239F7B179B0FFACAA9A75D522B39400F PUSH1 0x0 PUSH1 0x40 MLOAD PUSH2 0x14E1 SWAP2 SWAP1 PUSH2 0x21B6 JUMP JUMPDEST PUSH1 0x40 MLOAD DUP1 SWAP2 SUB SWAP1 KECCAK256 PUSH32 0xC89EFDAA54C0F20C7ADF612882DF0950F5A951637E0307CDCB4C672F298B8BC6 CHAINID ADDRESS PUSH1 0x40 MLOAD PUSH1 0x20 ADD PUSH2 0x1520 SWAP6 SWAP5 SWAP4 SWAP3 SWAP2 SWAP1 PUSH2 0x21CD JUMP JUMPDEST PUSH1 0x40 MLOAD PUSH1 0x20 DUP2 DUP4 SUB SUB DUP2 MSTORE SWAP1 PUSH1 0x40 MSTORE DUP1 MLOAD SWAP1 PUSH1 0x20 ADD KECCAK256 SWAP1 POP SWAP1 JUMP JUMPDEST PUSH1 0x0 PUSH1 0x40 MLOAD PUSH32 0x23B872DD00000000000000000000000000000000000000000000000000000000 DUP2 MSTORE DUP5 PUSH1 0x4 DUP3 ADD MSTORE DUP4 PUSH1 0x24 DUP3 ADD MSTORE DUP3 PUSH1 0x44 DUP3 ADD MSTORE PUSH1 0x20 PUSH1 0x0 PUSH1 0x64 DUP4 PUSH1 0x0 DUP11 GAS CALL RETURNDATASIZE ISZERO PUSH1 0x1F RETURNDATASIZE GT PUSH1 0x1 PUSH1 0x0 MLOAD EQ AND OR AND SWAP2 POP POP DUP1 PUSH2 0x15D3 JUMPI PUSH1 0x40 MLOAD PUSH32 0x8C379A000000000000000000000000000000000000000000000000000000000 DUP2 MSTORE PUSH1 0x4 ADD PUSH2 0x15CA SWAP1 PUSH2 0x226C JUMP JUMPDEST PUSH1 0x40 MLOAD DUP1 SWAP2 SUB SWAP1 REVERT JUMPDEST POP POP POP POP POP JUMP JUMPDEST DUP1 PUSH1 0x2 PUSH1 0x0 DUP3 DUP3 SLOAD PUSH2 0x15EC SWAP2 SWAP1 PUSH2 0x228C JUMP JUMPDEST SWAP3 POP POP DUP2 SWAP1 SSTORE POP DUP1 PUSH1 0x3 PUSH1 0x0 DUP5 PUSH20 0xFFFFFFFFFFFFFFFFFFFFFFFFFFFFFFFFFFFFFFFF AND PUSH20 0xFFFFFFFFFFFFFFFFFFFFFFFFFFFFFFFFFFFFFFFF AND DUP2 MSTORE PUSH1 0x20 ADD SWAP1 DUP2 MSTORE PUSH1 0x20 ADD PUSH1 0x0 KECCAK256 PUSH1 0x0 DUP3 DUP3 SLOAD ADD SWAP3 POP POP DUP2 SWAP1 SSTORE POP DUP2 PUSH20 0xFFFFFFFFFFFFFFFFFFFFFFFFFFFFFFFFFFFFFFFF AND PUSH1 0x0 PUSH20 0xFFFFFFFFFFFFFFFFFFFFFFFFFFFFFFFFFFFFFFFF AND PUSH32 0xDDF252AD1BE2C89B69C2B068FC378DAA952BA7F163C4A11628F55A4DF523B3EF DUP4 PUSH1 0x40 MLOAD PUSH2 0x169E SWAP2 SWAP1 PUSH2 0x16C7 JUMP JUMPDEST PUSH1 0x40 MLOAD DUP1 SWAP2 SUB SWAP1 LOG3 POP POP JUMP JUMPDEST POP POP JUMP JUMPDEST PUSH1 0x0 DUP2 SWAP1 POP SWAP2 SWAP1 POP JUMP JUMPDEST PUSH2 0x16C1 DUP2 PUSH2 0x16AE JUMP JUMPDEST DUP3 MSTORE POP POP JUMP JUMPDEST PUSH1 0x0 PUSH1 0x20 DUP3 ADD SWAP1 POP PUSH2 0x16DC PUSH1 0x0 DUP4 ADD DUP5 PUSH2 0x16B8 JUMP JUMPDEST SWAP3 SWAP2 POP POP JUMP JUMPDEST PUSH1 0x0 DUP2 MLOAD SWAP1 POP SWAP2 SWAP1 POP JUMP JUMPDEST PUSH1 0x0 DUP3 DUP3 MSTORE PUSH1 0x20 DUP3 ADD SWAP1 POP SWAP3 SWAP2 POP POP JUMP JUMPDEST PUSH1 0x0 JUMPDEST DUP4 DUP2 LT ISZERO PUSH2 0x171C JUMPI DUP1 DUP3 ADD MLOAD DUP2 DUP5 ADD MSTORE PUSH1 0x20 DUP2 ADD SWAP1 POP PUSH2 0x1701 JUMP JUMPDEST PUSH1 0x0 DUP5 DUP5 ADD MSTORE POP POP POP POP JUMP JUMPDEST PUSH1 0x0 PUSH1 0x1F NOT PUSH1 0x1F DUP4 ADD AND SWAP1 POP SWAP2 SWAP1 POP JUMP JUMPDEST PUSH1 0x0 PUSH2 0x1744 DUP3 PUSH2 0x16E2 JUMP JUMPDEST PUSH2 0x174E DUP2 DUP6 PUSH2 0x16ED JUMP JUMPDEST SWAP4 POP PUSH2 0x175E DUP2 DUP6 PUSH1 0x20 DUP7 ADD PUSH2 0x16FE JUMP JUMPDEST PUSH2 0x1767 DUP2 PUSH2 0x1728 JUMP JUMPDEST DUP5 ADD SWAP2 POP POP SWAP3 SWAP2 POP POP JUMP JUMPDEST PUSH1 0x0 PUSH1 0x20 DUP3 ADD SWAP1 POP DUP2 DUP2 SUB PUSH1 0x0 DUP4 ADD MSTORE PUSH2 0x178C DUP2 DUP5 PUSH2 0x1739 JUMP JUMPDEST SWAP1 POP SWAP3 SWAP2 POP POP JUMP JUMPDEST PUSH1 0x0 DUP1 REVERT JUMPDEST PUSH2 0x17A2 DUP2 PUSH2 0x16AE JUMP JUMPDEST DUP2 EQ PUSH2 0x17AD JUMPI PUSH1 0x0 DUP1 REVERT JUMPDEST POP JUMP JUMPDEST PUSH1 0x0 DUP2 CALLDATALOAD SWAP1 POP PUSH2 0x17BF DUP2 PUSH2 0x1799 JUMP JUMPDEST SWAP3 SWAP2 POP POP JUMP JUMPDEST PUSH1 0x0 PUSH1 0x20 DUP3 DUP5 SUB SLT ISZERO PUSH2 0x17DB JUMPI PUSH2 0x17DA PUSH2 0x1794 JUMP JUMPDEST JUMPDEST PUSH1 0x0 PUSH2 0x17E9 DUP5 DUP3 DUP6 ADD PUSH2 0x17B0 JUMP JUMPDEST SWAP2 POP POP SWAP3 SWAP2 POP POP JUMP JUMPDEST PUSH1 0x0 PUSH20 0xFFFFFFFFFFFFFFFFFFFFFFFFFFFFFFFFFFFFFFFF DUP3 AND SWAP1 POP SWAP2 SWAP1 POP JUMP JUMPDEST PUSH1 0x0 PUSH2 0x181D DUP3 PUSH2 0x17F2 JUMP JUMPDEST SWAP1 POP SWAP2 SWAP1 POP JUMP JUMPDEST PUSH2 0x182D DUP2 PUSH2 0x1812 JUMP JUMPDEST DUP2 EQ PUSH2 0x1838 JUMPI PUSH1 0x0 DUP1 REVERT JUMPDEST POP JUMP JUMPDEST PUSH1 0x0 DUP2 CALLDATALOAD SWAP1 POP PUSH2 0x184A DUP2 PUSH2 0x1824 JUMP JUMPDEST SWAP3 SWAP2 POP POP JUMP JUMPDEST PUSH1 0x0 DUP1 PUSH1 0x40 DUP4 DUP6 SUB SLT ISZERO PUSH2 0x1867 JUMPI PUSH2 0x1866 PUSH2 0x1794 JUMP JUMPDEST JUMPDEST PUSH1 0x0 PUSH2 0x1875 DUP6 DUP3 DUP7 ADD PUSH2 0x183B JUMP JUMPDEST SWAP3 POP POP PUSH1 0x20 PUSH2 0x1886 DUP6 DUP3 DUP7 ADD PUSH2 0x17B0 JUMP JUMPDEST SWAP2 POP POP SWAP3 POP SWAP3 SWAP1 POP JUMP JUMPDEST PUSH1 0x0 DUP2 ISZERO ISZERO SWAP1 POP SWAP2 SWAP1 POP JUMP JUMPDEST PUSH2 0x18A5 DUP2 PUSH2 0x1890 JUMP JUMPDEST DUP3 MSTORE POP POP JUMP JUMPDEST PUSH1 0x0 PUSH1 0x20 DUP3 ADD SWAP1 POP PUSH2 0x18C0 PUSH1 0x0 DUP4 ADD DUP5 PUSH2 0x189C JUMP JUMPDEST SWAP3 SWAP2 POP POP JUMP JUMPDEST PUSH1 0x0 DUP1 PUSH1 0x0 PUSH1 0x60 DUP5 DUP7 SUB SLT ISZERO PUSH2 0x18DF JUMPI PUSH2 0x18DE PUSH2 0x1794 JUMP JUMPDEST JUMPDEST PUSH1 0x0 PUSH2 0x18ED DUP7 DUP3 DUP8 ADD PUSH2 0x183B JUMP JUMPDEST SWAP4 POP POP PUSH1 0x20 PUSH2 0x18FE DUP7 DUP3 DUP8 ADD PUSH2 0x183B JUMP JUMPDEST SWAP3 POP POP PUSH1 0x40 PUSH2 0x190F DUP7 DUP3 DUP8 ADD PUSH2 0x17B0 JUMP JUMPDEST SWAP2 POP POP SWAP3 POP SWAP3 POP SWAP3 JUMP JUMPDEST PUSH1 0x0 PUSH1 0xFF DUP3 AND SWAP1 POP SWAP2 SWAP1 POP JUMP JUMPDEST PUSH2 0x192F DUP2 PUSH2 0x1919 JUMP JUMPDEST DUP3 MSTORE POP POP JUMP JUMPDEST PUSH1 0x0 PUSH1 0x20 DUP3 ADD SWAP1 POP PUSH2 0x194A PUSH1 0x0 DUP4 ADD DUP5 PUSH2 0x1926 JUMP JUMPDEST SWAP3 SWAP2 POP POP JUMP JUMPDEST PUSH1 0x0 DUP2 SWAP1 POP SWAP2 SWAP1 POP JUMP JUMPDEST PUSH2 0x1963 DUP2 PUSH2 0x1950 JUMP JUMPDEST DUP3 MSTORE POP POP JUMP JUMPDEST PUSH1 0x0 PUSH1 0x20 DUP3 ADD SWAP1 POP PUSH2 0x197E PUSH1 0x0 DUP4 ADD DUP5 PUSH2 0x195A JUMP JUMPDEST SWAP3 SWAP2 POP POP JUMP JUMPDEST PUSH1 0x0 DUP2 SWAP1 POP SWAP2 SWAP1 POP JUMP JUMPDEST PUSH1 0x0 PUSH2 0x19A9 PUSH2 0x19A4 PUSH2 0x199F DUP5 PUSH2 0x17F2 JUMP JUMPDEST PUSH2 0x1984 JUMP JUMPDEST PUSH2 0x17F2 JUMP JUMPDEST SWAP1 POP SWAP2 SWAP1 POP JUMP JUMPDEST PUSH1 0x0 PUSH2 0x19BB DUP3 PUSH2 0x198E JUMP JUMPDEST SWAP1 POP SWAP2 SWAP1 POP JUMP JUMPDEST PUSH1 0x0 PUSH2 0x19CD DUP3 PUSH2 0x19B0 JUMP JUMPDEST SWAP1 POP SWAP2 SWAP1 POP JUMP JUMPDEST PUSH2 0x19DD DUP2 PUSH2 0x19C2 JUMP JUMPDEST DUP3 MSTORE POP POP JUMP JUMPDEST PUSH1 0x0 PUSH1 0x20 DUP3 ADD SWAP1 POP PUSH2 0x19F8 PUSH1 0x0 DUP4 ADD DUP5 PUSH2 0x19D4 JUMP JUMPDEST SWAP3 SWAP2 POP POP JUMP JUMPDEST PUSH1 0x0 PUSH1 0x20 DUP3 DUP5 SUB SLT ISZERO PUSH2 0x1A14 JUMPI PUSH2 0x1A13 PUSH2 0x1794 JUMP JUMPDEST JUMPDEST PUSH1 0x0 PUSH2 0x1A22 DUP5 DUP3 DUP6 ADD PUSH2 0x183B JUMP JUMPDEST SWAP2 POP POP SWAP3 SWAP2 POP POP JUMP JUMPDEST PUSH1 0x0 DUP1 PUSH1 0x40 DUP4 DUP6 SUB SLT ISZERO PUSH2 0x1A42 JUMPI PUSH2 0x1A41 PUSH2 0x1794 JUMP JUMPDEST JUMPDEST PUSH1 0x0 PUSH2 0x1A50 DUP6 DUP3 DUP7 ADD PUSH2 0x17B0 JUMP JUMPDEST SWAP3 POP POP PUSH1 0x20 PUSH2 0x1A61 DUP6 DUP3 DUP7 ADD PUSH2 0x183B JUMP JUMPDEST SWAP2 POP POP SWAP3 POP SWAP3 SWAP1 POP JUMP JUMPDEST PUSH1 0x0 DUP1 PUSH1 0x0 PUSH1 0x60 DUP5 DUP7 SUB SLT ISZERO PUSH2 0x1A84 JUMPI PUSH2 0x1A83 PUSH2 0x1794 JUMP JUMPDEST JUMPDEST PUSH1 0x0 PUSH2 0x1A92 DUP7 DUP3 DUP8 ADD PUSH2 0x17B0 JUMP JUMPDEST SWAP4 POP POP PUSH1 0x20 PUSH2 0x1AA3 DUP7 DUP3 DUP8 ADD PUSH2 0x183B JUMP JUMPDEST SWAP3 POP POP PUSH1 0x40 PUSH2 0x1AB4 DUP7 DUP3 DUP8 ADD PUSH2 0x183B JUMP JUMPDEST SWAP2 POP POP SWAP3 POP SWAP3 POP SWAP3 JUMP JUMPDEST PUSH2 0x1AC7 DUP2 PUSH2 0x1919 JUMP JUMPDEST DUP2 EQ PUSH2 0x1AD2 JUMPI PUSH1 0x0 DUP1 REVERT JUMPDEST POP JUMP JUMPDEST PUSH1 0x0 DUP2 CALLDATALOAD SWAP1 POP PUSH2 0x1AE4 DUP2 PUSH2 0x1ABE JUMP JUMPDEST SWAP3 SWAP2 POP POP JUMP JUMPDEST PUSH2 0x1AF3 DUP2 PUSH2 0x1950 JUMP JUMPDEST DUP2 EQ PUSH2 0x1AFE JUMPI PUSH1 0x0 DUP1 REVERT JUMPDEST POP JUMP JUMPDEST PUSH1 0x0 DUP2 CALLDATALOAD SWAP1 POP PUSH2 0x1B10 DUP2 PUSH2 0x1AEA JUMP JUMPDEST SWAP3 SWAP2 POP POP JUMP JUMPDEST PUSH1 0x0 DUP1 PUSH1 0x0 DUP1 PUSH1 0x0 DUP1 PUSH1 0x0 PUSH1 0xE0 DUP9 DUP11 SUB SLT ISZERO PUSH2 0x1B35 JUMPI PUSH2 0x1B34 PUSH2 0x1794 JUMP JUMPDEST JUMPDEST PUSH1 0x0 PUSH2 0x1B43 DUP11 DUP3 DUP12 ADD PUSH2 0x183B JUMP JUMPDEST SWAP8 POP POP PUSH1 0x20 PUSH2 0x1B54 DUP11 DUP3 DUP12 ADD PUSH2 0x183B JUMP JUMPDEST SWAP7 POP POP PUSH1 0x40 PUSH2 0x1B65 DUP11 DUP3 DUP12 ADD PUSH2 0x17B0 JUMP JUMPDEST SWAP6 POP POP PUSH1 0x60 PUSH2 0x1B76 DUP11 DUP3 DUP12 ADD PUSH2 0x17B0 JUMP JUMPDEST SWAP5 POP POP PUSH1 0x80 PUSH2 0x1B87 DUP11 DUP3 DUP12 ADD PUSH2 0x1AD5 JUMP JUMPDEST SWAP4 POP POP PUSH1 0xA0 PUSH2 0x1B98 DUP11 DUP3 DUP12 ADD PUSH2 0x1B01 JUMP JUMPDEST SWAP3 POP POP PUSH1 0xC0 PUSH2 0x1BA9 DUP11 DUP3 DUP12 ADD PUSH2 0x1B01 JUMP JUMPDEST SWAP2 POP POP SWAP3 SWAP6 SWAP9 SWAP2 SWAP5 SWAP8 POP SWAP3 SWAP6 POP JUMP JUMPDEST PUSH1 0x0 DUP1 PUSH1 0x40 DUP4 DUP6 SUB SLT ISZERO PUSH2 0x1BCF JUMPI PUSH2 0x1BCE PUSH2 0x1794 JUMP JUMPDEST JUMPDEST PUSH1 0x0 PUSH2 0x1BDD DUP6 DUP3 DUP7 ADD PUSH2 0x183B JUMP JUMPDEST SWAP3 POP POP PUSH1 0x20 PUSH2 0x1BEE DUP6 DUP3 DUP7 ADD PUSH2 0x183B JUMP JUMPDEST SWAP2 POP POP SWAP3 POP SWAP3 SWAP1 POP JUMP JUMPDEST PUSH32 0x4E487B7100000000000000000000000000000000000000000000000000000000 PUSH1 0x0 MSTORE PUSH1 0x22 PUSH1 0x4 MSTORE PUSH1 0x24 PUSH1 0x0 REVERT JUMPDEST PUSH1 0x0 PUSH1 0x2 DUP3 DIV SWAP1 POP PUSH1 0x1 DUP3 AND DUP1 PUSH2 0x1C3F JUMPI PUSH1 0x7F DUP3 AND SWAP2 POP JUMPDEST PUSH1 0x20 DUP3 LT DUP2 SUB PUSH2 0x1C52 JUMPI PUSH2 0x1C51 PUSH2 0x1BF8 JUMP JUMPDEST JUMPDEST POP SWAP2 SWAP1 POP JUMP JUMPDEST PUSH32 0x4E487B7100000000000000000000000000000000000000000000000000000000 PUSH1 0x0 MSTORE PUSH1 0x11 PUSH1 0x4 MSTORE PUSH1 0x24 PUSH1 0x0 REVERT JUMPDEST PUSH1 0x0 PUSH2 0x1C92 DUP3 PUSH2 0x16AE JUMP JUMPDEST SWAP2 POP PUSH2 0x1C9D DUP4 PUSH2 0x16AE JUMP JUMPDEST SWAP3 POP DUP3 DUP3 MUL PUSH2 0x1CAB DUP2 PUSH2 0x16AE JUMP JUMPDEST SWAP2 POP DUP3 DUP3 DIV DUP5 EQ DUP4 ISZERO OR PUSH2 0x1CC2 JUMPI PUSH2 0x1CC1 PUSH2 0x1C58 JUMP JUMPDEST JUMPDEST POP SWAP3 SWAP2 POP POP JUMP JUMPDEST PUSH32 0x4E487B7100000000000000000000000000000000000000000000000000000000 PUSH1 0x0 MSTORE PUSH1 0x12 PUSH1 0x4 MSTORE PUSH1 0x24 PUSH1 0x0 REVERT JUMPDEST PUSH1 0x0 PUSH2 0x1D03 DUP3 PUSH2 0x16AE JUMP JUMPDEST SWAP2 POP PUSH2 0x1D0E DUP4 PUSH2 0x16AE JUMP JUMPDEST SWAP3 POP DUP3 PUSH2 0x1D1E JUMPI PUSH2 0x1D1D PUSH2 0x1CC9 JUMP JUMPDEST JUMPDEST DUP3 DUP3 DIV SWAP1 POP SWAP3 SWAP2 POP POP JUMP JUMPDEST PUSH1 0x0 PUSH2 0x1D34 DUP3 PUSH2 0x16AE JUMP JUMPDEST SWAP2 POP PUSH2 0x1D3F DUP4 PUSH2 0x16AE JUMP JUMPDEST SWAP3 POP DUP3 DUP3 SUB SWAP1 POP DUP2 DUP2 GT ISZERO PUSH2 0x1D57 JUMPI PUSH2 0x1D56 PUSH2 0x1C58 JUMP JUMPDEST JUMPDEST SWAP3 SWAP2 POP POP JUMP JUMPDEST PUSH32 0x5A45524F5F534841524553000000000000000000000000000000000000000000 PUSH1 0x0 DUP3 ADD MSTORE POP JUMP JUMPDEST PUSH1 0x0 PUSH2 0x1D93 PUSH1 0xB DUP4 PUSH2 0x16ED JUMP JUMPDEST SWAP2 POP PUSH2 0x1D9E DUP3 PUSH2 0x1D5D JUMP JUMPDEST PUSH1 0x20 DUP3 ADD SWAP1 POP SWAP2 SWAP1 POP JUMP JUMPDEST PUSH1 0x0 PUSH1 0x20 DUP3 ADD SWAP1 POP DUP2 DUP2 SUB PUSH1 0x0 DUP4 ADD MSTORE PUSH2 0x1DC2 DUP2 PUSH2 0x1D86 JUMP JUMPDEST SWAP1 POP SWAP2 SWAP1 POP JUMP JUMPDEST PUSH1 0x0 PUSH1 0x40 DUP3 ADD SWAP1 POP PUSH2 0x1DDE PUSH1 0x0 DUP4 ADD DUP6 PUSH2 0x16B8 JUMP JUMPDEST PUSH2 0x1DEB PUSH1 0x20 DUP4 ADD DUP5 PUSH2 0x16B8 JUMP JUMPDEST SWAP4 SWAP3 POP POP POP JUMP JUMPDEST PUSH32 0x5045524D49545F444541444C494E455F45585049524544000000000000000000 PUSH1 0x0 DUP3 ADD MSTORE POP JUMP JUMPDEST PUSH1 0x0 PUSH2 0x1E28 PUSH1 0x17 DUP4 PUSH2 0x16ED JUMP JUMPDEST SWAP2 POP PUSH2 0x1E33 DUP3 PUSH2 0x1DF2 JUMP JUMPDEST PUSH1 0x20 DUP3 ADD SWAP1 POP SWAP2 SWAP1 POP JUMP JUMPDEST PUSH1 0x0 PUSH1 0x20 DUP3 ADD SWAP1 POP DUP2 DUP2 SUB PUSH1 0x0 DUP4 ADD MSTORE PUSH2 0x1E57 DUP2 PUSH2 0x1E1B JUMP JUMPDEST SWAP1 POP SWAP2 SWAP1 POP JUMP JUMPDEST PUSH2 0x1E67 DUP2 PUSH2 0x1812 JUMP JUMPDEST DUP3 MSTORE POP POP JUMP JUMPDEST PUSH1 0x0 PUSH1 0xC0 DUP3 ADD SWAP1 POP PUSH2 0x1E82 PUSH1 0x0 DUP4 ADD DUP10 PUSH2 0x195A JUMP JUMPDEST PUSH2 0x1E8F PUSH1 0x20 DUP4 ADD DUP9 PUSH2 0x1E5E JUMP JUMPDEST PUSH2 0x1E9C PUSH1 0x40 DUP4 ADD DUP8 PUSH2 0x1E5E JUMP JUMPDEST PUSH2 0x1EA9 PUSH1 0x60 DUP4 ADD DUP7 PUSH2 0x16B8 JUMP JUMPDEST PUSH2 0x1EB6 PUSH1 0x80 DUP4 ADD DUP6 PUSH2 0x16B8 JUMP JUMPDEST PUSH2 0x1EC3 PUSH1 0xA0 DUP4 ADD DUP5 PUSH2 0x16B8 JUMP JUMPDEST SWAP8 SWAP7 POP POP POP POP POP POP POP JUMP JUMPDEST PUSH1 0x0 DUP2 SWAP1 POP SWAP3 SWAP2 POP POP JUMP JUMPDEST PUSH32 0x1901000000000000000000000000000000000000000000000000000000000000 PUSH1 0x0 DUP3 ADD MSTORE POP JUMP JUMPDEST PUSH1 0x0 PUSH2 0x1F0F PUSH1 0x2 DUP4 PUSH2 0x1ECE JUMP JUMPDEST SWAP2 POP PUSH2 0x1F1A DUP3 PUSH2 0x1ED9 JUMP JUMPDEST PUSH1 0x2 DUP3 ADD SWAP1 POP SWAP2 SWAP1 POP JUMP JUMPDEST PUSH1 0x0 DUP2 SWAP1 POP SWAP2 SWAP1 POP JUMP JUMPDEST PUSH2 0x1F40 PUSH2 0x1F3B DUP3 PUSH2 0x1950 JUMP JUMPDEST PUSH2 0x1F25 JUMP JUMPDEST DUP3 MSTORE POP POP JUMP JUMPDEST PUSH1 0x0 PUSH2 0x1F51 DUP3 PUSH2 0x1F02 JUMP JUMPDEST SWAP2 POP PUSH2 0x1F5D DUP3 DUP6 PUSH2 0x1F2F JUMP JUMPDEST PUSH1 0x20 DUP3 ADD SWAP2 POP PUSH2 0x1F6D DUP3 DUP5 PUSH2 0x1F2F JUMP JUMPDEST PUSH1 0x20 DUP3 ADD SWAP2 POP DUP2 SWAP1 POP SWAP4 SWAP3 POP POP POP JUMP JUMPDEST PUSH1 0x0 PUSH1 0x80 DUP3 ADD SWAP1 POP PUSH2 0x1F92 PUSH1 0x0 DUP4 ADD DUP8 PUSH2 0x195A JUMP JUMPDEST PUSH2 0x1F9F PUSH1 0x20 DUP4 ADD DUP7 PUSH2 0x1926 JUMP JUMPDEST PUSH2 0x1FAC PUSH1 0x40 DUP4 ADD DUP6 PUSH2 0x195A JUMP JUMPDEST PUSH2 0x1FB9 PUSH1 0x60 DUP4 ADD DUP5 PUSH2 0x195A JUMP JUMPDEST SWAP6 SWAP5 POP POP POP POP POP JUMP JUMPDEST PUSH32 0x494E56414C49445F5349474E4552000000000000000000000000000000000000 PUSH1 0x0 DUP3 ADD MSTORE POP JUMP JUMPDEST PUSH1 0x0 PUSH2 0x1FF8 PUSH1 0xE DUP4 PUSH2 0x16ED JUMP JUMPDEST SWAP2 POP PUSH2 0x2003 DUP3 PUSH2 0x1FC2 JUMP JUMPDEST PUSH1 0x20 DUP3 ADD SWAP1 POP SWAP2 SWAP1 POP JUMP JUMPDEST PUSH1 0x0 PUSH1 0x20 DUP3 ADD SWAP1 POP DUP2 DUP2 SUB PUSH1 0x0 DUP4 ADD MSTORE PUSH2 0x2027 DUP2 PUSH2 0x1FEB JUMP JUMPDEST SWAP1 POP SWAP2 SWAP1 POP JUMP JUMPDEST PUSH32 0x4469766973696F6E206279203000000000000000000000000000000000000000 PUSH1 0x0 DUP3 ADD MSTORE POP JUMP JUMPDEST PUSH1 0x0 PUSH2 0x2064 PUSH1 0xD DUP4 PUSH2 0x16ED JUMP JUMPDEST SWAP2 POP PUSH2 0x206F DUP3 PUSH2 0x202E JUMP JUMPDEST PUSH1 0x20 DUP3 ADD SWAP1 POP SWAP2 SWAP1 POP JUMP JUMPDEST PUSH1 0x0 PUSH1 0x20 DUP3 ADD SWAP1 POP DUP2 DUP2 SUB PUSH1 0x0 DUP4 ADD MSTORE PUSH2 0x2093 DUP2 PUSH2 0x2057 JUMP JUMPDEST SWAP1 POP SWAP2 SWAP1 POP JUMP JUMPDEST PUSH1 0x0 PUSH2 0x20A5 DUP3 PUSH2 0x16AE JUMP JUMPDEST SWAP2 POP PUSH2 0x20B0 DUP4 PUSH2 0x16AE JUMP JUMPDEST SWAP3 POP DUP3 PUSH2 0x20C0 JUMPI PUSH2 0x20BF PUSH2 0x1CC9 JUMP JUMPDEST JUMPDEST DUP3 DUP3 MOD SWAP1 POP SWAP3 SWAP2 POP POP JUMP JUMPDEST PUSH1 0x0 PUSH2 0x20D6 DUP3 PUSH2 0x16AE JUMP JUMPDEST SWAP2 POP PUSH32 0xFFFFFFFFFFFFFFFFFFFFFFFFFFFFFFFFFFFFFFFFFFFFFFFFFFFFFFFFFFFFFFFF DUP3 SUB PUSH2 0x2108 JUMPI PUSH2 0x2107 PUSH2 0x1C58 JUMP JUMPDEST JUMPDEST PUSH1 0x1 DUP3 ADD SWAP1 POP SWAP2 SWAP1 POP JUMP JUMPDEST PUSH1 0x0 DUP2 SWAP1 POP SWAP3 SWAP2 POP POP JUMP JUMPDEST PUSH1 0x0 DUP2 SWAP1 POP DUP2 PUSH1 0x0 MSTORE PUSH1 0x20 PUSH1 0x0 KECCAK256 SWAP1 POP SWAP2 SWAP1 POP JUMP JUMPDEST PUSH1 0x0 DUP2 SLOAD PUSH2 0x2140 DUP2 PUSH2 0x1C27 JUMP JUMPDEST PUSH2 0x214A DUP2 DUP7 PUSH2 0x2113 JUMP JUMPDEST SWAP5 POP PUSH1 0x1 DUP3 AND PUSH1 0x0 DUP2 EQ PUSH2 0x2165 JUMPI PUSH1 0x1 DUP2 EQ PUSH2 0x217A JUMPI PUSH2 0x21AD JUMP JUMPDEST PUSH1 0xFF NOT DUP4 AND DUP7 MSTORE DUP2 ISZERO ISZERO DUP3 MUL DUP7 ADD SWAP4 POP PUSH2 0x21AD JUMP JUMPDEST PUSH2 0x2183 DUP6 PUSH2 0x211E JUMP JUMPDEST PUSH1 0x0 JUMPDEST DUP4 DUP2 LT ISZERO PUSH2 0x21A5 JUMPI DUP2 SLOAD DUP2 DUP10 ADD MSTORE PUSH1 0x1 DUP3 ADD SWAP2 POP PUSH1 0x20 DUP2 ADD SWAP1 POP PUSH2 0x2186 JUMP JUMPDEST DUP4 DUP9 ADD SWAP6 POP POP POP JUMPDEST POP POP POP SWAP3 SWAP2 POP POP JUMP JUMPDEST PUSH1 0x0 PUSH2 0x21C2 DUP3 DUP5 PUSH2 0x2133 JUMP JUMPDEST SWAP2 POP DUP2 SWAP1 POP SWAP3 SWAP2 POP POP JUMP JUMPDEST PUSH1 0x0 PUSH1 0xA0 DUP3 ADD SWAP1 POP PUSH2 0x21E2 PUSH1 0x0 DUP4 ADD DUP9 PUSH2 0x195A JUMP JUMPDEST PUSH2 0x21EF PUSH1 0x20 DUP4 ADD DUP8 PUSH2 0x195A JUMP JUMPDEST PUSH2 0x21FC PUSH1 0x40 DUP4 ADD DUP7 PUSH2 0x195A JUMP JUMPDEST PUSH2 0x2209 PUSH1 0x60 DUP4 ADD DUP6 PUSH2 0x16B8 JUMP JUMPDEST PUSH2 0x2216 PUSH1 0x80 DUP4 ADD DUP5 PUSH2 0x1E5E JUMP JUMPDEST SWAP7 SWAP6 POP POP POP POP POP POP JUMP JUMPDEST PUSH32 0x5452414E534645525F46524F4D5F4641494C4544000000000000000000000000 PUSH1 0x0 DUP3 ADD MSTORE POP JUMP JUMPDEST PUSH1 0x0 PUSH2 0x2256 PUSH1 0x14 DUP4 PUSH2 0x16ED JUMP JUMPDEST SWAP2 POP PUSH2 0x2261 DUP3 PUSH2 0x2220 JUMP JUMPDEST PUSH1 0x20 DUP3 ADD SWAP1 POP SWAP2 SWAP1 POP JUMP JUMPDEST PUSH1 0x0 PUSH1 0x20 DUP3 ADD SWAP1 POP DUP2 DUP2 SUB PUSH1 0x0 DUP4 ADD MSTORE PUSH2 0x2285 DUP2 PUSH2 0x2249 JUMP JUMPDEST SWAP1 POP SWAP2 SWAP1 POP JUMP JUMPDEST PUSH1 0x0 PUSH2 0x2297 DUP3 PUSH2 0x16AE JUMP JUMPDEST SWAP2 POP PUSH2 0x22A2 DUP4 PUSH2 0x16AE JUMP JUMPDEST SWAP3 POP DUP3 DUP3 ADD SWAP1 POP DUP1 DUP3 GT ISZERO PUSH2 0x22BA JUMPI PUSH2 0x22B9 PUSH2 0x1C58 JUMP JUMPDEST JUMPDEST SWAP3 SWAP2 POP POP JUMP INVALID LOG2 PUSH5 0x6970667358 0x22 SLT KECCAK256 0x26 CALLDATALOAD PUSH16 0x62D42BBF40E2DF60F0309ADD4A25CB7A ISZERO SWAP7 PUSH2 0xAFD5 SWAP12 0xA6 JUMP 0xCA BASEFEE SWAP16 DUP2 0xD2 PUSH5 0x736F6C6343 STOP ADDMOD GT STOP CALLER "
				},
				"gasEstimates": {
					"creation": {
						"codeDepositCost": "1790000",
						"executionCost": "infinite",
						"totalCost": "infinite"
					},
					"external": {
						"DOMAIN_SEPARATOR()": "infinite",
						"allowance(address,address)": "infinite",
						"approve(address,uint256)": "infinite",
						"asset()": "infinite",
						"balanceOf(address)": "2925",
						"convertToAssets(uint256)": "infinite",
						"convertToShares(uint256)": "infinite",
						"decimals()": "infinite",
						"deposit(uint256,address)": "infinite",
						"maxDeposit(address)": "2886",
						"maxMint(address)": "infinite",
						"maxRedeem(address)": "2885",
						"maxWithdraw(address)": "infinite",
						"mint(uint256,address)": "infinite",
						"name()": "infinite",
						"nonces(address)": "2860",
						"permit(address,address,uint256,uint256,uint8,bytes32,bytes32)": "infinite",
						"previewDeposit(uint256)": "infinite",
						"previewMint(uint256)": "infinite",
						"previewRedeem(uint256)": "infinite",
						"previewWithdraw(uint256)": "infinite",
						"redeem(uint256,address,address)": "infinite",
						"symbol()": "infinite",
						"token()": "infinite",
						"totalAssets()": "376",
						"totalSupply()": "2519",
						"transfer(address,uint256)": "infinite",
						"transferFrom(address,address,uint256)": "infinite",
						"withdraw(uint256,address,address)": "infinite"
					},
					"internal": {
						"roundUpDiv(uint256,uint256)": "infinite"
					}
				},
				"methodIdentifiers": {
					"DOMAIN_SEPARATOR()": "3644e515",
					"allowance(address,address)": "dd62ed3e",
					"approve(address,uint256)": "095ea7b3",
					"asset()": "38d52e0f",
					"balanceOf(address)": "70a08231",
					"convertToAssets(uint256)": "07a2d13a",
					"convertToShares(uint256)": "c6e6f592",
					"decimals()": "313ce567",
					"deposit(uint256,address)": "6e553f65",
					"maxDeposit(address)": "402d267d",
					"maxMint(address)": "c63d75b6",
					"maxRedeem(address)": "d905777e",
					"maxWithdraw(address)": "ce96cb77",
					"mint(uint256,address)": "94bf804d",
					"name()": "06fdde03",
					"nonces(address)": "7ecebe00",
					"permit(address,address,uint256,uint256,uint8,bytes32,bytes32)": "d505accf",
					"previewDeposit(uint256)": "ef8b30f7",
					"previewMint(uint256)": "b3d7f6b9",
					"previewRedeem(uint256)": "4cdad506",
					"previewWithdraw(uint256)": "0a28a477",
					"redeem(uint256,address,address)": "ba087652",
					"symbol()": "95d89b41",
					"token()": "fc0c546a",
					"totalAssets()": "01e1d114",
					"totalSupply()": "18160ddd",
					"transfer(address,uint256)": "a9059cbb",
					"transferFrom(address,address,uint256)": "23b872dd",
					"withdraw(uint256,address,address)": "b460af94"
				}
			},
			"storageLayout": {
				"storage": [
					{
						"astId": 541,
						"contract": "src/Derivatives/EquityToken.sol:EquityToken",
						"label": "name",
						"offset": 0,
						"slot": "0",
						"type": "t_string_storage"
					},
					{
						"astId": 543,
						"contract": "src/Derivatives/EquityToken.sol:EquityToken",
						"label": "symbol",
						"offset": 0,
						"slot": "1",
						"type": "t_string_storage"
					},
					{
						"astId": 547,
						"contract": "src/Derivatives/EquityToken.sol:EquityToken",
						"label": "totalSupply",
						"offset": 0,
						"slot": "2",
						"type": "t_uint256"
					},
					{
						"astId": 551,
						"contract": "src/Derivatives/EquityToken.sol:EquityToken",
						"label": "balanceOf",
						"offset": 0,
						"slot": "3",
						"type": "t_mapping(t_address,t_uint256)"
					},
					{
						"astId": 557,
						"contract": "src/Derivatives/EquityToken.sol:EquityToken",
						"label": "allowance",
						"offset": 0,
						"slot": "4",
						"type": "t_mapping(t_address,t_mapping(t_address,t_uint256))"
					},
					{
						"astId": 565,
						"contract": "src/Derivatives/EquityToken.sol:EquityToken",
						"label": "nonces",
						"offset": 0,
						"slot": "5",
						"type": "t_mapping(t_address,t_uint256)"
					},
					{
						"astId": 1167,
						"contract": "src/Derivatives/EquityToken.sol:EquityToken",
						"label": "token",
						"offset": 0,
						"slot": "6",
						"type": "t_contract(ERC20)908"
					}
				],
				"types": {
					"t_address": {
						"encoding": "inplace",
						"label": "address",
						"numberOfBytes": "20"
					},
					"t_contract(ERC20)908": {
						"encoding": "inplace",
						"label": "contract ERC20",
						"numberOfBytes": "20"
					},
					"t_mapping(t_address,t_mapping(t_address,t_uint256))": {
						"encoding": "mapping",
						"key": "t_address",
						"label": "mapping(address => mapping(address => uint256))",
						"numberOfBytes": "32",
						"value": "t_mapping(t_address,t_uint256)"
					},
					"t_mapping(t_address,t_uint256)": {
						"encoding": "mapping",
						"key": "t_address",
						"label": "mapping(address => uint256)",
						"numberOfBytes": "32",
						"value": "t_uint256"
					},
					"t_string_storage": {
						"encoding": "bytes",
						"label": "string",
						"numberOfBytes": "32"
					},
					"t_uint256": {
						"encoding": "inplace",
						"label": "uint256",
						"numberOfBytes": "32"
					}
				}
			},
			"userdoc": {
				"kind": "user",
				"methods": {},
				"version": 1
			}
		}
	}
}