{
	"src/Derivatives/EquityToken.sol": {
		"EquityToken": {
			"abi": [
				{
					"inputs": [
						{
							"internalType": "contract ERC20",
							"name": "_token",
							"type": "address"
						},
						{
							"internalType": "string",
							"name": "_name",
							"type": "string"
						},
						{
							"internalType": "string",
							"name": "_symbol",
							"type": "string"
						},
						{
							"internalType": "address",
							"name": "_owner",
							"type": "address"
						}
					],
					"stateMutability": "nonpayable",
					"type": "constructor"
				},
				{
					"inputs": [],
					"name": "NotCampaign",
					"type": "error"
				},
				{
					"anonymous": false,
					"inputs": [
						{
							"indexed": true,
							"internalType": "address",
							"name": "owner",
							"type": "address"
						},
						{
							"indexed": true,
							"internalType": "address",
							"name": "spender",
							"type": "address"
						},
						{
							"indexed": false,
							"internalType": "uint256",
							"name": "value",
							"type": "uint256"
						}
					],
					"name": "Approval",
					"type": "event"
				},
				{
					"anonymous": false,
					"inputs": [
						{
							"indexed": true,
							"internalType": "address",
							"name": "sender",
							"type": "address"
						},
						{
							"indexed": true,
							"internalType": "address",
							"name": "owner",
							"type": "address"
						},
						{
							"indexed": false,
							"internalType": "uint256",
							"name": "assets",
							"type": "uint256"
						},
						{
							"indexed": false,
							"internalType": "uint256",
							"name": "shares",
							"type": "uint256"
						}
					],
					"name": "Deposit",
					"type": "event"
				},
				{
					"anonymous": false,
					"inputs": [
						{
							"indexed": true,
							"internalType": "address",
							"name": "from",
							"type": "address"
						},
						{
							"indexed": true,
							"internalType": "address",
							"name": "to",
							"type": "address"
						},
						{
							"indexed": false,
							"internalType": "uint256",
							"name": "value",
							"type": "uint256"
						}
					],
					"name": "Transfer",
					"type": "event"
				},
				{
					"anonymous": false,
					"inputs": [
						{
							"indexed": true,
							"internalType": "address",
							"name": "sender",
							"type": "address"
						},
						{
							"indexed": true,
							"internalType": "address",
							"name": "receiver",
							"type": "address"
						},
						{
							"indexed": true,
							"internalType": "address",
							"name": "owner",
							"type": "address"
						},
						{
							"indexed": false,
							"internalType": "uint256",
							"name": "assets",
							"type": "uint256"
						},
						{
							"indexed": false,
							"internalType": "uint256",
							"name": "shares",
							"type": "uint256"
						}
					],
					"name": "Withdraw",
					"type": "event"
				},
				{
					"inputs": [
						{
							"internalType": "address",
							"name": "owner",
							"type": "address"
						},
						{
							"internalType": "address",
							"name": "spender",
							"type": "address"
						}
					],
					"name": "allowance",
					"outputs": [
						{
							"internalType": "uint256",
							"name": "",
							"type": "uint256"
						}
					],
					"stateMutability": "view",
					"type": "function"
				},
				{
					"inputs": [
						{
							"internalType": "address",
							"name": "spender",
							"type": "address"
						},
						{
							"internalType": "uint256",
							"name": "amount",
							"type": "uint256"
						}
					],
					"name": "approve",
					"outputs": [
						{
							"internalType": "bool",
							"name": "",
							"type": "bool"
						}
					],
					"stateMutability": "nonpayable",
					"type": "function"
				},
				{
					"inputs": [],
					"name": "asset",
					"outputs": [
						{
							"internalType": "address",
							"name": "",
							"type": "address"
						}
					],
					"stateMutability": "view",
					"type": "function"
				},
				{
					"inputs": [
						{
							"internalType": "address",
							"name": "account",
							"type": "address"
						}
					],
					"name": "balanceOf",
					"outputs": [
						{
							"internalType": "uint256",
							"name": "",
							"type": "uint256"
						}
					],
					"stateMutability": "view",
					"type": "function"
				},
				{
					"inputs": [
						{
							"internalType": "uint256",
							"name": "shares",
							"type": "uint256"
						}
					],
					"name": "convertToAssets",
					"outputs": [
						{
							"internalType": "uint256",
							"name": "assets",
							"type": "uint256"
						}
					],
					"stateMutability": "view",
					"type": "function"
				},
				{
					"inputs": [
						{
							"internalType": "uint256",
							"name": "assets",
							"type": "uint256"
						}
					],
					"name": "convertToShares",
					"outputs": [
						{
							"internalType": "uint256",
							"name": "shares",
							"type": "uint256"
						}
					],
					"stateMutability": "view",
					"type": "function"
				},
				{
					"inputs": [],
					"name": "decimals",
					"outputs": [
						{
							"internalType": "uint8",
							"name": "",
							"type": "uint8"
						}
					],
					"stateMutability": "view",
					"type": "function"
				},
				{
					"inputs": [
						{
							"internalType": "address",
							"name": "spender",
							"type": "address"
						},
						{
							"internalType": "uint256",
							"name": "subtractedValue",
							"type": "uint256"
						}
					],
					"name": "decreaseAllowance",
					"outputs": [
						{
							"internalType": "bool",
							"name": "",
							"type": "bool"
						}
					],
					"stateMutability": "nonpayable",
					"type": "function"
				},
				{
					"inputs": [
						{
							"internalType": "uint256",
							"name": "assets",
							"type": "uint256"
						},
						{
							"internalType": "address",
							"name": "receiver",
							"type": "address"
						}
					],
					"name": "deposit",
					"outputs": [
						{
							"internalType": "uint256",
							"name": "",
							"type": "uint256"
						}
					],
					"stateMutability": "nonpayable",
					"type": "function"
				},
				{
					"inputs": [
						{
							"internalType": "address",
							"name": "spender",
							"type": "address"
						},
						{
							"internalType": "uint256",
							"name": "addedValue",
							"type": "uint256"
						}
					],
					"name": "increaseAllowance",
					"outputs": [
						{
							"internalType": "bool",
							"name": "",
							"type": "bool"
						}
					],
					"stateMutability": "nonpayable",
					"type": "function"
				},
				{
					"inputs": [
						{
							"internalType": "address",
							"name": "",
							"type": "address"
						}
					],
					"name": "maxDeposit",
					"outputs": [
						{
							"internalType": "uint256",
							"name": "",
							"type": "uint256"
						}
					],
					"stateMutability": "view",
					"type": "function"
				},
				{
					"inputs": [
						{
							"internalType": "address",
							"name": "",
							"type": "address"
						}
					],
					"name": "maxMint",
					"outputs": [
						{
							"internalType": "uint256",
							"name": "",
							"type": "uint256"
						}
					],
					"stateMutability": "view",
					"type": "function"
				},
				{
					"inputs": [
						{
							"internalType": "address",
							"name": "owner",
							"type": "address"
						}
					],
					"name": "maxRedeem",
					"outputs": [
						{
							"internalType": "uint256",
							"name": "",
							"type": "uint256"
						}
					],
					"stateMutability": "view",
					"type": "function"
				},
				{
					"inputs": [
						{
							"internalType": "address",
							"name": "owner",
							"type": "address"
						}
					],
					"name": "maxWithdraw",
					"outputs": [
						{
							"internalType": "uint256",
							"name": "",
							"type": "uint256"
						}
					],
					"stateMutability": "view",
					"type": "function"
				},
				{
					"inputs": [
						{
							"internalType": "uint256",
							"name": "shares",
							"type": "uint256"
						},
						{
							"internalType": "address",
							"name": "receiver",
							"type": "address"
						}
					],
					"name": "mint",
					"outputs": [
						{
							"internalType": "uint256",
							"name": "",
							"type": "uint256"
						}
					],
					"stateMutability": "nonpayable",
					"type": "function"
				},
				{
					"inputs": [
						{
							"internalType": "uint256",
							"name": "amount",
							"type": "uint256"
						}
					],
					"name": "mint",
					"outputs": [],
					"stateMutability": "nonpayable",
					"type": "function"
				},
				{
					"inputs": [],
					"name": "name",
					"outputs": [
						{
							"internalType": "string",
							"name": "",
							"type": "string"
						}
					],
					"stateMutability": "view",
					"type": "function"
				},
				{
					"inputs": [
						{
							"internalType": "uint256",
							"name": "assets",
							"type": "uint256"
						}
					],
					"name": "previewDeposit",
					"outputs": [
						{
							"internalType": "uint256",
							"name": "",
							"type": "uint256"
						}
					],
					"stateMutability": "view",
					"type": "function"
				},
				{
					"inputs": [
						{
							"internalType": "uint256",
							"name": "shares",
							"type": "uint256"
						}
					],
					"name": "previewMint",
					"outputs": [
						{
							"internalType": "uint256",
							"name": "",
							"type": "uint256"
						}
					],
					"stateMutability": "view",
					"type": "function"
				},
				{
					"inputs": [
						{
							"internalType": "uint256",
							"name": "shares",
							"type": "uint256"
						}
					],
					"name": "previewRedeem",
					"outputs": [
						{
							"internalType": "uint256",
							"name": "",
							"type": "uint256"
						}
					],
					"stateMutability": "view",
					"type": "function"
				},
				{
					"inputs": [
						{
							"internalType": "uint256",
							"name": "assets",
							"type": "uint256"
						}
					],
					"name": "previewWithdraw",
					"outputs": [
						{
							"internalType": "uint256",
							"name": "",
							"type": "uint256"
						}
					],
					"stateMutability": "view",
					"type": "function"
				},
				{
					"inputs": [
						{
							"internalType": "uint256",
							"name": "shares",
							"type": "uint256"
						},
						{
							"internalType": "address",
							"name": "receiver",
							"type": "address"
						},
						{
							"internalType": "address",
							"name": "owner",
							"type": "address"
						}
					],
					"name": "redeem",
					"outputs": [
						{
							"internalType": "uint256",
							"name": "",
							"type": "uint256"
						}
					],
					"stateMutability": "nonpayable",
					"type": "function"
				},
				{
					"inputs": [],
					"name": "symbol",
					"outputs": [
						{
							"internalType": "string",
							"name": "",
							"type": "string"
						}
					],
					"stateMutability": "view",
					"type": "function"
				},
				{
					"inputs": [],
					"name": "token",
					"outputs": [
						{
							"internalType": "contract ERC20",
							"name": "",
							"type": "address"
						}
					],
					"stateMutability": "view",
					"type": "function"
				},
				{
					"inputs": [],
					"name": "totalAssets",
					"outputs": [
						{
							"internalType": "uint256",
							"name": "",
							"type": "uint256"
						}
					],
					"stateMutability": "view",
					"type": "function"
				},
				{
					"inputs": [],
					"name": "totalSupply",
					"outputs": [
						{
							"internalType": "uint256",
							"name": "",
							"type": "uint256"
						}
					],
					"stateMutability": "view",
					"type": "function"
				},
				{
					"inputs": [
						{
							"internalType": "address",
							"name": "to",
							"type": "address"
						},
						{
							"internalType": "uint256",
							"name": "amount",
							"type": "uint256"
						}
					],
					"name": "transfer",
					"outputs": [
						{
							"internalType": "bool",
							"name": "",
							"type": "bool"
						}
					],
					"stateMutability": "nonpayable",
					"type": "function"
				},
				{
					"inputs": [
						{
							"internalType": "address",
							"name": "from",
							"type": "address"
						},
						{
							"internalType": "address",
							"name": "to",
							"type": "address"
						},
						{
							"internalType": "uint256",
							"name": "amount",
							"type": "uint256"
						}
					],
					"name": "transferFrom",
					"outputs": [
						{
							"internalType": "bool",
							"name": "",
							"type": "bool"
						}
					],
					"stateMutability": "nonpayable",
					"type": "function"
				},
				{
					"inputs": [
						{
							"internalType": "uint256",
							"name": "assets",
							"type": "uint256"
						},
						{
							"internalType": "address",
							"name": "receiver",
							"type": "address"
						},
						{
							"internalType": "address",
							"name": "owner",
							"type": "address"
						}
					],
					"name": "withdraw",
					"outputs": [
						{
							"internalType": "uint256",
							"name": "",
							"type": "uint256"
						}
					],
					"stateMutability": "nonpayable",
					"type": "function"
				}
			],
			"devdoc": {
				"kind": "dev",
				"methods": {
					"allowance(address,address)": {
						"details": "See {IERC20-allowance}."
					},
					"approve(address,uint256)": {
						"details": "See {IERC20-approve}. NOTE: If `amount` is the maximum `uint256`, the allowance is not updated on `transferFrom`. This is semantically equivalent to an infinite approval. Requirements: - `spender` cannot be the zero address."
					},
					"asset()": {
						"details": "See {IERC4626-asset}. "
					},
					"balanceOf(address)": {
						"details": "See {IERC20-balanceOf}."
					},
					"convertToAssets(uint256)": {
						"details": "See {IERC4626-convertToAssets}. "
					},
					"convertToShares(uint256)": {
						"details": "See {IERC4626-convertToShares}. "
					},
					"decimals()": {
						"details": "Decimals are read from the underlying asset in the constructor and cached. If this fails (e.g., the asset has not been created yet), the cached value is set to a default obtained by `super.decimals()` (which depends on inheritance but is most likely 18). Override this function in order to set a guaranteed hardcoded value. See {IERC20Metadata-decimals}."
					},
					"decreaseAllowance(address,uint256)": {
						"details": "Atomically decreases the allowance granted to `spender` by the caller. This is an alternative to {approve} that can be used as a mitigation for problems described in {IERC20-approve}. Emits an {Approval} event indicating the updated allowance. Requirements: - `spender` cannot be the zero address. - `spender` must have allowance for the caller of at least `subtractedValue`."
					},
					"deposit(uint256,address)": {
						"details": "See {IERC4626-deposit}. "
					},
					"increaseAllowance(address,uint256)": {
						"details": "Atomically increases the allowance granted to `spender` by the caller. This is an alternative to {approve} that can be used as a mitigation for problems described in {IERC20-approve}. Emits an {Approval} event indicating the updated allowance. Requirements: - `spender` cannot be the zero address."
					},
					"maxDeposit(address)": {
						"details": "See {IERC4626-maxDeposit}. "
					},
					"maxMint(address)": {
						"details": "See {IERC4626-maxMint}. "
					},
					"maxRedeem(address)": {
						"details": "See {IERC4626-maxRedeem}. "
					},
					"maxWithdraw(address)": {
						"details": "See {IERC4626-maxWithdraw}. "
					},
					"mint(uint256,address)": {
						"details": "See {IERC4626-mint}. As opposed to {deposit}, minting is allowed even if the vault is in a state where the price of a share is zero. In this case, the shares will be minted without requiring any assets to be deposited."
					},
					"name()": {
						"details": "Returns the name of the token."
					},
					"previewDeposit(uint256)": {
						"details": "See {IERC4626-previewDeposit}. "
					},
					"previewMint(uint256)": {
						"details": "See {IERC4626-previewMint}. "
					},
					"previewRedeem(uint256)": {
						"details": "See {IERC4626-previewRedeem}. "
					},
					"previewWithdraw(uint256)": {
						"details": "See {IERC4626-previewWithdraw}. "
					},
					"redeem(uint256,address,address)": {
						"details": "See {IERC4626-redeem}. "
					},
					"symbol()": {
						"details": "Returns the symbol of the token, usually a shorter version of the name."
					},
					"totalAssets()": {
						"details": "See {IERC4626-totalAssets}. "
					},
					"totalSupply()": {
						"details": "See {IERC20-totalSupply}."
					},
					"transfer(address,uint256)": {
						"details": "See {IERC20-transfer}. Requirements: - `to` cannot be the zero address. - the caller must have a balance of at least `amount`."
					},
					"transferFrom(address,address,uint256)": {
						"details": "See {IERC20-transferFrom}. Emits an {Approval} event indicating the updated allowance. This is not required by the EIP. See the note at the beginning of {ERC20}. NOTE: Does not update the allowance if the current allowance is the maximum `uint256`. Requirements: - `from` and `to` cannot be the zero address. - `from` must have a balance of at least `amount`. - the caller must have allowance for ``from``'s tokens of at least `amount`."
					},
					"withdraw(uint256,address,address)": {
						"details": "See {IERC4626-withdraw}. "
					}
				},
				"version": 1
			},
			"evm": {
				"assembly": "    /* \"src/Derivatives/EquityToken.sol\":388:899  contract EquityToken is ERC4626 {... */\n  mstore(0x40, 0xc0)\n    /* \"src/Derivatives/EquityToken.sol\":519:728  constructor(... */\n  callvalue\n  dup1\n  iszero\n  tag_1\n  jumpi\n  0x00\n  dup1\n  revert\ntag_1:\n  pop\n  mload(0x40)\n  sub(codesize, bytecodeSize)\n  dup1\n  bytecodeSize\n  dup4\n  codecopy\n  dup2\n  add\n  0x40\n  dup2\n  swap1\n  mstore\n  tag_2\n  swap2\n  tag_3\n  jump\t// in\ntag_2:\n    /* \"src/Derivatives/EquityToken.sol\":685:691  _token */\n  dup4\n    /* \"src/Derivatives/EquityToken.sol\":661:666  _name */\n  dup4\n    /* \"src/Derivatives/EquityToken.sol\":668:675  _symbol */\n  dup4\n    /* \"@openzeppelin/contracts/token/ERC20/ERC20.sol\":2042:2047  _name */\n  0x03\n    /* \"@openzeppelin/contracts/token/ERC20/ERC20.sol\":2042:2055  _name = name_ */\n  tag_8\n    /* \"src/Derivatives/EquityToken.sol\":661:666  _name */\n  dup4\n    /* \"@openzeppelin/contracts/token/ERC20/ERC20.sol\":2042:2047  _name */\n  dup3\n    /* \"@openzeppelin/contracts/token/ERC20/ERC20.sol\":2042:2055  _name = name_ */\n  tag_9\n  jump\t// in\ntag_8:\n  pop\n    /* \"@openzeppelin/contracts/token/ERC20/ERC20.sol\":2065:2072  _symbol */\n  0x04\n    /* \"@openzeppelin/contracts/token/ERC20/ERC20.sol\":2065:2082  _symbol = symbol_ */\n  tag_10\n    /* \"@openzeppelin/contracts/token/ERC20/ERC20.sol\":2075:2082  symbol_ */\n  dup3\n    /* \"@openzeppelin/contracts/token/ERC20/ERC20.sol\":2065:2072  _symbol */\n  dup3\n    /* \"@openzeppelin/contracts/token/ERC20/ERC20.sol\":2065:2082  _symbol = symbol_ */\n  tag_9\n  jump\t// in\ntag_10:\n  pop\n    /* \"@openzeppelin/contracts/token/ERC20/ERC20.sol\":1976:2089  constructor(string memory name_, string memory symbol_) {... */\n  pop\n  pop\n    /* \"@openzeppelin/contracts/token/ERC20/extensions/ERC4626.sol\":1977:1989  bool success */\n  0x00\n    /* \"@openzeppelin/contracts/token/ERC20/extensions/ERC4626.sol\":1991:2010  uint8 assetDecimals */\n  dup1\n    /* \"@openzeppelin/contracts/token/ERC20/extensions/ERC4626.sol\":2014:2042  _tryGetAssetDecimals(asset_) */\n  tag_12\n    /* \"@openzeppelin/contracts/token/ERC20/extensions/ERC4626.sol\":2035:2041  asset_ */\n  dup4\n    /* \"@openzeppelin/contracts/token/ERC20/extensions/ERC4626.sol\":2014:2034  _tryGetAssetDecimals */\n  shl(0x20, tag_13)\n    /* \"@openzeppelin/contracts/token/ERC20/extensions/ERC4626.sol\":2014:2042  _tryGetAssetDecimals(asset_) */\n  0x20\n  shr\n  jump\t// in\ntag_12:\n    /* \"@openzeppelin/contracts/token/ERC20/extensions/ERC4626.sol\":1976:2042  (bool success, uint8 assetDecimals) = _tryGetAssetDecimals(asset_) */\n  swap2\n  pop\n  swap2\n  pop\n    /* \"@openzeppelin/contracts/token/ERC20/extensions/ERC4626.sol\":2064:2071  success */\n  dup2\n    /* \"@openzeppelin/contracts/token/ERC20/extensions/ERC4626.sol\":2064:2106  success ? assetDecimals : super.decimals() */\n  tag_14\n  jumpi\n    /* \"@openzeppelin/contracts/token/ERC20/extensions/ERC4626.sol\":2090:2106  super.decimals() */\n  tag_15\n    /* \"@openzeppelin/contracts/token/ERC20/extensions/ERC4626.sol\":2090:2104  super.decimals */\n  or(tag_0_160, shl(0x20, tag_16))\n    /* \"@openzeppelin/contracts/token/ERC20/extensions/ERC4626.sol\":2090:2106  super.decimals() */\n  0x20\n  shr\n  jump\t// in\ntag_15:\n    /* \"@openzeppelin/contracts/token/ERC20/extensions/ERC4626.sol\":2064:2106  success ? assetDecimals : super.decimals() */\n  jump(tag_17)\ntag_14:\n    /* \"@openzeppelin/contracts/token/ERC20/extensions/ERC4626.sol\":2074:2087  assetDecimals */\n  dup1\n    /* \"@openzeppelin/contracts/token/ERC20/extensions/ERC4626.sol\":2064:2106  success ? assetDecimals : super.decimals() */\ntag_17:\n    /* \"@openzeppelin/contracts/token/ERC20/extensions/ERC4626.sol\":2052:2106  _decimals = success ? assetDecimals : super.decimals() */\n  0xff\n  and\n  0xa0\n  mstore\n  pop\n  pop\n  sub(shl(0xa0, 0x01), 0x01)\n    /* \"@openzeppelin/contracts/token/ERC20/extensions/ERC4626.sol\":2116:2131  _asset = asset_ */\n  swap1\n  dup2\n  and\n  0x80\n  mstore\n    /* \"src/Derivatives/EquityToken.sol\":706:711  owner */\n  0x05\n    /* \"src/Derivatives/EquityToken.sol\":706:720  owner = _owner */\n  dup1\n  sload\n  not(sub(shl(0xa0, 0x01), 0x01))\n  and\n  swap3\n  swap1\n  swap2\n  and\n  swap2\n  swap1\n  swap2\n  or\n  swap1\n  sstore\n  pop\n    /* \"src/Derivatives/EquityToken.sol\":388:899  contract EquityToken is ERC4626 {... */\n  tag_40\n  swap2\n  pop\n  pop\n  jump\n    /* \"@openzeppelin/contracts/token/ERC20/extensions/ERC4626.sol\":2281:2827  function _tryGetAssetDecimals(IERC20 asset_) private view returns (bool, uint8) {... */\ntag_13:\n    /* \"@openzeppelin/contracts/token/ERC20/extensions/ERC4626.sol\":2458:2514  abi.encodeWithSelector(IERC20Metadata.decimals.selector) */\n  0x40\n  dup1\n  mload\n  0x04\n  dup2\n  mstore\n  0x24\n  dup2\n  add\n  dup3\n  mstore\n  0x20\n  dup2\n  add\n  dup1\n  mload\n  sub(shl(0xe0, 0x01), 0x01)\n  and\n  shl(0xe0, 0x313ce567)\n  or\n  swap1\n  mstore\n    /* \"@openzeppelin/contracts/token/ERC20/extensions/ERC4626.sol\":2418:2524  address(asset_).staticcall(... */\n  swap1\n  mload\n    /* \"@openzeppelin/contracts/token/ERC20/extensions/ERC4626.sol\":2348:2352  bool */\n  0x00\n  swap2\n  dup3\n  swap2\n  dup3\n  swap2\n  dup3\n  swap2\n  sub(shl(0xa0, 0x01), 0x01)\n    /* \"@openzeppelin/contracts/token/ERC20/extensions/ERC4626.sol\":2418:2444  address(asset_).staticcall */\n  dup8\n  and\n  swap2\n    /* \"@openzeppelin/contracts/token/ERC20/extensions/ERC4626.sol\":2418:2524  address(asset_).staticcall(... */\n  tag_21\n  swap2\n  tag_22\n  jump\t// in\ntag_21:\n  0x00\n  mload(0x40)\n  dup1\n  dup4\n  sub\n  dup2\n  dup6\n  gas\n  staticcall\n  swap2\n  pop\n  pop\n  returndatasize\n  dup1\n  0x00\n  dup2\n  eq\n  tag_25\n  jumpi\n  mload(0x40)\n  swap2\n  pop\n  and(add(returndatasize, 0x3f), not(0x1f))\n  dup3\n  add\n  0x40\n  mstore\n  returndatasize\n  dup3\n  mstore\n  returndatasize\n  0x00\n  0x20\n  dup5\n  add\n  returndatacopy\n  jump(tag_24)\ntag_25:\n  0x60\n  swap2\n  pop\ntag_24:\n  pop\n    /* \"@openzeppelin/contracts/token/ERC20/extensions/ERC4626.sol\":2371:2524  (bool success, bytes memory encodedDecimals) = address(asset_).staticcall(... */\n  swap2\n  pop\n  swap2\n  pop\n    /* \"@openzeppelin/contracts/token/ERC20/extensions/ERC4626.sol\":2538:2545  success */\n  dup2\n    /* \"@openzeppelin/contracts/token/ERC20/extensions/ERC4626.sol\":2538:2577  success && encodedDecimals.length >= 32 */\n  dup1\n  iszero\n  tag_26\n  jumpi\n  pop\n    /* \"@openzeppelin/contracts/token/ERC20/extensions/ERC4626.sol\":2575:2577  32 */\n  0x20\n    /* \"@openzeppelin/contracts/token/ERC20/extensions/ERC4626.sol\":2549:2564  encodedDecimals */\n  dup2\n    /* \"@openzeppelin/contracts/token/ERC20/extensions/ERC4626.sol\":2549:2571  encodedDecimals.length */\n  mload\n    /* \"@openzeppelin/contracts/token/ERC20/extensions/ERC4626.sol\":2549:2577  encodedDecimals.length >= 32 */\n  lt\n  iszero\n    /* \"@openzeppelin/contracts/token/ERC20/extensions/ERC4626.sol\":2538:2577  success && encodedDecimals.length >= 32 */\ntag_26:\n    /* \"@openzeppelin/contracts/token/ERC20/extensions/ERC4626.sol\":2534:2794  if (success && encodedDecimals.length >= 32) {... */\n  iszero\n  tag_27\n  jumpi\n    /* \"@openzeppelin/contracts/token/ERC20/extensions/ERC4626.sol\":2593:2617  uint256 returnedDecimals */\n  0x00\n    /* \"@openzeppelin/contracts/token/ERC20/extensions/ERC4626.sol\":2631:2646  encodedDecimals */\n  dup2\n    /* \"@openzeppelin/contracts/token/ERC20/extensions/ERC4626.sol\":2620:2658  abi.decode(encodedDecimals, (uint256)) */\n  dup1\n  0x20\n  add\n  swap1\n  mload\n  dup2\n  add\n  swap1\n  tag_28\n  swap2\n  swap1\n  tag_29\n  jump\t// in\ntag_28:\n    /* \"@openzeppelin/contracts/token/ERC20/extensions/ERC4626.sol\":2593:2658  uint256 returnedDecimals = abi.decode(encodedDecimals, (uint256)) */\n  swap1\n  pop\n    /* \"@openzeppelin/contracts/token/ERC20/extensions/ERC4626.sol\":2696:2711  type(uint8).max */\n  0xff\n    /* \"@openzeppelin/contracts/token/ERC20/extensions/ERC4626.sol\":2676:2711  returnedDecimals <= type(uint8).max */\n  dup2\n  gt\n    /* \"@openzeppelin/contracts/token/ERC20/extensions/ERC4626.sol\":2672:2784  if (returnedDecimals <= type(uint8).max) {... */\n  tag_30\n  jumpi\n    /* \"@openzeppelin/contracts/token/ERC20/extensions/ERC4626.sol\":2739:2743  true */\n  0x01\n  swap7\n    /* \"@openzeppelin/contracts/token/ERC20/extensions/ERC4626.sol\":2751:2767  returnedDecimals */\n  swap1\n  swap6\n  pop\n    /* \"@openzeppelin/contracts/token/ERC20/extensions/ERC4626.sol\":2281:2827  function _tryGetAssetDecimals(IERC20 asset_) private view returns (bool, uint8) {... */\n  swap4\n  pop\n  pop\n  pop\n  pop\n  jump\t// out\n    /* \"@openzeppelin/contracts/token/ERC20/extensions/ERC4626.sol\":2672:2784  if (returnedDecimals <= type(uint8).max) {... */\ntag_30:\n    /* \"@openzeppelin/contracts/token/ERC20/extensions/ERC4626.sol\":2579:2794  {... */\n  pop\n    /* \"@openzeppelin/contracts/token/ERC20/extensions/ERC4626.sol\":2534:2794  if (success && encodedDecimals.length >= 32) {... */\ntag_27:\n  pop\n    /* \"@openzeppelin/contracts/token/ERC20/extensions/ERC4626.sol\":2811:2816  false */\n  0x00\n  swap5\n  dup6\n  swap5\n  pop\n    /* \"@openzeppelin/contracts/token/ERC20/extensions/ERC4626.sol\":2281:2827  function _tryGetAssetDecimals(IERC20 asset_) private view returns (bool, uint8) {... */\n  swap3\n  pop\n  pop\n  pop\n  jump\t// out\n    /* \"@openzeppelin/contracts/token/ERC20/ERC20.sol\":3091:3182  function decimals() public view virtual override returns (uint8) {... */\ntag_16:\n    /* \"@openzeppelin/contracts/token/ERC20/ERC20.sol\":3173:3175  18 */\n  0x12\n  swap1\n    /* \"@openzeppelin/contracts/token/ERC20/ERC20.sol\":3091:3182  function decimals() public view virtual override returns (uint8) {... */\n  jump\t// out\n    /* \"#utility.yul\":14:152   */\ntag_32:\n  sub(shl(0xa0, 0x01), 0x01)\n    /* \"#utility.yul\":96:127   */\n  dup2\n  and\n    /* \"#utility.yul\":86:128   */\n  dup2\n  eq\n    /* \"#utility.yul\":76:146   */\n  tag_42\n  jumpi\n    /* \"#utility.yul\":142:143   */\n  0x00\n    /* \"#utility.yul\":139:140   */\n  dup1\n    /* \"#utility.yul\":132:144   */\n  revert\n    /* \"#utility.yul\":76:146   */\ntag_42:\n    /* \"#utility.yul\":14:152   */\n  pop\n  jump\t// out\n    /* \"#utility.yul\":157:284   */\ntag_33:\n    /* \"#utility.yul\":218:228   */\n  0x4e487b71\n    /* \"#utility.yul\":213:216   */\n  0xe0\n    /* \"#utility.yul\":209:229   */\n  shl\n    /* \"#utility.yul\":206:207   */\n  0x00\n    /* \"#utility.yul\":199:230   */\n  mstore\n    /* \"#utility.yul\":249:253   */\n  0x41\n    /* \"#utility.yul\":246:247   */\n  0x04\n    /* \"#utility.yul\":239:254   */\n  mstore\n    /* \"#utility.yul\":273:277   */\n  0x24\n    /* \"#utility.yul\":270:271   */\n  0x00\n    /* \"#utility.yul\":263:278   */\n  revert\n    /* \"#utility.yul\":289:539   */\ntag_34:\n    /* \"#utility.yul\":374:375   */\n  0x00\n    /* \"#utility.yul\":384:497   */\ntag_45:\n    /* \"#utility.yul\":398:404   */\n  dup4\n    /* \"#utility.yul\":395:396   */\n  dup2\n    /* \"#utility.yul\":392:405   */\n  lt\n    /* \"#utility.yul\":384:497   */\n  iszero\n  tag_47\n  jumpi\n    /* \"#utility.yul\":474:485   */\n  dup2\n  dup2\n  add\n    /* \"#utility.yul\":468:486   */\n  mload\n    /* \"#utility.yul\":455:466   */\n  dup4\n  dup3\n  add\n    /* \"#utility.yul\":448:487   */\n  mstore\n    /* \"#utility.yul\":420:422   */\n  0x20\n    /* \"#utility.yul\":413:423   */\n  add\n    /* \"#utility.yul\":384:497   */\n  jump(tag_45)\ntag_47:\n  pop\n  pop\n    /* \"#utility.yul\":531:532   */\n  0x00\n    /* \"#utility.yul\":513:529   */\n  swap2\n  add\n    /* \"#utility.yul\":506:533   */\n  mstore\n    /* \"#utility.yul\":289:539   */\n  jump\t// out\n    /* \"#utility.yul\":544:1243   */\ntag_35:\n    /* \"#utility.yul\":598:603   */\n  0x00\n    /* \"#utility.yul\":651:654   */\n  dup3\n    /* \"#utility.yul\":644:648   */\n  0x1f\n    /* \"#utility.yul\":636:642   */\n  dup4\n    /* \"#utility.yul\":632:649   */\n  add\n    /* \"#utility.yul\":628:655   */\n  slt\n    /* \"#utility.yul\":618:673   */\n  tag_49\n  jumpi\n    /* \"#utility.yul\":669:670   */\n  0x00\n    /* \"#utility.yul\":666:667   */\n  dup1\n    /* \"#utility.yul\":659:671   */\n  revert\n    /* \"#utility.yul\":618:673   */\ntag_49:\n    /* \"#utility.yul\":692:705   */\n  dup2\n  mload\n  sub(shl(0x40, 0x01), 0x01)\n    /* \"#utility.yul\":754:764   */\n  dup1\n  dup3\n  gt\n    /* \"#utility.yul\":751:787   */\n  iszero\n  tag_51\n  jumpi\n    /* \"#utility.yul\":767:785   */\n  tag_51\n  tag_33\n  jump\t// in\ntag_51:\n    /* \"#utility.yul\":842:844   */\n  0x40\n    /* \"#utility.yul\":836:845   */\n  mload\n    /* \"#utility.yul\":810:812   */\n  0x1f\n    /* \"#utility.yul\":896:909   */\n  dup4\n  add\n  not(0x1f)\n    /* \"#utility.yul\":892:914   */\n  swap1\n  dup2\n  and\n    /* \"#utility.yul\":916:918   */\n  0x3f\n    /* \"#utility.yul\":888:919   */\n  add\n    /* \"#utility.yul\":884:924   */\n  and\n    /* \"#utility.yul\":872:925   */\n  dup2\n  add\n  swap1\n    /* \"#utility.yul\":940:958   */\n  dup3\n  dup3\n  gt\n    /* \"#utility.yul\":960:982   */\n  dup2\n  dup4\n  lt\n    /* \"#utility.yul\":937:983   */\n  or\n    /* \"#utility.yul\":934:1006   */\n  iszero\n  tag_53\n  jumpi\n    /* \"#utility.yul\":986:1004   */\n  tag_53\n  tag_33\n  jump\t// in\ntag_53:\n    /* \"#utility.yul\":1026:1036   */\n  dup2\n    /* \"#utility.yul\":1022:1024   */\n  0x40\n    /* \"#utility.yul\":1015:1037   */\n  mstore\n    /* \"#utility.yul\":1061:1063   */\n  dup4\n    /* \"#utility.yul\":1053:1059   */\n  dup2\n    /* \"#utility.yul\":1046:1064   */\n  mstore\n    /* \"#utility.yul\":1107:1110   */\n  dup7\n    /* \"#utility.yul\":1100:1104   */\n  0x20\n    /* \"#utility.yul\":1095:1097   */\n  dup6\n    /* \"#utility.yul\":1087:1093   */\n  dup9\n    /* \"#utility.yul\":1083:1098   */\n  add\n    /* \"#utility.yul\":1079:1105   */\n  add\n    /* \"#utility.yul\":1076:1111   */\n  gt\n    /* \"#utility.yul\":1073:1128   */\n  iszero\n  tag_54\n  jumpi\n    /* \"#utility.yul\":1124:1125   */\n  0x00\n    /* \"#utility.yul\":1121:1122   */\n  dup1\n    /* \"#utility.yul\":1114:1126   */\n  revert\n    /* \"#utility.yul\":1073:1128   */\ntag_54:\n    /* \"#utility.yul\":1137:1213   */\n  tag_55\n    /* \"#utility.yul\":1210:1212   */\n  dup5\n    /* \"#utility.yul\":1203:1207   */\n  0x20\n    /* \"#utility.yul\":1195:1201   */\n  dup4\n    /* \"#utility.yul\":1191:1208   */\n  add\n    /* \"#utility.yul\":1184:1188   */\n  0x20\n    /* \"#utility.yul\":1176:1182   */\n  dup10\n    /* \"#utility.yul\":1172:1189   */\n  add\n    /* \"#utility.yul\":1137:1213   */\n  tag_34\n  jump\t// in\ntag_55:\n    /* \"#utility.yul\":1231:1237   */\n  swap7\n    /* \"#utility.yul\":544:1243   */\n  swap6\n  pop\n  pop\n  pop\n  pop\n  pop\n  pop\n  jump\t// out\n    /* \"#utility.yul\":1248:2100   */\ntag_3:\n    /* \"#utility.yul\":1378:1384   */\n  0x00\n    /* \"#utility.yul\":1386:1392   */\n  dup1\n    /* \"#utility.yul\":1394:1400   */\n  0x00\n    /* \"#utility.yul\":1402:1408   */\n  dup1\n    /* \"#utility.yul\":1455:1458   */\n  0x80\n    /* \"#utility.yul\":1443:1452   */\n  dup6\n    /* \"#utility.yul\":1434:1441   */\n  dup8\n    /* \"#utility.yul\":1430:1453   */\n  sub\n    /* \"#utility.yul\":1426:1459   */\n  slt\n    /* \"#utility.yul\":1423:1476   */\n  iszero\n  tag_57\n  jumpi\n    /* \"#utility.yul\":1472:1473   */\n  0x00\n    /* \"#utility.yul\":1469:1470   */\n  dup1\n    /* \"#utility.yul\":1462:1474   */\n  revert\n    /* \"#utility.yul\":1423:1476   */\ntag_57:\n    /* \"#utility.yul\":1504:1513   */\n  dup5\n    /* \"#utility.yul\":1498:1514   */\n  mload\n    /* \"#utility.yul\":1523:1561   */\n  tag_58\n    /* \"#utility.yul\":1555:1560   */\n  dup2\n    /* \"#utility.yul\":1523:1561   */\n  tag_32\n  jump\t// in\ntag_58:\n    /* \"#utility.yul\":1629:1631   */\n  0x20\n    /* \"#utility.yul\":1614:1632   */\n  dup7\n  add\n    /* \"#utility.yul\":1608:1633   */\n  mload\n    /* \"#utility.yul\":1580:1585   */\n  swap1\n  swap5\n  pop\n  sub(shl(0x40, 0x01), 0x01)\n    /* \"#utility.yul\":1682:1696   */\n  dup1\n  dup3\n  gt\n    /* \"#utility.yul\":1679:1713   */\n  iszero\n  tag_59\n  jumpi\n    /* \"#utility.yul\":1709:1710   */\n  0x00\n    /* \"#utility.yul\":1706:1707   */\n  dup1\n    /* \"#utility.yul\":1699:1711   */\n  revert\n    /* \"#utility.yul\":1679:1713   */\ntag_59:\n    /* \"#utility.yul\":1732:1793   */\n  tag_60\n    /* \"#utility.yul\":1785:1792   */\n  dup9\n    /* \"#utility.yul\":1776:1782   */\n  dup4\n    /* \"#utility.yul\":1765:1774   */\n  dup10\n    /* \"#utility.yul\":1761:1783   */\n  add\n    /* \"#utility.yul\":1732:1793   */\n  tag_35\n  jump\t// in\ntag_60:\n    /* \"#utility.yul\":1722:1793   */\n  swap5\n  pop\n    /* \"#utility.yul\":1839:1841   */\n  0x40\n    /* \"#utility.yul\":1828:1837   */\n  dup8\n    /* \"#utility.yul\":1824:1842   */\n  add\n    /* \"#utility.yul\":1818:1843   */\n  mload\n    /* \"#utility.yul\":1802:1843   */\n  swap2\n  pop\n    /* \"#utility.yul\":1868:1870   */\n  dup1\n    /* \"#utility.yul\":1858:1866   */\n  dup3\n    /* \"#utility.yul\":1855:1871   */\n  gt\n    /* \"#utility.yul\":1852:1888   */\n  iszero\n  tag_61\n  jumpi\n    /* \"#utility.yul\":1884:1885   */\n  0x00\n    /* \"#utility.yul\":1881:1882   */\n  dup1\n    /* \"#utility.yul\":1874:1886   */\n  revert\n    /* \"#utility.yul\":1852:1888   */\ntag_61:\n  pop\n    /* \"#utility.yul\":1907:1970   */\n  tag_62\n    /* \"#utility.yul\":1962:1969   */\n  dup8\n    /* \"#utility.yul\":1951:1959   */\n  dup3\n    /* \"#utility.yul\":1940:1949   */\n  dup9\n    /* \"#utility.yul\":1936:1960   */\n  add\n    /* \"#utility.yul\":1907:1970   */\n  tag_35\n  jump\t// in\ntag_62:\n    /* \"#utility.yul\":1897:1970   */\n  swap3\n  pop\n  pop\n    /* \"#utility.yul\":2015:2017   */\n  0x60\n    /* \"#utility.yul\":2004:2013   */\n  dup6\n    /* \"#utility.yul\":2000:2018   */\n  add\n    /* \"#utility.yul\":1994:2019   */\n  mload\n    /* \"#utility.yul\":2028:2068   */\n  tag_63\n    /* \"#utility.yul\":2060:2067   */\n  dup2\n    /* \"#utility.yul\":2028:2068   */\n  tag_32\n  jump\t// in\ntag_63:\n    /* \"#utility.yul\":1248:2100   */\n  swap4\n  swap7\n  swap3\n  swap6\n  pop\n  swap1\n  swap4\n  pop\n  pop\n  jump\t// out\n    /* \"#utility.yul\":2105:2485   */\ntag_36:\n    /* \"#utility.yul\":2184:2185   */\n  0x01\n    /* \"#utility.yul\":2180:2192   */\n  dup2\n  dup2\n  shr\n  swap1\n    /* \"#utility.yul\":2227:2239   */\n  dup3\n  and\n  dup1\n    /* \"#utility.yul\":2248:2309   */\n  tag_65\n  jumpi\n    /* \"#utility.yul\":2302:2306   */\n  0x7f\n    /* \"#utility.yul\":2294:2300   */\n  dup3\n    /* \"#utility.yul\":2290:2307   */\n  and\n    /* \"#utility.yul\":2280:2307   */\n  swap2\n  pop\n    /* \"#utility.yul\":2248:2309   */\ntag_65:\n    /* \"#utility.yul\":2355:2357   */\n  0x20\n    /* \"#utility.yul\":2347:2353   */\n  dup3\n    /* \"#utility.yul\":2344:2358   */\n  lt\n    /* \"#utility.yul\":2324:2342   */\n  dup2\n    /* \"#utility.yul\":2321:2359   */\n  sub\n    /* \"#utility.yul\":2318:2479   */\n  tag_66\n  jumpi\n    /* \"#utility.yul\":2401:2411   */\n  0x4e487b71\n    /* \"#utility.yul\":2396:2399   */\n  0xe0\n    /* \"#utility.yul\":2392:2412   */\n  shl\n    /* \"#utility.yul\":2389:2390   */\n  0x00\n    /* \"#utility.yul\":2382:2413   */\n  mstore\n    /* \"#utility.yul\":2436:2440   */\n  0x22\n    /* \"#utility.yul\":2433:2434   */\n  0x04\n    /* \"#utility.yul\":2426:2441   */\n  mstore\n    /* \"#utility.yul\":2464:2468   */\n  0x24\n    /* \"#utility.yul\":2461:2462   */\n  0x00\n    /* \"#utility.yul\":2454:2469   */\n  revert\n    /* \"#utility.yul\":2318:2479   */\ntag_66:\n  pop\n    /* \"#utility.yul\":2105:2485   */\n  swap2\n  swap1\n  pop\n  jump\t// out\n    /* \"#utility.yul\":2616:3161   */\ntag_38:\n    /* \"#utility.yul\":2718:2720   */\n  0x1f\n    /* \"#utility.yul\":2713:2716   */\n  dup3\n    /* \"#utility.yul\":2710:2721   */\n  gt\n    /* \"#utility.yul\":2707:3155   */\n  iszero\n  tag_69\n  jumpi\n    /* \"#utility.yul\":2754:2755   */\n  0x00\n    /* \"#utility.yul\":2779:2784   */\n  dup2\n    /* \"#utility.yul\":2775:2777   */\n  dup2\n    /* \"#utility.yul\":2768:2785   */\n  mstore\n    /* \"#utility.yul\":2824:2828   */\n  0x20\n    /* \"#utility.yul\":2820:2822   */\n  dup2\n    /* \"#utility.yul\":2810:2829   */\n  keccak256\n    /* \"#utility.yul\":2894:2896   */\n  0x1f\n    /* \"#utility.yul\":2882:2892   */\n  dup6\n    /* \"#utility.yul\":2878:2897   */\n  add\n    /* \"#utility.yul\":2875:2876   */\n  0x05\n    /* \"#utility.yul\":2871:2898   */\n  shr\n    /* \"#utility.yul\":2865:2869   */\n  dup2\n    /* \"#utility.yul\":2861:2899   */\n  add\n    /* \"#utility.yul\":2930:2934   */\n  0x20\n    /* \"#utility.yul\":2918:2928   */\n  dup7\n    /* \"#utility.yul\":2915:2935   */\n  lt\n    /* \"#utility.yul\":2912:2959   */\n  iszero\n  tag_70\n  jumpi\n  pop\n    /* \"#utility.yul\":2953:2957   */\n  dup1\n    /* \"#utility.yul\":2912:2959   */\ntag_70:\n    /* \"#utility.yul\":3008:3010   */\n  0x1f\n    /* \"#utility.yul\":3003:3006   */\n  dup6\n    /* \"#utility.yul\":2999:3011   */\n  add\n    /* \"#utility.yul\":2996:2997   */\n  0x05\n    /* \"#utility.yul\":2992:3012   */\n  shr\n    /* \"#utility.yul\":2986:2990   */\n  dup3\n    /* \"#utility.yul\":2982:3013   */\n  add\n    /* \"#utility.yul\":2972:3013   */\n  swap2\n  pop\n    /* \"#utility.yul\":3063:3145   */\ntag_71:\n    /* \"#utility.yul\":3081:3083   */\n  dup2\n    /* \"#utility.yul\":3074:3079   */\n  dup2\n    /* \"#utility.yul\":3071:3084   */\n  lt\n    /* \"#utility.yul\":3063:3145   */\n  iszero\n  tag_73\n  jumpi\n    /* \"#utility.yul\":3126:3143   */\n  dup3\n  dup2\n  sstore\n    /* \"#utility.yul\":3107:3108   */\n  0x01\n    /* \"#utility.yul\":3096:3109   */\n  add\n    /* \"#utility.yul\":3063:3145   */\n  jump(tag_71)\ntag_73:\n    /* \"#utility.yul\":3067:3070   */\n  pop\n  pop\n  pop\n    /* \"#utility.yul\":2707:3155   */\ntag_69:\n    /* \"#utility.yul\":2616:3161   */\n  pop\n  pop\n  pop\n  jump\t// out\n    /* \"#utility.yul\":3337:4689   */\ntag_9:\n    /* \"#utility.yul\":3457:3467   */\n  dup2\n  mload\n  sub(shl(0x40, 0x01), 0x01)\n    /* \"#utility.yul\":3479:3509   */\n  dup2\n  gt\n    /* \"#utility.yul\":3476:3532   */\n  iszero\n  tag_77\n  jumpi\n    /* \"#utility.yul\":3512:3530   */\n  tag_77\n  tag_33\n  jump\t// in\ntag_77:\n    /* \"#utility.yul\":3541:3638   */\n  tag_78\n    /* \"#utility.yul\":3631:3637   */\n  dup2\n    /* \"#utility.yul\":3591:3629   */\n  tag_79\n    /* \"#utility.yul\":3623:3627   */\n  dup5\n    /* \"#utility.yul\":3617:3628   */\n  sload\n    /* \"#utility.yul\":3591:3629   */\n  tag_36\n  jump\t// in\ntag_79:\n    /* \"#utility.yul\":3585:3589   */\n  dup5\n    /* \"#utility.yul\":3541:3638   */\n  tag_38\n  jump\t// in\ntag_78:\n    /* \"#utility.yul\":3693:3697   */\n  0x20\n  dup1\n    /* \"#utility.yul\":3757:3759   */\n  0x1f\n    /* \"#utility.yul\":3746:3760   */\n  dup4\n  gt\n    /* \"#utility.yul\":3774:3775   */\n  0x01\n    /* \"#utility.yul\":3769:4432   */\n  dup2\n  eq\n  tag_81\n  jumpi\n    /* \"#utility.yul\":4476:4477   */\n  0x00\n    /* \"#utility.yul\":4493:4499   */\n  dup5\n    /* \"#utility.yul\":4490:4579   */\n  iszero\n  tag_82\n  jumpi\n  pop\n    /* \"#utility.yul\":4545:4564   */\n  dup6\n  dup4\n  add\n    /* \"#utility.yul\":4539:4565   */\n  mload\n    /* \"#utility.yul\":4490:4579   */\ntag_82:\n  not(0x00)\n    /* \"#utility.yul\":3294:3295   */\n  0x03\n    /* \"#utility.yul\":3290:3301   */\n  dup7\n  swap1\n  shl\n    /* \"#utility.yul\":3286:3310   */\n  shr\n    /* \"#utility.yul\":3282:3311   */\n  not\n    /* \"#utility.yul\":3272:3312   */\n  and\n    /* \"#utility.yul\":3318:3319   */\n  0x01\n    /* \"#utility.yul\":3314:3325   */\n  dup6\n  swap1\n  shl\n    /* \"#utility.yul\":3269:3326   */\n  or\n    /* \"#utility.yul\":4592:4673   */\n  dup6\n  sstore\n    /* \"#utility.yul\":3739:4683   */\n  jump(tag_73)\n    /* \"#utility.yul\":3769:4432   */\ntag_81:\n    /* \"#utility.yul\":2563:2564   */\n  0x00\n    /* \"#utility.yul\":2556:2570   */\n  dup6\n  dup2\n  mstore\n    /* \"#utility.yul\":2600:2604   */\n  0x20\n    /* \"#utility.yul\":2587:2605   */\n  dup2\n  keccak256\n  not(0x1f)\n    /* \"#utility.yul\":3805:3825   */\n  dup7\n  and\n  swap2\n    /* \"#utility.yul\":3923:4159   */\ntag_85:\n    /* \"#utility.yul\":3937:3944   */\n  dup3\n    /* \"#utility.yul\":3934:3935   */\n  dup2\n    /* \"#utility.yul\":3931:3945   */\n  lt\n    /* \"#utility.yul\":3923:4159   */\n  iszero\n  tag_87\n  jumpi\n    /* \"#utility.yul\":4026:4045   */\n  dup9\n  dup7\n  add\n    /* \"#utility.yul\":4020:4046   */\n  mload\n    /* \"#utility.yul\":4005:4047   */\n  dup3\n  sstore\n    /* \"#utility.yul\":4118:4145   */\n  swap5\n  dup5\n  add\n  swap5\n    /* \"#utility.yul\":4086:4087   */\n  0x01\n    /* \"#utility.yul\":4074:4088   */\n  swap1\n  swap2\n  add\n  swap1\n    /* \"#utility.yul\":3953:3972   */\n  dup5\n  add\n    /* \"#utility.yul\":3923:4159   */\n  jump(tag_85)\ntag_87:\n    /* \"#utility.yul\":3927:3930   */\n  pop\n    /* \"#utility.yul\":4187:4193   */\n  dup6\n    /* \"#utility.yul\":4178:4185   */\n  dup3\n    /* \"#utility.yul\":4175:4194   */\n  lt\n    /* \"#utility.yul\":4172:4373   */\n  iszero\n  tag_88\n  jumpi\n    /* \"#utility.yul\":4248:4267   */\n  dup8\n  dup6\n  add\n    /* \"#utility.yul\":4242:4268   */\n  mload\n  not(0x00)\n    /* \"#utility.yul\":4331:4332   */\n  0x03\n    /* \"#utility.yul\":4327:4341   */\n  dup9\n  swap1\n  shl\n    /* \"#utility.yul\":4343:4346   */\n  0xf8\n    /* \"#utility.yul\":4323:4347   */\n  and\n    /* \"#utility.yul\":4319:4356   */\n  shr\n    /* \"#utility.yul\":4315:4357   */\n  not\n    /* \"#utility.yul\":4300:4358   */\n  and\n    /* \"#utility.yul\":4285:4359   */\n  dup2\n  sstore\n    /* \"#utility.yul\":4172:4373   */\ntag_88:\n  pop\n  pop\n  pop\n  pop\n  pop\n    /* \"#utility.yul\":4419:4420   */\n  0x01\n    /* \"#utility.yul\":4403:4417   */\n  swap1\n  dup2\n  shl\n    /* \"#utility.yul\":4399:4421   */\n  add\n    /* \"#utility.yul\":4386:4422   */\n  swap1\n  sstore\n  pop\n    /* \"#utility.yul\":3337:4689   */\n  jump\t// out\n    /* \"#utility.yul\":4694:4981   */\ntag_22:\n    /* \"#utility.yul\":4823:4826   */\n  0x00\n    /* \"#utility.yul\":4861:4867   */\n  dup3\n    /* \"#utility.yul\":4855:4868   */\n  mload\n    /* \"#utility.yul\":4877:4943   */\n  tag_90\n    /* \"#utility.yul\":4936:4942   */\n  dup2\n    /* \"#utility.yul\":4931:4934   */\n  dup5\n    /* \"#utility.yul\":4924:4928   */\n  0x20\n    /* \"#utility.yul\":4916:4922   */\n  dup8\n    /* \"#utility.yul\":4912:4929   */\n  add\n    /* \"#utility.yul\":4877:4943   */\n  tag_34\n  jump\t// in\ntag_90:\n    /* \"#utility.yul\":4959:4975   */\n  swap2\n  swap1\n  swap2\n  add\n  swap3\n    /* \"#utility.yul\":4694:4981   */\n  swap2\n  pop\n  pop\n  jump\t// out\n    /* \"#utility.yul\":4986:5170   */\ntag_29:\n    /* \"#utility.yul\":5056:5062   */\n  0x00\n    /* \"#utility.yul\":5109:5111   */\n  0x20\n    /* \"#utility.yul\":5097:5106   */\n  dup3\n    /* \"#utility.yul\":5088:5095   */\n  dup5\n    /* \"#utility.yul\":5084:5107   */\n  sub\n    /* \"#utility.yul\":5080:5112   */\n  slt\n    /* \"#utility.yul\":5077:5129   */\n  iszero\n  tag_92\n  jumpi\n    /* \"#utility.yul\":5125:5126   */\n  0x00\n    /* \"#utility.yul\":5122:5123   */\n  dup1\n    /* \"#utility.yul\":5115:5127   */\n  revert\n    /* \"#utility.yul\":5077:5129   */\ntag_92:\n  pop\n    /* \"#utility.yul\":5148:5164   */\n  mload\n  swap2\n    /* \"#utility.yul\":4986:5170   */\n  swap1\n  pop\n  jump\t// out\ntag_40:\n    /* \"src/Derivatives/EquityToken.sol\":388:899  contract EquityToken is ERC4626 {... */\n  mload(0x80)\n  mload(0xa0)\n  codecopy(0x00, dataOffset(sub_0), dataSize(sub_0))\n  0x00\n  assignImmutable(\"0xceebc1e79b37113a3784d9bbf48b7ad015159a0fad39f370ddaba6e9581bdbc5\")\n  0x00\n  assignImmutable(\"0x5002dac29dd1f5eca27c266c7f22886fef1ca01133bd005217e0a31b1b246599\")\n  return(0x00, dataSize(sub_0))\nstop\n\nsub_0: assembly {\n        /* \"src/Derivatives/EquityToken.sol\":388:899  contract EquityToken is ERC4626 {... */\n      mstore(0x40, 0x80)\n      callvalue\n      dup1\n      iszero\n      tag_1\n      jumpi\n      0x00\n      dup1\n      revert\n    tag_1:\n      pop\n      jumpi(tag_2, lt(calldatasize, 0x04))\n      shr(0xe0, calldataload(0x00))\n      dup1\n      0x94bf804d\n      gt\n      tag_32\n      jumpi\n      dup1\n      0xba087652\n      gt\n      tag_33\n      jumpi\n      dup1\n      0xd905777e\n      gt\n      tag_34\n      jumpi\n      dup1\n      0xd905777e\n      eq\n      tag_28\n      jumpi\n      dup1\n      0xdd62ed3e\n      eq\n      tag_29\n      jumpi\n      dup1\n      0xef8b30f7\n      eq\n      tag_26\n      jumpi\n      dup1\n      0xfc0c546a\n      eq\n      tag_31\n      jumpi\n      0x00\n      dup1\n      revert\n    tag_34:\n      dup1\n      0xba087652\n      eq\n      tag_24\n      jumpi\n      dup1\n      0xc63d75b6\n      eq\n      tag_25\n      jumpi\n      dup1\n      0xc6e6f592\n      eq\n      tag_26\n      jumpi\n      dup1\n      0xce96cb77\n      eq\n      tag_27\n      jumpi\n      0x00\n      dup1\n      revert\n    tag_33:\n      dup1\n      0xa457c2d7\n      gt\n      tag_35\n      jumpi\n      dup1\n      0xa457c2d7\n      eq\n      tag_20\n      jumpi\n      dup1\n      0xa9059cbb\n      eq\n      tag_21\n      jumpi\n      dup1\n      0xb3d7f6b9\n      eq\n      tag_22\n      jumpi\n      dup1\n      0xb460af94\n      eq\n      tag_23\n      jumpi\n      0x00\n      dup1\n      revert\n    tag_35:\n      dup1\n      0x94bf804d\n      eq\n      tag_17\n      jumpi\n      dup1\n      0x95d89b41\n      eq\n      tag_18\n      jumpi\n      dup1\n      0xa0712d68\n      eq\n      tag_19\n      jumpi\n      0x00\n      dup1\n      revert\n    tag_32:\n      dup1\n      0x313ce567\n      gt\n      tag_36\n      jumpi\n      dup1\n      0x402d267d\n      gt\n      tag_37\n      jumpi\n      dup1\n      0x402d267d\n      eq\n      tag_13\n      jumpi\n      dup1\n      0x4cdad506\n      eq\n      tag_5\n      jumpi\n      dup1\n      0x6e553f65\n      eq\n      tag_15\n      jumpi\n      dup1\n      0x70a08231\n      eq\n      tag_16\n      jumpi\n      0x00\n      dup1\n      revert\n    tag_37:\n      dup1\n      0x313ce567\n      eq\n      tag_10\n      jumpi\n      dup1\n      0x38d52e0f\n      eq\n      tag_11\n      jumpi\n      dup1\n      0x39509351\n      eq\n      tag_12\n      jumpi\n      0x00\n      dup1\n      revert\n    tag_36:\n      dup1\n      0x095ea7b3\n      gt\n      tag_38\n      jumpi\n      dup1\n      0x095ea7b3\n      eq\n      tag_6\n      jumpi\n      dup1\n      0x0a28a477\n      eq\n      tag_7\n      jumpi\n      dup1\n      0x18160ddd\n      eq\n      tag_8\n      jumpi\n      dup1\n      0x23b872dd\n      eq\n      tag_9\n      jumpi\n      0x00\n      dup1\n      revert\n    tag_38:\n      dup1\n      0x01e1d114\n      eq\n      tag_3\n      jumpi\n      dup1\n      0x06fdde03\n      eq\n      tag_4\n      jumpi\n      dup1\n      0x07a2d13a\n      eq\n      tag_5\n      jumpi\n    tag_2:\n      0x00\n      dup1\n      revert\n        /* \"@openzeppelin/contracts/token/ERC20/extensions/ERC4626.sol\":3555:3680  function totalAssets() public view virtual override returns (uint256) {... */\n    tag_3:\n      tag_39\n      tag_40\n      jump\t// in\n    tag_39:\n      mload(0x40)\n        /* \"#utility.yul\":160:185   */\n      swap1\n      dup2\n      mstore\n        /* \"#utility.yul\":148:150   */\n      0x20\n        /* \"#utility.yul\":133:151   */\n      add\n        /* \"@openzeppelin/contracts/token/ERC20/extensions/ERC4626.sol\":3555:3680  function totalAssets() public view virtual override returns (uint256) {... */\n    tag_41:\n      mload(0x40)\n      dup1\n      swap2\n      sub\n      swap1\n      return\n        /* \"@openzeppelin/contracts/token/ERC20/ERC20.sol\":2154:2252  function name() public view virtual override returns (string memory) {... */\n    tag_4:\n      tag_43\n      tag_44\n      jump\t// in\n    tag_43:\n      mload(0x40)\n      tag_41\n      swap2\n      swap1\n      tag_46\n      jump\t// in\n        /* \"@openzeppelin/contracts/token/ERC20/extensions/ERC4626.sol\":3951:4114  function convertToAssets(uint256 shares) public view virtual override returns (uint256 assets) {... */\n    tag_5:\n      tag_39\n      tag_48\n      calldatasize\n      0x04\n      tag_49\n      jump\t// in\n    tag_48:\n      tag_50\n      jump\t// in\n        /* \"@openzeppelin/contracts/token/ERC20/ERC20.sol\":4431:4628  function approve(address spender, uint256 amount) public virtual override returns (bool) {... */\n    tag_6:\n      tag_52\n      tag_53\n      calldatasize\n      0x04\n      tag_54\n      jump\t// in\n    tag_53:\n      tag_55\n      jump\t// in\n    tag_52:\n      mload(0x40)\n        /* \"#utility.yul\":1639:1653   */\n      swap1\n      iszero\n        /* \"#utility.yul\":1632:1654   */\n      iszero\n        /* \"#utility.yul\":1614:1655   */\n      dup2\n      mstore\n        /* \"#utility.yul\":1602:1604   */\n      0x20\n        /* \"#utility.yul\":1587:1605   */\n      add\n        /* \"@openzeppelin/contracts/token/ERC20/ERC20.sol\":4431:4628  function approve(address spender, uint256 amount) public virtual override returns (bool) {... */\n      tag_41\n        /* \"#utility.yul\":1474:1661   */\n      jump\n        /* \"@openzeppelin/contracts/token/ERC20/extensions/ERC4626.sol\":5313:5467  function previewWithdraw(uint256 assets) public view virtual override returns (uint256) {... */\n    tag_7:\n      tag_39\n      tag_59\n      calldatasize\n      0x04\n      tag_49\n      jump\t// in\n    tag_59:\n      tag_60\n      jump\t// in\n        /* \"@openzeppelin/contracts/token/ERC20/ERC20.sol\":3242:3348  function totalSupply() public view virtual override returns (uint256) {... */\n    tag_8:\n        /* \"@openzeppelin/contracts/token/ERC20/ERC20.sol\":3329:3341  _totalSupply */\n      sload(0x02)\n        /* \"@openzeppelin/contracts/token/ERC20/ERC20.sol\":3242:3348  function totalSupply() public view virtual override returns (uint256) {... */\n      jump(tag_39)\n        /* \"@openzeppelin/contracts/token/ERC20/ERC20.sol\":5190:5476  function transferFrom(... */\n    tag_9:\n      tag_52\n      tag_66\n      calldatasize\n      0x04\n      tag_67\n      jump\t// in\n    tag_66:\n      tag_68\n      jump\t// in\n        /* \"@openzeppelin/contracts/token/ERC20/extensions/ERC4626.sol\":3237:3358  function decimals() public view virtual override(IERC20Metadata, ERC20) returns (uint8) {... */\n    tag_10:\n      mload(0x40)\n        /* \"#utility.yul\":2171:2175   */\n      0xff\n        /* \"@openzeppelin/contracts/token/ERC20/extensions/ERC4626.sol\":3342:3351  _decimals */\n      immutable(\"0xceebc1e79b37113a3784d9bbf48b7ad015159a0fad39f370ddaba6e9581bdbc5\")\n        /* \"#utility.yul\":2159:2176   */\n      and\n        /* \"#utility.yul\":2141:2177   */\n      dup2\n      mstore\n        /* \"#utility.yul\":2129:2131   */\n      0x20\n        /* \"#utility.yul\":2114:2132   */\n      add\n        /* \"@openzeppelin/contracts/token/ERC20/extensions/ERC4626.sol\":3237:3358  function decimals() public view virtual override(IERC20Metadata, ERC20) returns (uint8) {... */\n      tag_41\n        /* \"#utility.yul\":1999:2183   */\n      jump\n        /* \"@openzeppelin/contracts/token/ERC20/extensions/ERC4626.sol\":3402:3505  function asset() public view virtual override returns (address) {... */\n    tag_11:\n        /* \"@openzeppelin/contracts/token/ERC20/extensions/ERC4626.sol\":3491:3497  _asset */\n      immutable(\"0x5002dac29dd1f5eca27c266c7f22886fef1ca01133bd005217e0a31b1b246599\")\n        /* \"@openzeppelin/contracts/token/ERC20/extensions/ERC4626.sol\":3402:3505  function asset() public view virtual override returns (address) {... */\n    tag_74:\n      mload(0x40)\n      sub(shl(0xa0, 0x01), 0x01)\n        /* \"#utility.yul\":2352:2384   */\n      swap1\n      swap2\n      and\n        /* \"#utility.yul\":2334:2385   */\n      dup2\n      mstore\n        /* \"#utility.yul\":2322:2324   */\n      0x20\n        /* \"#utility.yul\":2307:2325   */\n      add\n        /* \"@openzeppelin/contracts/token/ERC20/extensions/ERC4626.sol\":3402:3505  function asset() public view virtual override returns (address) {... */\n      tag_41\n        /* \"#utility.yul\":2188:2391   */\n      jump\n        /* \"@openzeppelin/contracts/token/ERC20/ERC20.sol\":5871:6105  function increaseAllowance(address spender, uint256 addedValue) public virtual returns (bool) {... */\n    tag_12:\n      tag_52\n      tag_79\n      calldatasize\n      0x04\n      tag_54\n      jump\t// in\n    tag_79:\n      tag_80\n      jump\t// in\n        /* \"@openzeppelin/contracts/token/ERC20/extensions/ERC4626.sol\":4163:4311  function maxDeposit(address) public view virtual override returns (uint256) {... */\n    tag_13:\n      tag_39\n      tag_83\n      calldatasize\n      0x04\n      tag_84\n      jump\t// in\n    tag_83:\n      tag_85\n      jump\t// in\n        /* \"@openzeppelin/contracts/token/ERC20/extensions/ERC4626.sol\":5719:6034  function deposit(uint256 assets, address receiver) public virtual override returns (uint256) {... */\n    tag_15:\n      tag_39\n      tag_92\n      calldatasize\n      0x04\n      tag_93\n      jump\t// in\n    tag_92:\n      tag_94\n      jump\t// in\n        /* \"@openzeppelin/contracts/token/ERC20/ERC20.sol\":3406:3531  function balanceOf(address account) public view virtual override returns (uint256) {... */\n    tag_16:\n      tag_39\n      tag_97\n      calldatasize\n      0x04\n      tag_84\n      jump\t// in\n    tag_97:\n      sub(shl(0xa0, 0x01), 0x01)\n        /* \"@openzeppelin/contracts/token/ERC20/ERC20.sol\":3506:3524  _balances[account] */\n      and\n        /* \"@openzeppelin/contracts/token/ERC20/ERC20.sol\":3480:3487  uint256 */\n      0x00\n        /* \"@openzeppelin/contracts/token/ERC20/ERC20.sol\":3506:3524  _balances[account] */\n      swap1\n      dup2\n      mstore\n      0x20\n      dup2\n      swap1\n      mstore\n      0x40\n      swap1\n      keccak256\n      sload\n      swap1\n        /* \"@openzeppelin/contracts/token/ERC20/ERC20.sol\":3406:3531  function balanceOf(address account) public view virtual override returns (uint256) {... */\n      jump\n        /* \"@openzeppelin/contracts/token/ERC20/extensions/ERC4626.sol\":6301:6604  function mint(uint256 shares, address receiver) public virtual override returns (uint256) {... */\n    tag_17:\n      tag_39\n      tag_101\n      calldatasize\n      0x04\n      tag_93\n      jump\t// in\n    tag_101:\n      tag_102\n      jump\t// in\n        /* \"@openzeppelin/contracts/token/ERC20/ERC20.sol\":2365:2467  function symbol() public view virtual override returns (string memory) {... */\n    tag_18:\n      tag_43\n      tag_105\n      jump\t// in\n        /* \"src/Derivatives/EquityToken.sol\":736:896  function mint(uint amount) external {... */\n    tag_19:\n      tag_107\n      tag_108\n      calldatasize\n      0x04\n      tag_49\n      jump\t// in\n    tag_108:\n      tag_109\n      jump\t// in\n    tag_107:\n      stop\n        /* \"@openzeppelin/contracts/token/ERC20/ERC20.sol\":6592:7019  function decreaseAllowance(address spender, uint256 subtractedValue) public virtual returns (bool) {... */\n    tag_20:\n      tag_52\n      tag_111\n      calldatasize\n      0x04\n      tag_54\n      jump\t// in\n    tag_111:\n      tag_112\n      jump\t// in\n        /* \"@openzeppelin/contracts/token/ERC20/ERC20.sol\":3727:3916  function transfer(address to, uint256 amount) public virtual override returns (bool) {... */\n    tag_21:\n      tag_52\n      tag_115\n      calldatasize\n      0x04\n      tag_54\n      jump\t// in\n    tag_115:\n      tag_116\n      jump\t// in\n        /* \"@openzeppelin/contracts/token/ERC20/extensions/ERC4626.sol\":5109:5259  function previewMint(uint256 shares) public view virtual override returns (uint256) {... */\n    tag_22:\n      tag_39\n      tag_119\n      calldatasize\n      0x04\n      tag_49\n      jump\t// in\n    tag_119:\n      tag_120\n      jump\t// in\n        /* \"@openzeppelin/contracts/token/ERC20/extensions/ERC4626.sol\":6651:7020  function withdraw(... */\n    tag_23:\n      tag_39\n      tag_123\n      calldatasize\n      0x04\n      tag_124\n      jump\t// in\n    tag_123:\n      tag_125\n      jump\t// in\n        /* \"@openzeppelin/contracts/token/ERC20/extensions/ERC4626.sol\":7065:7426  function redeem(... */\n    tag_24:\n      tag_39\n      tag_128\n      calldatasize\n      0x04\n      tag_124\n      jump\t// in\n    tag_128:\n      tag_129\n      jump\t// in\n        /* \"@openzeppelin/contracts/token/ERC20/extensions/ERC4626.sol\":4357:4471  function maxMint(address) public view virtual override returns (uint256) {... */\n    tag_25:\n      tag_39\n      tag_132\n      calldatasize\n      0x04\n      tag_84\n      jump\t// in\n    tag_132:\n      pop\n      not(0x00)\n        /* \"@openzeppelin/contracts/token/ERC20/extensions/ERC4626.sol\":4447:4464  type(uint256).max */\n      swap1\n        /* \"@openzeppelin/contracts/token/ERC20/extensions/ERC4626.sol\":4357:4471  function maxMint(address) public view virtual override returns (uint256) {... */\n      jump\n        /* \"@openzeppelin/contracts/token/ERC20/extensions/ERC4626.sol\":3734:3897  function convertToShares(uint256 assets) public view virtual override returns (uint256 shares) {... */\n    tag_26:\n      tag_39\n      tag_136\n      calldatasize\n      0x04\n      tag_49\n      jump\t// in\n    tag_136:\n      tag_137\n      jump\t// in\n        /* \"@openzeppelin/contracts/token/ERC20/extensions/ERC4626.sol\":4521:4682  function maxWithdraw(address owner) public view virtual override returns (uint256) {... */\n    tag_27:\n      tag_39\n      tag_140\n      calldatasize\n      0x04\n      tag_84\n      jump\t// in\n    tag_140:\n      tag_141\n      jump\t// in\n        /* \"@openzeppelin/contracts/token/ERC20/extensions/ERC4626.sol\":4730:4851  function maxRedeem(address owner) public view virtual override returns (uint256) {... */\n    tag_28:\n      tag_39\n      tag_144\n      calldatasize\n      0x04\n      tag_84\n      jump\t// in\n    tag_144:\n      tag_145\n      jump\t// in\n        /* \"@openzeppelin/contracts/token/ERC20/ERC20.sol\":3974:4123  function allowance(address owner, address spender) public view virtual override returns (uint256) {... */\n    tag_29:\n      tag_39\n      tag_148\n      calldatasize\n      0x04\n      tag_149\n      jump\t// in\n    tag_148:\n      tag_150\n      jump\t// in\n        /* \"src/Derivatives/EquityToken.sol\":492:510  ERC20 public token */\n    tag_31:\n      sload(0x06)\n      tag_74\n      swap1\n      sub(shl(0xa0, 0x01), 0x01)\n      and\n      dup2\n      jump\n        /* \"@openzeppelin/contracts/token/ERC20/extensions/ERC4626.sol\":3555:3680  function totalAssets() public view virtual override returns (uint256) {... */\n    tag_40:\n        /* \"@openzeppelin/contracts/token/ERC20/extensions/ERC4626.sol\":3642:3673  _asset.balanceOf(address(this)) */\n      mload(0x40)\n      shl(0xe0, 0x70a08231)\n      dup2\n      mstore\n        /* \"@openzeppelin/contracts/token/ERC20/extensions/ERC4626.sol\":3667:3671  this */\n      address\n        /* \"@openzeppelin/contracts/token/ERC20/extensions/ERC4626.sol\":3642:3673  _asset.balanceOf(address(this)) */\n      0x04\n      dup3\n      add\n        /* \"#utility.yul\":2334:2385   */\n      mstore\n        /* \"@openzeppelin/contracts/token/ERC20/extensions/ERC4626.sol\":3616:3623  uint256 */\n      0x00\n      swap1\n        /* \"@openzeppelin/contracts/token/ERC20/extensions/ERC4626.sol\":3642:3648  _asset */\n      immutable(\"0x5002dac29dd1f5eca27c266c7f22886fef1ca01133bd005217e0a31b1b246599\")\n      sub(shl(0xa0, 0x01), 0x01)\n        /* \"@openzeppelin/contracts/token/ERC20/extensions/ERC4626.sol\":3642:3658  _asset.balanceOf */\n      and\n      swap1\n      0x70a08231\n      swap1\n        /* \"#utility.yul\":2307:2325   */\n      0x24\n      add\n        /* \"@openzeppelin/contracts/token/ERC20/extensions/ERC4626.sol\":3642:3673  _asset.balanceOf(address(this)) */\n      0x20\n      mload(0x40)\n      dup1\n      dup4\n      sub\n      dup2\n      dup7\n      gas\n      staticcall\n      iszero\n      dup1\n      iszero\n      tag_164\n      jumpi\n      returndatasize\n      0x00\n      dup1\n      returndatacopy\n      revert(0x00, returndatasize)\n    tag_164:\n      pop\n      pop\n      pop\n      pop\n      mload(0x40)\n      returndatasize\n      not(0x1f)\n      0x1f\n      dup3\n      add\n      and\n      dup3\n      add\n      dup1\n      0x40\n      mstore\n      pop\n      dup2\n      add\n      swap1\n      tag_165\n      swap2\n      swap1\n      tag_166\n      jump\t// in\n    tag_165:\n        /* \"@openzeppelin/contracts/token/ERC20/extensions/ERC4626.sol\":3635:3673  return _asset.balanceOf(address(this)) */\n      swap1\n      pop\n        /* \"@openzeppelin/contracts/token/ERC20/extensions/ERC4626.sol\":3555:3680  function totalAssets() public view virtual override returns (uint256) {... */\n      swap1\n      jump\t// out\n        /* \"@openzeppelin/contracts/token/ERC20/ERC20.sol\":2154:2252  function name() public view virtual override returns (string memory) {... */\n    tag_44:\n        /* \"@openzeppelin/contracts/token/ERC20/ERC20.sol\":2208:2221  string memory */\n      0x60\n        /* \"@openzeppelin/contracts/token/ERC20/ERC20.sol\":2240:2245  _name */\n      0x03\n        /* \"@openzeppelin/contracts/token/ERC20/ERC20.sol\":2233:2245  return _name */\n      dup1\n      sload\n      tag_168\n      swap1\n      tag_169\n      jump\t// in\n    tag_168:\n      dup1\n      0x1f\n      add\n      0x20\n      dup1\n      swap2\n      div\n      mul\n      0x20\n      add\n      mload(0x40)\n      swap1\n      dup2\n      add\n      0x40\n      mstore\n      dup1\n      swap3\n      swap2\n      swap1\n      dup2\n      dup2\n      mstore\n      0x20\n      add\n      dup3\n      dup1\n      sload\n      tag_170\n      swap1\n      tag_169\n      jump\t// in\n    tag_170:\n      dup1\n      iszero\n      tag_171\n      jumpi\n      dup1\n      0x1f\n      lt\n      tag_172\n      jumpi\n      0x0100\n      dup1\n      dup4\n      sload\n      div\n      mul\n      dup4\n      mstore\n      swap2\n      0x20\n      add\n      swap2\n      jump(tag_171)\n    tag_172:\n      dup3\n      add\n      swap2\n      swap1\n      0x00\n      mstore\n      keccak256(0x00, 0x20)\n      swap1\n    tag_173:\n      dup2\n      sload\n      dup2\n      mstore\n      swap1\n      0x01\n      add\n      swap1\n      0x20\n      add\n      dup1\n      dup4\n      gt\n      tag_173\n      jumpi\n      dup3\n      swap1\n      sub\n      0x1f\n      and\n      dup3\n      add\n      swap2\n    tag_171:\n      pop\n      pop\n      pop\n      pop\n      pop\n      swap1\n      pop\n        /* \"@openzeppelin/contracts/token/ERC20/ERC20.sol\":2154:2252  function name() public view virtual override returns (string memory) {... */\n      swap1\n      jump\t// out\n        /* \"@openzeppelin/contracts/token/ERC20/extensions/ERC4626.sol\":3951:4114  function convertToAssets(uint256 shares) public view virtual override returns (uint256 assets) {... */\n    tag_50:\n        /* \"@openzeppelin/contracts/token/ERC20/extensions/ERC4626.sol\":4030:4044  uint256 assets */\n      0x00\n        /* \"@openzeppelin/contracts/token/ERC20/extensions/ERC4626.sol\":4063:4107  _convertToAssets(shares, Math.Rounding.Down) */\n      tag_175\n        /* \"@openzeppelin/contracts/token/ERC20/extensions/ERC4626.sol\":4080:4086  shares */\n      dup3\n        /* \"@openzeppelin/contracts/token/ERC20/extensions/ERC4626.sol\":4088:4106  Math.Rounding.Down */\n      0x00\n        /* \"@openzeppelin/contracts/token/ERC20/extensions/ERC4626.sol\":4063:4079  _convertToAssets */\n      tag_176\n        /* \"@openzeppelin/contracts/token/ERC20/extensions/ERC4626.sol\":4063:4107  _convertToAssets(shares, Math.Rounding.Down) */\n      jump\t// in\n    tag_175:\n        /* \"@openzeppelin/contracts/token/ERC20/extensions/ERC4626.sol\":4056:4107  return _convertToAssets(shares, Math.Rounding.Down) */\n      swap3\n        /* \"@openzeppelin/contracts/token/ERC20/extensions/ERC4626.sol\":3951:4114  function convertToAssets(uint256 shares) public view virtual override returns (uint256 assets) {... */\n      swap2\n      pop\n      pop\n      jump\t// out\n        /* \"@openzeppelin/contracts/token/ERC20/ERC20.sol\":4431:4628  function approve(address spender, uint256 amount) public virtual override returns (bool) {... */\n    tag_55:\n        /* \"@openzeppelin/contracts/token/ERC20/ERC20.sol\":4514:4518  bool */\n      0x00\n        /* \"@openzeppelin/contracts/utils/Context.sol\":719:729  msg.sender */\n      caller\n        /* \"@openzeppelin/contracts/token/ERC20/ERC20.sol\":4568:4600  _approve(owner, spender, amount) */\n      tag_180\n        /* \"@openzeppelin/contracts/utils/Context.sol\":719:729  msg.sender */\n      dup2\n        /* \"@openzeppelin/contracts/token/ERC20/ERC20.sol\":4584:4591  spender */\n      dup6\n        /* \"@openzeppelin/contracts/token/ERC20/ERC20.sol\":4593:4599  amount */\n      dup6\n        /* \"@openzeppelin/contracts/token/ERC20/ERC20.sol\":4568:4576  _approve */\n      tag_181\n        /* \"@openzeppelin/contracts/token/ERC20/ERC20.sol\":4568:4600  _approve(owner, spender, amount) */\n      jump\t// in\n    tag_180:\n      pop\n        /* \"@openzeppelin/contracts/token/ERC20/ERC20.sol\":4617:4621  true */\n      0x01\n      swap4\n        /* \"@openzeppelin/contracts/token/ERC20/ERC20.sol\":4431:4628  function approve(address spender, uint256 amount) public virtual override returns (bool) {... */\n      swap3\n      pop\n      pop\n      pop\n      jump\t// out\n        /* \"@openzeppelin/contracts/token/ERC20/extensions/ERC4626.sol\":5313:5467  function previewWithdraw(uint256 assets) public view virtual override returns (uint256) {... */\n    tag_60:\n        /* \"@openzeppelin/contracts/token/ERC20/extensions/ERC4626.sol\":5392:5399  uint256 */\n      0x00\n        /* \"@openzeppelin/contracts/token/ERC20/extensions/ERC4626.sol\":5418:5460  _convertToShares(assets, Math.Rounding.Up) */\n      tag_175\n        /* \"@openzeppelin/contracts/token/ERC20/extensions/ERC4626.sol\":5435:5441  assets */\n      dup3\n        /* \"@openzeppelin/contracts/token/ERC20/extensions/ERC4626.sol\":5443:5459  Math.Rounding.Up */\n      0x01\n        /* \"@openzeppelin/contracts/token/ERC20/extensions/ERC4626.sol\":5418:5434  _convertToShares */\n      tag_184\n        /* \"@openzeppelin/contracts/token/ERC20/extensions/ERC4626.sol\":5418:5460  _convertToShares(assets, Math.Rounding.Up) */\n      jump\t// in\n        /* \"@openzeppelin/contracts/token/ERC20/ERC20.sol\":5190:5476  function transferFrom(... */\n    tag_68:\n        /* \"@openzeppelin/contracts/token/ERC20/ERC20.sol\":5317:5321  bool */\n      0x00\n        /* \"@openzeppelin/contracts/utils/Context.sol\":719:729  msg.sender */\n      caller\n        /* \"@openzeppelin/contracts/token/ERC20/ERC20.sol\":5373:5411  _spendAllowance(from, spender, amount) */\n      tag_188\n        /* \"@openzeppelin/contracts/token/ERC20/ERC20.sol\":5389:5393  from */\n      dup6\n        /* \"@openzeppelin/contracts/utils/Context.sol\":719:729  msg.sender */\n      dup3\n        /* \"@openzeppelin/contracts/token/ERC20/ERC20.sol\":5404:5410  amount */\n      dup6\n        /* \"@openzeppelin/contracts/token/ERC20/ERC20.sol\":5373:5388  _spendAllowance */\n      tag_189\n        /* \"@openzeppelin/contracts/token/ERC20/ERC20.sol\":5373:5411  _spendAllowance(from, spender, amount) */\n      jump\t// in\n    tag_188:\n        /* \"@openzeppelin/contracts/token/ERC20/ERC20.sol\":5421:5448  _transfer(from, to, amount) */\n      tag_190\n        /* \"@openzeppelin/contracts/token/ERC20/ERC20.sol\":5431:5435  from */\n      dup6\n        /* \"@openzeppelin/contracts/token/ERC20/ERC20.sol\":5437:5439  to */\n      dup6\n        /* \"@openzeppelin/contracts/token/ERC20/ERC20.sol\":5441:5447  amount */\n      dup6\n        /* \"@openzeppelin/contracts/token/ERC20/ERC20.sol\":5421:5430  _transfer */\n      tag_191\n        /* \"@openzeppelin/contracts/token/ERC20/ERC20.sol\":5421:5448  _transfer(from, to, amount) */\n      jump\t// in\n    tag_190:\n        /* \"@openzeppelin/contracts/token/ERC20/ERC20.sol\":5465:5469  true */\n      0x01\n        /* \"@openzeppelin/contracts/token/ERC20/ERC20.sol\":5458:5469  return true */\n      swap2\n      pop\n      pop\n        /* \"@openzeppelin/contracts/token/ERC20/ERC20.sol\":5190:5476  function transferFrom(... */\n    tag_186:\n      swap4\n      swap3\n      pop\n      pop\n      pop\n      jump\t// out\n        /* \"@openzeppelin/contracts/token/ERC20/ERC20.sol\":5871:6105  function increaseAllowance(address spender, uint256 addedValue) public virtual returns (bool) {... */\n    tag_80:\n        /* \"@openzeppelin/contracts/token/ERC20/ERC20.sol\":5959:5963  bool */\n      0x00\n        /* \"@openzeppelin/contracts/utils/Context.sol\":719:729  msg.sender */\n      caller\n        /* \"@openzeppelin/contracts/token/ERC20/ERC20.sol\":6013:6077  _approve(owner, spender, allowance(owner, spender) + addedValue) */\n      tag_180\n        /* \"@openzeppelin/contracts/utils/Context.sol\":719:729  msg.sender */\n      dup2\n        /* \"@openzeppelin/contracts/token/ERC20/ERC20.sol\":6029:6036  spender */\n      dup6\n        /* \"@openzeppelin/contracts/token/ERC20/ERC20.sol\":6066:6076  addedValue */\n      dup6\n        /* \"@openzeppelin/contracts/token/ERC20/ERC20.sol\":6038:6063  allowance(owner, spender) */\n      tag_197\n        /* \"@openzeppelin/contracts/utils/Context.sol\":719:729  msg.sender */\n      dup4\n        /* \"@openzeppelin/contracts/token/ERC20/ERC20.sol\":6029:6036  spender */\n      dup4\n        /* \"@openzeppelin/contracts/token/ERC20/ERC20.sol\":6038:6047  allowance */\n      tag_150\n        /* \"@openzeppelin/contracts/token/ERC20/ERC20.sol\":6038:6063  allowance(owner, spender) */\n      jump\t// in\n    tag_197:\n        /* \"@openzeppelin/contracts/token/ERC20/ERC20.sol\":6038:6076  allowance(owner, spender) + addedValue */\n      tag_198\n      swap2\n      swap1\n      tag_199\n      jump\t// in\n    tag_198:\n        /* \"@openzeppelin/contracts/token/ERC20/ERC20.sol\":6013:6021  _approve */\n      tag_181\n        /* \"@openzeppelin/contracts/token/ERC20/ERC20.sol\":6013:6077  _approve(owner, spender, allowance(owner, spender) + addedValue) */\n      jump\t// in\n        /* \"@openzeppelin/contracts/token/ERC20/extensions/ERC4626.sol\":4163:4311  function maxDeposit(address) public view virtual override returns (uint256) {... */\n    tag_85:\n        /* \"@openzeppelin/contracts/token/ERC20/extensions/ERC4626.sol\":4230:4237  uint256 */\n      0x00\n        /* \"@openzeppelin/contracts/token/ERC20/extensions/ERC4626.sol\":4256:4280  _isVaultCollateralized() */\n      tag_201\n        /* \"@openzeppelin/contracts/token/ERC20/extensions/ERC4626.sol\":4256:4278  _isVaultCollateralized */\n      tag_202\n        /* \"@openzeppelin/contracts/token/ERC20/extensions/ERC4626.sol\":4256:4280  _isVaultCollateralized() */\n      jump\t// in\n    tag_201:\n        /* \"@openzeppelin/contracts/token/ERC20/extensions/ERC4626.sol\":4256:4304  _isVaultCollateralized() ? type(uint256).max : 0 */\n      tag_203\n      jumpi\n        /* \"@openzeppelin/contracts/token/ERC20/extensions/ERC4626.sol\":4303:4304  0 */\n      0x00\n        /* \"@openzeppelin/contracts/token/ERC20/extensions/ERC4626.sol\":4256:4304  _isVaultCollateralized() ? type(uint256).max : 0 */\n      jump(tag_175)\n    tag_203:\n      not(0x00)\n        /* \"@openzeppelin/contracts/token/ERC20/extensions/ERC4626.sol\":4249:4304  return _isVaultCollateralized() ? type(uint256).max : 0 */\n      swap3\n        /* \"@openzeppelin/contracts/token/ERC20/extensions/ERC4626.sol\":4163:4311  function maxDeposit(address) public view virtual override returns (uint256) {... */\n      swap2\n      pop\n      pop\n      jump\t// out\n        /* \"@openzeppelin/contracts/token/ERC20/extensions/ERC4626.sol\":5719:6034  function deposit(uint256 assets, address receiver) public virtual override returns (uint256) {... */\n    tag_94:\n        /* \"@openzeppelin/contracts/token/ERC20/extensions/ERC4626.sol\":5803:5810  uint256 */\n      0x00\n        /* \"@openzeppelin/contracts/token/ERC20/extensions/ERC4626.sol\":5840:5860  maxDeposit(receiver) */\n      tag_208\n        /* \"@openzeppelin/contracts/token/ERC20/extensions/ERC4626.sol\":5851:5859  receiver */\n      dup3\n        /* \"@openzeppelin/contracts/token/ERC20/extensions/ERC4626.sol\":5840:5850  maxDeposit */\n      tag_85\n        /* \"@openzeppelin/contracts/token/ERC20/extensions/ERC4626.sol\":5840:5860  maxDeposit(receiver) */\n      jump\t// in\n    tag_208:\n        /* \"@openzeppelin/contracts/token/ERC20/extensions/ERC4626.sol\":5830:5836  assets */\n      dup4\n        /* \"@openzeppelin/contracts/token/ERC20/extensions/ERC4626.sol\":5830:5860  assets <= maxDeposit(receiver) */\n      gt\n      iszero\n        /* \"@openzeppelin/contracts/token/ERC20/extensions/ERC4626.sol\":5822:5895  require(assets <= maxDeposit(receiver), \"ERC4626: deposit more than max\") */\n      tag_209\n      jumpi\n      mload(0x40)\n      shl(0xe5, 0x461bcd)\n      dup2\n      mstore\n        /* \"#utility.yul\":4668:4670   */\n      0x20\n        /* \"@openzeppelin/contracts/token/ERC20/extensions/ERC4626.sol\":5822:5895  require(assets <= maxDeposit(receiver), \"ERC4626: deposit more than max\") */\n      0x04\n      dup3\n      add\n        /* \"#utility.yul\":4650:4671   */\n      mstore\n        /* \"#utility.yul\":4707:4709   */\n      0x1e\n        /* \"#utility.yul\":4687:4705   */\n      0x24\n      dup3\n      add\n        /* \"#utility.yul\":4680:4710   */\n      mstore\n        /* \"#utility.yul\":4746:4778   */\n      0x455243343632363a206465706f736974206d6f7265207468616e206d61780000\n        /* \"#utility.yul\":4726:4744   */\n      0x44\n      dup3\n      add\n        /* \"#utility.yul\":4719:4779   */\n      mstore\n        /* \"#utility.yul\":4796:4814   */\n      0x64\n      add\n        /* \"@openzeppelin/contracts/token/ERC20/extensions/ERC4626.sol\":5822:5895  require(assets <= maxDeposit(receiver), \"ERC4626: deposit more than max\") */\n    tag_210:\n      mload(0x40)\n      dup1\n      swap2\n      sub\n      swap1\n      revert\n    tag_209:\n        /* \"@openzeppelin/contracts/token/ERC20/extensions/ERC4626.sol\":5906:5920  uint256 shares */\n      0x00\n        /* \"@openzeppelin/contracts/token/ERC20/extensions/ERC4626.sol\":5923:5945  previewDeposit(assets) */\n      tag_212\n        /* \"@openzeppelin/contracts/token/ERC20/extensions/ERC4626.sol\":5938:5944  assets */\n      dup5\n        /* \"@openzeppelin/contracts/token/ERC20/extensions/ERC4626.sol\":5923:5937  previewDeposit */\n      tag_137\n        /* \"@openzeppelin/contracts/token/ERC20/extensions/ERC4626.sol\":5923:5945  previewDeposit(assets) */\n      jump\t// in\n    tag_212:\n        /* \"@openzeppelin/contracts/token/ERC20/extensions/ERC4626.sol\":5906:5945  uint256 shares = previewDeposit(assets) */\n      swap1\n      pop\n        /* \"@openzeppelin/contracts/token/ERC20/extensions/ERC4626.sol\":5955:6003  _deposit(_msgSender(), receiver, assets, shares) */\n      tag_186\n        /* \"@openzeppelin/contracts/utils/Context.sol\":719:729  msg.sender */\n      caller\n        /* \"@openzeppelin/contracts/token/ERC20/extensions/ERC4626.sol\":5978:5986  receiver */\n      dup5\n        /* \"@openzeppelin/contracts/token/ERC20/extensions/ERC4626.sol\":5988:5994  assets */\n      dup7\n        /* \"@openzeppelin/contracts/token/ERC20/extensions/ERC4626.sol\":5996:6002  shares */\n      dup5\n        /* \"@openzeppelin/contracts/token/ERC20/extensions/ERC4626.sol\":5955:5963  _deposit */\n      tag_215\n        /* \"@openzeppelin/contracts/token/ERC20/extensions/ERC4626.sol\":5955:6003  _deposit(_msgSender(), receiver, assets, shares) */\n      jump\t// in\n        /* \"@openzeppelin/contracts/token/ERC20/extensions/ERC4626.sol\":6301:6604  function mint(uint256 shares, address receiver) public virtual override returns (uint256) {... */\n    tag_102:\n        /* \"@openzeppelin/contracts/token/ERC20/extensions/ERC4626.sol\":6382:6389  uint256 */\n      0x00\n        /* \"@openzeppelin/contracts/token/ERC20/extensions/ERC4626.sol\":6479:6493  uint256 assets */\n      dup1\n        /* \"@openzeppelin/contracts/token/ERC20/extensions/ERC4626.sol\":6496:6515  previewMint(shares) */\n      tag_222\n        /* \"@openzeppelin/contracts/token/ERC20/extensions/ERC4626.sol\":6508:6514  shares */\n      dup5\n        /* \"@openzeppelin/contracts/token/ERC20/extensions/ERC4626.sol\":6496:6507  previewMint */\n      tag_120\n        /* \"@openzeppelin/contracts/token/ERC20/extensions/ERC4626.sol\":6496:6515  previewMint(shares) */\n      jump\t// in\n    tag_222:\n        /* \"@openzeppelin/contracts/token/ERC20/extensions/ERC4626.sol\":6479:6515  uint256 assets = previewMint(shares) */\n      swap1\n      pop\n        /* \"@openzeppelin/contracts/token/ERC20/extensions/ERC4626.sol\":6525:6573  _deposit(_msgSender(), receiver, assets, shares) */\n      tag_186\n        /* \"@openzeppelin/contracts/utils/Context.sol\":719:729  msg.sender */\n      caller\n        /* \"@openzeppelin/contracts/token/ERC20/extensions/ERC4626.sol\":6548:6556  receiver */\n      dup5\n        /* \"@openzeppelin/contracts/token/ERC20/extensions/ERC4626.sol\":6558:6564  assets */\n      dup4\n        /* \"@openzeppelin/contracts/token/ERC20/extensions/ERC4626.sol\":6566:6572  shares */\n      dup8\n        /* \"@openzeppelin/contracts/token/ERC20/extensions/ERC4626.sol\":6525:6533  _deposit */\n      tag_215\n        /* \"@openzeppelin/contracts/token/ERC20/extensions/ERC4626.sol\":6525:6573  _deposit(_msgSender(), receiver, assets, shares) */\n      jump\t// in\n        /* \"@openzeppelin/contracts/token/ERC20/ERC20.sol\":2365:2467  function symbol() public view virtual override returns (string memory) {... */\n    tag_105:\n        /* \"@openzeppelin/contracts/token/ERC20/ERC20.sol\":2421:2434  string memory */\n      0x60\n        /* \"@openzeppelin/contracts/token/ERC20/ERC20.sol\":2453:2460  _symbol */\n      0x04\n        /* \"@openzeppelin/contracts/token/ERC20/ERC20.sol\":2446:2460  return _symbol */\n      dup1\n      sload\n      tag_168\n      swap1\n      tag_169\n      jump\t// in\n        /* \"src/Derivatives/EquityToken.sol\":736:896  function mint(uint amount) external {... */\n    tag_109:\n        /* \"src/Derivatives/EquityToken.sol\":802:807  owner */\n      and(sub(shl(0xa0, 0x01), 0x01), sload(0x05))\n        /* \"src/Derivatives/EquityToken.sol\":788:798  msg.sender */\n      caller\n        /* \"src/Derivatives/EquityToken.sol\":788:807  msg.sender != owner */\n      eq\n        /* \"src/Derivatives/EquityToken.sol\":785:842  if(msg.sender != owner)... */\n      tag_232\n      jumpi\n        /* \"src/Derivatives/EquityToken.sol\":829:842  NotCampaign() */\n      mload(0x40)\n      shl(0xe2, 0x3731f4c5)\n      dup2\n      mstore\n      0x04\n      add\n      mload(0x40)\n      dup1\n      swap2\n      sub\n      swap1\n      revert\n        /* \"src/Derivatives/EquityToken.sol\":785:842  if(msg.sender != owner)... */\n    tag_232:\n        /* \"src/Derivatives/EquityToken.sol\":863:888  _mint(msg.sender, amount) */\n      tag_233\n        /* \"src/Derivatives/EquityToken.sol\":869:879  msg.sender */\n      caller\n        /* \"src/Derivatives/EquityToken.sol\":881:887  amount */\n      dup3\n        /* \"src/Derivatives/EquityToken.sol\":863:868  _mint */\n      tag_234\n        /* \"src/Derivatives/EquityToken.sol\":863:888  _mint(msg.sender, amount) */\n      jump\t// in\n    tag_233:\n        /* \"src/Derivatives/EquityToken.sol\":736:896  function mint(uint amount) external {... */\n      pop\n      jump\t// out\n        /* \"@openzeppelin/contracts/token/ERC20/ERC20.sol\":6592:7019  function decreaseAllowance(address spender, uint256 subtractedValue) public virtual returns (bool) {... */\n    tag_112:\n        /* \"@openzeppelin/contracts/token/ERC20/ERC20.sol\":6685:6689  bool */\n      0x00\n        /* \"@openzeppelin/contracts/utils/Context.sol\":719:729  msg.sender */\n      caller\n        /* \"@openzeppelin/contracts/token/ERC20/ERC20.sol\":6685:6689  bool */\n      dup2\n        /* \"@openzeppelin/contracts/token/ERC20/ERC20.sol\":6766:6791  allowance(owner, spender) */\n      tag_237\n        /* \"@openzeppelin/contracts/utils/Context.sol\":719:729  msg.sender */\n      dup3\n        /* \"@openzeppelin/contracts/token/ERC20/ERC20.sol\":6783:6790  spender */\n      dup7\n        /* \"@openzeppelin/contracts/token/ERC20/ERC20.sol\":6766:6775  allowance */\n      tag_150\n        /* \"@openzeppelin/contracts/token/ERC20/ERC20.sol\":6766:6791  allowance(owner, spender) */\n      jump\t// in\n    tag_237:\n        /* \"@openzeppelin/contracts/token/ERC20/ERC20.sol\":6739:6791  uint256 currentAllowance = allowance(owner, spender) */\n      swap1\n      pop\n        /* \"@openzeppelin/contracts/token/ERC20/ERC20.sol\":6829:6844  subtractedValue */\n      dup4\n        /* \"@openzeppelin/contracts/token/ERC20/ERC20.sol\":6809:6825  currentAllowance */\n      dup2\n        /* \"@openzeppelin/contracts/token/ERC20/ERC20.sol\":6809:6844  currentAllowance >= subtractedValue */\n      lt\n      iszero\n        /* \"@openzeppelin/contracts/token/ERC20/ERC20.sol\":6801:6886  require(currentAllowance >= subtractedValue, \"ERC20: decreased allowance below zero\") */\n      tag_238\n      jumpi\n      mload(0x40)\n      shl(0xe5, 0x461bcd)\n      dup2\n      mstore\n        /* \"#utility.yul\":5383:5385   */\n      0x20\n        /* \"@openzeppelin/contracts/token/ERC20/ERC20.sol\":6801:6886  require(currentAllowance >= subtractedValue, \"ERC20: decreased allowance below zero\") */\n      0x04\n      dup3\n      add\n        /* \"#utility.yul\":5365:5386   */\n      mstore\n        /* \"#utility.yul\":5422:5424   */\n      0x25\n        /* \"#utility.yul\":5402:5420   */\n      0x24\n      dup3\n      add\n        /* \"#utility.yul\":5395:5425   */\n      mstore\n        /* \"#utility.yul\":5461:5495   */\n      0x45524332303a2064656372656173656420616c6c6f77616e63652062656c6f77\n        /* \"#utility.yul\":5441:5459   */\n      0x44\n      dup3\n      add\n        /* \"#utility.yul\":5434:5496   */\n      mstore\n      shl(0xd8, 0x207a65726f)\n        /* \"#utility.yul\":5512:5530   */\n      0x64\n      dup3\n      add\n        /* \"#utility.yul\":5505:5540   */\n      mstore\n        /* \"#utility.yul\":5557:5576   */\n      0x84\n      add\n        /* \"@openzeppelin/contracts/token/ERC20/ERC20.sol\":6801:6886  require(currentAllowance >= subtractedValue, \"ERC20: decreased allowance below zero\") */\n      tag_210\n        /* \"#utility.yul\":5181:5582   */\n      jump\n        /* \"@openzeppelin/contracts/token/ERC20/ERC20.sol\":6801:6886  require(currentAllowance >= subtractedValue, \"ERC20: decreased allowance below zero\") */\n    tag_238:\n        /* \"@openzeppelin/contracts/token/ERC20/ERC20.sol\":6920:6980  _approve(owner, spender, currentAllowance - subtractedValue) */\n      tag_241\n        /* \"@openzeppelin/contracts/token/ERC20/ERC20.sol\":6929:6934  owner */\n      dup3\n        /* \"@openzeppelin/contracts/token/ERC20/ERC20.sol\":6936:6943  spender */\n      dup7\n        /* \"@openzeppelin/contracts/token/ERC20/ERC20.sol\":6964:6979  subtractedValue */\n      dup7\n        /* \"@openzeppelin/contracts/token/ERC20/ERC20.sol\":6945:6961  currentAllowance */\n      dup5\n        /* \"@openzeppelin/contracts/token/ERC20/ERC20.sol\":6945:6979  currentAllowance - subtractedValue */\n      sub\n        /* \"@openzeppelin/contracts/token/ERC20/ERC20.sol\":6920:6928  _approve */\n      tag_181\n        /* \"@openzeppelin/contracts/token/ERC20/ERC20.sol\":6920:6980  _approve(owner, spender, currentAllowance - subtractedValue) */\n      jump\t// in\n    tag_241:\n      pop\n        /* \"@openzeppelin/contracts/token/ERC20/ERC20.sol\":7008:7012  true */\n      0x01\n      swap5\n        /* \"@openzeppelin/contracts/token/ERC20/ERC20.sol\":6592:7019  function decreaseAllowance(address spender, uint256 subtractedValue) public virtual returns (bool) {... */\n      swap4\n      pop\n      pop\n      pop\n      pop\n      jump\t// out\n        /* \"@openzeppelin/contracts/token/ERC20/ERC20.sol\":3727:3916  function transfer(address to, uint256 amount) public virtual override returns (bool) {... */\n    tag_116:\n        /* \"@openzeppelin/contracts/token/ERC20/ERC20.sol\":3806:3810  bool */\n      0x00\n        /* \"@openzeppelin/contracts/utils/Context.sol\":719:729  msg.sender */\n      caller\n        /* \"@openzeppelin/contracts/token/ERC20/ERC20.sol\":3860:3888  _transfer(owner, to, amount) */\n      tag_180\n        /* \"@openzeppelin/contracts/utils/Context.sol\":719:729  msg.sender */\n      dup2\n        /* \"@openzeppelin/contracts/token/ERC20/ERC20.sol\":3877:3879  to */\n      dup6\n        /* \"@openzeppelin/contracts/token/ERC20/ERC20.sol\":3881:3887  amount */\n      dup6\n        /* \"@openzeppelin/contracts/token/ERC20/ERC20.sol\":3860:3869  _transfer */\n      tag_191\n        /* \"@openzeppelin/contracts/token/ERC20/ERC20.sol\":3860:3888  _transfer(owner, to, amount) */\n      jump\t// in\n        /* \"@openzeppelin/contracts/token/ERC20/extensions/ERC4626.sol\":5109:5259  function previewMint(uint256 shares) public view virtual override returns (uint256) {... */\n    tag_120:\n        /* \"@openzeppelin/contracts/token/ERC20/extensions/ERC4626.sol\":5184:5191  uint256 */\n      0x00\n        /* \"@openzeppelin/contracts/token/ERC20/extensions/ERC4626.sol\":5210:5252  _convertToAssets(shares, Math.Rounding.Up) */\n      tag_175\n        /* \"@openzeppelin/contracts/token/ERC20/extensions/ERC4626.sol\":5227:5233  shares */\n      dup3\n        /* \"@openzeppelin/contracts/token/ERC20/extensions/ERC4626.sol\":5235:5251  Math.Rounding.Up */\n      0x01\n        /* \"@openzeppelin/contracts/token/ERC20/extensions/ERC4626.sol\":5210:5226  _convertToAssets */\n      tag_176\n        /* \"@openzeppelin/contracts/token/ERC20/extensions/ERC4626.sol\":5210:5252  _convertToAssets(shares, Math.Rounding.Up) */\n      jump\t// in\n        /* \"@openzeppelin/contracts/token/ERC20/extensions/ERC4626.sol\":6651:7020  function withdraw(... */\n    tag_125:\n        /* \"@openzeppelin/contracts/token/ERC20/extensions/ERC4626.sol\":6781:6788  uint256 */\n      0x00\n        /* \"@openzeppelin/contracts/token/ERC20/extensions/ERC4626.sol\":6818:6836  maxWithdraw(owner) */\n      tag_248\n        /* \"@openzeppelin/contracts/token/ERC20/extensions/ERC4626.sol\":6830:6835  owner */\n      dup3\n        /* \"@openzeppelin/contracts/token/ERC20/extensions/ERC4626.sol\":6818:6829  maxWithdraw */\n      tag_141\n        /* \"@openzeppelin/contracts/token/ERC20/extensions/ERC4626.sol\":6818:6836  maxWithdraw(owner) */\n      jump\t// in\n    tag_248:\n        /* \"@openzeppelin/contracts/token/ERC20/extensions/ERC4626.sol\":6808:6814  assets */\n      dup5\n        /* \"@openzeppelin/contracts/token/ERC20/extensions/ERC4626.sol\":6808:6836  assets <= maxWithdraw(owner) */\n      gt\n      iszero\n        /* \"@openzeppelin/contracts/token/ERC20/extensions/ERC4626.sol\":6800:6872  require(assets <= maxWithdraw(owner), \"ERC4626: withdraw more than max\") */\n      tag_249\n      jumpi\n      mload(0x40)\n      shl(0xe5, 0x461bcd)\n      dup2\n      mstore\n        /* \"#utility.yul\":5789:5791   */\n      0x20\n        /* \"@openzeppelin/contracts/token/ERC20/extensions/ERC4626.sol\":6800:6872  require(assets <= maxWithdraw(owner), \"ERC4626: withdraw more than max\") */\n      0x04\n      dup3\n      add\n        /* \"#utility.yul\":5771:5792   */\n      mstore\n        /* \"#utility.yul\":5828:5830   */\n      0x1f\n        /* \"#utility.yul\":5808:5826   */\n      0x24\n      dup3\n      add\n        /* \"#utility.yul\":5801:5831   */\n      mstore\n        /* \"#utility.yul\":5867:5900   */\n      0x455243343632363a207769746864726177206d6f7265207468616e206d617800\n        /* \"#utility.yul\":5847:5865   */\n      0x44\n      dup3\n      add\n        /* \"#utility.yul\":5840:5901   */\n      mstore\n        /* \"#utility.yul\":5918:5936   */\n      0x64\n      add\n        /* \"@openzeppelin/contracts/token/ERC20/extensions/ERC4626.sol\":6800:6872  require(assets <= maxWithdraw(owner), \"ERC4626: withdraw more than max\") */\n      tag_210\n        /* \"#utility.yul\":5587:5942   */\n      jump\n        /* \"@openzeppelin/contracts/token/ERC20/extensions/ERC4626.sol\":6800:6872  require(assets <= maxWithdraw(owner), \"ERC4626: withdraw more than max\") */\n    tag_249:\n        /* \"@openzeppelin/contracts/token/ERC20/extensions/ERC4626.sol\":6883:6897  uint256 shares */\n      0x00\n        /* \"@openzeppelin/contracts/token/ERC20/extensions/ERC4626.sol\":6900:6923  previewWithdraw(assets) */\n      tag_252\n        /* \"@openzeppelin/contracts/token/ERC20/extensions/ERC4626.sol\":6916:6922  assets */\n      dup6\n        /* \"@openzeppelin/contracts/token/ERC20/extensions/ERC4626.sol\":6900:6915  previewWithdraw */\n      tag_60\n        /* \"@openzeppelin/contracts/token/ERC20/extensions/ERC4626.sol\":6900:6923  previewWithdraw(assets) */\n      jump\t// in\n    tag_252:\n        /* \"@openzeppelin/contracts/token/ERC20/extensions/ERC4626.sol\":6883:6923  uint256 shares = previewWithdraw(assets) */\n      swap1\n      pop\n        /* \"@openzeppelin/contracts/token/ERC20/extensions/ERC4626.sol\":6933:6989  _withdraw(_msgSender(), receiver, owner, assets, shares) */\n      tag_253\n        /* \"@openzeppelin/contracts/utils/Context.sol\":719:729  msg.sender */\n      caller\n        /* \"@openzeppelin/contracts/token/ERC20/extensions/ERC4626.sol\":6957:6965  receiver */\n      dup6\n        /* \"@openzeppelin/contracts/token/ERC20/extensions/ERC4626.sol\":6967:6972  owner */\n      dup6\n        /* \"@openzeppelin/contracts/token/ERC20/extensions/ERC4626.sol\":6974:6980  assets */\n      dup9\n        /* \"@openzeppelin/contracts/token/ERC20/extensions/ERC4626.sol\":6982:6988  shares */\n      dup6\n        /* \"@openzeppelin/contracts/token/ERC20/extensions/ERC4626.sol\":6933:6942  _withdraw */\n      tag_255\n        /* \"@openzeppelin/contracts/token/ERC20/extensions/ERC4626.sol\":6933:6989  _withdraw(_msgSender(), receiver, owner, assets, shares) */\n      jump\t// in\n    tag_253:\n        /* \"@openzeppelin/contracts/token/ERC20/extensions/ERC4626.sol\":7007:7013  shares */\n      swap5\n        /* \"@openzeppelin/contracts/token/ERC20/extensions/ERC4626.sol\":6651:7020  function withdraw(... */\n      swap4\n      pop\n      pop\n      pop\n      pop\n      jump\t// out\n        /* \"@openzeppelin/contracts/token/ERC20/extensions/ERC4626.sol\":7065:7426  function redeem(... */\n    tag_129:\n        /* \"@openzeppelin/contracts/token/ERC20/extensions/ERC4626.sol\":7193:7200  uint256 */\n      0x00\n        /* \"@openzeppelin/contracts/token/ERC20/extensions/ERC4626.sol\":7230:7246  maxRedeem(owner) */\n      tag_257\n        /* \"@openzeppelin/contracts/token/ERC20/extensions/ERC4626.sol\":7240:7245  owner */\n      dup3\n        /* \"@openzeppelin/contracts/token/ERC20/extensions/ERC4626.sol\":7230:7239  maxRedeem */\n      tag_145\n        /* \"@openzeppelin/contracts/token/ERC20/extensions/ERC4626.sol\":7230:7246  maxRedeem(owner) */\n      jump\t// in\n    tag_257:\n        /* \"@openzeppelin/contracts/token/ERC20/extensions/ERC4626.sol\":7220:7226  shares */\n      dup5\n        /* \"@openzeppelin/contracts/token/ERC20/extensions/ERC4626.sol\":7220:7246  shares <= maxRedeem(owner) */\n      gt\n      iszero\n        /* \"@openzeppelin/contracts/token/ERC20/extensions/ERC4626.sol\":7212:7280  require(shares <= maxRedeem(owner), \"ERC4626: redeem more than max\") */\n      tag_258\n      jumpi\n      mload(0x40)\n      shl(0xe5, 0x461bcd)\n      dup2\n      mstore\n        /* \"#utility.yul\":6149:6151   */\n      0x20\n        /* \"@openzeppelin/contracts/token/ERC20/extensions/ERC4626.sol\":7212:7280  require(shares <= maxRedeem(owner), \"ERC4626: redeem more than max\") */\n      0x04\n      dup3\n      add\n        /* \"#utility.yul\":6131:6152   */\n      mstore\n        /* \"#utility.yul\":6188:6190   */\n      0x1d\n        /* \"#utility.yul\":6168:6186   */\n      0x24\n      dup3\n      add\n        /* \"#utility.yul\":6161:6191   */\n      mstore\n        /* \"#utility.yul\":6227:6258   */\n      0x455243343632363a2072656465656d206d6f7265207468616e206d6178000000\n        /* \"#utility.yul\":6207:6225   */\n      0x44\n      dup3\n      add\n        /* \"#utility.yul\":6200:6259   */\n      mstore\n        /* \"#utility.yul\":6276:6294   */\n      0x64\n      add\n        /* \"@openzeppelin/contracts/token/ERC20/extensions/ERC4626.sol\":7212:7280  require(shares <= maxRedeem(owner), \"ERC4626: redeem more than max\") */\n      tag_210\n        /* \"#utility.yul\":5947:6300   */\n      jump\n        /* \"@openzeppelin/contracts/token/ERC20/extensions/ERC4626.sol\":7212:7280  require(shares <= maxRedeem(owner), \"ERC4626: redeem more than max\") */\n    tag_258:\n        /* \"@openzeppelin/contracts/token/ERC20/extensions/ERC4626.sol\":7291:7305  uint256 assets */\n      0x00\n        /* \"@openzeppelin/contracts/token/ERC20/extensions/ERC4626.sol\":7308:7329  previewRedeem(shares) */\n      tag_261\n        /* \"@openzeppelin/contracts/token/ERC20/extensions/ERC4626.sol\":7322:7328  shares */\n      dup6\n        /* \"@openzeppelin/contracts/token/ERC20/extensions/ERC4626.sol\":7308:7321  previewRedeem */\n      tag_50\n        /* \"@openzeppelin/contracts/token/ERC20/extensions/ERC4626.sol\":7308:7329  previewRedeem(shares) */\n      jump\t// in\n    tag_261:\n        /* \"@openzeppelin/contracts/token/ERC20/extensions/ERC4626.sol\":7291:7329  uint256 assets = previewRedeem(shares) */\n      swap1\n      pop\n        /* \"@openzeppelin/contracts/token/ERC20/extensions/ERC4626.sol\":7339:7395  _withdraw(_msgSender(), receiver, owner, assets, shares) */\n      tag_253\n        /* \"@openzeppelin/contracts/utils/Context.sol\":719:729  msg.sender */\n      caller\n        /* \"@openzeppelin/contracts/token/ERC20/extensions/ERC4626.sol\":7363:7371  receiver */\n      dup6\n        /* \"@openzeppelin/contracts/token/ERC20/extensions/ERC4626.sol\":7373:7378  owner */\n      dup6\n        /* \"@openzeppelin/contracts/token/ERC20/extensions/ERC4626.sol\":7380:7386  assets */\n      dup5\n        /* \"@openzeppelin/contracts/token/ERC20/extensions/ERC4626.sol\":7388:7394  shares */\n      dup10\n        /* \"@openzeppelin/contracts/token/ERC20/extensions/ERC4626.sol\":7339:7348  _withdraw */\n      tag_255\n        /* \"@openzeppelin/contracts/token/ERC20/extensions/ERC4626.sol\":7339:7395  _withdraw(_msgSender(), receiver, owner, assets, shares) */\n      jump\t// in\n        /* \"@openzeppelin/contracts/token/ERC20/extensions/ERC4626.sol\":3734:3897  function convertToShares(uint256 assets) public view virtual override returns (uint256 shares) {... */\n    tag_137:\n        /* \"@openzeppelin/contracts/token/ERC20/extensions/ERC4626.sol\":3813:3827  uint256 shares */\n      0x00\n        /* \"@openzeppelin/contracts/token/ERC20/extensions/ERC4626.sol\":3846:3890  _convertToShares(assets, Math.Rounding.Down) */\n      tag_175\n        /* \"@openzeppelin/contracts/token/ERC20/extensions/ERC4626.sol\":3863:3869  assets */\n      dup3\n        /* \"@openzeppelin/contracts/token/ERC20/extensions/ERC4626.sol\":3871:3889  Math.Rounding.Down */\n      0x00\n        /* \"@openzeppelin/contracts/token/ERC20/extensions/ERC4626.sol\":3846:3862  _convertToShares */\n      tag_184\n        /* \"@openzeppelin/contracts/token/ERC20/extensions/ERC4626.sol\":3846:3890  _convertToShares(assets, Math.Rounding.Down) */\n      jump\t// in\n        /* \"@openzeppelin/contracts/token/ERC20/extensions/ERC4626.sol\":4521:4682  function maxWithdraw(address owner) public view virtual override returns (uint256) {... */\n    tag_141:\n      sub(shl(0xa0, 0x01), 0x01)\n        /* \"@openzeppelin/contracts/token/ERC20/ERC20.sol\":3506:3524  _balances[account] */\n      dup2\n      and\n        /* \"@openzeppelin/contracts/token/ERC20/extensions/ERC4626.sol\":4595:4602  uint256 */\n      0x00\n        /* \"@openzeppelin/contracts/token/ERC20/ERC20.sol\":3506:3524  _balances[account] */\n      swap1\n      dup2\n      mstore\n      0x20\n      dup2\n      swap1\n      mstore\n      0x40\n      dup2\n      keccak256\n      sload\n        /* \"@openzeppelin/contracts/token/ERC20/extensions/ERC4626.sol\":4621:4675  _convertToAssets(balanceOf(owner), Math.Rounding.Down) */\n      tag_175\n      swap1\n        /* \"@openzeppelin/contracts/token/ERC20/extensions/ERC4626.sol\":4656:4674  Math.Rounding.Down */\n      0x00\n        /* \"@openzeppelin/contracts/token/ERC20/extensions/ERC4626.sol\":4621:4637  _convertToAssets */\n      tag_176\n        /* \"@openzeppelin/contracts/token/ERC20/extensions/ERC4626.sol\":4621:4675  _convertToAssets(balanceOf(owner), Math.Rounding.Down) */\n      jump\t// in\n        /* \"@openzeppelin/contracts/token/ERC20/extensions/ERC4626.sol\":4730:4851  function maxRedeem(address owner) public view virtual override returns (uint256) {... */\n    tag_145:\n      sub(shl(0xa0, 0x01), 0x01)\n        /* \"@openzeppelin/contracts/token/ERC20/ERC20.sol\":3506:3524  _balances[account] */\n      dup2\n      and\n        /* \"@openzeppelin/contracts/token/ERC20/extensions/ERC4626.sol\":4802:4809  uint256 */\n      0x00\n        /* \"@openzeppelin/contracts/token/ERC20/ERC20.sol\":3506:3524  _balances[account] */\n      swap1\n      dup2\n      mstore\n      0x20\n      dup2\n      swap1\n      mstore\n      0x40\n      dup2\n      keccak256\n      sload\n        /* \"@openzeppelin/contracts/token/ERC20/extensions/ERC4626.sol\":4828:4844  balanceOf(owner) */\n      tag_175\n        /* \"@openzeppelin/contracts/token/ERC20/ERC20.sol\":3406:3531  function balanceOf(address account) public view virtual override returns (uint256) {... */\n      jump\n        /* \"@openzeppelin/contracts/token/ERC20/ERC20.sol\":3974:4123  function allowance(address owner, address spender) public view virtual override returns (uint256) {... */\n    tag_150:\n      sub(shl(0xa0, 0x01), 0x01)\n        /* \"@openzeppelin/contracts/token/ERC20/ERC20.sol\":4089:4107  _allowances[owner] */\n      swap2\n      dup3\n      and\n        /* \"@openzeppelin/contracts/token/ERC20/ERC20.sol\":4063:4070  uint256 */\n      0x00\n        /* \"@openzeppelin/contracts/token/ERC20/ERC20.sol\":4089:4107  _allowances[owner] */\n      swap1\n      dup2\n      mstore\n        /* \"@openzeppelin/contracts/token/ERC20/ERC20.sol\":4089:4100  _allowances */\n      0x01\n        /* \"@openzeppelin/contracts/token/ERC20/ERC20.sol\":4089:4107  _allowances[owner] */\n      0x20\n      swap1\n      dup2\n      mstore\n      0x40\n      dup1\n      dup4\n      keccak256\n        /* \"@openzeppelin/contracts/token/ERC20/ERC20.sol\":4089:4116  _allowances[owner][spender] */\n      swap4\n      swap1\n      swap5\n      and\n      dup3\n      mstore\n      swap2\n      swap1\n      swap2\n      mstore\n      keccak256\n      sload\n      swap1\n        /* \"@openzeppelin/contracts/token/ERC20/ERC20.sol\":3974:4123  function allowance(address owner, address spender) public view virtual override returns (uint256) {... */\n      jump\t// out\n        /* \"@openzeppelin/contracts/token/ERC20/ERC20.sol\":3091:3182  function decimals() public view virtual override returns (uint8) {... */\n    tag_160:\n        /* \"@openzeppelin/contracts/token/ERC20/ERC20.sol\":3173:3175  18 */\n      0x12\n      swap1\n        /* \"@openzeppelin/contracts/token/ERC20/ERC20.sol\":3091:3182  function decimals() public view virtual override returns (uint8) {... */\n      jump\t// out\n        /* \"@openzeppelin/contracts/token/ERC20/extensions/ERC4626.sol\":8601:8896  function _convertToAssets(uint256 shares, Math.Rounding rounding) internal view virtual returns (uint256 assets) {... */\n    tag_176:\n        /* \"@openzeppelin/contracts/token/ERC20/extensions/ERC4626.sol\":8698:8712  uint256 assets */\n      0x00\n        /* \"@openzeppelin/contracts/token/ERC20/extensions/ERC4626.sol\":8724:8738  uint256 supply */\n      dup1\n        /* \"@openzeppelin/contracts/token/ERC20/extensions/ERC4626.sol\":8741:8754  totalSupply() */\n      tag_277\n        /* \"@openzeppelin/contracts/token/ERC20/ERC20.sol\":3329:3341  _totalSupply */\n      sload(0x02)\n      swap1\n        /* \"@openzeppelin/contracts/token/ERC20/ERC20.sol\":3242:3348  function totalSupply() public view virtual override returns (uint256) {... */\n      jump\n        /* \"@openzeppelin/contracts/token/ERC20/extensions/ERC4626.sol\":8741:8754  totalSupply() */\n    tag_277:\n        /* \"@openzeppelin/contracts/token/ERC20/extensions/ERC4626.sol\":8724:8754  uint256 supply = totalSupply() */\n      swap1\n      pop\n        /* \"@openzeppelin/contracts/token/ERC20/extensions/ERC4626.sol\":8784:8795  supply == 0 */\n      dup1\n      iszero\n        /* \"@openzeppelin/contracts/token/ERC20/extensions/ERC4626.sol\":8783:8889  (supply == 0) ? _initialConvertToAssets(shares, rounding) : shares.mulDiv(totalAssets(), supply, rounding) */\n      tag_278\n      jumpi\n        /* \"@openzeppelin/contracts/token/ERC20/extensions/ERC4626.sol\":8843:8889  shares.mulDiv(totalAssets(), supply, rounding) */\n      tag_279\n        /* \"@openzeppelin/contracts/token/ERC20/extensions/ERC4626.sol\":8857:8870  totalAssets() */\n      tag_280\n        /* \"@openzeppelin/contracts/token/ERC20/extensions/ERC4626.sol\":8857:8868  totalAssets */\n      tag_40\n        /* \"@openzeppelin/contracts/token/ERC20/extensions/ERC4626.sol\":8857:8870  totalAssets() */\n      jump\t// in\n    tag_280:\n        /* \"@openzeppelin/contracts/token/ERC20/extensions/ERC4626.sol\":8843:8849  shares */\n      dup6\n      swap1\n        /* \"@openzeppelin/contracts/token/ERC20/extensions/ERC4626.sol\":8872:8878  supply */\n      dup4\n        /* \"@openzeppelin/contracts/token/ERC20/extensions/ERC4626.sol\":8880:8888  rounding */\n      dup7\n        /* \"@openzeppelin/contracts/token/ERC20/extensions/ERC4626.sol\":8843:8856  shares.mulDiv */\n      tag_281\n        /* \"@openzeppelin/contracts/token/ERC20/extensions/ERC4626.sol\":8843:8889  shares.mulDiv(totalAssets(), supply, rounding) */\n      jump\t// in\n    tag_279:\n        /* \"@openzeppelin/contracts/token/ERC20/extensions/ERC4626.sol\":8783:8889  (supply == 0) ? _initialConvertToAssets(shares, rounding) : shares.mulDiv(totalAssets(), supply, rounding) */\n      jump(tag_253)\n    tag_278:\n        /* \"@openzeppelin/contracts/token/ERC20/extensions/ERC4626.sol\":8823:8829  shares */\n      dup4\n        /* \"@openzeppelin/contracts/token/ERC20/extensions/ERC4626.sol\":8799:8840  _initialConvertToAssets(shares, rounding) */\n      tag_253\n        /* \"@openzeppelin/contracts/token/ERC20/extensions/ERC4626.sol\":9131:9307  function _initialConvertToAssets(... */\n      jump\n        /* \"@openzeppelin/contracts/token/ERC20/ERC20.sol\":10504:10874  function _approve(... */\n    tag_181:\n      sub(shl(0xa0, 0x01), 0x01)\n        /* \"@openzeppelin/contracts/token/ERC20/ERC20.sol\":10635:10654  owner != address(0) */\n      dup4\n      and\n        /* \"@openzeppelin/contracts/token/ERC20/ERC20.sol\":10627:10695  require(owner != address(0), \"ERC20: approve from the zero address\") */\n      tag_287\n      jumpi\n      mload(0x40)\n      shl(0xe5, 0x461bcd)\n      dup2\n      mstore\n        /* \"#utility.yul\":6507:6509   */\n      0x20\n        /* \"@openzeppelin/contracts/token/ERC20/ERC20.sol\":10627:10695  require(owner != address(0), \"ERC20: approve from the zero address\") */\n      0x04\n      dup3\n      add\n        /* \"#utility.yul\":6489:6510   */\n      mstore\n        /* \"#utility.yul\":6546:6548   */\n      0x24\n        /* \"#utility.yul\":6526:6544   */\n      dup1\n      dup3\n      add\n        /* \"#utility.yul\":6519:6549   */\n      mstore\n        /* \"#utility.yul\":6585:6619   */\n      0x45524332303a20617070726f76652066726f6d20746865207a65726f20616464\n        /* \"#utility.yul\":6565:6583   */\n      0x44\n      dup3\n      add\n        /* \"#utility.yul\":6558:6620   */\n      mstore\n      shl(0xe0, 0x72657373)\n        /* \"#utility.yul\":6636:6654   */\n      0x64\n      dup3\n      add\n        /* \"#utility.yul\":6629:6663   */\n      mstore\n        /* \"#utility.yul\":6680:6699   */\n      0x84\n      add\n        /* \"@openzeppelin/contracts/token/ERC20/ERC20.sol\":10627:10695  require(owner != address(0), \"ERC20: approve from the zero address\") */\n      tag_210\n        /* \"#utility.yul\":6305:6705   */\n      jump\n        /* \"@openzeppelin/contracts/token/ERC20/ERC20.sol\":10627:10695  require(owner != address(0), \"ERC20: approve from the zero address\") */\n    tag_287:\n      sub(shl(0xa0, 0x01), 0x01)\n        /* \"@openzeppelin/contracts/token/ERC20/ERC20.sol\":10713:10734  spender != address(0) */\n      dup3\n      and\n        /* \"@openzeppelin/contracts/token/ERC20/ERC20.sol\":10705:10773  require(spender != address(0), \"ERC20: approve to the zero address\") */\n      tag_290\n      jumpi\n      mload(0x40)\n      shl(0xe5, 0x461bcd)\n      dup2\n      mstore\n        /* \"#utility.yul\":6912:6914   */\n      0x20\n        /* \"@openzeppelin/contracts/token/ERC20/ERC20.sol\":10705:10773  require(spender != address(0), \"ERC20: approve to the zero address\") */\n      0x04\n      dup3\n      add\n        /* \"#utility.yul\":6894:6915   */\n      mstore\n        /* \"#utility.yul\":6951:6953   */\n      0x22\n        /* \"#utility.yul\":6931:6949   */\n      0x24\n      dup3\n      add\n        /* \"#utility.yul\":6924:6954   */\n      mstore\n        /* \"#utility.yul\":6990:7024   */\n      0x45524332303a20617070726f766520746f20746865207a65726f206164647265\n        /* \"#utility.yul\":6970:6988   */\n      0x44\n      dup3\n      add\n        /* \"#utility.yul\":6963:7025   */\n      mstore\n      shl(0xf0, 0x7373)\n        /* \"#utility.yul\":7041:7059   */\n      0x64\n      dup3\n      add\n        /* \"#utility.yul\":7034:7066   */\n      mstore\n        /* \"#utility.yul\":7083:7102   */\n      0x84\n      add\n        /* \"@openzeppelin/contracts/token/ERC20/ERC20.sol\":10705:10773  require(spender != address(0), \"ERC20: approve to the zero address\") */\n      tag_210\n        /* \"#utility.yul\":6710:7108   */\n      jump\n        /* \"@openzeppelin/contracts/token/ERC20/ERC20.sol\":10705:10773  require(spender != address(0), \"ERC20: approve to the zero address\") */\n    tag_290:\n      sub(shl(0xa0, 0x01), 0x01)\n        /* \"@openzeppelin/contracts/token/ERC20/ERC20.sol\":10784:10802  _allowances[owner] */\n      dup4\n      dup2\n      and\n      0x00\n      dup2\n      dup2\n      mstore\n        /* \"@openzeppelin/contracts/token/ERC20/ERC20.sol\":10784:10795  _allowances */\n      0x01\n        /* \"@openzeppelin/contracts/token/ERC20/ERC20.sol\":10784:10802  _allowances[owner] */\n      0x20\n      swap1\n      dup2\n      mstore\n      0x40\n      dup1\n      dup4\n      keccak256\n        /* \"@openzeppelin/contracts/token/ERC20/ERC20.sol\":10784:10811  _allowances[owner][spender] */\n      swap5\n      dup8\n      and\n      dup1\n      dup5\n      mstore\n      swap5\n      dup3\n      mstore\n      swap2\n      dup3\n      swap1\n      keccak256\n        /* \"@openzeppelin/contracts/token/ERC20/ERC20.sol\":10784:10820  _allowances[owner][spender] = amount */\n      dup6\n      swap1\n      sstore\n        /* \"@openzeppelin/contracts/token/ERC20/ERC20.sol\":10835:10867  Approval(owner, spender, amount) */\n      swap1\n      mload\n        /* \"#utility.yul\":160:185   */\n      dup5\n      dup2\n      mstore\n        /* \"@openzeppelin/contracts/token/ERC20/ERC20.sol\":10835:10867  Approval(owner, spender, amount) */\n      0x8c5be1e5ebec7d5bd14f71427d1e84f3dd0314c0f7b2291e5b200ac8c7c3b925\n      swap2\n        /* \"#utility.yul\":133:151   */\n      add\n        /* \"@openzeppelin/contracts/token/ERC20/ERC20.sol\":10835:10867  Approval(owner, spender, amount) */\n      mload(0x40)\n      dup1\n      swap2\n      sub\n      swap1\n      log3\n        /* \"@openzeppelin/contracts/token/ERC20/ERC20.sol\":10504:10874  function _approve(... */\n      pop\n      pop\n      pop\n      jump\t// out\n        /* \"@openzeppelin/contracts/token/ERC20/extensions/ERC4626.sol\":7724:8066  function _convertToShares(uint256 assets, Math.Rounding rounding) internal view virtual returns (uint256 shares) {... */\n    tag_184:\n        /* \"@openzeppelin/contracts/token/ERC20/extensions/ERC4626.sol\":7821:7835  uint256 shares */\n      0x00\n        /* \"@openzeppelin/contracts/token/ERC20/extensions/ERC4626.sol\":7847:7861  uint256 supply */\n      dup1\n        /* \"@openzeppelin/contracts/token/ERC20/extensions/ERC4626.sol\":7864:7877  totalSupply() */\n      tag_295\n        /* \"@openzeppelin/contracts/token/ERC20/ERC20.sol\":3329:3341  _totalSupply */\n      sload(0x02)\n      swap1\n        /* \"@openzeppelin/contracts/token/ERC20/ERC20.sol\":3242:3348  function totalSupply() public view virtual override returns (uint256) {... */\n      jump\n        /* \"@openzeppelin/contracts/token/ERC20/extensions/ERC4626.sol\":7864:7877  totalSupply() */\n    tag_295:\n        /* \"@openzeppelin/contracts/token/ERC20/extensions/ERC4626.sol\":7847:7877  uint256 supply = totalSupply() */\n      swap1\n      pop\n        /* \"@openzeppelin/contracts/token/ERC20/extensions/ERC4626.sol\":7907:7918  assets == 0 */\n      dup4\n      iszero\n      dup1\n        /* \"@openzeppelin/contracts/token/ERC20/extensions/ERC4626.sol\":7907:7933  assets == 0 || supply == 0 */\n      tag_296\n      jumpi\n      pop\n        /* \"@openzeppelin/contracts/token/ERC20/extensions/ERC4626.sol\":7922:7933  supply == 0 */\n      dup1\n      iszero\n        /* \"@openzeppelin/contracts/token/ERC20/extensions/ERC4626.sol\":7907:7933  assets == 0 || supply == 0 */\n    tag_296:\n        /* \"@openzeppelin/contracts/token/ERC20/extensions/ERC4626.sol\":7906:8059  (assets == 0 || supply == 0)... */\n      tag_278\n      jumpi\n        /* \"@openzeppelin/contracts/token/ERC20/extensions/ERC4626.sol\":8013:8059  assets.mulDiv(supply, totalAssets(), rounding) */\n      tag_279\n        /* \"@openzeppelin/contracts/token/ERC20/extensions/ERC4626.sol\":8027:8033  supply */\n      dup2\n        /* \"@openzeppelin/contracts/token/ERC20/extensions/ERC4626.sol\":8035:8048  totalAssets() */\n      tag_299\n        /* \"@openzeppelin/contracts/token/ERC20/extensions/ERC4626.sol\":8035:8046  totalAssets */\n      tag_40\n        /* \"@openzeppelin/contracts/token/ERC20/extensions/ERC4626.sol\":8035:8048  totalAssets() */\n      jump\t// in\n    tag_299:\n        /* \"@openzeppelin/contracts/token/ERC20/extensions/ERC4626.sol\":8013:8019  assets */\n      dup7\n      swap2\n        /* \"@openzeppelin/contracts/token/ERC20/extensions/ERC4626.sol\":8013:8059  assets.mulDiv(supply, totalAssets(), rounding) */\n      swap1\n        /* \"@openzeppelin/contracts/token/ERC20/extensions/ERC4626.sol\":8050:8058  rounding */\n      dup7\n        /* \"@openzeppelin/contracts/token/ERC20/extensions/ERC4626.sol\":8013:8026  assets.mulDiv */\n      tag_281\n        /* \"@openzeppelin/contracts/token/ERC20/extensions/ERC4626.sol\":8013:8059  assets.mulDiv(supply, totalAssets(), rounding) */\n      jump\t// in\n        /* \"@openzeppelin/contracts/token/ERC20/ERC20.sol\":11155:11596  function _spendAllowance(... */\n    tag_189:\n        /* \"@openzeppelin/contracts/token/ERC20/ERC20.sol\":11285:11309  uint256 currentAllowance */\n      0x00\n        /* \"@openzeppelin/contracts/token/ERC20/ERC20.sol\":11312:11337  allowance(owner, spender) */\n      tag_304\n        /* \"@openzeppelin/contracts/token/ERC20/ERC20.sol\":11322:11327  owner */\n      dup5\n        /* \"@openzeppelin/contracts/token/ERC20/ERC20.sol\":11329:11336  spender */\n      dup5\n        /* \"@openzeppelin/contracts/token/ERC20/ERC20.sol\":11312:11321  allowance */\n      tag_150\n        /* \"@openzeppelin/contracts/token/ERC20/ERC20.sol\":11312:11337  allowance(owner, spender) */\n      jump\t// in\n    tag_304:\n        /* \"@openzeppelin/contracts/token/ERC20/ERC20.sol\":11285:11337  uint256 currentAllowance = allowance(owner, spender) */\n      swap1\n      pop\n      not(0x00)\n        /* \"@openzeppelin/contracts/token/ERC20/ERC20.sol\":11351:11367  currentAllowance */\n      dup2\n        /* \"@openzeppelin/contracts/token/ERC20/ERC20.sol\":11351:11388  currentAllowance != type(uint256).max */\n      eq\n        /* \"@openzeppelin/contracts/token/ERC20/ERC20.sol\":11347:11590  if (currentAllowance != type(uint256).max) {... */\n      tag_309\n      jumpi\n        /* \"@openzeppelin/contracts/token/ERC20/ERC20.sol\":11432:11438  amount */\n      dup2\n        /* \"@openzeppelin/contracts/token/ERC20/ERC20.sol\":11412:11428  currentAllowance */\n      dup2\n        /* \"@openzeppelin/contracts/token/ERC20/ERC20.sol\":11412:11438  currentAllowance >= amount */\n      lt\n      iszero\n        /* \"@openzeppelin/contracts/token/ERC20/ERC20.sol\":11404:11472  require(currentAllowance >= amount, \"ERC20: insufficient allowance\") */\n      tag_306\n      jumpi\n      mload(0x40)\n      shl(0xe5, 0x461bcd)\n      dup2\n      mstore\n        /* \"#utility.yul\":7315:7317   */\n      0x20\n        /* \"@openzeppelin/contracts/token/ERC20/ERC20.sol\":11404:11472  require(currentAllowance >= amount, \"ERC20: insufficient allowance\") */\n      0x04\n      dup3\n      add\n        /* \"#utility.yul\":7297:7318   */\n      mstore\n        /* \"#utility.yul\":7354:7356   */\n      0x1d\n        /* \"#utility.yul\":7334:7352   */\n      0x24\n      dup3\n      add\n        /* \"#utility.yul\":7327:7357   */\n      mstore\n        /* \"#utility.yul\":7393:7424   */\n      0x45524332303a20696e73756666696369656e7420616c6c6f77616e6365000000\n        /* \"#utility.yul\":7373:7391   */\n      0x44\n      dup3\n      add\n        /* \"#utility.yul\":7366:7425   */\n      mstore\n        /* \"#utility.yul\":7442:7460   */\n      0x64\n      add\n        /* \"@openzeppelin/contracts/token/ERC20/ERC20.sol\":11404:11472  require(currentAllowance >= amount, \"ERC20: insufficient allowance\") */\n      tag_210\n        /* \"#utility.yul\":7113:7466   */\n      jump\n        /* \"@openzeppelin/contracts/token/ERC20/ERC20.sol\":11404:11472  require(currentAllowance >= amount, \"ERC20: insufficient allowance\") */\n    tag_306:\n        /* \"@openzeppelin/contracts/token/ERC20/ERC20.sol\":11514:11565  _approve(owner, spender, currentAllowance - amount) */\n      tag_309\n        /* \"@openzeppelin/contracts/token/ERC20/ERC20.sol\":11523:11528  owner */\n      dup5\n        /* \"@openzeppelin/contracts/token/ERC20/ERC20.sol\":11530:11537  spender */\n      dup5\n        /* \"@openzeppelin/contracts/token/ERC20/ERC20.sol\":11558:11564  amount */\n      dup5\n        /* \"@openzeppelin/contracts/token/ERC20/ERC20.sol\":11539:11555  currentAllowance */\n      dup5\n        /* \"@openzeppelin/contracts/token/ERC20/ERC20.sol\":11539:11564  currentAllowance - amount */\n      sub\n        /* \"@openzeppelin/contracts/token/ERC20/ERC20.sol\":11514:11522  _approve */\n      tag_181\n        /* \"@openzeppelin/contracts/token/ERC20/ERC20.sol\":11514:11565  _approve(owner, spender, currentAllowance - amount) */\n      jump\t// in\n    tag_309:\n        /* \"@openzeppelin/contracts/token/ERC20/ERC20.sol\":11275:11596  {... */\n      pop\n        /* \"@openzeppelin/contracts/token/ERC20/ERC20.sol\":11155:11596  function _spendAllowance(... */\n      pop\n      pop\n      pop\n      jump\t// out\n        /* \"@openzeppelin/contracts/token/ERC20/ERC20.sol\":7473:8291  function _transfer(... */\n    tag_191:\n      sub(shl(0xa0, 0x01), 0x01)\n        /* \"@openzeppelin/contracts/token/ERC20/ERC20.sol\":7599:7617  from != address(0) */\n      dup4\n      and\n        /* \"@openzeppelin/contracts/token/ERC20/ERC20.sol\":7591:7659  require(from != address(0), \"ERC20: transfer from the zero address\") */\n      tag_311\n      jumpi\n      mload(0x40)\n      shl(0xe5, 0x461bcd)\n      dup2\n      mstore\n        /* \"#utility.yul\":7673:7675   */\n      0x20\n        /* \"@openzeppelin/contracts/token/ERC20/ERC20.sol\":7591:7659  require(from != address(0), \"ERC20: transfer from the zero address\") */\n      0x04\n      dup3\n      add\n        /* \"#utility.yul\":7655:7676   */\n      mstore\n        /* \"#utility.yul\":7712:7714   */\n      0x25\n        /* \"#utility.yul\":7692:7710   */\n      0x24\n      dup3\n      add\n        /* \"#utility.yul\":7685:7715   */\n      mstore\n        /* \"#utility.yul\":7751:7785   */\n      0x45524332303a207472616e736665722066726f6d20746865207a65726f206164\n        /* \"#utility.yul\":7731:7749   */\n      0x44\n      dup3\n      add\n        /* \"#utility.yul\":7724:7786   */\n      mstore\n      shl(0xd8, 0x6472657373)\n        /* \"#utility.yul\":7802:7820   */\n      0x64\n      dup3\n      add\n        /* \"#utility.yul\":7795:7830   */\n      mstore\n        /* \"#utility.yul\":7847:7866   */\n      0x84\n      add\n        /* \"@openzeppelin/contracts/token/ERC20/ERC20.sol\":7591:7659  require(from != address(0), \"ERC20: transfer from the zero address\") */\n      tag_210\n        /* \"#utility.yul\":7471:7872   */\n      jump\n        /* \"@openzeppelin/contracts/token/ERC20/ERC20.sol\":7591:7659  require(from != address(0), \"ERC20: transfer from the zero address\") */\n    tag_311:\n      sub(shl(0xa0, 0x01), 0x01)\n        /* \"@openzeppelin/contracts/token/ERC20/ERC20.sol\":7677:7693  to != address(0) */\n      dup3\n      and\n        /* \"@openzeppelin/contracts/token/ERC20/ERC20.sol\":7669:7733  require(to != address(0), \"ERC20: transfer to the zero address\") */\n      tag_314\n      jumpi\n      mload(0x40)\n      shl(0xe5, 0x461bcd)\n      dup2\n      mstore\n        /* \"#utility.yul\":8079:8081   */\n      0x20\n        /* \"@openzeppelin/contracts/token/ERC20/ERC20.sol\":7669:7733  require(to != address(0), \"ERC20: transfer to the zero address\") */\n      0x04\n      dup3\n      add\n        /* \"#utility.yul\":8061:8082   */\n      mstore\n        /* \"#utility.yul\":8118:8120   */\n      0x23\n        /* \"#utility.yul\":8098:8116   */\n      0x24\n      dup3\n      add\n        /* \"#utility.yul\":8091:8121   */\n      mstore\n        /* \"#utility.yul\":8157:8191   */\n      0x45524332303a207472616e7366657220746f20746865207a65726f2061646472\n        /* \"#utility.yul\":8137:8155   */\n      0x44\n      dup3\n      add\n        /* \"#utility.yul\":8130:8192   */\n      mstore\n      shl(0xe8, 0x657373)\n        /* \"#utility.yul\":8208:8226   */\n      0x64\n      dup3\n      add\n        /* \"#utility.yul\":8201:8234   */\n      mstore\n        /* \"#utility.yul\":8251:8270   */\n      0x84\n      add\n        /* \"@openzeppelin/contracts/token/ERC20/ERC20.sol\":7669:7733  require(to != address(0), \"ERC20: transfer to the zero address\") */\n      tag_210\n        /* \"#utility.yul\":7877:8276   */\n      jump\n        /* \"@openzeppelin/contracts/token/ERC20/ERC20.sol\":7669:7733  require(to != address(0), \"ERC20: transfer to the zero address\") */\n    tag_314:\n      sub(shl(0xa0, 0x01), 0x01)\n        /* \"@openzeppelin/contracts/token/ERC20/ERC20.sol\":7815:7830  _balances[from] */\n      dup4\n      and\n        /* \"@openzeppelin/contracts/token/ERC20/ERC20.sol\":7793:7812  uint256 fromBalance */\n      0x00\n        /* \"@openzeppelin/contracts/token/ERC20/ERC20.sol\":7815:7830  _balances[from] */\n      swap1\n      dup2\n      mstore\n      0x20\n      dup2\n      swap1\n      mstore\n      0x40\n      swap1\n      keccak256\n      sload\n        /* \"@openzeppelin/contracts/token/ERC20/ERC20.sol\":7848:7869  fromBalance >= amount */\n      dup2\n      dup2\n      lt\n      iszero\n        /* \"@openzeppelin/contracts/token/ERC20/ERC20.sol\":7840:7912  require(fromBalance >= amount, \"ERC20: transfer amount exceeds balance\") */\n      tag_319\n      jumpi\n      mload(0x40)\n      shl(0xe5, 0x461bcd)\n      dup2\n      mstore\n        /* \"#utility.yul\":8483:8485   */\n      0x20\n        /* \"@openzeppelin/contracts/token/ERC20/ERC20.sol\":7840:7912  require(fromBalance >= amount, \"ERC20: transfer amount exceeds balance\") */\n      0x04\n      dup3\n      add\n        /* \"#utility.yul\":8465:8486   */\n      mstore\n        /* \"#utility.yul\":8522:8524   */\n      0x26\n        /* \"#utility.yul\":8502:8520   */\n      0x24\n      dup3\n      add\n        /* \"#utility.yul\":8495:8525   */\n      mstore\n        /* \"#utility.yul\":8561:8595   */\n      0x45524332303a207472616e7366657220616d6f756e7420657863656564732062\n        /* \"#utility.yul\":8541:8559   */\n      0x44\n      dup3\n      add\n        /* \"#utility.yul\":8534:8596   */\n      mstore\n      shl(0xd0, 0x616c616e6365)\n        /* \"#utility.yul\":8612:8630   */\n      0x64\n      dup3\n      add\n        /* \"#utility.yul\":8605:8641   */\n      mstore\n        /* \"#utility.yul\":8658:8677   */\n      0x84\n      add\n        /* \"@openzeppelin/contracts/token/ERC20/ERC20.sol\":7840:7912  require(fromBalance >= amount, \"ERC20: transfer amount exceeds balance\") */\n      tag_210\n        /* \"#utility.yul\":8281:8683   */\n      jump\n        /* \"@openzeppelin/contracts/token/ERC20/ERC20.sol\":7840:7912  require(fromBalance >= amount, \"ERC20: transfer amount exceeds balance\") */\n    tag_319:\n      sub(shl(0xa0, 0x01), 0x01)\n        /* \"@openzeppelin/contracts/token/ERC20/ERC20.sol\":7946:7961  _balances[from] */\n      dup5\n      dup2\n      and\n        /* \"@openzeppelin/contracts/token/ERC20/ERC20.sol\":7946:7955  _balances */\n      0x00\n        /* \"@openzeppelin/contracts/token/ERC20/ERC20.sol\":7946:7961  _balances[from] */\n      dup2\n      dup2\n      mstore\n      0x20\n      dup2\n      dup2\n      mstore\n      0x40\n      dup1\n      dup4\n      keccak256\n        /* \"@openzeppelin/contracts/token/ERC20/ERC20.sol\":7964:7984  fromBalance - amount */\n      dup8\n      dup8\n      sub\n        /* \"@openzeppelin/contracts/token/ERC20/ERC20.sol\":7946:7984  _balances[from] = fromBalance - amount */\n      swap1\n      sstore\n        /* \"@openzeppelin/contracts/token/ERC20/ERC20.sol\":8161:8174  _balances[to] */\n      swap4\n      dup8\n      and\n      dup1\n      dup4\n      mstore\n      swap2\n      dup5\n      swap1\n      keccak256\n        /* \"@openzeppelin/contracts/token/ERC20/ERC20.sol\":8161:8184  _balances[to] += amount */\n      dup1\n      sload\n      dup8\n      add\n      swap1\n      sstore\n        /* \"@openzeppelin/contracts/token/ERC20/ERC20.sol\":8210:8236  Transfer(from, to, amount) */\n      swap3\n      mload\n        /* \"#utility.yul\":160:185   */\n      dup6\n      dup2\n      mstore\n        /* \"@openzeppelin/contracts/token/ERC20/ERC20.sol\":8161:8174  _balances[to] */\n      swap1\n      swap3\n        /* \"@openzeppelin/contracts/token/ERC20/ERC20.sol\":8210:8236  Transfer(from, to, amount) */\n      0xddf252ad1be2c89b69c2b068fc378daa952ba7f163c4a11628f55a4df523b3ef\n      swap2\n        /* \"#utility.yul\":133:151   */\n      add\n        /* \"@openzeppelin/contracts/token/ERC20/ERC20.sol\":8210:8236  Transfer(from, to, amount) */\n      mload(0x40)\n      dup1\n      swap2\n      sub\n      swap1\n      log3\n        /* \"@openzeppelin/contracts/token/ERC20/ERC20.sol\":8247:8284  _afterTokenTransfer(from, to, amount) */\n      tag_309\n        /* \"@openzeppelin/contracts/token/ERC20/ERC20.sol\":12180:12301  function _beforeTokenTransfer(... */\n      jump\n        /* \"@openzeppelin/contracts/token/ERC20/extensions/ERC4626.sol\":11346:11471  function _isVaultCollateralized() private view returns (bool) {... */\n    tag_202:\n        /* \"@openzeppelin/contracts/token/ERC20/extensions/ERC4626.sol\":11402:11406  bool */\n      0x00\n        /* \"@openzeppelin/contracts/token/ERC20/extensions/ERC4626.sol\":11441:11442  0 */\n      dup1\n        /* \"@openzeppelin/contracts/token/ERC20/extensions/ERC4626.sol\":11425:11438  totalAssets() */\n      tag_326\n        /* \"@openzeppelin/contracts/token/ERC20/extensions/ERC4626.sol\":11425:11436  totalAssets */\n      tag_40\n        /* \"@openzeppelin/contracts/token/ERC20/extensions/ERC4626.sol\":11425:11438  totalAssets() */\n      jump\t// in\n    tag_326:\n        /* \"@openzeppelin/contracts/token/ERC20/extensions/ERC4626.sol\":11425:11442  totalAssets() > 0 */\n      gt\n        /* \"@openzeppelin/contracts/token/ERC20/extensions/ERC4626.sol\":11425:11464  totalAssets() > 0 || totalSupply() == 0 */\n      dup1\n      tag_165\n      jumpi\n      pop\n      pop\n        /* \"@openzeppelin/contracts/token/ERC20/ERC20.sol\":3329:3341  _totalSupply */\n      sload(0x02)\n        /* \"@openzeppelin/contracts/token/ERC20/extensions/ERC4626.sol\":11446:11464  totalSupply() == 0 */\n      iszero\n      swap1\n        /* \"@openzeppelin/contracts/token/ERC20/extensions/ERC4626.sol\":11346:11471  function _isVaultCollateralized() private view returns (bool) {... */\n      jump\t// out\n        /* \"@openzeppelin/contracts/token/ERC20/extensions/ERC4626.sol\":9371:10240  function _deposit(... */\n    tag_215:\n        /* \"@openzeppelin/contracts/token/ERC20/extensions/ERC4626.sol\":10078:10143  SafeERC20.safeTransferFrom(_asset, caller, address(this), assets) */\n      tag_330\n        /* \"@openzeppelin/contracts/token/ERC20/extensions/ERC4626.sol\":10105:10111  _asset */\n      immutable(\"0x5002dac29dd1f5eca27c266c7f22886fef1ca01133bd005217e0a31b1b246599\")\n        /* \"@openzeppelin/contracts/token/ERC20/extensions/ERC4626.sol\":10113:10119  caller */\n      dup6\n        /* \"@openzeppelin/contracts/token/ERC20/extensions/ERC4626.sol\":10129:10133  this */\n      address\n        /* \"@openzeppelin/contracts/token/ERC20/extensions/ERC4626.sol\":10136:10142  assets */\n      dup6\n        /* \"@openzeppelin/contracts/token/ERC20/extensions/ERC4626.sol\":10078:10104  SafeERC20.safeTransferFrom */\n      tag_331\n        /* \"@openzeppelin/contracts/token/ERC20/extensions/ERC4626.sol\":10078:10143  SafeERC20.safeTransferFrom(_asset, caller, address(this), assets) */\n      jump\t// in\n    tag_330:\n        /* \"@openzeppelin/contracts/token/ERC20/extensions/ERC4626.sol\":10153:10176  _mint(receiver, shares) */\n      tag_332\n        /* \"@openzeppelin/contracts/token/ERC20/extensions/ERC4626.sol\":10159:10167  receiver */\n      dup4\n        /* \"@openzeppelin/contracts/token/ERC20/extensions/ERC4626.sol\":10169:10175  shares */\n      dup3\n        /* \"@openzeppelin/contracts/token/ERC20/extensions/ERC4626.sol\":10153:10158  _mint */\n      tag_234\n        /* \"@openzeppelin/contracts/token/ERC20/extensions/ERC4626.sol\":10153:10176  _mint(receiver, shares) */\n      jump\t// in\n    tag_332:\n        /* \"@openzeppelin/contracts/token/ERC20/extensions/ERC4626.sol\":10208:10216  receiver */\n      dup3\n      sub(shl(0xa0, 0x01), 0x01)\n        /* \"@openzeppelin/contracts/token/ERC20/extensions/ERC4626.sol\":10192:10233  Deposit(caller, receiver, assets, shares) */\n      and\n        /* \"@openzeppelin/contracts/token/ERC20/extensions/ERC4626.sol\":10200:10206  caller */\n      dup5\n      sub(shl(0xa0, 0x01), 0x01)\n        /* \"@openzeppelin/contracts/token/ERC20/extensions/ERC4626.sol\":10192:10233  Deposit(caller, receiver, assets, shares) */\n      and\n      0xdcbc1c05240f31ff3ad067ef1ee35ce4997762752e3a095284754544f4c709d7\n        /* \"@openzeppelin/contracts/token/ERC20/extensions/ERC4626.sol\":10218:10224  assets */\n      dup5\n        /* \"@openzeppelin/contracts/token/ERC20/extensions/ERC4626.sol\":10226:10232  shares */\n      dup5\n        /* \"@openzeppelin/contracts/token/ERC20/extensions/ERC4626.sol\":10192:10233  Deposit(caller, receiver, assets, shares) */\n      mload(0x40)\n      tag_333\n      swap3\n      swap2\n      swap1\n        /* \"#utility.yul\":8862:8887   */\n      swap2\n      dup3\n      mstore\n        /* \"#utility.yul\":8918:8920   */\n      0x20\n        /* \"#utility.yul\":8903:8921   */\n      dup3\n      add\n        /* \"#utility.yul\":8896:8930   */\n      mstore\n        /* \"#utility.yul\":8850:8852   */\n      0x40\n        /* \"#utility.yul\":8835:8853   */\n      add\n      swap1\n        /* \"#utility.yul\":8688:8936   */\n      jump\n        /* \"@openzeppelin/contracts/token/ERC20/extensions/ERC4626.sol\":10192:10233  Deposit(caller, receiver, assets, shares) */\n    tag_333:\n      mload(0x40)\n      dup1\n      swap2\n      sub\n      swap1\n      log3\n        /* \"@openzeppelin/contracts/token/ERC20/extensions/ERC4626.sol\":9371:10240  function _deposit(... */\n      pop\n      pop\n      pop\n      pop\n      jump\t// out\n        /* \"@openzeppelin/contracts/token/ERC20/ERC20.sol\":8567:9102  function _mint(address account, uint256 amount) internal virtual {... */\n    tag_234:\n      sub(shl(0xa0, 0x01), 0x01)\n        /* \"@openzeppelin/contracts/token/ERC20/ERC20.sol\":8650:8671  account != address(0) */\n      dup3\n      and\n        /* \"@openzeppelin/contracts/token/ERC20/ERC20.sol\":8642:8707  require(account != address(0), \"ERC20: mint to the zero address\") */\n      tag_336\n      jumpi\n      mload(0x40)\n      shl(0xe5, 0x461bcd)\n      dup2\n      mstore\n        /* \"#utility.yul\":9143:9145   */\n      0x20\n        /* \"@openzeppelin/contracts/token/ERC20/ERC20.sol\":8642:8707  require(account != address(0), \"ERC20: mint to the zero address\") */\n      0x04\n      dup3\n      add\n        /* \"#utility.yul\":9125:9146   */\n      mstore\n        /* \"#utility.yul\":9182:9184   */\n      0x1f\n        /* \"#utility.yul\":9162:9180   */\n      0x24\n      dup3\n      add\n        /* \"#utility.yul\":9155:9185   */\n      mstore\n        /* \"#utility.yul\":9221:9254   */\n      0x45524332303a206d696e7420746f20746865207a65726f206164647265737300\n        /* \"#utility.yul\":9201:9219   */\n      0x44\n      dup3\n      add\n        /* \"#utility.yul\":9194:9255   */\n      mstore\n        /* \"#utility.yul\":9272:9290   */\n      0x64\n      add\n        /* \"@openzeppelin/contracts/token/ERC20/ERC20.sol\":8642:8707  require(account != address(0), \"ERC20: mint to the zero address\") */\n      tag_210\n        /* \"#utility.yul\":8941:9296   */\n      jump\n        /* \"@openzeppelin/contracts/token/ERC20/ERC20.sol\":8642:8707  require(account != address(0), \"ERC20: mint to the zero address\") */\n    tag_336:\n        /* \"@openzeppelin/contracts/token/ERC20/ERC20.sol\":8794:8800  amount */\n      dup1\n        /* \"@openzeppelin/contracts/token/ERC20/ERC20.sol\":8778:8790  _totalSupply */\n      0x02\n      0x00\n        /* \"@openzeppelin/contracts/token/ERC20/ERC20.sol\":8778:8800  _totalSupply += amount */\n      dup3\n      dup3\n      sload\n      tag_340\n      swap2\n      swap1\n      tag_199\n      jump\t// in\n    tag_340:\n      swap1\n      swap2\n      sstore\n      pop\n      pop\n      sub(shl(0xa0, 0x01), 0x01)\n        /* \"@openzeppelin/contracts/token/ERC20/ERC20.sol\":8946:8964  _balances[account] */\n      dup3\n      and\n        /* \"@openzeppelin/contracts/token/ERC20/ERC20.sol\":8946:8955  _balances */\n      0x00\n        /* \"@openzeppelin/contracts/token/ERC20/ERC20.sol\":8946:8964  _balances[account] */\n      dup2\n      dup2\n      mstore\n      0x20\n      dup2\n      dup2\n      mstore\n      0x40\n      dup1\n      dup4\n      keccak256\n        /* \"@openzeppelin/contracts/token/ERC20/ERC20.sol\":8946:8974  _balances[account] += amount */\n      dup1\n      sload\n      dup7\n      add\n      swap1\n      sstore\n        /* \"@openzeppelin/contracts/token/ERC20/ERC20.sol\":8999:9036  Transfer(address(0), account, amount) */\n      mload\n        /* \"#utility.yul\":160:185   */\n      dup5\n      dup2\n      mstore\n        /* \"@openzeppelin/contracts/token/ERC20/ERC20.sol\":8999:9036  Transfer(address(0), account, amount) */\n      0xddf252ad1be2c89b69c2b068fc378daa952ba7f163c4a11628f55a4df523b3ef\n      swap2\n        /* \"#utility.yul\":133:151   */\n      add\n        /* \"@openzeppelin/contracts/token/ERC20/ERC20.sol\":8999:9036  Transfer(address(0), account, amount) */\n      mload(0x40)\n      dup1\n      swap2\n      sub\n      swap1\n      log3\n        /* \"@openzeppelin/contracts/token/ERC20/ERC20.sol\":8567:9102  function _mint(address account, uint256 amount) internal virtual {... */\n      pop\n      pop\n      jump\t// out\n        /* \"@openzeppelin/contracts/token/ERC20/extensions/ERC4626.sol\":10307:11221  function _withdraw(... */\n    tag_255:\n        /* \"@openzeppelin/contracts/token/ERC20/extensions/ERC4626.sol\":10494:10499  owner */\n      dup3\n      sub(shl(0xa0, 0x01), 0x01)\n        /* \"@openzeppelin/contracts/token/ERC20/extensions/ERC4626.sol\":10484:10499  caller != owner */\n      and\n        /* \"@openzeppelin/contracts/token/ERC20/extensions/ERC4626.sol\":10484:10490  caller */\n      dup6\n      sub(shl(0xa0, 0x01), 0x01)\n        /* \"@openzeppelin/contracts/token/ERC20/extensions/ERC4626.sol\":10484:10499  caller != owner */\n      and\n      eq\n        /* \"@openzeppelin/contracts/token/ERC20/extensions/ERC4626.sol\":10480:10564  if (caller != owner) {... */\n      tag_345\n      jumpi\n        /* \"@openzeppelin/contracts/token/ERC20/extensions/ERC4626.sol\":10515:10553  _spendAllowance(owner, caller, shares) */\n      tag_345\n        /* \"@openzeppelin/contracts/token/ERC20/extensions/ERC4626.sol\":10531:10536  owner */\n      dup4\n        /* \"@openzeppelin/contracts/token/ERC20/extensions/ERC4626.sol\":10538:10544  caller */\n      dup7\n        /* \"@openzeppelin/contracts/token/ERC20/extensions/ERC4626.sol\":10546:10552  shares */\n      dup4\n        /* \"@openzeppelin/contracts/token/ERC20/extensions/ERC4626.sol\":10515:10530  _spendAllowance */\n      tag_189\n        /* \"@openzeppelin/contracts/token/ERC20/extensions/ERC4626.sol\":10515:10553  _spendAllowance(owner, caller, shares) */\n      jump\t// in\n    tag_345:\n        /* \"@openzeppelin/contracts/token/ERC20/extensions/ERC4626.sol\":11071:11091  _burn(owner, shares) */\n      tag_346\n        /* \"@openzeppelin/contracts/token/ERC20/extensions/ERC4626.sol\":11077:11082  owner */\n      dup4\n        /* \"@openzeppelin/contracts/token/ERC20/extensions/ERC4626.sol\":11084:11090  shares */\n      dup3\n        /* \"@openzeppelin/contracts/token/ERC20/extensions/ERC4626.sol\":11071:11076  _burn */\n      tag_347\n        /* \"@openzeppelin/contracts/token/ERC20/extensions/ERC4626.sol\":11071:11091  _burn(owner, shares) */\n      jump\t// in\n    tag_346:\n        /* \"@openzeppelin/contracts/token/ERC20/extensions/ERC4626.sol\":11101:11149  SafeERC20.safeTransfer(_asset, receiver, assets) */\n      tag_348\n        /* \"@openzeppelin/contracts/token/ERC20/extensions/ERC4626.sol\":11124:11130  _asset */\n      immutable(\"0x5002dac29dd1f5eca27c266c7f22886fef1ca01133bd005217e0a31b1b246599\")\n        /* \"@openzeppelin/contracts/token/ERC20/extensions/ERC4626.sol\":11132:11140  receiver */\n      dup6\n        /* \"@openzeppelin/contracts/token/ERC20/extensions/ERC4626.sol\":11142:11148  assets */\n      dup5\n        /* \"@openzeppelin/contracts/token/ERC20/extensions/ERC4626.sol\":11101:11123  SafeERC20.safeTransfer */\n      tag_349\n        /* \"@openzeppelin/contracts/token/ERC20/extensions/ERC4626.sol\":11101:11149  SafeERC20.safeTransfer(_asset, receiver, assets) */\n      jump\t// in\n    tag_348:\n        /* \"@openzeppelin/contracts/token/ERC20/extensions/ERC4626.sol\":11192:11197  owner */\n      dup3\n      sub(shl(0xa0, 0x01), 0x01)\n        /* \"@openzeppelin/contracts/token/ERC20/extensions/ERC4626.sol\":11165:11214  Withdraw(caller, receiver, owner, assets, shares) */\n      and\n        /* \"@openzeppelin/contracts/token/ERC20/extensions/ERC4626.sol\":11182:11190  receiver */\n      dup5\n      sub(shl(0xa0, 0x01), 0x01)\n        /* \"@openzeppelin/contracts/token/ERC20/extensions/ERC4626.sol\":11165:11214  Withdraw(caller, receiver, owner, assets, shares) */\n      and\n        /* \"@openzeppelin/contracts/token/ERC20/extensions/ERC4626.sol\":11174:11180  caller */\n      dup7\n      sub(shl(0xa0, 0x01), 0x01)\n        /* \"@openzeppelin/contracts/token/ERC20/extensions/ERC4626.sol\":11165:11214  Withdraw(caller, receiver, owner, assets, shares) */\n      and\n      0xfbde797d201c681b91056529119e0b02407c7bb96a4a2c75c01fc9667232c8db\n        /* \"@openzeppelin/contracts/token/ERC20/extensions/ERC4626.sol\":11199:11205  assets */\n      dup6\n        /* \"@openzeppelin/contracts/token/ERC20/extensions/ERC4626.sol\":11207:11213  shares */\n      dup6\n        /* \"@openzeppelin/contracts/token/ERC20/extensions/ERC4626.sol\":11165:11214  Withdraw(caller, receiver, owner, assets, shares) */\n      mload(0x40)\n      tag_350\n      swap3\n      swap2\n      swap1\n        /* \"#utility.yul\":8862:8887   */\n      swap2\n      dup3\n      mstore\n        /* \"#utility.yul\":8918:8920   */\n      0x20\n        /* \"#utility.yul\":8903:8921   */\n      dup3\n      add\n        /* \"#utility.yul\":8896:8930   */\n      mstore\n        /* \"#utility.yul\":8850:8852   */\n      0x40\n        /* \"#utility.yul\":8835:8853   */\n      add\n      swap1\n        /* \"#utility.yul\":8688:8936   */\n      jump\n        /* \"@openzeppelin/contracts/token/ERC20/extensions/ERC4626.sol\":11165:11214  Withdraw(caller, receiver, owner, assets, shares) */\n    tag_350:\n      mload(0x40)\n      dup1\n      swap2\n      sub\n      swap1\n      log4\n        /* \"@openzeppelin/contracts/token/ERC20/extensions/ERC4626.sol\":10307:11221  function _withdraw(... */\n      pop\n      pop\n      pop\n      pop\n      pop\n      jump\t// out\n        /* \"@openzeppelin/contracts/utils/math/Math.sol\":5724:6061  function mulDiv(... */\n    tag_281:\n        /* \"@openzeppelin/contracts/utils/math/Math.sol\":5863:5870  uint256 */\n      0x00\n        /* \"@openzeppelin/contracts/utils/math/Math.sol\":5882:5896  uint256 result */\n      dup1\n        /* \"@openzeppelin/contracts/utils/math/Math.sol\":5899:5924  mulDiv(x, y, denominator) */\n      tag_352\n        /* \"@openzeppelin/contracts/utils/math/Math.sol\":5906:5907  x */\n      dup7\n        /* \"@openzeppelin/contracts/utils/math/Math.sol\":5909:5910  y */\n      dup7\n        /* \"@openzeppelin/contracts/utils/math/Math.sol\":5912:5923  denominator */\n      dup7\n        /* \"@openzeppelin/contracts/utils/math/Math.sol\":5899:5905  mulDiv */\n      tag_353\n        /* \"@openzeppelin/contracts/utils/math/Math.sol\":5899:5924  mulDiv(x, y, denominator) */\n      jump\t// in\n    tag_352:\n        /* \"@openzeppelin/contracts/utils/math/Math.sol\":5882:5924  uint256 result = mulDiv(x, y, denominator) */\n      swap1\n      pop\n        /* \"@openzeppelin/contracts/utils/math/Math.sol\":5950:5961  Rounding.Up */\n      0x01\n        /* \"@openzeppelin/contracts/utils/math/Math.sol\":5938:5946  rounding */\n      dup4\n        /* \"@openzeppelin/contracts/utils/math/Math.sol\":5938:5961  rounding == Rounding.Up */\n      0x02\n      dup2\n      gt\n      iszero\n      tag_358\n      jumpi\n      tag_358\n      tag_356\n      jump\t// in\n    tag_358:\n      eq\n        /* \"@openzeppelin/contracts/utils/math/Math.sol\":5938:5994  rounding == Rounding.Up && mulmod(x, y, denominator) > 0 */\n      dup1\n      iszero\n      tag_359\n      jumpi\n      pop\n        /* \"@openzeppelin/contracts/utils/math/Math.sol\":5993:5994  0 */\n      0x00\n        /* \"@openzeppelin/contracts/utils/math/Math.sol\":5978:5989  denominator */\n      dup5\n        /* \"@openzeppelin/contracts/utils/math/Math.sol\":5965:5990  mulmod(x, y, denominator) */\n      dup1\n      tag_361\n      jumpi\n      tag_361\n      tag_362\n      jump\t// in\n    tag_361:\n        /* \"@openzeppelin/contracts/utils/math/Math.sol\":5975:5976  y */\n      dup7\n        /* \"@openzeppelin/contracts/utils/math/Math.sol\":5972:5973  x */\n      dup9\n        /* \"@openzeppelin/contracts/utils/math/Math.sol\":5965:5990  mulmod(x, y, denominator) */\n      mulmod\n        /* \"@openzeppelin/contracts/utils/math/Math.sol\":5965:5994  mulmod(x, y, denominator) > 0 */\n      gt\n        /* \"@openzeppelin/contracts/utils/math/Math.sol\":5938:5994  rounding == Rounding.Up && mulmod(x, y, denominator) > 0 */\n    tag_359:\n        /* \"@openzeppelin/contracts/utils/math/Math.sol\":5934:6032  if (rounding == Rounding.Up && mulmod(x, y, denominator) > 0) {... */\n      iszero\n      tag_363\n      jumpi\n        /* \"@openzeppelin/contracts/utils/math/Math.sol\":6010:6021  result += 1 */\n      tag_364\n        /* \"@openzeppelin/contracts/utils/math/Math.sol\":6020:6021  1 */\n      0x01\n        /* \"@openzeppelin/contracts/utils/math/Math.sol\":6010:6021  result += 1 */\n      dup3\n      tag_199\n      jump\t// in\n    tag_364:\n      swap1\n      pop\n        /* \"@openzeppelin/contracts/utils/math/Math.sol\":5934:6032  if (rounding == Rounding.Up && mulmod(x, y, denominator) > 0) {... */\n    tag_363:\n        /* \"@openzeppelin/contracts/utils/math/Math.sol\":6048:6054  result */\n      swap6\n        /* \"@openzeppelin/contracts/utils/math/Math.sol\":5724:6061  function mulDiv(... */\n      swap5\n      pop\n      pop\n      pop\n      pop\n      pop\n      jump\t// out\n        /* \"@openzeppelin/contracts/token/ERC20/ERC20.sol\":12180:12301  function _beforeTokenTransfer(... */\n    tag_318:\n      pop\n      pop\n      pop\n      jump\t// out\n        /* \"@openzeppelin/contracts/token/ERC20/utils/SafeERC20.sol\":974:1215  function safeTransferFrom(... */\n    tag_331:\n        /* \"@openzeppelin/contracts/token/ERC20/utils/SafeERC20.sol\":1139:1207  abi.encodeWithSelector(token.transferFrom.selector, from, to, value) */\n      mload(0x40)\n      sub(shl(0xa0, 0x01), 0x01)\n        /* \"#utility.yul\":9823:9838   */\n      dup1\n      dup6\n      and\n        /* \"@openzeppelin/contracts/token/ERC20/utils/SafeERC20.sol\":1139:1207  abi.encodeWithSelector(token.transferFrom.selector, from, to, value) */\n      0x24\n      dup4\n      add\n        /* \"#utility.yul\":9805:9839   */\n      mstore\n        /* \"#utility.yul\":9875:9890   */\n      dup4\n      and\n        /* \"#utility.yul\":9855:9873   */\n      0x44\n      dup3\n      add\n        /* \"#utility.yul\":9848:9891   */\n      mstore\n        /* \"#utility.yul\":9907:9925   */\n      0x64\n      dup2\n      add\n        /* \"#utility.yul\":9900:9934   */\n      dup3\n      swap1\n      mstore\n        /* \"@openzeppelin/contracts/token/ERC20/utils/SafeERC20.sol\":1112:1208  _callOptionalReturn(token, abi.encodeWithSelector(token.transferFrom.selector, from, to, value)) */\n      tag_309\n      swap1\n        /* \"@openzeppelin/contracts/token/ERC20/utils/SafeERC20.sol\":1132:1137  token */\n      dup6\n      swap1\n      shl(0xe0, 0x23b872dd)\n        /* \"@openzeppelin/contracts/token/ERC20/utils/SafeERC20.sol\":1162:1189  token.transferFrom.selector */\n      swap1\n        /* \"#utility.yul\":9740:9758   */\n      0x84\n      add\n        /* \"@openzeppelin/contracts/token/ERC20/utils/SafeERC20.sol\":1139:1207  abi.encodeWithSelector(token.transferFrom.selector, from, to, value) */\n    tag_371:\n      0x40\n      dup1\n      mload\n      not(0x1f)\n      dup2\n      dup5\n      sub\n      add\n      dup2\n      mstore\n      swap2\n      swap1\n      mstore\n      0x20\n      dup2\n      add\n      dup1\n      mload\n      sub(shl(0xe0, 0x01), 0x01)\n      and\n      not(sub(shl(0xe0, 0x01), 0x01))\n      swap1\n      swap4\n      and\n      swap3\n      swap1\n      swap3\n      or\n      swap1\n      swap2\n      mstore\n        /* \"@openzeppelin/contracts/token/ERC20/utils/SafeERC20.sol\":1112:1131  _callOptionalReturn */\n      tag_373\n        /* \"@openzeppelin/contracts/token/ERC20/utils/SafeERC20.sol\":1112:1208  _callOptionalReturn(token, abi.encodeWithSelector(token.transferFrom.selector, from, to, value)) */\n      jump\t// in\n        /* \"@openzeppelin/contracts/token/ERC20/ERC20.sol\":9422:10081  function _burn(address account, uint256 amount) internal virtual {... */\n    tag_347:\n      sub(shl(0xa0, 0x01), 0x01)\n        /* \"@openzeppelin/contracts/token/ERC20/ERC20.sol\":9505:9526  account != address(0) */\n      dup3\n      and\n        /* \"@openzeppelin/contracts/token/ERC20/ERC20.sol\":9497:9564  require(account != address(0), \"ERC20: burn from the zero address\") */\n      tag_375\n      jumpi\n      mload(0x40)\n      shl(0xe5, 0x461bcd)\n      dup2\n      mstore\n        /* \"#utility.yul\":10147:10149   */\n      0x20\n        /* \"@openzeppelin/contracts/token/ERC20/ERC20.sol\":9497:9564  require(account != address(0), \"ERC20: burn from the zero address\") */\n      0x04\n      dup3\n      add\n        /* \"#utility.yul\":10129:10150   */\n      mstore\n        /* \"#utility.yul\":10186:10188   */\n      0x21\n        /* \"#utility.yul\":10166:10184   */\n      0x24\n      dup3\n      add\n        /* \"#utility.yul\":10159:10189   */\n      mstore\n        /* \"#utility.yul\":10225:10259   */\n      0x45524332303a206275726e2066726f6d20746865207a65726f20616464726573\n        /* \"#utility.yul\":10205:10223   */\n      0x44\n      dup3\n      add\n        /* \"#utility.yul\":10198:10260   */\n      mstore\n      shl(0xf8, 0x73)\n        /* \"#utility.yul\":10276:10294   */\n      0x64\n      dup3\n      add\n        /* \"#utility.yul\":10269:10300   */\n      mstore\n        /* \"#utility.yul\":10317:10336   */\n      0x84\n      add\n        /* \"@openzeppelin/contracts/token/ERC20/ERC20.sol\":9497:9564  require(account != address(0), \"ERC20: burn from the zero address\") */\n      tag_210\n        /* \"#utility.yul\":9945:10342   */\n      jump\n        /* \"@openzeppelin/contracts/token/ERC20/ERC20.sol\":9497:9564  require(account != address(0), \"ERC20: burn from the zero address\") */\n    tag_375:\n      sub(shl(0xa0, 0x01), 0x01)\n        /* \"@openzeppelin/contracts/token/ERC20/ERC20.sol\":9660:9678  _balances[account] */\n      dup3\n      and\n        /* \"@openzeppelin/contracts/token/ERC20/ERC20.sol\":9635:9657  uint256 accountBalance */\n      0x00\n        /* \"@openzeppelin/contracts/token/ERC20/ERC20.sol\":9660:9678  _balances[account] */\n      swap1\n      dup2\n      mstore\n      0x20\n      dup2\n      swap1\n      mstore\n      0x40\n      swap1\n      keccak256\n      sload\n        /* \"@openzeppelin/contracts/token/ERC20/ERC20.sol\":9696:9720  accountBalance >= amount */\n      dup2\n      dup2\n      lt\n      iszero\n        /* \"@openzeppelin/contracts/token/ERC20/ERC20.sol\":9688:9759  require(accountBalance >= amount, \"ERC20: burn amount exceeds balance\") */\n      tag_379\n      jumpi\n      mload(0x40)\n      shl(0xe5, 0x461bcd)\n      dup2\n      mstore\n        /* \"#utility.yul\":10549:10551   */\n      0x20\n        /* \"@openzeppelin/contracts/token/ERC20/ERC20.sol\":9688:9759  require(accountBalance >= amount, \"ERC20: burn amount exceeds balance\") */\n      0x04\n      dup3\n      add\n        /* \"#utility.yul\":10531:10552   */\n      mstore\n        /* \"#utility.yul\":10588:10590   */\n      0x22\n        /* \"#utility.yul\":10568:10586   */\n      0x24\n      dup3\n      add\n        /* \"#utility.yul\":10561:10591   */\n      mstore\n        /* \"#utility.yul\":10627:10661   */\n      0x45524332303a206275726e20616d6f756e7420657863656564732062616c616e\n        /* \"#utility.yul\":10607:10625   */\n      0x44\n      dup3\n      add\n        /* \"#utility.yul\":10600:10662   */\n      mstore\n      shl(0xf0, 0x6365)\n        /* \"#utility.yul\":10678:10696   */\n      0x64\n      dup3\n      add\n        /* \"#utility.yul\":10671:10703   */\n      mstore\n        /* \"#utility.yul\":10720:10739   */\n      0x84\n      add\n        /* \"@openzeppelin/contracts/token/ERC20/ERC20.sol\":9688:9759  require(accountBalance >= amount, \"ERC20: burn amount exceeds balance\") */\n      tag_210\n        /* \"#utility.yul\":10347:10745   */\n      jump\n        /* \"@openzeppelin/contracts/token/ERC20/ERC20.sol\":9688:9759  require(accountBalance >= amount, \"ERC20: burn amount exceeds balance\") */\n    tag_379:\n      sub(shl(0xa0, 0x01), 0x01)\n        /* \"@openzeppelin/contracts/token/ERC20/ERC20.sol\":9793:9811  _balances[account] */\n      dup4\n      and\n        /* \"@openzeppelin/contracts/token/ERC20/ERC20.sol\":9793:9802  _balances */\n      0x00\n        /* \"@openzeppelin/contracts/token/ERC20/ERC20.sol\":9793:9811  _balances[account] */\n      dup2\n      dup2\n      mstore\n      0x20\n      dup2\n      dup2\n      mstore\n      0x40\n      dup1\n      dup4\n      keccak256\n        /* \"@openzeppelin/contracts/token/ERC20/ERC20.sol\":9814:9837  accountBalance - amount */\n      dup7\n      dup7\n      sub\n        /* \"@openzeppelin/contracts/token/ERC20/ERC20.sol\":9793:9837  _balances[account] = accountBalance - amount */\n      swap1\n      sstore\n        /* \"@openzeppelin/contracts/token/ERC20/ERC20.sol\":9930:9942  _totalSupply */\n      0x02\n        /* \"@openzeppelin/contracts/token/ERC20/ERC20.sol\":9930:9952  _totalSupply -= amount */\n      dup1\n      sload\n      dup8\n      swap1\n      sub\n      swap1\n      sstore\n        /* \"@openzeppelin/contracts/token/ERC20/ERC20.sol\":9978:10015  Transfer(account, address(0), amount) */\n      mload\n        /* \"#utility.yul\":160:185   */\n      dup6\n      dup2\n      mstore\n        /* \"@openzeppelin/contracts/token/ERC20/ERC20.sol\":9793:9802  _balances */\n      swap2\n      swap3\n        /* \"@openzeppelin/contracts/token/ERC20/ERC20.sol\":9793:9811  _balances[account] */\n      swap2\n        /* \"@openzeppelin/contracts/token/ERC20/ERC20.sol\":9978:10015  Transfer(account, address(0), amount) */\n      0xddf252ad1be2c89b69c2b068fc378daa952ba7f163c4a11628f55a4df523b3ef\n      swap2\n        /* \"#utility.yul\":133:151   */\n      add\n        /* \"@openzeppelin/contracts/token/ERC20/ERC20.sol\":9978:10015  Transfer(account, address(0), amount) */\n      mload(0x40)\n      dup1\n      swap2\n      sub\n      swap1\n      log3\n        /* \"@openzeppelin/contracts/token/ERC20/ERC20.sol\":12180:12301  function _beforeTokenTransfer(... */\n      pop\n      pop\n      pop\n      jump\t// out\n        /* \"@openzeppelin/contracts/token/ERC20/utils/SafeERC20.sol\":763:968  function safeTransfer(... */\n    tag_349:\n        /* \"@openzeppelin/contracts/token/ERC20/utils/SafeERC20.sol\":902:960  abi.encodeWithSelector(token.transfer.selector, to, value) */\n      mload(0x40)\n      sub(shl(0xa0, 0x01), 0x01)\n        /* \"#utility.yul\":10942:10974   */\n      dup4\n      and\n        /* \"@openzeppelin/contracts/token/ERC20/utils/SafeERC20.sol\":902:960  abi.encodeWithSelector(token.transfer.selector, to, value) */\n      0x24\n      dup3\n      add\n        /* \"#utility.yul\":10924:10975   */\n      mstore\n        /* \"#utility.yul\":10991:11009   */\n      0x44\n      dup2\n      add\n        /* \"#utility.yul\":10984:11018   */\n      dup3\n      swap1\n      mstore\n        /* \"@openzeppelin/contracts/token/ERC20/utils/SafeERC20.sol\":875:961  _callOptionalReturn(token, abi.encodeWithSelector(token.transfer.selector, to, value)) */\n      tag_318\n      swap1\n        /* \"@openzeppelin/contracts/token/ERC20/utils/SafeERC20.sol\":895:900  token */\n      dup5\n      swap1\n      shl(0xe0, 0xa9059cbb)\n        /* \"@openzeppelin/contracts/token/ERC20/utils/SafeERC20.sol\":925:948  token.transfer.selector */\n      swap1\n        /* \"#utility.yul\":10897:10915   */\n      0x64\n      add\n        /* \"@openzeppelin/contracts/token/ERC20/utils/SafeERC20.sol\":902:960  abi.encodeWithSelector(token.transfer.selector, to, value) */\n      tag_371\n        /* \"#utility.yul\":10750:11024   */\n      jump\n        /* \"@openzeppelin/contracts/utils/math/Math.sol\":1667:5592  function mulDiv(... */\n    tag_353:\n        /* \"@openzeppelin/contracts/utils/math/Math.sol\":1779:1793  uint256 result */\n      0x00\n      dup1\n      dup1\n      not(0x00)\n        /* \"@openzeppelin/contracts/utils/math/Math.sol\":2316:2317  y */\n      dup6\n        /* \"@openzeppelin/contracts/utils/math/Math.sol\":2313:2314  x */\n      dup8\n        /* \"@openzeppelin/contracts/utils/math/Math.sol\":2306:2326  mulmod(x, y, not(0)) */\n      mulmod\n        /* \"@openzeppelin/contracts/utils/math/Math.sol\":2359:2360  y */\n      dup6\n        /* \"@openzeppelin/contracts/utils/math/Math.sol\":2356:2357  x */\n      dup8\n        /* \"@openzeppelin/contracts/utils/math/Math.sol\":2352:2361  mul(x, y) */\n      mul\n        /* \"@openzeppelin/contracts/utils/math/Math.sol\":2343:2361  prod0 := mul(x, y) */\n      swap3\n      pop\n        /* \"@openzeppelin/contracts/utils/math/Math.sol\":2414:2419  prod0 */\n      dup3\n        /* \"@openzeppelin/contracts/utils/math/Math.sol\":2410:2412  mm */\n      dup2\n        /* \"@openzeppelin/contracts/utils/math/Math.sol\":2407:2420  lt(mm, prod0) */\n      lt\n        /* \"@openzeppelin/contracts/utils/math/Math.sol\":2399:2404  prod0 */\n      dup4\n        /* \"@openzeppelin/contracts/utils/math/Math.sol\":2395:2397  mm */\n      dup3\n        /* \"@openzeppelin/contracts/utils/math/Math.sol\":2391:2405  sub(mm, prod0) */\n      sub\n        /* \"@openzeppelin/contracts/utils/math/Math.sol\":2387:2421  sub(sub(mm, prod0), lt(mm, prod0)) */\n      sub\n        /* \"@openzeppelin/contracts/utils/math/Math.sol\":2378:2421  prod1 := sub(sub(mm, prod0), lt(mm, prod0)) */\n      swap2\n      pop\n      pop\n        /* \"@openzeppelin/contracts/utils/math/Math.sol\":2516:2521  prod1 */\n      dup1\n        /* \"@openzeppelin/contracts/utils/math/Math.sol\":2525:2526  0 */\n      0x00\n        /* \"@openzeppelin/contracts/utils/math/Math.sol\":2516:2526  prod1 == 0 */\n      sub\n        /* \"@openzeppelin/contracts/utils/math/Math.sol\":2512:2587  if (prod1 == 0) {... */\n      tag_389\n      jumpi\n        /* \"@openzeppelin/contracts/utils/math/Math.sol\":2561:2572  denominator */\n      dup4\n        /* \"@openzeppelin/contracts/utils/math/Math.sol\":2553:2558  prod0 */\n      dup3\n        /* \"@openzeppelin/contracts/utils/math/Math.sol\":2553:2572  prod0 / denominator */\n      dup2\n      tag_391\n      jumpi\n      tag_391\n      tag_362\n      jump\t// in\n    tag_391:\n      div\n        /* \"@openzeppelin/contracts/utils/math/Math.sol\":2546:2572  return prod0 / denominator */\n      swap3\n      pop\n      pop\n      pop\n      jump(tag_186)\n        /* \"@openzeppelin/contracts/utils/math/Math.sol\":2512:2587  if (prod1 == 0) {... */\n    tag_389:\n        /* \"@openzeppelin/contracts/utils/math/Math.sol\":2711:2716  prod1 */\n      dup1\n        /* \"@openzeppelin/contracts/utils/math/Math.sol\":2697:2708  denominator */\n      dup5\n        /* \"@openzeppelin/contracts/utils/math/Math.sol\":2697:2716  denominator > prod1 */\n      gt\n        /* \"@openzeppelin/contracts/utils/math/Math.sol\":2689:2717  require(denominator > prod1) */\n      tag_392\n      jumpi\n      0x00\n      dup1\n      revert\n    tag_392:\n        /* \"@openzeppelin/contracts/utils/math/Math.sol\":2973:2990  uint256 remainder */\n      0x00\n        /* \"@openzeppelin/contracts/utils/math/Math.sol\":3108:3119  denominator */\n      dup5\n        /* \"@openzeppelin/contracts/utils/math/Math.sol\":3105:3106  y */\n      dup7\n        /* \"@openzeppelin/contracts/utils/math/Math.sol\":3102:3103  x */\n      dup9\n        /* \"@openzeppelin/contracts/utils/math/Math.sol\":3095:3120  mulmod(x, y, denominator) */\n      mulmod\n        /* \"@openzeppelin/contracts/utils/math/Math.sol\":4486:4487  2 */\n      0x02\n        /* \"@openzeppelin/contracts/utils/math/Math.sol\":3656:3657  1 */\n      0x01\n        /* \"@openzeppelin/contracts/utils/math/Math.sol\":3641:3653  ~denominator */\n      dup8\n      not\n        /* \"@openzeppelin/contracts/utils/math/Math.sol\":3641:3657  ~denominator + 1 */\n      dup2\n      add\n        /* \"@openzeppelin/contracts/utils/math/Math.sol\":3626:3658  denominator & (~denominator + 1) */\n      dup9\n      and\n        /* \"@openzeppelin/contracts/utils/math/Math.sol\":3761:3783  div(denominator, twos) */\n      swap8\n      dup9\n      swap1\n      div\n        /* \"@openzeppelin/contracts/utils/math/Math.sol\":4467:4468  3 */\n      0x03\n        /* \"@openzeppelin/contracts/utils/math/Math.sol\":4467:4482  3 * denominator */\n      dup2\n      mul\n        /* \"@openzeppelin/contracts/utils/math/Math.sol\":4466:4487  (3 * denominator) ^ 2 */\n      dup4\n      xor\n        /* \"@openzeppelin/contracts/utils/math/Math.sol\":4719:4740  denominator * inverse */\n      dup1\n      dup3\n      mul\n        /* \"@openzeppelin/contracts/utils/math/Math.sol\":4715:4740  2 - denominator * inverse */\n      dup5\n      sub\n        /* \"@openzeppelin/contracts/utils/math/Math.sol\":4704:4740  inverse *= 2 - denominator * inverse */\n      mul\n        /* \"@openzeppelin/contracts/utils/math/Math.sol\":4788:4809  denominator * inverse */\n      dup1\n      dup3\n      mul\n        /* \"@openzeppelin/contracts/utils/math/Math.sol\":4784:4809  2 - denominator * inverse */\n      dup5\n      sub\n        /* \"@openzeppelin/contracts/utils/math/Math.sol\":4773:4809  inverse *= 2 - denominator * inverse */\n      mul\n        /* \"@openzeppelin/contracts/utils/math/Math.sol\":4858:4879  denominator * inverse */\n      dup1\n      dup3\n      mul\n        /* \"@openzeppelin/contracts/utils/math/Math.sol\":4854:4879  2 - denominator * inverse */\n      dup5\n      sub\n        /* \"@openzeppelin/contracts/utils/math/Math.sol\":4843:4879  inverse *= 2 - denominator * inverse */\n      mul\n        /* \"@openzeppelin/contracts/utils/math/Math.sol\":4928:4949  denominator * inverse */\n      dup1\n      dup3\n      mul\n        /* \"@openzeppelin/contracts/utils/math/Math.sol\":4924:4949  2 - denominator * inverse */\n      dup5\n      sub\n        /* \"@openzeppelin/contracts/utils/math/Math.sol\":4913:4949  inverse *= 2 - denominator * inverse */\n      mul\n        /* \"@openzeppelin/contracts/utils/math/Math.sol\":4998:5019  denominator * inverse */\n      dup1\n      dup3\n      mul\n        /* \"@openzeppelin/contracts/utils/math/Math.sol\":4994:5019  2 - denominator * inverse */\n      dup5\n      sub\n        /* \"@openzeppelin/contracts/utils/math/Math.sol\":4983:5019  inverse *= 2 - denominator * inverse */\n      mul\n        /* \"@openzeppelin/contracts/utils/math/Math.sol\":5069:5090  denominator * inverse */\n      swap1\n      dup2\n      mul\n        /* \"@openzeppelin/contracts/utils/math/Math.sol\":5065:5090  2 - denominator * inverse */\n      swap1\n      swap3\n      sub\n        /* \"@openzeppelin/contracts/utils/math/Math.sol\":5054:5090  inverse *= 2 - denominator * inverse */\n      swap1\n      swap2\n      mul\n        /* \"@openzeppelin/contracts/utils/math/Math.sol\":3611:3623  uint256 twos */\n      0x00\n        /* \"@openzeppelin/contracts/utils/math/Math.sol\":4006:4018  sub(0, twos) */\n      dup9\n      swap1\n      sub\n        /* \"@openzeppelin/contracts/utils/math/Math.sol\":4002:4025  div(sub(0, twos), twos) */\n      dup9\n      swap1\n      div\n        /* \"@openzeppelin/contracts/utils/math/Math.sol\":3998:4029  add(div(sub(0, twos), twos), 1) */\n      swap1\n      swap2\n      add\n        /* \"@openzeppelin/contracts/utils/math/Math.sol\":3222:3242  gt(remainder, prod0) */\n      dup6\n      dup4\n      gt\n        /* \"@openzeppelin/contracts/utils/math/Math.sol\":3211:3243  sub(prod1, gt(remainder, prod0)) */\n      swap1\n      swap5\n      sub\n        /* \"@openzeppelin/contracts/utils/math/Math.sol\":4118:4130  prod1 * twos */\n      swap4\n      swap1\n      swap4\n      mul\n        /* \"@openzeppelin/contracts/utils/math/Math.sol\":3269:3290  sub(prod0, remainder) */\n      swap4\n      sub\n        /* \"@openzeppelin/contracts/utils/math/Math.sol\":3859:3875  div(prod0, twos) */\n      swap5\n      swap1\n      swap5\n      div\n        /* \"@openzeppelin/contracts/utils/math/Math.sol\":4109:4130  prod0 |= prod1 * twos */\n      swap2\n      swap1\n      swap2\n      or\n        /* \"@openzeppelin/contracts/utils/math/Math.sol\":5533:5548  prod0 * inverse */\n      mul\n      swap5\n      swap4\n      pop\n      pop\n      pop\n      pop\n        /* \"@openzeppelin/contracts/utils/math/Math.sol\":1667:5592  function mulDiv(... */\n      jump\t// out\n        /* \"@openzeppelin/contracts/token/ERC20/utils/SafeERC20.sol\":3747:4453  function _callOptionalReturn(IERC20 token, bytes memory data) private {... */\n    tag_373:\n        /* \"@openzeppelin/contracts/token/ERC20/utils/SafeERC20.sol\":4166:4189  bytes memory returndata */\n      0x00\n        /* \"@openzeppelin/contracts/token/ERC20/utils/SafeERC20.sol\":4192:4261  address(token).functionCall(data, \"SafeERC20: low-level call failed\") */\n      tag_394\n        /* \"@openzeppelin/contracts/token/ERC20/utils/SafeERC20.sol\":4220:4224  data */\n      dup3\n        /* \"@openzeppelin/contracts/token/ERC20/utils/SafeERC20.sol\":4192:4261  address(token).functionCall(data, \"SafeERC20: low-level call failed\") */\n      mload(0x40)\n      dup1\n      0x40\n      add\n      0x40\n      mstore\n      dup1\n      0x20\n      dup2\n      mstore\n      0x20\n      add\n      0x5361666545524332303a206c6f772d6c6576656c2063616c6c206661696c6564\n      dup2\n      mstore\n      pop\n        /* \"@openzeppelin/contracts/token/ERC20/utils/SafeERC20.sol\":4200:4205  token */\n      dup6\n      sub(shl(0xa0, 0x01), 0x01)\n        /* \"@openzeppelin/contracts/token/ERC20/utils/SafeERC20.sol\":4192:4219  address(token).functionCall */\n      and\n      tag_395\n      swap1\n        /* \"@openzeppelin/contracts/token/ERC20/utils/SafeERC20.sol\":4192:4261  address(token).functionCall(data, \"SafeERC20: low-level call failed\") */\n      swap3\n      swap2\n      swap1\n      0xffffffff\n      and\n      jump\t// in\n    tag_394:\n        /* \"@openzeppelin/contracts/token/ERC20/utils/SafeERC20.sol\":4275:4292  returndata.length */\n      dup1\n      mload\n        /* \"@openzeppelin/contracts/token/ERC20/utils/SafeERC20.sol\":4166:4261  bytes memory returndata = address(token).functionCall(data, \"SafeERC20: low-level call failed\") */\n      swap1\n      swap2\n      pop\n        /* \"@openzeppelin/contracts/token/ERC20/utils/SafeERC20.sol\":4275:4296  returndata.length > 0 */\n      iszero\n        /* \"@openzeppelin/contracts/token/ERC20/utils/SafeERC20.sol\":4271:4447  if (returndata.length > 0) {... */\n      tag_318\n      jumpi\n        /* \"@openzeppelin/contracts/token/ERC20/utils/SafeERC20.sol\":4370:4380  returndata */\n      dup1\n        /* \"@openzeppelin/contracts/token/ERC20/utils/SafeERC20.sol\":4359:4389  abi.decode(returndata, (bool)) */\n      dup1\n      0x20\n      add\n      swap1\n      mload\n      dup2\n      add\n      swap1\n      tag_397\n      swap2\n      swap1\n      tag_398\n      jump\t// in\n    tag_397:\n        /* \"@openzeppelin/contracts/token/ERC20/utils/SafeERC20.sol\":4351:4436  require(abi.decode(returndata, (bool)), \"SafeERC20: ERC20 operation did not succeed\") */\n      tag_318\n      jumpi\n      mload(0x40)\n      shl(0xe5, 0x461bcd)\n      dup2\n      mstore\n        /* \"#utility.yul\":11513:11515   */\n      0x20\n        /* \"@openzeppelin/contracts/token/ERC20/utils/SafeERC20.sol\":4351:4436  require(abi.decode(returndata, (bool)), \"SafeERC20: ERC20 operation did not succeed\") */\n      0x04\n      dup3\n      add\n        /* \"#utility.yul\":11495:11516   */\n      mstore\n        /* \"#utility.yul\":11552:11554   */\n      0x2a\n        /* \"#utility.yul\":11532:11550   */\n      0x24\n      dup3\n      add\n        /* \"#utility.yul\":11525:11555   */\n      mstore\n        /* \"#utility.yul\":11591:11625   */\n      0x5361666545524332303a204552433230206f7065726174696f6e20646964206e\n        /* \"#utility.yul\":11571:11589   */\n      0x44\n      dup3\n      add\n        /* \"#utility.yul\":11564:11626   */\n      mstore\n      shl(0xb2, 0x1bdd081cdd58d8d95959)\n        /* \"#utility.yul\":11642:11660   */\n      0x64\n      dup3\n      add\n        /* \"#utility.yul\":11635:11675   */\n      mstore\n        /* \"#utility.yul\":11692:11711   */\n      0x84\n      add\n        /* \"@openzeppelin/contracts/token/ERC20/utils/SafeERC20.sol\":4351:4436  require(abi.decode(returndata, (bool)), \"SafeERC20: ERC20 operation did not succeed\") */\n      tag_210\n        /* \"#utility.yul\":11311:11717   */\n      jump\n        /* \"@openzeppelin/contracts/utils/Address.sol\":3873:4096  function functionCall(... */\n    tag_395:\n        /* \"@openzeppelin/contracts/utils/Address.sol\":4006:4018  bytes memory */\n      0x60\n        /* \"@openzeppelin/contracts/utils/Address.sol\":4037:4089  functionCallWithValue(target, data, 0, errorMessage) */\n      tag_253\n        /* \"@openzeppelin/contracts/utils/Address.sol\":4059:4065  target */\n      dup5\n        /* \"@openzeppelin/contracts/utils/Address.sol\":4067:4071  data */\n      dup5\n        /* \"@openzeppelin/contracts/utils/Address.sol\":4073:4074  0 */\n      0x00\n        /* \"@openzeppelin/contracts/utils/Address.sol\":4076:4088  errorMessage */\n      dup6\n        /* \"@openzeppelin/contracts/utils/Address.sol\":4006:4018  bytes memory */\n      dup6\n        /* \"@openzeppelin/contracts/utils/Address.sol\":5241:5253  bool success */\n      0x00\n        /* \"@openzeppelin/contracts/utils/Address.sol\":5255:5278  bytes memory returndata */\n      dup1\n        /* \"@openzeppelin/contracts/utils/Address.sol\":5282:5288  target */\n      dup7\n      sub(shl(0xa0, 0x01), 0x01)\n        /* \"@openzeppelin/contracts/utils/Address.sol\":5282:5293  target.call */\n      and\n        /* \"@openzeppelin/contracts/utils/Address.sol\":5301:5306  value */\n      dup6\n        /* \"@openzeppelin/contracts/utils/Address.sol\":5308:5312  data */\n      dup8\n        /* \"@openzeppelin/contracts/utils/Address.sol\":5282:5313  target.call{value: value}(data) */\n      mload(0x40)\n      tag_409\n      swap2\n      swap1\n      tag_410\n      jump\t// in\n    tag_409:\n      0x00\n      mload(0x40)\n      dup1\n      dup4\n      sub\n      dup2\n      dup6\n      dup8\n      gas\n      call\n      swap3\n      pop\n      pop\n      pop\n      returndatasize\n      dup1\n      0x00\n      dup2\n      eq\n      tag_413\n      jumpi\n      mload(0x40)\n      swap2\n      pop\n      and(add(returndatasize, 0x3f), not(0x1f))\n      dup3\n      add\n      0x40\n      mstore\n      returndatasize\n      dup3\n      mstore\n      returndatasize\n      0x00\n      0x20\n      dup5\n      add\n      returndatacopy\n      jump(tag_412)\n    tag_413:\n      0x60\n      swap2\n      pop\n    tag_412:\n      pop\n        /* \"@openzeppelin/contracts/utils/Address.sol\":5240:5313  (bool success, bytes memory returndata) = target.call{value: value}(data) */\n      swap2\n      pop\n      swap2\n      pop\n        /* \"@openzeppelin/contracts/utils/Address.sol\":5330:5399  verifyCallResultFromTarget(target, success, returndata, errorMessage) */\n      tag_414\n        /* \"@openzeppelin/contracts/utils/Address.sol\":5357:5363  target */\n      dup8\n        /* \"@openzeppelin/contracts/utils/Address.sol\":5365:5372  success */\n      dup4\n        /* \"@openzeppelin/contracts/utils/Address.sol\":5374:5384  returndata */\n      dup4\n        /* \"@openzeppelin/contracts/utils/Address.sol\":5386:5398  errorMessage */\n      dup8\n        /* \"@openzeppelin/contracts/utils/Address.sol\":5330:5356  verifyCallResultFromTarget */\n      tag_415\n        /* \"@openzeppelin/contracts/utils/Address.sol\":5330:5399  verifyCallResultFromTarget(target, success, returndata, errorMessage) */\n      jump\t// in\n    tag_414:\n        /* \"@openzeppelin/contracts/utils/Address.sol\":5323:5399  return verifyCallResultFromTarget(target, success, returndata, errorMessage) */\n      swap8\n        /* \"@openzeppelin/contracts/utils/Address.sol\":4960:5406  function functionCallWithValue(... */\n      swap7\n      pop\n      pop\n      pop\n      pop\n      pop\n      pop\n      pop\n      jump\t// out\n        /* \"@openzeppelin/contracts/utils/Address.sol\":7466:8094  function verifyCallResultFromTarget(... */\n    tag_415:\n        /* \"@openzeppelin/contracts/utils/Address.sol\":7646:7658  bytes memory */\n      0x60\n        /* \"@openzeppelin/contracts/utils/Address.sol\":7674:7681  success */\n      dup4\n        /* \"@openzeppelin/contracts/utils/Address.sol\":7670:8088  if (success) {... */\n      iszero\n      tag_417\n      jumpi\n        /* \"@openzeppelin/contracts/utils/Address.sol\":7701:7711  returndata */\n      dup3\n        /* \"@openzeppelin/contracts/utils/Address.sol\":7701:7718  returndata.length */\n      mload\n        /* \"@openzeppelin/contracts/utils/Address.sol\":7722:7723  0 */\n      0x00\n        /* \"@openzeppelin/contracts/utils/Address.sol\":7701:7723  returndata.length == 0 */\n      sub\n        /* \"@openzeppelin/contracts/utils/Address.sol\":7697:7983  if (returndata.length == 0) {... */\n      tag_421\n      jumpi\n      sub(shl(0xa0, 0x01), 0x01)\n        /* \"@openzeppelin/contracts/utils/Address.sol\":1465:1484  account.code.length */\n      dup6\n      and\n      extcodesize\n        /* \"@openzeppelin/contracts/utils/Address.sol\":7908:7968  require(isContract(target), \"Address: call to non-contract\") */\n      tag_421\n      jumpi\n      mload(0x40)\n      shl(0xe5, 0x461bcd)\n      dup2\n      mstore\n        /* \"#utility.yul\":12623:12625   */\n      0x20\n        /* \"@openzeppelin/contracts/utils/Address.sol\":7908:7968  require(isContract(target), \"Address: call to non-contract\") */\n      0x04\n      dup3\n      add\n        /* \"#utility.yul\":12605:12626   */\n      mstore\n        /* \"#utility.yul\":12662:12664   */\n      0x1d\n        /* \"#utility.yul\":12642:12660   */\n      0x24\n      dup3\n      add\n        /* \"#utility.yul\":12635:12665   */\n      mstore\n        /* \"#utility.yul\":12701:12732   */\n      0x416464726573733a2063616c6c20746f206e6f6e2d636f6e7472616374000000\n        /* \"#utility.yul\":12681:12699   */\n      0x44\n      dup3\n      add\n        /* \"#utility.yul\":12674:12733   */\n      mstore\n        /* \"#utility.yul\":12750:12768   */\n      0x64\n      add\n        /* \"@openzeppelin/contracts/utils/Address.sol\":7908:7968  require(isContract(target), \"Address: call to non-contract\") */\n      tag_210\n        /* \"#utility.yul\":12421:12774   */\n      jump\n        /* \"@openzeppelin/contracts/utils/Address.sol\":7908:7968  require(isContract(target), \"Address: call to non-contract\") */\n    tag_421:\n      pop\n        /* \"@openzeppelin/contracts/utils/Address.sol\":8003:8013  returndata */\n      dup2\n        /* \"@openzeppelin/contracts/utils/Address.sol\":7996:8013  return returndata */\n      jump(tag_253)\n        /* \"@openzeppelin/contracts/utils/Address.sol\":7670:8088  if (success) {... */\n    tag_417:\n        /* \"@openzeppelin/contracts/utils/Address.sol\":8044:8077  _revert(returndata, errorMessage) */\n      tag_253\n        /* \"@openzeppelin/contracts/utils/Address.sol\":8052:8062  returndata */\n      dup4\n        /* \"@openzeppelin/contracts/utils/Address.sol\":8064:8076  errorMessage */\n      dup4\n        /* \"@openzeppelin/contracts/utils/Address.sol\":8775:8792  returndata.length */\n      dup2\n      mload\n        /* \"@openzeppelin/contracts/utils/Address.sol\":8775:8796  returndata.length > 0 */\n      iszero\n        /* \"@openzeppelin/contracts/utils/Address.sol\":8771:9150  if (returndata.length > 0) {... */\n      tag_429\n      jumpi\n        /* \"@openzeppelin/contracts/utils/Address.sol\":9003:9013  returndata */\n      dup2\n        /* \"@openzeppelin/contracts/utils/Address.sol\":8997:9014  mload(returndata) */\n      mload\n        /* \"@openzeppelin/contracts/utils/Address.sol\":9059:9074  returndata_size */\n      dup1\n        /* \"@openzeppelin/contracts/utils/Address.sol\":9046:9056  returndata */\n      dup4\n        /* \"@openzeppelin/contracts/utils/Address.sol\":9042:9044  32 */\n      0x20\n        /* \"@openzeppelin/contracts/utils/Address.sol\":9038:9057  add(32, returndata) */\n      add\n        /* \"@openzeppelin/contracts/utils/Address.sol\":9031:9075  revert(add(32, returndata), returndata_size) */\n      revert\n        /* \"@openzeppelin/contracts/utils/Address.sol\":8771:9150  if (returndata.length > 0) {... */\n    tag_429:\n        /* \"@openzeppelin/contracts/utils/Address.sol\":9126:9138  errorMessage */\n      dup1\n        /* \"@openzeppelin/contracts/utils/Address.sol\":9119:9139  revert(errorMessage) */\n      mload(0x40)\n      shl(0xe5, 0x461bcd)\n      dup2\n      mstore\n      0x04\n      add\n      tag_210\n      swap2\n      swap1\n      tag_46\n      jump\t// in\n        /* \"#utility.yul\":196:446   */\n    tag_432:\n        /* \"#utility.yul\":281:282   */\n      0x00\n        /* \"#utility.yul\":291:404   */\n    tag_437:\n        /* \"#utility.yul\":305:311   */\n      dup4\n        /* \"#utility.yul\":302:303   */\n      dup2\n        /* \"#utility.yul\":299:312   */\n      lt\n        /* \"#utility.yul\":291:404   */\n      iszero\n      tag_439\n      jumpi\n        /* \"#utility.yul\":381:392   */\n      dup2\n      dup2\n      add\n        /* \"#utility.yul\":375:393   */\n      mload\n        /* \"#utility.yul\":362:373   */\n      dup4\n      dup3\n      add\n        /* \"#utility.yul\":355:394   */\n      mstore\n        /* \"#utility.yul\":327:329   */\n      0x20\n        /* \"#utility.yul\":320:330   */\n      add\n        /* \"#utility.yul\":291:404   */\n      jump(tag_437)\n    tag_439:\n      pop\n      pop\n        /* \"#utility.yul\":438:439   */\n      0x00\n        /* \"#utility.yul\":420:436   */\n      swap2\n      add\n        /* \"#utility.yul\":413:440   */\n      mstore\n        /* \"#utility.yul\":196:446   */\n      jump\t// out\n        /* \"#utility.yul\":451:847   */\n    tag_46:\n        /* \"#utility.yul\":600:602   */\n      0x20\n        /* \"#utility.yul\":589:598   */\n      dup2\n        /* \"#utility.yul\":582:603   */\n      mstore\n        /* \"#utility.yul\":563:567   */\n      0x00\n        /* \"#utility.yul\":632:638   */\n      dup3\n        /* \"#utility.yul\":626:639   */\n      mload\n        /* \"#utility.yul\":675:681   */\n      dup1\n        /* \"#utility.yul\":670:672   */\n      0x20\n        /* \"#utility.yul\":659:668   */\n      dup5\n        /* \"#utility.yul\":655:673   */\n      add\n        /* \"#utility.yul\":648:682   */\n      mstore\n        /* \"#utility.yul\":691:770   */\n      tag_441\n        /* \"#utility.yul\":763:769   */\n      dup2\n        /* \"#utility.yul\":758:760   */\n      0x40\n        /* \"#utility.yul\":747:756   */\n      dup6\n        /* \"#utility.yul\":743:761   */\n      add\n        /* \"#utility.yul\":738:740   */\n      0x20\n        /* \"#utility.yul\":730:736   */\n      dup8\n        /* \"#utility.yul\":726:741   */\n      add\n        /* \"#utility.yul\":691:770   */\n      tag_432\n      jump\t// in\n    tag_441:\n        /* \"#utility.yul\":831:833   */\n      0x1f\n        /* \"#utility.yul\":810:825   */\n      add\n      not(0x1f)\n        /* \"#utility.yul\":806:835   */\n      and\n        /* \"#utility.yul\":791:836   */\n      swap2\n      swap1\n      swap2\n      add\n        /* \"#utility.yul\":838:840   */\n      0x40\n        /* \"#utility.yul\":787:841   */\n      add\n      swap3\n        /* \"#utility.yul\":451:847   */\n      swap2\n      pop\n      pop\n      jump\t// out\n        /* \"#utility.yul\":852:1032   */\n    tag_49:\n        /* \"#utility.yul\":911:917   */\n      0x00\n        /* \"#utility.yul\":964:966   */\n      0x20\n        /* \"#utility.yul\":952:961   */\n      dup3\n        /* \"#utility.yul\":943:950   */\n      dup5\n        /* \"#utility.yul\":939:962   */\n      sub\n        /* \"#utility.yul\":935:967   */\n      slt\n        /* \"#utility.yul\":932:984   */\n      iszero\n      tag_443\n      jumpi\n        /* \"#utility.yul\":980:981   */\n      0x00\n        /* \"#utility.yul\":977:978   */\n      dup1\n        /* \"#utility.yul\":970:982   */\n      revert\n        /* \"#utility.yul\":932:984   */\n    tag_443:\n      pop\n        /* \"#utility.yul\":1003:1026   */\n      calldataload\n      swap2\n        /* \"#utility.yul\":852:1032   */\n      swap1\n      pop\n      jump\t// out\n        /* \"#utility.yul\":1037:1210   */\n    tag_433:\n        /* \"#utility.yul\":1105:1125   */\n      dup1\n      calldataload\n      sub(shl(0xa0, 0x01), 0x01)\n        /* \"#utility.yul\":1154:1185   */\n      dup2\n      and\n        /* \"#utility.yul\":1144:1186   */\n      dup2\n      eq\n        /* \"#utility.yul\":1134:1204   */\n      tag_445\n      jumpi\n        /* \"#utility.yul\":1200:1201   */\n      0x00\n        /* \"#utility.yul\":1197:1198   */\n      dup1\n        /* \"#utility.yul\":1190:1202   */\n      revert\n        /* \"#utility.yul\":1134:1204   */\n    tag_445:\n        /* \"#utility.yul\":1037:1210   */\n      swap2\n      swap1\n      pop\n      jump\t// out\n        /* \"#utility.yul\":1215:1469   */\n    tag_54:\n        /* \"#utility.yul\":1283:1289   */\n      0x00\n        /* \"#utility.yul\":1291:1297   */\n      dup1\n        /* \"#utility.yul\":1344:1346   */\n      0x40\n        /* \"#utility.yul\":1332:1341   */\n      dup4\n        /* \"#utility.yul\":1323:1330   */\n      dup6\n        /* \"#utility.yul\":1319:1342   */\n      sub\n        /* \"#utility.yul\":1315:1347   */\n      slt\n        /* \"#utility.yul\":1312:1364   */\n      iszero\n      tag_447\n      jumpi\n        /* \"#utility.yul\":1360:1361   */\n      0x00\n        /* \"#utility.yul\":1357:1358   */\n      dup1\n        /* \"#utility.yul\":1350:1362   */\n      revert\n        /* \"#utility.yul\":1312:1364   */\n    tag_447:\n        /* \"#utility.yul\":1383:1412   */\n      tag_448\n        /* \"#utility.yul\":1402:1411   */\n      dup4\n        /* \"#utility.yul\":1383:1412   */\n      tag_433\n      jump\t// in\n    tag_448:\n        /* \"#utility.yul\":1373:1412   */\n      swap5\n        /* \"#utility.yul\":1459:1461   */\n      0x20\n        /* \"#utility.yul\":1444:1462   */\n      swap4\n      swap1\n      swap4\n      add\n        /* \"#utility.yul\":1431:1463   */\n      calldataload\n      swap4\n      pop\n      pop\n      pop\n        /* \"#utility.yul\":1215:1469   */\n      jump\t// out\n        /* \"#utility.yul\":1666:1994   */\n    tag_67:\n        /* \"#utility.yul\":1743:1749   */\n      0x00\n        /* \"#utility.yul\":1751:1757   */\n      dup1\n        /* \"#utility.yul\":1759:1765   */\n      0x00\n        /* \"#utility.yul\":1812:1814   */\n      0x60\n        /* \"#utility.yul\":1800:1809   */\n      dup5\n        /* \"#utility.yul\":1791:1798   */\n      dup7\n        /* \"#utility.yul\":1787:1810   */\n      sub\n        /* \"#utility.yul\":1783:1815   */\n      slt\n        /* \"#utility.yul\":1780:1832   */\n      iszero\n      tag_451\n      jumpi\n        /* \"#utility.yul\":1828:1829   */\n      0x00\n        /* \"#utility.yul\":1825:1826   */\n      dup1\n        /* \"#utility.yul\":1818:1830   */\n      revert\n        /* \"#utility.yul\":1780:1832   */\n    tag_451:\n        /* \"#utility.yul\":1851:1880   */\n      tag_452\n        /* \"#utility.yul\":1870:1879   */\n      dup5\n        /* \"#utility.yul\":1851:1880   */\n      tag_433\n      jump\t// in\n    tag_452:\n        /* \"#utility.yul\":1841:1880   */\n      swap3\n      pop\n        /* \"#utility.yul\":1899:1937   */\n      tag_453\n        /* \"#utility.yul\":1933:1935   */\n      0x20\n        /* \"#utility.yul\":1922:1931   */\n      dup6\n        /* \"#utility.yul\":1918:1936   */\n      add\n        /* \"#utility.yul\":1899:1937   */\n      tag_433\n      jump\t// in\n    tag_453:\n        /* \"#utility.yul\":1889:1937   */\n      swap2\n      pop\n        /* \"#utility.yul\":1984:1986   */\n      0x40\n        /* \"#utility.yul\":1973:1982   */\n      dup5\n        /* \"#utility.yul\":1969:1987   */\n      add\n        /* \"#utility.yul\":1956:1988   */\n      calldataload\n        /* \"#utility.yul\":1946:1988   */\n      swap1\n      pop\n        /* \"#utility.yul\":1666:1994   */\n      swap3\n      pop\n      swap3\n      pop\n      swap3\n      jump\t// out\n        /* \"#utility.yul\":2396:2582   */\n    tag_84:\n        /* \"#utility.yul\":2455:2461   */\n      0x00\n        /* \"#utility.yul\":2508:2510   */\n      0x20\n        /* \"#utility.yul\":2496:2505   */\n      dup3\n        /* \"#utility.yul\":2487:2494   */\n      dup5\n        /* \"#utility.yul\":2483:2506   */\n      sub\n        /* \"#utility.yul\":2479:2511   */\n      slt\n        /* \"#utility.yul\":2476:2528   */\n      iszero\n      tag_457\n      jumpi\n        /* \"#utility.yul\":2524:2525   */\n      0x00\n        /* \"#utility.yul\":2521:2522   */\n      dup1\n        /* \"#utility.yul\":2514:2526   */\n      revert\n        /* \"#utility.yul\":2476:2528   */\n    tag_457:\n        /* \"#utility.yul\":2547:2576   */\n      tag_186\n        /* \"#utility.yul\":2566:2575   */\n      dup3\n        /* \"#utility.yul\":2547:2576   */\n      tag_433\n      jump\t// in\n        /* \"#utility.yul\":2587:2841   */\n    tag_93:\n        /* \"#utility.yul\":2655:2661   */\n      0x00\n        /* \"#utility.yul\":2663:2669   */\n      dup1\n        /* \"#utility.yul\":2716:2718   */\n      0x40\n        /* \"#utility.yul\":2704:2713   */\n      dup4\n        /* \"#utility.yul\":2695:2702   */\n      dup6\n        /* \"#utility.yul\":2691:2714   */\n      sub\n        /* \"#utility.yul\":2687:2719   */\n      slt\n        /* \"#utility.yul\":2684:2736   */\n      iszero\n      tag_460\n      jumpi\n        /* \"#utility.yul\":2732:2733   */\n      0x00\n        /* \"#utility.yul\":2729:2730   */\n      dup1\n        /* \"#utility.yul\":2722:2734   */\n      revert\n        /* \"#utility.yul\":2684:2736   */\n    tag_460:\n        /* \"#utility.yul\":2768:2777   */\n      dup3\n        /* \"#utility.yul\":2755:2778   */\n      calldataload\n        /* \"#utility.yul\":2745:2778   */\n      swap2\n      pop\n        /* \"#utility.yul\":2797:2835   */\n      tag_461\n        /* \"#utility.yul\":2831:2833   */\n      0x20\n        /* \"#utility.yul\":2820:2829   */\n      dup5\n        /* \"#utility.yul\":2816:2834   */\n      add\n        /* \"#utility.yul\":2797:2835   */\n      tag_433\n      jump\t// in\n    tag_461:\n        /* \"#utility.yul\":2787:2835   */\n      swap1\n      pop\n        /* \"#utility.yul\":2587:2841   */\n      swap3\n      pop\n      swap3\n      swap1\n      pop\n      jump\t// out\n        /* \"#utility.yul\":2846:3174   */\n    tag_124:\n        /* \"#utility.yul\":2923:2929   */\n      0x00\n        /* \"#utility.yul\":2931:2937   */\n      dup1\n        /* \"#utility.yul\":2939:2945   */\n      0x00\n        /* \"#utility.yul\":2992:2994   */\n      0x60\n        /* \"#utility.yul\":2980:2989   */\n      dup5\n        /* \"#utility.yul\":2971:2978   */\n      dup7\n        /* \"#utility.yul\":2967:2990   */\n      sub\n        /* \"#utility.yul\":2963:2995   */\n      slt\n        /* \"#utility.yul\":2960:3012   */\n      iszero\n      tag_463\n      jumpi\n        /* \"#utility.yul\":3008:3009   */\n      0x00\n        /* \"#utility.yul\":3005:3006   */\n      dup1\n        /* \"#utility.yul\":2998:3010   */\n      revert\n        /* \"#utility.yul\":2960:3012   */\n    tag_463:\n        /* \"#utility.yul\":3044:3053   */\n      dup4\n        /* \"#utility.yul\":3031:3054   */\n      calldataload\n        /* \"#utility.yul\":3021:3054   */\n      swap3\n      pop\n        /* \"#utility.yul\":3073:3111   */\n      tag_464\n        /* \"#utility.yul\":3107:3109   */\n      0x20\n        /* \"#utility.yul\":3096:3105   */\n      dup6\n        /* \"#utility.yul\":3092:3110   */\n      add\n        /* \"#utility.yul\":3073:3111   */\n      tag_433\n      jump\t// in\n    tag_464:\n        /* \"#utility.yul\":3063:3111   */\n      swap2\n      pop\n        /* \"#utility.yul\":3130:3168   */\n      tag_465\n        /* \"#utility.yul\":3164:3166   */\n      0x40\n        /* \"#utility.yul\":3153:3162   */\n      dup6\n        /* \"#utility.yul\":3149:3167   */\n      add\n        /* \"#utility.yul\":3130:3168   */\n      tag_433\n      jump\t// in\n    tag_465:\n        /* \"#utility.yul\":3120:3168   */\n      swap1\n      pop\n        /* \"#utility.yul\":2846:3174   */\n      swap3\n      pop\n      swap3\n      pop\n      swap3\n      jump\t// out\n        /* \"#utility.yul\":3179:3439   */\n    tag_149:\n        /* \"#utility.yul\":3247:3253   */\n      0x00\n        /* \"#utility.yul\":3255:3261   */\n      dup1\n        /* \"#utility.yul\":3308:3310   */\n      0x40\n        /* \"#utility.yul\":3296:3305   */\n      dup4\n        /* \"#utility.yul\":3287:3294   */\n      dup6\n        /* \"#utility.yul\":3283:3306   */\n      sub\n        /* \"#utility.yul\":3279:3311   */\n      slt\n        /* \"#utility.yul\":3276:3328   */\n      iszero\n      tag_467\n      jumpi\n        /* \"#utility.yul\":3324:3325   */\n      0x00\n        /* \"#utility.yul\":3321:3322   */\n      dup1\n        /* \"#utility.yul\":3314:3326   */\n      revert\n        /* \"#utility.yul\":3276:3328   */\n    tag_467:\n        /* \"#utility.yul\":3347:3376   */\n      tag_468\n        /* \"#utility.yul\":3366:3375   */\n      dup4\n        /* \"#utility.yul\":3347:3376   */\n      tag_433\n      jump\t// in\n    tag_468:\n        /* \"#utility.yul\":3337:3376   */\n      swap2\n      pop\n        /* \"#utility.yul\":3395:3433   */\n      tag_461\n        /* \"#utility.yul\":3429:3431   */\n      0x20\n        /* \"#utility.yul\":3418:3427   */\n      dup5\n        /* \"#utility.yul\":3414:3432   */\n      add\n        /* \"#utility.yul\":3395:3433   */\n      tag_433\n      jump\t// in\n        /* \"#utility.yul\":3665:3849   */\n    tag_166:\n        /* \"#utility.yul\":3735:3741   */\n      0x00\n        /* \"#utility.yul\":3788:3790   */\n      0x20\n        /* \"#utility.yul\":3776:3785   */\n      dup3\n        /* \"#utility.yul\":3767:3774   */\n      dup5\n        /* \"#utility.yul\":3763:3786   */\n      sub\n        /* \"#utility.yul\":3759:3791   */\n      slt\n        /* \"#utility.yul\":3756:3808   */\n      iszero\n      tag_472\n      jumpi\n        /* \"#utility.yul\":3804:3805   */\n      0x00\n        /* \"#utility.yul\":3801:3802   */\n      dup1\n        /* \"#utility.yul\":3794:3806   */\n      revert\n        /* \"#utility.yul\":3756:3808   */\n    tag_472:\n      pop\n        /* \"#utility.yul\":3827:3843   */\n      mload\n      swap2\n        /* \"#utility.yul\":3665:3849   */\n      swap1\n      pop\n      jump\t// out\n        /* \"#utility.yul\":3854:4234   */\n    tag_169:\n        /* \"#utility.yul\":3933:3934   */\n      0x01\n        /* \"#utility.yul\":3929:3941   */\n      dup2\n      dup2\n      shr\n      swap1\n        /* \"#utility.yul\":3976:3988   */\n      dup3\n      and\n      dup1\n        /* \"#utility.yul\":3997:4058   */\n      tag_474\n      jumpi\n        /* \"#utility.yul\":4051:4055   */\n      0x7f\n        /* \"#utility.yul\":4043:4049   */\n      dup3\n        /* \"#utility.yul\":4039:4056   */\n      and\n        /* \"#utility.yul\":4029:4056   */\n      swap2\n      pop\n        /* \"#utility.yul\":3997:4058   */\n    tag_474:\n        /* \"#utility.yul\":4104:4106   */\n      0x20\n        /* \"#utility.yul\":4096:4102   */\n      dup3\n        /* \"#utility.yul\":4093:4107   */\n      lt\n        /* \"#utility.yul\":4073:4091   */\n      dup2\n        /* \"#utility.yul\":4070:4108   */\n      sub\n        /* \"#utility.yul\":4067:4228   */\n      tag_475\n      jumpi\n        /* \"#utility.yul\":4150:4160   */\n      0x4e487b71\n        /* \"#utility.yul\":4145:4148   */\n      0xe0\n        /* \"#utility.yul\":4141:4161   */\n      shl\n        /* \"#utility.yul\":4138:4139   */\n      0x00\n        /* \"#utility.yul\":4131:4162   */\n      mstore\n        /* \"#utility.yul\":4185:4189   */\n      0x22\n        /* \"#utility.yul\":4182:4183   */\n      0x04\n        /* \"#utility.yul\":4175:4190   */\n      mstore\n        /* \"#utility.yul\":4213:4217   */\n      0x24\n        /* \"#utility.yul\":4210:4211   */\n      0x00\n        /* \"#utility.yul\":4203:4218   */\n      revert\n        /* \"#utility.yul\":4067:4228   */\n    tag_475:\n      pop\n        /* \"#utility.yul\":3854:4234   */\n      swap2\n      swap1\n      pop\n      jump\t// out\n        /* \"#utility.yul\":4239:4461   */\n    tag_199:\n        /* \"#utility.yul\":4304:4313   */\n      dup1\n      dup3\n      add\n        /* \"#utility.yul\":4325:4335   */\n      dup1\n      dup3\n      gt\n        /* \"#utility.yul\":4322:4455   */\n      iszero\n      tag_175\n      jumpi\n        /* \"#utility.yul\":4377:4387   */\n      0x4e487b71\n        /* \"#utility.yul\":4372:4375   */\n      0xe0\n        /* \"#utility.yul\":4368:4388   */\n      shl\n        /* \"#utility.yul\":4365:4366   */\n      0x00\n        /* \"#utility.yul\":4358:4389   */\n      mstore\n        /* \"#utility.yul\":4412:4416   */\n      0x11\n        /* \"#utility.yul\":4409:4410   */\n      0x04\n        /* \"#utility.yul\":4402:4417   */\n      mstore\n        /* \"#utility.yul\":4440:4444   */\n      0x24\n        /* \"#utility.yul\":4437:4438   */\n      0x00\n        /* \"#utility.yul\":4430:4445   */\n      revert\n        /* \"#utility.yul\":9301:9428   */\n    tag_356:\n        /* \"#utility.yul\":9362:9372   */\n      0x4e487b71\n        /* \"#utility.yul\":9357:9360   */\n      0xe0\n        /* \"#utility.yul\":9353:9373   */\n      shl\n        /* \"#utility.yul\":9350:9351   */\n      0x00\n        /* \"#utility.yul\":9343:9374   */\n      mstore\n        /* \"#utility.yul\":9393:9397   */\n      0x21\n        /* \"#utility.yul\":9390:9391   */\n      0x04\n        /* \"#utility.yul\":9383:9398   */\n      mstore\n        /* \"#utility.yul\":9417:9421   */\n      0x24\n        /* \"#utility.yul\":9414:9415   */\n      0x00\n        /* \"#utility.yul\":9407:9422   */\n      revert\n        /* \"#utility.yul\":9433:9560   */\n    tag_362:\n        /* \"#utility.yul\":9494:9504   */\n      0x4e487b71\n        /* \"#utility.yul\":9489:9492   */\n      0xe0\n        /* \"#utility.yul\":9485:9505   */\n      shl\n        /* \"#utility.yul\":9482:9483   */\n      0x00\n        /* \"#utility.yul\":9475:9506   */\n      mstore\n        /* \"#utility.yul\":9525:9529   */\n      0x12\n        /* \"#utility.yul\":9522:9523   */\n      0x04\n        /* \"#utility.yul\":9515:9530   */\n      mstore\n        /* \"#utility.yul\":9549:9553   */\n      0x24\n        /* \"#utility.yul\":9546:9547   */\n      0x00\n        /* \"#utility.yul\":9539:9554   */\n      revert\n        /* \"#utility.yul\":11029:11306   */\n    tag_398:\n        /* \"#utility.yul\":11096:11102   */\n      0x00\n        /* \"#utility.yul\":11149:11151   */\n      0x20\n        /* \"#utility.yul\":11137:11146   */\n      dup3\n        /* \"#utility.yul\":11128:11135   */\n      dup5\n        /* \"#utility.yul\":11124:11147   */\n      sub\n        /* \"#utility.yul\":11120:11152   */\n      slt\n        /* \"#utility.yul\":11117:11169   */\n      iszero\n      tag_498\n      jumpi\n        /* \"#utility.yul\":11165:11166   */\n      0x00\n        /* \"#utility.yul\":11162:11163   */\n      dup1\n        /* \"#utility.yul\":11155:11167   */\n      revert\n        /* \"#utility.yul\":11117:11169   */\n    tag_498:\n        /* \"#utility.yul\":11197:11206   */\n      dup2\n        /* \"#utility.yul\":11191:11207   */\n      mload\n        /* \"#utility.yul\":11250:11255   */\n      dup1\n        /* \"#utility.yul\":11243:11256   */\n      iszero\n        /* \"#utility.yul\":11236:11257   */\n      iszero\n        /* \"#utility.yul\":11229:11234   */\n      dup2\n        /* \"#utility.yul\":11226:11258   */\n      eq\n        /* \"#utility.yul\":11216:11276   */\n      tag_186\n      jumpi\n        /* \"#utility.yul\":11272:11273   */\n      0x00\n        /* \"#utility.yul\":11269:11270   */\n      dup1\n        /* \"#utility.yul\":11262:11274   */\n      revert\n        /* \"#utility.yul\":12129:12416   */\n    tag_410:\n        /* \"#utility.yul\":12258:12261   */\n      0x00\n        /* \"#utility.yul\":12296:12302   */\n      dup3\n        /* \"#utility.yul\":12290:12303   */\n      mload\n        /* \"#utility.yul\":12312:12378   */\n      tag_503\n        /* \"#utility.yul\":12371:12377   */\n      dup2\n        /* \"#utility.yul\":12366:12369   */\n      dup5\n        /* \"#utility.yul\":12359:12363   */\n      0x20\n        /* \"#utility.yul\":12351:12357   */\n      dup8\n        /* \"#utility.yul\":12347:12364   */\n      add\n        /* \"#utility.yul\":12312:12378   */\n      tag_432\n      jump\t// in\n    tag_503:\n        /* \"#utility.yul\":12394:12410   */\n      swap2\n      swap1\n      swap2\n      add\n      swap3\n        /* \"#utility.yul\":12129:12416   */\n      swap2\n      pop\n      pop\n      jump\t// out\n\n    auxdata: 0xa264697066735822122056ae9f477c456970de49276c6207c9dfa80179390a70cd82fb130946f9e9fc1364736f6c63430008110033\n}\n",
				"bytecode": {
					"linkReferences": {},
					"object": "60c06040523480156200001157600080fd5b5060405162001b3538038062001b3583398101604081905262000034916200029a565b8383836003620000458382620003bd565b506004620000548282620003bd565b5050506000806200006b83620000ca60201b60201c565b915091508162000090576200008a620001af60201b620008dc1760201c565b62000092565b805b60ff1660a05250506001600160a01b03908116608052600580546001600160a01b0319169290911691909117905550620004c1915050565b60408051600481526024810182526020810180516001600160e01b031663313ce56760e01b17905290516000918291829182916001600160a01b03871691620001139162000489565b600060405180830381855afa9150503d806000811462000150576040519150601f19603f3d011682016040523d82523d6000602084013e62000155565b606091505b50915091508180156200016a57506020815110155b15620001a257600081806020019051810190620001889190620004a7565b905060ff8111620001a0576001969095509350505050565b505b5060009485945092505050565b601290565b6001600160a01b0381168114620001ca57600080fd5b50565b634e487b7160e01b600052604160045260246000fd5b60005b8381101562000200578181015183820152602001620001e6565b50506000910152565b600082601f8301126200021b57600080fd5b81516001600160401b0380821115620002385762000238620001cd565b604051601f8301601f19908116603f01168101908282118183101715620002635762000263620001cd565b816040528381528660208588010111156200027d57600080fd5b62000290846020830160208901620001e3565b9695505050505050565b60008060008060808587031215620002b157600080fd5b8451620002be81620001b4565b60208601519094506001600160401b0380821115620002dc57600080fd5b620002ea8883890162000209565b945060408701519150808211156200030157600080fd5b50620003108782880162000209565b92505060608501516200032381620001b4565b939692955090935050565b600181811c908216806200034357607f821691505b6020821081036200036457634e487b7160e01b600052602260045260246000fd5b50919050565b601f821115620003b857600081815260208120601f850160051c81016020861015620003935750805b601f850160051c820191505b81811015620003b4578281556001016200039f565b5050505b505050565b81516001600160401b03811115620003d957620003d9620001cd565b620003f181620003ea84546200032e565b846200036a565b602080601f831160018114620004295760008415620004105750858301515b600019600386901b1c1916600185901b178555620003b4565b600085815260208120601f198616915b828110156200045a5788860151825594840194600190910190840162000439565b5085821015620004795787850151600019600388901b60f8161c191681555b5050505050600190811b01905550565b600082516200049d818460208701620001e3565b9190910192915050565b600060208284031215620004ba57600080fd5b5051919050565b60805160a051611639620004fc600039600061026f01526000818161029b0152818161045001528181610ca70152610e2601526116396000f3fe608060405234801561001057600080fd5b50600436106101cf5760003560e01c806394bf804d11610104578063ba087652116100a2578063d905777e11610071578063d905777e146103ff578063dd62ed3e14610412578063ef8b30f7146103d9578063fc0c546a1461042557600080fd5b8063ba087652146103b1578063c63d75b6146103c4578063c6e6f592146103d9578063ce96cb77146103ec57600080fd5b8063a457c2d7116100de578063a457c2d714610365578063a9059cbb14610378578063b3d7f6b91461038b578063b460af941461039e57600080fd5b806394bf804d1461033557806395d89b4114610348578063a0712d681461035057600080fd5b8063313ce56711610171578063402d267d1161014b578063402d267d146102e65780634cdad506146102045780636e553f65146102f957806370a082311461030c57600080fd5b8063313ce5671461026857806338d52e0f1461029957806339509351146102d357600080fd5b8063095ea7b3116101ad578063095ea7b3146102175780630a28a4771461023a57806318160ddd1461024d57806323b872dd1461025557600080fd5b806301e1d114146101d457806306fdde03146101ef57806307a2d13a14610204575b600080fd5b6101dc610438565b6040519081526020015b60405180910390f35b6101f76104c8565b6040516101e691906113aa565b6101dc6102123660046113dd565b61055a565b61022a610225366004611412565b61056d565b60405190151581526020016101e6565b6101dc6102483660046113dd565b610585565b6002546101dc565b61022a61026336600461143c565b610592565b60405160ff7f00000000000000000000000000000000000000000000000000000000000000001681526020016101e6565b7f00000000000000000000000000000000000000000000000000000000000000005b6040516001600160a01b0390911681526020016101e6565b61022a6102e1366004611412565b6105b8565b6101dc6102f4366004611478565b6105da565b6101dc610307366004611493565b6105f8565b6101dc61031a366004611478565b6001600160a01b031660009081526020819052604090205490565b6101dc610343366004611493565b610670565b6101f761068a565b61036361035e3660046113dd565b610699565b005b61022a610373366004611412565b6106d1565b61022a610386366004611412565b610757565b6101dc6103993660046113dd565b610765565b6101dc6103ac3660046114bf565b610772565b6101dc6103bf3660046114bf565b6107ee565b6101dc6103d2366004611478565b5060001990565b6101dc6103e73660046113dd565b610862565b6101dc6103fa366004611478565b61086f565b6101dc61040d366004611478565b610893565b6101dc6104203660046114fb565b6108b1565b6006546102bb906001600160a01b031681565b6040516370a0823160e01b81523060048201526000907f00000000000000000000000000000000000000000000000000000000000000006001600160a01b0316906370a0823190602401602060405180830381865afa15801561049f573d6000803e3d6000fd5b505050506040513d601f19601f820116820180604052508101906104c39190611525565b905090565b6060600380546104d79061153e565b80601f01602080910402602001604051908101604052809291908181526020018280546105039061153e565b80156105505780601f1061052557610100808354040283529160200191610550565b820191906000526020600020905b81548152906001019060200180831161053357829003601f168201915b5050505050905090565b60006105678260006108e1565b92915050565b60003361057b818585610914565b5060019392505050565b6000610567826001610a38565b6000336105a0858285610a6a565b6105ab858585610ae4565b60019150505b9392505050565b60003361057b8185856105cb83836108b1565b6105d59190611578565b610914565b60006105e4610c88565b6105ef576000610567565b60001992915050565b6000610603826105da565b8311156106575760405162461bcd60e51b815260206004820152601e60248201527f455243343632363a206465706f736974206d6f7265207468616e206d6178000060448201526064015b60405180910390fd5b600061066284610862565b90506105b133848684610ca2565b60008061067c84610765565b90506105b133848387610ca2565b6060600480546104d79061153e565b6005546001600160a01b031633146106c457604051633731f4c560e21b815260040160405180910390fd5b6106ce3382610d34565b50565b600033816106df82866108b1565b90508381101561073f5760405162461bcd60e51b815260206004820152602560248201527f45524332303a2064656372656173656420616c6c6f77616e63652062656c6f77604482015264207a65726f60d81b606482015260840161064e565b61074c8286868403610914565b506001949350505050565b60003361057b818585610ae4565b60006105678260016108e1565b600061077d8261086f565b8411156107cc5760405162461bcd60e51b815260206004820152601f60248201527f455243343632363a207769746864726177206d6f7265207468616e206d617800604482015260640161064e565b60006107d785610585565b90506107e63385858885610df3565b949350505050565b60006107f982610893565b8411156108485760405162461bcd60e51b815260206004820152601d60248201527f455243343632363a2072656465656d206d6f7265207468616e206d6178000000604482015260640161064e565b60006108538561055a565b90506107e63385858489610df3565b6000610567826000610a38565b6001600160a01b0381166000908152602081905260408120546105679060006108e1565b6001600160a01b038116600090815260208190526040812054610567565b6001600160a01b03918216600090815260016020908152604080832093909416825291909152205490565b601290565b6000806108ed60025490565b9050801561090e57610909610900610438565b85908386610eb3565b6107e6565b836107e6565b6001600160a01b0383166109765760405162461bcd60e51b8152602060048201526024808201527f45524332303a20617070726f76652066726f6d20746865207a65726f206164646044820152637265737360e01b606482015260840161064e565b6001600160a01b0382166109d75760405162461bcd60e51b815260206004820152602260248201527f45524332303a20617070726f766520746f20746865207a65726f206164647265604482015261737360f01b606482015260840161064e565b6001600160a01b0383811660008181526001602090815260408083209487168084529482529182902085905590518481527f8c5be1e5ebec7d5bd14f71427d1e84f3dd0314c0f7b2291e5b200ac8c7c3b925910160405180910390a3505050565b600080610a4460025490565b9050831580610a51575080155b61090e5761090981610a61610438565b86919086610eb3565b6000610a7684846108b1565b90506000198114610ade5781811015610ad15760405162461bcd60e51b815260206004820152601d60248201527f45524332303a20696e73756666696369656e7420616c6c6f77616e6365000000604482015260640161064e565b610ade8484848403610914565b50505050565b6001600160a01b038316610b485760405162461bcd60e51b815260206004820152602560248201527f45524332303a207472616e736665722066726f6d20746865207a65726f206164604482015264647265737360d81b606482015260840161064e565b6001600160a01b038216610baa5760405162461bcd60e51b815260206004820152602360248201527f45524332303a207472616e7366657220746f20746865207a65726f206164647260448201526265737360e81b606482015260840161064e565b6001600160a01b03831660009081526020819052604090205481811015610c225760405162461bcd60e51b815260206004820152602660248201527f45524332303a207472616e7366657220616d6f756e7420657863656564732062604482015265616c616e636560d01b606482015260840161064e565b6001600160a01b03848116600081815260208181526040808320878703905593871680835291849020805487019055925185815290927fddf252ad1be2c89b69c2b068fc378daa952ba7f163c4a11628f55a4df523b3ef910160405180910390a3610ade565b600080610c93610438565b11806104c35750506002541590565b610cce7f0000000000000000000000000000000000000000000000000000000000000000853085610f15565b610cd88382610d34565b826001600160a01b0316846001600160a01b03167fdcbc1c05240f31ff3ad067ef1ee35ce4997762752e3a095284754544f4c709d78484604051610d26929190918252602082015260400190565b60405180910390a350505050565b6001600160a01b038216610d8a5760405162461bcd60e51b815260206004820152601f60248201527f45524332303a206d696e7420746f20746865207a65726f206164647265737300604482015260640161064e565b8060026000828254610d9c9190611578565b90915550506001600160a01b038216600081815260208181526040808320805486019055518481527fddf252ad1be2c89b69c2b068fc378daa952ba7f163c4a11628f55a4df523b3ef910160405180910390a35050565b826001600160a01b0316856001600160a01b031614610e1757610e17838683610a6a565b610e218382610f80565b610e4c7f000000000000000000000000000000000000000000000000000000000000000085846110b2565b826001600160a01b0316846001600160a01b0316866001600160a01b03167ffbde797d201c681b91056529119e0b02407c7bb96a4a2c75c01fc9667232c8db8585604051610ea4929190918252602082015260400190565b60405180910390a45050505050565b600080610ec18686866110e2565b90506001836002811115610ed757610ed7611599565b148015610ef4575060008480610eef57610eef6115af565b868809115b15610f0757610f04600182611578565b90505b95945050505050565b505050565b6040516001600160a01b0380851660248301528316604482015260648101829052610ade9085906323b872dd60e01b906084015b60408051601f198184030181529190526020810180516001600160e01b03166001600160e01b031990931692909217909152611191565b6001600160a01b038216610fe05760405162461bcd60e51b815260206004820152602160248201527f45524332303a206275726e2066726f6d20746865207a65726f206164647265736044820152607360f81b606482015260840161064e565b6001600160a01b038216600090815260208190526040902054818110156110545760405162461bcd60e51b815260206004820152602260248201527f45524332303a206275726e20616d6f756e7420657863656564732062616c616e604482015261636560f01b606482015260840161064e565b6001600160a01b0383166000818152602081815260408083208686039055600280548790039055518581529192917fddf252ad1be2c89b69c2b068fc378daa952ba7f163c4a11628f55a4df523b3ef910160405180910390a3505050565b6040516001600160a01b038316602482015260448101829052610f1090849063a9059cbb60e01b90606401610f49565b600080806000198587098587029250828110838203039150508060000361111c57838281611112576111126115af565b04925050506105b1565b80841161112857600080fd5b60008486880960026001871981018816978890046003810283188082028403028082028403028082028403028082028403028082028403029081029092039091026000889003889004909101858311909403939093029303949094049190911702949350505050565b60006111e6826040518060400160405280602081526020017f5361666545524332303a206c6f772d6c6576656c2063616c6c206661696c6564815250856001600160a01b03166112639092919063ffffffff16565b805190915015610f10578080602001905181019061120491906115c5565b610f105760405162461bcd60e51b815260206004820152602a60248201527f5361666545524332303a204552433230206f7065726174696f6e20646964206e6044820152691bdd081cdd58d8d9595960b21b606482015260840161064e565b60606107e6848460008585600080866001600160a01b0316858760405161128a91906115e7565b60006040518083038185875af1925050503d80600081146112c7576040519150601f19603f3d011682016040523d82523d6000602084013e6112cc565b606091505b50915091506112dd878383876112e8565b979650505050505050565b60608315611357578251600003611350576001600160a01b0385163b6113505760405162461bcd60e51b815260206004820152601d60248201527f416464726573733a2063616c6c20746f206e6f6e2d636f6e7472616374000000604482015260640161064e565b50816107e6565b6107e6838381511561136c5781518083602001fd5b8060405162461bcd60e51b815260040161064e91906113aa565b60005b838110156113a1578181015183820152602001611389565b50506000910152565b60208152600082518060208401526113c9816040850160208701611386565b601f01601f19169190910160400192915050565b6000602082840312156113ef57600080fd5b5035919050565b80356001600160a01b038116811461140d57600080fd5b919050565b6000806040838503121561142557600080fd5b61142e836113f6565b946020939093013593505050565b60008060006060848603121561145157600080fd5b61145a846113f6565b9250611468602085016113f6565b9150604084013590509250925092565b60006020828403121561148a57600080fd5b6105b1826113f6565b600080604083850312156114a657600080fd5b823591506114b6602084016113f6565b90509250929050565b6000806000606084860312156114d457600080fd5b833592506114e4602085016113f6565b91506114f2604085016113f6565b90509250925092565b6000806040838503121561150e57600080fd5b611517836113f6565b91506114b6602084016113f6565b60006020828403121561153757600080fd5b5051919050565b600181811c9082168061155257607f821691505b60208210810361157257634e487b7160e01b600052602260045260246000fd5b50919050565b8082018082111561056757634e487b7160e01b600052601160045260246000fd5b634e487b7160e01b600052602160045260246000fd5b634e487b7160e01b600052601260045260246000fd5b6000602082840312156115d757600080fd5b815180151581146105b157600080fd5b600082516115f9818460208701611386565b919091019291505056fea264697066735822122056ae9f477c456970de49276c6207c9dfa80179390a70cd82fb130946f9e9fc1364736f6c63430008110033",
					"opcodes": "PUSH1 0xC0 PUSH1 0x40 MSTORE CALLVALUE DUP1 ISZERO PUSH3 0x11 JUMPI PUSH1 0x0 DUP1 REVERT JUMPDEST POP PUSH1 0x40 MLOAD PUSH3 0x1B35 CODESIZE SUB DUP1 PUSH3 0x1B35 DUP4 CODECOPY DUP2 ADD PUSH1 0x40 DUP2 SWAP1 MSTORE PUSH3 0x34 SWAP2 PUSH3 0x29A JUMP JUMPDEST DUP4 DUP4 DUP4 PUSH1 0x3 PUSH3 0x45 DUP4 DUP3 PUSH3 0x3BD JUMP JUMPDEST POP PUSH1 0x4 PUSH3 0x54 DUP3 DUP3 PUSH3 0x3BD JUMP JUMPDEST POP POP POP PUSH1 0x0 DUP1 PUSH3 0x6B DUP4 PUSH3 0xCA PUSH1 0x20 SHL PUSH1 0x20 SHR JUMP JUMPDEST SWAP2 POP SWAP2 POP DUP2 PUSH3 0x90 JUMPI PUSH3 0x8A PUSH3 0x1AF PUSH1 0x20 SHL PUSH3 0x8DC OR PUSH1 0x20 SHR JUMP JUMPDEST PUSH3 0x92 JUMP JUMPDEST DUP1 JUMPDEST PUSH1 0xFF AND PUSH1 0xA0 MSTORE POP POP PUSH1 0x1 PUSH1 0x1 PUSH1 0xA0 SHL SUB SWAP1 DUP2 AND PUSH1 0x80 MSTORE PUSH1 0x5 DUP1 SLOAD PUSH1 0x1 PUSH1 0x1 PUSH1 0xA0 SHL SUB NOT AND SWAP3 SWAP1 SWAP2 AND SWAP2 SWAP1 SWAP2 OR SWAP1 SSTORE POP PUSH3 0x4C1 SWAP2 POP POP JUMP JUMPDEST PUSH1 0x40 DUP1 MLOAD PUSH1 0x4 DUP2 MSTORE PUSH1 0x24 DUP2 ADD DUP3 MSTORE PUSH1 0x20 DUP2 ADD DUP1 MLOAD PUSH1 0x1 PUSH1 0x1 PUSH1 0xE0 SHL SUB AND PUSH4 0x313CE567 PUSH1 0xE0 SHL OR SWAP1 MSTORE SWAP1 MLOAD PUSH1 0x0 SWAP2 DUP3 SWAP2 DUP3 SWAP2 DUP3 SWAP2 PUSH1 0x1 PUSH1 0x1 PUSH1 0xA0 SHL SUB DUP8 AND SWAP2 PUSH3 0x113 SWAP2 PUSH3 0x489 JUMP JUMPDEST PUSH1 0x0 PUSH1 0x40 MLOAD DUP1 DUP4 SUB DUP2 DUP6 GAS STATICCALL SWAP2 POP POP RETURNDATASIZE DUP1 PUSH1 0x0 DUP2 EQ PUSH3 0x150 JUMPI PUSH1 0x40 MLOAD SWAP2 POP PUSH1 0x1F NOT PUSH1 0x3F RETURNDATASIZE ADD AND DUP3 ADD PUSH1 0x40 MSTORE RETURNDATASIZE DUP3 MSTORE RETURNDATASIZE PUSH1 0x0 PUSH1 0x20 DUP5 ADD RETURNDATACOPY PUSH3 0x155 JUMP JUMPDEST PUSH1 0x60 SWAP2 POP JUMPDEST POP SWAP2 POP SWAP2 POP DUP2 DUP1 ISZERO PUSH3 0x16A JUMPI POP PUSH1 0x20 DUP2 MLOAD LT ISZERO JUMPDEST ISZERO PUSH3 0x1A2 JUMPI PUSH1 0x0 DUP2 DUP1 PUSH1 0x20 ADD SWAP1 MLOAD DUP2 ADD SWAP1 PUSH3 0x188 SWAP2 SWAP1 PUSH3 0x4A7 JUMP JUMPDEST SWAP1 POP PUSH1 0xFF DUP2 GT PUSH3 0x1A0 JUMPI PUSH1 0x1 SWAP7 SWAP1 SWAP6 POP SWAP4 POP POP POP POP JUMP JUMPDEST POP JUMPDEST POP PUSH1 0x0 SWAP5 DUP6 SWAP5 POP SWAP3 POP POP POP JUMP JUMPDEST PUSH1 0x12 SWAP1 JUMP JUMPDEST PUSH1 0x1 PUSH1 0x1 PUSH1 0xA0 SHL SUB DUP2 AND DUP2 EQ PUSH3 0x1CA JUMPI PUSH1 0x0 DUP1 REVERT JUMPDEST POP JUMP JUMPDEST PUSH4 0x4E487B71 PUSH1 0xE0 SHL PUSH1 0x0 MSTORE PUSH1 0x41 PUSH1 0x4 MSTORE PUSH1 0x24 PUSH1 0x0 REVERT JUMPDEST PUSH1 0x0 JUMPDEST DUP4 DUP2 LT ISZERO PUSH3 0x200 JUMPI DUP2 DUP2 ADD MLOAD DUP4 DUP3 ADD MSTORE PUSH1 0x20 ADD PUSH3 0x1E6 JUMP JUMPDEST POP POP PUSH1 0x0 SWAP2 ADD MSTORE JUMP JUMPDEST PUSH1 0x0 DUP3 PUSH1 0x1F DUP4 ADD SLT PUSH3 0x21B JUMPI PUSH1 0x0 DUP1 REVERT JUMPDEST DUP2 MLOAD PUSH1 0x1 PUSH1 0x1 PUSH1 0x40 SHL SUB DUP1 DUP3 GT ISZERO PUSH3 0x238 JUMPI PUSH3 0x238 PUSH3 0x1CD JUMP JUMPDEST PUSH1 0x40 MLOAD PUSH1 0x1F DUP4 ADD PUSH1 0x1F NOT SWAP1 DUP2 AND PUSH1 0x3F ADD AND DUP2 ADD SWAP1 DUP3 DUP3 GT DUP2 DUP4 LT OR ISZERO PUSH3 0x263 JUMPI PUSH3 0x263 PUSH3 0x1CD JUMP JUMPDEST DUP2 PUSH1 0x40 MSTORE DUP4 DUP2 MSTORE DUP7 PUSH1 0x20 DUP6 DUP9 ADD ADD GT ISZERO PUSH3 0x27D JUMPI PUSH1 0x0 DUP1 REVERT JUMPDEST PUSH3 0x290 DUP5 PUSH1 0x20 DUP4 ADD PUSH1 0x20 DUP10 ADD PUSH3 0x1E3 JUMP JUMPDEST SWAP7 SWAP6 POP POP POP POP POP POP JUMP JUMPDEST PUSH1 0x0 DUP1 PUSH1 0x0 DUP1 PUSH1 0x80 DUP6 DUP8 SUB SLT ISZERO PUSH3 0x2B1 JUMPI PUSH1 0x0 DUP1 REVERT JUMPDEST DUP5 MLOAD PUSH3 0x2BE DUP2 PUSH3 0x1B4 JUMP JUMPDEST PUSH1 0x20 DUP7 ADD MLOAD SWAP1 SWAP5 POP PUSH1 0x1 PUSH1 0x1 PUSH1 0x40 SHL SUB DUP1 DUP3 GT ISZERO PUSH3 0x2DC JUMPI PUSH1 0x0 DUP1 REVERT JUMPDEST PUSH3 0x2EA DUP9 DUP4 DUP10 ADD PUSH3 0x209 JUMP JUMPDEST SWAP5 POP PUSH1 0x40 DUP8 ADD MLOAD SWAP2 POP DUP1 DUP3 GT ISZERO PUSH3 0x301 JUMPI PUSH1 0x0 DUP1 REVERT JUMPDEST POP PUSH3 0x310 DUP8 DUP3 DUP9 ADD PUSH3 0x209 JUMP JUMPDEST SWAP3 POP POP PUSH1 0x60 DUP6 ADD MLOAD PUSH3 0x323 DUP2 PUSH3 0x1B4 JUMP JUMPDEST SWAP4 SWAP7 SWAP3 SWAP6 POP SWAP1 SWAP4 POP POP JUMP JUMPDEST PUSH1 0x1 DUP2 DUP2 SHR SWAP1 DUP3 AND DUP1 PUSH3 0x343 JUMPI PUSH1 0x7F DUP3 AND SWAP2 POP JUMPDEST PUSH1 0x20 DUP3 LT DUP2 SUB PUSH3 0x364 JUMPI PUSH4 0x4E487B71 PUSH1 0xE0 SHL PUSH1 0x0 MSTORE PUSH1 0x22 PUSH1 0x4 MSTORE PUSH1 0x24 PUSH1 0x0 REVERT JUMPDEST POP SWAP2 SWAP1 POP JUMP JUMPDEST PUSH1 0x1F DUP3 GT ISZERO PUSH3 0x3B8 JUMPI PUSH1 0x0 DUP2 DUP2 MSTORE PUSH1 0x20 DUP2 KECCAK256 PUSH1 0x1F DUP6 ADD PUSH1 0x5 SHR DUP2 ADD PUSH1 0x20 DUP7 LT ISZERO PUSH3 0x393 JUMPI POP DUP1 JUMPDEST PUSH1 0x1F DUP6 ADD PUSH1 0x5 SHR DUP3 ADD SWAP2 POP JUMPDEST DUP2 DUP2 LT ISZERO PUSH3 0x3B4 JUMPI DUP3 DUP2 SSTORE PUSH1 0x1 ADD PUSH3 0x39F JUMP JUMPDEST POP POP POP JUMPDEST POP POP POP JUMP JUMPDEST DUP2 MLOAD PUSH1 0x1 PUSH1 0x1 PUSH1 0x40 SHL SUB DUP2 GT ISZERO PUSH3 0x3D9 JUMPI PUSH3 0x3D9 PUSH3 0x1CD JUMP JUMPDEST PUSH3 0x3F1 DUP2 PUSH3 0x3EA DUP5 SLOAD PUSH3 0x32E JUMP JUMPDEST DUP5 PUSH3 0x36A JUMP JUMPDEST PUSH1 0x20 DUP1 PUSH1 0x1F DUP4 GT PUSH1 0x1 DUP2 EQ PUSH3 0x429 JUMPI PUSH1 0x0 DUP5 ISZERO PUSH3 0x410 JUMPI POP DUP6 DUP4 ADD MLOAD JUMPDEST PUSH1 0x0 NOT PUSH1 0x3 DUP7 SWAP1 SHL SHR NOT AND PUSH1 0x1 DUP6 SWAP1 SHL OR DUP6 SSTORE PUSH3 0x3B4 JUMP JUMPDEST PUSH1 0x0 DUP6 DUP2 MSTORE PUSH1 0x20 DUP2 KECCAK256 PUSH1 0x1F NOT DUP7 AND SWAP2 JUMPDEST DUP3 DUP2 LT ISZERO PUSH3 0x45A JUMPI DUP9 DUP7 ADD MLOAD DUP3 SSTORE SWAP5 DUP5 ADD SWAP5 PUSH1 0x1 SWAP1 SWAP2 ADD SWAP1 DUP5 ADD PUSH3 0x439 JUMP JUMPDEST POP DUP6 DUP3 LT ISZERO PUSH3 0x479 JUMPI DUP8 DUP6 ADD MLOAD PUSH1 0x0 NOT PUSH1 0x3 DUP9 SWAP1 SHL PUSH1 0xF8 AND SHR NOT AND DUP2 SSTORE JUMPDEST POP POP POP POP POP PUSH1 0x1 SWAP1 DUP2 SHL ADD SWAP1 SSTORE POP JUMP JUMPDEST PUSH1 0x0 DUP3 MLOAD PUSH3 0x49D DUP2 DUP5 PUSH1 0x20 DUP8 ADD PUSH3 0x1E3 JUMP JUMPDEST SWAP2 SWAP1 SWAP2 ADD SWAP3 SWAP2 POP POP JUMP JUMPDEST PUSH1 0x0 PUSH1 0x20 DUP3 DUP5 SUB SLT ISZERO PUSH3 0x4BA JUMPI PUSH1 0x0 DUP1 REVERT JUMPDEST POP MLOAD SWAP2 SWAP1 POP JUMP JUMPDEST PUSH1 0x80 MLOAD PUSH1 0xA0 MLOAD PUSH2 0x1639 PUSH3 0x4FC PUSH1 0x0 CODECOPY PUSH1 0x0 PUSH2 0x26F ADD MSTORE PUSH1 0x0 DUP2 DUP2 PUSH2 0x29B ADD MSTORE DUP2 DUP2 PUSH2 0x450 ADD MSTORE DUP2 DUP2 PUSH2 0xCA7 ADD MSTORE PUSH2 0xE26 ADD MSTORE PUSH2 0x1639 PUSH1 0x0 RETURN INVALID PUSH1 0x80 PUSH1 0x40 MSTORE CALLVALUE DUP1 ISZERO PUSH2 0x10 JUMPI PUSH1 0x0 DUP1 REVERT JUMPDEST POP PUSH1 0x4 CALLDATASIZE LT PUSH2 0x1CF JUMPI PUSH1 0x0 CALLDATALOAD PUSH1 0xE0 SHR DUP1 PUSH4 0x94BF804D GT PUSH2 0x104 JUMPI DUP1 PUSH4 0xBA087652 GT PUSH2 0xA2 JUMPI DUP1 PUSH4 0xD905777E GT PUSH2 0x71 JUMPI DUP1 PUSH4 0xD905777E EQ PUSH2 0x3FF JUMPI DUP1 PUSH4 0xDD62ED3E EQ PUSH2 0x412 JUMPI DUP1 PUSH4 0xEF8B30F7 EQ PUSH2 0x3D9 JUMPI DUP1 PUSH4 0xFC0C546A EQ PUSH2 0x425 JUMPI PUSH1 0x0 DUP1 REVERT JUMPDEST DUP1 PUSH4 0xBA087652 EQ PUSH2 0x3B1 JUMPI DUP1 PUSH4 0xC63D75B6 EQ PUSH2 0x3C4 JUMPI DUP1 PUSH4 0xC6E6F592 EQ PUSH2 0x3D9 JUMPI DUP1 PUSH4 0xCE96CB77 EQ PUSH2 0x3EC JUMPI PUSH1 0x0 DUP1 REVERT JUMPDEST DUP1 PUSH4 0xA457C2D7 GT PUSH2 0xDE JUMPI DUP1 PUSH4 0xA457C2D7 EQ PUSH2 0x365 JUMPI DUP1 PUSH4 0xA9059CBB EQ PUSH2 0x378 JUMPI DUP1 PUSH4 0xB3D7F6B9 EQ PUSH2 0x38B JUMPI DUP1 PUSH4 0xB460AF94 EQ PUSH2 0x39E JUMPI PUSH1 0x0 DUP1 REVERT JUMPDEST DUP1 PUSH4 0x94BF804D EQ PUSH2 0x335 JUMPI DUP1 PUSH4 0x95D89B41 EQ PUSH2 0x348 JUMPI DUP1 PUSH4 0xA0712D68 EQ PUSH2 0x350 JUMPI PUSH1 0x0 DUP1 REVERT JUMPDEST DUP1 PUSH4 0x313CE567 GT PUSH2 0x171 JUMPI DUP1 PUSH4 0x402D267D GT PUSH2 0x14B JUMPI DUP1 PUSH4 0x402D267D EQ PUSH2 0x2E6 JUMPI DUP1 PUSH4 0x4CDAD506 EQ PUSH2 0x204 JUMPI DUP1 PUSH4 0x6E553F65 EQ PUSH2 0x2F9 JUMPI DUP1 PUSH4 0x70A08231 EQ PUSH2 0x30C JUMPI PUSH1 0x0 DUP1 REVERT JUMPDEST DUP1 PUSH4 0x313CE567 EQ PUSH2 0x268 JUMPI DUP1 PUSH4 0x38D52E0F EQ PUSH2 0x299 JUMPI DUP1 PUSH4 0x39509351 EQ PUSH2 0x2D3 JUMPI PUSH1 0x0 DUP1 REVERT JUMPDEST DUP1 PUSH4 0x95EA7B3 GT PUSH2 0x1AD JUMPI DUP1 PUSH4 0x95EA7B3 EQ PUSH2 0x217 JUMPI DUP1 PUSH4 0xA28A477 EQ PUSH2 0x23A JUMPI DUP1 PUSH4 0x18160DDD EQ PUSH2 0x24D JUMPI DUP1 PUSH4 0x23B872DD EQ PUSH2 0x255 JUMPI PUSH1 0x0 DUP1 REVERT JUMPDEST DUP1 PUSH4 0x1E1D114 EQ PUSH2 0x1D4 JUMPI DUP1 PUSH4 0x6FDDE03 EQ PUSH2 0x1EF JUMPI DUP1 PUSH4 0x7A2D13A EQ PUSH2 0x204 JUMPI JUMPDEST PUSH1 0x0 DUP1 REVERT JUMPDEST PUSH2 0x1DC PUSH2 0x438 JUMP JUMPDEST PUSH1 0x40 MLOAD SWAP1 DUP2 MSTORE PUSH1 0x20 ADD JUMPDEST PUSH1 0x40 MLOAD DUP1 SWAP2 SUB SWAP1 RETURN JUMPDEST PUSH2 0x1F7 PUSH2 0x4C8 JUMP JUMPDEST PUSH1 0x40 MLOAD PUSH2 0x1E6 SWAP2 SWAP1 PUSH2 0x13AA JUMP JUMPDEST PUSH2 0x1DC PUSH2 0x212 CALLDATASIZE PUSH1 0x4 PUSH2 0x13DD JUMP JUMPDEST PUSH2 0x55A JUMP JUMPDEST PUSH2 0x22A PUSH2 0x225 CALLDATASIZE PUSH1 0x4 PUSH2 0x1412 JUMP JUMPDEST PUSH2 0x56D JUMP JUMPDEST PUSH1 0x40 MLOAD SWAP1 ISZERO ISZERO DUP2 MSTORE PUSH1 0x20 ADD PUSH2 0x1E6 JUMP JUMPDEST PUSH2 0x1DC PUSH2 0x248 CALLDATASIZE PUSH1 0x4 PUSH2 0x13DD JUMP JUMPDEST PUSH2 0x585 JUMP JUMPDEST PUSH1 0x2 SLOAD PUSH2 0x1DC JUMP JUMPDEST PUSH2 0x22A PUSH2 0x263 CALLDATASIZE PUSH1 0x4 PUSH2 0x143C JUMP JUMPDEST PUSH2 0x592 JUMP JUMPDEST PUSH1 0x40 MLOAD PUSH1 0xFF PUSH32 0x0 AND DUP2 MSTORE PUSH1 0x20 ADD PUSH2 0x1E6 JUMP JUMPDEST PUSH32 0x0 JUMPDEST PUSH1 0x40 MLOAD PUSH1 0x1 PUSH1 0x1 PUSH1 0xA0 SHL SUB SWAP1 SWAP2 AND DUP2 MSTORE PUSH1 0x20 ADD PUSH2 0x1E6 JUMP JUMPDEST PUSH2 0x22A PUSH2 0x2E1 CALLDATASIZE PUSH1 0x4 PUSH2 0x1412 JUMP JUMPDEST PUSH2 0x5B8 JUMP JUMPDEST PUSH2 0x1DC PUSH2 0x2F4 CALLDATASIZE PUSH1 0x4 PUSH2 0x1478 JUMP JUMPDEST PUSH2 0x5DA JUMP JUMPDEST PUSH2 0x1DC PUSH2 0x307 CALLDATASIZE PUSH1 0x4 PUSH2 0x1493 JUMP JUMPDEST PUSH2 0x5F8 JUMP JUMPDEST PUSH2 0x1DC PUSH2 0x31A CALLDATASIZE PUSH1 0x4 PUSH2 0x1478 JUMP JUMPDEST PUSH1 0x1 PUSH1 0x1 PUSH1 0xA0 SHL SUB AND PUSH1 0x0 SWAP1 DUP2 MSTORE PUSH1 0x20 DUP2 SWAP1 MSTORE PUSH1 0x40 SWAP1 KECCAK256 SLOAD SWAP1 JUMP JUMPDEST PUSH2 0x1DC PUSH2 0x343 CALLDATASIZE PUSH1 0x4 PUSH2 0x1493 JUMP JUMPDEST PUSH2 0x670 JUMP JUMPDEST PUSH2 0x1F7 PUSH2 0x68A JUMP JUMPDEST PUSH2 0x363 PUSH2 0x35E CALLDATASIZE PUSH1 0x4 PUSH2 0x13DD JUMP JUMPDEST PUSH2 0x699 JUMP JUMPDEST STOP JUMPDEST PUSH2 0x22A PUSH2 0x373 CALLDATASIZE PUSH1 0x4 PUSH2 0x1412 JUMP JUMPDEST PUSH2 0x6D1 JUMP JUMPDEST PUSH2 0x22A PUSH2 0x386 CALLDATASIZE PUSH1 0x4 PUSH2 0x1412 JUMP JUMPDEST PUSH2 0x757 JUMP JUMPDEST PUSH2 0x1DC PUSH2 0x399 CALLDATASIZE PUSH1 0x4 PUSH2 0x13DD JUMP JUMPDEST PUSH2 0x765 JUMP JUMPDEST PUSH2 0x1DC PUSH2 0x3AC CALLDATASIZE PUSH1 0x4 PUSH2 0x14BF JUMP JUMPDEST PUSH2 0x772 JUMP JUMPDEST PUSH2 0x1DC PUSH2 0x3BF CALLDATASIZE PUSH1 0x4 PUSH2 0x14BF JUMP JUMPDEST PUSH2 0x7EE JUMP JUMPDEST PUSH2 0x1DC PUSH2 0x3D2 CALLDATASIZE PUSH1 0x4 PUSH2 0x1478 JUMP JUMPDEST POP PUSH1 0x0 NOT SWAP1 JUMP JUMPDEST PUSH2 0x1DC PUSH2 0x3E7 CALLDATASIZE PUSH1 0x4 PUSH2 0x13DD JUMP JUMPDEST PUSH2 0x862 JUMP JUMPDEST PUSH2 0x1DC PUSH2 0x3FA CALLDATASIZE PUSH1 0x4 PUSH2 0x1478 JUMP JUMPDEST PUSH2 0x86F JUMP JUMPDEST PUSH2 0x1DC PUSH2 0x40D CALLDATASIZE PUSH1 0x4 PUSH2 0x1478 JUMP JUMPDEST PUSH2 0x893 JUMP JUMPDEST PUSH2 0x1DC PUSH2 0x420 CALLDATASIZE PUSH1 0x4 PUSH2 0x14FB JUMP JUMPDEST PUSH2 0x8B1 JUMP JUMPDEST PUSH1 0x6 SLOAD PUSH2 0x2BB SWAP1 PUSH1 0x1 PUSH1 0x1 PUSH1 0xA0 SHL SUB AND DUP2 JUMP JUMPDEST PUSH1 0x40 MLOAD PUSH4 0x70A08231 PUSH1 0xE0 SHL DUP2 MSTORE ADDRESS PUSH1 0x4 DUP3 ADD MSTORE PUSH1 0x0 SWAP1 PUSH32 0x0 PUSH1 0x1 PUSH1 0x1 PUSH1 0xA0 SHL SUB AND SWAP1 PUSH4 0x70A08231 SWAP1 PUSH1 0x24 ADD PUSH1 0x20 PUSH1 0x40 MLOAD DUP1 DUP4 SUB DUP2 DUP7 GAS STATICCALL ISZERO DUP1 ISZERO PUSH2 0x49F JUMPI RETURNDATASIZE PUSH1 0x0 DUP1 RETURNDATACOPY RETURNDATASIZE PUSH1 0x0 REVERT JUMPDEST POP POP POP POP PUSH1 0x40 MLOAD RETURNDATASIZE PUSH1 0x1F NOT PUSH1 0x1F DUP3 ADD AND DUP3 ADD DUP1 PUSH1 0x40 MSTORE POP DUP2 ADD SWAP1 PUSH2 0x4C3 SWAP2 SWAP1 PUSH2 0x1525 JUMP JUMPDEST SWAP1 POP SWAP1 JUMP JUMPDEST PUSH1 0x60 PUSH1 0x3 DUP1 SLOAD PUSH2 0x4D7 SWAP1 PUSH2 0x153E JUMP JUMPDEST DUP1 PUSH1 0x1F ADD PUSH1 0x20 DUP1 SWAP2 DIV MUL PUSH1 0x20 ADD PUSH1 0x40 MLOAD SWAP1 DUP2 ADD PUSH1 0x40 MSTORE DUP1 SWAP3 SWAP2 SWAP1 DUP2 DUP2 MSTORE PUSH1 0x20 ADD DUP3 DUP1 SLOAD PUSH2 0x503 SWAP1 PUSH2 0x153E JUMP JUMPDEST DUP1 ISZERO PUSH2 0x550 JUMPI DUP1 PUSH1 0x1F LT PUSH2 0x525 JUMPI PUSH2 0x100 DUP1 DUP4 SLOAD DIV MUL DUP4 MSTORE SWAP2 PUSH1 0x20 ADD SWAP2 PUSH2 0x550 JUMP JUMPDEST DUP3 ADD SWAP2 SWAP1 PUSH1 0x0 MSTORE PUSH1 0x20 PUSH1 0x0 KECCAK256 SWAP1 JUMPDEST DUP2 SLOAD DUP2 MSTORE SWAP1 PUSH1 0x1 ADD SWAP1 PUSH1 0x20 ADD DUP1 DUP4 GT PUSH2 0x533 JUMPI DUP3 SWAP1 SUB PUSH1 0x1F AND DUP3 ADD SWAP2 JUMPDEST POP POP POP POP POP SWAP1 POP SWAP1 JUMP JUMPDEST PUSH1 0x0 PUSH2 0x567 DUP3 PUSH1 0x0 PUSH2 0x8E1 JUMP JUMPDEST SWAP3 SWAP2 POP POP JUMP JUMPDEST PUSH1 0x0 CALLER PUSH2 0x57B DUP2 DUP6 DUP6 PUSH2 0x914 JUMP JUMPDEST POP PUSH1 0x1 SWAP4 SWAP3 POP POP POP JUMP JUMPDEST PUSH1 0x0 PUSH2 0x567 DUP3 PUSH1 0x1 PUSH2 0xA38 JUMP JUMPDEST PUSH1 0x0 CALLER PUSH2 0x5A0 DUP6 DUP3 DUP6 PUSH2 0xA6A JUMP JUMPDEST PUSH2 0x5AB DUP6 DUP6 DUP6 PUSH2 0xAE4 JUMP JUMPDEST PUSH1 0x1 SWAP2 POP POP JUMPDEST SWAP4 SWAP3 POP POP POP JUMP JUMPDEST PUSH1 0x0 CALLER PUSH2 0x57B DUP2 DUP6 DUP6 PUSH2 0x5CB DUP4 DUP4 PUSH2 0x8B1 JUMP JUMPDEST PUSH2 0x5D5 SWAP2 SWAP1 PUSH2 0x1578 JUMP JUMPDEST PUSH2 0x914 JUMP JUMPDEST PUSH1 0x0 PUSH2 0x5E4 PUSH2 0xC88 JUMP JUMPDEST PUSH2 0x5EF JUMPI PUSH1 0x0 PUSH2 0x567 JUMP JUMPDEST PUSH1 0x0 NOT SWAP3 SWAP2 POP POP JUMP JUMPDEST PUSH1 0x0 PUSH2 0x603 DUP3 PUSH2 0x5DA JUMP JUMPDEST DUP4 GT ISZERO PUSH2 0x657 JUMPI PUSH1 0x40 MLOAD PUSH3 0x461BCD PUSH1 0xE5 SHL DUP2 MSTORE PUSH1 0x20 PUSH1 0x4 DUP3 ADD MSTORE PUSH1 0x1E PUSH1 0x24 DUP3 ADD MSTORE PUSH32 0x455243343632363A206465706F736974206D6F7265207468616E206D61780000 PUSH1 0x44 DUP3 ADD MSTORE PUSH1 0x64 ADD JUMPDEST PUSH1 0x40 MLOAD DUP1 SWAP2 SUB SWAP1 REVERT JUMPDEST PUSH1 0x0 PUSH2 0x662 DUP5 PUSH2 0x862 JUMP JUMPDEST SWAP1 POP PUSH2 0x5B1 CALLER DUP5 DUP7 DUP5 PUSH2 0xCA2 JUMP JUMPDEST PUSH1 0x0 DUP1 PUSH2 0x67C DUP5 PUSH2 0x765 JUMP JUMPDEST SWAP1 POP PUSH2 0x5B1 CALLER DUP5 DUP4 DUP8 PUSH2 0xCA2 JUMP JUMPDEST PUSH1 0x60 PUSH1 0x4 DUP1 SLOAD PUSH2 0x4D7 SWAP1 PUSH2 0x153E JUMP JUMPDEST PUSH1 0x5 SLOAD PUSH1 0x1 PUSH1 0x1 PUSH1 0xA0 SHL SUB AND CALLER EQ PUSH2 0x6C4 JUMPI PUSH1 0x40 MLOAD PUSH4 0x3731F4C5 PUSH1 0xE2 SHL DUP2 MSTORE PUSH1 0x4 ADD PUSH1 0x40 MLOAD DUP1 SWAP2 SUB SWAP1 REVERT JUMPDEST PUSH2 0x6CE CALLER DUP3 PUSH2 0xD34 JUMP JUMPDEST POP JUMP JUMPDEST PUSH1 0x0 CALLER DUP2 PUSH2 0x6DF DUP3 DUP7 PUSH2 0x8B1 JUMP JUMPDEST SWAP1 POP DUP4 DUP2 LT ISZERO PUSH2 0x73F JUMPI PUSH1 0x40 MLOAD PUSH3 0x461BCD PUSH1 0xE5 SHL DUP2 MSTORE PUSH1 0x20 PUSH1 0x4 DUP3 ADD MSTORE PUSH1 0x25 PUSH1 0x24 DUP3 ADD MSTORE PUSH32 0x45524332303A2064656372656173656420616C6C6F77616E63652062656C6F77 PUSH1 0x44 DUP3 ADD MSTORE PUSH5 0x207A65726F PUSH1 0xD8 SHL PUSH1 0x64 DUP3 ADD MSTORE PUSH1 0x84 ADD PUSH2 0x64E JUMP JUMPDEST PUSH2 0x74C DUP3 DUP7 DUP7 DUP5 SUB PUSH2 0x914 JUMP JUMPDEST POP PUSH1 0x1 SWAP5 SWAP4 POP POP POP POP JUMP JUMPDEST PUSH1 0x0 CALLER PUSH2 0x57B DUP2 DUP6 DUP6 PUSH2 0xAE4 JUMP JUMPDEST PUSH1 0x0 PUSH2 0x567 DUP3 PUSH1 0x1 PUSH2 0x8E1 JUMP JUMPDEST PUSH1 0x0 PUSH2 0x77D DUP3 PUSH2 0x86F JUMP JUMPDEST DUP5 GT ISZERO PUSH2 0x7CC JUMPI PUSH1 0x40 MLOAD PUSH3 0x461BCD PUSH1 0xE5 SHL DUP2 MSTORE PUSH1 0x20 PUSH1 0x4 DUP3 ADD MSTORE PUSH1 0x1F PUSH1 0x24 DUP3 ADD MSTORE PUSH32 0x455243343632363A207769746864726177206D6F7265207468616E206D617800 PUSH1 0x44 DUP3 ADD MSTORE PUSH1 0x64 ADD PUSH2 0x64E JUMP JUMPDEST PUSH1 0x0 PUSH2 0x7D7 DUP6 PUSH2 0x585 JUMP JUMPDEST SWAP1 POP PUSH2 0x7E6 CALLER DUP6 DUP6 DUP9 DUP6 PUSH2 0xDF3 JUMP JUMPDEST SWAP5 SWAP4 POP POP POP POP JUMP JUMPDEST PUSH1 0x0 PUSH2 0x7F9 DUP3 PUSH2 0x893 JUMP JUMPDEST DUP5 GT ISZERO PUSH2 0x848 JUMPI PUSH1 0x40 MLOAD PUSH3 0x461BCD PUSH1 0xE5 SHL DUP2 MSTORE PUSH1 0x20 PUSH1 0x4 DUP3 ADD MSTORE PUSH1 0x1D PUSH1 0x24 DUP3 ADD MSTORE PUSH32 0x455243343632363A2072656465656D206D6F7265207468616E206D6178000000 PUSH1 0x44 DUP3 ADD MSTORE PUSH1 0x64 ADD PUSH2 0x64E JUMP JUMPDEST PUSH1 0x0 PUSH2 0x853 DUP6 PUSH2 0x55A JUMP JUMPDEST SWAP1 POP PUSH2 0x7E6 CALLER DUP6 DUP6 DUP5 DUP10 PUSH2 0xDF3 JUMP JUMPDEST PUSH1 0x0 PUSH2 0x567 DUP3 PUSH1 0x0 PUSH2 0xA38 JUMP JUMPDEST PUSH1 0x1 PUSH1 0x1 PUSH1 0xA0 SHL SUB DUP2 AND PUSH1 0x0 SWAP1 DUP2 MSTORE PUSH1 0x20 DUP2 SWAP1 MSTORE PUSH1 0x40 DUP2 KECCAK256 SLOAD PUSH2 0x567 SWAP1 PUSH1 0x0 PUSH2 0x8E1 JUMP JUMPDEST PUSH1 0x1 PUSH1 0x1 PUSH1 0xA0 SHL SUB DUP2 AND PUSH1 0x0 SWAP1 DUP2 MSTORE PUSH1 0x20 DUP2 SWAP1 MSTORE PUSH1 0x40 DUP2 KECCAK256 SLOAD PUSH2 0x567 JUMP JUMPDEST PUSH1 0x1 PUSH1 0x1 PUSH1 0xA0 SHL SUB SWAP2 DUP3 AND PUSH1 0x0 SWAP1 DUP2 MSTORE PUSH1 0x1 PUSH1 0x20 SWAP1 DUP2 MSTORE PUSH1 0x40 DUP1 DUP4 KECCAK256 SWAP4 SWAP1 SWAP5 AND DUP3 MSTORE SWAP2 SWAP1 SWAP2 MSTORE KECCAK256 SLOAD SWAP1 JUMP JUMPDEST PUSH1 0x12 SWAP1 JUMP JUMPDEST PUSH1 0x0 DUP1 PUSH2 0x8ED PUSH1 0x2 SLOAD SWAP1 JUMP JUMPDEST SWAP1 POP DUP1 ISZERO PUSH2 0x90E JUMPI PUSH2 0x909 PUSH2 0x900 PUSH2 0x438 JUMP JUMPDEST DUP6 SWAP1 DUP4 DUP7 PUSH2 0xEB3 JUMP JUMPDEST PUSH2 0x7E6 JUMP JUMPDEST DUP4 PUSH2 0x7E6 JUMP JUMPDEST PUSH1 0x1 PUSH1 0x1 PUSH1 0xA0 SHL SUB DUP4 AND PUSH2 0x976 JUMPI PUSH1 0x40 MLOAD PUSH3 0x461BCD PUSH1 0xE5 SHL DUP2 MSTORE PUSH1 0x20 PUSH1 0x4 DUP3 ADD MSTORE PUSH1 0x24 DUP1 DUP3 ADD MSTORE PUSH32 0x45524332303A20617070726F76652066726F6D20746865207A65726F20616464 PUSH1 0x44 DUP3 ADD MSTORE PUSH4 0x72657373 PUSH1 0xE0 SHL PUSH1 0x64 DUP3 ADD MSTORE PUSH1 0x84 ADD PUSH2 0x64E JUMP JUMPDEST PUSH1 0x1 PUSH1 0x1 PUSH1 0xA0 SHL SUB DUP3 AND PUSH2 0x9D7 JUMPI PUSH1 0x40 MLOAD PUSH3 0x461BCD PUSH1 0xE5 SHL DUP2 MSTORE PUSH1 0x20 PUSH1 0x4 DUP3 ADD MSTORE PUSH1 0x22 PUSH1 0x24 DUP3 ADD MSTORE PUSH32 0x45524332303A20617070726F766520746F20746865207A65726F206164647265 PUSH1 0x44 DUP3 ADD MSTORE PUSH2 0x7373 PUSH1 0xF0 SHL PUSH1 0x64 DUP3 ADD MSTORE PUSH1 0x84 ADD PUSH2 0x64E JUMP JUMPDEST PUSH1 0x1 PUSH1 0x1 PUSH1 0xA0 SHL SUB DUP4 DUP2 AND PUSH1 0x0 DUP2 DUP2 MSTORE PUSH1 0x1 PUSH1 0x20 SWAP1 DUP2 MSTORE PUSH1 0x40 DUP1 DUP4 KECCAK256 SWAP5 DUP8 AND DUP1 DUP5 MSTORE SWAP5 DUP3 MSTORE SWAP2 DUP3 SWAP1 KECCAK256 DUP6 SWAP1 SSTORE SWAP1 MLOAD DUP5 DUP2 MSTORE PUSH32 0x8C5BE1E5EBEC7D5BD14F71427D1E84F3DD0314C0F7B2291E5B200AC8C7C3B925 SWAP2 ADD PUSH1 0x40 MLOAD DUP1 SWAP2 SUB SWAP1 LOG3 POP POP POP JUMP JUMPDEST PUSH1 0x0 DUP1 PUSH2 0xA44 PUSH1 0x2 SLOAD SWAP1 JUMP JUMPDEST SWAP1 POP DUP4 ISZERO DUP1 PUSH2 0xA51 JUMPI POP DUP1 ISZERO JUMPDEST PUSH2 0x90E JUMPI PUSH2 0x909 DUP2 PUSH2 0xA61 PUSH2 0x438 JUMP JUMPDEST DUP7 SWAP2 SWAP1 DUP7 PUSH2 0xEB3 JUMP JUMPDEST PUSH1 0x0 PUSH2 0xA76 DUP5 DUP5 PUSH2 0x8B1 JUMP JUMPDEST SWAP1 POP PUSH1 0x0 NOT DUP2 EQ PUSH2 0xADE JUMPI DUP2 DUP2 LT ISZERO PUSH2 0xAD1 JUMPI PUSH1 0x40 MLOAD PUSH3 0x461BCD PUSH1 0xE5 SHL DUP2 MSTORE PUSH1 0x20 PUSH1 0x4 DUP3 ADD MSTORE PUSH1 0x1D PUSH1 0x24 DUP3 ADD MSTORE PUSH32 0x45524332303A20696E73756666696369656E7420616C6C6F77616E6365000000 PUSH1 0x44 DUP3 ADD MSTORE PUSH1 0x64 ADD PUSH2 0x64E JUMP JUMPDEST PUSH2 0xADE DUP5 DUP5 DUP5 DUP5 SUB PUSH2 0x914 JUMP JUMPDEST POP POP POP POP JUMP JUMPDEST PUSH1 0x1 PUSH1 0x1 PUSH1 0xA0 SHL SUB DUP4 AND PUSH2 0xB48 JUMPI PUSH1 0x40 MLOAD PUSH3 0x461BCD PUSH1 0xE5 SHL DUP2 MSTORE PUSH1 0x20 PUSH1 0x4 DUP3 ADD MSTORE PUSH1 0x25 PUSH1 0x24 DUP3 ADD MSTORE PUSH32 0x45524332303A207472616E736665722066726F6D20746865207A65726F206164 PUSH1 0x44 DUP3 ADD MSTORE PUSH5 0x6472657373 PUSH1 0xD8 SHL PUSH1 0x64 DUP3 ADD MSTORE PUSH1 0x84 ADD PUSH2 0x64E JUMP JUMPDEST PUSH1 0x1 PUSH1 0x1 PUSH1 0xA0 SHL SUB DUP3 AND PUSH2 0xBAA JUMPI PUSH1 0x40 MLOAD PUSH3 0x461BCD PUSH1 0xE5 SHL DUP2 MSTORE PUSH1 0x20 PUSH1 0x4 DUP3 ADD MSTORE PUSH1 0x23 PUSH1 0x24 DUP3 ADD MSTORE PUSH32 0x45524332303A207472616E7366657220746F20746865207A65726F2061646472 PUSH1 0x44 DUP3 ADD MSTORE PUSH3 0x657373 PUSH1 0xE8 SHL PUSH1 0x64 DUP3 ADD MSTORE PUSH1 0x84 ADD PUSH2 0x64E JUMP JUMPDEST PUSH1 0x1 PUSH1 0x1 PUSH1 0xA0 SHL SUB DUP4 AND PUSH1 0x0 SWAP1 DUP2 MSTORE PUSH1 0x20 DUP2 SWAP1 MSTORE PUSH1 0x40 SWAP1 KECCAK256 SLOAD DUP2 DUP2 LT ISZERO PUSH2 0xC22 JUMPI PUSH1 0x40 MLOAD PUSH3 0x461BCD PUSH1 0xE5 SHL DUP2 MSTORE PUSH1 0x20 PUSH1 0x4 DUP3 ADD MSTORE PUSH1 0x26 PUSH1 0x24 DUP3 ADD MSTORE PUSH32 0x45524332303A207472616E7366657220616D6F756E7420657863656564732062 PUSH1 0x44 DUP3 ADD MSTORE PUSH6 0x616C616E6365 PUSH1 0xD0 SHL PUSH1 0x64 DUP3 ADD MSTORE PUSH1 0x84 ADD PUSH2 0x64E JUMP JUMPDEST PUSH1 0x1 PUSH1 0x1 PUSH1 0xA0 SHL SUB DUP5 DUP2 AND PUSH1 0x0 DUP2 DUP2 MSTORE PUSH1 0x20 DUP2 DUP2 MSTORE PUSH1 0x40 DUP1 DUP4 KECCAK256 DUP8 DUP8 SUB SWAP1 SSTORE SWAP4 DUP8 AND DUP1 DUP4 MSTORE SWAP2 DUP5 SWAP1 KECCAK256 DUP1 SLOAD DUP8 ADD SWAP1 SSTORE SWAP3 MLOAD DUP6 DUP2 MSTORE SWAP1 SWAP3 PUSH32 0xDDF252AD1BE2C89B69C2B068FC378DAA952BA7F163C4A11628F55A4DF523B3EF SWAP2 ADD PUSH1 0x40 MLOAD DUP1 SWAP2 SUB SWAP1 LOG3 PUSH2 0xADE JUMP JUMPDEST PUSH1 0x0 DUP1 PUSH2 0xC93 PUSH2 0x438 JUMP JUMPDEST GT DUP1 PUSH2 0x4C3 JUMPI POP POP PUSH1 0x2 SLOAD ISZERO SWAP1 JUMP JUMPDEST PUSH2 0xCCE PUSH32 0x0 DUP6 ADDRESS DUP6 PUSH2 0xF15 JUMP JUMPDEST PUSH2 0xCD8 DUP4 DUP3 PUSH2 0xD34 JUMP JUMPDEST DUP3 PUSH1 0x1 PUSH1 0x1 PUSH1 0xA0 SHL SUB AND DUP5 PUSH1 0x1 PUSH1 0x1 PUSH1 0xA0 SHL SUB AND PUSH32 0xDCBC1C05240F31FF3AD067EF1EE35CE4997762752E3A095284754544F4C709D7 DUP5 DUP5 PUSH1 0x40 MLOAD PUSH2 0xD26 SWAP3 SWAP2 SWAP1 SWAP2 DUP3 MSTORE PUSH1 0x20 DUP3 ADD MSTORE PUSH1 0x40 ADD SWAP1 JUMP JUMPDEST PUSH1 0x40 MLOAD DUP1 SWAP2 SUB SWAP1 LOG3 POP POP POP POP JUMP JUMPDEST PUSH1 0x1 PUSH1 0x1 PUSH1 0xA0 SHL SUB DUP3 AND PUSH2 0xD8A JUMPI PUSH1 0x40 MLOAD PUSH3 0x461BCD PUSH1 0xE5 SHL DUP2 MSTORE PUSH1 0x20 PUSH1 0x4 DUP3 ADD MSTORE PUSH1 0x1F PUSH1 0x24 DUP3 ADD MSTORE PUSH32 0x45524332303A206D696E7420746F20746865207A65726F206164647265737300 PUSH1 0x44 DUP3 ADD MSTORE PUSH1 0x64 ADD PUSH2 0x64E JUMP JUMPDEST DUP1 PUSH1 0x2 PUSH1 0x0 DUP3 DUP3 SLOAD PUSH2 0xD9C SWAP2 SWAP1 PUSH2 0x1578 JUMP JUMPDEST SWAP1 SWAP2 SSTORE POP POP PUSH1 0x1 PUSH1 0x1 PUSH1 0xA0 SHL SUB DUP3 AND PUSH1 0x0 DUP2 DUP2 MSTORE PUSH1 0x20 DUP2 DUP2 MSTORE PUSH1 0x40 DUP1 DUP4 KECCAK256 DUP1 SLOAD DUP7 ADD SWAP1 SSTORE MLOAD DUP5 DUP2 MSTORE PUSH32 0xDDF252AD1BE2C89B69C2B068FC378DAA952BA7F163C4A11628F55A4DF523B3EF SWAP2 ADD PUSH1 0x40 MLOAD DUP1 SWAP2 SUB SWAP1 LOG3 POP POP JUMP JUMPDEST DUP3 PUSH1 0x1 PUSH1 0x1 PUSH1 0xA0 SHL SUB AND DUP6 PUSH1 0x1 PUSH1 0x1 PUSH1 0xA0 SHL SUB AND EQ PUSH2 0xE17 JUMPI PUSH2 0xE17 DUP4 DUP7 DUP4 PUSH2 0xA6A JUMP JUMPDEST PUSH2 0xE21 DUP4 DUP3 PUSH2 0xF80 JUMP JUMPDEST PUSH2 0xE4C PUSH32 0x0 DUP6 DUP5 PUSH2 0x10B2 JUMP JUMPDEST DUP3 PUSH1 0x1 PUSH1 0x1 PUSH1 0xA0 SHL SUB AND DUP5 PUSH1 0x1 PUSH1 0x1 PUSH1 0xA0 SHL SUB AND DUP7 PUSH1 0x1 PUSH1 0x1 PUSH1 0xA0 SHL SUB AND PUSH32 0xFBDE797D201C681B91056529119E0B02407C7BB96A4A2C75C01FC9667232C8DB DUP6 DUP6 PUSH1 0x40 MLOAD PUSH2 0xEA4 SWAP3 SWAP2 SWAP1 SWAP2 DUP3 MSTORE PUSH1 0x20 DUP3 ADD MSTORE PUSH1 0x40 ADD SWAP1 JUMP JUMPDEST PUSH1 0x40 MLOAD DUP1 SWAP2 SUB SWAP1 LOG4 POP POP POP POP POP JUMP JUMPDEST PUSH1 0x0 DUP1 PUSH2 0xEC1 DUP7 DUP7 DUP7 PUSH2 0x10E2 JUMP JUMPDEST SWAP1 POP PUSH1 0x1 DUP4 PUSH1 0x2 DUP2 GT ISZERO PUSH2 0xED7 JUMPI PUSH2 0xED7 PUSH2 0x1599 JUMP JUMPDEST EQ DUP1 ISZERO PUSH2 0xEF4 JUMPI POP PUSH1 0x0 DUP5 DUP1 PUSH2 0xEEF JUMPI PUSH2 0xEEF PUSH2 0x15AF JUMP JUMPDEST DUP7 DUP9 MULMOD GT JUMPDEST ISZERO PUSH2 0xF07 JUMPI PUSH2 0xF04 PUSH1 0x1 DUP3 PUSH2 0x1578 JUMP JUMPDEST SWAP1 POP JUMPDEST SWAP6 SWAP5 POP POP POP POP POP JUMP JUMPDEST POP POP POP JUMP JUMPDEST PUSH1 0x40 MLOAD PUSH1 0x1 PUSH1 0x1 PUSH1 0xA0 SHL SUB DUP1 DUP6 AND PUSH1 0x24 DUP4 ADD MSTORE DUP4 AND PUSH1 0x44 DUP3 ADD MSTORE PUSH1 0x64 DUP2 ADD DUP3 SWAP1 MSTORE PUSH2 0xADE SWAP1 DUP6 SWAP1 PUSH4 0x23B872DD PUSH1 0xE0 SHL SWAP1 PUSH1 0x84 ADD JUMPDEST PUSH1 0x40 DUP1 MLOAD PUSH1 0x1F NOT DUP2 DUP5 SUB ADD DUP2 MSTORE SWAP2 SWAP1 MSTORE PUSH1 0x20 DUP2 ADD DUP1 MLOAD PUSH1 0x1 PUSH1 0x1 PUSH1 0xE0 SHL SUB AND PUSH1 0x1 PUSH1 0x1 PUSH1 0xE0 SHL SUB NOT SWAP1 SWAP4 AND SWAP3 SWAP1 SWAP3 OR SWAP1 SWAP2 MSTORE PUSH2 0x1191 JUMP JUMPDEST PUSH1 0x1 PUSH1 0x1 PUSH1 0xA0 SHL SUB DUP3 AND PUSH2 0xFE0 JUMPI PUSH1 0x40 MLOAD PUSH3 0x461BCD PUSH1 0xE5 SHL DUP2 MSTORE PUSH1 0x20 PUSH1 0x4 DUP3 ADD MSTORE PUSH1 0x21 PUSH1 0x24 DUP3 ADD MSTORE PUSH32 0x45524332303A206275726E2066726F6D20746865207A65726F20616464726573 PUSH1 0x44 DUP3 ADD MSTORE PUSH1 0x73 PUSH1 0xF8 SHL PUSH1 0x64 DUP3 ADD MSTORE PUSH1 0x84 ADD PUSH2 0x64E JUMP JUMPDEST PUSH1 0x1 PUSH1 0x1 PUSH1 0xA0 SHL SUB DUP3 AND PUSH1 0x0 SWAP1 DUP2 MSTORE PUSH1 0x20 DUP2 SWAP1 MSTORE PUSH1 0x40 SWAP1 KECCAK256 SLOAD DUP2 DUP2 LT ISZERO PUSH2 0x1054 JUMPI PUSH1 0x40 MLOAD PUSH3 0x461BCD PUSH1 0xE5 SHL DUP2 MSTORE PUSH1 0x20 PUSH1 0x4 DUP3 ADD MSTORE PUSH1 0x22 PUSH1 0x24 DUP3 ADD MSTORE PUSH32 0x45524332303A206275726E20616D6F756E7420657863656564732062616C616E PUSH1 0x44 DUP3 ADD MSTORE PUSH2 0x6365 PUSH1 0xF0 SHL PUSH1 0x64 DUP3 ADD MSTORE PUSH1 0x84 ADD PUSH2 0x64E JUMP JUMPDEST PUSH1 0x1 PUSH1 0x1 PUSH1 0xA0 SHL SUB DUP4 AND PUSH1 0x0 DUP2 DUP2 MSTORE PUSH1 0x20 DUP2 DUP2 MSTORE PUSH1 0x40 DUP1 DUP4 KECCAK256 DUP7 DUP7 SUB SWAP1 SSTORE PUSH1 0x2 DUP1 SLOAD DUP8 SWAP1 SUB SWAP1 SSTORE MLOAD DUP6 DUP2 MSTORE SWAP2 SWAP3 SWAP2 PUSH32 0xDDF252AD1BE2C89B69C2B068FC378DAA952BA7F163C4A11628F55A4DF523B3EF SWAP2 ADD PUSH1 0x40 MLOAD DUP1 SWAP2 SUB SWAP1 LOG3 POP POP POP JUMP JUMPDEST PUSH1 0x40 MLOAD PUSH1 0x1 PUSH1 0x1 PUSH1 0xA0 SHL SUB DUP4 AND PUSH1 0x24 DUP3 ADD MSTORE PUSH1 0x44 DUP2 ADD DUP3 SWAP1 MSTORE PUSH2 0xF10 SWAP1 DUP5 SWAP1 PUSH4 0xA9059CBB PUSH1 0xE0 SHL SWAP1 PUSH1 0x64 ADD PUSH2 0xF49 JUMP JUMPDEST PUSH1 0x0 DUP1 DUP1 PUSH1 0x0 NOT DUP6 DUP8 MULMOD DUP6 DUP8 MUL SWAP3 POP DUP3 DUP2 LT DUP4 DUP3 SUB SUB SWAP2 POP POP DUP1 PUSH1 0x0 SUB PUSH2 0x111C JUMPI DUP4 DUP3 DUP2 PUSH2 0x1112 JUMPI PUSH2 0x1112 PUSH2 0x15AF JUMP JUMPDEST DIV SWAP3 POP POP POP PUSH2 0x5B1 JUMP JUMPDEST DUP1 DUP5 GT PUSH2 0x1128 JUMPI PUSH1 0x0 DUP1 REVERT JUMPDEST PUSH1 0x0 DUP5 DUP7 DUP9 MULMOD PUSH1 0x2 PUSH1 0x1 DUP8 NOT DUP2 ADD DUP9 AND SWAP8 DUP9 SWAP1 DIV PUSH1 0x3 DUP2 MUL DUP4 XOR DUP1 DUP3 MUL DUP5 SUB MUL DUP1 DUP3 MUL DUP5 SUB MUL DUP1 DUP3 MUL DUP5 SUB MUL DUP1 DUP3 MUL DUP5 SUB MUL DUP1 DUP3 MUL DUP5 SUB MUL SWAP1 DUP2 MUL SWAP1 SWAP3 SUB SWAP1 SWAP2 MUL PUSH1 0x0 DUP9 SWAP1 SUB DUP9 SWAP1 DIV SWAP1 SWAP2 ADD DUP6 DUP4 GT SWAP1 SWAP5 SUB SWAP4 SWAP1 SWAP4 MUL SWAP4 SUB SWAP5 SWAP1 SWAP5 DIV SWAP2 SWAP1 SWAP2 OR MUL SWAP5 SWAP4 POP POP POP POP JUMP JUMPDEST PUSH1 0x0 PUSH2 0x11E6 DUP3 PUSH1 0x40 MLOAD DUP1 PUSH1 0x40 ADD PUSH1 0x40 MSTORE DUP1 PUSH1 0x20 DUP2 MSTORE PUSH1 0x20 ADD PUSH32 0x5361666545524332303A206C6F772D6C6576656C2063616C6C206661696C6564 DUP2 MSTORE POP DUP6 PUSH1 0x1 PUSH1 0x1 PUSH1 0xA0 SHL SUB AND PUSH2 0x1263 SWAP1 SWAP3 SWAP2 SWAP1 PUSH4 0xFFFFFFFF AND JUMP JUMPDEST DUP1 MLOAD SWAP1 SWAP2 POP ISZERO PUSH2 0xF10 JUMPI DUP1 DUP1 PUSH1 0x20 ADD SWAP1 MLOAD DUP2 ADD SWAP1 PUSH2 0x1204 SWAP2 SWAP1 PUSH2 0x15C5 JUMP JUMPDEST PUSH2 0xF10 JUMPI PUSH1 0x40 MLOAD PUSH3 0x461BCD PUSH1 0xE5 SHL DUP2 MSTORE PUSH1 0x20 PUSH1 0x4 DUP3 ADD MSTORE PUSH1 0x2A PUSH1 0x24 DUP3 ADD MSTORE PUSH32 0x5361666545524332303A204552433230206F7065726174696F6E20646964206E PUSH1 0x44 DUP3 ADD MSTORE PUSH10 0x1BDD081CDD58D8D95959 PUSH1 0xB2 SHL PUSH1 0x64 DUP3 ADD MSTORE PUSH1 0x84 ADD PUSH2 0x64E JUMP JUMPDEST PUSH1 0x60 PUSH2 0x7E6 DUP5 DUP5 PUSH1 0x0 DUP6 DUP6 PUSH1 0x0 DUP1 DUP7 PUSH1 0x1 PUSH1 0x1 PUSH1 0xA0 SHL SUB AND DUP6 DUP8 PUSH1 0x40 MLOAD PUSH2 0x128A SWAP2 SWAP1 PUSH2 0x15E7 JUMP JUMPDEST PUSH1 0x0 PUSH1 0x40 MLOAD DUP1 DUP4 SUB DUP2 DUP6 DUP8 GAS CALL SWAP3 POP POP POP RETURNDATASIZE DUP1 PUSH1 0x0 DUP2 EQ PUSH2 0x12C7 JUMPI PUSH1 0x40 MLOAD SWAP2 POP PUSH1 0x1F NOT PUSH1 0x3F RETURNDATASIZE ADD AND DUP3 ADD PUSH1 0x40 MSTORE RETURNDATASIZE DUP3 MSTORE RETURNDATASIZE PUSH1 0x0 PUSH1 0x20 DUP5 ADD RETURNDATACOPY PUSH2 0x12CC JUMP JUMPDEST PUSH1 0x60 SWAP2 POP JUMPDEST POP SWAP2 POP SWAP2 POP PUSH2 0x12DD DUP8 DUP4 DUP4 DUP8 PUSH2 0x12E8 JUMP JUMPDEST SWAP8 SWAP7 POP POP POP POP POP POP POP JUMP JUMPDEST PUSH1 0x60 DUP4 ISZERO PUSH2 0x1357 JUMPI DUP3 MLOAD PUSH1 0x0 SUB PUSH2 0x1350 JUMPI PUSH1 0x1 PUSH1 0x1 PUSH1 0xA0 SHL SUB DUP6 AND EXTCODESIZE PUSH2 0x1350 JUMPI PUSH1 0x40 MLOAD PUSH3 0x461BCD PUSH1 0xE5 SHL DUP2 MSTORE PUSH1 0x20 PUSH1 0x4 DUP3 ADD MSTORE PUSH1 0x1D PUSH1 0x24 DUP3 ADD MSTORE PUSH32 0x416464726573733A2063616C6C20746F206E6F6E2D636F6E7472616374000000 PUSH1 0x44 DUP3 ADD MSTORE PUSH1 0x64 ADD PUSH2 0x64E JUMP JUMPDEST POP DUP2 PUSH2 0x7E6 JUMP JUMPDEST PUSH2 0x7E6 DUP4 DUP4 DUP2 MLOAD ISZERO PUSH2 0x136C JUMPI DUP2 MLOAD DUP1 DUP4 PUSH1 0x20 ADD REVERT JUMPDEST DUP1 PUSH1 0x40 MLOAD PUSH3 0x461BCD PUSH1 0xE5 SHL DUP2 MSTORE PUSH1 0x4 ADD PUSH2 0x64E SWAP2 SWAP1 PUSH2 0x13AA JUMP JUMPDEST PUSH1 0x0 JUMPDEST DUP4 DUP2 LT ISZERO PUSH2 0x13A1 JUMPI DUP2 DUP2 ADD MLOAD DUP4 DUP3 ADD MSTORE PUSH1 0x20 ADD PUSH2 0x1389 JUMP JUMPDEST POP POP PUSH1 0x0 SWAP2 ADD MSTORE JUMP JUMPDEST PUSH1 0x20 DUP2 MSTORE PUSH1 0x0 DUP3 MLOAD DUP1 PUSH1 0x20 DUP5 ADD MSTORE PUSH2 0x13C9 DUP2 PUSH1 0x40 DUP6 ADD PUSH1 0x20 DUP8 ADD PUSH2 0x1386 JUMP JUMPDEST PUSH1 0x1F ADD PUSH1 0x1F NOT AND SWAP2 SWAP1 SWAP2 ADD PUSH1 0x40 ADD SWAP3 SWAP2 POP POP JUMP JUMPDEST PUSH1 0x0 PUSH1 0x20 DUP3 DUP5 SUB SLT ISZERO PUSH2 0x13EF JUMPI PUSH1 0x0 DUP1 REVERT JUMPDEST POP CALLDATALOAD SWAP2 SWAP1 POP JUMP JUMPDEST DUP1 CALLDATALOAD PUSH1 0x1 PUSH1 0x1 PUSH1 0xA0 SHL SUB DUP2 AND DUP2 EQ PUSH2 0x140D JUMPI PUSH1 0x0 DUP1 REVERT JUMPDEST SWAP2 SWAP1 POP JUMP JUMPDEST PUSH1 0x0 DUP1 PUSH1 0x40 DUP4 DUP6 SUB SLT ISZERO PUSH2 0x1425 JUMPI PUSH1 0x0 DUP1 REVERT JUMPDEST PUSH2 0x142E DUP4 PUSH2 0x13F6 JUMP JUMPDEST SWAP5 PUSH1 0x20 SWAP4 SWAP1 SWAP4 ADD CALLDATALOAD SWAP4 POP POP POP JUMP JUMPDEST PUSH1 0x0 DUP1 PUSH1 0x0 PUSH1 0x60 DUP5 DUP7 SUB SLT ISZERO PUSH2 0x1451 JUMPI PUSH1 0x0 DUP1 REVERT JUMPDEST PUSH2 0x145A DUP5 PUSH2 0x13F6 JUMP JUMPDEST SWAP3 POP PUSH2 0x1468 PUSH1 0x20 DUP6 ADD PUSH2 0x13F6 JUMP JUMPDEST SWAP2 POP PUSH1 0x40 DUP5 ADD CALLDATALOAD SWAP1 POP SWAP3 POP SWAP3 POP SWAP3 JUMP JUMPDEST PUSH1 0x0 PUSH1 0x20 DUP3 DUP5 SUB SLT ISZERO PUSH2 0x148A JUMPI PUSH1 0x0 DUP1 REVERT JUMPDEST PUSH2 0x5B1 DUP3 PUSH2 0x13F6 JUMP JUMPDEST PUSH1 0x0 DUP1 PUSH1 0x40 DUP4 DUP6 SUB SLT ISZERO PUSH2 0x14A6 JUMPI PUSH1 0x0 DUP1 REVERT JUMPDEST DUP3 CALLDATALOAD SWAP2 POP PUSH2 0x14B6 PUSH1 0x20 DUP5 ADD PUSH2 0x13F6 JUMP JUMPDEST SWAP1 POP SWAP3 POP SWAP3 SWAP1 POP JUMP JUMPDEST PUSH1 0x0 DUP1 PUSH1 0x0 PUSH1 0x60 DUP5 DUP7 SUB SLT ISZERO PUSH2 0x14D4 JUMPI PUSH1 0x0 DUP1 REVERT JUMPDEST DUP4 CALLDATALOAD SWAP3 POP PUSH2 0x14E4 PUSH1 0x20 DUP6 ADD PUSH2 0x13F6 JUMP JUMPDEST SWAP2 POP PUSH2 0x14F2 PUSH1 0x40 DUP6 ADD PUSH2 0x13F6 JUMP JUMPDEST SWAP1 POP SWAP3 POP SWAP3 POP SWAP3 JUMP JUMPDEST PUSH1 0x0 DUP1 PUSH1 0x40 DUP4 DUP6 SUB SLT ISZERO PUSH2 0x150E JUMPI PUSH1 0x0 DUP1 REVERT JUMPDEST PUSH2 0x1517 DUP4 PUSH2 0x13F6 JUMP JUMPDEST SWAP2 POP PUSH2 0x14B6 PUSH1 0x20 DUP5 ADD PUSH2 0x13F6 JUMP JUMPDEST PUSH1 0x0 PUSH1 0x20 DUP3 DUP5 SUB SLT ISZERO PUSH2 0x1537 JUMPI PUSH1 0x0 DUP1 REVERT JUMPDEST POP MLOAD SWAP2 SWAP1 POP JUMP JUMPDEST PUSH1 0x1 DUP2 DUP2 SHR SWAP1 DUP3 AND DUP1 PUSH2 0x1552 JUMPI PUSH1 0x7F DUP3 AND SWAP2 POP JUMPDEST PUSH1 0x20 DUP3 LT DUP2 SUB PUSH2 0x1572 JUMPI PUSH4 0x4E487B71 PUSH1 0xE0 SHL PUSH1 0x0 MSTORE PUSH1 0x22 PUSH1 0x4 MSTORE PUSH1 0x24 PUSH1 0x0 REVERT JUMPDEST POP SWAP2 SWAP1 POP JUMP JUMPDEST DUP1 DUP3 ADD DUP1 DUP3 GT ISZERO PUSH2 0x567 JUMPI PUSH4 0x4E487B71 PUSH1 0xE0 SHL PUSH1 0x0 MSTORE PUSH1 0x11 PUSH1 0x4 MSTORE PUSH1 0x24 PUSH1 0x0 REVERT JUMPDEST PUSH4 0x4E487B71 PUSH1 0xE0 SHL PUSH1 0x0 MSTORE PUSH1 0x21 PUSH1 0x4 MSTORE PUSH1 0x24 PUSH1 0x0 REVERT JUMPDEST PUSH4 0x4E487B71 PUSH1 0xE0 SHL PUSH1 0x0 MSTORE PUSH1 0x12 PUSH1 0x4 MSTORE PUSH1 0x24 PUSH1 0x0 REVERT JUMPDEST PUSH1 0x0 PUSH1 0x20 DUP3 DUP5 SUB SLT ISZERO PUSH2 0x15D7 JUMPI PUSH1 0x0 DUP1 REVERT JUMPDEST DUP2 MLOAD DUP1 ISZERO ISZERO DUP2 EQ PUSH2 0x5B1 JUMPI PUSH1 0x0 DUP1 REVERT JUMPDEST PUSH1 0x0 DUP3 MLOAD PUSH2 0x15F9 DUP2 DUP5 PUSH1 0x20 DUP8 ADD PUSH2 0x1386 JUMP JUMPDEST SWAP2 SWAP1 SWAP2 ADD SWAP3 SWAP2 POP POP JUMP INVALID LOG2 PUSH5 0x6970667358 0x22 SLT KECCAK256 JUMP 0xAE SWAP16 SELFBALANCE PUSH29 0x456970DE49276C6207C9DFA80179390A70CD82FB130946F9E9FC136473 PUSH16 0x6C634300081100330000000000000000 "
				},
				"gasEstimates": {
					"creation": {
						"codeDepositCost": "1137800",
						"executionCost": "infinite",
						"totalCost": "infinite"
					},
					"external": {
						"allowance(address,address)": "infinite",
						"approve(address,uint256)": "24647",
						"asset()": "infinite",
						"balanceOf(address)": "2640",
						"convertToAssets(uint256)": "infinite",
						"convertToShares(uint256)": "infinite",
						"decimals()": "infinite",
						"decreaseAllowance(address,uint256)": "26995",
						"deposit(uint256,address)": "infinite",
						"increaseAllowance(address,uint256)": "27073",
						"maxDeposit(address)": "infinite",
						"maxMint(address)": "414",
						"maxRedeem(address)": "2607",
						"maxWithdraw(address)": "infinite",
						"mint(uint256)": "52930",
						"mint(uint256,address)": "infinite",
						"name()": "infinite",
						"previewDeposit(uint256)": "infinite",
						"previewMint(uint256)": "infinite",
						"previewRedeem(uint256)": "infinite",
						"previewWithdraw(uint256)": "infinite",
						"redeem(uint256,address,address)": "infinite",
						"symbol()": "infinite",
						"token()": "2447",
						"totalAssets()": "infinite",
						"totalSupply()": "2371",
						"transfer(address,uint256)": "51113",
						"transferFrom(address,address,uint256)": "infinite",
						"withdraw(uint256,address,address)": "infinite"
					}
				},
				"methodIdentifiers": {
					"allowance(address,address)": "dd62ed3e",
					"approve(address,uint256)": "095ea7b3",
					"asset()": "38d52e0f",
					"balanceOf(address)": "70a08231",
					"convertToAssets(uint256)": "07a2d13a",
					"convertToShares(uint256)": "c6e6f592",
					"decimals()": "313ce567",
					"decreaseAllowance(address,uint256)": "a457c2d7",
					"deposit(uint256,address)": "6e553f65",
					"increaseAllowance(address,uint256)": "39509351",
					"maxDeposit(address)": "402d267d",
					"maxMint(address)": "c63d75b6",
					"maxRedeem(address)": "d905777e",
					"maxWithdraw(address)": "ce96cb77",
					"mint(uint256)": "a0712d68",
					"mint(uint256,address)": "94bf804d",
					"name()": "06fdde03",
					"previewDeposit(uint256)": "ef8b30f7",
					"previewMint(uint256)": "b3d7f6b9",
					"previewRedeem(uint256)": "4cdad506",
					"previewWithdraw(uint256)": "0a28a477",
					"redeem(uint256,address,address)": "ba087652",
					"symbol()": "95d89b41",
					"token()": "fc0c546a",
					"totalAssets()": "01e1d114",
					"totalSupply()": "18160ddd",
					"transfer(address,uint256)": "a9059cbb",
					"transferFrom(address,address,uint256)": "23b872dd",
					"withdraw(uint256,address,address)": "b460af94"
				}
			},
			"storageLayout": {
				"storage": [
					{
						"astId": 183,
						"contract": "src/Derivatives/EquityToken.sol:EquityToken",
						"label": "_balances",
						"offset": 0,
						"slot": "0",
						"type": "t_mapping(t_address,t_uint256)"
					},
					{
						"astId": 189,
						"contract": "src/Derivatives/EquityToken.sol:EquityToken",
						"label": "_allowances",
						"offset": 0,
						"slot": "1",
						"type": "t_mapping(t_address,t_mapping(t_address,t_uint256))"
					},
					{
						"astId": 191,
						"contract": "src/Derivatives/EquityToken.sol:EquityToken",
						"label": "_totalSupply",
						"offset": 0,
						"slot": "2",
						"type": "t_uint256"
					},
					{
						"astId": 193,
						"contract": "src/Derivatives/EquityToken.sol:EquityToken",
						"label": "_name",
						"offset": 0,
						"slot": "3",
						"type": "t_string_storage"
					},
					{
						"astId": 195,
						"contract": "src/Derivatives/EquityToken.sol:EquityToken",
						"label": "_symbol",
						"offset": 0,
						"slot": "4",
						"type": "t_string_storage"
					},
					{
						"astId": 3091,
						"contract": "src/Derivatives/EquityToken.sol:EquityToken",
						"label": "owner",
						"offset": 0,
						"slot": "5",
						"type": "t_address"
					},
					{
						"astId": 3094,
						"contract": "src/Derivatives/EquityToken.sol:EquityToken",
						"label": "token",
						"offset": 0,
						"slot": "6",
						"type": "t_contract(ERC20)754"
					}
				],
				"types": {
					"t_address": {
						"encoding": "inplace",
						"label": "address",
						"numberOfBytes": "20"
					},
					"t_contract(ERC20)754": {
						"encoding": "inplace",
						"label": "contract ERC20",
						"numberOfBytes": "20"
					},
					"t_mapping(t_address,t_mapping(t_address,t_uint256))": {
						"encoding": "mapping",
						"key": "t_address",
						"label": "mapping(address => mapping(address => uint256))",
						"numberOfBytes": "32",
						"value": "t_mapping(t_address,t_uint256)"
					},
					"t_mapping(t_address,t_uint256)": {
						"encoding": "mapping",
						"key": "t_address",
						"label": "mapping(address => uint256)",
						"numberOfBytes": "32",
						"value": "t_uint256"
					},
					"t_string_storage": {
						"encoding": "bytes",
						"label": "string",
						"numberOfBytes": "32"
					},
					"t_uint256": {
						"encoding": "inplace",
						"label": "uint256",
						"numberOfBytes": "32"
					}
				}
			},
			"userdoc": {
				"kind": "user",
				"methods": {},
				"version": 1
			}
		}
	}
}