{
	"src/Derivatives/CharityToken.sol": {
		"CharityToken": {
			"abi": [
				{
					"inputs": [
						{
							"internalType": "string",
							"name": "name",
							"type": "string"
						},
						{
							"internalType": "string",
							"name": "symbol",
							"type": "string"
						},
						{
							"internalType": "address",
							"name": "_owner",
							"type": "address"
						},
						{
							"internalType": "contract IERC20",
							"name": "_token",
							"type": "address"
						}
					],
					"stateMutability": "nonpayable",
					"type": "constructor"
				},
				{
					"inputs": [],
					"name": "AmountIsZero",
					"type": "error"
				},
				{
					"inputs": [],
					"name": "PreviousToken",
					"type": "error"
				},
				{
					"inputs": [],
					"name": "WrongOwnerAddress",
					"type": "error"
				},
				{
					"anonymous": false,
					"inputs": [
						{
							"indexed": true,
							"internalType": "address",
							"name": "owner",
							"type": "address"
						},
						{
							"indexed": true,
							"internalType": "address",
							"name": "spender",
							"type": "address"
						},
						{
							"indexed": false,
							"internalType": "uint256",
							"name": "value",
							"type": "uint256"
						}
					],
					"name": "Approval",
					"type": "event"
				},
				{
					"anonymous": false,
					"inputs": [
						{
							"indexed": true,
							"internalType": "address",
							"name": "user",
							"type": "address"
						},
						{
							"indexed": true,
							"internalType": "uint256",
							"name": "amount",
							"type": "uint256"
						}
					],
					"name": "Donated",
					"type": "event"
				},
				{
					"anonymous": false,
					"inputs": [
						{
							"indexed": false,
							"internalType": "uint8",
							"name": "version",
							"type": "uint8"
						}
					],
					"name": "Initialized",
					"type": "event"
				},
				{
					"anonymous": false,
					"inputs": [
						{
							"indexed": true,
							"internalType": "address",
							"name": "from",
							"type": "address"
						},
						{
							"indexed": true,
							"internalType": "address",
							"name": "to",
							"type": "address"
						},
						{
							"indexed": false,
							"internalType": "uint256",
							"name": "value",
							"type": "uint256"
						}
					],
					"name": "Transfer",
					"type": "event"
				},
				{
					"inputs": [
						{
							"internalType": "address",
							"name": "owner",
							"type": "address"
						},
						{
							"internalType": "address",
							"name": "spender",
							"type": "address"
						}
					],
					"name": "allowance",
					"outputs": [
						{
							"internalType": "uint256",
							"name": "",
							"type": "uint256"
						}
					],
					"stateMutability": "view",
					"type": "function"
				},
				{
					"inputs": [
						{
							"internalType": "address",
							"name": "spender",
							"type": "address"
						},
						{
							"internalType": "uint256",
							"name": "amount",
							"type": "uint256"
						}
					],
					"name": "approve",
					"outputs": [
						{
							"internalType": "bool",
							"name": "",
							"type": "bool"
						}
					],
					"stateMutability": "nonpayable",
					"type": "function"
				},
				{
					"inputs": [
						{
							"internalType": "address",
							"name": "account",
							"type": "address"
						}
					],
					"name": "balanceOf",
					"outputs": [
						{
							"internalType": "uint256",
							"name": "",
							"type": "uint256"
						}
					],
					"stateMutability": "view",
					"type": "function"
				},
				{
					"inputs": [
						{
							"internalType": "contract IERC20",
							"name": "_token",
							"type": "address"
						}
					],
					"name": "changeToken",
					"outputs": [],
					"stateMutability": "nonpayable",
					"type": "function"
				},
				{
					"inputs": [],
					"name": "decimals",
					"outputs": [
						{
							"internalType": "uint8",
							"name": "",
							"type": "uint8"
						}
					],
					"stateMutability": "view",
					"type": "function"
				},
				{
					"inputs": [
						{
							"internalType": "address",
							"name": "spender",
							"type": "address"
						},
						{
							"internalType": "uint256",
							"name": "subtractedValue",
							"type": "uint256"
						}
					],
					"name": "decreaseAllowance",
					"outputs": [
						{
							"internalType": "bool",
							"name": "",
							"type": "bool"
						}
					],
					"stateMutability": "nonpayable",
					"type": "function"
				},
				{
					"inputs": [
						{
							"internalType": "uint256",
							"name": "amount",
							"type": "uint256"
						}
					],
					"name": "donate",
					"outputs": [],
					"stateMutability": "nonpayable",
					"type": "function"
				},
				{
					"inputs": [
						{
							"internalType": "address",
							"name": "spender",
							"type": "address"
						},
						{
							"internalType": "uint256",
							"name": "addedValue",
							"type": "uint256"
						}
					],
					"name": "increaseAllowance",
					"outputs": [
						{
							"internalType": "bool",
							"name": "",
							"type": "bool"
						}
					],
					"stateMutability": "nonpayable",
					"type": "function"
				},
				{
					"inputs": [],
					"name": "name",
					"outputs": [
						{
							"internalType": "string",
							"name": "",
							"type": "string"
						}
					],
					"stateMutability": "view",
					"type": "function"
				},
				{
					"inputs": [],
					"name": "symbol",
					"outputs": [
						{
							"internalType": "string",
							"name": "",
							"type": "string"
						}
					],
					"stateMutability": "view",
					"type": "function"
				},
				{
					"inputs": [],
					"name": "totalSupply",
					"outputs": [
						{
							"internalType": "uint256",
							"name": "",
							"type": "uint256"
						}
					],
					"stateMutability": "view",
					"type": "function"
				},
				{
					"inputs": [
						{
							"internalType": "address",
							"name": "to",
							"type": "address"
						},
						{
							"internalType": "uint256",
							"name": "amount",
							"type": "uint256"
						}
					],
					"name": "transfer",
					"outputs": [
						{
							"internalType": "bool",
							"name": "",
							"type": "bool"
						}
					],
					"stateMutability": "nonpayable",
					"type": "function"
				},
				{
					"inputs": [
						{
							"internalType": "address",
							"name": "from",
							"type": "address"
						},
						{
							"internalType": "address",
							"name": "to",
							"type": "address"
						},
						{
							"internalType": "uint256",
							"name": "amount",
							"type": "uint256"
						}
					],
					"name": "transferFrom",
					"outputs": [
						{
							"internalType": "bool",
							"name": "",
							"type": "bool"
						}
					],
					"stateMutability": "nonpayable",
					"type": "function"
				}
			],
			"devdoc": {
				"kind": "dev",
				"methods": {
					"allowance(address,address)": {
						"details": "See {IERC20-allowance}."
					},
					"approve(address,uint256)": {
						"details": "See {IERC20-approve}. NOTE: If `amount` is the maximum `uint256`, the allowance is not updated on `transferFrom`. This is semantically equivalent to an infinite approval. Requirements: - `spender` cannot be the zero address."
					},
					"balanceOf(address)": {
						"details": "See {IERC20-balanceOf}."
					},
					"decimals()": {
						"details": "Returns the number of decimals used to get its user representation. For example, if `decimals` equals `2`, a balance of `505` tokens should be displayed to a user as `5.05` (`505 / 10 ** 2`). Tokens usually opt for a value of 18, imitating the relationship between Ether and Wei. This is the value {ERC20} uses, unless this function is overridden; NOTE: This information is only used for _display_ purposes: it in no way affects any of the arithmetic of the contract, including {IERC20-balanceOf} and {IERC20-transfer}."
					},
					"decreaseAllowance(address,uint256)": {
						"details": "Atomically decreases the allowance granted to `spender` by the caller. This is an alternative to {approve} that can be used as a mitigation for problems described in {IERC20-approve}. Emits an {Approval} event indicating the updated allowance. Requirements: - `spender` cannot be the zero address. - `spender` must have allowance for the caller of at least `subtractedValue`."
					},
					"increaseAllowance(address,uint256)": {
						"details": "Atomically increases the allowance granted to `spender` by the caller. This is an alternative to {approve} that can be used as a mitigation for problems described in {IERC20-approve}. Emits an {Approval} event indicating the updated allowance. Requirements: - `spender` cannot be the zero address."
					},
					"name()": {
						"details": "Returns the name of the token."
					},
					"symbol()": {
						"details": "Returns the symbol of the token, usually a shorter version of the name."
					},
					"totalSupply()": {
						"details": "See {IERC20-totalSupply}."
					},
					"transfer(address,uint256)": {
						"details": "See {IERC20-transfer}. Requirements: - `to` cannot be the zero address. - the caller must have a balance of at least `amount`."
					},
					"transferFrom(address,address,uint256)": {
						"details": "See {IERC20-transferFrom}. Emits an {Approval} event indicating the updated allowance. This is not required by the EIP. See the note at the beginning of {ERC20}. NOTE: Does not update the allowance if the current allowance is the maximum `uint256`. Requirements: - `from` and `to` cannot be the zero address. - `from` must have a balance of at least `amount`. - the caller must have allowance for ``from``'s tokens of at least `amount`."
					}
				},
				"version": 1
			},
			"evm": {
				"assembly": "    /* \"src/Derivatives/CharityToken.sol\":378:1475  contract CharityToken is ICharityToken, ERC20, Initializable {... */\n  mstore(0x40, 0x80)\n    /* \"src/Derivatives/CharityToken.sol\":719:1011  constructor(... */\n  callvalue\n  dup1\n  iszero\n  tag_1\n  jumpi\n  0x00\n  dup1\n  revert\ntag_1:\n  pop\n  mload(0x40)\n  sub(codesize, bytecodeSize)\n  dup1\n  bytecodeSize\n  dup4\n  codecopy\n  dup2\n  dup2\n  add\n  0x40\n  mstore\n  dup2\n  add\n  swap1\n  tag_2\n  swap2\n  swap1\n  tag_3\n  jump\t// in\ntag_2:\n    /* \"src/Derivatives/CharityToken.sol\":853:857  name */\n  dup4\n    /* \"src/Derivatives/CharityToken.sol\":859:865  symbol */\n  dup4\n    /* \"@openzeppelin/contracts/token/ERC20/ERC20.sol\":2050:2055  name_ */\n  dup2\n    /* \"@openzeppelin/contracts/token/ERC20/ERC20.sol\":2042:2047  _name */\n  0x03\n    /* \"@openzeppelin/contracts/token/ERC20/ERC20.sol\":2042:2055  _name = name_ */\n  swap1\n  dup2\n  tag_7\n  swap2\n  swap1\n  tag_8\n  jump\t// in\ntag_7:\n  pop\n    /* \"@openzeppelin/contracts/token/ERC20/ERC20.sol\":2075:2082  symbol_ */\n  dup1\n    /* \"@openzeppelin/contracts/token/ERC20/ERC20.sol\":2065:2072  _symbol */\n  0x04\n    /* \"@openzeppelin/contracts/token/ERC20/ERC20.sol\":2065:2082  _symbol = symbol_ */\n  swap1\n  dup2\n  tag_9\n  swap2\n  swap1\n  tag_8\n  jump\t// in\ntag_9:\n  pop\n    /* \"@openzeppelin/contracts/token/ERC20/ERC20.sol\":1976:2089  constructor(string memory name_, string memory symbol_) {... */\n  pop\n  pop\n    /* \"src/Derivatives/CharityToken.sol\":901:902  0 */\n  0x00\n    /* \"src/Derivatives/CharityToken.sol\":883:903  _owner == address(0) */\n  0xffffffffffffffffffffffffffffffffffffffff\n  and\n    /* \"src/Derivatives/CharityToken.sol\":883:889  _owner */\n  dup3\n    /* \"src/Derivatives/CharityToken.sol\":883:903  _owner == address(0) */\n  0xffffffffffffffffffffffffffffffffffffffff\n  and\n  sub\n    /* \"src/Derivatives/CharityToken.sol\":880:944  if(_owner == address(0))... */\n  tag_11\n  jumpi\n    /* \"src/Derivatives/CharityToken.sol\":925:944  WrongOwnerAddress() */\n  mload(0x40)\n  0xcf73d70f00000000000000000000000000000000000000000000000000000000\n  dup2\n  mstore\n  0x04\n  add\n  mload(0x40)\n  dup1\n  swap2\n  sub\n  swap1\n  revert\n    /* \"src/Derivatives/CharityToken.sol\":880:944  if(_owner == address(0))... */\ntag_11:\n    /* \"src/Derivatives/CharityToken.sol\":965:971  _owner */\n  dup2\n    /* \"src/Derivatives/CharityToken.sol\":957:962  owner */\n  0x05\n  0x02\n    /* \"src/Derivatives/CharityToken.sol\":957:971  owner = _owner */\n  0x0100\n  exp\n  dup2\n  sload\n  dup2\n  0xffffffffffffffffffffffffffffffffffffffff\n  mul\n  not\n  and\n  swap1\n  dup4\n  0xffffffffffffffffffffffffffffffffffffffff\n  and\n  mul\n  or\n  swap1\n  sstore\n  pop\n    /* \"src/Derivatives/CharityToken.sol\":997:1003  _token */\n  dup1\n    /* \"src/Derivatives/CharityToken.sol\":982:994  paymentToken */\n  0x08\n  0x00\n    /* \"src/Derivatives/CharityToken.sol\":982:1003  paymentToken = _token */\n  0x0100\n  exp\n  dup2\n  sload\n  dup2\n  0xffffffffffffffffffffffffffffffffffffffff\n  mul\n  not\n  and\n  swap1\n  dup4\n  0xffffffffffffffffffffffffffffffffffffffff\n  and\n  mul\n  or\n  swap1\n  sstore\n  pop\n    /* \"src/Derivatives/CharityToken.sol\":719:1011  constructor(... */\n  pop\n  pop\n  pop\n  pop\n    /* \"src/Derivatives/CharityToken.sol\":378:1475  contract CharityToken is ICharityToken, ERC20, Initializable {... */\n  jump(tag_12)\n    /* \"#utility.yul\":7:82   */\ntag_13:\n    /* \"#utility.yul\":40:46   */\n  0x00\n    /* \"#utility.yul\":73:75   */\n  0x40\n    /* \"#utility.yul\":67:76   */\n  mload\n    /* \"#utility.yul\":57:76   */\n  swap1\n  pop\n    /* \"#utility.yul\":7:82   */\n  swap1\n  jump\t// out\n    /* \"#utility.yul\":88:205   */\ntag_14:\n    /* \"#utility.yul\":197:198   */\n  0x00\n    /* \"#utility.yul\":194:195   */\n  dup1\n    /* \"#utility.yul\":187:199   */\n  revert\n    /* \"#utility.yul\":211:328   */\ntag_15:\n    /* \"#utility.yul\":320:321   */\n  0x00\n    /* \"#utility.yul\":317:318   */\n  dup1\n    /* \"#utility.yul\":310:322   */\n  revert\n    /* \"#utility.yul\":334:451   */\ntag_16:\n    /* \"#utility.yul\":443:444   */\n  0x00\n    /* \"#utility.yul\":440:441   */\n  dup1\n    /* \"#utility.yul\":433:445   */\n  revert\n    /* \"#utility.yul\":457:574   */\ntag_17:\n    /* \"#utility.yul\":566:567   */\n  0x00\n    /* \"#utility.yul\":563:564   */\n  dup1\n    /* \"#utility.yul\":556:568   */\n  revert\n    /* \"#utility.yul\":580:682   */\ntag_18:\n    /* \"#utility.yul\":621:627   */\n  0x00\n    /* \"#utility.yul\":672:674   */\n  0x1f\n    /* \"#utility.yul\":668:675   */\n  not\n    /* \"#utility.yul\":663:665   */\n  0x1f\n    /* \"#utility.yul\":656:661   */\n  dup4\n    /* \"#utility.yul\":652:666   */\n  add\n    /* \"#utility.yul\":648:676   */\n  and\n    /* \"#utility.yul\":638:676   */\n  swap1\n  pop\n    /* \"#utility.yul\":580:682   */\n  swap2\n  swap1\n  pop\n  jump\t// out\n    /* \"#utility.yul\":688:868   */\ntag_19:\n    /* \"#utility.yul\":736:813   */\n  0x4e487b7100000000000000000000000000000000000000000000000000000000\n    /* \"#utility.yul\":733:734   */\n  0x00\n    /* \"#utility.yul\":726:814   */\n  mstore\n    /* \"#utility.yul\":833:837   */\n  0x41\n    /* \"#utility.yul\":830:831   */\n  0x04\n    /* \"#utility.yul\":823:838   */\n  mstore\n    /* \"#utility.yul\":857:861   */\n  0x24\n    /* \"#utility.yul\":854:855   */\n  0x00\n    /* \"#utility.yul\":847:862   */\n  revert\n    /* \"#utility.yul\":874:1155   */\ntag_20:\n    /* \"#utility.yul\":957:984   */\n  tag_61\n    /* \"#utility.yul\":979:983   */\n  dup3\n    /* \"#utility.yul\":957:984   */\n  tag_18\n  jump\t// in\ntag_61:\n    /* \"#utility.yul\":949:955   */\n  dup2\n    /* \"#utility.yul\":945:985   */\n  add\n    /* \"#utility.yul\":1087:1093   */\n  dup2\n    /* \"#utility.yul\":1075:1085   */\n  dup2\n    /* \"#utility.yul\":1072:1094   */\n  lt\n    /* \"#utility.yul\":1051:1069   */\n  0xffffffffffffffff\n    /* \"#utility.yul\":1039:1049   */\n  dup3\n    /* \"#utility.yul\":1036:1070   */\n  gt\n    /* \"#utility.yul\":1033:1095   */\n  or\n    /* \"#utility.yul\":1030:1118   */\n  iszero\n  tag_62\n  jumpi\n    /* \"#utility.yul\":1098:1116   */\n  tag_63\n  tag_19\n  jump\t// in\ntag_63:\n    /* \"#utility.yul\":1030:1118   */\ntag_62:\n    /* \"#utility.yul\":1138:1148   */\n  dup1\n    /* \"#utility.yul\":1134:1136   */\n  0x40\n    /* \"#utility.yul\":1127:1149   */\n  mstore\n    /* \"#utility.yul\":917:1155   */\n  pop\n    /* \"#utility.yul\":874:1155   */\n  pop\n  pop\n  jump\t// out\n    /* \"#utility.yul\":1161:1290   */\ntag_21:\n    /* \"#utility.yul\":1195:1201   */\n  0x00\n    /* \"#utility.yul\":1222:1242   */\n  tag_65\n  tag_13\n  jump\t// in\ntag_65:\n    /* \"#utility.yul\":1212:1242   */\n  swap1\n  pop\n    /* \"#utility.yul\":1251:1284   */\n  tag_66\n    /* \"#utility.yul\":1279:1283   */\n  dup3\n    /* \"#utility.yul\":1271:1277   */\n  dup3\n    /* \"#utility.yul\":1251:1284   */\n  tag_20\n  jump\t// in\ntag_66:\n    /* \"#utility.yul\":1161:1290   */\n  swap2\n  swap1\n  pop\n  jump\t// out\n    /* \"#utility.yul\":1296:1604   */\ntag_22:\n    /* \"#utility.yul\":1358:1362   */\n  0x00\n    /* \"#utility.yul\":1448:1466   */\n  0xffffffffffffffff\n    /* \"#utility.yul\":1440:1446   */\n  dup3\n    /* \"#utility.yul\":1437:1467   */\n  gt\n    /* \"#utility.yul\":1434:1490   */\n  iszero\n  tag_68\n  jumpi\n    /* \"#utility.yul\":1470:1488   */\n  tag_69\n  tag_19\n  jump\t// in\ntag_69:\n    /* \"#utility.yul\":1434:1490   */\ntag_68:\n    /* \"#utility.yul\":1508:1537   */\n  tag_70\n    /* \"#utility.yul\":1530:1536   */\n  dup3\n    /* \"#utility.yul\":1508:1537   */\n  tag_18\n  jump\t// in\ntag_70:\n    /* \"#utility.yul\":1500:1537   */\n  swap1\n  pop\n    /* \"#utility.yul\":1592:1596   */\n  0x20\n    /* \"#utility.yul\":1586:1590   */\n  dup2\n    /* \"#utility.yul\":1582:1597   */\n  add\n    /* \"#utility.yul\":1574:1597   */\n  swap1\n  pop\n    /* \"#utility.yul\":1296:1604   */\n  swap2\n  swap1\n  pop\n  jump\t// out\n    /* \"#utility.yul\":1610:1856   */\ntag_23:\n    /* \"#utility.yul\":1691:1692   */\n  0x00\n    /* \"#utility.yul\":1701:1814   */\ntag_72:\n    /* \"#utility.yul\":1715:1721   */\n  dup4\n    /* \"#utility.yul\":1712:1713   */\n  dup2\n    /* \"#utility.yul\":1709:1722   */\n  lt\n    /* \"#utility.yul\":1701:1814   */\n  iszero\n  tag_74\n  jumpi\n    /* \"#utility.yul\":1800:1801   */\n  dup1\n    /* \"#utility.yul\":1795:1798   */\n  dup3\n    /* \"#utility.yul\":1791:1802   */\n  add\n    /* \"#utility.yul\":1785:1803   */\n  mload\n    /* \"#utility.yul\":1781:1782   */\n  dup2\n    /* \"#utility.yul\":1776:1779   */\n  dup5\n    /* \"#utility.yul\":1772:1783   */\n  add\n    /* \"#utility.yul\":1765:1804   */\n  mstore\n    /* \"#utility.yul\":1737:1739   */\n  0x20\n    /* \"#utility.yul\":1734:1735   */\n  dup2\n    /* \"#utility.yul\":1730:1740   */\n  add\n    /* \"#utility.yul\":1725:1740   */\n  swap1\n  pop\n    /* \"#utility.yul\":1701:1814   */\n  jump(tag_72)\ntag_74:\n    /* \"#utility.yul\":1848:1849   */\n  0x00\n    /* \"#utility.yul\":1839:1845   */\n  dup5\n    /* \"#utility.yul\":1834:1837   */\n  dup5\n    /* \"#utility.yul\":1830:1846   */\n  add\n    /* \"#utility.yul\":1823:1850   */\n  mstore\n    /* \"#utility.yul\":1672:1856   */\n  pop\n    /* \"#utility.yul\":1610:1856   */\n  pop\n  pop\n  pop\n  jump\t// out\n    /* \"#utility.yul\":1862:2296   */\ntag_24:\n    /* \"#utility.yul\":1951:1956   */\n  0x00\n    /* \"#utility.yul\":1976:2042   */\n  tag_76\n    /* \"#utility.yul\":1992:2041   */\n  tag_77\n    /* \"#utility.yul\":2034:2040   */\n  dup5\n    /* \"#utility.yul\":1992:2041   */\n  tag_22\n  jump\t// in\ntag_77:\n    /* \"#utility.yul\":1976:2042   */\n  tag_21\n  jump\t// in\ntag_76:\n    /* \"#utility.yul\":1967:2042   */\n  swap1\n  pop\n    /* \"#utility.yul\":2065:2071   */\n  dup3\n    /* \"#utility.yul\":2058:2063   */\n  dup2\n    /* \"#utility.yul\":2051:2072   */\n  mstore\n    /* \"#utility.yul\":2103:2107   */\n  0x20\n    /* \"#utility.yul\":2096:2101   */\n  dup2\n    /* \"#utility.yul\":2092:2108   */\n  add\n    /* \"#utility.yul\":2141:2144   */\n  dup5\n    /* \"#utility.yul\":2132:2138   */\n  dup5\n    /* \"#utility.yul\":2127:2130   */\n  dup5\n    /* \"#utility.yul\":2123:2139   */\n  add\n    /* \"#utility.yul\":2120:2145   */\n  gt\n    /* \"#utility.yul\":2117:2229   */\n  iszero\n  tag_78\n  jumpi\n    /* \"#utility.yul\":2148:2227   */\n  tag_79\n  tag_17\n  jump\t// in\ntag_79:\n    /* \"#utility.yul\":2117:2229   */\ntag_78:\n    /* \"#utility.yul\":2238:2290   */\n  tag_80\n    /* \"#utility.yul\":2283:2289   */\n  dup5\n    /* \"#utility.yul\":2278:2281   */\n  dup3\n    /* \"#utility.yul\":2273:2276   */\n  dup6\n    /* \"#utility.yul\":2238:2290   */\n  tag_23\n  jump\t// in\ntag_80:\n    /* \"#utility.yul\":1957:2296   */\n  pop\n    /* \"#utility.yul\":1862:2296   */\n  swap4\n  swap3\n  pop\n  pop\n  pop\n  jump\t// out\n    /* \"#utility.yul\":2316:2671   */\ntag_25:\n    /* \"#utility.yul\":2383:2388   */\n  0x00\n    /* \"#utility.yul\":2432:2435   */\n  dup3\n    /* \"#utility.yul\":2425:2429   */\n  0x1f\n    /* \"#utility.yul\":2417:2423   */\n  dup4\n    /* \"#utility.yul\":2413:2430   */\n  add\n    /* \"#utility.yul\":2409:2436   */\n  slt\n    /* \"#utility.yul\":2399:2521   */\n  tag_82\n  jumpi\n    /* \"#utility.yul\":2440:2519   */\n  tag_83\n  tag_16\n  jump\t// in\ntag_83:\n    /* \"#utility.yul\":2399:2521   */\ntag_82:\n    /* \"#utility.yul\":2550:2556   */\n  dup2\n    /* \"#utility.yul\":2544:2557   */\n  mload\n    /* \"#utility.yul\":2575:2665   */\n  tag_84\n    /* \"#utility.yul\":2661:2664   */\n  dup5\n    /* \"#utility.yul\":2653:2659   */\n  dup3\n    /* \"#utility.yul\":2646:2650   */\n  0x20\n    /* \"#utility.yul\":2638:2644   */\n  dup7\n    /* \"#utility.yul\":2634:2651   */\n  add\n    /* \"#utility.yul\":2575:2665   */\n  tag_24\n  jump\t// in\ntag_84:\n    /* \"#utility.yul\":2566:2665   */\n  swap2\n  pop\n    /* \"#utility.yul\":2389:2671   */\n  pop\n    /* \"#utility.yul\":2316:2671   */\n  swap3\n  swap2\n  pop\n  pop\n  jump\t// out\n    /* \"#utility.yul\":2677:2803   */\ntag_26:\n    /* \"#utility.yul\":2714:2721   */\n  0x00\n    /* \"#utility.yul\":2754:2796   */\n  0xffffffffffffffffffffffffffffffffffffffff\n    /* \"#utility.yul\":2747:2752   */\n  dup3\n    /* \"#utility.yul\":2743:2797   */\n  and\n    /* \"#utility.yul\":2732:2797   */\n  swap1\n  pop\n    /* \"#utility.yul\":2677:2803   */\n  swap2\n  swap1\n  pop\n  jump\t// out\n    /* \"#utility.yul\":2809:2905   */\ntag_27:\n    /* \"#utility.yul\":2846:2853   */\n  0x00\n    /* \"#utility.yul\":2875:2899   */\n  tag_87\n    /* \"#utility.yul\":2893:2898   */\n  dup3\n    /* \"#utility.yul\":2875:2899   */\n  tag_26\n  jump\t// in\ntag_87:\n    /* \"#utility.yul\":2864:2899   */\n  swap1\n  pop\n    /* \"#utility.yul\":2809:2905   */\n  swap2\n  swap1\n  pop\n  jump\t// out\n    /* \"#utility.yul\":2911:3033   */\ntag_28:\n    /* \"#utility.yul\":2984:3008   */\n  tag_89\n    /* \"#utility.yul\":3002:3007   */\n  dup2\n    /* \"#utility.yul\":2984:3008   */\n  tag_27\n  jump\t// in\ntag_89:\n    /* \"#utility.yul\":2977:2982   */\n  dup2\n    /* \"#utility.yul\":2974:3009   */\n  eq\n    /* \"#utility.yul\":2964:3027   */\n  tag_90\n  jumpi\n    /* \"#utility.yul\":3023:3024   */\n  0x00\n    /* \"#utility.yul\":3020:3021   */\n  dup1\n    /* \"#utility.yul\":3013:3025   */\n  revert\n    /* \"#utility.yul\":2964:3027   */\ntag_90:\n    /* \"#utility.yul\":2911:3033   */\n  pop\n  jump\t// out\n    /* \"#utility.yul\":3039:3182   */\ntag_29:\n    /* \"#utility.yul\":3096:3101   */\n  0x00\n    /* \"#utility.yul\":3127:3133   */\n  dup2\n    /* \"#utility.yul\":3121:3134   */\n  mload\n    /* \"#utility.yul\":3112:3134   */\n  swap1\n  pop\n    /* \"#utility.yul\":3143:3176   */\n  tag_92\n    /* \"#utility.yul\":3170:3175   */\n  dup2\n    /* \"#utility.yul\":3143:3176   */\n  tag_28\n  jump\t// in\ntag_92:\n    /* \"#utility.yul\":3039:3182   */\n  swap3\n  swap2\n  pop\n  pop\n  jump\t// out\n    /* \"#utility.yul\":3188:3298   */\ntag_30:\n    /* \"#utility.yul\":3239:3246   */\n  0x00\n    /* \"#utility.yul\":3268:3292   */\n  tag_94\n    /* \"#utility.yul\":3286:3291   */\n  dup3\n    /* \"#utility.yul\":3268:3292   */\n  tag_27\n  jump\t// in\ntag_94:\n    /* \"#utility.yul\":3257:3292   */\n  swap1\n  pop\n    /* \"#utility.yul\":3188:3298   */\n  swap2\n  swap1\n  pop\n  jump\t// out\n    /* \"#utility.yul\":3304:3454   */\ntag_31:\n    /* \"#utility.yul\":3391:3429   */\n  tag_96\n    /* \"#utility.yul\":3423:3428   */\n  dup2\n    /* \"#utility.yul\":3391:3429   */\n  tag_30\n  jump\t// in\ntag_96:\n    /* \"#utility.yul\":3384:3389   */\n  dup2\n    /* \"#utility.yul\":3381:3430   */\n  eq\n    /* \"#utility.yul\":3371:3448   */\n  tag_97\n  jumpi\n    /* \"#utility.yul\":3444:3445   */\n  0x00\n    /* \"#utility.yul\":3441:3442   */\n  dup1\n    /* \"#utility.yul\":3434:3446   */\n  revert\n    /* \"#utility.yul\":3371:3448   */\ntag_97:\n    /* \"#utility.yul\":3304:3454   */\n  pop\n  jump\t// out\n    /* \"#utility.yul\":3460:3631   */\ntag_32:\n    /* \"#utility.yul\":3531:3536   */\n  0x00\n    /* \"#utility.yul\":3562:3568   */\n  dup2\n    /* \"#utility.yul\":3556:3569   */\n  mload\n    /* \"#utility.yul\":3547:3569   */\n  swap1\n  pop\n    /* \"#utility.yul\":3578:3625   */\n  tag_99\n    /* \"#utility.yul\":3619:3624   */\n  dup2\n    /* \"#utility.yul\":3578:3625   */\n  tag_31\n  jump\t// in\ntag_99:\n    /* \"#utility.yul\":3460:3631   */\n  swap3\n  swap2\n  pop\n  pop\n  jump\t// out\n    /* \"#utility.yul\":3637:4831   */\ntag_3:\n    /* \"#utility.yul\":3768:3774   */\n  0x00\n    /* \"#utility.yul\":3776:3782   */\n  dup1\n    /* \"#utility.yul\":3784:3790   */\n  0x00\n    /* \"#utility.yul\":3792:3798   */\n  dup1\n    /* \"#utility.yul\":3841:3844   */\n  0x80\n    /* \"#utility.yul\":3829:3838   */\n  dup6\n    /* \"#utility.yul\":3820:3827   */\n  dup8\n    /* \"#utility.yul\":3816:3839   */\n  sub\n    /* \"#utility.yul\":3812:3845   */\n  slt\n    /* \"#utility.yul\":3809:3929   */\n  iszero\n  tag_101\n  jumpi\n    /* \"#utility.yul\":3848:3927   */\n  tag_102\n  tag_14\n  jump\t// in\ntag_102:\n    /* \"#utility.yul\":3809:3929   */\ntag_101:\n    /* \"#utility.yul\":3989:3990   */\n  0x00\n    /* \"#utility.yul\":3978:3987   */\n  dup6\n    /* \"#utility.yul\":3974:3991   */\n  add\n    /* \"#utility.yul\":3968:3992   */\n  mload\n    /* \"#utility.yul\":4019:4037   */\n  0xffffffffffffffff\n    /* \"#utility.yul\":4011:4017   */\n  dup2\n    /* \"#utility.yul\":4008:4038   */\n  gt\n    /* \"#utility.yul\":4005:4122   */\n  iszero\n  tag_103\n  jumpi\n    /* \"#utility.yul\":4041:4120   */\n  tag_104\n  tag_15\n  jump\t// in\ntag_104:\n    /* \"#utility.yul\":4005:4122   */\ntag_103:\n    /* \"#utility.yul\":4146:4220   */\n  tag_105\n    /* \"#utility.yul\":4212:4219   */\n  dup8\n    /* \"#utility.yul\":4203:4209   */\n  dup3\n    /* \"#utility.yul\":4192:4201   */\n  dup9\n    /* \"#utility.yul\":4188:4210   */\n  add\n    /* \"#utility.yul\":4146:4220   */\n  tag_25\n  jump\t// in\ntag_105:\n    /* \"#utility.yul\":4136:4220   */\n  swap5\n  pop\n    /* \"#utility.yul\":3939:4230   */\n  pop\n    /* \"#utility.yul\":4290:4292   */\n  0x20\n    /* \"#utility.yul\":4279:4288   */\n  dup6\n    /* \"#utility.yul\":4275:4293   */\n  add\n    /* \"#utility.yul\":4269:4294   */\n  mload\n    /* \"#utility.yul\":4321:4339   */\n  0xffffffffffffffff\n    /* \"#utility.yul\":4313:4319   */\n  dup2\n    /* \"#utility.yul\":4310:4340   */\n  gt\n    /* \"#utility.yul\":4307:4424   */\n  iszero\n  tag_106\n  jumpi\n    /* \"#utility.yul\":4343:4422   */\n  tag_107\n  tag_15\n  jump\t// in\ntag_107:\n    /* \"#utility.yul\":4307:4424   */\ntag_106:\n    /* \"#utility.yul\":4448:4522   */\n  tag_108\n    /* \"#utility.yul\":4514:4521   */\n  dup8\n    /* \"#utility.yul\":4505:4511   */\n  dup3\n    /* \"#utility.yul\":4494:4503   */\n  dup9\n    /* \"#utility.yul\":4490:4512   */\n  add\n    /* \"#utility.yul\":4448:4522   */\n  tag_25\n  jump\t// in\ntag_108:\n    /* \"#utility.yul\":4438:4522   */\n  swap4\n  pop\n    /* \"#utility.yul\":4240:4532   */\n  pop\n    /* \"#utility.yul\":4571:4573   */\n  0x40\n    /* \"#utility.yul\":4597:4661   */\n  tag_109\n    /* \"#utility.yul\":4653:4660   */\n  dup8\n    /* \"#utility.yul\":4644:4650   */\n  dup3\n    /* \"#utility.yul\":4633:4642   */\n  dup9\n    /* \"#utility.yul\":4629:4651   */\n  add\n    /* \"#utility.yul\":4597:4661   */\n  tag_29\n  jump\t// in\ntag_109:\n    /* \"#utility.yul\":4587:4661   */\n  swap3\n  pop\n    /* \"#utility.yul\":4542:4671   */\n  pop\n    /* \"#utility.yul\":4710:4712   */\n  0x60\n    /* \"#utility.yul\":4736:4814   */\n  tag_110\n    /* \"#utility.yul\":4806:4813   */\n  dup8\n    /* \"#utility.yul\":4797:4803   */\n  dup3\n    /* \"#utility.yul\":4786:4795   */\n  dup9\n    /* \"#utility.yul\":4782:4804   */\n  add\n    /* \"#utility.yul\":4736:4814   */\n  tag_32\n  jump\t// in\ntag_110:\n    /* \"#utility.yul\":4726:4814   */\n  swap2\n  pop\n    /* \"#utility.yul\":4681:4824   */\n  pop\n    /* \"#utility.yul\":3637:4831   */\n  swap3\n  swap6\n  swap2\n  swap5\n  pop\n  swap3\n  pop\n  jump\t// out\n    /* \"#utility.yul\":4837:4936   */\ntag_33:\n    /* \"#utility.yul\":4889:4895   */\n  0x00\n    /* \"#utility.yul\":4923:4928   */\n  dup2\n    /* \"#utility.yul\":4917:4929   */\n  mload\n    /* \"#utility.yul\":4907:4929   */\n  swap1\n  pop\n    /* \"#utility.yul\":4837:4936   */\n  swap2\n  swap1\n  pop\n  jump\t// out\n    /* \"#utility.yul\":4942:5122   */\ntag_34:\n    /* \"#utility.yul\":4990:5067   */\n  0x4e487b7100000000000000000000000000000000000000000000000000000000\n    /* \"#utility.yul\":4987:4988   */\n  0x00\n    /* \"#utility.yul\":4980:5068   */\n  mstore\n    /* \"#utility.yul\":5087:5091   */\n  0x22\n    /* \"#utility.yul\":5084:5085   */\n  0x04\n    /* \"#utility.yul\":5077:5092   */\n  mstore\n    /* \"#utility.yul\":5111:5115   */\n  0x24\n    /* \"#utility.yul\":5108:5109   */\n  0x00\n    /* \"#utility.yul\":5101:5116   */\n  revert\n    /* \"#utility.yul\":5128:5448   */\ntag_35:\n    /* \"#utility.yul\":5172:5178   */\n  0x00\n    /* \"#utility.yul\":5209:5210   */\n  0x02\n    /* \"#utility.yul\":5203:5207   */\n  dup3\n    /* \"#utility.yul\":5199:5211   */\n  div\n    /* \"#utility.yul\":5189:5211   */\n  swap1\n  pop\n    /* \"#utility.yul\":5256:5257   */\n  0x01\n    /* \"#utility.yul\":5250:5254   */\n  dup3\n    /* \"#utility.yul\":5246:5258   */\n  and\n    /* \"#utility.yul\":5277:5295   */\n  dup1\n    /* \"#utility.yul\":5267:5348   */\n  tag_114\n  jumpi\n    /* \"#utility.yul\":5333:5337   */\n  0x7f\n    /* \"#utility.yul\":5325:5331   */\n  dup3\n    /* \"#utility.yul\":5321:5338   */\n  and\n    /* \"#utility.yul\":5311:5338   */\n  swap2\n  pop\n    /* \"#utility.yul\":5267:5348   */\ntag_114:\n    /* \"#utility.yul\":5395:5397   */\n  0x20\n    /* \"#utility.yul\":5387:5393   */\n  dup3\n    /* \"#utility.yul\":5384:5398   */\n  lt\n    /* \"#utility.yul\":5364:5382   */\n  dup2\n    /* \"#utility.yul\":5361:5399   */\n  sub\n    /* \"#utility.yul\":5358:5442   */\n  tag_115\n  jumpi\n    /* \"#utility.yul\":5414:5432   */\n  tag_116\n  tag_34\n  jump\t// in\ntag_116:\n    /* \"#utility.yul\":5358:5442   */\ntag_115:\n    /* \"#utility.yul\":5179:5448   */\n  pop\n    /* \"#utility.yul\":5128:5448   */\n  swap2\n  swap1\n  pop\n  jump\t// out\n    /* \"#utility.yul\":5454:5595   */\ntag_36:\n    /* \"#utility.yul\":5503:5507   */\n  0x00\n    /* \"#utility.yul\":5526:5529   */\n  dup2\n    /* \"#utility.yul\":5518:5529   */\n  swap1\n  pop\n    /* \"#utility.yul\":5549:5552   */\n  dup2\n    /* \"#utility.yul\":5546:5547   */\n  0x00\n    /* \"#utility.yul\":5539:5553   */\n  mstore\n    /* \"#utility.yul\":5583:5587   */\n  0x20\n    /* \"#utility.yul\":5580:5581   */\n  0x00\n    /* \"#utility.yul\":5570:5588   */\n  keccak256\n    /* \"#utility.yul\":5562:5588   */\n  swap1\n  pop\n    /* \"#utility.yul\":5454:5595   */\n  swap2\n  swap1\n  pop\n  jump\t// out\n    /* \"#utility.yul\":5601:5694   */\ntag_37:\n    /* \"#utility.yul\":5638:5644   */\n  0x00\n    /* \"#utility.yul\":5685:5687   */\n  0x20\n    /* \"#utility.yul\":5680:5682   */\n  0x1f\n    /* \"#utility.yul\":5673:5678   */\n  dup4\n    /* \"#utility.yul\":5669:5683   */\n  add\n    /* \"#utility.yul\":5665:5688   */\n  div\n    /* \"#utility.yul\":5655:5688   */\n  swap1\n  pop\n    /* \"#utility.yul\":5601:5694   */\n  swap2\n  swap1\n  pop\n  jump\t// out\n    /* \"#utility.yul\":5700:5807   */\ntag_38:\n    /* \"#utility.yul\":5744:5752   */\n  0x00\n    /* \"#utility.yul\":5794:5799   */\n  dup3\n    /* \"#utility.yul\":5788:5792   */\n  dup3\n    /* \"#utility.yul\":5784:5800   */\n  shl\n    /* \"#utility.yul\":5763:5800   */\n  swap1\n  pop\n    /* \"#utility.yul\":5700:5807   */\n  swap3\n  swap2\n  pop\n  pop\n  jump\t// out\n    /* \"#utility.yul\":5813:6206   */\ntag_39:\n    /* \"#utility.yul\":5882:5888   */\n  0x00\n    /* \"#utility.yul\":5932:5933   */\n  0x08\n    /* \"#utility.yul\":5920:5930   */\n  dup4\n    /* \"#utility.yul\":5916:5934   */\n  mul\n    /* \"#utility.yul\":5955:6052   */\n  tag_121\n    /* \"#utility.yul\":5985:6051   */\n  0xffffffffffffffffffffffffffffffffffffffffffffffffffffffffffffffff\n    /* \"#utility.yul\":5974:5983   */\n  dup3\n    /* \"#utility.yul\":5955:6052   */\n  tag_38\n  jump\t// in\ntag_121:\n    /* \"#utility.yul\":6073:6112   */\n  tag_122\n    /* \"#utility.yul\":6103:6111   */\n  dup7\n    /* \"#utility.yul\":6092:6101   */\n  dup4\n    /* \"#utility.yul\":6073:6112   */\n  tag_38\n  jump\t// in\ntag_122:\n    /* \"#utility.yul\":6061:6112   */\n  swap6\n  pop\n    /* \"#utility.yul\":6145:6149   */\n  dup1\n    /* \"#utility.yul\":6141:6150   */\n  not\n    /* \"#utility.yul\":6134:6139   */\n  dup5\n    /* \"#utility.yul\":6130:6151   */\n  and\n    /* \"#utility.yul\":6121:6151   */\n  swap4\n  pop\n    /* \"#utility.yul\":6194:6198   */\n  dup1\n    /* \"#utility.yul\":6184:6192   */\n  dup7\n    /* \"#utility.yul\":6180:6199   */\n  and\n    /* \"#utility.yul\":6173:6178   */\n  dup5\n    /* \"#utility.yul\":6170:6200   */\n  or\n    /* \"#utility.yul\":6160:6200   */\n  swap3\n  pop\n    /* \"#utility.yul\":5889:6206   */\n  pop\n  pop\n    /* \"#utility.yul\":5813:6206   */\n  swap4\n  swap3\n  pop\n  pop\n  pop\n  jump\t// out\n    /* \"#utility.yul\":6212:6289   */\ntag_40:\n    /* \"#utility.yul\":6249:6256   */\n  0x00\n    /* \"#utility.yul\":6278:6283   */\n  dup2\n    /* \"#utility.yul\":6267:6283   */\n  swap1\n  pop\n    /* \"#utility.yul\":6212:6289   */\n  swap2\n  swap1\n  pop\n  jump\t// out\n    /* \"#utility.yul\":6295:6355   */\ntag_41:\n    /* \"#utility.yul\":6323:6326   */\n  0x00\n    /* \"#utility.yul\":6344:6349   */\n  dup2\n    /* \"#utility.yul\":6337:6349   */\n  swap1\n  pop\n    /* \"#utility.yul\":6295:6355   */\n  swap2\n  swap1\n  pop\n  jump\t// out\n    /* \"#utility.yul\":6361:6503   */\ntag_42:\n    /* \"#utility.yul\":6411:6420   */\n  0x00\n    /* \"#utility.yul\":6444:6497   */\n  tag_126\n    /* \"#utility.yul\":6462:6496   */\n  tag_127\n    /* \"#utility.yul\":6471:6495   */\n  tag_128\n    /* \"#utility.yul\":6489:6494   */\n  dup5\n    /* \"#utility.yul\":6471:6495   */\n  tag_40\n  jump\t// in\ntag_128:\n    /* \"#utility.yul\":6462:6496   */\n  tag_41\n  jump\t// in\ntag_127:\n    /* \"#utility.yul\":6444:6497   */\n  tag_40\n  jump\t// in\ntag_126:\n    /* \"#utility.yul\":6431:6497   */\n  swap1\n  pop\n    /* \"#utility.yul\":6361:6503   */\n  swap2\n  swap1\n  pop\n  jump\t// out\n    /* \"#utility.yul\":6509:6584   */\ntag_43:\n    /* \"#utility.yul\":6552:6555   */\n  0x00\n    /* \"#utility.yul\":6573:6578   */\n  dup2\n    /* \"#utility.yul\":6566:6578   */\n  swap1\n  pop\n    /* \"#utility.yul\":6509:6584   */\n  swap2\n  swap1\n  pop\n  jump\t// out\n    /* \"#utility.yul\":6590:6859   */\ntag_44:\n    /* \"#utility.yul\":6700:6739   */\n  tag_131\n    /* \"#utility.yul\":6731:6738   */\n  dup4\n    /* \"#utility.yul\":6700:6739   */\n  tag_42\n  jump\t// in\ntag_131:\n    /* \"#utility.yul\":6761:6852   */\n  tag_132\n    /* \"#utility.yul\":6810:6851   */\n  tag_133\n    /* \"#utility.yul\":6834:6850   */\n  dup3\n    /* \"#utility.yul\":6810:6851   */\n  tag_43\n  jump\t// in\ntag_133:\n    /* \"#utility.yul\":6802:6808   */\n  dup5\n    /* \"#utility.yul\":6795:6799   */\n  dup5\n    /* \"#utility.yul\":6789:6800   */\n  sload\n    /* \"#utility.yul\":6761:6852   */\n  tag_39\n  jump\t// in\ntag_132:\n    /* \"#utility.yul\":6755:6759   */\n  dup3\n    /* \"#utility.yul\":6748:6853   */\n  sstore\n    /* \"#utility.yul\":6666:6859   */\n  pop\n    /* \"#utility.yul\":6590:6859   */\n  pop\n  pop\n  pop\n  jump\t// out\n    /* \"#utility.yul\":6865:6938   */\ntag_45:\n    /* \"#utility.yul\":6910:6913   */\n  0x00\n    /* \"#utility.yul\":6865:6938   */\n  swap1\n  jump\t// out\n    /* \"#utility.yul\":6944:7133   */\ntag_46:\n    /* \"#utility.yul\":7021:7053   */\n  tag_136\n  tag_45\n  jump\t// in\ntag_136:\n    /* \"#utility.yul\":7062:7127   */\n  tag_137\n    /* \"#utility.yul\":7120:7126   */\n  dup2\n    /* \"#utility.yul\":7112:7118   */\n  dup5\n    /* \"#utility.yul\":7106:7110   */\n  dup5\n    /* \"#utility.yul\":7062:7127   */\n  tag_44\n  jump\t// in\ntag_137:\n    /* \"#utility.yul\":6997:7133   */\n  pop\n    /* \"#utility.yul\":6944:7133   */\n  pop\n  pop\n  jump\t// out\n    /* \"#utility.yul\":7139:7325   */\ntag_47:\n    /* \"#utility.yul\":7199:7319   */\ntag_139:\n    /* \"#utility.yul\":7216:7219   */\n  dup2\n    /* \"#utility.yul\":7209:7214   */\n  dup2\n    /* \"#utility.yul\":7206:7220   */\n  lt\n    /* \"#utility.yul\":7199:7319   */\n  iszero\n  tag_141\n  jumpi\n    /* \"#utility.yul\":7270:7309   */\n  tag_142\n    /* \"#utility.yul\":7307:7308   */\n  0x00\n    /* \"#utility.yul\":7300:7305   */\n  dup3\n    /* \"#utility.yul\":7270:7309   */\n  tag_46\n  jump\t// in\ntag_142:\n    /* \"#utility.yul\":7243:7244   */\n  0x01\n    /* \"#utility.yul\":7236:7241   */\n  dup2\n    /* \"#utility.yul\":7232:7245   */\n  add\n    /* \"#utility.yul\":7223:7245   */\n  swap1\n  pop\n    /* \"#utility.yul\":7199:7319   */\n  jump(tag_139)\ntag_141:\n    /* \"#utility.yul\":7139:7325   */\n  pop\n  pop\n  jump\t// out\n    /* \"#utility.yul\":7331:7874   */\ntag_48:\n    /* \"#utility.yul\":7432:7434   */\n  0x1f\n    /* \"#utility.yul\":7427:7430   */\n  dup3\n    /* \"#utility.yul\":7424:7435   */\n  gt\n    /* \"#utility.yul\":7421:7867   */\n  iszero\n  tag_144\n  jumpi\n    /* \"#utility.yul\":7466:7504   */\n  tag_145\n    /* \"#utility.yul\":7498:7503   */\n  dup2\n    /* \"#utility.yul\":7466:7504   */\n  tag_36\n  jump\t// in\ntag_145:\n    /* \"#utility.yul\":7550:7579   */\n  tag_146\n    /* \"#utility.yul\":7568:7578   */\n  dup5\n    /* \"#utility.yul\":7550:7579   */\n  tag_37\n  jump\t// in\ntag_146:\n    /* \"#utility.yul\":7540:7548   */\n  dup2\n    /* \"#utility.yul\":7536:7580   */\n  add\n    /* \"#utility.yul\":7733:7735   */\n  0x20\n    /* \"#utility.yul\":7721:7731   */\n  dup6\n    /* \"#utility.yul\":7718:7736   */\n  lt\n    /* \"#utility.yul\":7715:7764   */\n  iszero\n  tag_147\n  jumpi\n    /* \"#utility.yul\":7754:7762   */\n  dup2\n    /* \"#utility.yul\":7739:7762   */\n  swap1\n  pop\n    /* \"#utility.yul\":7715:7764   */\ntag_147:\n    /* \"#utility.yul\":7777:7857   */\n  tag_148\n    /* \"#utility.yul\":7833:7855   */\n  tag_149\n    /* \"#utility.yul\":7851:7854   */\n  dup6\n    /* \"#utility.yul\":7833:7855   */\n  tag_37\n  jump\t// in\ntag_149:\n    /* \"#utility.yul\":7823:7831   */\n  dup4\n    /* \"#utility.yul\":7819:7856   */\n  add\n    /* \"#utility.yul\":7806:7817   */\n  dup3\n    /* \"#utility.yul\":7777:7857   */\n  tag_47\n  jump\t// in\ntag_148:\n    /* \"#utility.yul\":7436:7867   */\n  pop\n  pop\n    /* \"#utility.yul\":7421:7867   */\ntag_144:\n    /* \"#utility.yul\":7331:7874   */\n  pop\n  pop\n  pop\n  jump\t// out\n    /* \"#utility.yul\":7880:7997   */\ntag_49:\n    /* \"#utility.yul\":7934:7942   */\n  0x00\n    /* \"#utility.yul\":7984:7989   */\n  dup3\n    /* \"#utility.yul\":7978:7982   */\n  dup3\n    /* \"#utility.yul\":7974:7990   */\n  shr\n    /* \"#utility.yul\":7953:7990   */\n  swap1\n  pop\n    /* \"#utility.yul\":7880:7997   */\n  swap3\n  swap2\n  pop\n  pop\n  jump\t// out\n    /* \"#utility.yul\":8003:8172   */\ntag_50:\n    /* \"#utility.yul\":8047:8053   */\n  0x00\n    /* \"#utility.yul\":8080:8131   */\n  tag_152\n    /* \"#utility.yul\":8128:8129   */\n  0x00\n    /* \"#utility.yul\":8124:8130   */\n  not\n    /* \"#utility.yul\":8116:8121   */\n  dup5\n    /* \"#utility.yul\":8113:8114   */\n  0x08\n    /* \"#utility.yul\":8109:8122   */\n  mul\n    /* \"#utility.yul\":8080:8131   */\n  tag_49\n  jump\t// in\ntag_152:\n    /* \"#utility.yul\":8076:8132   */\n  not\n    /* \"#utility.yul\":8161:8165   */\n  dup1\n    /* \"#utility.yul\":8155:8159   */\n  dup4\n    /* \"#utility.yul\":8151:8166   */\n  and\n    /* \"#utility.yul\":8141:8166   */\n  swap2\n  pop\n    /* \"#utility.yul\":8054:8172   */\n  pop\n    /* \"#utility.yul\":8003:8172   */\n  swap3\n  swap2\n  pop\n  pop\n  jump\t// out\n    /* \"#utility.yul\":8177:8472   */\ntag_51:\n    /* \"#utility.yul\":8253:8257   */\n  0x00\n    /* \"#utility.yul\":8399:8428   */\n  tag_154\n    /* \"#utility.yul\":8424:8427   */\n  dup4\n    /* \"#utility.yul\":8418:8422   */\n  dup4\n    /* \"#utility.yul\":8399:8428   */\n  tag_50\n  jump\t// in\ntag_154:\n    /* \"#utility.yul\":8391:8428   */\n  swap2\n  pop\n    /* \"#utility.yul\":8461:8464   */\n  dup3\n    /* \"#utility.yul\":8458:8459   */\n  0x02\n    /* \"#utility.yul\":8454:8465   */\n  mul\n    /* \"#utility.yul\":8448:8452   */\n  dup3\n    /* \"#utility.yul\":8445:8466   */\n  or\n    /* \"#utility.yul\":8437:8466   */\n  swap1\n  pop\n    /* \"#utility.yul\":8177:8472   */\n  swap3\n  swap2\n  pop\n  pop\n  jump\t// out\n    /* \"#utility.yul\":8477:9872   */\ntag_8:\n    /* \"#utility.yul\":8594:8631   */\n  tag_156\n    /* \"#utility.yul\":8627:8630   */\n  dup3\n    /* \"#utility.yul\":8594:8631   */\n  tag_33\n  jump\t// in\ntag_156:\n    /* \"#utility.yul\":8696:8714   */\n  0xffffffffffffffff\n    /* \"#utility.yul\":8688:8694   */\n  dup2\n    /* \"#utility.yul\":8685:8715   */\n  gt\n    /* \"#utility.yul\":8682:8738   */\n  iszero\n  tag_157\n  jumpi\n    /* \"#utility.yul\":8718:8736   */\n  tag_158\n  tag_19\n  jump\t// in\ntag_158:\n    /* \"#utility.yul\":8682:8738   */\ntag_157:\n    /* \"#utility.yul\":8762:8800   */\n  tag_159\n    /* \"#utility.yul\":8794:8798   */\n  dup3\n    /* \"#utility.yul\":8788:8799   */\n  sload\n    /* \"#utility.yul\":8762:8800   */\n  tag_35\n  jump\t// in\ntag_159:\n    /* \"#utility.yul\":8847:8914   */\n  tag_160\n    /* \"#utility.yul\":8907:8913   */\n  dup3\n    /* \"#utility.yul\":8899:8905   */\n  dup3\n    /* \"#utility.yul\":8893:8897   */\n  dup6\n    /* \"#utility.yul\":8847:8914   */\n  tag_48\n  jump\t// in\ntag_160:\n    /* \"#utility.yul\":8941:8942   */\n  0x00\n    /* \"#utility.yul\":8965:8969   */\n  0x20\n    /* \"#utility.yul\":8952:8969   */\n  swap1\n  pop\n    /* \"#utility.yul\":8997:8999   */\n  0x1f\n    /* \"#utility.yul\":8989:8995   */\n  dup4\n    /* \"#utility.yul\":8986:9000   */\n  gt\n    /* \"#utility.yul\":9014:9015   */\n  0x01\n    /* \"#utility.yul\":9009:9627   */\n  dup2\n  eq\n  tag_162\n  jumpi\n    /* \"#utility.yul\":9671:9672   */\n  0x00\n    /* \"#utility.yul\":9688:9694   */\n  dup5\n    /* \"#utility.yul\":9685:9762   */\n  iszero\n  tag_163\n  jumpi\n    /* \"#utility.yul\":9737:9746   */\n  dup3\n    /* \"#utility.yul\":9732:9735   */\n  dup8\n    /* \"#utility.yul\":9728:9747   */\n  add\n    /* \"#utility.yul\":9722:9748   */\n  mload\n    /* \"#utility.yul\":9713:9748   */\n  swap1\n  pop\n    /* \"#utility.yul\":9685:9762   */\ntag_163:\n    /* \"#utility.yul\":9788:9855   */\n  tag_164\n    /* \"#utility.yul\":9848:9854   */\n  dup6\n    /* \"#utility.yul\":9841:9846   */\n  dup3\n    /* \"#utility.yul\":9788:9855   */\n  tag_51\n  jump\t// in\ntag_164:\n    /* \"#utility.yul\":9782:9786   */\n  dup7\n    /* \"#utility.yul\":9775:9856   */\n  sstore\n    /* \"#utility.yul\":9644:9866   */\n  pop\n    /* \"#utility.yul\":8979:9866   */\n  jump(tag_161)\n    /* \"#utility.yul\":9009:9627   */\ntag_162:\n    /* \"#utility.yul\":9061:9065   */\n  0x1f\n    /* \"#utility.yul\":9057:9066   */\n  not\n    /* \"#utility.yul\":9049:9055   */\n  dup5\n    /* \"#utility.yul\":9045:9067   */\n  and\n    /* \"#utility.yul\":9095:9132   */\n  tag_165\n    /* \"#utility.yul\":9127:9131   */\n  dup7\n    /* \"#utility.yul\":9095:9132   */\n  tag_36\n  jump\t// in\ntag_165:\n    /* \"#utility.yul\":9154:9155   */\n  0x00\n    /* \"#utility.yul\":9168:9376   */\ntag_166:\n    /* \"#utility.yul\":9182:9189   */\n  dup3\n    /* \"#utility.yul\":9179:9180   */\n  dup2\n    /* \"#utility.yul\":9176:9190   */\n  lt\n    /* \"#utility.yul\":9168:9376   */\n  iszero\n  tag_168\n  jumpi\n    /* \"#utility.yul\":9261:9270   */\n  dup5\n    /* \"#utility.yul\":9256:9259   */\n  dup10\n    /* \"#utility.yul\":9252:9271   */\n  add\n    /* \"#utility.yul\":9246:9272   */\n  mload\n    /* \"#utility.yul\":9238:9244   */\n  dup3\n    /* \"#utility.yul\":9231:9273   */\n  sstore\n    /* \"#utility.yul\":9312:9313   */\n  0x01\n    /* \"#utility.yul\":9304:9310   */\n  dup3\n    /* \"#utility.yul\":9300:9314   */\n  add\n    /* \"#utility.yul\":9290:9314   */\n  swap2\n  pop\n    /* \"#utility.yul\":9359:9361   */\n  0x20\n    /* \"#utility.yul\":9348:9357   */\n  dup6\n    /* \"#utility.yul\":9344:9362   */\n  add\n    /* \"#utility.yul\":9331:9362   */\n  swap5\n  pop\n    /* \"#utility.yul\":9205:9209   */\n  0x20\n    /* \"#utility.yul\":9202:9203   */\n  dup2\n    /* \"#utility.yul\":9198:9210   */\n  add\n    /* \"#utility.yul\":9193:9210   */\n  swap1\n  pop\n    /* \"#utility.yul\":9168:9376   */\n  jump(tag_166)\ntag_168:\n    /* \"#utility.yul\":9404:9410   */\n  dup7\n    /* \"#utility.yul\":9395:9402   */\n  dup4\n    /* \"#utility.yul\":9392:9411   */\n  lt\n    /* \"#utility.yul\":9389:9568   */\n  iszero\n  tag_169\n  jumpi\n    /* \"#utility.yul\":9462:9471   */\n  dup5\n    /* \"#utility.yul\":9457:9460   */\n  dup10\n    /* \"#utility.yul\":9453:9472   */\n  add\n    /* \"#utility.yul\":9447:9473   */\n  mload\n    /* \"#utility.yul\":9505:9553   */\n  tag_170\n    /* \"#utility.yul\":9547:9551   */\n  0x1f\n    /* \"#utility.yul\":9539:9545   */\n  dup10\n    /* \"#utility.yul\":9535:9552   */\n  and\n    /* \"#utility.yul\":9524:9533   */\n  dup3\n    /* \"#utility.yul\":9505:9553   */\n  tag_50\n  jump\t// in\ntag_170:\n    /* \"#utility.yul\":9497:9503   */\n  dup4\n    /* \"#utility.yul\":9490:9554   */\n  sstore\n    /* \"#utility.yul\":9412:9568   */\n  pop\n    /* \"#utility.yul\":9389:9568   */\ntag_169:\n    /* \"#utility.yul\":9614:9615   */\n  0x01\n    /* \"#utility.yul\":9610:9611   */\n  0x02\n    /* \"#utility.yul\":9602:9608   */\n  dup9\n    /* \"#utility.yul\":9598:9612   */\n  mul\n    /* \"#utility.yul\":9594:9616   */\n  add\n    /* \"#utility.yul\":9588:9592   */\n  dup9\n    /* \"#utility.yul\":9581:9617   */\n  sstore\n    /* \"#utility.yul\":9016:9627   */\n  pop\n  pop\n  pop\n    /* \"#utility.yul\":8979:9866   */\ntag_161:\n  pop\n    /* \"#utility.yul\":8569:9872   */\n  pop\n  pop\n  pop\n    /* \"#utility.yul\":8477:9872   */\n  pop\n  pop\n  jump\t// out\n    /* \"src/Derivatives/CharityToken.sol\":378:1475  contract CharityToken is ICharityToken, ERC20, Initializable {... */\ntag_12:\n  dataSize(sub_0)\n  dup1\n  dataOffset(sub_0)\n  0x00\n  codecopy\n  0x00\n  return\nstop\n\nsub_0: assembly {\n        /* \"src/Derivatives/CharityToken.sol\":378:1475  contract CharityToken is ICharityToken, ERC20, Initializable {... */\n      mstore(0x40, 0x80)\n      callvalue\n      dup1\n      iszero\n      tag_1\n      jumpi\n      0x00\n      dup1\n      revert\n    tag_1:\n      pop\n      jumpi(tag_2, lt(calldatasize, 0x04))\n      shr(0xe0, calldataload(0x00))\n      dup1\n      0x66829b16\n      gt\n      tag_16\n      jumpi\n      dup1\n      0xa457c2d7\n      gt\n      tag_17\n      jumpi\n      dup1\n      0xa457c2d7\n      eq\n      tag_12\n      jumpi\n      dup1\n      0xa9059cbb\n      eq\n      tag_13\n      jumpi\n      dup1\n      0xdd62ed3e\n      eq\n      tag_14\n      jumpi\n      dup1\n      0xf14faf6f\n      eq\n      tag_15\n      jumpi\n      jump(tag_2)\n    tag_17:\n      dup1\n      0x66829b16\n      eq\n      tag_9\n      jumpi\n      dup1\n      0x70a08231\n      eq\n      tag_10\n      jumpi\n      dup1\n      0x95d89b41\n      eq\n      tag_11\n      jumpi\n      jump(tag_2)\n    tag_16:\n      dup1\n      0x06fdde03\n      eq\n      tag_3\n      jumpi\n      dup1\n      0x095ea7b3\n      eq\n      tag_4\n      jumpi\n      dup1\n      0x18160ddd\n      eq\n      tag_5\n      jumpi\n      dup1\n      0x23b872dd\n      eq\n      tag_6\n      jumpi\n      dup1\n      0x313ce567\n      eq\n      tag_7\n      jumpi\n      dup1\n      0x39509351\n      eq\n      tag_8\n      jumpi\n    tag_2:\n      0x00\n      dup1\n      revert\n        /* \"@openzeppelin/contracts/token/ERC20/ERC20.sol\":2154:2252  function name() public view virtual override returns (string memory) {... */\n    tag_3:\n      tag_18\n      tag_19\n      jump\t// in\n    tag_18:\n      mload(0x40)\n      tag_20\n      swap2\n      swap1\n      tag_21\n      jump\t// in\n    tag_20:\n      mload(0x40)\n      dup1\n      swap2\n      sub\n      swap1\n      return\n        /* \"@openzeppelin/contracts/token/ERC20/ERC20.sol\":4431:4628  function approve(address spender, uint256 amount) public virtual override returns (bool) {... */\n    tag_4:\n      tag_22\n      0x04\n      dup1\n      calldatasize\n      sub\n      dup2\n      add\n      swap1\n      tag_23\n      swap2\n      swap1\n      tag_24\n      jump\t// in\n    tag_23:\n      tag_25\n      jump\t// in\n    tag_22:\n      mload(0x40)\n      tag_26\n      swap2\n      swap1\n      tag_27\n      jump\t// in\n    tag_26:\n      mload(0x40)\n      dup1\n      swap2\n      sub\n      swap1\n      return\n        /* \"@openzeppelin/contracts/token/ERC20/ERC20.sol\":3242:3348  function totalSupply() public view virtual override returns (uint256) {... */\n    tag_5:\n      tag_28\n      tag_29\n      jump\t// in\n    tag_28:\n      mload(0x40)\n      tag_30\n      swap2\n      swap1\n      tag_31\n      jump\t// in\n    tag_30:\n      mload(0x40)\n      dup1\n      swap2\n      sub\n      swap1\n      return\n        /* \"@openzeppelin/contracts/token/ERC20/ERC20.sol\":5190:5476  function transferFrom(... */\n    tag_6:\n      tag_32\n      0x04\n      dup1\n      calldatasize\n      sub\n      dup2\n      add\n      swap1\n      tag_33\n      swap2\n      swap1\n      tag_34\n      jump\t// in\n    tag_33:\n      tag_35\n      jump\t// in\n    tag_32:\n      mload(0x40)\n      tag_36\n      swap2\n      swap1\n      tag_27\n      jump\t// in\n    tag_36:\n      mload(0x40)\n      dup1\n      swap2\n      sub\n      swap1\n      return\n        /* \"@openzeppelin/contracts/token/ERC20/ERC20.sol\":3091:3182  function decimals() public view virtual override returns (uint8) {... */\n    tag_7:\n      tag_37\n      tag_38\n      jump\t// in\n    tag_37:\n      mload(0x40)\n      tag_39\n      swap2\n      swap1\n      tag_40\n      jump\t// in\n    tag_39:\n      mload(0x40)\n      dup1\n      swap2\n      sub\n      swap1\n      return\n        /* \"@openzeppelin/contracts/token/ERC20/ERC20.sol\":5871:6105  function increaseAllowance(address spender, uint256 addedValue) public virtual returns (bool) {... */\n    tag_8:\n      tag_41\n      0x04\n      dup1\n      calldatasize\n      sub\n      dup2\n      add\n      swap1\n      tag_42\n      swap2\n      swap1\n      tag_24\n      jump\t// in\n    tag_42:\n      tag_43\n      jump\t// in\n    tag_41:\n      mload(0x40)\n      tag_44\n      swap2\n      swap1\n      tag_27\n      jump\t// in\n    tag_44:\n      mload(0x40)\n      dup1\n      swap2\n      sub\n      swap1\n      return\n        /* \"src/Derivatives/CharityToken.sol\":1298:1472  function changeToken(IERC20 _token) external {... */\n    tag_9:\n      tag_45\n      0x04\n      dup1\n      calldatasize\n      sub\n      dup2\n      add\n      swap1\n      tag_46\n      swap2\n      swap1\n      tag_47\n      jump\t// in\n    tag_46:\n      tag_48\n      jump\t// in\n    tag_45:\n      stop\n        /* \"@openzeppelin/contracts/token/ERC20/ERC20.sol\":3406:3531  function balanceOf(address account) public view virtual override returns (uint256) {... */\n    tag_10:\n      tag_49\n      0x04\n      dup1\n      calldatasize\n      sub\n      dup2\n      add\n      swap1\n      tag_50\n      swap2\n      swap1\n      tag_51\n      jump\t// in\n    tag_50:\n      tag_52\n      jump\t// in\n    tag_49:\n      mload(0x40)\n      tag_53\n      swap2\n      swap1\n      tag_31\n      jump\t// in\n    tag_53:\n      mload(0x40)\n      dup1\n      swap2\n      sub\n      swap1\n      return\n        /* \"@openzeppelin/contracts/token/ERC20/ERC20.sol\":2365:2467  function symbol() public view virtual override returns (string memory) {... */\n    tag_11:\n      tag_54\n      tag_55\n      jump\t// in\n    tag_54:\n      mload(0x40)\n      tag_56\n      swap2\n      swap1\n      tag_21\n      jump\t// in\n    tag_56:\n      mload(0x40)\n      dup1\n      swap2\n      sub\n      swap1\n      return\n        /* \"@openzeppelin/contracts/token/ERC20/ERC20.sol\":6592:7019  function decreaseAllowance(address spender, uint256 subtractedValue) public virtual returns (bool) {... */\n    tag_12:\n      tag_57\n      0x04\n      dup1\n      calldatasize\n      sub\n      dup2\n      add\n      swap1\n      tag_58\n      swap2\n      swap1\n      tag_24\n      jump\t// in\n    tag_58:\n      tag_59\n      jump\t// in\n    tag_57:\n      mload(0x40)\n      tag_60\n      swap2\n      swap1\n      tag_27\n      jump\t// in\n    tag_60:\n      mload(0x40)\n      dup1\n      swap2\n      sub\n      swap1\n      return\n        /* \"@openzeppelin/contracts/token/ERC20/ERC20.sol\":3727:3916  function transfer(address to, uint256 amount) public virtual override returns (bool) {... */\n    tag_13:\n      tag_61\n      0x04\n      dup1\n      calldatasize\n      sub\n      dup2\n      add\n      swap1\n      tag_62\n      swap2\n      swap1\n      tag_24\n      jump\t// in\n    tag_62:\n      tag_63\n      jump\t// in\n    tag_61:\n      mload(0x40)\n      tag_64\n      swap2\n      swap1\n      tag_27\n      jump\t// in\n    tag_64:\n      mload(0x40)\n      dup1\n      swap2\n      sub\n      swap1\n      return\n        /* \"@openzeppelin/contracts/token/ERC20/ERC20.sol\":3974:4123  function allowance(address owner, address spender) public view virtual override returns (uint256) {... */\n    tag_14:\n      tag_65\n      0x04\n      dup1\n      calldatasize\n      sub\n      dup2\n      add\n      swap1\n      tag_66\n      swap2\n      swap1\n      tag_67\n      jump\t// in\n    tag_66:\n      tag_68\n      jump\t// in\n    tag_65:\n      mload(0x40)\n      tag_69\n      swap2\n      swap1\n      tag_31\n      jump\t// in\n    tag_69:\n      mload(0x40)\n      dup1\n      swap2\n      sub\n      swap1\n      return\n        /* \"src/Derivatives/CharityToken.sol\":1019:1290  function donate(uint amount) external {... */\n    tag_15:\n      tag_70\n      0x04\n      dup1\n      calldatasize\n      sub\n      dup2\n      add\n      swap1\n      tag_71\n      swap2\n      swap1\n      tag_72\n      jump\t// in\n    tag_71:\n      tag_73\n      jump\t// in\n    tag_70:\n      stop\n        /* \"@openzeppelin/contracts/token/ERC20/ERC20.sol\":2154:2252  function name() public view virtual override returns (string memory) {... */\n    tag_19:\n        /* \"@openzeppelin/contracts/token/ERC20/ERC20.sol\":2208:2221  string memory */\n      0x60\n        /* \"@openzeppelin/contracts/token/ERC20/ERC20.sol\":2240:2245  _name */\n      0x03\n        /* \"@openzeppelin/contracts/token/ERC20/ERC20.sol\":2233:2245  return _name */\n      dup1\n      sload\n      tag_75\n      swap1\n      tag_76\n      jump\t// in\n    tag_75:\n      dup1\n      0x1f\n      add\n      0x20\n      dup1\n      swap2\n      div\n      mul\n      0x20\n      add\n      mload(0x40)\n      swap1\n      dup2\n      add\n      0x40\n      mstore\n      dup1\n      swap3\n      swap2\n      swap1\n      dup2\n      dup2\n      mstore\n      0x20\n      add\n      dup3\n      dup1\n      sload\n      tag_77\n      swap1\n      tag_76\n      jump\t// in\n    tag_77:\n      dup1\n      iszero\n      tag_78\n      jumpi\n      dup1\n      0x1f\n      lt\n      tag_79\n      jumpi\n      0x0100\n      dup1\n      dup4\n      sload\n      div\n      mul\n      dup4\n      mstore\n      swap2\n      0x20\n      add\n      swap2\n      jump(tag_78)\n    tag_79:\n      dup3\n      add\n      swap2\n      swap1\n      0x00\n      mstore\n      keccak256(0x00, 0x20)\n      swap1\n    tag_80:\n      dup2\n      sload\n      dup2\n      mstore\n      swap1\n      0x01\n      add\n      swap1\n      0x20\n      add\n      dup1\n      dup4\n      gt\n      tag_80\n      jumpi\n      dup3\n      swap1\n      sub\n      0x1f\n      and\n      dup3\n      add\n      swap2\n    tag_78:\n      pop\n      pop\n      pop\n      pop\n      pop\n      swap1\n      pop\n        /* \"@openzeppelin/contracts/token/ERC20/ERC20.sol\":2154:2252  function name() public view virtual override returns (string memory) {... */\n      swap1\n      jump\t// out\n        /* \"@openzeppelin/contracts/token/ERC20/ERC20.sol\":4431:4628  function approve(address spender, uint256 amount) public virtual override returns (bool) {... */\n    tag_25:\n        /* \"@openzeppelin/contracts/token/ERC20/ERC20.sol\":4514:4518  bool */\n      0x00\n        /* \"@openzeppelin/contracts/token/ERC20/ERC20.sol\":4530:4543  address owner */\n      dup1\n        /* \"@openzeppelin/contracts/token/ERC20/ERC20.sol\":4546:4558  _msgSender() */\n      tag_82\n        /* \"@openzeppelin/contracts/token/ERC20/ERC20.sol\":4546:4556  _msgSender */\n      tag_83\n        /* \"@openzeppelin/contracts/token/ERC20/ERC20.sol\":4546:4558  _msgSender() */\n      jump\t// in\n    tag_82:\n        /* \"@openzeppelin/contracts/token/ERC20/ERC20.sol\":4530:4558  address owner = _msgSender() */\n      swap1\n      pop\n        /* \"@openzeppelin/contracts/token/ERC20/ERC20.sol\":4568:4600  _approve(owner, spender, amount) */\n      tag_84\n        /* \"@openzeppelin/contracts/token/ERC20/ERC20.sol\":4577:4582  owner */\n      dup2\n        /* \"@openzeppelin/contracts/token/ERC20/ERC20.sol\":4584:4591  spender */\n      dup6\n        /* \"@openzeppelin/contracts/token/ERC20/ERC20.sol\":4593:4599  amount */\n      dup6\n        /* \"@openzeppelin/contracts/token/ERC20/ERC20.sol\":4568:4576  _approve */\n      tag_85\n        /* \"@openzeppelin/contracts/token/ERC20/ERC20.sol\":4568:4600  _approve(owner, spender, amount) */\n      jump\t// in\n    tag_84:\n        /* \"@openzeppelin/contracts/token/ERC20/ERC20.sol\":4617:4621  true */\n      0x01\n        /* \"@openzeppelin/contracts/token/ERC20/ERC20.sol\":4610:4621  return true */\n      swap2\n      pop\n      pop\n        /* \"@openzeppelin/contracts/token/ERC20/ERC20.sol\":4431:4628  function approve(address spender, uint256 amount) public virtual override returns (bool) {... */\n      swap3\n      swap2\n      pop\n      pop\n      jump\t// out\n        /* \"@openzeppelin/contracts/token/ERC20/ERC20.sol\":3242:3348  function totalSupply() public view virtual override returns (uint256) {... */\n    tag_29:\n        /* \"@openzeppelin/contracts/token/ERC20/ERC20.sol\":3303:3310  uint256 */\n      0x00\n        /* \"@openzeppelin/contracts/token/ERC20/ERC20.sol\":3329:3341  _totalSupply */\n      sload(0x02)\n        /* \"@openzeppelin/contracts/token/ERC20/ERC20.sol\":3322:3341  return _totalSupply */\n      swap1\n      pop\n        /* \"@openzeppelin/contracts/token/ERC20/ERC20.sol\":3242:3348  function totalSupply() public view virtual override returns (uint256) {... */\n      swap1\n      jump\t// out\n        /* \"@openzeppelin/contracts/token/ERC20/ERC20.sol\":5190:5476  function transferFrom(... */\n    tag_35:\n        /* \"@openzeppelin/contracts/token/ERC20/ERC20.sol\":5317:5321  bool */\n      0x00\n        /* \"@openzeppelin/contracts/token/ERC20/ERC20.sol\":5333:5348  address spender */\n      dup1\n        /* \"@openzeppelin/contracts/token/ERC20/ERC20.sol\":5351:5363  _msgSender() */\n      tag_88\n        /* \"@openzeppelin/contracts/token/ERC20/ERC20.sol\":5351:5361  _msgSender */\n      tag_83\n        /* \"@openzeppelin/contracts/token/ERC20/ERC20.sol\":5351:5363  _msgSender() */\n      jump\t// in\n    tag_88:\n        /* \"@openzeppelin/contracts/token/ERC20/ERC20.sol\":5333:5363  address spender = _msgSender() */\n      swap1\n      pop\n        /* \"@openzeppelin/contracts/token/ERC20/ERC20.sol\":5373:5411  _spendAllowance(from, spender, amount) */\n      tag_89\n        /* \"@openzeppelin/contracts/token/ERC20/ERC20.sol\":5389:5393  from */\n      dup6\n        /* \"@openzeppelin/contracts/token/ERC20/ERC20.sol\":5395:5402  spender */\n      dup3\n        /* \"@openzeppelin/contracts/token/ERC20/ERC20.sol\":5404:5410  amount */\n      dup6\n        /* \"@openzeppelin/contracts/token/ERC20/ERC20.sol\":5373:5388  _spendAllowance */\n      tag_90\n        /* \"@openzeppelin/contracts/token/ERC20/ERC20.sol\":5373:5411  _spendAllowance(from, spender, amount) */\n      jump\t// in\n    tag_89:\n        /* \"@openzeppelin/contracts/token/ERC20/ERC20.sol\":5421:5448  _transfer(from, to, amount) */\n      tag_91\n        /* \"@openzeppelin/contracts/token/ERC20/ERC20.sol\":5431:5435  from */\n      dup6\n        /* \"@openzeppelin/contracts/token/ERC20/ERC20.sol\":5437:5439  to */\n      dup6\n        /* \"@openzeppelin/contracts/token/ERC20/ERC20.sol\":5441:5447  amount */\n      dup6\n        /* \"@openzeppelin/contracts/token/ERC20/ERC20.sol\":5421:5430  _transfer */\n      tag_92\n        /* \"@openzeppelin/contracts/token/ERC20/ERC20.sol\":5421:5448  _transfer(from, to, amount) */\n      jump\t// in\n    tag_91:\n        /* \"@openzeppelin/contracts/token/ERC20/ERC20.sol\":5465:5469  true */\n      0x01\n        /* \"@openzeppelin/contracts/token/ERC20/ERC20.sol\":5458:5469  return true */\n      swap2\n      pop\n      pop\n        /* \"@openzeppelin/contracts/token/ERC20/ERC20.sol\":5190:5476  function transferFrom(... */\n      swap4\n      swap3\n      pop\n      pop\n      pop\n      jump\t// out\n        /* \"@openzeppelin/contracts/token/ERC20/ERC20.sol\":3091:3182  function decimals() public view virtual override returns (uint8) {... */\n    tag_38:\n        /* \"@openzeppelin/contracts/token/ERC20/ERC20.sol\":3149:3154  uint8 */\n      0x00\n        /* \"@openzeppelin/contracts/token/ERC20/ERC20.sol\":3173:3175  18 */\n      0x12\n        /* \"@openzeppelin/contracts/token/ERC20/ERC20.sol\":3166:3175  return 18 */\n      swap1\n      pop\n        /* \"@openzeppelin/contracts/token/ERC20/ERC20.sol\":3091:3182  function decimals() public view virtual override returns (uint8) {... */\n      swap1\n      jump\t// out\n        /* \"@openzeppelin/contracts/token/ERC20/ERC20.sol\":5871:6105  function increaseAllowance(address spender, uint256 addedValue) public virtual returns (bool) {... */\n    tag_43:\n        /* \"@openzeppelin/contracts/token/ERC20/ERC20.sol\":5959:5963  bool */\n      0x00\n        /* \"@openzeppelin/contracts/token/ERC20/ERC20.sol\":5975:5988  address owner */\n      dup1\n        /* \"@openzeppelin/contracts/token/ERC20/ERC20.sol\":5991:6003  _msgSender() */\n      tag_95\n        /* \"@openzeppelin/contracts/token/ERC20/ERC20.sol\":5991:6001  _msgSender */\n      tag_83\n        /* \"@openzeppelin/contracts/token/ERC20/ERC20.sol\":5991:6003  _msgSender() */\n      jump\t// in\n    tag_95:\n        /* \"@openzeppelin/contracts/token/ERC20/ERC20.sol\":5975:6003  address owner = _msgSender() */\n      swap1\n      pop\n        /* \"@openzeppelin/contracts/token/ERC20/ERC20.sol\":6013:6077  _approve(owner, spender, allowance(owner, spender) + addedValue) */\n      tag_96\n        /* \"@openzeppelin/contracts/token/ERC20/ERC20.sol\":6022:6027  owner */\n      dup2\n        /* \"@openzeppelin/contracts/token/ERC20/ERC20.sol\":6029:6036  spender */\n      dup6\n        /* \"@openzeppelin/contracts/token/ERC20/ERC20.sol\":6066:6076  addedValue */\n      dup6\n        /* \"@openzeppelin/contracts/token/ERC20/ERC20.sol\":6038:6063  allowance(owner, spender) */\n      tag_97\n        /* \"@openzeppelin/contracts/token/ERC20/ERC20.sol\":6048:6053  owner */\n      dup6\n        /* \"@openzeppelin/contracts/token/ERC20/ERC20.sol\":6055:6062  spender */\n      dup10\n        /* \"@openzeppelin/contracts/token/ERC20/ERC20.sol\":6038:6047  allowance */\n      tag_68\n        /* \"@openzeppelin/contracts/token/ERC20/ERC20.sol\":6038:6063  allowance(owner, spender) */\n      jump\t// in\n    tag_97:\n        /* \"@openzeppelin/contracts/token/ERC20/ERC20.sol\":6038:6076  allowance(owner, spender) + addedValue */\n      tag_98\n      swap2\n      swap1\n      tag_99\n      jump\t// in\n    tag_98:\n        /* \"@openzeppelin/contracts/token/ERC20/ERC20.sol\":6013:6021  _approve */\n      tag_85\n        /* \"@openzeppelin/contracts/token/ERC20/ERC20.sol\":6013:6077  _approve(owner, spender, allowance(owner, spender) + addedValue) */\n      jump\t// in\n    tag_96:\n        /* \"@openzeppelin/contracts/token/ERC20/ERC20.sol\":6094:6098  true */\n      0x01\n        /* \"@openzeppelin/contracts/token/ERC20/ERC20.sol\":6087:6098  return true */\n      swap2\n      pop\n      pop\n        /* \"@openzeppelin/contracts/token/ERC20/ERC20.sol\":5871:6105  function increaseAllowance(address spender, uint256 addedValue) public virtual returns (bool) {... */\n      swap3\n      swap2\n      pop\n      pop\n      jump\t// out\n        /* \"src/Derivatives/CharityToken.sol\":1298:1472  function changeToken(IERC20 _token) external {... */\n    tag_48:\n        /* \"src/Derivatives/CharityToken.sol\":1369:1381  paymentToken */\n      0x08\n      0x00\n      swap1\n      sload\n      swap1\n      0x0100\n      exp\n      swap1\n      div\n      0xffffffffffffffffffffffffffffffffffffffff\n      and\n        /* \"src/Derivatives/CharityToken.sol\":1359:1381  _token == paymentToken */\n      0xffffffffffffffffffffffffffffffffffffffff\n      and\n        /* \"src/Derivatives/CharityToken.sol\":1359:1365  _token */\n      dup2\n        /* \"src/Derivatives/CharityToken.sol\":1359:1381  _token == paymentToken */\n      0xffffffffffffffffffffffffffffffffffffffff\n      and\n      sub\n        /* \"src/Derivatives/CharityToken.sol\":1356:1418  if(_token == paymentToken)... */\n      tag_101\n      jumpi\n        /* \"src/Derivatives/CharityToken.sol\":1403:1418  PreviousToken() */\n      mload(0x40)\n      0x02ac969600000000000000000000000000000000000000000000000000000000\n      dup2\n      mstore\n      0x04\n      add\n      mload(0x40)\n      dup1\n      swap2\n      sub\n      swap1\n      revert\n        /* \"src/Derivatives/CharityToken.sol\":1356:1418  if(_token == paymentToken)... */\n    tag_101:\n        /* \"src/Derivatives/CharityToken.sol\":1458:1464  _token */\n      dup1\n        /* \"src/Derivatives/CharityToken.sol\":1443:1455  paymentToken */\n      0x08\n      0x00\n        /* \"src/Derivatives/CharityToken.sol\":1443:1464  paymentToken = _token */\n      0x0100\n      exp\n      dup2\n      sload\n      dup2\n      0xffffffffffffffffffffffffffffffffffffffff\n      mul\n      not\n      and\n      swap1\n      dup4\n      0xffffffffffffffffffffffffffffffffffffffff\n      and\n      mul\n      or\n      swap1\n      sstore\n      pop\n        /* \"src/Derivatives/CharityToken.sol\":1298:1472  function changeToken(IERC20 _token) external {... */\n      pop\n      jump\t// out\n        /* \"@openzeppelin/contracts/token/ERC20/ERC20.sol\":3406:3531  function balanceOf(address account) public view virtual override returns (uint256) {... */\n    tag_52:\n        /* \"@openzeppelin/contracts/token/ERC20/ERC20.sol\":3480:3487  uint256 */\n      0x00\n        /* \"@openzeppelin/contracts/token/ERC20/ERC20.sol\":3506:3515  _balances */\n      dup1\n        /* \"@openzeppelin/contracts/token/ERC20/ERC20.sol\":3506:3524  _balances[account] */\n      0x00\n        /* \"@openzeppelin/contracts/token/ERC20/ERC20.sol\":3516:3523  account */\n      dup4\n        /* \"@openzeppelin/contracts/token/ERC20/ERC20.sol\":3506:3524  _balances[account] */\n      0xffffffffffffffffffffffffffffffffffffffff\n      and\n      0xffffffffffffffffffffffffffffffffffffffff\n      and\n      dup2\n      mstore\n      0x20\n      add\n      swap1\n      dup2\n      mstore\n      0x20\n      add\n      0x00\n      keccak256\n      sload\n        /* \"@openzeppelin/contracts/token/ERC20/ERC20.sol\":3499:3524  return _balances[account] */\n      swap1\n      pop\n        /* \"@openzeppelin/contracts/token/ERC20/ERC20.sol\":3406:3531  function balanceOf(address account) public view virtual override returns (uint256) {... */\n      swap2\n      swap1\n      pop\n      jump\t// out\n        /* \"@openzeppelin/contracts/token/ERC20/ERC20.sol\":2365:2467  function symbol() public view virtual override returns (string memory) {... */\n    tag_55:\n        /* \"@openzeppelin/contracts/token/ERC20/ERC20.sol\":2421:2434  string memory */\n      0x60\n        /* \"@openzeppelin/contracts/token/ERC20/ERC20.sol\":2453:2460  _symbol */\n      0x04\n        /* \"@openzeppelin/contracts/token/ERC20/ERC20.sol\":2446:2460  return _symbol */\n      dup1\n      sload\n      tag_104\n      swap1\n      tag_76\n      jump\t// in\n    tag_104:\n      dup1\n      0x1f\n      add\n      0x20\n      dup1\n      swap2\n      div\n      mul\n      0x20\n      add\n      mload(0x40)\n      swap1\n      dup2\n      add\n      0x40\n      mstore\n      dup1\n      swap3\n      swap2\n      swap1\n      dup2\n      dup2\n      mstore\n      0x20\n      add\n      dup3\n      dup1\n      sload\n      tag_105\n      swap1\n      tag_76\n      jump\t// in\n    tag_105:\n      dup1\n      iszero\n      tag_106\n      jumpi\n      dup1\n      0x1f\n      lt\n      tag_107\n      jumpi\n      0x0100\n      dup1\n      dup4\n      sload\n      div\n      mul\n      dup4\n      mstore\n      swap2\n      0x20\n      add\n      swap2\n      jump(tag_106)\n    tag_107:\n      dup3\n      add\n      swap2\n      swap1\n      0x00\n      mstore\n      keccak256(0x00, 0x20)\n      swap1\n    tag_108:\n      dup2\n      sload\n      dup2\n      mstore\n      swap1\n      0x01\n      add\n      swap1\n      0x20\n      add\n      dup1\n      dup4\n      gt\n      tag_108\n      jumpi\n      dup3\n      swap1\n      sub\n      0x1f\n      and\n      dup3\n      add\n      swap2\n    tag_106:\n      pop\n      pop\n      pop\n      pop\n      pop\n      swap1\n      pop\n        /* \"@openzeppelin/contracts/token/ERC20/ERC20.sol\":2365:2467  function symbol() public view virtual override returns (string memory) {... */\n      swap1\n      jump\t// out\n        /* \"@openzeppelin/contracts/token/ERC20/ERC20.sol\":6592:7019  function decreaseAllowance(address spender, uint256 subtractedValue) public virtual returns (bool) {... */\n    tag_59:\n        /* \"@openzeppelin/contracts/token/ERC20/ERC20.sol\":6685:6689  bool */\n      0x00\n        /* \"@openzeppelin/contracts/token/ERC20/ERC20.sol\":6701:6714  address owner */\n      dup1\n        /* \"@openzeppelin/contracts/token/ERC20/ERC20.sol\":6717:6729  _msgSender() */\n      tag_110\n        /* \"@openzeppelin/contracts/token/ERC20/ERC20.sol\":6717:6727  _msgSender */\n      tag_83\n        /* \"@openzeppelin/contracts/token/ERC20/ERC20.sol\":6717:6729  _msgSender() */\n      jump\t// in\n    tag_110:\n        /* \"@openzeppelin/contracts/token/ERC20/ERC20.sol\":6701:6729  address owner = _msgSender() */\n      swap1\n      pop\n        /* \"@openzeppelin/contracts/token/ERC20/ERC20.sol\":6739:6763  uint256 currentAllowance */\n      0x00\n        /* \"@openzeppelin/contracts/token/ERC20/ERC20.sol\":6766:6791  allowance(owner, spender) */\n      tag_111\n        /* \"@openzeppelin/contracts/token/ERC20/ERC20.sol\":6776:6781  owner */\n      dup3\n        /* \"@openzeppelin/contracts/token/ERC20/ERC20.sol\":6783:6790  spender */\n      dup7\n        /* \"@openzeppelin/contracts/token/ERC20/ERC20.sol\":6766:6775  allowance */\n      tag_68\n        /* \"@openzeppelin/contracts/token/ERC20/ERC20.sol\":6766:6791  allowance(owner, spender) */\n      jump\t// in\n    tag_111:\n        /* \"@openzeppelin/contracts/token/ERC20/ERC20.sol\":6739:6791  uint256 currentAllowance = allowance(owner, spender) */\n      swap1\n      pop\n        /* \"@openzeppelin/contracts/token/ERC20/ERC20.sol\":6829:6844  subtractedValue */\n      dup4\n        /* \"@openzeppelin/contracts/token/ERC20/ERC20.sol\":6809:6825  currentAllowance */\n      dup2\n        /* \"@openzeppelin/contracts/token/ERC20/ERC20.sol\":6809:6844  currentAllowance >= subtractedValue */\n      lt\n      iszero\n        /* \"@openzeppelin/contracts/token/ERC20/ERC20.sol\":6801:6886  require(currentAllowance >= subtractedValue, \"ERC20: decreased allowance below zero\") */\n      tag_112\n      jumpi\n      mload(0x40)\n      0x08c379a000000000000000000000000000000000000000000000000000000000\n      dup2\n      mstore\n      0x04\n      add\n      tag_113\n      swap1\n      tag_114\n      jump\t// in\n    tag_113:\n      mload(0x40)\n      dup1\n      swap2\n      sub\n      swap1\n      revert\n    tag_112:\n        /* \"@openzeppelin/contracts/token/ERC20/ERC20.sol\":6920:6980  _approve(owner, spender, currentAllowance - subtractedValue) */\n      tag_115\n        /* \"@openzeppelin/contracts/token/ERC20/ERC20.sol\":6929:6934  owner */\n      dup3\n        /* \"@openzeppelin/contracts/token/ERC20/ERC20.sol\":6936:6943  spender */\n      dup7\n        /* \"@openzeppelin/contracts/token/ERC20/ERC20.sol\":6964:6979  subtractedValue */\n      dup7\n        /* \"@openzeppelin/contracts/token/ERC20/ERC20.sol\":6945:6961  currentAllowance */\n      dup5\n        /* \"@openzeppelin/contracts/token/ERC20/ERC20.sol\":6945:6979  currentAllowance - subtractedValue */\n      sub\n        /* \"@openzeppelin/contracts/token/ERC20/ERC20.sol\":6920:6928  _approve */\n      tag_85\n        /* \"@openzeppelin/contracts/token/ERC20/ERC20.sol\":6920:6980  _approve(owner, spender, currentAllowance - subtractedValue) */\n      jump\t// in\n    tag_115:\n        /* \"@openzeppelin/contracts/token/ERC20/ERC20.sol\":7008:7012  true */\n      0x01\n        /* \"@openzeppelin/contracts/token/ERC20/ERC20.sol\":7001:7012  return true */\n      swap3\n      pop\n      pop\n      pop\n        /* \"@openzeppelin/contracts/token/ERC20/ERC20.sol\":6592:7019  function decreaseAllowance(address spender, uint256 subtractedValue) public virtual returns (bool) {... */\n      swap3\n      swap2\n      pop\n      pop\n      jump\t// out\n        /* \"@openzeppelin/contracts/token/ERC20/ERC20.sol\":3727:3916  function transfer(address to, uint256 amount) public virtual override returns (bool) {... */\n    tag_63:\n        /* \"@openzeppelin/contracts/token/ERC20/ERC20.sol\":3806:3810  bool */\n      0x00\n        /* \"@openzeppelin/contracts/token/ERC20/ERC20.sol\":3822:3835  address owner */\n      dup1\n        /* \"@openzeppelin/contracts/token/ERC20/ERC20.sol\":3838:3850  _msgSender() */\n      tag_117\n        /* \"@openzeppelin/contracts/token/ERC20/ERC20.sol\":3838:3848  _msgSender */\n      tag_83\n        /* \"@openzeppelin/contracts/token/ERC20/ERC20.sol\":3838:3850  _msgSender() */\n      jump\t// in\n    tag_117:\n        /* \"@openzeppelin/contracts/token/ERC20/ERC20.sol\":3822:3850  address owner = _msgSender() */\n      swap1\n      pop\n        /* \"@openzeppelin/contracts/token/ERC20/ERC20.sol\":3860:3888  _transfer(owner, to, amount) */\n      tag_118\n        /* \"@openzeppelin/contracts/token/ERC20/ERC20.sol\":3870:3875  owner */\n      dup2\n        /* \"@openzeppelin/contracts/token/ERC20/ERC20.sol\":3877:3879  to */\n      dup6\n        /* \"@openzeppelin/contracts/token/ERC20/ERC20.sol\":3881:3887  amount */\n      dup6\n        /* \"@openzeppelin/contracts/token/ERC20/ERC20.sol\":3860:3869  _transfer */\n      tag_92\n        /* \"@openzeppelin/contracts/token/ERC20/ERC20.sol\":3860:3888  _transfer(owner, to, amount) */\n      jump\t// in\n    tag_118:\n        /* \"@openzeppelin/contracts/token/ERC20/ERC20.sol\":3905:3909  true */\n      0x01\n        /* \"@openzeppelin/contracts/token/ERC20/ERC20.sol\":3898:3909  return true */\n      swap2\n      pop\n      pop\n        /* \"@openzeppelin/contracts/token/ERC20/ERC20.sol\":3727:3916  function transfer(address to, uint256 amount) public virtual override returns (bool) {... */\n      swap3\n      swap2\n      pop\n      pop\n      jump\t// out\n        /* \"@openzeppelin/contracts/token/ERC20/ERC20.sol\":3974:4123  function allowance(address owner, address spender) public view virtual override returns (uint256) {... */\n    tag_68:\n        /* \"@openzeppelin/contracts/token/ERC20/ERC20.sol\":4063:4070  uint256 */\n      0x00\n        /* \"@openzeppelin/contracts/token/ERC20/ERC20.sol\":4089:4100  _allowances */\n      0x01\n        /* \"@openzeppelin/contracts/token/ERC20/ERC20.sol\":4089:4107  _allowances[owner] */\n      0x00\n        /* \"@openzeppelin/contracts/token/ERC20/ERC20.sol\":4101:4106  owner */\n      dup5\n        /* \"@openzeppelin/contracts/token/ERC20/ERC20.sol\":4089:4107  _allowances[owner] */\n      0xffffffffffffffffffffffffffffffffffffffff\n      and\n      0xffffffffffffffffffffffffffffffffffffffff\n      and\n      dup2\n      mstore\n      0x20\n      add\n      swap1\n      dup2\n      mstore\n      0x20\n      add\n      0x00\n      keccak256\n        /* \"@openzeppelin/contracts/token/ERC20/ERC20.sol\":4089:4116  _allowances[owner][spender] */\n      0x00\n        /* \"@openzeppelin/contracts/token/ERC20/ERC20.sol\":4108:4115  spender */\n      dup4\n        /* \"@openzeppelin/contracts/token/ERC20/ERC20.sol\":4089:4116  _allowances[owner][spender] */\n      0xffffffffffffffffffffffffffffffffffffffff\n      and\n      0xffffffffffffffffffffffffffffffffffffffff\n      and\n      dup2\n      mstore\n      0x20\n      add\n      swap1\n      dup2\n      mstore\n      0x20\n      add\n      0x00\n      keccak256\n      sload\n        /* \"@openzeppelin/contracts/token/ERC20/ERC20.sol\":4082:4116  return _allowances[owner][spender] */\n      swap1\n      pop\n        /* \"@openzeppelin/contracts/token/ERC20/ERC20.sol\":3974:4123  function allowance(address owner, address spender) public view virtual override returns (uint256) {... */\n      swap3\n      swap2\n      pop\n      pop\n      jump\t// out\n        /* \"src/Derivatives/CharityToken.sol\":1019:1290  function donate(uint amount) external {... */\n    tag_73:\n        /* \"src/Derivatives/CharityToken.sol\":1084:1085  0 */\n      0x00\n        /* \"src/Derivatives/CharityToken.sol\":1074:1080  amount */\n      dup2\n        /* \"src/Derivatives/CharityToken.sol\":1074:1085  amount == 0 */\n      sub\n        /* \"src/Derivatives/CharityToken.sol\":1070:1121  if (amount == 0)... */\n      tag_121\n      jumpi\n        /* \"src/Derivatives/CharityToken.sol\":1107:1121  AmountIsZero() */\n      mload(0x40)\n      0x43ad20fc00000000000000000000000000000000000000000000000000000000\n      dup2\n      mstore\n      0x04\n      add\n      mload(0x40)\n      dup1\n      swap2\n      sub\n      swap1\n      revert\n        /* \"src/Derivatives/CharityToken.sol\":1070:1121  if (amount == 0)... */\n    tag_121:\n        /* \"src/Derivatives/CharityToken.sol\":1158:1164  amount */\n      dup1\n        /* \"src/Derivatives/CharityToken.sol\":1134:1142  donators */\n      0x09\n        /* \"src/Derivatives/CharityToken.sol\":1134:1154  donators[msg.sender] */\n      0x00\n        /* \"src/Derivatives/CharityToken.sol\":1143:1153  msg.sender */\n      caller\n        /* \"src/Derivatives/CharityToken.sol\":1134:1154  donators[msg.sender] */\n      0xffffffffffffffffffffffffffffffffffffffff\n      and\n      0xffffffffffffffffffffffffffffffffffffffff\n      and\n      dup2\n      mstore\n      0x20\n      add\n      swap1\n      dup2\n      mstore\n      0x20\n      add\n      0x00\n      keccak256\n      0x00\n        /* \"src/Derivatives/CharityToken.sol\":1134:1164  donators[msg.sender] += amount */\n      dup3\n      dup3\n      sload\n      tag_122\n      swap2\n      swap1\n      tag_99\n      jump\t// in\n    tag_122:\n      swap3\n      pop\n      pop\n      dup2\n      swap1\n      sstore\n      pop\n        /* \"src/Derivatives/CharityToken.sol\":1175:1239  paymentToken.safeTransferFrom(msg.sender, address(this), amount) */\n      tag_123\n        /* \"src/Derivatives/CharityToken.sol\":1205:1215  msg.sender */\n      caller\n        /* \"src/Derivatives/CharityToken.sol\":1225:1229  this */\n      address\n        /* \"src/Derivatives/CharityToken.sol\":1232:1238  amount */\n      dup4\n        /* \"src/Derivatives/CharityToken.sol\":1175:1187  paymentToken */\n      0x08\n      0x00\n      swap1\n      sload\n      swap1\n      0x0100\n      exp\n      swap1\n      div\n      0xffffffffffffffffffffffffffffffffffffffff\n      and\n        /* \"src/Derivatives/CharityToken.sol\":1175:1204  paymentToken.safeTransferFrom */\n      0xffffffffffffffffffffffffffffffffffffffff\n      and\n      tag_124\n      swap1\n        /* \"src/Derivatives/CharityToken.sol\":1175:1239  paymentToken.safeTransferFrom(msg.sender, address(this), amount) */\n      swap4\n      swap3\n      swap2\n      swap1\n      0xffffffff\n      and\n      jump\t// in\n    tag_123:\n        /* \"src/Derivatives/CharityToken.sol\":1275:1281  amount */\n      dup1\n        /* \"src/Derivatives/CharityToken.sol\":1263:1273  msg.sender */\n      caller\n        /* \"src/Derivatives/CharityToken.sol\":1255:1282  Donated(msg.sender, amount) */\n      0xffffffffffffffffffffffffffffffffffffffff\n      and\n      0x2a01595cddf097c90216094025db714da3f4e5bd8877b56ba86a24ecead8e543\n      mload(0x40)\n      mload(0x40)\n      dup1\n      swap2\n      sub\n      swap1\n      log3\n        /* \"src/Derivatives/CharityToken.sol\":1019:1290  function donate(uint amount) external {... */\n      pop\n      jump\t// out\n        /* \"@openzeppelin/contracts/utils/Context.sol\":640:736  function _msgSender() internal view virtual returns (address) {... */\n    tag_83:\n        /* \"@openzeppelin/contracts/utils/Context.sol\":693:700  address */\n      0x00\n        /* \"@openzeppelin/contracts/utils/Context.sol\":719:729  msg.sender */\n      caller\n        /* \"@openzeppelin/contracts/utils/Context.sol\":712:729  return msg.sender */\n      swap1\n      pop\n        /* \"@openzeppelin/contracts/utils/Context.sol\":640:736  function _msgSender() internal view virtual returns (address) {... */\n      swap1\n      jump\t// out\n        /* \"@openzeppelin/contracts/token/ERC20/ERC20.sol\":10504:10874  function _approve(... */\n    tag_85:\n        /* \"@openzeppelin/contracts/token/ERC20/ERC20.sol\":10652:10653  0 */\n      0x00\n        /* \"@openzeppelin/contracts/token/ERC20/ERC20.sol\":10635:10654  owner != address(0) */\n      0xffffffffffffffffffffffffffffffffffffffff\n      and\n        /* \"@openzeppelin/contracts/token/ERC20/ERC20.sol\":10635:10640  owner */\n      dup4\n        /* \"@openzeppelin/contracts/token/ERC20/ERC20.sol\":10635:10654  owner != address(0) */\n      0xffffffffffffffffffffffffffffffffffffffff\n      and\n      sub\n        /* \"@openzeppelin/contracts/token/ERC20/ERC20.sol\":10627:10695  require(owner != address(0), \"ERC20: approve from the zero address\") */\n      tag_127\n      jumpi\n      mload(0x40)\n      0x08c379a000000000000000000000000000000000000000000000000000000000\n      dup2\n      mstore\n      0x04\n      add\n      tag_128\n      swap1\n      tag_129\n      jump\t// in\n    tag_128:\n      mload(0x40)\n      dup1\n      swap2\n      sub\n      swap1\n      revert\n    tag_127:\n        /* \"@openzeppelin/contracts/token/ERC20/ERC20.sol\":10732:10733  0 */\n      0x00\n        /* \"@openzeppelin/contracts/token/ERC20/ERC20.sol\":10713:10734  spender != address(0) */\n      0xffffffffffffffffffffffffffffffffffffffff\n      and\n        /* \"@openzeppelin/contracts/token/ERC20/ERC20.sol\":10713:10720  spender */\n      dup3\n        /* \"@openzeppelin/contracts/token/ERC20/ERC20.sol\":10713:10734  spender != address(0) */\n      0xffffffffffffffffffffffffffffffffffffffff\n      and\n      sub\n        /* \"@openzeppelin/contracts/token/ERC20/ERC20.sol\":10705:10773  require(spender != address(0), \"ERC20: approve to the zero address\") */\n      tag_130\n      jumpi\n      mload(0x40)\n      0x08c379a000000000000000000000000000000000000000000000000000000000\n      dup2\n      mstore\n      0x04\n      add\n      tag_131\n      swap1\n      tag_132\n      jump\t// in\n    tag_131:\n      mload(0x40)\n      dup1\n      swap2\n      sub\n      swap1\n      revert\n    tag_130:\n        /* \"@openzeppelin/contracts/token/ERC20/ERC20.sol\":10814:10820  amount */\n      dup1\n        /* \"@openzeppelin/contracts/token/ERC20/ERC20.sol\":10784:10795  _allowances */\n      0x01\n        /* \"@openzeppelin/contracts/token/ERC20/ERC20.sol\":10784:10802  _allowances[owner] */\n      0x00\n        /* \"@openzeppelin/contracts/token/ERC20/ERC20.sol\":10796:10801  owner */\n      dup6\n        /* \"@openzeppelin/contracts/token/ERC20/ERC20.sol\":10784:10802  _allowances[owner] */\n      0xffffffffffffffffffffffffffffffffffffffff\n      and\n      0xffffffffffffffffffffffffffffffffffffffff\n      and\n      dup2\n      mstore\n      0x20\n      add\n      swap1\n      dup2\n      mstore\n      0x20\n      add\n      0x00\n      keccak256\n        /* \"@openzeppelin/contracts/token/ERC20/ERC20.sol\":10784:10811  _allowances[owner][spender] */\n      0x00\n        /* \"@openzeppelin/contracts/token/ERC20/ERC20.sol\":10803:10810  spender */\n      dup5\n        /* \"@openzeppelin/contracts/token/ERC20/ERC20.sol\":10784:10811  _allowances[owner][spender] */\n      0xffffffffffffffffffffffffffffffffffffffff\n      and\n      0xffffffffffffffffffffffffffffffffffffffff\n      and\n      dup2\n      mstore\n      0x20\n      add\n      swap1\n      dup2\n      mstore\n      0x20\n      add\n      0x00\n      keccak256\n        /* \"@openzeppelin/contracts/token/ERC20/ERC20.sol\":10784:10820  _allowances[owner][spender] = amount */\n      dup2\n      swap1\n      sstore\n      pop\n        /* \"@openzeppelin/contracts/token/ERC20/ERC20.sol\":10851:10858  spender */\n      dup2\n        /* \"@openzeppelin/contracts/token/ERC20/ERC20.sol\":10835:10867  Approval(owner, spender, amount) */\n      0xffffffffffffffffffffffffffffffffffffffff\n      and\n        /* \"@openzeppelin/contracts/token/ERC20/ERC20.sol\":10844:10849  owner */\n      dup4\n        /* \"@openzeppelin/contracts/token/ERC20/ERC20.sol\":10835:10867  Approval(owner, spender, amount) */\n      0xffffffffffffffffffffffffffffffffffffffff\n      and\n      0x8c5be1e5ebec7d5bd14f71427d1e84f3dd0314c0f7b2291e5b200ac8c7c3b925\n        /* \"@openzeppelin/contracts/token/ERC20/ERC20.sol\":10860:10866  amount */\n      dup4\n        /* \"@openzeppelin/contracts/token/ERC20/ERC20.sol\":10835:10867  Approval(owner, spender, amount) */\n      mload(0x40)\n      tag_133\n      swap2\n      swap1\n      tag_31\n      jump\t// in\n    tag_133:\n      mload(0x40)\n      dup1\n      swap2\n      sub\n      swap1\n      log3\n        /* \"@openzeppelin/contracts/token/ERC20/ERC20.sol\":10504:10874  function _approve(... */\n      pop\n      pop\n      pop\n      jump\t// out\n        /* \"@openzeppelin/contracts/token/ERC20/ERC20.sol\":11155:11596  function _spendAllowance(... */\n    tag_90:\n        /* \"@openzeppelin/contracts/token/ERC20/ERC20.sol\":11285:11309  uint256 currentAllowance */\n      0x00\n        /* \"@openzeppelin/contracts/token/ERC20/ERC20.sol\":11312:11337  allowance(owner, spender) */\n      tag_135\n        /* \"@openzeppelin/contracts/token/ERC20/ERC20.sol\":11322:11327  owner */\n      dup5\n        /* \"@openzeppelin/contracts/token/ERC20/ERC20.sol\":11329:11336  spender */\n      dup5\n        /* \"@openzeppelin/contracts/token/ERC20/ERC20.sol\":11312:11321  allowance */\n      tag_68\n        /* \"@openzeppelin/contracts/token/ERC20/ERC20.sol\":11312:11337  allowance(owner, spender) */\n      jump\t// in\n    tag_135:\n        /* \"@openzeppelin/contracts/token/ERC20/ERC20.sol\":11285:11337  uint256 currentAllowance = allowance(owner, spender) */\n      swap1\n      pop\n        /* \"@openzeppelin/contracts/token/ERC20/ERC20.sol\":11371:11388  type(uint256).max */\n      0xffffffffffffffffffffffffffffffffffffffffffffffffffffffffffffffff\n        /* \"@openzeppelin/contracts/token/ERC20/ERC20.sol\":11351:11367  currentAllowance */\n      dup2\n        /* \"@openzeppelin/contracts/token/ERC20/ERC20.sol\":11351:11388  currentAllowance != type(uint256).max */\n      eq\n        /* \"@openzeppelin/contracts/token/ERC20/ERC20.sol\":11347:11590  if (currentAllowance != type(uint256).max) {... */\n      tag_136\n      jumpi\n        /* \"@openzeppelin/contracts/token/ERC20/ERC20.sol\":11432:11438  amount */\n      dup2\n        /* \"@openzeppelin/contracts/token/ERC20/ERC20.sol\":11412:11428  currentAllowance */\n      dup2\n        /* \"@openzeppelin/contracts/token/ERC20/ERC20.sol\":11412:11438  currentAllowance >= amount */\n      lt\n      iszero\n        /* \"@openzeppelin/contracts/token/ERC20/ERC20.sol\":11404:11472  require(currentAllowance >= amount, \"ERC20: insufficient allowance\") */\n      tag_137\n      jumpi\n      mload(0x40)\n      0x08c379a000000000000000000000000000000000000000000000000000000000\n      dup2\n      mstore\n      0x04\n      add\n      tag_138\n      swap1\n      tag_139\n      jump\t// in\n    tag_138:\n      mload(0x40)\n      dup1\n      swap2\n      sub\n      swap1\n      revert\n    tag_137:\n        /* \"@openzeppelin/contracts/token/ERC20/ERC20.sol\":11514:11565  _approve(owner, spender, currentAllowance - amount) */\n      tag_140\n        /* \"@openzeppelin/contracts/token/ERC20/ERC20.sol\":11523:11528  owner */\n      dup5\n        /* \"@openzeppelin/contracts/token/ERC20/ERC20.sol\":11530:11537  spender */\n      dup5\n        /* \"@openzeppelin/contracts/token/ERC20/ERC20.sol\":11558:11564  amount */\n      dup5\n        /* \"@openzeppelin/contracts/token/ERC20/ERC20.sol\":11539:11555  currentAllowance */\n      dup5\n        /* \"@openzeppelin/contracts/token/ERC20/ERC20.sol\":11539:11564  currentAllowance - amount */\n      sub\n        /* \"@openzeppelin/contracts/token/ERC20/ERC20.sol\":11514:11522  _approve */\n      tag_85\n        /* \"@openzeppelin/contracts/token/ERC20/ERC20.sol\":11514:11565  _approve(owner, spender, currentAllowance - amount) */\n      jump\t// in\n    tag_140:\n        /* \"@openzeppelin/contracts/token/ERC20/ERC20.sol\":11347:11590  if (currentAllowance != type(uint256).max) {... */\n    tag_136:\n        /* \"@openzeppelin/contracts/token/ERC20/ERC20.sol\":11275:11596  {... */\n      pop\n        /* \"@openzeppelin/contracts/token/ERC20/ERC20.sol\":11155:11596  function _spendAllowance(... */\n      pop\n      pop\n      pop\n      jump\t// out\n        /* \"@openzeppelin/contracts/token/ERC20/ERC20.sol\":7473:8291  function _transfer(... */\n    tag_92:\n        /* \"@openzeppelin/contracts/token/ERC20/ERC20.sol\":7615:7616  0 */\n      0x00\n        /* \"@openzeppelin/contracts/token/ERC20/ERC20.sol\":7599:7617  from != address(0) */\n      0xffffffffffffffffffffffffffffffffffffffff\n      and\n        /* \"@openzeppelin/contracts/token/ERC20/ERC20.sol\":7599:7603  from */\n      dup4\n        /* \"@openzeppelin/contracts/token/ERC20/ERC20.sol\":7599:7617  from != address(0) */\n      0xffffffffffffffffffffffffffffffffffffffff\n      and\n      sub\n        /* \"@openzeppelin/contracts/token/ERC20/ERC20.sol\":7591:7659  require(from != address(0), \"ERC20: transfer from the zero address\") */\n      tag_142\n      jumpi\n      mload(0x40)\n      0x08c379a000000000000000000000000000000000000000000000000000000000\n      dup2\n      mstore\n      0x04\n      add\n      tag_143\n      swap1\n      tag_144\n      jump\t// in\n    tag_143:\n      mload(0x40)\n      dup1\n      swap2\n      sub\n      swap1\n      revert\n    tag_142:\n        /* \"@openzeppelin/contracts/token/ERC20/ERC20.sol\":7691:7692  0 */\n      0x00\n        /* \"@openzeppelin/contracts/token/ERC20/ERC20.sol\":7677:7693  to != address(0) */\n      0xffffffffffffffffffffffffffffffffffffffff\n      and\n        /* \"@openzeppelin/contracts/token/ERC20/ERC20.sol\":7677:7679  to */\n      dup3\n        /* \"@openzeppelin/contracts/token/ERC20/ERC20.sol\":7677:7693  to != address(0) */\n      0xffffffffffffffffffffffffffffffffffffffff\n      and\n      sub\n        /* \"@openzeppelin/contracts/token/ERC20/ERC20.sol\":7669:7733  require(to != address(0), \"ERC20: transfer to the zero address\") */\n      tag_145\n      jumpi\n      mload(0x40)\n      0x08c379a000000000000000000000000000000000000000000000000000000000\n      dup2\n      mstore\n      0x04\n      add\n      tag_146\n      swap1\n      tag_147\n      jump\t// in\n    tag_146:\n      mload(0x40)\n      dup1\n      swap2\n      sub\n      swap1\n      revert\n    tag_145:\n        /* \"@openzeppelin/contracts/token/ERC20/ERC20.sol\":7744:7782  _beforeTokenTransfer(from, to, amount) */\n      tag_148\n        /* \"@openzeppelin/contracts/token/ERC20/ERC20.sol\":7765:7769  from */\n      dup4\n        /* \"@openzeppelin/contracts/token/ERC20/ERC20.sol\":7771:7773  to */\n      dup4\n        /* \"@openzeppelin/contracts/token/ERC20/ERC20.sol\":7775:7781  amount */\n      dup4\n        /* \"@openzeppelin/contracts/token/ERC20/ERC20.sol\":7744:7764  _beforeTokenTransfer */\n      tag_149\n        /* \"@openzeppelin/contracts/token/ERC20/ERC20.sol\":7744:7782  _beforeTokenTransfer(from, to, amount) */\n      jump\t// in\n    tag_148:\n        /* \"@openzeppelin/contracts/token/ERC20/ERC20.sol\":7793:7812  uint256 fromBalance */\n      0x00\n        /* \"@openzeppelin/contracts/token/ERC20/ERC20.sol\":7815:7824  _balances */\n      dup1\n        /* \"@openzeppelin/contracts/token/ERC20/ERC20.sol\":7815:7830  _balances[from] */\n      0x00\n        /* \"@openzeppelin/contracts/token/ERC20/ERC20.sol\":7825:7829  from */\n      dup6\n        /* \"@openzeppelin/contracts/token/ERC20/ERC20.sol\":7815:7830  _balances[from] */\n      0xffffffffffffffffffffffffffffffffffffffff\n      and\n      0xffffffffffffffffffffffffffffffffffffffff\n      and\n      dup2\n      mstore\n      0x20\n      add\n      swap1\n      dup2\n      mstore\n      0x20\n      add\n      0x00\n      keccak256\n      sload\n        /* \"@openzeppelin/contracts/token/ERC20/ERC20.sol\":7793:7830  uint256 fromBalance = _balances[from] */\n      swap1\n      pop\n        /* \"@openzeppelin/contracts/token/ERC20/ERC20.sol\":7863:7869  amount */\n      dup2\n        /* \"@openzeppelin/contracts/token/ERC20/ERC20.sol\":7848:7859  fromBalance */\n      dup2\n        /* \"@openzeppelin/contracts/token/ERC20/ERC20.sol\":7848:7869  fromBalance >= amount */\n      lt\n      iszero\n        /* \"@openzeppelin/contracts/token/ERC20/ERC20.sol\":7840:7912  require(fromBalance >= amount, \"ERC20: transfer amount exceeds balance\") */\n      tag_150\n      jumpi\n      mload(0x40)\n      0x08c379a000000000000000000000000000000000000000000000000000000000\n      dup2\n      mstore\n      0x04\n      add\n      tag_151\n      swap1\n      tag_152\n      jump\t// in\n    tag_151:\n      mload(0x40)\n      dup1\n      swap2\n      sub\n      swap1\n      revert\n    tag_150:\n        /* \"@openzeppelin/contracts/token/ERC20/ERC20.sol\":7978:7984  amount */\n      dup2\n        /* \"@openzeppelin/contracts/token/ERC20/ERC20.sol\":7964:7975  fromBalance */\n      dup2\n        /* \"@openzeppelin/contracts/token/ERC20/ERC20.sol\":7964:7984  fromBalance - amount */\n      sub\n        /* \"@openzeppelin/contracts/token/ERC20/ERC20.sol\":7946:7955  _balances */\n      0x00\n        /* \"@openzeppelin/contracts/token/ERC20/ERC20.sol\":7946:7961  _balances[from] */\n      dup1\n        /* \"@openzeppelin/contracts/token/ERC20/ERC20.sol\":7956:7960  from */\n      dup7\n        /* \"@openzeppelin/contracts/token/ERC20/ERC20.sol\":7946:7961  _balances[from] */\n      0xffffffffffffffffffffffffffffffffffffffff\n      and\n      0xffffffffffffffffffffffffffffffffffffffff\n      and\n      dup2\n      mstore\n      0x20\n      add\n      swap1\n      dup2\n      mstore\n      0x20\n      add\n      0x00\n      keccak256\n        /* \"@openzeppelin/contracts/token/ERC20/ERC20.sol\":7946:7984  _balances[from] = fromBalance - amount */\n      dup2\n      swap1\n      sstore\n      pop\n        /* \"@openzeppelin/contracts/token/ERC20/ERC20.sol\":8178:8184  amount */\n      dup2\n        /* \"@openzeppelin/contracts/token/ERC20/ERC20.sol\":8161:8170  _balances */\n      0x00\n        /* \"@openzeppelin/contracts/token/ERC20/ERC20.sol\":8161:8174  _balances[to] */\n      dup1\n        /* \"@openzeppelin/contracts/token/ERC20/ERC20.sol\":8171:8173  to */\n      dup6\n        /* \"@openzeppelin/contracts/token/ERC20/ERC20.sol\":8161:8174  _balances[to] */\n      0xffffffffffffffffffffffffffffffffffffffff\n      and\n      0xffffffffffffffffffffffffffffffffffffffff\n      and\n      dup2\n      mstore\n      0x20\n      add\n      swap1\n      dup2\n      mstore\n      0x20\n      add\n      0x00\n      keccak256\n      0x00\n        /* \"@openzeppelin/contracts/token/ERC20/ERC20.sol\":8161:8184  _balances[to] += amount */\n      dup3\n      dup3\n      sload\n      add\n      swap3\n      pop\n      pop\n      dup2\n      swap1\n      sstore\n      pop\n        /* \"@openzeppelin/contracts/token/ERC20/ERC20.sol\":8225:8227  to */\n      dup3\n        /* \"@openzeppelin/contracts/token/ERC20/ERC20.sol\":8210:8236  Transfer(from, to, amount) */\n      0xffffffffffffffffffffffffffffffffffffffff\n      and\n        /* \"@openzeppelin/contracts/token/ERC20/ERC20.sol\":8219:8223  from */\n      dup5\n        /* \"@openzeppelin/contracts/token/ERC20/ERC20.sol\":8210:8236  Transfer(from, to, amount) */\n      0xffffffffffffffffffffffffffffffffffffffff\n      and\n      0xddf252ad1be2c89b69c2b068fc378daa952ba7f163c4a11628f55a4df523b3ef\n        /* \"@openzeppelin/contracts/token/ERC20/ERC20.sol\":8229:8235  amount */\n      dup5\n        /* \"@openzeppelin/contracts/token/ERC20/ERC20.sol\":8210:8236  Transfer(from, to, amount) */\n      mload(0x40)\n      tag_153\n      swap2\n      swap1\n      tag_31\n      jump\t// in\n    tag_153:\n      mload(0x40)\n      dup1\n      swap2\n      sub\n      swap1\n      log3\n        /* \"@openzeppelin/contracts/token/ERC20/ERC20.sol\":8247:8284  _afterTokenTransfer(from, to, amount) */\n      tag_154\n        /* \"@openzeppelin/contracts/token/ERC20/ERC20.sol\":8267:8271  from */\n      dup5\n        /* \"@openzeppelin/contracts/token/ERC20/ERC20.sol\":8273:8275  to */\n      dup5\n        /* \"@openzeppelin/contracts/token/ERC20/ERC20.sol\":8277:8283  amount */\n      dup5\n        /* \"@openzeppelin/contracts/token/ERC20/ERC20.sol\":8247:8266  _afterTokenTransfer */\n      tag_155\n        /* \"@openzeppelin/contracts/token/ERC20/ERC20.sol\":8247:8284  _afterTokenTransfer(from, to, amount) */\n      jump\t// in\n    tag_154:\n        /* \"@openzeppelin/contracts/token/ERC20/ERC20.sol\":7581:8291  {... */\n      pop\n        /* \"@openzeppelin/contracts/token/ERC20/ERC20.sol\":7473:8291  function _transfer(... */\n      pop\n      pop\n      pop\n      jump\t// out\n        /* \"@openzeppelin/contracts/token/ERC20/utils/SafeERC20.sol\":974:1215  function safeTransferFrom(... */\n    tag_124:\n        /* \"@openzeppelin/contracts/token/ERC20/utils/SafeERC20.sol\":1112:1208  _callOptionalReturn(token, abi.encodeWithSelector(token.transferFrom.selector, from, to, value)) */\n      tag_157\n        /* \"@openzeppelin/contracts/token/ERC20/utils/SafeERC20.sol\":1132:1137  token */\n      dup5\n        /* \"@openzeppelin/contracts/token/ERC20/utils/SafeERC20.sol\":1162:1189  token.transferFrom.selector */\n      shl(0xe0, 0x23b872dd)\n        /* \"@openzeppelin/contracts/token/ERC20/utils/SafeERC20.sol\":1191:1195  from */\n      dup6\n        /* \"@openzeppelin/contracts/token/ERC20/utils/SafeERC20.sol\":1197:1199  to */\n      dup6\n        /* \"@openzeppelin/contracts/token/ERC20/utils/SafeERC20.sol\":1201:1206  value */\n      dup6\n        /* \"@openzeppelin/contracts/token/ERC20/utils/SafeERC20.sol\":1139:1207  abi.encodeWithSelector(token.transferFrom.selector, from, to, value) */\n      add(0x24, mload(0x40))\n      tag_158\n      swap4\n      swap3\n      swap2\n      swap1\n      tag_159\n      jump\t// in\n    tag_158:\n      mload(0x40)\n      0x20\n      dup2\n      dup4\n      sub\n      sub\n      dup2\n      mstore\n      swap1\n      0x40\n      mstore\n      swap1\n      not(0xffffffffffffffffffffffffffffffffffffffffffffffffffffffff)\n      and\n      0x20\n      dup3\n      add\n      dup1\n      mload\n      0xffffffffffffffffffffffffffffffffffffffffffffffffffffffff\n      dup4\n      dup2\n      dup4\n      and\n      or\n      dup4\n      mstore\n      pop\n      pop\n      pop\n      pop\n        /* \"@openzeppelin/contracts/token/ERC20/utils/SafeERC20.sol\":1112:1131  _callOptionalReturn */\n      tag_160\n        /* \"@openzeppelin/contracts/token/ERC20/utils/SafeERC20.sol\":1112:1208  _callOptionalReturn(token, abi.encodeWithSelector(token.transferFrom.selector, from, to, value)) */\n      jump\t// in\n    tag_157:\n        /* \"@openzeppelin/contracts/token/ERC20/utils/SafeERC20.sol\":974:1215  function safeTransferFrom(... */\n      pop\n      pop\n      pop\n      pop\n      jump\t// out\n        /* \"@openzeppelin/contracts/token/ERC20/ERC20.sol\":12180:12301  function _beforeTokenTransfer(... */\n    tag_149:\n      pop\n      pop\n      pop\n      jump\t// out\n        /* \"@openzeppelin/contracts/token/ERC20/ERC20.sol\":12889:13009  function _afterTokenTransfer(... */\n    tag_155:\n      pop\n      pop\n      pop\n      jump\t// out\n        /* \"@openzeppelin/contracts/token/ERC20/utils/SafeERC20.sol\":3747:4453  function _callOptionalReturn(IERC20 token, bytes memory data) private {... */\n    tag_160:\n        /* \"@openzeppelin/contracts/token/ERC20/utils/SafeERC20.sol\":4166:4189  bytes memory returndata */\n      0x00\n        /* \"@openzeppelin/contracts/token/ERC20/utils/SafeERC20.sol\":4192:4261  address(token).functionCall(data, \"SafeERC20: low-level call failed\") */\n      tag_164\n        /* \"@openzeppelin/contracts/token/ERC20/utils/SafeERC20.sol\":4220:4224  data */\n      dup3\n        /* \"@openzeppelin/contracts/token/ERC20/utils/SafeERC20.sol\":4192:4261  address(token).functionCall(data, \"SafeERC20: low-level call failed\") */\n      mload(0x40)\n      dup1\n      0x40\n      add\n      0x40\n      mstore\n      dup1\n      0x20\n      dup2\n      mstore\n      0x20\n      add\n      0x5361666545524332303a206c6f772d6c6576656c2063616c6c206661696c6564\n      dup2\n      mstore\n      pop\n        /* \"@openzeppelin/contracts/token/ERC20/utils/SafeERC20.sol\":4200:4205  token */\n      dup6\n        /* \"@openzeppelin/contracts/token/ERC20/utils/SafeERC20.sol\":4192:4219  address(token).functionCall */\n      0xffffffffffffffffffffffffffffffffffffffff\n      and\n      tag_165\n      swap1\n        /* \"@openzeppelin/contracts/token/ERC20/utils/SafeERC20.sol\":4192:4261  address(token).functionCall(data, \"SafeERC20: low-level call failed\") */\n      swap3\n      swap2\n      swap1\n      0xffffffff\n      and\n      jump\t// in\n    tag_164:\n        /* \"@openzeppelin/contracts/token/ERC20/utils/SafeERC20.sol\":4166:4261  bytes memory returndata = address(token).functionCall(data, \"SafeERC20: low-level call failed\") */\n      swap1\n      pop\n        /* \"@openzeppelin/contracts/token/ERC20/utils/SafeERC20.sol\":4295:4296  0 */\n      0x00\n        /* \"@openzeppelin/contracts/token/ERC20/utils/SafeERC20.sol\":4275:4285  returndata */\n      dup2\n        /* \"@openzeppelin/contracts/token/ERC20/utils/SafeERC20.sol\":4275:4292  returndata.length */\n      mload\n        /* \"@openzeppelin/contracts/token/ERC20/utils/SafeERC20.sol\":4275:4296  returndata.length > 0 */\n      gt\n        /* \"@openzeppelin/contracts/token/ERC20/utils/SafeERC20.sol\":4271:4447  if (returndata.length > 0) {... */\n      iszero\n      tag_166\n      jumpi\n        /* \"@openzeppelin/contracts/token/ERC20/utils/SafeERC20.sol\":4370:4380  returndata */\n      dup1\n        /* \"@openzeppelin/contracts/token/ERC20/utils/SafeERC20.sol\":4359:4389  abi.decode(returndata, (bool)) */\n      dup1\n      0x20\n      add\n      swap1\n      mload\n      dup2\n      add\n      swap1\n      tag_167\n      swap2\n      swap1\n      tag_168\n      jump\t// in\n    tag_167:\n        /* \"@openzeppelin/contracts/token/ERC20/utils/SafeERC20.sol\":4351:4436  require(abi.decode(returndata, (bool)), \"SafeERC20: ERC20 operation did not succeed\") */\n      tag_169\n      jumpi\n      mload(0x40)\n      0x08c379a000000000000000000000000000000000000000000000000000000000\n      dup2\n      mstore\n      0x04\n      add\n      tag_170\n      swap1\n      tag_171\n      jump\t// in\n    tag_170:\n      mload(0x40)\n      dup1\n      swap2\n      sub\n      swap1\n      revert\n    tag_169:\n        /* \"@openzeppelin/contracts/token/ERC20/utils/SafeERC20.sol\":4271:4447  if (returndata.length > 0) {... */\n    tag_166:\n        /* \"@openzeppelin/contracts/token/ERC20/utils/SafeERC20.sol\":3817:4453  {... */\n      pop\n        /* \"@openzeppelin/contracts/token/ERC20/utils/SafeERC20.sol\":3747:4453  function _callOptionalReturn(IERC20 token, bytes memory data) private {... */\n      pop\n      pop\n      jump\t// out\n        /* \"@openzeppelin/contracts/utils/Address.sol\":3873:4096  function functionCall(... */\n    tag_165:\n        /* \"@openzeppelin/contracts/utils/Address.sol\":4006:4018  bytes memory */\n      0x60\n        /* \"@openzeppelin/contracts/utils/Address.sol\":4037:4089  functionCallWithValue(target, data, 0, errorMessage) */\n      tag_173\n        /* \"@openzeppelin/contracts/utils/Address.sol\":4059:4065  target */\n      dup5\n        /* \"@openzeppelin/contracts/utils/Address.sol\":4067:4071  data */\n      dup5\n        /* \"@openzeppelin/contracts/utils/Address.sol\":4073:4074  0 */\n      0x00\n        /* \"@openzeppelin/contracts/utils/Address.sol\":4076:4088  errorMessage */\n      dup6\n        /* \"@openzeppelin/contracts/utils/Address.sol\":4037:4058  functionCallWithValue */\n      tag_174\n        /* \"@openzeppelin/contracts/utils/Address.sol\":4037:4089  functionCallWithValue(target, data, 0, errorMessage) */\n      jump\t// in\n    tag_173:\n        /* \"@openzeppelin/contracts/utils/Address.sol\":4030:4089  return functionCallWithValue(target, data, 0, errorMessage) */\n      swap1\n      pop\n        /* \"@openzeppelin/contracts/utils/Address.sol\":3873:4096  function functionCall(... */\n      swap4\n      swap3\n      pop\n      pop\n      pop\n      jump\t// out\n        /* \"@openzeppelin/contracts/utils/Address.sol\":4960:5406  function functionCallWithValue(... */\n    tag_174:\n        /* \"@openzeppelin/contracts/utils/Address.sol\":5125:5137  bytes memory */\n      0x60\n        /* \"@openzeppelin/contracts/utils/Address.sol\":5182:5187  value */\n      dup3\n        /* \"@openzeppelin/contracts/utils/Address.sol\":5157:5178  address(this).balance */\n      selfbalance\n        /* \"@openzeppelin/contracts/utils/Address.sol\":5157:5187  address(this).balance >= value */\n      lt\n      iszero\n        /* \"@openzeppelin/contracts/utils/Address.sol\":5149:5230  require(address(this).balance >= value, \"Address: insufficient balance for call\") */\n      tag_176\n      jumpi\n      mload(0x40)\n      0x08c379a000000000000000000000000000000000000000000000000000000000\n      dup2\n      mstore\n      0x04\n      add\n      tag_177\n      swap1\n      tag_178\n      jump\t// in\n    tag_177:\n      mload(0x40)\n      dup1\n      swap2\n      sub\n      swap1\n      revert\n    tag_176:\n        /* \"@openzeppelin/contracts/utils/Address.sol\":5241:5253  bool success */\n      0x00\n        /* \"@openzeppelin/contracts/utils/Address.sol\":5255:5278  bytes memory returndata */\n      dup1\n        /* \"@openzeppelin/contracts/utils/Address.sol\":5282:5288  target */\n      dup7\n        /* \"@openzeppelin/contracts/utils/Address.sol\":5282:5293  target.call */\n      0xffffffffffffffffffffffffffffffffffffffff\n      and\n        /* \"@openzeppelin/contracts/utils/Address.sol\":5301:5306  value */\n      dup6\n        /* \"@openzeppelin/contracts/utils/Address.sol\":5308:5312  data */\n      dup8\n        /* \"@openzeppelin/contracts/utils/Address.sol\":5282:5313  target.call{value: value}(data) */\n      mload(0x40)\n      tag_179\n      swap2\n      swap1\n      tag_180\n      jump\t// in\n    tag_179:\n      0x00\n      mload(0x40)\n      dup1\n      dup4\n      sub\n      dup2\n      dup6\n      dup8\n      gas\n      call\n      swap3\n      pop\n      pop\n      pop\n      returndatasize\n      dup1\n      0x00\n      dup2\n      eq\n      tag_183\n      jumpi\n      mload(0x40)\n      swap2\n      pop\n      and(add(returndatasize, 0x3f), not(0x1f))\n      dup3\n      add\n      0x40\n      mstore\n      returndatasize\n      dup3\n      mstore\n      returndatasize\n      0x00\n      0x20\n      dup5\n      add\n      returndatacopy\n      jump(tag_182)\n    tag_183:\n      0x60\n      swap2\n      pop\n    tag_182:\n      pop\n        /* \"@openzeppelin/contracts/utils/Address.sol\":5240:5313  (bool success, bytes memory returndata) = target.call{value: value}(data) */\n      swap2\n      pop\n      swap2\n      pop\n        /* \"@openzeppelin/contracts/utils/Address.sol\":5330:5399  verifyCallResultFromTarget(target, success, returndata, errorMessage) */\n      tag_184\n        /* \"@openzeppelin/contracts/utils/Address.sol\":5357:5363  target */\n      dup8\n        /* \"@openzeppelin/contracts/utils/Address.sol\":5365:5372  success */\n      dup4\n        /* \"@openzeppelin/contracts/utils/Address.sol\":5374:5384  returndata */\n      dup4\n        /* \"@openzeppelin/contracts/utils/Address.sol\":5386:5398  errorMessage */\n      dup8\n        /* \"@openzeppelin/contracts/utils/Address.sol\":5330:5356  verifyCallResultFromTarget */\n      tag_185\n        /* \"@openzeppelin/contracts/utils/Address.sol\":5330:5399  verifyCallResultFromTarget(target, success, returndata, errorMessage) */\n      jump\t// in\n    tag_184:\n        /* \"@openzeppelin/contracts/utils/Address.sol\":5323:5399  return verifyCallResultFromTarget(target, success, returndata, errorMessage) */\n      swap3\n      pop\n      pop\n      pop\n        /* \"@openzeppelin/contracts/utils/Address.sol\":4960:5406  function functionCallWithValue(... */\n      swap5\n      swap4\n      pop\n      pop\n      pop\n      pop\n      jump\t// out\n        /* \"@openzeppelin/contracts/utils/Address.sol\":7466:8094  function verifyCallResultFromTarget(... */\n    tag_185:\n        /* \"@openzeppelin/contracts/utils/Address.sol\":7646:7658  bytes memory */\n      0x60\n        /* \"@openzeppelin/contracts/utils/Address.sol\":7674:7681  success */\n      dup4\n        /* \"@openzeppelin/contracts/utils/Address.sol\":7670:8088  if (success) {... */\n      iszero\n      tag_187\n      jumpi\n        /* \"@openzeppelin/contracts/utils/Address.sol\":7722:7723  0 */\n      0x00\n        /* \"@openzeppelin/contracts/utils/Address.sol\":7701:7711  returndata */\n      dup4\n        /* \"@openzeppelin/contracts/utils/Address.sol\":7701:7718  returndata.length */\n      mload\n        /* \"@openzeppelin/contracts/utils/Address.sol\":7701:7723  returndata.length == 0 */\n      sub\n        /* \"@openzeppelin/contracts/utils/Address.sol\":7697:7983  if (returndata.length == 0) {... */\n      tag_188\n      jumpi\n        /* \"@openzeppelin/contracts/utils/Address.sol\":7916:7934  isContract(target) */\n      tag_189\n        /* \"@openzeppelin/contracts/utils/Address.sol\":7927:7933  target */\n      dup6\n        /* \"@openzeppelin/contracts/utils/Address.sol\":7916:7926  isContract */\n      tag_190\n        /* \"@openzeppelin/contracts/utils/Address.sol\":7916:7934  isContract(target) */\n      jump\t// in\n    tag_189:\n        /* \"@openzeppelin/contracts/utils/Address.sol\":7908:7968  require(isContract(target), \"Address: call to non-contract\") */\n      tag_191\n      jumpi\n      mload(0x40)\n      0x08c379a000000000000000000000000000000000000000000000000000000000\n      dup2\n      mstore\n      0x04\n      add\n      tag_192\n      swap1\n      tag_193\n      jump\t// in\n    tag_192:\n      mload(0x40)\n      dup1\n      swap2\n      sub\n      swap1\n      revert\n    tag_191:\n        /* \"@openzeppelin/contracts/utils/Address.sol\":7697:7983  if (returndata.length == 0) {... */\n    tag_188:\n        /* \"@openzeppelin/contracts/utils/Address.sol\":8003:8013  returndata */\n      dup3\n        /* \"@openzeppelin/contracts/utils/Address.sol\":7996:8013  return returndata */\n      swap1\n      pop\n      jump(tag_186)\n        /* \"@openzeppelin/contracts/utils/Address.sol\":7670:8088  if (success) {... */\n    tag_187:\n        /* \"@openzeppelin/contracts/utils/Address.sol\":8044:8077  _revert(returndata, errorMessage) */\n      tag_195\n        /* \"@openzeppelin/contracts/utils/Address.sol\":8052:8062  returndata */\n      dup4\n        /* \"@openzeppelin/contracts/utils/Address.sol\":8064:8076  errorMessage */\n      dup4\n        /* \"@openzeppelin/contracts/utils/Address.sol\":8044:8051  _revert */\n      tag_196\n        /* \"@openzeppelin/contracts/utils/Address.sol\":8044:8077  _revert(returndata, errorMessage) */\n      jump\t// in\n    tag_195:\n        /* \"@openzeppelin/contracts/utils/Address.sol\":7466:8094  function verifyCallResultFromTarget(... */\n    tag_186:\n      swap5\n      swap4\n      pop\n      pop\n      pop\n      pop\n      jump\t// out\n        /* \"@openzeppelin/contracts/utils/Address.sol\":1175:1495  function isContract(address account) internal view returns (bool) {... */\n    tag_190:\n        /* \"@openzeppelin/contracts/utils/Address.sol\":1235:1239  bool */\n      0x00\n        /* \"@openzeppelin/contracts/utils/Address.sol\":1487:1488  0 */\n      dup1\n        /* \"@openzeppelin/contracts/utils/Address.sol\":1465:1472  account */\n      dup3\n        /* \"@openzeppelin/contracts/utils/Address.sol\":1465:1484  account.code.length */\n      0xffffffffffffffffffffffffffffffffffffffff\n      and\n      extcodesize\n        /* \"@openzeppelin/contracts/utils/Address.sol\":1465:1488  account.code.length > 0 */\n      gt\n        /* \"@openzeppelin/contracts/utils/Address.sol\":1458:1488  return account.code.length > 0 */\n      swap1\n      pop\n        /* \"@openzeppelin/contracts/utils/Address.sol\":1175:1495  function isContract(address account) internal view returns (bool) {... */\n      swap2\n      swap1\n      pop\n      jump\t// out\n        /* \"@openzeppelin/contracts/utils/Address.sol\":8616:9156  function _revert(bytes memory returndata, string memory errorMessage) private pure {... */\n    tag_196:\n        /* \"@openzeppelin/contracts/utils/Address.sol\":8795:8796  0 */\n      0x00\n        /* \"@openzeppelin/contracts/utils/Address.sol\":8775:8785  returndata */\n      dup3\n        /* \"@openzeppelin/contracts/utils/Address.sol\":8775:8792  returndata.length */\n      mload\n        /* \"@openzeppelin/contracts/utils/Address.sol\":8775:8796  returndata.length > 0 */\n      gt\n        /* \"@openzeppelin/contracts/utils/Address.sol\":8771:9150  if (returndata.length > 0) {... */\n      iszero\n      tag_199\n      jumpi\n        /* \"@openzeppelin/contracts/utils/Address.sol\":9003:9013  returndata */\n      dup2\n        /* \"@openzeppelin/contracts/utils/Address.sol\":8997:9014  mload(returndata) */\n      mload\n        /* \"@openzeppelin/contracts/utils/Address.sol\":9059:9074  returndata_size */\n      dup1\n        /* \"@openzeppelin/contracts/utils/Address.sol\":9046:9056  returndata */\n      dup4\n        /* \"@openzeppelin/contracts/utils/Address.sol\":9042:9044  32 */\n      0x20\n        /* \"@openzeppelin/contracts/utils/Address.sol\":9038:9057  add(32, returndata) */\n      add\n        /* \"@openzeppelin/contracts/utils/Address.sol\":9031:9075  revert(add(32, returndata), returndata_size) */\n      revert\n        /* \"@openzeppelin/contracts/utils/Address.sol\":8771:9150  if (returndata.length > 0) {... */\n    tag_199:\n        /* \"@openzeppelin/contracts/utils/Address.sol\":9126:9138  errorMessage */\n      dup1\n        /* \"@openzeppelin/contracts/utils/Address.sol\":9119:9139  revert(errorMessage) */\n      mload(0x40)\n      0x08c379a000000000000000000000000000000000000000000000000000000000\n      dup2\n      mstore\n      0x04\n      add\n      tag_201\n      swap2\n      swap1\n      tag_21\n      jump\t// in\n    tag_201:\n      mload(0x40)\n      dup1\n      swap2\n      sub\n      swap1\n      revert\n        /* \"#utility.yul\":7:106   */\n    tag_202:\n        /* \"#utility.yul\":59:65   */\n      0x00\n        /* \"#utility.yul\":93:98   */\n      dup2\n        /* \"#utility.yul\":87:99   */\n      mload\n        /* \"#utility.yul\":77:99   */\n      swap1\n      pop\n        /* \"#utility.yul\":7:106   */\n      swap2\n      swap1\n      pop\n      jump\t// out\n        /* \"#utility.yul\":112:281   */\n    tag_203:\n        /* \"#utility.yul\":196:207   */\n      0x00\n        /* \"#utility.yul\":230:236   */\n      dup3\n        /* \"#utility.yul\":225:228   */\n      dup3\n        /* \"#utility.yul\":218:237   */\n      mstore\n        /* \"#utility.yul\":270:274   */\n      0x20\n        /* \"#utility.yul\":265:268   */\n      dup3\n        /* \"#utility.yul\":261:275   */\n      add\n        /* \"#utility.yul\":246:275   */\n      swap1\n      pop\n        /* \"#utility.yul\":112:281   */\n      swap3\n      swap2\n      pop\n      pop\n      jump\t// out\n        /* \"#utility.yul\":287:533   */\n    tag_204:\n        /* \"#utility.yul\":368:369   */\n      0x00\n        /* \"#utility.yul\":378:491   */\n    tag_257:\n        /* \"#utility.yul\":392:398   */\n      dup4\n        /* \"#utility.yul\":389:390   */\n      dup2\n        /* \"#utility.yul\":386:399   */\n      lt\n        /* \"#utility.yul\":378:491   */\n      iszero\n      tag_259\n      jumpi\n        /* \"#utility.yul\":477:478   */\n      dup1\n        /* \"#utility.yul\":472:475   */\n      dup3\n        /* \"#utility.yul\":468:479   */\n      add\n        /* \"#utility.yul\":462:480   */\n      mload\n        /* \"#utility.yul\":458:459   */\n      dup2\n        /* \"#utility.yul\":453:456   */\n      dup5\n        /* \"#utility.yul\":449:460   */\n      add\n        /* \"#utility.yul\":442:481   */\n      mstore\n        /* \"#utility.yul\":414:416   */\n      0x20\n        /* \"#utility.yul\":411:412   */\n      dup2\n        /* \"#utility.yul\":407:417   */\n      add\n        /* \"#utility.yul\":402:417   */\n      swap1\n      pop\n        /* \"#utility.yul\":378:491   */\n      jump(tag_257)\n    tag_259:\n        /* \"#utility.yul\":525:526   */\n      0x00\n        /* \"#utility.yul\":516:522   */\n      dup5\n        /* \"#utility.yul\":511:514   */\n      dup5\n        /* \"#utility.yul\":507:523   */\n      add\n        /* \"#utility.yul\":500:527   */\n      mstore\n        /* \"#utility.yul\":349:533   */\n      pop\n        /* \"#utility.yul\":287:533   */\n      pop\n      pop\n      pop\n      jump\t// out\n        /* \"#utility.yul\":539:641   */\n    tag_205:\n        /* \"#utility.yul\":580:586   */\n      0x00\n        /* \"#utility.yul\":631:633   */\n      0x1f\n        /* \"#utility.yul\":627:634   */\n      not\n        /* \"#utility.yul\":622:624   */\n      0x1f\n        /* \"#utility.yul\":615:620   */\n      dup4\n        /* \"#utility.yul\":611:625   */\n      add\n        /* \"#utility.yul\":607:635   */\n      and\n        /* \"#utility.yul\":597:635   */\n      swap1\n      pop\n        /* \"#utility.yul\":539:641   */\n      swap2\n      swap1\n      pop\n      jump\t// out\n        /* \"#utility.yul\":647:1024   */\n    tag_206:\n        /* \"#utility.yul\":735:738   */\n      0x00\n        /* \"#utility.yul\":763:802   */\n      tag_262\n        /* \"#utility.yul\":796:801   */\n      dup3\n        /* \"#utility.yul\":763:802   */\n      tag_202\n      jump\t// in\n    tag_262:\n        /* \"#utility.yul\":818:889   */\n      tag_263\n        /* \"#utility.yul\":882:888   */\n      dup2\n        /* \"#utility.yul\":877:880   */\n      dup6\n        /* \"#utility.yul\":818:889   */\n      tag_203\n      jump\t// in\n    tag_263:\n        /* \"#utility.yul\":811:889   */\n      swap4\n      pop\n        /* \"#utility.yul\":898:963   */\n      tag_264\n        /* \"#utility.yul\":956:962   */\n      dup2\n        /* \"#utility.yul\":951:954   */\n      dup6\n        /* \"#utility.yul\":944:948   */\n      0x20\n        /* \"#utility.yul\":937:942   */\n      dup7\n        /* \"#utility.yul\":933:949   */\n      add\n        /* \"#utility.yul\":898:963   */\n      tag_204\n      jump\t// in\n    tag_264:\n        /* \"#utility.yul\":988:1017   */\n      tag_265\n        /* \"#utility.yul\":1010:1016   */\n      dup2\n        /* \"#utility.yul\":988:1017   */\n      tag_205\n      jump\t// in\n    tag_265:\n        /* \"#utility.yul\":983:986   */\n      dup5\n        /* \"#utility.yul\":979:1018   */\n      add\n        /* \"#utility.yul\":972:1018   */\n      swap2\n      pop\n        /* \"#utility.yul\":739:1024   */\n      pop\n        /* \"#utility.yul\":647:1024   */\n      swap3\n      swap2\n      pop\n      pop\n      jump\t// out\n        /* \"#utility.yul\":1030:1343   */\n    tag_21:\n        /* \"#utility.yul\":1143:1147   */\n      0x00\n        /* \"#utility.yul\":1181:1183   */\n      0x20\n        /* \"#utility.yul\":1170:1179   */\n      dup3\n        /* \"#utility.yul\":1166:1184   */\n      add\n        /* \"#utility.yul\":1158:1184   */\n      swap1\n      pop\n        /* \"#utility.yul\":1230:1239   */\n      dup2\n        /* \"#utility.yul\":1224:1228   */\n      dup2\n        /* \"#utility.yul\":1220:1240   */\n      sub\n        /* \"#utility.yul\":1216:1217   */\n      0x00\n        /* \"#utility.yul\":1205:1214   */\n      dup4\n        /* \"#utility.yul\":1201:1218   */\n      add\n        /* \"#utility.yul\":1194:1241   */\n      mstore\n        /* \"#utility.yul\":1258:1336   */\n      tag_267\n        /* \"#utility.yul\":1331:1335   */\n      dup2\n        /* \"#utility.yul\":1322:1328   */\n      dup5\n        /* \"#utility.yul\":1258:1336   */\n      tag_206\n      jump\t// in\n    tag_267:\n        /* \"#utility.yul\":1250:1336   */\n      swap1\n      pop\n        /* \"#utility.yul\":1030:1343   */\n      swap3\n      swap2\n      pop\n      pop\n      jump\t// out\n        /* \"#utility.yul\":1430:1547   */\n    tag_208:\n        /* \"#utility.yul\":1539:1540   */\n      0x00\n        /* \"#utility.yul\":1536:1537   */\n      dup1\n        /* \"#utility.yul\":1529:1541   */\n      revert\n        /* \"#utility.yul\":1676:1802   */\n    tag_210:\n        /* \"#utility.yul\":1713:1720   */\n      0x00\n        /* \"#utility.yul\":1753:1795   */\n      0xffffffffffffffffffffffffffffffffffffffff\n        /* \"#utility.yul\":1746:1751   */\n      dup3\n        /* \"#utility.yul\":1742:1796   */\n      and\n        /* \"#utility.yul\":1731:1796   */\n      swap1\n      pop\n        /* \"#utility.yul\":1676:1802   */\n      swap2\n      swap1\n      pop\n      jump\t// out\n        /* \"#utility.yul\":1808:1904   */\n    tag_211:\n        /* \"#utility.yul\":1845:1852   */\n      0x00\n        /* \"#utility.yul\":1874:1898   */\n      tag_273\n        /* \"#utility.yul\":1892:1897   */\n      dup3\n        /* \"#utility.yul\":1874:1898   */\n      tag_210\n      jump\t// in\n    tag_273:\n        /* \"#utility.yul\":1863:1898   */\n      swap1\n      pop\n        /* \"#utility.yul\":1808:1904   */\n      swap2\n      swap1\n      pop\n      jump\t// out\n        /* \"#utility.yul\":1910:2032   */\n    tag_212:\n        /* \"#utility.yul\":1983:2007   */\n      tag_275\n        /* \"#utility.yul\":2001:2006   */\n      dup2\n        /* \"#utility.yul\":1983:2007   */\n      tag_211\n      jump\t// in\n    tag_275:\n        /* \"#utility.yul\":1976:1981   */\n      dup2\n        /* \"#utility.yul\":1973:2008   */\n      eq\n        /* \"#utility.yul\":1963:2026   */\n      tag_276\n      jumpi\n        /* \"#utility.yul\":2022:2023   */\n      0x00\n        /* \"#utility.yul\":2019:2020   */\n      dup1\n        /* \"#utility.yul\":2012:2024   */\n      revert\n        /* \"#utility.yul\":1963:2026   */\n    tag_276:\n        /* \"#utility.yul\":1910:2032   */\n      pop\n      jump\t// out\n        /* \"#utility.yul\":2038:2177   */\n    tag_213:\n        /* \"#utility.yul\":2084:2089   */\n      0x00\n        /* \"#utility.yul\":2122:2128   */\n      dup2\n        /* \"#utility.yul\":2109:2129   */\n      calldataload\n        /* \"#utility.yul\":2100:2129   */\n      swap1\n      pop\n        /* \"#utility.yul\":2138:2171   */\n      tag_278\n        /* \"#utility.yul\":2165:2170   */\n      dup2\n        /* \"#utility.yul\":2138:2171   */\n      tag_212\n      jump\t// in\n    tag_278:\n        /* \"#utility.yul\":2038:2177   */\n      swap3\n      swap2\n      pop\n      pop\n      jump\t// out\n        /* \"#utility.yul\":2183:2260   */\n    tag_214:\n        /* \"#utility.yul\":2220:2227   */\n      0x00\n        /* \"#utility.yul\":2249:2254   */\n      dup2\n        /* \"#utility.yul\":2238:2254   */\n      swap1\n      pop\n        /* \"#utility.yul\":2183:2260   */\n      swap2\n      swap1\n      pop\n      jump\t// out\n        /* \"#utility.yul\":2266:2388   */\n    tag_215:\n        /* \"#utility.yul\":2339:2363   */\n      tag_281\n        /* \"#utility.yul\":2357:2362   */\n      dup2\n        /* \"#utility.yul\":2339:2363   */\n      tag_214\n      jump\t// in\n    tag_281:\n        /* \"#utility.yul\":2332:2337   */\n      dup2\n        /* \"#utility.yul\":2329:2364   */\n      eq\n        /* \"#utility.yul\":2319:2382   */\n      tag_282\n      jumpi\n        /* \"#utility.yul\":2378:2379   */\n      0x00\n        /* \"#utility.yul\":2375:2376   */\n      dup1\n        /* \"#utility.yul\":2368:2380   */\n      revert\n        /* \"#utility.yul\":2319:2382   */\n    tag_282:\n        /* \"#utility.yul\":2266:2388   */\n      pop\n      jump\t// out\n        /* \"#utility.yul\":2394:2533   */\n    tag_216:\n        /* \"#utility.yul\":2440:2445   */\n      0x00\n        /* \"#utility.yul\":2478:2484   */\n      dup2\n        /* \"#utility.yul\":2465:2485   */\n      calldataload\n        /* \"#utility.yul\":2456:2485   */\n      swap1\n      pop\n        /* \"#utility.yul\":2494:2527   */\n      tag_284\n        /* \"#utility.yul\":2521:2526   */\n      dup2\n        /* \"#utility.yul\":2494:2527   */\n      tag_215\n      jump\t// in\n    tag_284:\n        /* \"#utility.yul\":2394:2533   */\n      swap3\n      swap2\n      pop\n      pop\n      jump\t// out\n        /* \"#utility.yul\":2539:3013   */\n    tag_24:\n        /* \"#utility.yul\":2607:2613   */\n      0x00\n        /* \"#utility.yul\":2615:2621   */\n      dup1\n        /* \"#utility.yul\":2664:2666   */\n      0x40\n        /* \"#utility.yul\":2652:2661   */\n      dup4\n        /* \"#utility.yul\":2643:2650   */\n      dup6\n        /* \"#utility.yul\":2639:2662   */\n      sub\n        /* \"#utility.yul\":2635:2667   */\n      slt\n        /* \"#utility.yul\":2632:2751   */\n      iszero\n      tag_286\n      jumpi\n        /* \"#utility.yul\":2670:2749   */\n      tag_287\n      tag_208\n      jump\t// in\n    tag_287:\n        /* \"#utility.yul\":2632:2751   */\n    tag_286:\n        /* \"#utility.yul\":2790:2791   */\n      0x00\n        /* \"#utility.yul\":2815:2868   */\n      tag_288\n        /* \"#utility.yul\":2860:2867   */\n      dup6\n        /* \"#utility.yul\":2851:2857   */\n      dup3\n        /* \"#utility.yul\":2840:2849   */\n      dup7\n        /* \"#utility.yul\":2836:2858   */\n      add\n        /* \"#utility.yul\":2815:2868   */\n      tag_213\n      jump\t// in\n    tag_288:\n        /* \"#utility.yul\":2805:2868   */\n      swap3\n      pop\n        /* \"#utility.yul\":2761:2878   */\n      pop\n        /* \"#utility.yul\":2917:2919   */\n      0x20\n        /* \"#utility.yul\":2943:2996   */\n      tag_289\n        /* \"#utility.yul\":2988:2995   */\n      dup6\n        /* \"#utility.yul\":2979:2985   */\n      dup3\n        /* \"#utility.yul\":2968:2977   */\n      dup7\n        /* \"#utility.yul\":2964:2986   */\n      add\n        /* \"#utility.yul\":2943:2996   */\n      tag_216\n      jump\t// in\n    tag_289:\n        /* \"#utility.yul\":2933:2996   */\n      swap2\n      pop\n        /* \"#utility.yul\":2888:3006   */\n      pop\n        /* \"#utility.yul\":2539:3013   */\n      swap3\n      pop\n      swap3\n      swap1\n      pop\n      jump\t// out\n        /* \"#utility.yul\":3019:3109   */\n    tag_217:\n        /* \"#utility.yul\":3053:3060   */\n      0x00\n        /* \"#utility.yul\":3096:3101   */\n      dup2\n        /* \"#utility.yul\":3089:3102   */\n      iszero\n        /* \"#utility.yul\":3082:3103   */\n      iszero\n        /* \"#utility.yul\":3071:3103   */\n      swap1\n      pop\n        /* \"#utility.yul\":3019:3109   */\n      swap2\n      swap1\n      pop\n      jump\t// out\n        /* \"#utility.yul\":3115:3224   */\n    tag_218:\n        /* \"#utility.yul\":3196:3217   */\n      tag_292\n        /* \"#utility.yul\":3211:3216   */\n      dup2\n        /* \"#utility.yul\":3196:3217   */\n      tag_217\n      jump\t// in\n    tag_292:\n        /* \"#utility.yul\":3191:3194   */\n      dup3\n        /* \"#utility.yul\":3184:3218   */\n      mstore\n        /* \"#utility.yul\":3115:3224   */\n      pop\n      pop\n      jump\t// out\n        /* \"#utility.yul\":3230:3440   */\n    tag_27:\n        /* \"#utility.yul\":3317:3321   */\n      0x00\n        /* \"#utility.yul\":3355:3357   */\n      0x20\n        /* \"#utility.yul\":3344:3353   */\n      dup3\n        /* \"#utility.yul\":3340:3358   */\n      add\n        /* \"#utility.yul\":3332:3358   */\n      swap1\n      pop\n        /* \"#utility.yul\":3368:3433   */\n      tag_294\n        /* \"#utility.yul\":3430:3431   */\n      0x00\n        /* \"#utility.yul\":3419:3428   */\n      dup4\n        /* \"#utility.yul\":3415:3432   */\n      add\n        /* \"#utility.yul\":3406:3412   */\n      dup5\n        /* \"#utility.yul\":3368:3433   */\n      tag_218\n      jump\t// in\n    tag_294:\n        /* \"#utility.yul\":3230:3440   */\n      swap3\n      swap2\n      pop\n      pop\n      jump\t// out\n        /* \"#utility.yul\":3446:3564   */\n    tag_219:\n        /* \"#utility.yul\":3533:3557   */\n      tag_296\n        /* \"#utility.yul\":3551:3556   */\n      dup2\n        /* \"#utility.yul\":3533:3557   */\n      tag_214\n      jump\t// in\n    tag_296:\n        /* \"#utility.yul\":3528:3531   */\n      dup3\n        /* \"#utility.yul\":3521:3558   */\n      mstore\n        /* \"#utility.yul\":3446:3564   */\n      pop\n      pop\n      jump\t// out\n        /* \"#utility.yul\":3570:3792   */\n    tag_31:\n        /* \"#utility.yul\":3663:3667   */\n      0x00\n        /* \"#utility.yul\":3701:3703   */\n      0x20\n        /* \"#utility.yul\":3690:3699   */\n      dup3\n        /* \"#utility.yul\":3686:3704   */\n      add\n        /* \"#utility.yul\":3678:3704   */\n      swap1\n      pop\n        /* \"#utility.yul\":3714:3785   */\n      tag_298\n        /* \"#utility.yul\":3782:3783   */\n      0x00\n        /* \"#utility.yul\":3771:3780   */\n      dup4\n        /* \"#utility.yul\":3767:3784   */\n      add\n        /* \"#utility.yul\":3758:3764   */\n      dup5\n        /* \"#utility.yul\":3714:3785   */\n      tag_219\n      jump\t// in\n    tag_298:\n        /* \"#utility.yul\":3570:3792   */\n      swap3\n      swap2\n      pop\n      pop\n      jump\t// out\n        /* \"#utility.yul\":3798:4417   */\n    tag_34:\n        /* \"#utility.yul\":3875:3881   */\n      0x00\n        /* \"#utility.yul\":3883:3889   */\n      dup1\n        /* \"#utility.yul\":3891:3897   */\n      0x00\n        /* \"#utility.yul\":3940:3942   */\n      0x60\n        /* \"#utility.yul\":3928:3937   */\n      dup5\n        /* \"#utility.yul\":3919:3926   */\n      dup7\n        /* \"#utility.yul\":3915:3938   */\n      sub\n        /* \"#utility.yul\":3911:3943   */\n      slt\n        /* \"#utility.yul\":3908:4027   */\n      iszero\n      tag_300\n      jumpi\n        /* \"#utility.yul\":3946:4025   */\n      tag_301\n      tag_208\n      jump\t// in\n    tag_301:\n        /* \"#utility.yul\":3908:4027   */\n    tag_300:\n        /* \"#utility.yul\":4066:4067   */\n      0x00\n        /* \"#utility.yul\":4091:4144   */\n      tag_302\n        /* \"#utility.yul\":4136:4143   */\n      dup7\n        /* \"#utility.yul\":4127:4133   */\n      dup3\n        /* \"#utility.yul\":4116:4125   */\n      dup8\n        /* \"#utility.yul\":4112:4134   */\n      add\n        /* \"#utility.yul\":4091:4144   */\n      tag_213\n      jump\t// in\n    tag_302:\n        /* \"#utility.yul\":4081:4144   */\n      swap4\n      pop\n        /* \"#utility.yul\":4037:4154   */\n      pop\n        /* \"#utility.yul\":4193:4195   */\n      0x20\n        /* \"#utility.yul\":4219:4272   */\n      tag_303\n        /* \"#utility.yul\":4264:4271   */\n      dup7\n        /* \"#utility.yul\":4255:4261   */\n      dup3\n        /* \"#utility.yul\":4244:4253   */\n      dup8\n        /* \"#utility.yul\":4240:4262   */\n      add\n        /* \"#utility.yul\":4219:4272   */\n      tag_213\n      jump\t// in\n    tag_303:\n        /* \"#utility.yul\":4209:4272   */\n      swap3\n      pop\n        /* \"#utility.yul\":4164:4282   */\n      pop\n        /* \"#utility.yul\":4321:4323   */\n      0x40\n        /* \"#utility.yul\":4347:4400   */\n      tag_304\n        /* \"#utility.yul\":4392:4399   */\n      dup7\n        /* \"#utility.yul\":4383:4389   */\n      dup3\n        /* \"#utility.yul\":4372:4381   */\n      dup8\n        /* \"#utility.yul\":4368:4390   */\n      add\n        /* \"#utility.yul\":4347:4400   */\n      tag_216\n      jump\t// in\n    tag_304:\n        /* \"#utility.yul\":4337:4400   */\n      swap2\n      pop\n        /* \"#utility.yul\":4292:4410   */\n      pop\n        /* \"#utility.yul\":3798:4417   */\n      swap3\n      pop\n      swap3\n      pop\n      swap3\n      jump\t// out\n        /* \"#utility.yul\":4423:4509   */\n    tag_220:\n        /* \"#utility.yul\":4458:4465   */\n      0x00\n        /* \"#utility.yul\":4498:4502   */\n      0xff\n        /* \"#utility.yul\":4491:4496   */\n      dup3\n        /* \"#utility.yul\":4487:4503   */\n      and\n        /* \"#utility.yul\":4476:4503   */\n      swap1\n      pop\n        /* \"#utility.yul\":4423:4509   */\n      swap2\n      swap1\n      pop\n      jump\t// out\n        /* \"#utility.yul\":4515:4627   */\n    tag_221:\n        /* \"#utility.yul\":4598:4620   */\n      tag_307\n        /* \"#utility.yul\":4614:4619   */\n      dup2\n        /* \"#utility.yul\":4598:4620   */\n      tag_220\n      jump\t// in\n    tag_307:\n        /* \"#utility.yul\":4593:4596   */\n      dup3\n        /* \"#utility.yul\":4586:4621   */\n      mstore\n        /* \"#utility.yul\":4515:4627   */\n      pop\n      pop\n      jump\t// out\n        /* \"#utility.yul\":4633:4847   */\n    tag_40:\n        /* \"#utility.yul\":4722:4726   */\n      0x00\n        /* \"#utility.yul\":4760:4762   */\n      0x20\n        /* \"#utility.yul\":4749:4758   */\n      dup3\n        /* \"#utility.yul\":4745:4763   */\n      add\n        /* \"#utility.yul\":4737:4763   */\n      swap1\n      pop\n        /* \"#utility.yul\":4773:4840   */\n      tag_309\n        /* \"#utility.yul\":4837:4838   */\n      0x00\n        /* \"#utility.yul\":4826:4835   */\n      dup4\n        /* \"#utility.yul\":4822:4839   */\n      add\n        /* \"#utility.yul\":4813:4819   */\n      dup5\n        /* \"#utility.yul\":4773:4840   */\n      tag_221\n      jump\t// in\n    tag_309:\n        /* \"#utility.yul\":4633:4847   */\n      swap3\n      swap2\n      pop\n      pop\n      jump\t// out\n        /* \"#utility.yul\":4853:4963   */\n    tag_222:\n        /* \"#utility.yul\":4904:4911   */\n      0x00\n        /* \"#utility.yul\":4933:4957   */\n      tag_311\n        /* \"#utility.yul\":4951:4956   */\n      dup3\n        /* \"#utility.yul\":4933:4957   */\n      tag_211\n      jump\t// in\n    tag_311:\n        /* \"#utility.yul\":4922:4957   */\n      swap1\n      pop\n        /* \"#utility.yul\":4853:4963   */\n      swap2\n      swap1\n      pop\n      jump\t// out\n        /* \"#utility.yul\":4969:5119   */\n    tag_223:\n        /* \"#utility.yul\":5056:5094   */\n      tag_313\n        /* \"#utility.yul\":5088:5093   */\n      dup2\n        /* \"#utility.yul\":5056:5094   */\n      tag_222\n      jump\t// in\n    tag_313:\n        /* \"#utility.yul\":5049:5054   */\n      dup2\n        /* \"#utility.yul\":5046:5095   */\n      eq\n        /* \"#utility.yul\":5036:5113   */\n      tag_314\n      jumpi\n        /* \"#utility.yul\":5109:5110   */\n      0x00\n        /* \"#utility.yul\":5106:5107   */\n      dup1\n        /* \"#utility.yul\":5099:5111   */\n      revert\n        /* \"#utility.yul\":5036:5113   */\n    tag_314:\n        /* \"#utility.yul\":4969:5119   */\n      pop\n      jump\t// out\n        /* \"#utility.yul\":5125:5292   */\n    tag_224:\n        /* \"#utility.yul\":5185:5190   */\n      0x00\n        /* \"#utility.yul\":5223:5229   */\n      dup2\n        /* \"#utility.yul\":5210:5230   */\n      calldataload\n        /* \"#utility.yul\":5201:5230   */\n      swap1\n      pop\n        /* \"#utility.yul\":5239:5286   */\n      tag_316\n        /* \"#utility.yul\":5280:5285   */\n      dup2\n        /* \"#utility.yul\":5239:5286   */\n      tag_223\n      jump\t// in\n    tag_316:\n        /* \"#utility.yul\":5125:5292   */\n      swap3\n      swap2\n      pop\n      pop\n      jump\t// out\n        /* \"#utility.yul\":5298:5655   */\n    tag_47:\n        /* \"#utility.yul\":5371:5377   */\n      0x00\n        /* \"#utility.yul\":5420:5422   */\n      0x20\n        /* \"#utility.yul\":5408:5417   */\n      dup3\n        /* \"#utility.yul\":5399:5406   */\n      dup5\n        /* \"#utility.yul\":5395:5418   */\n      sub\n        /* \"#utility.yul\":5391:5423   */\n      slt\n        /* \"#utility.yul\":5388:5507   */\n      iszero\n      tag_318\n      jumpi\n        /* \"#utility.yul\":5426:5505   */\n      tag_319\n      tag_208\n      jump\t// in\n    tag_319:\n        /* \"#utility.yul\":5388:5507   */\n    tag_318:\n        /* \"#utility.yul\":5546:5547   */\n      0x00\n        /* \"#utility.yul\":5571:5638   */\n      tag_320\n        /* \"#utility.yul\":5630:5637   */\n      dup5\n        /* \"#utility.yul\":5621:5627   */\n      dup3\n        /* \"#utility.yul\":5610:5619   */\n      dup6\n        /* \"#utility.yul\":5606:5628   */\n      add\n        /* \"#utility.yul\":5571:5638   */\n      tag_224\n      jump\t// in\n    tag_320:\n        /* \"#utility.yul\":5561:5638   */\n      swap2\n      pop\n        /* \"#utility.yul\":5517:5648   */\n      pop\n        /* \"#utility.yul\":5298:5655   */\n      swap3\n      swap2\n      pop\n      pop\n      jump\t// out\n        /* \"#utility.yul\":5661:5990   */\n    tag_51:\n        /* \"#utility.yul\":5720:5726   */\n      0x00\n        /* \"#utility.yul\":5769:5771   */\n      0x20\n        /* \"#utility.yul\":5757:5766   */\n      dup3\n        /* \"#utility.yul\":5748:5755   */\n      dup5\n        /* \"#utility.yul\":5744:5767   */\n      sub\n        /* \"#utility.yul\":5740:5772   */\n      slt\n        /* \"#utility.yul\":5737:5856   */\n      iszero\n      tag_322\n      jumpi\n        /* \"#utility.yul\":5775:5854   */\n      tag_323\n      tag_208\n      jump\t// in\n    tag_323:\n        /* \"#utility.yul\":5737:5856   */\n    tag_322:\n        /* \"#utility.yul\":5895:5896   */\n      0x00\n        /* \"#utility.yul\":5920:5973   */\n      tag_324\n        /* \"#utility.yul\":5965:5972   */\n      dup5\n        /* \"#utility.yul\":5956:5962   */\n      dup3\n        /* \"#utility.yul\":5945:5954   */\n      dup6\n        /* \"#utility.yul\":5941:5963   */\n      add\n        /* \"#utility.yul\":5920:5973   */\n      tag_213\n      jump\t// in\n    tag_324:\n        /* \"#utility.yul\":5910:5973   */\n      swap2\n      pop\n        /* \"#utility.yul\":5866:5983   */\n      pop\n        /* \"#utility.yul\":5661:5990   */\n      swap3\n      swap2\n      pop\n      pop\n      jump\t// out\n        /* \"#utility.yul\":5996:6470   */\n    tag_67:\n        /* \"#utility.yul\":6064:6070   */\n      0x00\n        /* \"#utility.yul\":6072:6078   */\n      dup1\n        /* \"#utility.yul\":6121:6123   */\n      0x40\n        /* \"#utility.yul\":6109:6118   */\n      dup4\n        /* \"#utility.yul\":6100:6107   */\n      dup6\n        /* \"#utility.yul\":6096:6119   */\n      sub\n        /* \"#utility.yul\":6092:6124   */\n      slt\n        /* \"#utility.yul\":6089:6208   */\n      iszero\n      tag_326\n      jumpi\n        /* \"#utility.yul\":6127:6206   */\n      tag_327\n      tag_208\n      jump\t// in\n    tag_327:\n        /* \"#utility.yul\":6089:6208   */\n    tag_326:\n        /* \"#utility.yul\":6247:6248   */\n      0x00\n        /* \"#utility.yul\":6272:6325   */\n      tag_328\n        /* \"#utility.yul\":6317:6324   */\n      dup6\n        /* \"#utility.yul\":6308:6314   */\n      dup3\n        /* \"#utility.yul\":6297:6306   */\n      dup7\n        /* \"#utility.yul\":6293:6315   */\n      add\n        /* \"#utility.yul\":6272:6325   */\n      tag_213\n      jump\t// in\n    tag_328:\n        /* \"#utility.yul\":6262:6325   */\n      swap3\n      pop\n        /* \"#utility.yul\":6218:6335   */\n      pop\n        /* \"#utility.yul\":6374:6376   */\n      0x20\n        /* \"#utility.yul\":6400:6453   */\n      tag_329\n        /* \"#utility.yul\":6445:6452   */\n      dup6\n        /* \"#utility.yul\":6436:6442   */\n      dup3\n        /* \"#utility.yul\":6425:6434   */\n      dup7\n        /* \"#utility.yul\":6421:6443   */\n      add\n        /* \"#utility.yul\":6400:6453   */\n      tag_213\n      jump\t// in\n    tag_329:\n        /* \"#utility.yul\":6390:6453   */\n      swap2\n      pop\n        /* \"#utility.yul\":6345:6463   */\n      pop\n        /* \"#utility.yul\":5996:6470   */\n      swap3\n      pop\n      swap3\n      swap1\n      pop\n      jump\t// out\n        /* \"#utility.yul\":6476:6805   */\n    tag_72:\n        /* \"#utility.yul\":6535:6541   */\n      0x00\n        /* \"#utility.yul\":6584:6586   */\n      0x20\n        /* \"#utility.yul\":6572:6581   */\n      dup3\n        /* \"#utility.yul\":6563:6570   */\n      dup5\n        /* \"#utility.yul\":6559:6582   */\n      sub\n        /* \"#utility.yul\":6555:6587   */\n      slt\n        /* \"#utility.yul\":6552:6671   */\n      iszero\n      tag_331\n      jumpi\n        /* \"#utility.yul\":6590:6669   */\n      tag_332\n      tag_208\n      jump\t// in\n    tag_332:\n        /* \"#utility.yul\":6552:6671   */\n    tag_331:\n        /* \"#utility.yul\":6710:6711   */\n      0x00\n        /* \"#utility.yul\":6735:6788   */\n      tag_333\n        /* \"#utility.yul\":6780:6787   */\n      dup5\n        /* \"#utility.yul\":6771:6777   */\n      dup3\n        /* \"#utility.yul\":6760:6769   */\n      dup6\n        /* \"#utility.yul\":6756:6778   */\n      add\n        /* \"#utility.yul\":6735:6788   */\n      tag_216\n      jump\t// in\n    tag_333:\n        /* \"#utility.yul\":6725:6788   */\n      swap2\n      pop\n        /* \"#utility.yul\":6681:6798   */\n      pop\n        /* \"#utility.yul\":6476:6805   */\n      swap3\n      swap2\n      pop\n      pop\n      jump\t// out\n        /* \"#utility.yul\":6811:6991   */\n    tag_225:\n        /* \"#utility.yul\":6859:6936   */\n      0x4e487b7100000000000000000000000000000000000000000000000000000000\n        /* \"#utility.yul\":6856:6857   */\n      0x00\n        /* \"#utility.yul\":6849:6937   */\n      mstore\n        /* \"#utility.yul\":6956:6960   */\n      0x22\n        /* \"#utility.yul\":6953:6954   */\n      0x04\n        /* \"#utility.yul\":6946:6961   */\n      mstore\n        /* \"#utility.yul\":6980:6984   */\n      0x24\n        /* \"#utility.yul\":6977:6978   */\n      0x00\n        /* \"#utility.yul\":6970:6985   */\n      revert\n        /* \"#utility.yul\":6997:7317   */\n    tag_76:\n        /* \"#utility.yul\":7041:7047   */\n      0x00\n        /* \"#utility.yul\":7078:7079   */\n      0x02\n        /* \"#utility.yul\":7072:7076   */\n      dup3\n        /* \"#utility.yul\":7068:7080   */\n      div\n        /* \"#utility.yul\":7058:7080   */\n      swap1\n      pop\n        /* \"#utility.yul\":7125:7126   */\n      0x01\n        /* \"#utility.yul\":7119:7123   */\n      dup3\n        /* \"#utility.yul\":7115:7127   */\n      and\n        /* \"#utility.yul\":7146:7164   */\n      dup1\n        /* \"#utility.yul\":7136:7217   */\n      tag_336\n      jumpi\n        /* \"#utility.yul\":7202:7206   */\n      0x7f\n        /* \"#utility.yul\":7194:7200   */\n      dup3\n        /* \"#utility.yul\":7190:7207   */\n      and\n        /* \"#utility.yul\":7180:7207   */\n      swap2\n      pop\n        /* \"#utility.yul\":7136:7217   */\n    tag_336:\n        /* \"#utility.yul\":7264:7266   */\n      0x20\n        /* \"#utility.yul\":7256:7262   */\n      dup3\n        /* \"#utility.yul\":7253:7267   */\n      lt\n        /* \"#utility.yul\":7233:7251   */\n      dup2\n        /* \"#utility.yul\":7230:7268   */\n      sub\n        /* \"#utility.yul\":7227:7311   */\n      tag_337\n      jumpi\n        /* \"#utility.yul\":7283:7301   */\n      tag_338\n      tag_225\n      jump\t// in\n    tag_338:\n        /* \"#utility.yul\":7227:7311   */\n    tag_337:\n        /* \"#utility.yul\":7048:7317   */\n      pop\n        /* \"#utility.yul\":6997:7317   */\n      swap2\n      swap1\n      pop\n      jump\t// out\n        /* \"#utility.yul\":7323:7503   */\n    tag_226:\n        /* \"#utility.yul\":7371:7448   */\n      0x4e487b7100000000000000000000000000000000000000000000000000000000\n        /* \"#utility.yul\":7368:7369   */\n      0x00\n        /* \"#utility.yul\":7361:7449   */\n      mstore\n        /* \"#utility.yul\":7468:7472   */\n      0x11\n        /* \"#utility.yul\":7465:7466   */\n      0x04\n        /* \"#utility.yul\":7458:7473   */\n      mstore\n        /* \"#utility.yul\":7492:7496   */\n      0x24\n        /* \"#utility.yul\":7489:7490   */\n      0x00\n        /* \"#utility.yul\":7482:7497   */\n      revert\n        /* \"#utility.yul\":7509:7700   */\n    tag_99:\n        /* \"#utility.yul\":7549:7552   */\n      0x00\n        /* \"#utility.yul\":7568:7588   */\n      tag_341\n        /* \"#utility.yul\":7586:7587   */\n      dup3\n        /* \"#utility.yul\":7568:7588   */\n      tag_214\n      jump\t// in\n    tag_341:\n        /* \"#utility.yul\":7563:7588   */\n      swap2\n      pop\n        /* \"#utility.yul\":7602:7622   */\n      tag_342\n        /* \"#utility.yul\":7620:7621   */\n      dup4\n        /* \"#utility.yul\":7602:7622   */\n      tag_214\n      jump\t// in\n    tag_342:\n        /* \"#utility.yul\":7597:7622   */\n      swap3\n      pop\n        /* \"#utility.yul\":7645:7646   */\n      dup3\n        /* \"#utility.yul\":7642:7643   */\n      dup3\n        /* \"#utility.yul\":7638:7647   */\n      add\n        /* \"#utility.yul\":7631:7647   */\n      swap1\n      pop\n        /* \"#utility.yul\":7666:7669   */\n      dup1\n        /* \"#utility.yul\":7663:7664   */\n      dup3\n        /* \"#utility.yul\":7660:7670   */\n      gt\n        /* \"#utility.yul\":7657:7693   */\n      iszero\n      tag_343\n      jumpi\n        /* \"#utility.yul\":7673:7691   */\n      tag_344\n      tag_226\n      jump\t// in\n    tag_344:\n        /* \"#utility.yul\":7657:7693   */\n    tag_343:\n        /* \"#utility.yul\":7509:7700   */\n      swap3\n      swap2\n      pop\n      pop\n      jump\t// out\n        /* \"#utility.yul\":7706:7930   */\n    tag_227:\n        /* \"#utility.yul\":7846:7880   */\n      0x45524332303a2064656372656173656420616c6c6f77616e63652062656c6f77\n        /* \"#utility.yul\":7842:7843   */\n      0x00\n        /* \"#utility.yul\":7834:7840   */\n      dup3\n        /* \"#utility.yul\":7830:7844   */\n      add\n        /* \"#utility.yul\":7823:7881   */\n      mstore\n        /* \"#utility.yul\":7915:7922   */\n      0x207a65726f000000000000000000000000000000000000000000000000000000\n        /* \"#utility.yul\":7910:7912   */\n      0x20\n        /* \"#utility.yul\":7902:7908   */\n      dup3\n        /* \"#utility.yul\":7898:7913   */\n      add\n        /* \"#utility.yul\":7891:7923   */\n      mstore\n        /* \"#utility.yul\":7706:7930   */\n      pop\n      jump\t// out\n        /* \"#utility.yul\":7936:8302   */\n    tag_228:\n        /* \"#utility.yul\":8078:8081   */\n      0x00\n        /* \"#utility.yul\":8099:8166   */\n      tag_347\n        /* \"#utility.yul\":8163:8165   */\n      0x25\n        /* \"#utility.yul\":8158:8161   */\n      dup4\n        /* \"#utility.yul\":8099:8166   */\n      tag_203\n      jump\t// in\n    tag_347:\n        /* \"#utility.yul\":8092:8166   */\n      swap2\n      pop\n        /* \"#utility.yul\":8175:8268   */\n      tag_348\n        /* \"#utility.yul\":8264:8267   */\n      dup3\n        /* \"#utility.yul\":8175:8268   */\n      tag_227\n      jump\t// in\n    tag_348:\n        /* \"#utility.yul\":8293:8295   */\n      0x40\n        /* \"#utility.yul\":8288:8291   */\n      dup3\n        /* \"#utility.yul\":8284:8296   */\n      add\n        /* \"#utility.yul\":8277:8296   */\n      swap1\n      pop\n        /* \"#utility.yul\":7936:8302   */\n      swap2\n      swap1\n      pop\n      jump\t// out\n        /* \"#utility.yul\":8308:8727   */\n    tag_114:\n        /* \"#utility.yul\":8474:8478   */\n      0x00\n        /* \"#utility.yul\":8512:8514   */\n      0x20\n        /* \"#utility.yul\":8501:8510   */\n      dup3\n        /* \"#utility.yul\":8497:8515   */\n      add\n        /* \"#utility.yul\":8489:8515   */\n      swap1\n      pop\n        /* \"#utility.yul\":8561:8570   */\n      dup2\n        /* \"#utility.yul\":8555:8559   */\n      dup2\n        /* \"#utility.yul\":8551:8571   */\n      sub\n        /* \"#utility.yul\":8547:8548   */\n      0x00\n        /* \"#utility.yul\":8536:8545   */\n      dup4\n        /* \"#utility.yul\":8532:8549   */\n      add\n        /* \"#utility.yul\":8525:8572   */\n      mstore\n        /* \"#utility.yul\":8589:8720   */\n      tag_350\n        /* \"#utility.yul\":8715:8719   */\n      dup2\n        /* \"#utility.yul\":8589:8720   */\n      tag_228\n      jump\t// in\n    tag_350:\n        /* \"#utility.yul\":8581:8720   */\n      swap1\n      pop\n        /* \"#utility.yul\":8308:8727   */\n      swap2\n      swap1\n      pop\n      jump\t// out\n        /* \"#utility.yul\":8733:8956   */\n    tag_229:\n        /* \"#utility.yul\":8873:8907   */\n      0x45524332303a20617070726f76652066726f6d20746865207a65726f20616464\n        /* \"#utility.yul\":8869:8870   */\n      0x00\n        /* \"#utility.yul\":8861:8867   */\n      dup3\n        /* \"#utility.yul\":8857:8871   */\n      add\n        /* \"#utility.yul\":8850:8908   */\n      mstore\n        /* \"#utility.yul\":8942:8948   */\n      0x7265737300000000000000000000000000000000000000000000000000000000\n        /* \"#utility.yul\":8937:8939   */\n      0x20\n        /* \"#utility.yul\":8929:8935   */\n      dup3\n        /* \"#utility.yul\":8925:8940   */\n      add\n        /* \"#utility.yul\":8918:8949   */\n      mstore\n        /* \"#utility.yul\":8733:8956   */\n      pop\n      jump\t// out\n        /* \"#utility.yul\":8962:9328   */\n    tag_230:\n        /* \"#utility.yul\":9104:9107   */\n      0x00\n        /* \"#utility.yul\":9125:9192   */\n      tag_353\n        /* \"#utility.yul\":9189:9191   */\n      0x24\n        /* \"#utility.yul\":9184:9187   */\n      dup4\n        /* \"#utility.yul\":9125:9192   */\n      tag_203\n      jump\t// in\n    tag_353:\n        /* \"#utility.yul\":9118:9192   */\n      swap2\n      pop\n        /* \"#utility.yul\":9201:9294   */\n      tag_354\n        /* \"#utility.yul\":9290:9293   */\n      dup3\n        /* \"#utility.yul\":9201:9294   */\n      tag_229\n      jump\t// in\n    tag_354:\n        /* \"#utility.yul\":9319:9321   */\n      0x40\n        /* \"#utility.yul\":9314:9317   */\n      dup3\n        /* \"#utility.yul\":9310:9322   */\n      add\n        /* \"#utility.yul\":9303:9322   */\n      swap1\n      pop\n        /* \"#utility.yul\":8962:9328   */\n      swap2\n      swap1\n      pop\n      jump\t// out\n        /* \"#utility.yul\":9334:9753   */\n    tag_129:\n        /* \"#utility.yul\":9500:9504   */\n      0x00\n        /* \"#utility.yul\":9538:9540   */\n      0x20\n        /* \"#utility.yul\":9527:9536   */\n      dup3\n        /* \"#utility.yul\":9523:9541   */\n      add\n        /* \"#utility.yul\":9515:9541   */\n      swap1\n      pop\n        /* \"#utility.yul\":9587:9596   */\n      dup2\n        /* \"#utility.yul\":9581:9585   */\n      dup2\n        /* \"#utility.yul\":9577:9597   */\n      sub\n        /* \"#utility.yul\":9573:9574   */\n      0x00\n        /* \"#utility.yul\":9562:9571   */\n      dup4\n        /* \"#utility.yul\":9558:9575   */\n      add\n        /* \"#utility.yul\":9551:9598   */\n      mstore\n        /* \"#utility.yul\":9615:9746   */\n      tag_356\n        /* \"#utility.yul\":9741:9745   */\n      dup2\n        /* \"#utility.yul\":9615:9746   */\n      tag_230\n      jump\t// in\n    tag_356:\n        /* \"#utility.yul\":9607:9746   */\n      swap1\n      pop\n        /* \"#utility.yul\":9334:9753   */\n      swap2\n      swap1\n      pop\n      jump\t// out\n        /* \"#utility.yul\":9759:9980   */\n    tag_231:\n        /* \"#utility.yul\":9899:9933   */\n      0x45524332303a20617070726f766520746f20746865207a65726f206164647265\n        /* \"#utility.yul\":9895:9896   */\n      0x00\n        /* \"#utility.yul\":9887:9893   */\n      dup3\n        /* \"#utility.yul\":9883:9897   */\n      add\n        /* \"#utility.yul\":9876:9934   */\n      mstore\n        /* \"#utility.yul\":9968:9972   */\n      0x7373000000000000000000000000000000000000000000000000000000000000\n        /* \"#utility.yul\":9963:9965   */\n      0x20\n        /* \"#utility.yul\":9955:9961   */\n      dup3\n        /* \"#utility.yul\":9951:9966   */\n      add\n        /* \"#utility.yul\":9944:9973   */\n      mstore\n        /* \"#utility.yul\":9759:9980   */\n      pop\n      jump\t// out\n        /* \"#utility.yul\":9986:10352   */\n    tag_232:\n        /* \"#utility.yul\":10128:10131   */\n      0x00\n        /* \"#utility.yul\":10149:10216   */\n      tag_359\n        /* \"#utility.yul\":10213:10215   */\n      0x22\n        /* \"#utility.yul\":10208:10211   */\n      dup4\n        /* \"#utility.yul\":10149:10216   */\n      tag_203\n      jump\t// in\n    tag_359:\n        /* \"#utility.yul\":10142:10216   */\n      swap2\n      pop\n        /* \"#utility.yul\":10225:10318   */\n      tag_360\n        /* \"#utility.yul\":10314:10317   */\n      dup3\n        /* \"#utility.yul\":10225:10318   */\n      tag_231\n      jump\t// in\n    tag_360:\n        /* \"#utility.yul\":10343:10345   */\n      0x40\n        /* \"#utility.yul\":10338:10341   */\n      dup3\n        /* \"#utility.yul\":10334:10346   */\n      add\n        /* \"#utility.yul\":10327:10346   */\n      swap1\n      pop\n        /* \"#utility.yul\":9986:10352   */\n      swap2\n      swap1\n      pop\n      jump\t// out\n        /* \"#utility.yul\":10358:10777   */\n    tag_132:\n        /* \"#utility.yul\":10524:10528   */\n      0x00\n        /* \"#utility.yul\":10562:10564   */\n      0x20\n        /* \"#utility.yul\":10551:10560   */\n      dup3\n        /* \"#utility.yul\":10547:10565   */\n      add\n        /* \"#utility.yul\":10539:10565   */\n      swap1\n      pop\n        /* \"#utility.yul\":10611:10620   */\n      dup2\n        /* \"#utility.yul\":10605:10609   */\n      dup2\n        /* \"#utility.yul\":10601:10621   */\n      sub\n        /* \"#utility.yul\":10597:10598   */\n      0x00\n        /* \"#utility.yul\":10586:10595   */\n      dup4\n        /* \"#utility.yul\":10582:10599   */\n      add\n        /* \"#utility.yul\":10575:10622   */\n      mstore\n        /* \"#utility.yul\":10639:10770   */\n      tag_362\n        /* \"#utility.yul\":10765:10769   */\n      dup2\n        /* \"#utility.yul\":10639:10770   */\n      tag_232\n      jump\t// in\n    tag_362:\n        /* \"#utility.yul\":10631:10770   */\n      swap1\n      pop\n        /* \"#utility.yul\":10358:10777   */\n      swap2\n      swap1\n      pop\n      jump\t// out\n        /* \"#utility.yul\":10783:10962   */\n    tag_233:\n        /* \"#utility.yul\":10923:10954   */\n      0x45524332303a20696e73756666696369656e7420616c6c6f77616e6365000000\n        /* \"#utility.yul\":10919:10920   */\n      0x00\n        /* \"#utility.yul\":10911:10917   */\n      dup3\n        /* \"#utility.yul\":10907:10921   */\n      add\n        /* \"#utility.yul\":10900:10955   */\n      mstore\n        /* \"#utility.yul\":10783:10962   */\n      pop\n      jump\t// out\n        /* \"#utility.yul\":10968:11334   */\n    tag_234:\n        /* \"#utility.yul\":11110:11113   */\n      0x00\n        /* \"#utility.yul\":11131:11198   */\n      tag_365\n        /* \"#utility.yul\":11195:11197   */\n      0x1d\n        /* \"#utility.yul\":11190:11193   */\n      dup4\n        /* \"#utility.yul\":11131:11198   */\n      tag_203\n      jump\t// in\n    tag_365:\n        /* \"#utility.yul\":11124:11198   */\n      swap2\n      pop\n        /* \"#utility.yul\":11207:11300   */\n      tag_366\n        /* \"#utility.yul\":11296:11299   */\n      dup3\n        /* \"#utility.yul\":11207:11300   */\n      tag_233\n      jump\t// in\n    tag_366:\n        /* \"#utility.yul\":11325:11327   */\n      0x20\n        /* \"#utility.yul\":11320:11323   */\n      dup3\n        /* \"#utility.yul\":11316:11328   */\n      add\n        /* \"#utility.yul\":11309:11328   */\n      swap1\n      pop\n        /* \"#utility.yul\":10968:11334   */\n      swap2\n      swap1\n      pop\n      jump\t// out\n        /* \"#utility.yul\":11340:11759   */\n    tag_139:\n        /* \"#utility.yul\":11506:11510   */\n      0x00\n        /* \"#utility.yul\":11544:11546   */\n      0x20\n        /* \"#utility.yul\":11533:11542   */\n      dup3\n        /* \"#utility.yul\":11529:11547   */\n      add\n        /* \"#utility.yul\":11521:11547   */\n      swap1\n      pop\n        /* \"#utility.yul\":11593:11602   */\n      dup2\n        /* \"#utility.yul\":11587:11591   */\n      dup2\n        /* \"#utility.yul\":11583:11603   */\n      sub\n        /* \"#utility.yul\":11579:11580   */\n      0x00\n        /* \"#utility.yul\":11568:11577   */\n      dup4\n        /* \"#utility.yul\":11564:11581   */\n      add\n        /* \"#utility.yul\":11557:11604   */\n      mstore\n        /* \"#utility.yul\":11621:11752   */\n      tag_368\n        /* \"#utility.yul\":11747:11751   */\n      dup2\n        /* \"#utility.yul\":11621:11752   */\n      tag_234\n      jump\t// in\n    tag_368:\n        /* \"#utility.yul\":11613:11752   */\n      swap1\n      pop\n        /* \"#utility.yul\":11340:11759   */\n      swap2\n      swap1\n      pop\n      jump\t// out\n        /* \"#utility.yul\":11765:11989   */\n    tag_235:\n        /* \"#utility.yul\":11905:11939   */\n      0x45524332303a207472616e736665722066726f6d20746865207a65726f206164\n        /* \"#utility.yul\":11901:11902   */\n      0x00\n        /* \"#utility.yul\":11893:11899   */\n      dup3\n        /* \"#utility.yul\":11889:11903   */\n      add\n        /* \"#utility.yul\":11882:11940   */\n      mstore\n        /* \"#utility.yul\":11974:11981   */\n      0x6472657373000000000000000000000000000000000000000000000000000000\n        /* \"#utility.yul\":11969:11971   */\n      0x20\n        /* \"#utility.yul\":11961:11967   */\n      dup3\n        /* \"#utility.yul\":11957:11972   */\n      add\n        /* \"#utility.yul\":11950:11982   */\n      mstore\n        /* \"#utility.yul\":11765:11989   */\n      pop\n      jump\t// out\n        /* \"#utility.yul\":11995:12361   */\n    tag_236:\n        /* \"#utility.yul\":12137:12140   */\n      0x00\n        /* \"#utility.yul\":12158:12225   */\n      tag_371\n        /* \"#utility.yul\":12222:12224   */\n      0x25\n        /* \"#utility.yul\":12217:12220   */\n      dup4\n        /* \"#utility.yul\":12158:12225   */\n      tag_203\n      jump\t// in\n    tag_371:\n        /* \"#utility.yul\":12151:12225   */\n      swap2\n      pop\n        /* \"#utility.yul\":12234:12327   */\n      tag_372\n        /* \"#utility.yul\":12323:12326   */\n      dup3\n        /* \"#utility.yul\":12234:12327   */\n      tag_235\n      jump\t// in\n    tag_372:\n        /* \"#utility.yul\":12352:12354   */\n      0x40\n        /* \"#utility.yul\":12347:12350   */\n      dup3\n        /* \"#utility.yul\":12343:12355   */\n      add\n        /* \"#utility.yul\":12336:12355   */\n      swap1\n      pop\n        /* \"#utility.yul\":11995:12361   */\n      swap2\n      swap1\n      pop\n      jump\t// out\n        /* \"#utility.yul\":12367:12786   */\n    tag_144:\n        /* \"#utility.yul\":12533:12537   */\n      0x00\n        /* \"#utility.yul\":12571:12573   */\n      0x20\n        /* \"#utility.yul\":12560:12569   */\n      dup3\n        /* \"#utility.yul\":12556:12574   */\n      add\n        /* \"#utility.yul\":12548:12574   */\n      swap1\n      pop\n        /* \"#utility.yul\":12620:12629   */\n      dup2\n        /* \"#utility.yul\":12614:12618   */\n      dup2\n        /* \"#utility.yul\":12610:12630   */\n      sub\n        /* \"#utility.yul\":12606:12607   */\n      0x00\n        /* \"#utility.yul\":12595:12604   */\n      dup4\n        /* \"#utility.yul\":12591:12608   */\n      add\n        /* \"#utility.yul\":12584:12631   */\n      mstore\n        /* \"#utility.yul\":12648:12779   */\n      tag_374\n        /* \"#utility.yul\":12774:12778   */\n      dup2\n        /* \"#utility.yul\":12648:12779   */\n      tag_236\n      jump\t// in\n    tag_374:\n        /* \"#utility.yul\":12640:12779   */\n      swap1\n      pop\n        /* \"#utility.yul\":12367:12786   */\n      swap2\n      swap1\n      pop\n      jump\t// out\n        /* \"#utility.yul\":12792:13014   */\n    tag_237:\n        /* \"#utility.yul\":12932:12966   */\n      0x45524332303a207472616e7366657220746f20746865207a65726f2061646472\n        /* \"#utility.yul\":12928:12929   */\n      0x00\n        /* \"#utility.yul\":12920:12926   */\n      dup3\n        /* \"#utility.yul\":12916:12930   */\n      add\n        /* \"#utility.yul\":12909:12967   */\n      mstore\n        /* \"#utility.yul\":13001:13006   */\n      0x6573730000000000000000000000000000000000000000000000000000000000\n        /* \"#utility.yul\":12996:12998   */\n      0x20\n        /* \"#utility.yul\":12988:12994   */\n      dup3\n        /* \"#utility.yul\":12984:12999   */\n      add\n        /* \"#utility.yul\":12977:13007   */\n      mstore\n        /* \"#utility.yul\":12792:13014   */\n      pop\n      jump\t// out\n        /* \"#utility.yul\":13020:13386   */\n    tag_238:\n        /* \"#utility.yul\":13162:13165   */\n      0x00\n        /* \"#utility.yul\":13183:13250   */\n      tag_377\n        /* \"#utility.yul\":13247:13249   */\n      0x23\n        /* \"#utility.yul\":13242:13245   */\n      dup4\n        /* \"#utility.yul\":13183:13250   */\n      tag_203\n      jump\t// in\n    tag_377:\n        /* \"#utility.yul\":13176:13250   */\n      swap2\n      pop\n        /* \"#utility.yul\":13259:13352   */\n      tag_378\n        /* \"#utility.yul\":13348:13351   */\n      dup3\n        /* \"#utility.yul\":13259:13352   */\n      tag_237\n      jump\t// in\n    tag_378:\n        /* \"#utility.yul\":13377:13379   */\n      0x40\n        /* \"#utility.yul\":13372:13375   */\n      dup3\n        /* \"#utility.yul\":13368:13380   */\n      add\n        /* \"#utility.yul\":13361:13380   */\n      swap1\n      pop\n        /* \"#utility.yul\":13020:13386   */\n      swap2\n      swap1\n      pop\n      jump\t// out\n        /* \"#utility.yul\":13392:13811   */\n    tag_147:\n        /* \"#utility.yul\":13558:13562   */\n      0x00\n        /* \"#utility.yul\":13596:13598   */\n      0x20\n        /* \"#utility.yul\":13585:13594   */\n      dup3\n        /* \"#utility.yul\":13581:13599   */\n      add\n        /* \"#utility.yul\":13573:13599   */\n      swap1\n      pop\n        /* \"#utility.yul\":13645:13654   */\n      dup2\n        /* \"#utility.yul\":13639:13643   */\n      dup2\n        /* \"#utility.yul\":13635:13655   */\n      sub\n        /* \"#utility.yul\":13631:13632   */\n      0x00\n        /* \"#utility.yul\":13620:13629   */\n      dup4\n        /* \"#utility.yul\":13616:13633   */\n      add\n        /* \"#utility.yul\":13609:13656   */\n      mstore\n        /* \"#utility.yul\":13673:13804   */\n      tag_380\n        /* \"#utility.yul\":13799:13803   */\n      dup2\n        /* \"#utility.yul\":13673:13804   */\n      tag_238\n      jump\t// in\n    tag_380:\n        /* \"#utility.yul\":13665:13804   */\n      swap1\n      pop\n        /* \"#utility.yul\":13392:13811   */\n      swap2\n      swap1\n      pop\n      jump\t// out\n        /* \"#utility.yul\":13817:14042   */\n    tag_239:\n        /* \"#utility.yul\":13957:13991   */\n      0x45524332303a207472616e7366657220616d6f756e7420657863656564732062\n        /* \"#utility.yul\":13953:13954   */\n      0x00\n        /* \"#utility.yul\":13945:13951   */\n      dup3\n        /* \"#utility.yul\":13941:13955   */\n      add\n        /* \"#utility.yul\":13934:13992   */\n      mstore\n        /* \"#utility.yul\":14026:14034   */\n      0x616c616e63650000000000000000000000000000000000000000000000000000\n        /* \"#utility.yul\":14021:14023   */\n      0x20\n        /* \"#utility.yul\":14013:14019   */\n      dup3\n        /* \"#utility.yul\":14009:14024   */\n      add\n        /* \"#utility.yul\":14002:14035   */\n      mstore\n        /* \"#utility.yul\":13817:14042   */\n      pop\n      jump\t// out\n        /* \"#utility.yul\":14048:14414   */\n    tag_240:\n        /* \"#utility.yul\":14190:14193   */\n      0x00\n        /* \"#utility.yul\":14211:14278   */\n      tag_383\n        /* \"#utility.yul\":14275:14277   */\n      0x26\n        /* \"#utility.yul\":14270:14273   */\n      dup4\n        /* \"#utility.yul\":14211:14278   */\n      tag_203\n      jump\t// in\n    tag_383:\n        /* \"#utility.yul\":14204:14278   */\n      swap2\n      pop\n        /* \"#utility.yul\":14287:14380   */\n      tag_384\n        /* \"#utility.yul\":14376:14379   */\n      dup3\n        /* \"#utility.yul\":14287:14380   */\n      tag_239\n      jump\t// in\n    tag_384:\n        /* \"#utility.yul\":14405:14407   */\n      0x40\n        /* \"#utility.yul\":14400:14403   */\n      dup3\n        /* \"#utility.yul\":14396:14408   */\n      add\n        /* \"#utility.yul\":14389:14408   */\n      swap1\n      pop\n        /* \"#utility.yul\":14048:14414   */\n      swap2\n      swap1\n      pop\n      jump\t// out\n        /* \"#utility.yul\":14420:14839   */\n    tag_152:\n        /* \"#utility.yul\":14586:14590   */\n      0x00\n        /* \"#utility.yul\":14624:14626   */\n      0x20\n        /* \"#utility.yul\":14613:14622   */\n      dup3\n        /* \"#utility.yul\":14609:14627   */\n      add\n        /* \"#utility.yul\":14601:14627   */\n      swap1\n      pop\n        /* \"#utility.yul\":14673:14682   */\n      dup2\n        /* \"#utility.yul\":14667:14671   */\n      dup2\n        /* \"#utility.yul\":14663:14683   */\n      sub\n        /* \"#utility.yul\":14659:14660   */\n      0x00\n        /* \"#utility.yul\":14648:14657   */\n      dup4\n        /* \"#utility.yul\":14644:14661   */\n      add\n        /* \"#utility.yul\":14637:14684   */\n      mstore\n        /* \"#utility.yul\":14701:14832   */\n      tag_386\n        /* \"#utility.yul\":14827:14831   */\n      dup2\n        /* \"#utility.yul\":14701:14832   */\n      tag_240\n      jump\t// in\n    tag_386:\n        /* \"#utility.yul\":14693:14832   */\n      swap1\n      pop\n        /* \"#utility.yul\":14420:14839   */\n      swap2\n      swap1\n      pop\n      jump\t// out\n        /* \"#utility.yul\":14845:14963   */\n    tag_241:\n        /* \"#utility.yul\":14932:14956   */\n      tag_388\n        /* \"#utility.yul\":14950:14955   */\n      dup2\n        /* \"#utility.yul\":14932:14956   */\n      tag_211\n      jump\t// in\n    tag_388:\n        /* \"#utility.yul\":14927:14930   */\n      dup3\n        /* \"#utility.yul\":14920:14957   */\n      mstore\n        /* \"#utility.yul\":14845:14963   */\n      pop\n      pop\n      jump\t// out\n        /* \"#utility.yul\":14969:15411   */\n    tag_159:\n        /* \"#utility.yul\":15118:15122   */\n      0x00\n        /* \"#utility.yul\":15156:15158   */\n      0x60\n        /* \"#utility.yul\":15145:15154   */\n      dup3\n        /* \"#utility.yul\":15141:15159   */\n      add\n        /* \"#utility.yul\":15133:15159   */\n      swap1\n      pop\n        /* \"#utility.yul\":15169:15240   */\n      tag_390\n        /* \"#utility.yul\":15237:15238   */\n      0x00\n        /* \"#utility.yul\":15226:15235   */\n      dup4\n        /* \"#utility.yul\":15222:15239   */\n      add\n        /* \"#utility.yul\":15213:15219   */\n      dup7\n        /* \"#utility.yul\":15169:15240   */\n      tag_241\n      jump\t// in\n    tag_390:\n        /* \"#utility.yul\":15250:15322   */\n      tag_391\n        /* \"#utility.yul\":15318:15320   */\n      0x20\n        /* \"#utility.yul\":15307:15316   */\n      dup4\n        /* \"#utility.yul\":15303:15321   */\n      add\n        /* \"#utility.yul\":15294:15300   */\n      dup6\n        /* \"#utility.yul\":15250:15322   */\n      tag_241\n      jump\t// in\n    tag_391:\n        /* \"#utility.yul\":15332:15404   */\n      tag_392\n        /* \"#utility.yul\":15400:15402   */\n      0x40\n        /* \"#utility.yul\":15389:15398   */\n      dup4\n        /* \"#utility.yul\":15385:15403   */\n      add\n        /* \"#utility.yul\":15376:15382   */\n      dup5\n        /* \"#utility.yul\":15332:15404   */\n      tag_219\n      jump\t// in\n    tag_392:\n        /* \"#utility.yul\":14969:15411   */\n      swap5\n      swap4\n      pop\n      pop\n      pop\n      pop\n      jump\t// out\n        /* \"#utility.yul\":15417:15533   */\n    tag_242:\n        /* \"#utility.yul\":15487:15508   */\n      tag_394\n        /* \"#utility.yul\":15502:15507   */\n      dup2\n        /* \"#utility.yul\":15487:15508   */\n      tag_217\n      jump\t// in\n    tag_394:\n        /* \"#utility.yul\":15480:15485   */\n      dup2\n        /* \"#utility.yul\":15477:15509   */\n      eq\n        /* \"#utility.yul\":15467:15527   */\n      tag_395\n      jumpi\n        /* \"#utility.yul\":15523:15524   */\n      0x00\n        /* \"#utility.yul\":15520:15521   */\n      dup1\n        /* \"#utility.yul\":15513:15525   */\n      revert\n        /* \"#utility.yul\":15467:15527   */\n    tag_395:\n        /* \"#utility.yul\":15417:15533   */\n      pop\n      jump\t// out\n        /* \"#utility.yul\":15539:15676   */\n    tag_243:\n        /* \"#utility.yul\":15593:15598   */\n      0x00\n        /* \"#utility.yul\":15624:15630   */\n      dup2\n        /* \"#utility.yul\":15618:15631   */\n      mload\n        /* \"#utility.yul\":15609:15631   */\n      swap1\n      pop\n        /* \"#utility.yul\":15640:15670   */\n      tag_397\n        /* \"#utility.yul\":15664:15669   */\n      dup2\n        /* \"#utility.yul\":15640:15670   */\n      tag_242\n      jump\t// in\n    tag_397:\n        /* \"#utility.yul\":15539:15676   */\n      swap3\n      swap2\n      pop\n      pop\n      jump\t// out\n        /* \"#utility.yul\":15682:16027   */\n    tag_168:\n        /* \"#utility.yul\":15749:15755   */\n      0x00\n        /* \"#utility.yul\":15798:15800   */\n      0x20\n        /* \"#utility.yul\":15786:15795   */\n      dup3\n        /* \"#utility.yul\":15777:15784   */\n      dup5\n        /* \"#utility.yul\":15773:15796   */\n      sub\n        /* \"#utility.yul\":15769:15801   */\n      slt\n        /* \"#utility.yul\":15766:15885   */\n      iszero\n      tag_399\n      jumpi\n        /* \"#utility.yul\":15804:15883   */\n      tag_400\n      tag_208\n      jump\t// in\n    tag_400:\n        /* \"#utility.yul\":15766:15885   */\n    tag_399:\n        /* \"#utility.yul\":15924:15925   */\n      0x00\n        /* \"#utility.yul\":15949:16010   */\n      tag_401\n        /* \"#utility.yul\":16002:16009   */\n      dup5\n        /* \"#utility.yul\":15993:15999   */\n      dup3\n        /* \"#utility.yul\":15982:15991   */\n      dup6\n        /* \"#utility.yul\":15978:16000   */\n      add\n        /* \"#utility.yul\":15949:16010   */\n      tag_243\n      jump\t// in\n    tag_401:\n        /* \"#utility.yul\":15939:16010   */\n      swap2\n      pop\n        /* \"#utility.yul\":15895:16020   */\n      pop\n        /* \"#utility.yul\":15682:16027   */\n      swap3\n      swap2\n      pop\n      pop\n      jump\t// out\n        /* \"#utility.yul\":16033:16262   */\n    tag_244:\n        /* \"#utility.yul\":16173:16207   */\n      0x5361666545524332303a204552433230206f7065726174696f6e20646964206e\n        /* \"#utility.yul\":16169:16170   */\n      0x00\n        /* \"#utility.yul\":16161:16167   */\n      dup3\n        /* \"#utility.yul\":16157:16171   */\n      add\n        /* \"#utility.yul\":16150:16208   */\n      mstore\n        /* \"#utility.yul\":16242:16254   */\n      0x6f74207375636365656400000000000000000000000000000000000000000000\n        /* \"#utility.yul\":16237:16239   */\n      0x20\n        /* \"#utility.yul\":16229:16235   */\n      dup3\n        /* \"#utility.yul\":16225:16240   */\n      add\n        /* \"#utility.yul\":16218:16255   */\n      mstore\n        /* \"#utility.yul\":16033:16262   */\n      pop\n      jump\t// out\n        /* \"#utility.yul\":16268:16634   */\n    tag_245:\n        /* \"#utility.yul\":16410:16413   */\n      0x00\n        /* \"#utility.yul\":16431:16498   */\n      tag_404\n        /* \"#utility.yul\":16495:16497   */\n      0x2a\n        /* \"#utility.yul\":16490:16493   */\n      dup4\n        /* \"#utility.yul\":16431:16498   */\n      tag_203\n      jump\t// in\n    tag_404:\n        /* \"#utility.yul\":16424:16498   */\n      swap2\n      pop\n        /* \"#utility.yul\":16507:16600   */\n      tag_405\n        /* \"#utility.yul\":16596:16599   */\n      dup3\n        /* \"#utility.yul\":16507:16600   */\n      tag_244\n      jump\t// in\n    tag_405:\n        /* \"#utility.yul\":16625:16627   */\n      0x40\n        /* \"#utility.yul\":16620:16623   */\n      dup3\n        /* \"#utility.yul\":16616:16628   */\n      add\n        /* \"#utility.yul\":16609:16628   */\n      swap1\n      pop\n        /* \"#utility.yul\":16268:16634   */\n      swap2\n      swap1\n      pop\n      jump\t// out\n        /* \"#utility.yul\":16640:17059   */\n    tag_171:\n        /* \"#utility.yul\":16806:16810   */\n      0x00\n        /* \"#utility.yul\":16844:16846   */\n      0x20\n        /* \"#utility.yul\":16833:16842   */\n      dup3\n        /* \"#utility.yul\":16829:16847   */\n      add\n        /* \"#utility.yul\":16821:16847   */\n      swap1\n      pop\n        /* \"#utility.yul\":16893:16902   */\n      dup2\n        /* \"#utility.yul\":16887:16891   */\n      dup2\n        /* \"#utility.yul\":16883:16903   */\n      sub\n        /* \"#utility.yul\":16879:16880   */\n      0x00\n        /* \"#utility.yul\":16868:16877   */\n      dup4\n        /* \"#utility.yul\":16864:16881   */\n      add\n        /* \"#utility.yul\":16857:16904   */\n      mstore\n        /* \"#utility.yul\":16921:17052   */\n      tag_407\n        /* \"#utility.yul\":17047:17051   */\n      dup2\n        /* \"#utility.yul\":16921:17052   */\n      tag_245\n      jump\t// in\n    tag_407:\n        /* \"#utility.yul\":16913:17052   */\n      swap1\n      pop\n        /* \"#utility.yul\":16640:17059   */\n      swap2\n      swap1\n      pop\n      jump\t// out\n        /* \"#utility.yul\":17065:17290   */\n    tag_246:\n        /* \"#utility.yul\":17205:17239   */\n      0x416464726573733a20696e73756666696369656e742062616c616e636520666f\n        /* \"#utility.yul\":17201:17202   */\n      0x00\n        /* \"#utility.yul\":17193:17199   */\n      dup3\n        /* \"#utility.yul\":17189:17203   */\n      add\n        /* \"#utility.yul\":17182:17240   */\n      mstore\n        /* \"#utility.yul\":17274:17282   */\n      0x722063616c6c0000000000000000000000000000000000000000000000000000\n        /* \"#utility.yul\":17269:17271   */\n      0x20\n        /* \"#utility.yul\":17261:17267   */\n      dup3\n        /* \"#utility.yul\":17257:17272   */\n      add\n        /* \"#utility.yul\":17250:17283   */\n      mstore\n        /* \"#utility.yul\":17065:17290   */\n      pop\n      jump\t// out\n        /* \"#utility.yul\":17296:17662   */\n    tag_247:\n        /* \"#utility.yul\":17438:17441   */\n      0x00\n        /* \"#utility.yul\":17459:17526   */\n      tag_410\n        /* \"#utility.yul\":17523:17525   */\n      0x26\n        /* \"#utility.yul\":17518:17521   */\n      dup4\n        /* \"#utility.yul\":17459:17526   */\n      tag_203\n      jump\t// in\n    tag_410:\n        /* \"#utility.yul\":17452:17526   */\n      swap2\n      pop\n        /* \"#utility.yul\":17535:17628   */\n      tag_411\n        /* \"#utility.yul\":17624:17627   */\n      dup3\n        /* \"#utility.yul\":17535:17628   */\n      tag_246\n      jump\t// in\n    tag_411:\n        /* \"#utility.yul\":17653:17655   */\n      0x40\n        /* \"#utility.yul\":17648:17651   */\n      dup3\n        /* \"#utility.yul\":17644:17656   */\n      add\n        /* \"#utility.yul\":17637:17656   */\n      swap1\n      pop\n        /* \"#utility.yul\":17296:17662   */\n      swap2\n      swap1\n      pop\n      jump\t// out\n        /* \"#utility.yul\":17668:18087   */\n    tag_178:\n        /* \"#utility.yul\":17834:17838   */\n      0x00\n        /* \"#utility.yul\":17872:17874   */\n      0x20\n        /* \"#utility.yul\":17861:17870   */\n      dup3\n        /* \"#utility.yul\":17857:17875   */\n      add\n        /* \"#utility.yul\":17849:17875   */\n      swap1\n      pop\n        /* \"#utility.yul\":17921:17930   */\n      dup2\n        /* \"#utility.yul\":17915:17919   */\n      dup2\n        /* \"#utility.yul\":17911:17931   */\n      sub\n        /* \"#utility.yul\":17907:17908   */\n      0x00\n        /* \"#utility.yul\":17896:17905   */\n      dup4\n        /* \"#utility.yul\":17892:17909   */\n      add\n        /* \"#utility.yul\":17885:17932   */\n      mstore\n        /* \"#utility.yul\":17949:18080   */\n      tag_413\n        /* \"#utility.yul\":18075:18079   */\n      dup2\n        /* \"#utility.yul\":17949:18080   */\n      tag_247\n      jump\t// in\n    tag_413:\n        /* \"#utility.yul\":17941:18080   */\n      swap1\n      pop\n        /* \"#utility.yul\":17668:18087   */\n      swap2\n      swap1\n      pop\n      jump\t// out\n        /* \"#utility.yul\":18093:18191   */\n    tag_248:\n        /* \"#utility.yul\":18144:18150   */\n      0x00\n        /* \"#utility.yul\":18178:18183   */\n      dup2\n        /* \"#utility.yul\":18172:18184   */\n      mload\n        /* \"#utility.yul\":18162:18184   */\n      swap1\n      pop\n        /* \"#utility.yul\":18093:18191   */\n      swap2\n      swap1\n      pop\n      jump\t// out\n        /* \"#utility.yul\":18197:18344   */\n    tag_249:\n        /* \"#utility.yul\":18298:18309   */\n      0x00\n        /* \"#utility.yul\":18335:18338   */\n      dup2\n        /* \"#utility.yul\":18320:18338   */\n      swap1\n      pop\n        /* \"#utility.yul\":18197:18344   */\n      swap3\n      swap2\n      pop\n      pop\n      jump\t// out\n        /* \"#utility.yul\":18350:18736   */\n    tag_250:\n        /* \"#utility.yul\":18454:18457   */\n      0x00\n        /* \"#utility.yul\":18482:18520   */\n      tag_417\n        /* \"#utility.yul\":18514:18519   */\n      dup3\n        /* \"#utility.yul\":18482:18520   */\n      tag_248\n      jump\t// in\n    tag_417:\n        /* \"#utility.yul\":18536:18624   */\n      tag_418\n        /* \"#utility.yul\":18617:18623   */\n      dup2\n        /* \"#utility.yul\":18612:18615   */\n      dup6\n        /* \"#utility.yul\":18536:18624   */\n      tag_249\n      jump\t// in\n    tag_418:\n        /* \"#utility.yul\":18529:18624   */\n      swap4\n      pop\n        /* \"#utility.yul\":18633:18698   */\n      tag_419\n        /* \"#utility.yul\":18691:18697   */\n      dup2\n        /* \"#utility.yul\":18686:18689   */\n      dup6\n        /* \"#utility.yul\":18679:18683   */\n      0x20\n        /* \"#utility.yul\":18672:18677   */\n      dup7\n        /* \"#utility.yul\":18668:18684   */\n      add\n        /* \"#utility.yul\":18633:18698   */\n      tag_204\n      jump\t// in\n    tag_419:\n        /* \"#utility.yul\":18723:18729   */\n      dup1\n        /* \"#utility.yul\":18718:18721   */\n      dup5\n        /* \"#utility.yul\":18714:18730   */\n      add\n        /* \"#utility.yul\":18707:18730   */\n      swap2\n      pop\n        /* \"#utility.yul\":18458:18736   */\n      pop\n        /* \"#utility.yul\":18350:18736   */\n      swap3\n      swap2\n      pop\n      pop\n      jump\t// out\n        /* \"#utility.yul\":18742:19013   */\n    tag_180:\n        /* \"#utility.yul\":18872:18875   */\n      0x00\n        /* \"#utility.yul\":18894:18987   */\n      tag_421\n        /* \"#utility.yul\":18983:18986   */\n      dup3\n        /* \"#utility.yul\":18974:18980   */\n      dup5\n        /* \"#utility.yul\":18894:18987   */\n      tag_250\n      jump\t// in\n    tag_421:\n        /* \"#utility.yul\":18887:18987   */\n      swap2\n      pop\n        /* \"#utility.yul\":19004:19007   */\n      dup2\n        /* \"#utility.yul\":18997:19007   */\n      swap1\n      pop\n        /* \"#utility.yul\":18742:19013   */\n      swap3\n      swap2\n      pop\n      pop\n      jump\t// out\n        /* \"#utility.yul\":19019:19198   */\n    tag_251:\n        /* \"#utility.yul\":19159:19190   */\n      0x416464726573733a2063616c6c20746f206e6f6e2d636f6e7472616374000000\n        /* \"#utility.yul\":19155:19156   */\n      0x00\n        /* \"#utility.yul\":19147:19153   */\n      dup3\n        /* \"#utility.yul\":19143:19157   */\n      add\n        /* \"#utility.yul\":19136:19191   */\n      mstore\n        /* \"#utility.yul\":19019:19198   */\n      pop\n      jump\t// out\n        /* \"#utility.yul\":19204:19570   */\n    tag_252:\n        /* \"#utility.yul\":19346:19349   */\n      0x00\n        /* \"#utility.yul\":19367:19434   */\n      tag_424\n        /* \"#utility.yul\":19431:19433   */\n      0x1d\n        /* \"#utility.yul\":19426:19429   */\n      dup4\n        /* \"#utility.yul\":19367:19434   */\n      tag_203\n      jump\t// in\n    tag_424:\n        /* \"#utility.yul\":19360:19434   */\n      swap2\n      pop\n        /* \"#utility.yul\":19443:19536   */\n      tag_425\n        /* \"#utility.yul\":19532:19535   */\n      dup3\n        /* \"#utility.yul\":19443:19536   */\n      tag_251\n      jump\t// in\n    tag_425:\n        /* \"#utility.yul\":19561:19563   */\n      0x20\n        /* \"#utility.yul\":19556:19559   */\n      dup3\n        /* \"#utility.yul\":19552:19564   */\n      add\n        /* \"#utility.yul\":19545:19564   */\n      swap1\n      pop\n        /* \"#utility.yul\":19204:19570   */\n      swap2\n      swap1\n      pop\n      jump\t// out\n        /* \"#utility.yul\":19576:19995   */\n    tag_193:\n        /* \"#utility.yul\":19742:19746   */\n      0x00\n        /* \"#utility.yul\":19780:19782   */\n      0x20\n        /* \"#utility.yul\":19769:19778   */\n      dup3\n        /* \"#utility.yul\":19765:19783   */\n      add\n        /* \"#utility.yul\":19757:19783   */\n      swap1\n      pop\n        /* \"#utility.yul\":19829:19838   */\n      dup2\n        /* \"#utility.yul\":19823:19827   */\n      dup2\n        /* \"#utility.yul\":19819:19839   */\n      sub\n        /* \"#utility.yul\":19815:19816   */\n      0x00\n        /* \"#utility.yul\":19804:19813   */\n      dup4\n        /* \"#utility.yul\":19800:19817   */\n      add\n        /* \"#utility.yul\":19793:19840   */\n      mstore\n        /* \"#utility.yul\":19857:19988   */\n      tag_427\n        /* \"#utility.yul\":19983:19987   */\n      dup2\n        /* \"#utility.yul\":19857:19988   */\n      tag_252\n      jump\t// in\n    tag_427:\n        /* \"#utility.yul\":19849:19988   */\n      swap1\n      pop\n        /* \"#utility.yul\":19576:19995   */\n      swap2\n      swap1\n      pop\n      jump\t// out\n\n    auxdata: 0xa264697066735822122002d247d4c7e6f6144f36fc26938ac3e6384e0ea39031413ed87662d18de491ee64736f6c63430008110033\n}\n",
				"bytecode": {
					"linkReferences": {},
					"object": "60806040523480156200001157600080fd5b50604051620022413803806200224183398181016040528101906200003791906200038f565b838381600390816200004a91906200068a565b5080600490816200005c91906200068a565b505050600073ffffffffffffffffffffffffffffffffffffffff168273ffffffffffffffffffffffffffffffffffffffff1603620000c6576040517fcf73d70f00000000000000000000000000000000000000000000000000000000815260040160405180910390fd5b81600560026101000a81548173ffffffffffffffffffffffffffffffffffffffff021916908373ffffffffffffffffffffffffffffffffffffffff16021790555080600860006101000a81548173ffffffffffffffffffffffffffffffffffffffff021916908373ffffffffffffffffffffffffffffffffffffffff1602179055505050505062000771565b6000604051905090565b600080fd5b600080fd5b600080fd5b600080fd5b6000601f19601f8301169050919050565b7f4e487b7100000000000000000000000000000000000000000000000000000000600052604160045260246000fd5b620001bb8262000170565b810181811067ffffffffffffffff82111715620001dd57620001dc62000181565b5b80604052505050565b6000620001f262000152565b9050620002008282620001b0565b919050565b600067ffffffffffffffff82111562000223576200022262000181565b5b6200022e8262000170565b9050602081019050919050565b60005b838110156200025b5780820151818401526020810190506200023e565b60008484015250505050565b60006200027e620002788462000205565b620001e6565b9050828152602081018484840111156200029d576200029c6200016b565b5b620002aa8482856200023b565b509392505050565b600082601f830112620002ca57620002c962000166565b5b8151620002dc84826020860162000267565b91505092915050565b600073ffffffffffffffffffffffffffffffffffffffff82169050919050565b60006200031282620002e5565b9050919050565b620003248162000305565b81146200033057600080fd5b50565b600081519050620003448162000319565b92915050565b6000620003578262000305565b9050919050565b62000369816200034a565b81146200037557600080fd5b50565b60008151905062000389816200035e565b92915050565b60008060008060808587031215620003ac57620003ab6200015c565b5b600085015167ffffffffffffffff811115620003cd57620003cc62000161565b5b620003db87828801620002b2565b945050602085015167ffffffffffffffff811115620003ff57620003fe62000161565b5b6200040d87828801620002b2565b9350506040620004208782880162000333565b9250506060620004338782880162000378565b91505092959194509250565b600081519050919050565b7f4e487b7100000000000000000000000000000000000000000000000000000000600052602260045260246000fd5b600060028204905060018216806200049257607f821691505b602082108103620004a857620004a76200044a565b5b50919050565b60008190508160005260206000209050919050565b60006020601f8301049050919050565b600082821b905092915050565b600060088302620005127fffffffffffffffffffffffffffffffffffffffffffffffffffffffffffffffff82620004d3565b6200051e8683620004d3565b95508019841693508086168417925050509392505050565b6000819050919050565b6000819050919050565b60006200056b620005656200055f8462000536565b62000540565b62000536565b9050919050565b6000819050919050565b62000587836200054a565b6200059f620005968262000572565b848454620004e0565b825550505050565b600090565b620005b6620005a7565b620005c38184846200057c565b505050565b5b81811015620005eb57620005df600082620005ac565b600181019050620005c9565b5050565b601f8211156200063a576200060481620004ae565b6200060f84620004c3565b810160208510156200061f578190505b620006376200062e85620004c3565b830182620005c8565b50505b505050565b600082821c905092915050565b60006200065f600019846008026200063f565b1980831691505092915050565b60006200067a83836200064c565b9150826002028217905092915050565b62000695826200043f565b67ffffffffffffffff811115620006b157620006b062000181565b5b620006bd825462000479565b620006ca828285620005ef565b600060209050601f831160018114620007025760008415620006ed578287015190505b620006f985826200066c565b86555062000769565b601f1984166200071286620004ae565b60005b828110156200073c5784890151825560018201915060208501945060208101905062000715565b868310156200075c578489015162000758601f8916826200064c565b8355505b6001600288020188555050505b505050505050565b611ac080620007816000396000f3fe608060405234801561001057600080fd5b50600436106100cf5760003560e01c806366829b161161008c578063a457c2d711610066578063a457c2d714610228578063a9059cbb14610258578063dd62ed3e14610288578063f14faf6f146102b8576100cf565b806366829b16146101be57806370a08231146101da57806395d89b411461020a576100cf565b806306fdde03146100d4578063095ea7b3146100f257806318160ddd1461012257806323b872dd14610140578063313ce56714610170578063395093511461018e575b600080fd5b6100dc6102d4565b6040516100e99190611078565b60405180910390f35b61010c60048036038101906101079190611133565b610366565b604051610119919061118e565b60405180910390f35b61012a610389565b60405161013791906111b8565b60405180910390f35b61015a600480360381019061015591906111d3565b610393565b604051610167919061118e565b60405180910390f35b6101786103c2565b6040516101859190611242565b60405180910390f35b6101a860048036038101906101a39190611133565b6103cb565b6040516101b5919061118e565b60405180910390f35b6101d860048036038101906101d3919061129b565b610402565b005b6101f460048036038101906101ef91906112c8565b6104cd565b60405161020191906111b8565b60405180910390f35b610212610515565b60405161021f9190611078565b60405180910390f35b610242600480360381019061023d9190611133565b6105a7565b60405161024f919061118e565b60405180910390f35b610272600480360381019061026d9190611133565b61061e565b60405161027f919061118e565b60405180910390f35b6102a2600480360381019061029d91906112f5565b610641565b6040516102af91906111b8565b60405180910390f35b6102d260048036038101906102cd9190611335565b6106c8565b005b6060600380546102e390611391565b80601f016020809104026020016040519081016040528092919081815260200182805461030f90611391565b801561035c5780601f106103315761010080835404028352916020019161035c565b820191906000526020600020905b81548152906001019060200180831161033f57829003601f168201915b5050505050905090565b6000806103716107ee565b905061037e8185856107f6565b600191505092915050565b6000600254905090565b60008061039e6107ee565b90506103ab8582856109bf565b6103b6858585610a4b565b60019150509392505050565b60006012905090565b6000806103d66107ee565b90506103f78185856103e88589610641565b6103f291906113f1565b6107f6565b600191505092915050565b600860009054906101000a900473ffffffffffffffffffffffffffffffffffffffff1673ffffffffffffffffffffffffffffffffffffffff168173ffffffffffffffffffffffffffffffffffffffff1603610489576040517f02ac969600000000000000000000000000000000000000000000000000000000815260040160405180910390fd5b80600860006101000a81548173ffffffffffffffffffffffffffffffffffffffff021916908373ffffffffffffffffffffffffffffffffffffffff16021790555050565b60008060008373ffffffffffffffffffffffffffffffffffffffff1673ffffffffffffffffffffffffffffffffffffffff168152602001908152602001600020549050919050565b60606004805461052490611391565b80601f016020809104026020016040519081016040528092919081815260200182805461055090611391565b801561059d5780601f106105725761010080835404028352916020019161059d565b820191906000526020600020905b81548152906001019060200180831161058057829003601f168201915b5050505050905090565b6000806105b26107ee565b905060006105c08286610641565b905083811015610605576040517f08c379a00000000000000000000000000000000000000000000000000000000081526004016105fc90611497565b60405180910390fd5b61061282868684036107f6565b60019250505092915050565b6000806106296107ee565b9050610636818585610a4b565b600191505092915050565b6000600160008473ffffffffffffffffffffffffffffffffffffffff1673ffffffffffffffffffffffffffffffffffffffff16815260200190815260200160002060008373ffffffffffffffffffffffffffffffffffffffff1673ffffffffffffffffffffffffffffffffffffffff16815260200190815260200160002054905092915050565b60008103610702576040517f43ad20fc00000000000000000000000000000000000000000000000000000000815260040160405180910390fd5b80600960003373ffffffffffffffffffffffffffffffffffffffff1673ffffffffffffffffffffffffffffffffffffffff168152602001908152602001600020600082825461075191906113f1565b925050819055506107a7333083600860009054906101000a900473ffffffffffffffffffffffffffffffffffffffff1673ffffffffffffffffffffffffffffffffffffffff16610cc1909392919063ffffffff16565b803373ffffffffffffffffffffffffffffffffffffffff167f2a01595cddf097c90216094025db714da3f4e5bd8877b56ba86a24ecead8e54360405160405180910390a350565b600033905090565b600073ffffffffffffffffffffffffffffffffffffffff168373ffffffffffffffffffffffffffffffffffffffff1603610865576040517f08c379a000000000000000000000000000000000000000000000000000000000815260040161085c90611529565b60405180910390fd5b600073ffffffffffffffffffffffffffffffffffffffff168273ffffffffffffffffffffffffffffffffffffffff16036108d4576040517f08c379a00000000000000000000000000000000000000000000000000000000081526004016108cb906115bb565b60405180910390fd5b80600160008573ffffffffffffffffffffffffffffffffffffffff1673ffffffffffffffffffffffffffffffffffffffff16815260200190815260200160002060008473ffffffffffffffffffffffffffffffffffffffff1673ffffffffffffffffffffffffffffffffffffffff168152602001908152602001600020819055508173ffffffffffffffffffffffffffffffffffffffff168373ffffffffffffffffffffffffffffffffffffffff167f8c5be1e5ebec7d5bd14f71427d1e84f3dd0314c0f7b2291e5b200ac8c7c3b925836040516109b291906111b8565b60405180910390a3505050565b60006109cb8484610641565b90507fffffffffffffffffffffffffffffffffffffffffffffffffffffffffffffffff8114610a455781811015610a37576040517f08c379a0000000000000000000000000000000000000000000000000000000008152600401610a2e90611627565b60405180910390fd5b610a4484848484036107f6565b5b50505050565b600073ffffffffffffffffffffffffffffffffffffffff168373ffffffffffffffffffffffffffffffffffffffff1603610aba576040517f08c379a0000000000000000000000000000000000000000000000000000000008152600401610ab1906116b9565b60405180910390fd5b600073ffffffffffffffffffffffffffffffffffffffff168273ffffffffffffffffffffffffffffffffffffffff1603610b29576040517f08c379a0000000000000000000000000000000000000000000000000000000008152600401610b209061174b565b60405180910390fd5b610b34838383610d4a565b60008060008573ffffffffffffffffffffffffffffffffffffffff1673ffffffffffffffffffffffffffffffffffffffff16815260200190815260200160002054905081811015610bba576040517f08c379a0000000000000000000000000000000000000000000000000000000008152600401610bb1906117dd565b60405180910390fd5b8181036000808673ffffffffffffffffffffffffffffffffffffffff1673ffffffffffffffffffffffffffffffffffffffff16815260200190815260200160002081905550816000808573ffffffffffffffffffffffffffffffffffffffff1673ffffffffffffffffffffffffffffffffffffffff168152602001908152602001600020600082825401925050819055508273ffffffffffffffffffffffffffffffffffffffff168473ffffffffffffffffffffffffffffffffffffffff167fddf252ad1be2c89b69c2b068fc378daa952ba7f163c4a11628f55a4df523b3ef84604051610ca891906111b8565b60405180910390a3610cbb848484610d4f565b50505050565b610d44846323b872dd60e01b858585604051602401610ce29392919061180c565b604051602081830303815290604052907bffffffffffffffffffffffffffffffffffffffffffffffffffffffff19166020820180517bffffffffffffffffffffffffffffffffffffffffffffffffffffffff8381831617835250505050610d54565b50505050565b505050565b505050565b6000610db6826040518060400160405280602081526020017f5361666545524332303a206c6f772d6c6576656c2063616c6c206661696c65648152508573ffffffffffffffffffffffffffffffffffffffff16610e1b9092919063ffffffff16565b9050600081511115610e165780806020019051810190610dd6919061186f565b610e15576040517f08c379a0000000000000000000000000000000000000000000000000000000008152600401610e0c9061190e565b60405180910390fd5b5b505050565b6060610e2a8484600085610e33565b90509392505050565b606082471015610e78576040517f08c379a0000000000000000000000000000000000000000000000000000000008152600401610e6f906119a0565b60405180910390fd5b6000808673ffffffffffffffffffffffffffffffffffffffff168587604051610ea19190611a07565b60006040518083038185875af1925050503d8060008114610ede576040519150601f19603f3d011682016040523d82523d6000602084013e610ee3565b606091505b5091509150610ef487838387610f00565b92505050949350505050565b60608315610f62576000835103610f5a57610f1a85610f75565b610f59576040517f08c379a0000000000000000000000000000000000000000000000000000000008152600401610f5090611a6a565b60405180910390fd5b5b829050610f6d565b610f6c8383610f98565b5b949350505050565b6000808273ffffffffffffffffffffffffffffffffffffffff163b119050919050565b600082511115610fab5781518083602001fd5b806040517f08c379a0000000000000000000000000000000000000000000000000000000008152600401610fdf9190611078565b60405180910390fd5b600081519050919050565b600082825260208201905092915050565b60005b83811015611022578082015181840152602081019050611007565b60008484015250505050565b6000601f19601f8301169050919050565b600061104a82610fe8565b6110548185610ff3565b9350611064818560208601611004565b61106d8161102e565b840191505092915050565b60006020820190508181036000830152611092818461103f565b905092915050565b600080fd5b600073ffffffffffffffffffffffffffffffffffffffff82169050919050565b60006110ca8261109f565b9050919050565b6110da816110bf565b81146110e557600080fd5b50565b6000813590506110f7816110d1565b92915050565b6000819050919050565b611110816110fd565b811461111b57600080fd5b50565b60008135905061112d81611107565b92915050565b6000806040838503121561114a5761114961109a565b5b6000611158858286016110e8565b92505060206111698582860161111e565b9150509250929050565b60008115159050919050565b61118881611173565b82525050565b60006020820190506111a3600083018461117f565b92915050565b6111b2816110fd565b82525050565b60006020820190506111cd60008301846111a9565b92915050565b6000806000606084860312156111ec576111eb61109a565b5b60006111fa868287016110e8565b935050602061120b868287016110e8565b925050604061121c8682870161111e565b9150509250925092565b600060ff82169050919050565b61123c81611226565b82525050565b60006020820190506112576000830184611233565b92915050565b6000611268826110bf565b9050919050565b6112788161125d565b811461128357600080fd5b50565b6000813590506112958161126f565b92915050565b6000602082840312156112b1576112b061109a565b5b60006112bf84828501611286565b91505092915050565b6000602082840312156112de576112dd61109a565b5b60006112ec848285016110e8565b91505092915050565b6000806040838503121561130c5761130b61109a565b5b600061131a858286016110e8565b925050602061132b858286016110e8565b9150509250929050565b60006020828403121561134b5761134a61109a565b5b60006113598482850161111e565b91505092915050565b7f4e487b7100000000000000000000000000000000000000000000000000000000600052602260045260246000fd5b600060028204905060018216806113a957607f821691505b6020821081036113bc576113bb611362565b5b50919050565b7f4e487b7100000000000000000000000000000000000000000000000000000000600052601160045260246000fd5b60006113fc826110fd565b9150611407836110fd565b925082820190508082111561141f5761141e6113c2565b5b92915050565b7f45524332303a2064656372656173656420616c6c6f77616e63652062656c6f7760008201527f207a65726f000000000000000000000000000000000000000000000000000000602082015250565b6000611481602583610ff3565b915061148c82611425565b604082019050919050565b600060208201905081810360008301526114b081611474565b9050919050565b7f45524332303a20617070726f76652066726f6d20746865207a65726f2061646460008201527f7265737300000000000000000000000000000000000000000000000000000000602082015250565b6000611513602483610ff3565b915061151e826114b7565b604082019050919050565b6000602082019050818103600083015261154281611506565b9050919050565b7f45524332303a20617070726f766520746f20746865207a65726f20616464726560008201527f7373000000000000000000000000000000000000000000000000000000000000602082015250565b60006115a5602283610ff3565b91506115b082611549565b604082019050919050565b600060208201905081810360008301526115d481611598565b9050919050565b7f45524332303a20696e73756666696369656e7420616c6c6f77616e6365000000600082015250565b6000611611601d83610ff3565b915061161c826115db565b602082019050919050565b6000602082019050818103600083015261164081611604565b9050919050565b7f45524332303a207472616e736665722066726f6d20746865207a65726f20616460008201527f6472657373000000000000000000000000000000000000000000000000000000602082015250565b60006116a3602583610ff3565b91506116ae82611647565b604082019050919050565b600060208201905081810360008301526116d281611696565b9050919050565b7f45524332303a207472616e7366657220746f20746865207a65726f206164647260008201527f6573730000000000000000000000000000000000000000000000000000000000602082015250565b6000611735602383610ff3565b9150611740826116d9565b604082019050919050565b6000602082019050818103600083015261176481611728565b9050919050565b7f45524332303a207472616e7366657220616d6f756e742065786365656473206260008201527f616c616e63650000000000000000000000000000000000000000000000000000602082015250565b60006117c7602683610ff3565b91506117d28261176b565b604082019050919050565b600060208201905081810360008301526117f6816117ba565b9050919050565b611806816110bf565b82525050565b600060608201905061182160008301866117fd565b61182e60208301856117fd565b61183b60408301846111a9565b949350505050565b61184c81611173565b811461185757600080fd5b50565b60008151905061186981611843565b92915050565b6000602082840312156118855761188461109a565b5b60006118938482850161185a565b91505092915050565b7f5361666545524332303a204552433230206f7065726174696f6e20646964206e60008201527f6f74207375636365656400000000000000000000000000000000000000000000602082015250565b60006118f8602a83610ff3565b91506119038261189c565b604082019050919050565b60006020820190508181036000830152611927816118eb565b9050919050565b7f416464726573733a20696e73756666696369656e742062616c616e636520666f60008201527f722063616c6c0000000000000000000000000000000000000000000000000000602082015250565b600061198a602683610ff3565b91506119958261192e565b604082019050919050565b600060208201905081810360008301526119b98161197d565b9050919050565b600081519050919050565b600081905092915050565b60006119e1826119c0565b6119eb81856119cb565b93506119fb818560208601611004565b80840191505092915050565b6000611a1382846119d6565b915081905092915050565b7f416464726573733a2063616c6c20746f206e6f6e2d636f6e7472616374000000600082015250565b6000611a54601d83610ff3565b9150611a5f82611a1e565b602082019050919050565b60006020820190508181036000830152611a8381611a47565b905091905056fea264697066735822122002d247d4c7e6f6144f36fc26938ac3e6384e0ea39031413ed87662d18de491ee64736f6c63430008110033",
					"opcodes": "PUSH1 0x80 PUSH1 0x40 MSTORE CALLVALUE DUP1 ISZERO PUSH3 0x11 JUMPI PUSH1 0x0 DUP1 REVERT JUMPDEST POP PUSH1 0x40 MLOAD PUSH3 0x2241 CODESIZE SUB DUP1 PUSH3 0x2241 DUP4 CODECOPY DUP2 DUP2 ADD PUSH1 0x40 MSTORE DUP2 ADD SWAP1 PUSH3 0x37 SWAP2 SWAP1 PUSH3 0x38F JUMP JUMPDEST DUP4 DUP4 DUP2 PUSH1 0x3 SWAP1 DUP2 PUSH3 0x4A SWAP2 SWAP1 PUSH3 0x68A JUMP JUMPDEST POP DUP1 PUSH1 0x4 SWAP1 DUP2 PUSH3 0x5C SWAP2 SWAP1 PUSH3 0x68A JUMP JUMPDEST POP POP POP PUSH1 0x0 PUSH20 0xFFFFFFFFFFFFFFFFFFFFFFFFFFFFFFFFFFFFFFFF AND DUP3 PUSH20 0xFFFFFFFFFFFFFFFFFFFFFFFFFFFFFFFFFFFFFFFF AND SUB PUSH3 0xC6 JUMPI PUSH1 0x40 MLOAD PUSH32 0xCF73D70F00000000000000000000000000000000000000000000000000000000 DUP2 MSTORE PUSH1 0x4 ADD PUSH1 0x40 MLOAD DUP1 SWAP2 SUB SWAP1 REVERT JUMPDEST DUP2 PUSH1 0x5 PUSH1 0x2 PUSH2 0x100 EXP DUP2 SLOAD DUP2 PUSH20 0xFFFFFFFFFFFFFFFFFFFFFFFFFFFFFFFFFFFFFFFF MUL NOT AND SWAP1 DUP4 PUSH20 0xFFFFFFFFFFFFFFFFFFFFFFFFFFFFFFFFFFFFFFFF AND MUL OR SWAP1 SSTORE POP DUP1 PUSH1 0x8 PUSH1 0x0 PUSH2 0x100 EXP DUP2 SLOAD DUP2 PUSH20 0xFFFFFFFFFFFFFFFFFFFFFFFFFFFFFFFFFFFFFFFF MUL NOT AND SWAP1 DUP4 PUSH20 0xFFFFFFFFFFFFFFFFFFFFFFFFFFFFFFFFFFFFFFFF AND MUL OR SWAP1 SSTORE POP POP POP POP POP PUSH3 0x771 JUMP JUMPDEST PUSH1 0x0 PUSH1 0x40 MLOAD SWAP1 POP SWAP1 JUMP JUMPDEST PUSH1 0x0 DUP1 REVERT JUMPDEST PUSH1 0x0 DUP1 REVERT JUMPDEST PUSH1 0x0 DUP1 REVERT JUMPDEST PUSH1 0x0 DUP1 REVERT JUMPDEST PUSH1 0x0 PUSH1 0x1F NOT PUSH1 0x1F DUP4 ADD AND SWAP1 POP SWAP2 SWAP1 POP JUMP JUMPDEST PUSH32 0x4E487B7100000000000000000000000000000000000000000000000000000000 PUSH1 0x0 MSTORE PUSH1 0x41 PUSH1 0x4 MSTORE PUSH1 0x24 PUSH1 0x0 REVERT JUMPDEST PUSH3 0x1BB DUP3 PUSH3 0x170 JUMP JUMPDEST DUP2 ADD DUP2 DUP2 LT PUSH8 0xFFFFFFFFFFFFFFFF DUP3 GT OR ISZERO PUSH3 0x1DD JUMPI PUSH3 0x1DC PUSH3 0x181 JUMP JUMPDEST JUMPDEST DUP1 PUSH1 0x40 MSTORE POP POP POP JUMP JUMPDEST PUSH1 0x0 PUSH3 0x1F2 PUSH3 0x152 JUMP JUMPDEST SWAP1 POP PUSH3 0x200 DUP3 DUP3 PUSH3 0x1B0 JUMP JUMPDEST SWAP2 SWAP1 POP JUMP JUMPDEST PUSH1 0x0 PUSH8 0xFFFFFFFFFFFFFFFF DUP3 GT ISZERO PUSH3 0x223 JUMPI PUSH3 0x222 PUSH3 0x181 JUMP JUMPDEST JUMPDEST PUSH3 0x22E DUP3 PUSH3 0x170 JUMP JUMPDEST SWAP1 POP PUSH1 0x20 DUP2 ADD SWAP1 POP SWAP2 SWAP1 POP JUMP JUMPDEST PUSH1 0x0 JUMPDEST DUP4 DUP2 LT ISZERO PUSH3 0x25B JUMPI DUP1 DUP3 ADD MLOAD DUP2 DUP5 ADD MSTORE PUSH1 0x20 DUP2 ADD SWAP1 POP PUSH3 0x23E JUMP JUMPDEST PUSH1 0x0 DUP5 DUP5 ADD MSTORE POP POP POP POP JUMP JUMPDEST PUSH1 0x0 PUSH3 0x27E PUSH3 0x278 DUP5 PUSH3 0x205 JUMP JUMPDEST PUSH3 0x1E6 JUMP JUMPDEST SWAP1 POP DUP3 DUP2 MSTORE PUSH1 0x20 DUP2 ADD DUP5 DUP5 DUP5 ADD GT ISZERO PUSH3 0x29D JUMPI PUSH3 0x29C PUSH3 0x16B JUMP JUMPDEST JUMPDEST PUSH3 0x2AA DUP5 DUP3 DUP6 PUSH3 0x23B JUMP JUMPDEST POP SWAP4 SWAP3 POP POP POP JUMP JUMPDEST PUSH1 0x0 DUP3 PUSH1 0x1F DUP4 ADD SLT PUSH3 0x2CA JUMPI PUSH3 0x2C9 PUSH3 0x166 JUMP JUMPDEST JUMPDEST DUP2 MLOAD PUSH3 0x2DC DUP5 DUP3 PUSH1 0x20 DUP7 ADD PUSH3 0x267 JUMP JUMPDEST SWAP2 POP POP SWAP3 SWAP2 POP POP JUMP JUMPDEST PUSH1 0x0 PUSH20 0xFFFFFFFFFFFFFFFFFFFFFFFFFFFFFFFFFFFFFFFF DUP3 AND SWAP1 POP SWAP2 SWAP1 POP JUMP JUMPDEST PUSH1 0x0 PUSH3 0x312 DUP3 PUSH3 0x2E5 JUMP JUMPDEST SWAP1 POP SWAP2 SWAP1 POP JUMP JUMPDEST PUSH3 0x324 DUP2 PUSH3 0x305 JUMP JUMPDEST DUP2 EQ PUSH3 0x330 JUMPI PUSH1 0x0 DUP1 REVERT JUMPDEST POP JUMP JUMPDEST PUSH1 0x0 DUP2 MLOAD SWAP1 POP PUSH3 0x344 DUP2 PUSH3 0x319 JUMP JUMPDEST SWAP3 SWAP2 POP POP JUMP JUMPDEST PUSH1 0x0 PUSH3 0x357 DUP3 PUSH3 0x305 JUMP JUMPDEST SWAP1 POP SWAP2 SWAP1 POP JUMP JUMPDEST PUSH3 0x369 DUP2 PUSH3 0x34A JUMP JUMPDEST DUP2 EQ PUSH3 0x375 JUMPI PUSH1 0x0 DUP1 REVERT JUMPDEST POP JUMP JUMPDEST PUSH1 0x0 DUP2 MLOAD SWAP1 POP PUSH3 0x389 DUP2 PUSH3 0x35E JUMP JUMPDEST SWAP3 SWAP2 POP POP JUMP JUMPDEST PUSH1 0x0 DUP1 PUSH1 0x0 DUP1 PUSH1 0x80 DUP6 DUP8 SUB SLT ISZERO PUSH3 0x3AC JUMPI PUSH3 0x3AB PUSH3 0x15C JUMP JUMPDEST JUMPDEST PUSH1 0x0 DUP6 ADD MLOAD PUSH8 0xFFFFFFFFFFFFFFFF DUP2 GT ISZERO PUSH3 0x3CD JUMPI PUSH3 0x3CC PUSH3 0x161 JUMP JUMPDEST JUMPDEST PUSH3 0x3DB DUP8 DUP3 DUP9 ADD PUSH3 0x2B2 JUMP JUMPDEST SWAP5 POP POP PUSH1 0x20 DUP6 ADD MLOAD PUSH8 0xFFFFFFFFFFFFFFFF DUP2 GT ISZERO PUSH3 0x3FF JUMPI PUSH3 0x3FE PUSH3 0x161 JUMP JUMPDEST JUMPDEST PUSH3 0x40D DUP8 DUP3 DUP9 ADD PUSH3 0x2B2 JUMP JUMPDEST SWAP4 POP POP PUSH1 0x40 PUSH3 0x420 DUP8 DUP3 DUP9 ADD PUSH3 0x333 JUMP JUMPDEST SWAP3 POP POP PUSH1 0x60 PUSH3 0x433 DUP8 DUP3 DUP9 ADD PUSH3 0x378 JUMP JUMPDEST SWAP2 POP POP SWAP3 SWAP6 SWAP2 SWAP5 POP SWAP3 POP JUMP JUMPDEST PUSH1 0x0 DUP2 MLOAD SWAP1 POP SWAP2 SWAP1 POP JUMP JUMPDEST PUSH32 0x4E487B7100000000000000000000000000000000000000000000000000000000 PUSH1 0x0 MSTORE PUSH1 0x22 PUSH1 0x4 MSTORE PUSH1 0x24 PUSH1 0x0 REVERT JUMPDEST PUSH1 0x0 PUSH1 0x2 DUP3 DIV SWAP1 POP PUSH1 0x1 DUP3 AND DUP1 PUSH3 0x492 JUMPI PUSH1 0x7F DUP3 AND SWAP2 POP JUMPDEST PUSH1 0x20 DUP3 LT DUP2 SUB PUSH3 0x4A8 JUMPI PUSH3 0x4A7 PUSH3 0x44A JUMP JUMPDEST JUMPDEST POP SWAP2 SWAP1 POP JUMP JUMPDEST PUSH1 0x0 DUP2 SWAP1 POP DUP2 PUSH1 0x0 MSTORE PUSH1 0x20 PUSH1 0x0 KECCAK256 SWAP1 POP SWAP2 SWAP1 POP JUMP JUMPDEST PUSH1 0x0 PUSH1 0x20 PUSH1 0x1F DUP4 ADD DIV SWAP1 POP SWAP2 SWAP1 POP JUMP JUMPDEST PUSH1 0x0 DUP3 DUP3 SHL SWAP1 POP SWAP3 SWAP2 POP POP JUMP JUMPDEST PUSH1 0x0 PUSH1 0x8 DUP4 MUL PUSH3 0x512 PUSH32 0xFFFFFFFFFFFFFFFFFFFFFFFFFFFFFFFFFFFFFFFFFFFFFFFFFFFFFFFFFFFFFFFF DUP3 PUSH3 0x4D3 JUMP JUMPDEST PUSH3 0x51E DUP7 DUP4 PUSH3 0x4D3 JUMP JUMPDEST SWAP6 POP DUP1 NOT DUP5 AND SWAP4 POP DUP1 DUP7 AND DUP5 OR SWAP3 POP POP POP SWAP4 SWAP3 POP POP POP JUMP JUMPDEST PUSH1 0x0 DUP2 SWAP1 POP SWAP2 SWAP1 POP JUMP JUMPDEST PUSH1 0x0 DUP2 SWAP1 POP SWAP2 SWAP1 POP JUMP JUMPDEST PUSH1 0x0 PUSH3 0x56B PUSH3 0x565 PUSH3 0x55F DUP5 PUSH3 0x536 JUMP JUMPDEST PUSH3 0x540 JUMP JUMPDEST PUSH3 0x536 JUMP JUMPDEST SWAP1 POP SWAP2 SWAP1 POP JUMP JUMPDEST PUSH1 0x0 DUP2 SWAP1 POP SWAP2 SWAP1 POP JUMP JUMPDEST PUSH3 0x587 DUP4 PUSH3 0x54A JUMP JUMPDEST PUSH3 0x59F PUSH3 0x596 DUP3 PUSH3 0x572 JUMP JUMPDEST DUP5 DUP5 SLOAD PUSH3 0x4E0 JUMP JUMPDEST DUP3 SSTORE POP POP POP POP JUMP JUMPDEST PUSH1 0x0 SWAP1 JUMP JUMPDEST PUSH3 0x5B6 PUSH3 0x5A7 JUMP JUMPDEST PUSH3 0x5C3 DUP2 DUP5 DUP5 PUSH3 0x57C JUMP JUMPDEST POP POP POP JUMP JUMPDEST JUMPDEST DUP2 DUP2 LT ISZERO PUSH3 0x5EB JUMPI PUSH3 0x5DF PUSH1 0x0 DUP3 PUSH3 0x5AC JUMP JUMPDEST PUSH1 0x1 DUP2 ADD SWAP1 POP PUSH3 0x5C9 JUMP JUMPDEST POP POP JUMP JUMPDEST PUSH1 0x1F DUP3 GT ISZERO PUSH3 0x63A JUMPI PUSH3 0x604 DUP2 PUSH3 0x4AE JUMP JUMPDEST PUSH3 0x60F DUP5 PUSH3 0x4C3 JUMP JUMPDEST DUP2 ADD PUSH1 0x20 DUP6 LT ISZERO PUSH3 0x61F JUMPI DUP2 SWAP1 POP JUMPDEST PUSH3 0x637 PUSH3 0x62E DUP6 PUSH3 0x4C3 JUMP JUMPDEST DUP4 ADD DUP3 PUSH3 0x5C8 JUMP JUMPDEST POP POP JUMPDEST POP POP POP JUMP JUMPDEST PUSH1 0x0 DUP3 DUP3 SHR SWAP1 POP SWAP3 SWAP2 POP POP JUMP JUMPDEST PUSH1 0x0 PUSH3 0x65F PUSH1 0x0 NOT DUP5 PUSH1 0x8 MUL PUSH3 0x63F JUMP JUMPDEST NOT DUP1 DUP4 AND SWAP2 POP POP SWAP3 SWAP2 POP POP JUMP JUMPDEST PUSH1 0x0 PUSH3 0x67A DUP4 DUP4 PUSH3 0x64C JUMP JUMPDEST SWAP2 POP DUP3 PUSH1 0x2 MUL DUP3 OR SWAP1 POP SWAP3 SWAP2 POP POP JUMP JUMPDEST PUSH3 0x695 DUP3 PUSH3 0x43F JUMP JUMPDEST PUSH8 0xFFFFFFFFFFFFFFFF DUP2 GT ISZERO PUSH3 0x6B1 JUMPI PUSH3 0x6B0 PUSH3 0x181 JUMP JUMPDEST JUMPDEST PUSH3 0x6BD DUP3 SLOAD PUSH3 0x479 JUMP JUMPDEST PUSH3 0x6CA DUP3 DUP3 DUP6 PUSH3 0x5EF JUMP JUMPDEST PUSH1 0x0 PUSH1 0x20 SWAP1 POP PUSH1 0x1F DUP4 GT PUSH1 0x1 DUP2 EQ PUSH3 0x702 JUMPI PUSH1 0x0 DUP5 ISZERO PUSH3 0x6ED JUMPI DUP3 DUP8 ADD MLOAD SWAP1 POP JUMPDEST PUSH3 0x6F9 DUP6 DUP3 PUSH3 0x66C JUMP JUMPDEST DUP7 SSTORE POP PUSH3 0x769 JUMP JUMPDEST PUSH1 0x1F NOT DUP5 AND PUSH3 0x712 DUP7 PUSH3 0x4AE JUMP JUMPDEST PUSH1 0x0 JUMPDEST DUP3 DUP2 LT ISZERO PUSH3 0x73C JUMPI DUP5 DUP10 ADD MLOAD DUP3 SSTORE PUSH1 0x1 DUP3 ADD SWAP2 POP PUSH1 0x20 DUP6 ADD SWAP5 POP PUSH1 0x20 DUP2 ADD SWAP1 POP PUSH3 0x715 JUMP JUMPDEST DUP7 DUP4 LT ISZERO PUSH3 0x75C JUMPI DUP5 DUP10 ADD MLOAD PUSH3 0x758 PUSH1 0x1F DUP10 AND DUP3 PUSH3 0x64C JUMP JUMPDEST DUP4 SSTORE POP JUMPDEST PUSH1 0x1 PUSH1 0x2 DUP9 MUL ADD DUP9 SSTORE POP POP POP JUMPDEST POP POP POP POP POP POP JUMP JUMPDEST PUSH2 0x1AC0 DUP1 PUSH3 0x781 PUSH1 0x0 CODECOPY PUSH1 0x0 RETURN INVALID PUSH1 0x80 PUSH1 0x40 MSTORE CALLVALUE DUP1 ISZERO PUSH2 0x10 JUMPI PUSH1 0x0 DUP1 REVERT JUMPDEST POP PUSH1 0x4 CALLDATASIZE LT PUSH2 0xCF JUMPI PUSH1 0x0 CALLDATALOAD PUSH1 0xE0 SHR DUP1 PUSH4 0x66829B16 GT PUSH2 0x8C JUMPI DUP1 PUSH4 0xA457C2D7 GT PUSH2 0x66 JUMPI DUP1 PUSH4 0xA457C2D7 EQ PUSH2 0x228 JUMPI DUP1 PUSH4 0xA9059CBB EQ PUSH2 0x258 JUMPI DUP1 PUSH4 0xDD62ED3E EQ PUSH2 0x288 JUMPI DUP1 PUSH4 0xF14FAF6F EQ PUSH2 0x2B8 JUMPI PUSH2 0xCF JUMP JUMPDEST DUP1 PUSH4 0x66829B16 EQ PUSH2 0x1BE JUMPI DUP1 PUSH4 0x70A08231 EQ PUSH2 0x1DA JUMPI DUP1 PUSH4 0x95D89B41 EQ PUSH2 0x20A JUMPI PUSH2 0xCF JUMP JUMPDEST DUP1 PUSH4 0x6FDDE03 EQ PUSH2 0xD4 JUMPI DUP1 PUSH4 0x95EA7B3 EQ PUSH2 0xF2 JUMPI DUP1 PUSH4 0x18160DDD EQ PUSH2 0x122 JUMPI DUP1 PUSH4 0x23B872DD EQ PUSH2 0x140 JUMPI DUP1 PUSH4 0x313CE567 EQ PUSH2 0x170 JUMPI DUP1 PUSH4 0x39509351 EQ PUSH2 0x18E JUMPI JUMPDEST PUSH1 0x0 DUP1 REVERT JUMPDEST PUSH2 0xDC PUSH2 0x2D4 JUMP JUMPDEST PUSH1 0x40 MLOAD PUSH2 0xE9 SWAP2 SWAP1 PUSH2 0x1078 JUMP JUMPDEST PUSH1 0x40 MLOAD DUP1 SWAP2 SUB SWAP1 RETURN JUMPDEST PUSH2 0x10C PUSH1 0x4 DUP1 CALLDATASIZE SUB DUP2 ADD SWAP1 PUSH2 0x107 SWAP2 SWAP1 PUSH2 0x1133 JUMP JUMPDEST PUSH2 0x366 JUMP JUMPDEST PUSH1 0x40 MLOAD PUSH2 0x119 SWAP2 SWAP1 PUSH2 0x118E JUMP JUMPDEST PUSH1 0x40 MLOAD DUP1 SWAP2 SUB SWAP1 RETURN JUMPDEST PUSH2 0x12A PUSH2 0x389 JUMP JUMPDEST PUSH1 0x40 MLOAD PUSH2 0x137 SWAP2 SWAP1 PUSH2 0x11B8 JUMP JUMPDEST PUSH1 0x40 MLOAD DUP1 SWAP2 SUB SWAP1 RETURN JUMPDEST PUSH2 0x15A PUSH1 0x4 DUP1 CALLDATASIZE SUB DUP2 ADD SWAP1 PUSH2 0x155 SWAP2 SWAP1 PUSH2 0x11D3 JUMP JUMPDEST PUSH2 0x393 JUMP JUMPDEST PUSH1 0x40 MLOAD PUSH2 0x167 SWAP2 SWAP1 PUSH2 0x118E JUMP JUMPDEST PUSH1 0x40 MLOAD DUP1 SWAP2 SUB SWAP1 RETURN JUMPDEST PUSH2 0x178 PUSH2 0x3C2 JUMP JUMPDEST PUSH1 0x40 MLOAD PUSH2 0x185 SWAP2 SWAP1 PUSH2 0x1242 JUMP JUMPDEST PUSH1 0x40 MLOAD DUP1 SWAP2 SUB SWAP1 RETURN JUMPDEST PUSH2 0x1A8 PUSH1 0x4 DUP1 CALLDATASIZE SUB DUP2 ADD SWAP1 PUSH2 0x1A3 SWAP2 SWAP1 PUSH2 0x1133 JUMP JUMPDEST PUSH2 0x3CB JUMP JUMPDEST PUSH1 0x40 MLOAD PUSH2 0x1B5 SWAP2 SWAP1 PUSH2 0x118E JUMP JUMPDEST PUSH1 0x40 MLOAD DUP1 SWAP2 SUB SWAP1 RETURN JUMPDEST PUSH2 0x1D8 PUSH1 0x4 DUP1 CALLDATASIZE SUB DUP2 ADD SWAP1 PUSH2 0x1D3 SWAP2 SWAP1 PUSH2 0x129B JUMP JUMPDEST PUSH2 0x402 JUMP JUMPDEST STOP JUMPDEST PUSH2 0x1F4 PUSH1 0x4 DUP1 CALLDATASIZE SUB DUP2 ADD SWAP1 PUSH2 0x1EF SWAP2 SWAP1 PUSH2 0x12C8 JUMP JUMPDEST PUSH2 0x4CD JUMP JUMPDEST PUSH1 0x40 MLOAD PUSH2 0x201 SWAP2 SWAP1 PUSH2 0x11B8 JUMP JUMPDEST PUSH1 0x40 MLOAD DUP1 SWAP2 SUB SWAP1 RETURN JUMPDEST PUSH2 0x212 PUSH2 0x515 JUMP JUMPDEST PUSH1 0x40 MLOAD PUSH2 0x21F SWAP2 SWAP1 PUSH2 0x1078 JUMP JUMPDEST PUSH1 0x40 MLOAD DUP1 SWAP2 SUB SWAP1 RETURN JUMPDEST PUSH2 0x242 PUSH1 0x4 DUP1 CALLDATASIZE SUB DUP2 ADD SWAP1 PUSH2 0x23D SWAP2 SWAP1 PUSH2 0x1133 JUMP JUMPDEST PUSH2 0x5A7 JUMP JUMPDEST PUSH1 0x40 MLOAD PUSH2 0x24F SWAP2 SWAP1 PUSH2 0x118E JUMP JUMPDEST PUSH1 0x40 MLOAD DUP1 SWAP2 SUB SWAP1 RETURN JUMPDEST PUSH2 0x272 PUSH1 0x4 DUP1 CALLDATASIZE SUB DUP2 ADD SWAP1 PUSH2 0x26D SWAP2 SWAP1 PUSH2 0x1133 JUMP JUMPDEST PUSH2 0x61E JUMP JUMPDEST PUSH1 0x40 MLOAD PUSH2 0x27F SWAP2 SWAP1 PUSH2 0x118E JUMP JUMPDEST PUSH1 0x40 MLOAD DUP1 SWAP2 SUB SWAP1 RETURN JUMPDEST PUSH2 0x2A2 PUSH1 0x4 DUP1 CALLDATASIZE SUB DUP2 ADD SWAP1 PUSH2 0x29D SWAP2 SWAP1 PUSH2 0x12F5 JUMP JUMPDEST PUSH2 0x641 JUMP JUMPDEST PUSH1 0x40 MLOAD PUSH2 0x2AF SWAP2 SWAP1 PUSH2 0x11B8 JUMP JUMPDEST PUSH1 0x40 MLOAD DUP1 SWAP2 SUB SWAP1 RETURN JUMPDEST PUSH2 0x2D2 PUSH1 0x4 DUP1 CALLDATASIZE SUB DUP2 ADD SWAP1 PUSH2 0x2CD SWAP2 SWAP1 PUSH2 0x1335 JUMP JUMPDEST PUSH2 0x6C8 JUMP JUMPDEST STOP JUMPDEST PUSH1 0x60 PUSH1 0x3 DUP1 SLOAD PUSH2 0x2E3 SWAP1 PUSH2 0x1391 JUMP JUMPDEST DUP1 PUSH1 0x1F ADD PUSH1 0x20 DUP1 SWAP2 DIV MUL PUSH1 0x20 ADD PUSH1 0x40 MLOAD SWAP1 DUP2 ADD PUSH1 0x40 MSTORE DUP1 SWAP3 SWAP2 SWAP1 DUP2 DUP2 MSTORE PUSH1 0x20 ADD DUP3 DUP1 SLOAD PUSH2 0x30F SWAP1 PUSH2 0x1391 JUMP JUMPDEST DUP1 ISZERO PUSH2 0x35C JUMPI DUP1 PUSH1 0x1F LT PUSH2 0x331 JUMPI PUSH2 0x100 DUP1 DUP4 SLOAD DIV MUL DUP4 MSTORE SWAP2 PUSH1 0x20 ADD SWAP2 PUSH2 0x35C JUMP JUMPDEST DUP3 ADD SWAP2 SWAP1 PUSH1 0x0 MSTORE PUSH1 0x20 PUSH1 0x0 KECCAK256 SWAP1 JUMPDEST DUP2 SLOAD DUP2 MSTORE SWAP1 PUSH1 0x1 ADD SWAP1 PUSH1 0x20 ADD DUP1 DUP4 GT PUSH2 0x33F JUMPI DUP3 SWAP1 SUB PUSH1 0x1F AND DUP3 ADD SWAP2 JUMPDEST POP POP POP POP POP SWAP1 POP SWAP1 JUMP JUMPDEST PUSH1 0x0 DUP1 PUSH2 0x371 PUSH2 0x7EE JUMP JUMPDEST SWAP1 POP PUSH2 0x37E DUP2 DUP6 DUP6 PUSH2 0x7F6 JUMP JUMPDEST PUSH1 0x1 SWAP2 POP POP SWAP3 SWAP2 POP POP JUMP JUMPDEST PUSH1 0x0 PUSH1 0x2 SLOAD SWAP1 POP SWAP1 JUMP JUMPDEST PUSH1 0x0 DUP1 PUSH2 0x39E PUSH2 0x7EE JUMP JUMPDEST SWAP1 POP PUSH2 0x3AB DUP6 DUP3 DUP6 PUSH2 0x9BF JUMP JUMPDEST PUSH2 0x3B6 DUP6 DUP6 DUP6 PUSH2 0xA4B JUMP JUMPDEST PUSH1 0x1 SWAP2 POP POP SWAP4 SWAP3 POP POP POP JUMP JUMPDEST PUSH1 0x0 PUSH1 0x12 SWAP1 POP SWAP1 JUMP JUMPDEST PUSH1 0x0 DUP1 PUSH2 0x3D6 PUSH2 0x7EE JUMP JUMPDEST SWAP1 POP PUSH2 0x3F7 DUP2 DUP6 DUP6 PUSH2 0x3E8 DUP6 DUP10 PUSH2 0x641 JUMP JUMPDEST PUSH2 0x3F2 SWAP2 SWAP1 PUSH2 0x13F1 JUMP JUMPDEST PUSH2 0x7F6 JUMP JUMPDEST PUSH1 0x1 SWAP2 POP POP SWAP3 SWAP2 POP POP JUMP JUMPDEST PUSH1 0x8 PUSH1 0x0 SWAP1 SLOAD SWAP1 PUSH2 0x100 EXP SWAP1 DIV PUSH20 0xFFFFFFFFFFFFFFFFFFFFFFFFFFFFFFFFFFFFFFFF AND PUSH20 0xFFFFFFFFFFFFFFFFFFFFFFFFFFFFFFFFFFFFFFFF AND DUP2 PUSH20 0xFFFFFFFFFFFFFFFFFFFFFFFFFFFFFFFFFFFFFFFF AND SUB PUSH2 0x489 JUMPI PUSH1 0x40 MLOAD PUSH32 0x2AC969600000000000000000000000000000000000000000000000000000000 DUP2 MSTORE PUSH1 0x4 ADD PUSH1 0x40 MLOAD DUP1 SWAP2 SUB SWAP1 REVERT JUMPDEST DUP1 PUSH1 0x8 PUSH1 0x0 PUSH2 0x100 EXP DUP2 SLOAD DUP2 PUSH20 0xFFFFFFFFFFFFFFFFFFFFFFFFFFFFFFFFFFFFFFFF MUL NOT AND SWAP1 DUP4 PUSH20 0xFFFFFFFFFFFFFFFFFFFFFFFFFFFFFFFFFFFFFFFF AND MUL OR SWAP1 SSTORE POP POP JUMP JUMPDEST PUSH1 0x0 DUP1 PUSH1 0x0 DUP4 PUSH20 0xFFFFFFFFFFFFFFFFFFFFFFFFFFFFFFFFFFFFFFFF AND PUSH20 0xFFFFFFFFFFFFFFFFFFFFFFFFFFFFFFFFFFFFFFFF AND DUP2 MSTORE PUSH1 0x20 ADD SWAP1 DUP2 MSTORE PUSH1 0x20 ADD PUSH1 0x0 KECCAK256 SLOAD SWAP1 POP SWAP2 SWAP1 POP JUMP JUMPDEST PUSH1 0x60 PUSH1 0x4 DUP1 SLOAD PUSH2 0x524 SWAP1 PUSH2 0x1391 JUMP JUMPDEST DUP1 PUSH1 0x1F ADD PUSH1 0x20 DUP1 SWAP2 DIV MUL PUSH1 0x20 ADD PUSH1 0x40 MLOAD SWAP1 DUP2 ADD PUSH1 0x40 MSTORE DUP1 SWAP3 SWAP2 SWAP1 DUP2 DUP2 MSTORE PUSH1 0x20 ADD DUP3 DUP1 SLOAD PUSH2 0x550 SWAP1 PUSH2 0x1391 JUMP JUMPDEST DUP1 ISZERO PUSH2 0x59D JUMPI DUP1 PUSH1 0x1F LT PUSH2 0x572 JUMPI PUSH2 0x100 DUP1 DUP4 SLOAD DIV MUL DUP4 MSTORE SWAP2 PUSH1 0x20 ADD SWAP2 PUSH2 0x59D JUMP JUMPDEST DUP3 ADD SWAP2 SWAP1 PUSH1 0x0 MSTORE PUSH1 0x20 PUSH1 0x0 KECCAK256 SWAP1 JUMPDEST DUP2 SLOAD DUP2 MSTORE SWAP1 PUSH1 0x1 ADD SWAP1 PUSH1 0x20 ADD DUP1 DUP4 GT PUSH2 0x580 JUMPI DUP3 SWAP1 SUB PUSH1 0x1F AND DUP3 ADD SWAP2 JUMPDEST POP POP POP POP POP SWAP1 POP SWAP1 JUMP JUMPDEST PUSH1 0x0 DUP1 PUSH2 0x5B2 PUSH2 0x7EE JUMP JUMPDEST SWAP1 POP PUSH1 0x0 PUSH2 0x5C0 DUP3 DUP7 PUSH2 0x641 JUMP JUMPDEST SWAP1 POP DUP4 DUP2 LT ISZERO PUSH2 0x605 JUMPI PUSH1 0x40 MLOAD PUSH32 0x8C379A000000000000000000000000000000000000000000000000000000000 DUP2 MSTORE PUSH1 0x4 ADD PUSH2 0x5FC SWAP1 PUSH2 0x1497 JUMP JUMPDEST PUSH1 0x40 MLOAD DUP1 SWAP2 SUB SWAP1 REVERT JUMPDEST PUSH2 0x612 DUP3 DUP7 DUP7 DUP5 SUB PUSH2 0x7F6 JUMP JUMPDEST PUSH1 0x1 SWAP3 POP POP POP SWAP3 SWAP2 POP POP JUMP JUMPDEST PUSH1 0x0 DUP1 PUSH2 0x629 PUSH2 0x7EE JUMP JUMPDEST SWAP1 POP PUSH2 0x636 DUP2 DUP6 DUP6 PUSH2 0xA4B JUMP JUMPDEST PUSH1 0x1 SWAP2 POP POP SWAP3 SWAP2 POP POP JUMP JUMPDEST PUSH1 0x0 PUSH1 0x1 PUSH1 0x0 DUP5 PUSH20 0xFFFFFFFFFFFFFFFFFFFFFFFFFFFFFFFFFFFFFFFF AND PUSH20 0xFFFFFFFFFFFFFFFFFFFFFFFFFFFFFFFFFFFFFFFF AND DUP2 MSTORE PUSH1 0x20 ADD SWAP1 DUP2 MSTORE PUSH1 0x20 ADD PUSH1 0x0 KECCAK256 PUSH1 0x0 DUP4 PUSH20 0xFFFFFFFFFFFFFFFFFFFFFFFFFFFFFFFFFFFFFFFF AND PUSH20 0xFFFFFFFFFFFFFFFFFFFFFFFFFFFFFFFFFFFFFFFF AND DUP2 MSTORE PUSH1 0x20 ADD SWAP1 DUP2 MSTORE PUSH1 0x20 ADD PUSH1 0x0 KECCAK256 SLOAD SWAP1 POP SWAP3 SWAP2 POP POP JUMP JUMPDEST PUSH1 0x0 DUP2 SUB PUSH2 0x702 JUMPI PUSH1 0x40 MLOAD PUSH32 0x43AD20FC00000000000000000000000000000000000000000000000000000000 DUP2 MSTORE PUSH1 0x4 ADD PUSH1 0x40 MLOAD DUP1 SWAP2 SUB SWAP1 REVERT JUMPDEST DUP1 PUSH1 0x9 PUSH1 0x0 CALLER PUSH20 0xFFFFFFFFFFFFFFFFFFFFFFFFFFFFFFFFFFFFFFFF AND PUSH20 0xFFFFFFFFFFFFFFFFFFFFFFFFFFFFFFFFFFFFFFFF AND DUP2 MSTORE PUSH1 0x20 ADD SWAP1 DUP2 MSTORE PUSH1 0x20 ADD PUSH1 0x0 KECCAK256 PUSH1 0x0 DUP3 DUP3 SLOAD PUSH2 0x751 SWAP2 SWAP1 PUSH2 0x13F1 JUMP JUMPDEST SWAP3 POP POP DUP2 SWAP1 SSTORE POP PUSH2 0x7A7 CALLER ADDRESS DUP4 PUSH1 0x8 PUSH1 0x0 SWAP1 SLOAD SWAP1 PUSH2 0x100 EXP SWAP1 DIV PUSH20 0xFFFFFFFFFFFFFFFFFFFFFFFFFFFFFFFFFFFFFFFF AND PUSH20 0xFFFFFFFFFFFFFFFFFFFFFFFFFFFFFFFFFFFFFFFF AND PUSH2 0xCC1 SWAP1 SWAP4 SWAP3 SWAP2 SWAP1 PUSH4 0xFFFFFFFF AND JUMP JUMPDEST DUP1 CALLER PUSH20 0xFFFFFFFFFFFFFFFFFFFFFFFFFFFFFFFFFFFFFFFF AND PUSH32 0x2A01595CDDF097C90216094025DB714DA3F4E5BD8877B56BA86A24ECEAD8E543 PUSH1 0x40 MLOAD PUSH1 0x40 MLOAD DUP1 SWAP2 SUB SWAP1 LOG3 POP JUMP JUMPDEST PUSH1 0x0 CALLER SWAP1 POP SWAP1 JUMP JUMPDEST PUSH1 0x0 PUSH20 0xFFFFFFFFFFFFFFFFFFFFFFFFFFFFFFFFFFFFFFFF AND DUP4 PUSH20 0xFFFFFFFFFFFFFFFFFFFFFFFFFFFFFFFFFFFFFFFF AND SUB PUSH2 0x865 JUMPI PUSH1 0x40 MLOAD PUSH32 0x8C379A000000000000000000000000000000000000000000000000000000000 DUP2 MSTORE PUSH1 0x4 ADD PUSH2 0x85C SWAP1 PUSH2 0x1529 JUMP JUMPDEST PUSH1 0x40 MLOAD DUP1 SWAP2 SUB SWAP1 REVERT JUMPDEST PUSH1 0x0 PUSH20 0xFFFFFFFFFFFFFFFFFFFFFFFFFFFFFFFFFFFFFFFF AND DUP3 PUSH20 0xFFFFFFFFFFFFFFFFFFFFFFFFFFFFFFFFFFFFFFFF AND SUB PUSH2 0x8D4 JUMPI PUSH1 0x40 MLOAD PUSH32 0x8C379A000000000000000000000000000000000000000000000000000000000 DUP2 MSTORE PUSH1 0x4 ADD PUSH2 0x8CB SWAP1 PUSH2 0x15BB JUMP JUMPDEST PUSH1 0x40 MLOAD DUP1 SWAP2 SUB SWAP1 REVERT JUMPDEST DUP1 PUSH1 0x1 PUSH1 0x0 DUP6 PUSH20 0xFFFFFFFFFFFFFFFFFFFFFFFFFFFFFFFFFFFFFFFF AND PUSH20 0xFFFFFFFFFFFFFFFFFFFFFFFFFFFFFFFFFFFFFFFF AND DUP2 MSTORE PUSH1 0x20 ADD SWAP1 DUP2 MSTORE PUSH1 0x20 ADD PUSH1 0x0 KECCAK256 PUSH1 0x0 DUP5 PUSH20 0xFFFFFFFFFFFFFFFFFFFFFFFFFFFFFFFFFFFFFFFF AND PUSH20 0xFFFFFFFFFFFFFFFFFFFFFFFFFFFFFFFFFFFFFFFF AND DUP2 MSTORE PUSH1 0x20 ADD SWAP1 DUP2 MSTORE PUSH1 0x20 ADD PUSH1 0x0 KECCAK256 DUP2 SWAP1 SSTORE POP DUP2 PUSH20 0xFFFFFFFFFFFFFFFFFFFFFFFFFFFFFFFFFFFFFFFF AND DUP4 PUSH20 0xFFFFFFFFFFFFFFFFFFFFFFFFFFFFFFFFFFFFFFFF AND PUSH32 0x8C5BE1E5EBEC7D5BD14F71427D1E84F3DD0314C0F7B2291E5B200AC8C7C3B925 DUP4 PUSH1 0x40 MLOAD PUSH2 0x9B2 SWAP2 SWAP1 PUSH2 0x11B8 JUMP JUMPDEST PUSH1 0x40 MLOAD DUP1 SWAP2 SUB SWAP1 LOG3 POP POP POP JUMP JUMPDEST PUSH1 0x0 PUSH2 0x9CB DUP5 DUP5 PUSH2 0x641 JUMP JUMPDEST SWAP1 POP PUSH32 0xFFFFFFFFFFFFFFFFFFFFFFFFFFFFFFFFFFFFFFFFFFFFFFFFFFFFFFFFFFFFFFFF DUP2 EQ PUSH2 0xA45 JUMPI DUP2 DUP2 LT ISZERO PUSH2 0xA37 JUMPI PUSH1 0x40 MLOAD PUSH32 0x8C379A000000000000000000000000000000000000000000000000000000000 DUP2 MSTORE PUSH1 0x4 ADD PUSH2 0xA2E SWAP1 PUSH2 0x1627 JUMP JUMPDEST PUSH1 0x40 MLOAD DUP1 SWAP2 SUB SWAP1 REVERT JUMPDEST PUSH2 0xA44 DUP5 DUP5 DUP5 DUP5 SUB PUSH2 0x7F6 JUMP JUMPDEST JUMPDEST POP POP POP POP JUMP JUMPDEST PUSH1 0x0 PUSH20 0xFFFFFFFFFFFFFFFFFFFFFFFFFFFFFFFFFFFFFFFF AND DUP4 PUSH20 0xFFFFFFFFFFFFFFFFFFFFFFFFFFFFFFFFFFFFFFFF AND SUB PUSH2 0xABA JUMPI PUSH1 0x40 MLOAD PUSH32 0x8C379A000000000000000000000000000000000000000000000000000000000 DUP2 MSTORE PUSH1 0x4 ADD PUSH2 0xAB1 SWAP1 PUSH2 0x16B9 JUMP JUMPDEST PUSH1 0x40 MLOAD DUP1 SWAP2 SUB SWAP1 REVERT JUMPDEST PUSH1 0x0 PUSH20 0xFFFFFFFFFFFFFFFFFFFFFFFFFFFFFFFFFFFFFFFF AND DUP3 PUSH20 0xFFFFFFFFFFFFFFFFFFFFFFFFFFFFFFFFFFFFFFFF AND SUB PUSH2 0xB29 JUMPI PUSH1 0x40 MLOAD PUSH32 0x8C379A000000000000000000000000000000000000000000000000000000000 DUP2 MSTORE PUSH1 0x4 ADD PUSH2 0xB20 SWAP1 PUSH2 0x174B JUMP JUMPDEST PUSH1 0x40 MLOAD DUP1 SWAP2 SUB SWAP1 REVERT JUMPDEST PUSH2 0xB34 DUP4 DUP4 DUP4 PUSH2 0xD4A JUMP JUMPDEST PUSH1 0x0 DUP1 PUSH1 0x0 DUP6 PUSH20 0xFFFFFFFFFFFFFFFFFFFFFFFFFFFFFFFFFFFFFFFF AND PUSH20 0xFFFFFFFFFFFFFFFFFFFFFFFFFFFFFFFFFFFFFFFF AND DUP2 MSTORE PUSH1 0x20 ADD SWAP1 DUP2 MSTORE PUSH1 0x20 ADD PUSH1 0x0 KECCAK256 SLOAD SWAP1 POP DUP2 DUP2 LT ISZERO PUSH2 0xBBA JUMPI PUSH1 0x40 MLOAD PUSH32 0x8C379A000000000000000000000000000000000000000000000000000000000 DUP2 MSTORE PUSH1 0x4 ADD PUSH2 0xBB1 SWAP1 PUSH2 0x17DD JUMP JUMPDEST PUSH1 0x40 MLOAD DUP1 SWAP2 SUB SWAP1 REVERT JUMPDEST DUP2 DUP2 SUB PUSH1 0x0 DUP1 DUP7 PUSH20 0xFFFFFFFFFFFFFFFFFFFFFFFFFFFFFFFFFFFFFFFF AND PUSH20 0xFFFFFFFFFFFFFFFFFFFFFFFFFFFFFFFFFFFFFFFF AND DUP2 MSTORE PUSH1 0x20 ADD SWAP1 DUP2 MSTORE PUSH1 0x20 ADD PUSH1 0x0 KECCAK256 DUP2 SWAP1 SSTORE POP DUP2 PUSH1 0x0 DUP1 DUP6 PUSH20 0xFFFFFFFFFFFFFFFFFFFFFFFFFFFFFFFFFFFFFFFF AND PUSH20 0xFFFFFFFFFFFFFFFFFFFFFFFFFFFFFFFFFFFFFFFF AND DUP2 MSTORE PUSH1 0x20 ADD SWAP1 DUP2 MSTORE PUSH1 0x20 ADD PUSH1 0x0 KECCAK256 PUSH1 0x0 DUP3 DUP3 SLOAD ADD SWAP3 POP POP DUP2 SWAP1 SSTORE POP DUP3 PUSH20 0xFFFFFFFFFFFFFFFFFFFFFFFFFFFFFFFFFFFFFFFF AND DUP5 PUSH20 0xFFFFFFFFFFFFFFFFFFFFFFFFFFFFFFFFFFFFFFFF AND PUSH32 0xDDF252AD1BE2C89B69C2B068FC378DAA952BA7F163C4A11628F55A4DF523B3EF DUP5 PUSH1 0x40 MLOAD PUSH2 0xCA8 SWAP2 SWAP1 PUSH2 0x11B8 JUMP JUMPDEST PUSH1 0x40 MLOAD DUP1 SWAP2 SUB SWAP1 LOG3 PUSH2 0xCBB DUP5 DUP5 DUP5 PUSH2 0xD4F JUMP JUMPDEST POP POP POP POP JUMP JUMPDEST PUSH2 0xD44 DUP5 PUSH4 0x23B872DD PUSH1 0xE0 SHL DUP6 DUP6 DUP6 PUSH1 0x40 MLOAD PUSH1 0x24 ADD PUSH2 0xCE2 SWAP4 SWAP3 SWAP2 SWAP1 PUSH2 0x180C JUMP JUMPDEST PUSH1 0x40 MLOAD PUSH1 0x20 DUP2 DUP4 SUB SUB DUP2 MSTORE SWAP1 PUSH1 0x40 MSTORE SWAP1 PUSH28 0xFFFFFFFFFFFFFFFFFFFFFFFFFFFFFFFFFFFFFFFFFFFFFFFFFFFFFFFF NOT AND PUSH1 0x20 DUP3 ADD DUP1 MLOAD PUSH28 0xFFFFFFFFFFFFFFFFFFFFFFFFFFFFFFFFFFFFFFFFFFFFFFFFFFFFFFFF DUP4 DUP2 DUP4 AND OR DUP4 MSTORE POP POP POP POP PUSH2 0xD54 JUMP JUMPDEST POP POP POP POP JUMP JUMPDEST POP POP POP JUMP JUMPDEST POP POP POP JUMP JUMPDEST PUSH1 0x0 PUSH2 0xDB6 DUP3 PUSH1 0x40 MLOAD DUP1 PUSH1 0x40 ADD PUSH1 0x40 MSTORE DUP1 PUSH1 0x20 DUP2 MSTORE PUSH1 0x20 ADD PUSH32 0x5361666545524332303A206C6F772D6C6576656C2063616C6C206661696C6564 DUP2 MSTORE POP DUP6 PUSH20 0xFFFFFFFFFFFFFFFFFFFFFFFFFFFFFFFFFFFFFFFF AND PUSH2 0xE1B SWAP1 SWAP3 SWAP2 SWAP1 PUSH4 0xFFFFFFFF AND JUMP JUMPDEST SWAP1 POP PUSH1 0x0 DUP2 MLOAD GT ISZERO PUSH2 0xE16 JUMPI DUP1 DUP1 PUSH1 0x20 ADD SWAP1 MLOAD DUP2 ADD SWAP1 PUSH2 0xDD6 SWAP2 SWAP1 PUSH2 0x186F JUMP JUMPDEST PUSH2 0xE15 JUMPI PUSH1 0x40 MLOAD PUSH32 0x8C379A000000000000000000000000000000000000000000000000000000000 DUP2 MSTORE PUSH1 0x4 ADD PUSH2 0xE0C SWAP1 PUSH2 0x190E JUMP JUMPDEST PUSH1 0x40 MLOAD DUP1 SWAP2 SUB SWAP1 REVERT JUMPDEST JUMPDEST POP POP POP JUMP JUMPDEST PUSH1 0x60 PUSH2 0xE2A DUP5 DUP5 PUSH1 0x0 DUP6 PUSH2 0xE33 JUMP JUMPDEST SWAP1 POP SWAP4 SWAP3 POP POP POP JUMP JUMPDEST PUSH1 0x60 DUP3 SELFBALANCE LT ISZERO PUSH2 0xE78 JUMPI PUSH1 0x40 MLOAD PUSH32 0x8C379A000000000000000000000000000000000000000000000000000000000 DUP2 MSTORE PUSH1 0x4 ADD PUSH2 0xE6F SWAP1 PUSH2 0x19A0 JUMP JUMPDEST PUSH1 0x40 MLOAD DUP1 SWAP2 SUB SWAP1 REVERT JUMPDEST PUSH1 0x0 DUP1 DUP7 PUSH20 0xFFFFFFFFFFFFFFFFFFFFFFFFFFFFFFFFFFFFFFFF AND DUP6 DUP8 PUSH1 0x40 MLOAD PUSH2 0xEA1 SWAP2 SWAP1 PUSH2 0x1A07 JUMP JUMPDEST PUSH1 0x0 PUSH1 0x40 MLOAD DUP1 DUP4 SUB DUP2 DUP6 DUP8 GAS CALL SWAP3 POP POP POP RETURNDATASIZE DUP1 PUSH1 0x0 DUP2 EQ PUSH2 0xEDE JUMPI PUSH1 0x40 MLOAD SWAP2 POP PUSH1 0x1F NOT PUSH1 0x3F RETURNDATASIZE ADD AND DUP3 ADD PUSH1 0x40 MSTORE RETURNDATASIZE DUP3 MSTORE RETURNDATASIZE PUSH1 0x0 PUSH1 0x20 DUP5 ADD RETURNDATACOPY PUSH2 0xEE3 JUMP JUMPDEST PUSH1 0x60 SWAP2 POP JUMPDEST POP SWAP2 POP SWAP2 POP PUSH2 0xEF4 DUP8 DUP4 DUP4 DUP8 PUSH2 0xF00 JUMP JUMPDEST SWAP3 POP POP POP SWAP5 SWAP4 POP POP POP POP JUMP JUMPDEST PUSH1 0x60 DUP4 ISZERO PUSH2 0xF62 JUMPI PUSH1 0x0 DUP4 MLOAD SUB PUSH2 0xF5A JUMPI PUSH2 0xF1A DUP6 PUSH2 0xF75 JUMP JUMPDEST PUSH2 0xF59 JUMPI PUSH1 0x40 MLOAD PUSH32 0x8C379A000000000000000000000000000000000000000000000000000000000 DUP2 MSTORE PUSH1 0x4 ADD PUSH2 0xF50 SWAP1 PUSH2 0x1A6A JUMP JUMPDEST PUSH1 0x40 MLOAD DUP1 SWAP2 SUB SWAP1 REVERT JUMPDEST JUMPDEST DUP3 SWAP1 POP PUSH2 0xF6D JUMP JUMPDEST PUSH2 0xF6C DUP4 DUP4 PUSH2 0xF98 JUMP JUMPDEST JUMPDEST SWAP5 SWAP4 POP POP POP POP JUMP JUMPDEST PUSH1 0x0 DUP1 DUP3 PUSH20 0xFFFFFFFFFFFFFFFFFFFFFFFFFFFFFFFFFFFFFFFF AND EXTCODESIZE GT SWAP1 POP SWAP2 SWAP1 POP JUMP JUMPDEST PUSH1 0x0 DUP3 MLOAD GT ISZERO PUSH2 0xFAB JUMPI DUP2 MLOAD DUP1 DUP4 PUSH1 0x20 ADD REVERT JUMPDEST DUP1 PUSH1 0x40 MLOAD PUSH32 0x8C379A000000000000000000000000000000000000000000000000000000000 DUP2 MSTORE PUSH1 0x4 ADD PUSH2 0xFDF SWAP2 SWAP1 PUSH2 0x1078 JUMP JUMPDEST PUSH1 0x40 MLOAD DUP1 SWAP2 SUB SWAP1 REVERT JUMPDEST PUSH1 0x0 DUP2 MLOAD SWAP1 POP SWAP2 SWAP1 POP JUMP JUMPDEST PUSH1 0x0 DUP3 DUP3 MSTORE PUSH1 0x20 DUP3 ADD SWAP1 POP SWAP3 SWAP2 POP POP JUMP JUMPDEST PUSH1 0x0 JUMPDEST DUP4 DUP2 LT ISZERO PUSH2 0x1022 JUMPI DUP1 DUP3 ADD MLOAD DUP2 DUP5 ADD MSTORE PUSH1 0x20 DUP2 ADD SWAP1 POP PUSH2 0x1007 JUMP JUMPDEST PUSH1 0x0 DUP5 DUP5 ADD MSTORE POP POP POP POP JUMP JUMPDEST PUSH1 0x0 PUSH1 0x1F NOT PUSH1 0x1F DUP4 ADD AND SWAP1 POP SWAP2 SWAP1 POP JUMP JUMPDEST PUSH1 0x0 PUSH2 0x104A DUP3 PUSH2 0xFE8 JUMP JUMPDEST PUSH2 0x1054 DUP2 DUP6 PUSH2 0xFF3 JUMP JUMPDEST SWAP4 POP PUSH2 0x1064 DUP2 DUP6 PUSH1 0x20 DUP7 ADD PUSH2 0x1004 JUMP JUMPDEST PUSH2 0x106D DUP2 PUSH2 0x102E JUMP JUMPDEST DUP5 ADD SWAP2 POP POP SWAP3 SWAP2 POP POP JUMP JUMPDEST PUSH1 0x0 PUSH1 0x20 DUP3 ADD SWAP1 POP DUP2 DUP2 SUB PUSH1 0x0 DUP4 ADD MSTORE PUSH2 0x1092 DUP2 DUP5 PUSH2 0x103F JUMP JUMPDEST SWAP1 POP SWAP3 SWAP2 POP POP JUMP JUMPDEST PUSH1 0x0 DUP1 REVERT JUMPDEST PUSH1 0x0 PUSH20 0xFFFFFFFFFFFFFFFFFFFFFFFFFFFFFFFFFFFFFFFF DUP3 AND SWAP1 POP SWAP2 SWAP1 POP JUMP JUMPDEST PUSH1 0x0 PUSH2 0x10CA DUP3 PUSH2 0x109F JUMP JUMPDEST SWAP1 POP SWAP2 SWAP1 POP JUMP JUMPDEST PUSH2 0x10DA DUP2 PUSH2 0x10BF JUMP JUMPDEST DUP2 EQ PUSH2 0x10E5 JUMPI PUSH1 0x0 DUP1 REVERT JUMPDEST POP JUMP JUMPDEST PUSH1 0x0 DUP2 CALLDATALOAD SWAP1 POP PUSH2 0x10F7 DUP2 PUSH2 0x10D1 JUMP JUMPDEST SWAP3 SWAP2 POP POP JUMP JUMPDEST PUSH1 0x0 DUP2 SWAP1 POP SWAP2 SWAP1 POP JUMP JUMPDEST PUSH2 0x1110 DUP2 PUSH2 0x10FD JUMP JUMPDEST DUP2 EQ PUSH2 0x111B JUMPI PUSH1 0x0 DUP1 REVERT JUMPDEST POP JUMP JUMPDEST PUSH1 0x0 DUP2 CALLDATALOAD SWAP1 POP PUSH2 0x112D DUP2 PUSH2 0x1107 JUMP JUMPDEST SWAP3 SWAP2 POP POP JUMP JUMPDEST PUSH1 0x0 DUP1 PUSH1 0x40 DUP4 DUP6 SUB SLT ISZERO PUSH2 0x114A JUMPI PUSH2 0x1149 PUSH2 0x109A JUMP JUMPDEST JUMPDEST PUSH1 0x0 PUSH2 0x1158 DUP6 DUP3 DUP7 ADD PUSH2 0x10E8 JUMP JUMPDEST SWAP3 POP POP PUSH1 0x20 PUSH2 0x1169 DUP6 DUP3 DUP7 ADD PUSH2 0x111E JUMP JUMPDEST SWAP2 POP POP SWAP3 POP SWAP3 SWAP1 POP JUMP JUMPDEST PUSH1 0x0 DUP2 ISZERO ISZERO SWAP1 POP SWAP2 SWAP1 POP JUMP JUMPDEST PUSH2 0x1188 DUP2 PUSH2 0x1173 JUMP JUMPDEST DUP3 MSTORE POP POP JUMP JUMPDEST PUSH1 0x0 PUSH1 0x20 DUP3 ADD SWAP1 POP PUSH2 0x11A3 PUSH1 0x0 DUP4 ADD DUP5 PUSH2 0x117F JUMP JUMPDEST SWAP3 SWAP2 POP POP JUMP JUMPDEST PUSH2 0x11B2 DUP2 PUSH2 0x10FD JUMP JUMPDEST DUP3 MSTORE POP POP JUMP JUMPDEST PUSH1 0x0 PUSH1 0x20 DUP3 ADD SWAP1 POP PUSH2 0x11CD PUSH1 0x0 DUP4 ADD DUP5 PUSH2 0x11A9 JUMP JUMPDEST SWAP3 SWAP2 POP POP JUMP JUMPDEST PUSH1 0x0 DUP1 PUSH1 0x0 PUSH1 0x60 DUP5 DUP7 SUB SLT ISZERO PUSH2 0x11EC JUMPI PUSH2 0x11EB PUSH2 0x109A JUMP JUMPDEST JUMPDEST PUSH1 0x0 PUSH2 0x11FA DUP7 DUP3 DUP8 ADD PUSH2 0x10E8 JUMP JUMPDEST SWAP4 POP POP PUSH1 0x20 PUSH2 0x120B DUP7 DUP3 DUP8 ADD PUSH2 0x10E8 JUMP JUMPDEST SWAP3 POP POP PUSH1 0x40 PUSH2 0x121C DUP7 DUP3 DUP8 ADD PUSH2 0x111E JUMP JUMPDEST SWAP2 POP POP SWAP3 POP SWAP3 POP SWAP3 JUMP JUMPDEST PUSH1 0x0 PUSH1 0xFF DUP3 AND SWAP1 POP SWAP2 SWAP1 POP JUMP JUMPDEST PUSH2 0x123C DUP2 PUSH2 0x1226 JUMP JUMPDEST DUP3 MSTORE POP POP JUMP JUMPDEST PUSH1 0x0 PUSH1 0x20 DUP3 ADD SWAP1 POP PUSH2 0x1257 PUSH1 0x0 DUP4 ADD DUP5 PUSH2 0x1233 JUMP JUMPDEST SWAP3 SWAP2 POP POP JUMP JUMPDEST PUSH1 0x0 PUSH2 0x1268 DUP3 PUSH2 0x10BF JUMP JUMPDEST SWAP1 POP SWAP2 SWAP1 POP JUMP JUMPDEST PUSH2 0x1278 DUP2 PUSH2 0x125D JUMP JUMPDEST DUP2 EQ PUSH2 0x1283 JUMPI PUSH1 0x0 DUP1 REVERT JUMPDEST POP JUMP JUMPDEST PUSH1 0x0 DUP2 CALLDATALOAD SWAP1 POP PUSH2 0x1295 DUP2 PUSH2 0x126F JUMP JUMPDEST SWAP3 SWAP2 POP POP JUMP JUMPDEST PUSH1 0x0 PUSH1 0x20 DUP3 DUP5 SUB SLT ISZERO PUSH2 0x12B1 JUMPI PUSH2 0x12B0 PUSH2 0x109A JUMP JUMPDEST JUMPDEST PUSH1 0x0 PUSH2 0x12BF DUP5 DUP3 DUP6 ADD PUSH2 0x1286 JUMP JUMPDEST SWAP2 POP POP SWAP3 SWAP2 POP POP JUMP JUMPDEST PUSH1 0x0 PUSH1 0x20 DUP3 DUP5 SUB SLT ISZERO PUSH2 0x12DE JUMPI PUSH2 0x12DD PUSH2 0x109A JUMP JUMPDEST JUMPDEST PUSH1 0x0 PUSH2 0x12EC DUP5 DUP3 DUP6 ADD PUSH2 0x10E8 JUMP JUMPDEST SWAP2 POP POP SWAP3 SWAP2 POP POP JUMP JUMPDEST PUSH1 0x0 DUP1 PUSH1 0x40 DUP4 DUP6 SUB SLT ISZERO PUSH2 0x130C JUMPI PUSH2 0x130B PUSH2 0x109A JUMP JUMPDEST JUMPDEST PUSH1 0x0 PUSH2 0x131A DUP6 DUP3 DUP7 ADD PUSH2 0x10E8 JUMP JUMPDEST SWAP3 POP POP PUSH1 0x20 PUSH2 0x132B DUP6 DUP3 DUP7 ADD PUSH2 0x10E8 JUMP JUMPDEST SWAP2 POP POP SWAP3 POP SWAP3 SWAP1 POP JUMP JUMPDEST PUSH1 0x0 PUSH1 0x20 DUP3 DUP5 SUB SLT ISZERO PUSH2 0x134B JUMPI PUSH2 0x134A PUSH2 0x109A JUMP JUMPDEST JUMPDEST PUSH1 0x0 PUSH2 0x1359 DUP5 DUP3 DUP6 ADD PUSH2 0x111E JUMP JUMPDEST SWAP2 POP POP SWAP3 SWAP2 POP POP JUMP JUMPDEST PUSH32 0x4E487B7100000000000000000000000000000000000000000000000000000000 PUSH1 0x0 MSTORE PUSH1 0x22 PUSH1 0x4 MSTORE PUSH1 0x24 PUSH1 0x0 REVERT JUMPDEST PUSH1 0x0 PUSH1 0x2 DUP3 DIV SWAP1 POP PUSH1 0x1 DUP3 AND DUP1 PUSH2 0x13A9 JUMPI PUSH1 0x7F DUP3 AND SWAP2 POP JUMPDEST PUSH1 0x20 DUP3 LT DUP2 SUB PUSH2 0x13BC JUMPI PUSH2 0x13BB PUSH2 0x1362 JUMP JUMPDEST JUMPDEST POP SWAP2 SWAP1 POP JUMP JUMPDEST PUSH32 0x4E487B7100000000000000000000000000000000000000000000000000000000 PUSH1 0x0 MSTORE PUSH1 0x11 PUSH1 0x4 MSTORE PUSH1 0x24 PUSH1 0x0 REVERT JUMPDEST PUSH1 0x0 PUSH2 0x13FC DUP3 PUSH2 0x10FD JUMP JUMPDEST SWAP2 POP PUSH2 0x1407 DUP4 PUSH2 0x10FD JUMP JUMPDEST SWAP3 POP DUP3 DUP3 ADD SWAP1 POP DUP1 DUP3 GT ISZERO PUSH2 0x141F JUMPI PUSH2 0x141E PUSH2 0x13C2 JUMP JUMPDEST JUMPDEST SWAP3 SWAP2 POP POP JUMP JUMPDEST PUSH32 0x45524332303A2064656372656173656420616C6C6F77616E63652062656C6F77 PUSH1 0x0 DUP3 ADD MSTORE PUSH32 0x207A65726F000000000000000000000000000000000000000000000000000000 PUSH1 0x20 DUP3 ADD MSTORE POP JUMP JUMPDEST PUSH1 0x0 PUSH2 0x1481 PUSH1 0x25 DUP4 PUSH2 0xFF3 JUMP JUMPDEST SWAP2 POP PUSH2 0x148C DUP3 PUSH2 0x1425 JUMP JUMPDEST PUSH1 0x40 DUP3 ADD SWAP1 POP SWAP2 SWAP1 POP JUMP JUMPDEST PUSH1 0x0 PUSH1 0x20 DUP3 ADD SWAP1 POP DUP2 DUP2 SUB PUSH1 0x0 DUP4 ADD MSTORE PUSH2 0x14B0 DUP2 PUSH2 0x1474 JUMP JUMPDEST SWAP1 POP SWAP2 SWAP1 POP JUMP JUMPDEST PUSH32 0x45524332303A20617070726F76652066726F6D20746865207A65726F20616464 PUSH1 0x0 DUP3 ADD MSTORE PUSH32 0x7265737300000000000000000000000000000000000000000000000000000000 PUSH1 0x20 DUP3 ADD MSTORE POP JUMP JUMPDEST PUSH1 0x0 PUSH2 0x1513 PUSH1 0x24 DUP4 PUSH2 0xFF3 JUMP JUMPDEST SWAP2 POP PUSH2 0x151E DUP3 PUSH2 0x14B7 JUMP JUMPDEST PUSH1 0x40 DUP3 ADD SWAP1 POP SWAP2 SWAP1 POP JUMP JUMPDEST PUSH1 0x0 PUSH1 0x20 DUP3 ADD SWAP1 POP DUP2 DUP2 SUB PUSH1 0x0 DUP4 ADD MSTORE PUSH2 0x1542 DUP2 PUSH2 0x1506 JUMP JUMPDEST SWAP1 POP SWAP2 SWAP1 POP JUMP JUMPDEST PUSH32 0x45524332303A20617070726F766520746F20746865207A65726F206164647265 PUSH1 0x0 DUP3 ADD MSTORE PUSH32 0x7373000000000000000000000000000000000000000000000000000000000000 PUSH1 0x20 DUP3 ADD MSTORE POP JUMP JUMPDEST PUSH1 0x0 PUSH2 0x15A5 PUSH1 0x22 DUP4 PUSH2 0xFF3 JUMP JUMPDEST SWAP2 POP PUSH2 0x15B0 DUP3 PUSH2 0x1549 JUMP JUMPDEST PUSH1 0x40 DUP3 ADD SWAP1 POP SWAP2 SWAP1 POP JUMP JUMPDEST PUSH1 0x0 PUSH1 0x20 DUP3 ADD SWAP1 POP DUP2 DUP2 SUB PUSH1 0x0 DUP4 ADD MSTORE PUSH2 0x15D4 DUP2 PUSH2 0x1598 JUMP JUMPDEST SWAP1 POP SWAP2 SWAP1 POP JUMP JUMPDEST PUSH32 0x45524332303A20696E73756666696369656E7420616C6C6F77616E6365000000 PUSH1 0x0 DUP3 ADD MSTORE POP JUMP JUMPDEST PUSH1 0x0 PUSH2 0x1611 PUSH1 0x1D DUP4 PUSH2 0xFF3 JUMP JUMPDEST SWAP2 POP PUSH2 0x161C DUP3 PUSH2 0x15DB JUMP JUMPDEST PUSH1 0x20 DUP3 ADD SWAP1 POP SWAP2 SWAP1 POP JUMP JUMPDEST PUSH1 0x0 PUSH1 0x20 DUP3 ADD SWAP1 POP DUP2 DUP2 SUB PUSH1 0x0 DUP4 ADD MSTORE PUSH2 0x1640 DUP2 PUSH2 0x1604 JUMP JUMPDEST SWAP1 POP SWAP2 SWAP1 POP JUMP JUMPDEST PUSH32 0x45524332303A207472616E736665722066726F6D20746865207A65726F206164 PUSH1 0x0 DUP3 ADD MSTORE PUSH32 0x6472657373000000000000000000000000000000000000000000000000000000 PUSH1 0x20 DUP3 ADD MSTORE POP JUMP JUMPDEST PUSH1 0x0 PUSH2 0x16A3 PUSH1 0x25 DUP4 PUSH2 0xFF3 JUMP JUMPDEST SWAP2 POP PUSH2 0x16AE DUP3 PUSH2 0x1647 JUMP JUMPDEST PUSH1 0x40 DUP3 ADD SWAP1 POP SWAP2 SWAP1 POP JUMP JUMPDEST PUSH1 0x0 PUSH1 0x20 DUP3 ADD SWAP1 POP DUP2 DUP2 SUB PUSH1 0x0 DUP4 ADD MSTORE PUSH2 0x16D2 DUP2 PUSH2 0x1696 JUMP JUMPDEST SWAP1 POP SWAP2 SWAP1 POP JUMP JUMPDEST PUSH32 0x45524332303A207472616E7366657220746F20746865207A65726F2061646472 PUSH1 0x0 DUP3 ADD MSTORE PUSH32 0x6573730000000000000000000000000000000000000000000000000000000000 PUSH1 0x20 DUP3 ADD MSTORE POP JUMP JUMPDEST PUSH1 0x0 PUSH2 0x1735 PUSH1 0x23 DUP4 PUSH2 0xFF3 JUMP JUMPDEST SWAP2 POP PUSH2 0x1740 DUP3 PUSH2 0x16D9 JUMP JUMPDEST PUSH1 0x40 DUP3 ADD SWAP1 POP SWAP2 SWAP1 POP JUMP JUMPDEST PUSH1 0x0 PUSH1 0x20 DUP3 ADD SWAP1 POP DUP2 DUP2 SUB PUSH1 0x0 DUP4 ADD MSTORE PUSH2 0x1764 DUP2 PUSH2 0x1728 JUMP JUMPDEST SWAP1 POP SWAP2 SWAP1 POP JUMP JUMPDEST PUSH32 0x45524332303A207472616E7366657220616D6F756E7420657863656564732062 PUSH1 0x0 DUP3 ADD MSTORE PUSH32 0x616C616E63650000000000000000000000000000000000000000000000000000 PUSH1 0x20 DUP3 ADD MSTORE POP JUMP JUMPDEST PUSH1 0x0 PUSH2 0x17C7 PUSH1 0x26 DUP4 PUSH2 0xFF3 JUMP JUMPDEST SWAP2 POP PUSH2 0x17D2 DUP3 PUSH2 0x176B JUMP JUMPDEST PUSH1 0x40 DUP3 ADD SWAP1 POP SWAP2 SWAP1 POP JUMP JUMPDEST PUSH1 0x0 PUSH1 0x20 DUP3 ADD SWAP1 POP DUP2 DUP2 SUB PUSH1 0x0 DUP4 ADD MSTORE PUSH2 0x17F6 DUP2 PUSH2 0x17BA JUMP JUMPDEST SWAP1 POP SWAP2 SWAP1 POP JUMP JUMPDEST PUSH2 0x1806 DUP2 PUSH2 0x10BF JUMP JUMPDEST DUP3 MSTORE POP POP JUMP JUMPDEST PUSH1 0x0 PUSH1 0x60 DUP3 ADD SWAP1 POP PUSH2 0x1821 PUSH1 0x0 DUP4 ADD DUP7 PUSH2 0x17FD JUMP JUMPDEST PUSH2 0x182E PUSH1 0x20 DUP4 ADD DUP6 PUSH2 0x17FD JUMP JUMPDEST PUSH2 0x183B PUSH1 0x40 DUP4 ADD DUP5 PUSH2 0x11A9 JUMP JUMPDEST SWAP5 SWAP4 POP POP POP POP JUMP JUMPDEST PUSH2 0x184C DUP2 PUSH2 0x1173 JUMP JUMPDEST DUP2 EQ PUSH2 0x1857 JUMPI PUSH1 0x0 DUP1 REVERT JUMPDEST POP JUMP JUMPDEST PUSH1 0x0 DUP2 MLOAD SWAP1 POP PUSH2 0x1869 DUP2 PUSH2 0x1843 JUMP JUMPDEST SWAP3 SWAP2 POP POP JUMP JUMPDEST PUSH1 0x0 PUSH1 0x20 DUP3 DUP5 SUB SLT ISZERO PUSH2 0x1885 JUMPI PUSH2 0x1884 PUSH2 0x109A JUMP JUMPDEST JUMPDEST PUSH1 0x0 PUSH2 0x1893 DUP5 DUP3 DUP6 ADD PUSH2 0x185A JUMP JUMPDEST SWAP2 POP POP SWAP3 SWAP2 POP POP JUMP JUMPDEST PUSH32 0x5361666545524332303A204552433230206F7065726174696F6E20646964206E PUSH1 0x0 DUP3 ADD MSTORE PUSH32 0x6F74207375636365656400000000000000000000000000000000000000000000 PUSH1 0x20 DUP3 ADD MSTORE POP JUMP JUMPDEST PUSH1 0x0 PUSH2 0x18F8 PUSH1 0x2A DUP4 PUSH2 0xFF3 JUMP JUMPDEST SWAP2 POP PUSH2 0x1903 DUP3 PUSH2 0x189C JUMP JUMPDEST PUSH1 0x40 DUP3 ADD SWAP1 POP SWAP2 SWAP1 POP JUMP JUMPDEST PUSH1 0x0 PUSH1 0x20 DUP3 ADD SWAP1 POP DUP2 DUP2 SUB PUSH1 0x0 DUP4 ADD MSTORE PUSH2 0x1927 DUP2 PUSH2 0x18EB JUMP JUMPDEST SWAP1 POP SWAP2 SWAP1 POP JUMP JUMPDEST PUSH32 0x416464726573733A20696E73756666696369656E742062616C616E636520666F PUSH1 0x0 DUP3 ADD MSTORE PUSH32 0x722063616C6C0000000000000000000000000000000000000000000000000000 PUSH1 0x20 DUP3 ADD MSTORE POP JUMP JUMPDEST PUSH1 0x0 PUSH2 0x198A PUSH1 0x26 DUP4 PUSH2 0xFF3 JUMP JUMPDEST SWAP2 POP PUSH2 0x1995 DUP3 PUSH2 0x192E JUMP JUMPDEST PUSH1 0x40 DUP3 ADD SWAP1 POP SWAP2 SWAP1 POP JUMP JUMPDEST PUSH1 0x0 PUSH1 0x20 DUP3 ADD SWAP1 POP DUP2 DUP2 SUB PUSH1 0x0 DUP4 ADD MSTORE PUSH2 0x19B9 DUP2 PUSH2 0x197D JUMP JUMPDEST SWAP1 POP SWAP2 SWAP1 POP JUMP JUMPDEST PUSH1 0x0 DUP2 MLOAD SWAP1 POP SWAP2 SWAP1 POP JUMP JUMPDEST PUSH1 0x0 DUP2 SWAP1 POP SWAP3 SWAP2 POP POP JUMP JUMPDEST PUSH1 0x0 PUSH2 0x19E1 DUP3 PUSH2 0x19C0 JUMP JUMPDEST PUSH2 0x19EB DUP2 DUP6 PUSH2 0x19CB JUMP JUMPDEST SWAP4 POP PUSH2 0x19FB DUP2 DUP6 PUSH1 0x20 DUP7 ADD PUSH2 0x1004 JUMP JUMPDEST DUP1 DUP5 ADD SWAP2 POP POP SWAP3 SWAP2 POP POP JUMP JUMPDEST PUSH1 0x0 PUSH2 0x1A13 DUP3 DUP5 PUSH2 0x19D6 JUMP JUMPDEST SWAP2 POP DUP2 SWAP1 POP SWAP3 SWAP2 POP POP JUMP JUMPDEST PUSH32 0x416464726573733A2063616C6C20746F206E6F6E2D636F6E7472616374000000 PUSH1 0x0 DUP3 ADD MSTORE POP JUMP JUMPDEST PUSH1 0x0 PUSH2 0x1A54 PUSH1 0x1D DUP4 PUSH2 0xFF3 JUMP JUMPDEST SWAP2 POP PUSH2 0x1A5F DUP3 PUSH2 0x1A1E JUMP JUMPDEST PUSH1 0x20 DUP3 ADD SWAP1 POP SWAP2 SWAP1 POP JUMP JUMPDEST PUSH1 0x0 PUSH1 0x20 DUP3 ADD SWAP1 POP DUP2 DUP2 SUB PUSH1 0x0 DUP4 ADD MSTORE PUSH2 0x1A83 DUP2 PUSH2 0x1A47 JUMP JUMPDEST SWAP1 POP SWAP2 SWAP1 POP JUMP INVALID LOG2 PUSH5 0x6970667358 0x22 SLT KECCAK256 MUL 0xD2 SELFBALANCE 0xD4 0xC7 0xE6 0xF6 EQ 0x4F CALLDATASIZE 0xFC 0x26 SWAP4 DUP11 0xC3 0xE6 CODESIZE 0x4E 0xE LOG3 SWAP1 BALANCE COINBASE RETURNDATACOPY 0xD8 PUSH23 0x62D18DE491EE64736F6C63430008110033000000000000 "
				},
				"gasEstimates": {
					"creation": {
						"codeDepositCost": "1369600",
						"executionCost": "infinite",
						"totalCost": "infinite"
					},
					"external": {
						"allowance(address,address)": "infinite",
						"approve(address,uint256)": "infinite",
						"balanceOf(address)": "2886",
						"changeToken(address)": "26959",
						"decimals()": "432",
						"decreaseAllowance(address,uint256)": "infinite",
						"donate(uint256)": "infinite",
						"increaseAllowance(address,uint256)": "infinite",
						"name()": "infinite",
						"symbol()": "infinite",
						"totalSupply()": "2482",
						"transfer(address,uint256)": "infinite",
						"transferFrom(address,address,uint256)": "infinite"
					}
				},
				"methodIdentifiers": {
					"allowance(address,address)": "dd62ed3e",
					"approve(address,uint256)": "095ea7b3",
					"balanceOf(address)": "70a08231",
					"changeToken(address)": "66829b16",
					"decimals()": "313ce567",
					"decreaseAllowance(address,uint256)": "a457c2d7",
					"donate(uint256)": "f14faf6f",
					"increaseAllowance(address,uint256)": "39509351",
					"name()": "06fdde03",
					"symbol()": "95d89b41",
					"totalSupply()": "18160ddd",
					"transfer(address,uint256)": "a9059cbb",
					"transferFrom(address,address,uint256)": "23b872dd"
				}
			},
			"storageLayout": {
				"storage": [
					{
						"astId": 184,
						"contract": "src/Derivatives/CharityToken.sol:CharityToken",
						"label": "_balances",
						"offset": 0,
						"slot": "0",
						"type": "t_mapping(t_address,t_uint256)"
					},
					{
						"astId": 190,
						"contract": "src/Derivatives/CharityToken.sol:CharityToken",
						"label": "_allowances",
						"offset": 0,
						"slot": "1",
						"type": "t_mapping(t_address,t_mapping(t_address,t_uint256))"
					},
					{
						"astId": 192,
						"contract": "src/Derivatives/CharityToken.sol:CharityToken",
						"label": "_totalSupply",
						"offset": 0,
						"slot": "2",
						"type": "t_uint256"
					},
					{
						"astId": 194,
						"contract": "src/Derivatives/CharityToken.sol:CharityToken",
						"label": "_name",
						"offset": 0,
						"slot": "3",
						"type": "t_string_storage"
					},
					{
						"astId": 196,
						"contract": "src/Derivatives/CharityToken.sol:CharityToken",
						"label": "_symbol",
						"offset": 0,
						"slot": "4",
						"type": "t_string_storage"
					},
					{
						"astId": 6,
						"contract": "src/Derivatives/CharityToken.sol:CharityToken",
						"label": "_initialized",
						"offset": 0,
						"slot": "5",
						"type": "t_uint8"
					},
					{
						"astId": 9,
						"contract": "src/Derivatives/CharityToken.sol:CharityToken",
						"label": "_initializing",
						"offset": 1,
						"slot": "5",
						"type": "t_bool"
					},
					{
						"astId": 1551,
						"contract": "src/Derivatives/CharityToken.sol:CharityToken",
						"label": "owner",
						"offset": 2,
						"slot": "5",
						"type": "t_address"
					},
					{
						"astId": 1553,
						"contract": "src/Derivatives/CharityToken.sol:CharityToken",
						"label": "_name",
						"offset": 0,
						"slot": "6",
						"type": "t_string_storage"
					},
					{
						"astId": 1555,
						"contract": "src/Derivatives/CharityToken.sol:CharityToken",
						"label": "_symbol",
						"offset": 0,
						"slot": "7",
						"type": "t_string_storage"
					},
					{
						"astId": 1558,
						"contract": "src/Derivatives/CharityToken.sol:CharityToken",
						"label": "paymentToken",
						"offset": 0,
						"slot": "8",
						"type": "t_contract(IERC20)833"
					},
					{
						"astId": 1562,
						"contract": "src/Derivatives/CharityToken.sol:CharityToken",
						"label": "donators",
						"offset": 0,
						"slot": "9",
						"type": "t_mapping(t_address,t_uint256)"
					}
				],
				"types": {
					"t_address": {
						"encoding": "inplace",
						"label": "address",
						"numberOfBytes": "20"
					},
					"t_bool": {
						"encoding": "inplace",
						"label": "bool",
						"numberOfBytes": "1"
					},
					"t_contract(IERC20)833": {
						"encoding": "inplace",
						"label": "contract IERC20",
						"numberOfBytes": "20"
					},
					"t_mapping(t_address,t_mapping(t_address,t_uint256))": {
						"encoding": "mapping",
						"key": "t_address",
						"label": "mapping(address => mapping(address => uint256))",
						"numberOfBytes": "32",
						"value": "t_mapping(t_address,t_uint256)"
					},
					"t_mapping(t_address,t_uint256)": {
						"encoding": "mapping",
						"key": "t_address",
						"label": "mapping(address => uint256)",
						"numberOfBytes": "32",
						"value": "t_uint256"
					},
					"t_string_storage": {
						"encoding": "bytes",
						"label": "string",
						"numberOfBytes": "32"
					},
					"t_uint256": {
						"encoding": "inplace",
						"label": "uint256",
						"numberOfBytes": "32"
					},
					"t_uint8": {
						"encoding": "inplace",
						"label": "uint8",
						"numberOfBytes": "1"
					}
				}
			},
			"userdoc": {
				"kind": "user",
				"methods": {},
				"version": 1
			}
		}
	}
}